:020000040000FA
:100000006F001016000000000000000090000020AB
:10001000C0040020A9BDF9F59400002000000000F4
:100020000000000096000020980000200000000062
:10003000000000009A000020000000009C0000204A
:100040000000000006030020A0000020A200002005
:10005000A4000020A6000020A8000020AA00002084
:10006000AC000020AE000020B0000020C600002040
:1000700056010020B6000020B8000020BA00002081
:10008000BC000020BE000020E60100207602002017
:10009000C400002001A001A001A001A001A001A0B6
:1000A00001A001A001A001A001A001A001A001A048
:1000B00001A001A001A001A001A001A001A001A038
:1000C00001A001A001A001A001A037370040834793
:1000D000470099464111BD8B638AD702314763823D
:1000E000E7061147639CE702A303010003C62182D0
:1000F00037370040834771006315F6022C001385E3
:100100008170972000E0E78080BB09A883475700F3
:1001100093F7F70F2304F100834781004101730037
:10012000203083477100834687000C08AE97238CEC
:10013000D7FE83477100850793F7F70FA303F100FC
:1001400055BF2800973000E0E780A0491375F50FF0
:10015000A303A1000346710055B73737004083471A
:10016000474099464111BD8B638AD702314763826C
:10017000E7061147639CE702A303010003C631822F
:1001800037370040834771006315F6022C00138552
:100190000173972000E0E78080B209A883475740A9
:1001A00093F7F70F2304F1008347810041017300A7
:1001B000203083477100834687400C08AE97238C1C
:1001C000D7FE83477100850793F7F70FA303F1006C
:1001D00055BF2800973000E0E78020521375F50FD7
:1001E000A303A1000346710055B73747004083477A
:1001F000478099464111BD8B638AD702314763829C
:10020000E7061147639CE702A303010003C641828E
:1002100037470040834771006315F6022C001385B1
:10022000416F972000E0E78080A909A883475780A5
:1002300093F7F70F2304F100834781004101730016
:10024000203083477100834687800C08AE97238C4B
:10025000D7FE83477100850793F7F70FA303F100DB
:1002600055BF2800973000E0E780C05A1375F50F9E
:10027000A303A1000346710055B7374700408347E9
:1002800047C099464111BD8B638AD70231476382CB
:10029000E7061147639CE702A303010003C65182EE
:1002A00037470040834771006315F6022C00138521
:1002B000C171972000E0E78080A009A8834757C05C
:1002C00093F7F70F2304F100834781004101730086
:1002D000203083477100834687C00C08AE97238C7B
:1002E000D7FE83477100850793F7F70FA303F1004B
:1002F00055BF2800973000E0E78040621375F50F86
:10030000A303A1000346710055B7971000E0E780F2
:100310008085B727004003C76700058B19C703C74F
:100320006700136717002383E70073002030B717B7
:100330000040930670052380D704130780FA2380BA
:10034000E7040100010003C6B7041376F60DA38588
:10035000C704238007041376050259CE03C6A700FD
:10036000118A1DE22380D7042380E70401000100E5
:1003700003C7A700136747002385E7009307004BD7
:1003800001000100FD17EDFFB7170040930670054F
:100390002380D704130780FA2380E70401000100BB
:1003A0007D892394A7000100010001000100238042
:1003B00007042380D7042380E704010001003727C6
:1003C000004093061005A303D78023800704B717C6
:1003D0000040130770052380E704130780FA238089
:1003E000E7040100010003C7B70413670708A385EA
:1003F000E704238007048280137605042DCA03C610
:10040000A700418A1DE22380D7042380E70401006E
:10041000010003C7A700136707012385E7009307BF
:10042000007D01000100FD17EDFFB71700409306A6
:1004300070052380D704130780FA2380E7040100A6
:1004400001007D89136505042394A70001000100C4
:1004500001000100238007042380D7042380E704E0
:10046000010001003727004093062005A9BF238023
:10047000D7042380E7040100010003D78700136736
:10048000070C2394E700A1B741118146014681453D
:10049000114506C6B12AB71700401307700523801F
:1004A000E704130780FA2380E7040100010003C773
:1004B0006704136717002383E70423800704B2400F
:1004C0004101828081460146814511451522B717B9
:1004D0000040130770052380E704130780FA238088
:1004E000E704010001007D572396E70203C7670474
:1004F000136717002383E7042380070401A0BD4787
:100500003305F50201007D1575FD8280411122C47D
:1005100026C206C6AA84014463179400B24022444E
:1005200092444101828005041305803E4204C13F8C
:100530004180DDB72303048015472303E4800100D5
:100540002302A480828083076480E3CE07FE230316
:100550000480828083076480E3CE07FE03454480E5
:10056000828083076480E3CE07FE2302A48082801A
:10057000411126C44AC24EC006C61377F50BAD47DB
:10058000AA892E8995446306F70019456537653FAA
:100590008D444E854537FD59FD1463983401B240B2
:1005A000A244124982494101828013550901137501
:1005B000F50F453F2209CDB7011126CC06CEB70471
:1005C000080051371545BD37713769372AC6A53F31
:1005D00032459377150089EB136515001375F50FF8
:1005E000F240E24405618280FD14E9FC0145CDBF83
:1005F000397126DC4ADA4ED852D656D45AD25ED059
:1006000006DE62CE66CCB7E700E07D5783AA07001E
:1006100022C603AA470023A0E71823A2E718B717AA
:100620000040130770052380E704130780FA238036
:10063000E70483C74704930B75FFB684E20793FB77
:10064000FB0F8546AA892E8B328937240040E1872B
:10065000015763FA76016308D50089461307000243
:100660006313D5000157D98F93F7F70FB71C0040DC
:100670002382FC0411472303E4801305F00F5D3D42
:10068000094CD135636D7C11B7050700DA953787C2
:100690000700795563F2E504B3879500636EF702AE
:1006A000370B0800A94733EB65016399F90689E424
:1006B0008144513D26850DA0DA850945553D050942
:1006C0000345F9FFFD14050B693D81C49377FB0FCA
:1006D000FDF7DD3569FD7D55B7170040130770053F
:1006E0002380E704130780FA2380E70403C7470445
:1006F000418B2382E704F250B7E700E023A05711B3
:1007000023A24711E25432445259C259325AA25AD2
:10071000125B825B724CE24C21618280A54763953B
:10072000F90685691309F00FB3069900B3742B011C
:10073000B6941349F9FFB3749900856B3379690155
:10074000416B9387F9FFB3F7270199E363FC340109
:1007500093D94900C147E3E637FF99BF0569C169ED
:100760007D19D9B71305800D63886901130500024F
:100770006384790113051008CA85DD3B353D21DD11
:100780004E99B3843441D9B7DA852D45D533CA940F
:10079000E30099F205097D3BA30FA9FED5BF93871E
:1007A000F9FF93F7F70F6361FC0C83C71C04130771
:1007B0003008631FF70437070800636BEB04B307C7
:1007C0009B00B706100063F5D704334BEB00894755
:1007D0006393F9068980D549E38C04ECDA850945F1
:1007E000413B11090327C9FF91472320E4800307F8
:1007F0006480E34E07FE23033481FD17EDFBFD14F7
:10080000110B81C49377FB0FE9FF7D3371F5E1B5DF
:10081000B717004003C75704B7070800137707024C
:1008200019E3B78707007955E378FBEA33079B00A4
:10083000E3FFE7F855B58547E382F9F2DA852D4500
:10084000053B9389F4FFE38504E6293393F73900E8
:1008500091EB832604800327090093074900E39A5C
:10086000E6E43E89CE84F1BFB5476396F9001305EF
:10087000900BC93135BDB1471305B00AE38BF9FEC2
:1008800099476391F904B7050800B365BB002D458E
:10089000C53181448D4BA149753963967401832715
:1008A00004802320F9008504E39834FF8327048023
:1008B00013172B01635507002312F900D5BB232220
:1008C000F900FDB39D476399F90281451305B00412
:1008D0004531BD442320090023220900FD599D39DB
:1008E00093F77400CA9703C70700FD14398D23805E
:1008F000A700E39634FF6DBBA1476392F9046D39FD
:100900008144630D0B008D479304C0036308FB0013
:100910009304000563048B01930440041375C50719
:10092000E30895D8194539313939054521312685EE
:100930000D3909453D314931E31C05D669BB914765
:100940006399F90013056006F536F53E1305900925
:0C0950000DB7E38F09D4F154A9BB0000DF
:10096000971100209381819C1771002013018169E8
:100970001305400097F5FF1F9385C56817060020F3
:100980001306C6FD63FAC5008322050023A05500A7
:1009900011059105E3EAC5FE178500001305457DA5
:1009A00097050020938585FB1386818063FAC50037
:1009B0008322050023A0550011059105E3EAC5FE39
:1009C00013858180938541786377B50023200500E6
:1009D0001105E36DB5FEFD42739002BC8D4273902C
:1009E0004280B72200009382828873A0023097F27F
:1009F000FF1F9382226193E232007390523097027C
:100A000000009382023F73901234730020303D4304
:100A10002A876373C3029377F700BDEFADE5937642
:100A200006FF3D8ABA960CC34CC30CC74CC741079E
:100A3000E36BD7FE11E28280B306C3408A069702B9
:100A4000000096966780A6002307B700A306B700AC
:100A50002306B700A305B7002305B700A304B7001A
:100A60002304B700A303B7002303B700A302B70012
:100A70002302B700A301B7002301B700A300B7000A
:100A80002300B700828093F5F50F93968500D58DEE
:100A900093960501D58D61B79396270097020000C4
:100AA00096968682E78086FA9680C1171D8F3E96BD
:100AB000E374C3F8A5B7411193D6C500C20606C6B4
:100AC00093974501C18281C78506C206C182AA8566
:100AD0000146B206054597000020E78060B1B240AC
:100AE0002A869775000093856572254541016F1030
:100AF000302E130101BF232481402A840A85232636
:100B00001140EF30D019930600400A86A2850945AE
:100B100097000020E780C0AD2A8697750000938576
:100B2000E56F2545EF10D02A0A86A285930600407E
:100B30000D4597000020E780A0AB2A842A86977590
:100B400000009385A56E2545EF10902813351400FD
:100B50008320C14003248140130101418280138717
:100B600081801C4385071CC38280011193874183C8
:100B700022CC26CA4EC652C456C206CE4AC85AC055
:100B8000AA842E8AB28A0144BE894147B38687006F
:100B900083C60600F1EA9387C18003A90700137B8F
:100BA000F40F631309066145EF30B00D23A6A18051
:100BB00025CD938781809C4323006501A3005501C7
:100BC0001CC5A6975CC544C1230105002328450127
:100BD000232A05002286977500009385A567254581
:100BE000EF10101FA2998547131584012380F90087
:100BF0006185F2406244D2444249B249224A924A53
:100C0000024B056182803E8983274901EDFF6145E2
:100C1000EF303007232AA9000DE197750000938576
:100C200025652545EF10100825459775000093852B
:100C30006567EF1030077D556DBF938781809C43BA
:100C400023284501232A05001CC5A6975CC5A300DF
:100C5000550144C1230105002300650122869775D3
:100C6000000093856562A5BF0504E311E4F26DBF42
:100C700041119387C1804AC003A9070022C426C23C
:100C800006C64A84BE840DCC83470400639AA70439
:100C90002A8697750000938525622545EF1050132D
:100CA00003470400944093874183BA972380070049
:100CB0004448639D86002285EF30807D23A6918085
:100CC000B24022449244024941018280228522445A
:100CD000232A9900B2409244024941016F30407B7F
:100CE000228940484DB7011126CA9384C18022CC85
:100CF00080404AC852C456C25AC006CE4EC6228947
:100D0000138A8180938A4183177B0000130B0B5356
:100D100019E8F2406244D2444249B249224A924A16
:100D2000024B0561828083472400B5E35844832742
:100D30000A0063EEE7041C48829783471400B9EB6E
:100D40009C400346040063958702B387CA00DA8596
:100D5000254523800700EF10B00788408329440110
:100D60004A84EF30E07223A6318122894E844DB748
:100D7000B387CA00DA85254523800700EF105005A8
:100D80005C4822854A84232AF900EF306070832969
:100D90004401E1BF5C4003270A00BA975CC4C5BFA9
:100DA000AE870546AA853E85C9B3411106C66D21A9
:100DB000B24041016F20C01483C7018113C71700DF
:100DC0002388E1800547638BE700371700408327BE
:100DD000870C93E707402324F70C828037170040E5
:100DE0008327C70C93E707402326F70C8280411125
:100DF0001305800406C622C497F0FF1FE780205326
:100E00007164EF106033814613060420854509455F
:100E1000EF00B07CEF00F05E83C7115E95E397753D
:100E200000009385A54A0145EF10C067094581463A
:100E3000130604208145EF00507A3165EF20202809
:100E4000EF10402CEF10C030EF106034EF20A02ED8
:100E50000146970500009385A50B1305803E3133AD
:100E60009305803E17050000130565F4153F9305B3
:100E7000800C170500001305051B1D379305400660
:100E800017050000130585F3213F9305200317156F
:100E900000001305C5F22937B935FDBF37170040EB
:100EA0008327870A91660146D58F2324F70A970581
:100EB00000009385E5001305803E45B937170040D3
:100EC0008327C70A91669775000093852558D58FAB
:100ED0002326F70A1387810483470700254593E7F4
:100EE00017002300F7006F10A06E9387810423A0E2
:100EF000070023A2070023A4070023A6070023A8B6
:100F00000700930780072390F18282804111977533
:100F100000009385A552254506C6EF10A058F1376D
:100F20007166970600009386467513060620854570
:100F30000145EF00906AB717004003A7C70A916602
:100F40000146558F23A6E70A03A7C70A89669705B6
:100F500000009385E5F4558F23A6E70A1305802545
:100F60002931B24041016F10E0303717004083272C
:100F7000C70A0111A16626CA4AC84EC652C4D58FF7
:100F800006CE22CC2326F70A938741818443AA897F
:100F90002E89328AA9E83145EF30A04E23AAA180DC
:100FA0002A8419E101450DA0230345014A85EF304C
:100FB000404D08C015C14A86CE85EF30404E231201
:100FC0002401232404000545F2406244D2444249EE
:100FD000B249224A056182802285EF30604B23AA04
:100FE0000180C9B7BE849C44F5FF3145EF306049AC
:100FF0002A844DD9230345014A85EF30804808C033
:1010000009CD4A86CE85EF3080492324040023127F
:10101000240180C40444E1F87DB72285EF304047C5
:1010200051B741119387418122C4804306C626C22D
:101030002DC08347640003564400138581702385C7
:10104000F1040C400444EF10200A0C40854603874D
:101050000500930787F893F7F70F63FBF6009307F4
:10106000E0076307F700035644000945EF10004D01
:101070000840EF30E0412285EF30804123AA918083
:1010800089E8371700408327870AA166D58F232474
:10109000F70AB24022449244410182802D71977731
:1010A00000009387672A232C8110232A911023287C
:1010B0002111232E11102A892E870144BE84F14666
:1010C0009043631BC90015EB0E0426945440177619
:1010D00000001306A64B89A80504A107E312D4FE5D
:1010E000977500009385054B0808EF40A00C0C088D
:1010F0002545EF10203B81478DA03A853AC6EF4049
:10110000800C9306000F814763E9A60432470E0462
:101110002694030607009307F0035440631CF6006F
:1011200017760000130686459305F00F0808EF3088
:10113000907C11A8177600001306C6449305F00FA3
:101140000808EF30507B0808EF40E00793150501D1
:101150004A86C1810808113D85478320C1110324B7
:10116000811183244111032901113E85156182807B
:10117000977500009385452B2D450DB74111977547
:1011800000009385A52A254506C6EF10A031B13B86
:10119000716681461306062081450145EF00F04344
:1011A000B717004003A7C70A8966B240558F23A628
:1011B000E70A03A7C70A9166558F23A6E70A4101EC
:1011C0006F10400B4111977500009385A53225459E
:1011D00006C6EF10202D113BB717004003A7C70A22
:1011E00091660146558F23A6E70A03A7C70A8966B9
:1011F000970500009385C5D1558F23A6E70A1305EF
:10120000803EEFF09F96B24041016F10A006197129
:101210003287AE862A86977500009385653368000D
:1012200086DEEF309074814505458D3D6C0051455B
:10123000B535F6500961828001112A869775000044
:1012400093850510480006CEEF3030724C005945AA
:10125000B135F2400561828083C7810413F717001E
:101260006301072C1971A2DC13848104584486DEC3
:10127000050723AAE104994603C7910463E0E62A1F
:1012800097760000938686050A07369718433697A7
:101290000287898B638C070C238E0180835704009F
:1012A00093F7D70F93E707102394F10423AC0104BD
:1012B0008347040013F74700630D070EED9B81453C
:1012C00005452384F104D93B8947A384F10423AC69
:1012D00001048347040013F78700630A070EDD9BB0
:1012E000977500009385052211452384F104A38E90
:1012F00001806D33977500009385C5201545793BB6
:101300008D47A384F10423AC010493078007239045
:10131000F1821C4093F70703638F0710238F01802E
:101320008357040093F7F70E93E707402394F104E3
:1013300023AC0104977500009385050F4145B93B27
:1013400013876164938641611386215E977500005F
:101350009385C51D6800EF3050616C0039453D3BF9
:101360009547A384F10423AC010405A81C48858B90
:1013700091E78145054523AA01040D331848F54737
:1013800063FDE70083C7C181850793F7F70F054722
:10139000637DF700238E0180953E1C48F65066540D
:1013A000850723ACF10409618280238EF180193D09
:1013B000EDB71C48858B99E7977500009385451418
:1013C0000945E9391848F547E3F9E7FCCDB7814508
:1013D0000D45E931184883D70182E360F7FC8607A1
:1013E000BE860567C207C183130707E16373F70071
:1013F000BA862390D1829387C18183C7170085075E
:1014000093F7F70FA38EF18009476375F700A38E5A
:10141000018071BF977500009385050F2D45BD397B
:1014200009650146970500009385C5D4130505F4A9
:10143000EFF0AFF39DB7977500009385650C1145EC
:10144000B139977500009385A50B1545813918486A
:101450009307300BE3F3E7F483C7E181850793F744
:10146000F70F238FF1800547637AF70A238F0180F6
:10147000834704009775000093854509254593E748
:1014800007012384F104EF10E00101BF13978701E6
:10149000618763540702A38F01808357040081454D
:1014A0004D4593F7F70793E707602394F10423ACC6
:1014B0000104ED36EF001060CDB593F7070491EB12
:1014C000834704008145494593E707042384F104D9
:1014D000F13618489307C002E3F1E7EC9775000076
:1014E0009385C5052545EF00F07B8347040093F7FE
:1014F000F7FB2384F10423AC010483C7F181850742
:1015000093F7F70FA38FF18009476375F700A38F57
:10151000018071BD8547A384F10441B5A384010412
:1015200099B58280130101DC232C81222E862E8422
:101530009775000093850503232A9122232E1122FB
:10154000232821232326312323244123232251230B
:1015500023206123232E7121232C8121232A9121F1
:101560002328A121AA84EF10C011634A050CC16988
:10157000A54A054B977B0000938B0BF5FD19177C53
:101580000000130CECFE177A0000130AAAFD930763
:1015900095003385AA402A944204BE9441801306E4
:1015A000C002A2852685EF1040072A896352A00851
:1015B0002A86A6856800EF20906E1C0CCA976800EA
:1015C000238E07DEEF20706B9307190033092B4140
:1015D0004A944204BE944180AA8C2286DE852685E8
:1015E000EF10200A2A89634505042A86A68568002B
:1015F000EF20F06A1C0CCA976800238E07DEEF20EC
:10160000D067337635012A8D93073900E285254569
:10161000BE940D04EF00D07B3304244113160D015A
:1016200042044182A68513F5FC0F4180EF0010476C
:101630002286D2852685EF10C004E35A05F4832064
:10164000C1230324812383244123032901238329E4
:10165000C122032A8122832A4122032B0122832BC8
:10166000C121032C8121832C4121032D012101451E
:1016700013010124828063850546197103D7818196
:101680008567CAD8CED686DEA2DCA6DAD2D4D6D278
:10169000DAD0DECEE2CCE6CAEAC8EEC62E97938751
:1016A0000780AA892E8963DDE70013F9F57F2545B8
:1016B00097750000938585DA239C0180EF00905E8A
:1016C00003D4818197F4FF1F9384844A4A86CE8590
:1016D00033858400EF20B05CB3062401C206C182CA
:1016E000239CD180B387D400238007000947637E01
:1016F000D73A03C6E7FF35476317E60003C7F7FF8E
:10170000A947630AF70017F7FF1F034787469307A8
:10171000E003631CF73817F6FF1F1306664597753D
:1017200000009385E5D42545EF00906A03D68181BA
:1017300097F5FF1F9385C5432545EF0030609775EA
:101740000000938525D42545EF00D055EF10407853
:1017500083D5818117F5FF1F13058541E13383D9B7
:1017600081814E8697750000938585D217F5FF1FFE
:1017700013050540EF00F0706347050EF54763E47D
:10178000370F1384D9FF098C1309D5FF420426991A
:1017900041801306C002A2854A85EF0010682A8A9C
:1017A0006353A0022A86CA856800EF20504F9C0030
:1017B0003E9A680023060AFCEF20304C89451375D9
:1017C000F50FEF00302D228697750000938545CDEB
:1017D0004A85EF00106B63460504F54763E3370560
:1017E00075149307D5FFB305A4403E99C2051306AF
:1017F000C002C1814A85EF0050622A846353A0026F
:101800002A86CA856800EF2090499C003E946800B3
:10181000230604FCEF20704685451375F50FEF0095
:10182000702703D48181228697750000938505C8AF
:1018300017F5FF1F1305C533EF00B064635B0502A6
:1018400013848104834724004547FD1793F7F70F5E
:101850006369F72417770000130707AA8A07BA9766
:101860009C43BA9782874E8417F9FF1F13094930AA
:1018700099BFF547E3E687FC7514B305A440130947
:10188000D5FF2699C2051306C002C1814A85EF0023
:10189000D0582A84E356A0FA2A86CA856800EF2029
:1018A00010409C003E946800230604FCEF20F03CAE
:1018B00081451375F50FEF00F01D59B717F5FF1FA0
:1018C0001305052BEF009067630D051C834704008B
:1018D00093E727002384F104E9A203D68181977559
:1018E0000000938525BD17F5FF1F13056528EF0040
:1018F00010606308051A8347040093E74700D9BFC7
:1019000003D981814A86977500009385A5BB17F599
:10191000FF1F1305E525EF00D05663440518B305F6
:10192000A940AA94C2051306C002C1812685EF0012
:10193000D04E994763D7A7161306A5FF954763C2F4
:10194000C71693856400680002C623080100EF30C3
:10195000B0086800EF2070321375F50FA385A1045D
:1019600069151375F50FE54763EDA712834704006A
:1019700093E7870085B703D981814A869775000070
:101980009385C5B417F5FF1F1305851EEF00704F33
:101990002A8D814A635105024A8697750000938516
:1019A00065B317F5FF1F1305A51CEF00904D2A8D99
:1019B0006349050E854A3309A9414209416A135911
:1019C000090123060100814D81498147130BC002A3
:1019D0008D4B7D1A177C0000130C4CB0914C139763
:1019E0000D014183637F270B3307BD012697034712
:1019F000070063086701B5466305D700A946631968
:101A0000D7080307C10029C39800BA978509238620
:101A100007FC93F9F90F638E7903638C9905894765
:101A20006391F9028307C10013071003ED9B639ACA
:101A3000E70683470400638B0A0093E707022384C9
:101A4000F104230601008147850D51BF93E707018B
:101A5000FDB7414681451305D100EF30F0272396AD
:101A6000A104B37645017000E2852545EF005036AC
:101A7000C9BF414681451305D100EF30F025AA8644
:101A800023A8A1047000977500009385E5A5F1BF18
:101A90009400BE962386E6FC850713071003E355E2
:101AA000F7FA23850104239C0180F6506654D6542E
:101AB0004659B659265A965A065BF64B664CD64C92
:101AC000464DB64D0961828017F5FF1F1305450A83
:101AD000EF00D04679D58347040093E707F8DDBBD4
:101AE0008280011122CC26CA4AC806CE2A89AE8439
:101AF0003284EF00607915CD4A86A2869775000082
:101B00009385C5AA4800EF30406681450545EFF052
:101B1000EFD84C005545EFF06FD82546A2852685B5
:101B2000EFF0AFC42285F2406244D24442490561DD
:101B300082800144C5BF03C59104691513351500A2
:101B4000828041119306201101468145254506C634
:101B500097F0FF1FE780C0A9B240930620111386BB
:101B6000015E81452945410117F3FF1F670043A826
:101B7000930620111386015E81452D4517F3FF1F43
:101B8000670003A7411122C4930700FB1384015E81
:101B900097750000938585B51385215E06C62300E1
:101BA000F400EF302061977500009385A5B413858C
:101BB000C168230A040223030406EF30A05F89678B
:101BC0009387E770977500009385C5B31385816788
:101BD0002318F410EF30005E97750000938585B3ED
:101BE0001385E16BA3000400EF30C05C993F2244F1
:101BF000B240977500009385E5B2254541016F001D
:101C0000700A411106C6AD3703C7015E9307000B8A
:101C10006306F700B24001454101ADB7B240410152
:101C200082809385E16B6F30E058A380A15E11BF85
:101C3000035785008357A500C207C183638CE7065D
:101C4000411126C28354A5000357850083558500A2
:101C5000C20422C406C6C1802A845C45637597020B
:101C6000C205C18191CB03578500B385B4400841BB
:101C7000C205C1813A95829723149400B240224450
:101C800092444101828013970501418399CB83558A
:101C90006500835685000841998DC205C18136953E
:101CA00082975C4423140400E1DB0357840008405E
:101CB000A685C9B782808357A50003578500011107
:101CC00022CC06CE26CA4AC84EC652C456C22A8460
:101CD000637EF70683578500835665000357A5008A
:101CE000B697998FC207C1837D556378F604035771
:101CF000A40083568400B2842E8A1C406366D70AEF
:101D00000359A400835A64000355A40042091359DF
:101D10000901B3892A41C20993D9090163763605BD
:101D20003E95EF20C0770356A400B294035664009A
:101D3000B3E4C402231594000145F2406244D24446
:101D40004249B249224A924A0561828083578500FE
:101D50000357A5006377F700835785000357A50055
:101D600049B78357650049B74E863E95EF202073EB
:101D70008357A400035764000840CE97B3E7E702F7
:101D800033863441B3053A012315F4008357A40088
:101D90003E95EF20C0700356A4003299CA94B384D4
:101DA0005441C204C18079B70355A4003E95EF2089
:101DB000006F0356A400B294EDB7411113858170F2
:101DC00006C6BD3513850173A5351385416F8D3565
:101DD000B2401385C1714101A1BD411122C426C287
:101DE0004AC006C68547AA84328936846303F50E45
:101DF00009CD09476309E5180D476302E524B240A0
:101E00002244924402494101828023A6017023A802
:101E100001701387C10523A4E170130700302397D5
:101E2000E17023AA8170171700001307A77723AC6E
:101E3000E170A5C92386F170371700408327870C0E
:101E40008545414593E707082324F70CEF10A05878
:101E5000130500088D45EF100058EF10206C4A85DF
:101E6000EF10C0680DC00D45EF10606E9D479545A1
:101E700005452381F182EF10206FB7E700E03707B7
:101E8000000423A0E7102244B2409244CA860249CB
:101E90000146977500009385E58A254541016F004D
:101EA0002073EF10006F81454145EF10C05281450E
:101EB00013050008EF10205295450145EF10C06A48
:101EC000B7E700E03707000423A0E718010001008E
:101ED0003DB7239C0172239D01729387C13523A8CE
:101EE000F172A947239BF17223AED17297170000BC
:101EF0009387C77C23A0F174A5C137170040238ABC
:101F0000A1728327870C89668545D58F2324F70C1A
:101F10000565EF10404C8D450965EF10C04B054538
:101F200093050002EF108055EF10C0704A85EF1046
:101F3000606DE30604EC0D45EF10E0729D4795459A
:101F40000545A381F182EF10A073B7E700E03707E2
:101F5000000823A0E71065B5238A0172EF10E07432
:101F6000814513050010EF10A03C814513050020AA
:101F7000EF10003C95450145EF108070B7E700E099
:101F80003707000891B7239E016E239F016E1387C8
:101F9000813623AAE16E13070008239DE16E23A07A
:101FA0008170172700001307078323A2E170ADC1DA
:101FB000930500040545238CF16EEF10204C371774
:101FC00000408327870CB70680008545D58F2324E2
:101FD000F70C37054000EF100040370580008D45B5
:101FE000EF10603FEF10A0764A85EF102073E308F2
:101FF00004E00D45EF10C0789D47954505452382C7
:10200000F182EF108079B7E700E023A29710C5BBFB
:10201000238C016EEF10007B814537054000EF10E7
:10202000803B814537058000EF10E03A954501453A
:10203000EF10A076B7E700E023A2971841BD2392E6
:102040000172239301721387813E23AEE170294709
:102050002391E17223A48172172700001307478997
:1020600023A6E172B9C92380F17237170040832794
:10207000870A8545414593E707022324F70AEF10B5
:10208000202B130500028D45EF10802AEF10C07D34
:102090004A85EF10407AE30404D60D45EF10E07F47
:1020A0009D4795450545A382F182EF10B000B7E743
:1020B00000E0114723A2E71099B323800172EF10CB
:1020C000100281454145EF10A0268145130500020D
:1020D000EF10002695450145EF10C07DB7E700E001
:1020E000114723A2E718DDB3AA8703A307012E85B2
:1020F0006309030003C7470085476314F700B285EF
:1021000002838280411106C6EF10E0389307803EBB
:102110003355F502EF10403C372700408347270036
:1021200093E717002301F700B240B7E700E04167EB
:1021300023A0E71041018280411181457D5506C6EB
:10214000EF10001FB24081457D5541016F10A0285E
:1021500041118D45116506C6EF10801D8D4509653D
:10216000EF10001D8D452165EF10801CB717004052
:1021700003A7C70A9166B240558F23A6E70A03A7B3
:10218000870A8966558F23A4E70A4101828041119D
:102190008D451305004006C6EF10E02337170040B9
:1021A0008327C70CB24093E707402326F70C410171
:1021B00082804111976500009385C557254506C665
:1021C000D524B240410117E3FF1F6700E32B2DE543
:1021D00001114AC8138941748327090006CE22CC15
:1021E00026CA4EC6858B7955A9E375559DCD15CE6A
:1021F00083870500715595CBB2842E841306400366
:1022000081454A85B689EFE09F80A2851385717468
:10221000EF20507A2398917623AA317783470900DB
:10222000054593E717002382F174F2406244D244DB
:102230004249B249056182807D5582801DE913873C
:1022400041741C43858B95C7834707004111254581
:10225000F99B03C66174976500009385E54F06C638
:102260002382F174B526B24003C5617441016FE069
:10227000BFFC82800145D9B711E59387417488433B
:10228000058982800145828001E503C55174828001
:102290000145828019E1A382B1748280AE8711E981
:1022A000138741740323070363050300B2853E854A
:1022B00002838280411126C2938481779C4006C6A6
:1022C00022C44AC005476385E70491CB094763856B
:1022D000E70AB24022449244024941018280938637
:1022E00041748042A38E017683C7517405886310C0
:1022F000E410638E870E9386717401469765000023
:102300009385C54B2545E92423AC8176238E017640
:1023100083C7C17713871700238EE1761384417436
:102320009DE39307400383C5D177B385F502B307D7
:10233000B40003D6C70203C527008D05A38007009C
:10234000A295EFE0DFEC03C6D17793074003B30714
:10235000F6023E94034414008547631BF40497651A
:1023600000009385A5402545A524EF0050668947C8
:1023700023ACF176238E017683C7D1771307400310
:102380003387E70293874174BA9783C617000547DE
:102390006386E60003C52700EFE01FEA83C7540009
:1023A0008507A38EF17623AC0176238E017615B7CF
:1023B0000949631D2401976500009385E53C254587
:1023C000012CEF00905B23AC81766DB703C7C1771A
:1023D0009307A005E3FFE7EE976500009385453C72
:1023E0002545FD22EF00705923AC217761B7A38EFC
:1023F0000176C5B5C167FD17AA959766000093865B
:10240000A63E3387A5406347E00013C5F7FF4205AA
:10241000418182800307050013D687000505B98F27
:1024200093F7F70F8607B69783D70700B18FD1BF11
:10243000797122D426D24AD04ECE52CC56CA2E8A98
:10244000AA8AB2893689BA843E8478009307E1006B
:102450009306A100300093056100480006D6EF0006
:10246000705783574100B2502390FA0083576100A0
:10247000D24A2300FA0083578100624A2380F90080
:102480008357A100F2492300F9008357C100025984
:102490002380F4008357E10092542300F400225477
:1024A0004561828079719307910022D438002E848F
:1024B0009306710013066100930551001305A100F6
:1024C00006D623150100A302010023030100A30384
:1024D000010023040100A3040100993F0347910078
:1024E0008346810003467100976500009385852E21
:1024F0006800EF2090476800EF20F04C13160501AC
:102500006C0041821385416FEFF01FBE2285EF20E2
:10251000904B13160501A28541821385416FEFF0A0
:10252000BFBC094697650000938505001385416F80
:10253000EFF09FBBB250225445618280797122D462
:1025400026D2930791002E84B2843800930671003E
:1025500013066100930551001305A10006D623154B
:102560000100A302010023030100A30301002304CF
:102570000100A30401006D3D0347910083468100E3
:1025800003467100976500009385C5246800EF201D
:10259000D03D6800EF203043131605016C004182E6
:1025A0001385416FEFF05FB42686A2851385416FD6
:1025B000EFF09FB30946976500009385E5F6138514
:1025C000416FEFF07FB2B250225492544561828045
:1025D000397122CC1384413F26CA32D4AA842E8674
:1025E00036D6930500103410228506CE3AD83EDA4E
:1025F00042DC46DE36C6EF2030762285A30F040E7D
:10260000EF20703C13160501A285268541823D37D7
:10261000F2406244D24421618280814763C5B700A1
:10262000FD573E8582803307F50003470700E30A24
:10263000C7FE8507E5B7814739C1B1C1411126C23F
:10264000AA842E8522C406C62E84EF20D037814767
:1026500063C9A7008547B240224492443E854101A8
:102660008280B386F4003307F400838606000307F4
:1026700007006394E6008507E1BF8147E9BF3E8517
:102680008280011122CC06CE26CA4AC84EC652C448
:102690007D540DC585C56353C0022A8A2E85B28438
:1026A000AE89EF20503242054181795463C8A400BD
:1026B0000149898C4A8463DC240175542285F240E7
:1026C0006244D2444249B249224A056182803305BC
:1026D0002A0103070500838709006315F700CE85EB
:1026E000993F69FD0509420913590901E1B7011133
:1026F0004EC6AA892E8522CC26CA4AC8B28406CEE6
:102700002E89EF20502C0144898C63DA8400014526
:10271000F2406244D2444249B24905618280338525
:10272000890003070500830709006315F700CA85C0
:10273000193719E10504D1BF0545D9BF4111976586
:102740000000938565D606C6EF20502BB240333586
:10275000A000410182808146254893970601C183EC
:1027600063E3C7008280B307D50083C7070013D790
:102770004700BD8B636FE800130707032380E50064
:10278000636CF80093870703A380F500850689052D
:10279000E9B713077703DDB793877703F5B7FD57DD
:1027A00017E7FF1FA304F7386FE0DFA197E7FF1FCC
:1027B0009387D73703870700FD576315F70209652D
:1027C00041110146970500009385A5FD130505718C
:1027D00006C6EFE08FB9B24097E7FF1FA388A73482
:1027E0004101828082808307050013078007639878
:1027F000E70203071500631EF73603073500854718
:10280000631EF736238E014E894723AAF14E976542
:10281000000093852520239D014E254555AA1307C9
:1028200090076398E734030715006314F734030730
:102830004500CD576314F734011122CC06CE26CAC9
:102840004AC84EC652C456C28347550005472A841B
:10285000639DE71A03476500631EF71683477500FB
:1028600003478500138A0150E2074207D98F0347C7
:10287000A500930A1003D289D98F03479500976565
:1028800000009385E5192207D98F23A4F15C8347C3
:10289000B5000347C500E2074207D98F0347E500AB
:1028A000D98F0347D5002207D98F23AAF15C83442F
:1028B000F500268663E99A029305050113854156C2
:1028C000EF209011B3079A00C204C180238207064B
:1028D000B307940003C9070163F12A034A86976589
:1028E00000009385E5146244F240D2444249B24963
:1028F000224A924A25450561E1B9C5044A86B305D5
:10290000940013856159EF20300D4A9ACA94230B25
:102910000A08B307940003C9070063F82A014A862E
:1029200097650000938545127DBF85044A86B305EF
:10293000940013852153EF20300A83A6490D03A686
:10294000890C976500009385A51125454E992309AB
:102950000902EFF0FFC71386415697650000938583
:1029600025122545EFF0DFC61386615997650000F3
:102970009385C5112545EFF0BFC513862153976593
:102980000000938565112545EFF09FC48D4723AA6C
:10299000F14E239D014E83A7890D91EF624483A5DB
:1029A000490DF240D2444249B249224A924A316525
:1029B00005616FE04F90976500009385E50E6244D6
:1029C000F240D2444249B249224A924A2545056121
:1029D0006FF05FAD976500009385C50E2545EFF05C
:1029E0007FAC0145EFF06FA46244F240D24442490B
:1029F000B249224A924A0546970500009385456EE2
:102A00001305803E05616FE04F9689466393D712A8
:102A1000034A6500631AEA14834475000345850080
:102A20000349B400E2044205C98C0345A4006209CD
:102A3000E915C98C03459400938901502205C98C7E
:102A40000345C40042053369A9000345E400336926
:102A5000A9000345D40022053369A9001305240009
:102A6000EFF05F99330724018347170103472701DC
:102A70009765000093850506A207D98F03A7890DE6
:102A800063EFE40C97650000938545116319F50C1D
:102A9000976500009385C5052545EFF0BFA0131687
:102AA0000901316541829305F4002695EFE06F84BA
:102AB000631A45093385240123ACA15CEF10300E65
:102AC00097670000938787F49043D443EF10204228
:102AD0002A8403A5490DAE84EF10700C2A86AE86B9
:102AE0002285A685EF00B0652A86AE8625459765C6
:102AF00000009385E501EFF0BFAD03A7890D83A723
:102B0000490D6319F7008547238EF15C954723AA89
:102B1000F14E31A863F8E7049765000093854502FC
:102B20002545EFF03F9823AC015C23AA014E239D7D
:102B3000014EF2406244D2444249B249224A924A8A
:102B40000561828083A7890D3166976500009385B2
:102B5000E5023E962545EFF0BFA799474DBF2545B5
:102B6000EFF05F948D4765B7976500009385850406
:102B7000B9B5976500009385650445B182806FF013
:102B80009FC6130101B6232E1148232C8148232A06
:102B90009148232821492326314931CD85476302B5
:102BA000F5144204418022868A850145EFE07FF3D7
:102BB0001306003081450803EFD07FE522860C0321
:102BC0000A85EFF05FB9976500009385E50025451C
:102BD000EFF05F8D0C032545EFF0DF8C8320C149BA
:102BE0000324814983244149032901498329C14898
:102BF0001301014A828083D9814F93871900239C56
:102C0000F14EB787000193878787138581673EC0A0
:102C1000EF20605B7D5451D5137715009358154014
:102C20009387015E19CFBE868A8501468906850590
:102C3000634A160983C78709938707FD2302F100BA
:102C400039A00A8681468907050663CF1605130455
:102C5000150005849305440093070148AE9713D7E8
:102C600089402380E7B893070148B3848700A38293
:102C700034B993075400130521002301F100EFF04C
:102C80006FF713096400930701483E999357850035
:102C90002300F9B8B5472384F4B8A947A383A4B89F
:102CA0002904A384F4B8F5BD0387670983C57709B0
:102CB0008506130707FD1207938505FD4D8FA301B8
:102CC000E60051B70387760903C88609050613078E
:102CD00007FD1207130808FD336707012382E5008B
:102CE000B1B703D9814F93071900239CF14E216797
:102CF00083C70500130797973AC04D572302E10099
:102D0000A302F1006394A70613858167EF20A04B0F
:102D10002303A10013858167EF20E04A2A8693856B
:102D2000816713057100EF10807713858167EF20AD
:102D30008049AA8413850150EF20E0489307014899
:102D400013848400BE94A383A4B813850150EF209C
:102D500080472A869385015033058100EF10207447
:102D600013850150EF2020462A9451A0094763960D
:102D7000E70C9387015003D7870C931687002183B4
:102D8000D98E03A7870C2314D100135687014183E2
:102D9000A303E10003D7870D2303C1009316870027
:102DA0002183558F83A6870D2316E10003A7470DC6
:102DB00013D6860183A7070D2305C10013D606018C
:102DC000A305C100158F6373F700BA8713D7870176
:102DD0002307E10013D70701A307E100139787003A
:102DE000C207C183A183D98F2318F10049449307F7
:102DF0000148B3848700935789402380F4B8A380A7
:102E000024B9A28513052100A3018100230101003B
:102E1000EFF04FDE9309240093070148BE999357C2
:102E200085002380F9B8B5472382F4B8A947A38168
:102E3000A4B81904A382F4B8ADB30D470144E392DA
:102E4000E7D69384015083C7C40D1385816723039C
:102E5000F100EF204037A303A10013858167EF2025
:102E600080362A86938581672800EF10406313859A
:102E70008167EF20403583A7840C13070148B30412
:102E8000A70013D787012384E4B813D70701A384CD
:102E9000E4B813D787002385E4B8A385F4B82A845F
:102EA00013852153EF2020322386A4B813852153A4
:102EB000EF20603135042A86938521533305810044
:102EC000EF10E05D1385215371BD01456FF00FB721
:102ED000411122C406C697E7FF1F938737C50385B4
:102EE00007007D54630A85001375F50FEFD05FD896
:102EF00097E7FF1FA38C87C2B24022444101828022
:102F0000011106CE22CC26CAEFE0FFC21DCD01453D
:102F1000EFF08FB685442A84630E95029706000071
:102F2000938626C603D6016F9385C168014523AAFF
:102F3000014E239D014EEFF08FA963089500A380F9
:102F4000015EEFE01FC0EFF0CFA6F2406244D24432
:102F5000056182800145EFF02FB36307850023AA46
:102F6000014E239D014ED5B71384414F1C401D4790
:102F70006368F70817670000130707A78A07BA975F
:102F80009C43BA97828781450145EFF09FBFEFF0E0
:102F9000FF81854723AAF14E239D014E95A003D7BB
:102FA000A14FF94763FEE7048347840023AA014E3B
:102FB000239D014E850793F7F70F238EF14E0947A6
:102FC0006370F704238E014E09371DA883D7A14FE4
:102FD0007947B3F7E7028DE785479305F10005458B
:102FE000A307F100EFF0FFB9EFF04FFC8347940027
:102FF0000947850793F7F70F636AF700A38EF14E31
:10300000835764008507239DF14E81B7A38E014E3F
:1030100065BF89479305F1000545A307F100EFF06F
:103020005FB6EFF0AFF89147B5B7976500009385AD
:1030300065BF2545EFF00FC703D7A14F9307D00217
:10304000E3F0E7FC8D47B9B78D479305F1000545DF
:10305000A307F100EFF0FFB297650000938545BE2E
:103060002545EFF02FC49D47014523AAF14E239D2E
:10307000014EEFE09FBB054697050000938545068E
:103080001305803EEFD07FAEA5BF97650000938506
:10309000E5BC2545EFF00FC19387015003A7870DCD
:1030A00083A5070D31653A95EFD0FFA061BF03D727
:1030B000A14FA947E3F6E7F423AA014EF1BD411160
:1030C00006C6B7E700E0416723A0E718010001004A
:1030D000B1678297B240014541018280411117E6F4
:1030E000FF1F0346A6A4976500009385A5AF25455D
:1030F00006C6EFF0EFCD97E7FF1F83C727A3FD17A5
:1031000093F7F70F17E7FF1F2302F7A295E3EFE00E
:10311000EF8631656D3709ED25459765000093858C
:10312000E5ADEFF02FB8B240054541016FE0FFAFCC
:10313000B240410182805D71A2C413840150130624
:10314000000E8145228586C6EFD07F8C6800EFE0B7
:103150005FAD6C002285EF20E005930700402286DA
:10316000976500009385C5AA25452328F40CEFF048
:103170002FC6B64026446161828083C7E14F850730
:103180004111976500009385A5AF2545238FF14E2A
:1031900006C6EFF02FB103C7E14F854763F6E7029C
:1031A0009387015083A7870D85E39765000093857A
:1031B000E5AE2545EFF00FAFA380015EEFE07F980D
:1031C000B24041016FE0FFFEB24041018280238F97
:1031D000014E8280B718004003A8C80303D3A80398
:1031E00083D888034111060393D8F8004A08B30E28
:1031F00013019308407E22C626C44AC213582801F0
:1032000023101501930F00199302D0169303400663
:10321000130FC01603530500B378F303638008103F
:10322000B3787302638108109378330013BE1800DB
:10323000130EDE166350C809239005000544994417
:10324000F94FF542130900199303400683D805008E
:10325000138F18006394880A03530500337E2303F9
:10326000630C0E08B378730263860800937833000A
:1032700063840808F148635C18052390E50105089C
:10328000231006010566130606E1B3D5CE023244CB
:10329000A244124933F6CE022390B6009306C0032F
:1032A0003356D602B3F6DE022310C7002390D700B0
:1032B0004101828093B818009388D81633081841CA
:1032C000420805031358080123106500A1B785487B
:1032D000630B0E00337E7302814863060E00937801
:1032E000330093B81800F108330818414208135806
:1032F00008012390E50199BFF548B5BF13F3180005
:1033000063F8140163180300E3D902F7F948E9BF31
:10331000E31C03FEE3D30FF7FD48F9B7E3DE02F148
:103320009308E01661BFE3590FF19308D01679B7FF
:10333000914763EEB70217670000130727978A05C6
:10334000BA959C41BA978287B717004003A7470BED
:103350001345F5FF698F23AAE70A03A7070B698FB7
:1033600023A8E70A03A7070A798D23A0A70A82806A
:10337000B717004083A6470B1347F5FFF98E23AA22
:10338000D70A83A6070B558D23A8A70A83A6070A89
:10339000758F23A0E70A8280B717004003A7470B69
:1033A000498F23AAE70A03A7070B1345F5FF45BF7B
:1033B000B717004083A6470B1347F5FF758F23AA65
:1033C000E70A03A7070A598D4DB7B717004003A7AF
:1033D000470B498FEDB7914763EEB70217670000BF
:1033E0001307078E8A05BA959C41BA978287B7174B
:1033F000004003A7470D1345F5FF698F23AAE70C8B
:1034000003A7070D698F23A8E70C03A7070C798D85
:1034100023A0A70C8280B717004083A6470D13474F
:10342000F5FFF98E23AAD70C83A6070D558D23A887
:10343000A70C83A6070C758F23A0E70C8280B71713
:10344000004003A7470D498F23AAE70C03A7070DE8
:103450001345F5FF45BFB717004083A6470D134737
:10346000F5FF758F23AAE70C03A7070C598D4DB7FD
:10347000B717004003A7470D498FEDB7B7170040B6
:1034800003D7870109C5D98D239CB700828093C5D6
:10349000F5FFF98DD5BFB717004003D5870042056A
:1034A00041819377050491EB9377F5013755E80156
:1034B000130505803345F50282809377050C1307C9
:1034C00000046397E7009377F50137459C1CCDB75F
:1034D0002165130505D08280B7270040C8C709477A
:1034E0002380E70011472380E7008280411122C436
:1034F00006C62A844D372947B307E502B2408D83BB
:10350000B3D7870222449507B3D7E7023737004085
:10351000C207C1832316F700410182807165411102
:103520001305052006C6D937B7370040130770F8D2
:103530002381E7000D47A381E70013070004A38060
:10354000E70005472387E700B24041018280373713
:103550000040834727001A0593F7F703C98F93F7B5
:10356000F70F2301F7008280B737004003C7170029
:1035700019C9D98DA380B70003C707001367870057
:103580002380E700828093C5F5FFF98DA380B70003
:103590008280B7370040130700F8A380E7008280DD
:1035A000B73700402147B736004089E93737004038
:1035B0008347570093F7070499CF828003C6B7006B
:1035C000E305C7FE05050346F5FFFD15C205238487
:1035D000C600C181D9BF0100E1BF8147B7360040B5
:1035E00003C7A6001396070141821377F70F19E36B
:1035F0003285828003C686003307F50085072300E5
:10360000C700F9BF411122C406C62A84693529477B
:10361000B307E502B2408D83B3D7870222449507F2
:10362000B3D7E70237370040C207C1832316F740FC
:1036300041018280716541111305052006C6D93705
:10364000B7370040130770F82381E7400D47A38187
:10365000E74013070004A380E74005472387E740BE
:10366000B2404101828037370040834727401A0526
:1036700093F7F703C98F93F7F70F2301F740828081
:10368000B737004003C7174019C9D98DA380B74089
:1036900003C70740136787002380E740828093C5F4
:1036A000F5FFF98DA380B7408280B737004013073C
:1036B00000F8A380E7408280B73700402147B73643
:1036C000004089E9373700408347574093F70704A4
:1036D00099CF828003C6B740E305C7FE05050346C0
:1036E000F5FFFD15C2052384C640C181D9BF010085
:1036F000E1BF8147B736004003C7A64013960701D4
:1037000041821377F70F19E33285828003C6864022
:103710003307F50085072300C700F9BF411122C414
:1037200006C62A84EFF03FD72947B307E502B24027
:103730008D83B3D7870222449507B3D7E702374773
:103740000040C207C1832316F78041018280716562
:1037500041111305052006C6D137B74700401307AE
:1037600070F82381E7800D47A381E78013070004E9
:10377000A380E78005472387E780B240410182802C
:1037800037470040834727801A0593F7F703C98F0F
:1037900093F7F70F2301F7808280B747004003C7F4
:1037A000178019C9D98DA380B78003C70780136715
:1037B00087002380E780828093C5F5FFF98DA38081
:1037C000B7808280B7470040130700F8A380E780E6
:1037D0008280B74700402147B746004089E9374714
:1037E00000408347578093F7070499CF828003C630
:1037F000B780E305C7FE05050346F5FFFD15C205C5
:103800002384C680C181D9BF0100E1BF8147B7468B
:10381000004003C7A6801396070141821377F70F74
:1038200019E33285828003C686803307F500850759
:103830002300C700F9BF411122C406C62A84EFF055
:103840009FC52947B307E502B2408D83B3D78702EE
:1038500022449507B3D7E70237470040C207C18328
:103860002316F7C0410182807165411113050520BF
:1038700006C6D137B7470040130770F82381E7C069
:103880000D47A381E7C013070004A380E7C00547E5
:103890002387E7C0B2404101828037470040834719
:1038A00027C01A0593F7F703C98F93F7F70F230182
:1038B000F7C08280B747004003C717C019C9D98D28
:1038C000A380B7C003C707C0136787002380E7C082
:1038D000828093C5F5FFF98DA380B7C08280B7477A
:1038E0000040130700F8A380E7C08280B74700407C
:1038F0002147B746004091E1828003C6B7C0E30C80
:10390000C7FE05050346F5FFFD15C2052384C6C0A5
:10391000C181D5B78147B746004003C7A6C01396FB
:10392000070141821377F70F19E33285828003C6BE
:1039300086C03307F50085072300C700F9BF39713A
:1039400093D7450122DC4AD856D22A891394C50060
:1039500006DE26DA4ED652D45AD05ECE13F5F77F65
:10396000318093DAF501630B05109307F07F630B49
:10397000F514135AD9010E0433648A00370A800003
:10398000336A4401131B3900930415C00144814B71
:1039900013D846011399C6001378F87FB2881359DB
:1039A000C90093D9F601630E08089307F07F6300FE
:1039B000F8041357D6010E0933692701130818C0FC
:1039C000B70780003367F90093183600B3840441C9
:1039D0008145BD4733C83A0163E4871A9757000011
:1039E0009387472F0A043E9410403E960286336721
:1039F000C900938414806312071013642400814863
:103A00008945C1BF1306F07F81470147B207F250D5
:103A100062545206B1837E08D18FB3E70701D254B6
:103A20004259B259225A925A025BF24B3A85BE85EC
:103A30002161828001481306F07FB7070800014723
:103A4000F1B73367C9004DC7630709304A8532C4EF
:103A5000EF00501B2246130755FFF547930685FFDD
:103A6000998F3319D900B357F60033E72701B318FC
:103A7000D60026959304353F8145A1BF336A2401C2
:103A800063030A0636C632C46306042A2285EF00A1
:103A900070172246B246AA84130755FF754A138B46
:103AA00084FF330AEA4033146401335A4901336A0C
:103AB0008A00331B69011305D0C0B304954001444B
:103AC000814BF9B5336A240163180A002144014B84
:103AD0009304F07F894B6DBD228A4A8B3144930455
:103AE000F07F8D4B75B51144014B8144854B4DB52D
:103AF0001364140081488545E9BD136434004A8786
:103B00008D45C1BD6308052E8547898F93068003C7
:103B100063DBF632014681470147CDBDCE8689473A
:103B2000638BF53A8D47E387F5F085473688E38365
:103B3000F5FE1385F43FE357A0FC93F778006394F8
:103B4000072893D638009317770063D80700B70784
:103B500000FFFD177D8F138504409307E07FE3C3CB
:103B6000A7EA1316D70193179700B1833367D600DE
:103B70001376F57F61BDD6865287DA88DE8545B734
:103B8000636F4721630BEA20DA86FD145284014BF0
:103B90009317870013D388013363F300935E030107
:103BA000B357D403131F0301135F0F0193D506010D
:103BB000139E88003374D4033307FF024204C18D7F
:103BC00063FBE5009A951386F7FF63EC652663FABD
:103BD000E526F9179A95998D33D7D503C206C18288
:103BE000B3F5D5033306EF02C205D58D63FBC500DF
:103BF0009A959306F7FF63E4652463F2C524791769
:103C00009A95C20741645D8F9307F4FF3375F700FF
:103C100093580701935F0E01B377FE00B302F502DC
:103C2000B386C540B383F80293D502013386AF0251
:103C30001E962E963385F803637376002295C1682D
:103C4000FD1893550601337616014206B3F81201AA
:103C5000AA95469663E4B6126380B6123306CB404B
:103C60008D8E333BCB00338B66411385F43F630A63
:103C70006317B358DB0393550601337BDB03B306AD
:103C80001F03420B33EB6501637BDB001A9B9385BB
:103C9000F8FF636B6B206379DB20F9181A9B330BF9
:103CA000DB40B356DB0342064182337BDB03330F39
:103CB000DF02420B33666601637BE6011A96938549
:103CC000F6FF6365661E6373E61FF9161A96C2084F
:103CD000B3E8D8009395080193D20801C181B38E4F
:103CE000F5023306E641B385BF0293D60E01B387D2
:103CF000F202BE95AE96B38F5F0263F4F600C16721
:103D0000BE9FC165FD1593D70601ED8EC206B3FEB9
:103D1000BE00BE9FF696637DF6091A969387F8FF5C
:103D20006367661A6366F619630DF61BBE8893E82F
:103D3000180011B54A85F92513075501F14593047B
:103D400005022246B246E3DBE5D4130485FF331AAD
:103D50008900014B8DB3328532C46D25130755019F
:103D6000F146AA87224613050502E3D8E6CEE117FD
:103D70003317F6008148F5B9E372CBEE729B333509
:103D8000CB011A95AA961305F7FF6378D30263E671
:103D9000B6106382D5102A87D1B5E3671BDF935530
:103DA0001B009316FA0113541A00CD8E7E0BCDB36F
:103DB000E31FF6F7E38106D88DB7E31ED3FCE37863
:103DC000CBFD2A8761BD93F7F8009146E38BD7D6E8
:103DD00093B7C8FF9386480093C717008D823E971C
:103DE0009DB381468547E34CA0FEFD58E31E05D0F8
:103DF000930410C085471385E441B316A70033D65A
:103E0000F8003395A800D18E3335A000C98E13F683
:103E100076003357F70001CE93F7F600114663881A
:103E2000C70093874600B3B6D7003697BE86931770
:103E3000870063D80704054681470147C1BE36871E
:103E4000C9B3B28749BBFD46E3D7F6FA0556098EDA
:103E5000930600023356C7006388D7009387E44374
:103E6000B317F700B3E8F800B3361001D18E13F69C
:103E70007600814701CE93F7F60011460147E392A1
:103E8000C7FA931797001316D701B18313D73600DB
:103E9000518F0146A5BEE370CBF0729B3335CB0149
:103EA0001A957917AA965DBBAE88D5BBAE8605B5C7
:103EB00093171E0033BEC70172931A96F9183E8EEF
:103EC000E317F6E7E309DEC693E81800ADB1BE8854
:103ED000E30AF6FFA9BD36881306F07F8147014744
:103EE00035B6E367DEFCBE88E310DEFEA9B13971AA
:103EF0004AD813D945014ED652D456D29399C5000B
:103F000006DE22DC26DA5AD05ECE1379F97F2A8AC1
:103F100093D9C90093DAF501630D090E9307F07F79
:103F20006304F9181354D5018E09B36934013704B9
:103F3000800033E4890093143500130919C08149C6
:103F4000814B13D74601139AC6001377F77FB285CA
:103F5000135ACA0013DBF601630A07109307F07FB8
:103F60006303F7049357D6010E0A33EA4701130798
:103F700017C0B7078000B367FA00931536003A9967
:103F8000814833C76A01BD463A851308190063E6C4
:103F90003617175600001306E6D78A09B29983A68A
:103FA0000900B2968286B367CA001309F97F639746
:103FB000071293E9290081458948E1B70147930732
:103FC000F07F3704080081443204D20731807E0735
:103FD0005D8C598CA285F250625426854259D25488
:103FE000B259225A925A025BF24B216182805A8561
:103FF0003E84AE84C68B8947638BFB0E8D47E38F6F
:10400000FBFA85472A87639AFB388147014481443C
:1040100065BF33E4A90055CC36C632C46389092A8A
:104020004E85CD262246B246AA87130755FF754412
:10403000938487FF198CB399990033548A003364B1
:104040003401B3149A0013D746011309D0C0139A50
:10405000C6001377F77F3309F9408149814BB28558
:10406000135ACA0013DBF601E31A07EEB367CA005E
:10407000A9C7630E0A22528532C4692622462A87BE
:10408000930655FFF547930587FF958F331ABA00BE
:10409000B357F600B3E74701B315B6003309E9405B
:1040A0001309D9C08148F1BD33E4A90001ECA1494D
:1040B00081441309F07F894B69B593E91900814563
:1040C0008548C1B54E84AA84B1491309F07F8D4B50
:1040D0008DBD914981440149854BA5B593E93900CE
:1040E000D2878D4879BD89475685E399FBF02A87A9
:1040F0009307F07F01448144C1BDC16E1386FEFF6A
:1041000093D6040113DE0501F18CF18D33869502FF
:104110003383B6029358060133059E021A95AA9876
:10412000B382C60363F36800F692C16F1383FFFF87
:1041300033F5670093D30701B3F76800C207337301
:1041400066003E933306950293D80801B387A60212
:10415000135F0601B3849302BE94FA94B38E760281
:1041600063F3F400FE9E416A9307FAFF935F040134
:10417000B376F400B3F9F4007D8EC1803384D502A8
:10418000C209338FD401B299CE98B307DE02935E91
:104190000401B385BF02AE97BE9E330EFE0363F3E8
:1041A000BE00529EC1679385F7FF33F6BE006D8C4B
:1041B0004206229693DE0E01B305D502769E338524
:1041C000AF0213D40501B386D302AA96A296B38F89
:1041D000F30363F3A600BE9F41657D15B3F7A60008
:1041E000C2076D8DAA97B3855800B3B93501FA9708
:1041F000B2953384370133B6C500B30EC40133859D
:10420000CE0033343401B3B7E701C18F33BECE01E2
:1042100013D406013336C5003E943366CE00939422
:10422000950032947E94B3E464002604935675019D
:10423000B3349000DD8193179500CD8C558CDD8CC7
:104240009317740063DB070093D7140085889316D7
:10425000F401DD8CD58C058042899307F93F6357C3
:10426000F00893F6740081CE93F6F400114663884B
:10427000C60093864400B3B496002694B684931681
:10428000740063D80600B70700FFFD177D8C930705
:1042900009409306E07F63CDF60E93D63400931465
:1042A000D4012604D58C318093F7F77F31BB32855A
:1042B00032C4892A93065501F147130705022246A5
:1042C000E3D2D7DC6115B317A6008145C1BB1D2A17
:1042D00013075501F145930705022246B246E3D87C
:1042E000E5D461153314AA008144B1BB85469D8E87
:1042F000B1E71309E941B3972401B3D4D4003319CA
:104300002401B337F000B3649900DD8C93F7740097
:10431000B356D40081CF93F7F40011466388C700E9
:1043200093874400B3B49700A696BE849397860003
:1043300063D8070485470144814479B1130680039B
:10434000E345D6CC7D46E356D6FA0556B307F6408C
:10435000930500023356F4006387B6001309E9435E
:10436000B3172401DD8CB3349000D18C93F6740024
:10437000014499CA93F7F40011468146E392C7FAC3
:10438000139496003180F6068D80D58C81472DB927
:104390009307F07F0144814405B942897DBD15CD65
:1043A000411122C406C62A84B1289306E041898EB1
:1043B000A94793F6F67F63DCA7025515B317A4004F
:1043C000B207B1830147B2402244B207D206B1839B
:1043D000D58F3A85BE854101828081478146B207EB
:1043E000D206B1830147D58F3A85BE8582802D479D
:1043F000098FB357E400B207130755013317E400E0
:10440000B183D1B7C167637EF5029307F00F13073D
:10441000000263ECA700975700009387A793AA9721
:1044200003C507003305A74082802181975700000C
:1044300093874792AA9703C5070061473305A740B2
:104440008280B7070001636EF50061819757000015
:1044500093874790AA9703C5070021473305A740D4
:1044600082804181975700009387C78EAA9703C522
:10447000070041473305A7408280294681456F00E8
:10448000107097C7FF1F9387A76AAA858843BDA2AC
:1044900097C7FF1F9387C769AA85884365A8B3C7D5
:1044A000A5008D8B3307C50081E78D4763EEC700FC
:1044B000AA876370E50A83C6050085078505A38F73
:1044C000D7FEE3EAE7FE828093763500AA8791CA99
:1044D00083C6050085078505A38FD7FE93F63700B1
:1044E000FDB79376C7FF138606FE63F0C70683A366
:1044F000050083A2450083AF850003AFC50083AEEE
:10450000050103AE450103A3850183A8C501938579
:10451000450223A0770003A8C5FF23A2570023A4C8
:10452000F70123A6E70123A8D70123AAC70123ACDB
:10453000670023AE17019387470223AE07FF75B7C5
:1045400090419107910523AEC7FEE3EBD7FEE3E46C
:10455000E7F68280DDC183A7C5FF411122C406C6EC
:1045600026C21384C5FF63D307003E94AA84EF10CC
:10457000905A938781829C4381EF2322040023A4D5
:1045800081822244B2402685924441016F10D05866
:10459000637EF40014403307D4006396E700984329
:1045A000DC43369718C05CC0D9BFBA87D84319C35B
:1045B000E37DE4FE94433386D700631F86001040FA
:1045C000B29694C33386D700E31DC7FA104358430D
:1045D000B29694C3D8C375B76375C400B1479CC085
:1045E0004DB71040B306C4006316D70014435843B8
:1045F000B29614C058C0C0C369B78280011126CAE0
:1046000093843500F19806CE22CC4AC84EC6A10448
:10461000B14763F5F404B14463E4B4042A89EF10AC
:10462000904F9387818298433A8429E49387C1828B
:104630009C4399E781454A85EF00502923A6A18232
:10464000A6854A85EF009028FD5963193507B147C3
:104650002320F9004A85EF10304C29A0E3DE04FA4C
:10466000B1471CC10145F2406244D2444249B249BB
:10467000056182801C40858F63CF0702AD4663F6DB
:10468000F6001CC03E9404C031A05C406313870256
:1046900023A4F1824A85EF1030481305B400930734
:1046A000440061993307F5405DDF3A94898F1CC05F
:1046B0005DBF5CC3C5B72287404085BF130435008A
:1046C0007198E30285FCB305A4404A85EF001020F1
:1046D000E31B35FBADBF797122D44AD052CC56CA08
:1046E0005AC806D626D24ECE3A8AAE8A3284368947
:1046F000428B014763580600370700803344C700E8
:104700001307D0022380E70093F4F8FD93076004B9
:104710008D466388F4009307500489466393F40040
:104720000509DA879308C100130881004A87D685F6
:104730002286EF00507793077004AA896396F400ED
:10474000137A1A00630A0A0493076004338A290162
:104750006397F40203C7090093070003631EF70081
:10476000014681465685A285EF20106411C5854714
:104770003389274123202B0183270B003E9A0146D2
:1047800081465685A285EF20306211E152C613079B
:104790000003B24763E24703B2474257B250225484
:1047A000B38737411CC34E8592540259F249624A7D
:1047B000D24A424B456182809386170036C62380D9
:1047C000E700C1BF2300C500130725009307B0020F
:1047D00063D60500B305B0409307D002A300F500EF
:1047E000A54763DAB70441119307F100BE88294851
:1047F00013033006B3E605031386F7FF938606031B
:10480000A38FD7FEB3C60503634DB300938606039B
:10481000F917A30FD6FE63E917013305A74041013D
:104820008280B287B685F9B7850783C6F7FF05078B
:10483000A30FD7FECDB79307000313074500938559
:1048400005032301F500A301B5003305A7408280CD
:1048500019713ACE86DEA2DCA6DA2E84CAD8CED66C
:10486000D2D4B689DAD0DECEE2CC3289D6D2E6CA4C
:10487000EAC8EEC6AA84EF101023832B05005E85DC
:10488000EF007014032B0400724702DC93760B10C8
:104890002A8C034A84011C43F1CA9386470014C33F
:1048A0009C43081098433AD0D8433AD298473AD418
:1048B000DC473ED6EF30607128C46CC4832CC4043E
:1048C0001747000013070759832A8404032D0700A4
:1048D000832D470093971C0085836A86EE86568554
:1048E000BE853ECEEF30005D41EDF2476A86EE8632
:1048F0005685BE85EF20D05C6354A00801468146F2
:104900005685E685EF20D05B635605009307D002FD
:10491000A301F40493077004974A0000938A0A5491
:1049200063F64701974A0000938A8A53137BBBFFC3
:104930008D47232064011CC8014B4E87CA8670181E
:10494000A2852685C12EFD5C631E95157D55F6500A
:104950006654D6544659B659265A965A065BF64BB3
:10496000664CD64C464DB64D096182809D07E19B51
:104970009386870014C39843DC4338C47CC43DBF8E
:104980005686E6865685E685EF30C05211CD9307F0
:104990007004974A0000938AEA4CE3F947F9974A72
:1049A0000000938A6A4C59B75C407D57137DFA0D1D
:1049B0006395E70899475CC0544013670B403C1867
:1049C000D6853EC018C09307310302C2D2881308AF
:1049D000410366862685EFF01FD093077004AA8AEC
:1049E000D255631BFD00F55763C5F5005C4063D8E5
:1049F000B708791A137AFA0F9307500663E647054A
:104A0000FD155286130504052EDAEFF0BFDB625761
:104A100085462A8BB307A7001CC863C5E60018406B
:104A2000058B19C385071CC883473103E38707F04B
:104A30009307D002A301F40409B713077004E31D20
:104A4000EDF6BDFB854785BF93076006631BFA0241
:104A50005C40635BB0000CC881E71840058B09CF50
:104A60008507AE971CC809A889E718408546058BBD
:104A700019C39386270014C82CCC014B75B7130AB1
:104A80007006E25763C9F5001C400CC8858BEDD752
:104A900093871500C1BF05476344B00009470D8FD8
:104AA000BA97C9B71C4013F7074015E31448568658
:104AB000CA8526858299E30B95E91C40898B63960C
:104AC0000724F2574844E354F5E83E8549B51307F7
:104AD0005006637B471928446C4401468146EF2009
:104AE000B02C39E98546174600001306E6A1CA85B1
:104AF00026858299E30C95E55257E2576345F70006
:104B00001C40858BDDDBE2865E86CA852685829920
:104B1000FD57E30DF5E2014A930AA4017D5BE257DC
:104B2000FD17E35CFAF885465686CA852685829984
:104B3000E30E65E1050AE5B7D2576346F006854600
:104B4000174600001306469CCA8526858299E30F06
:104B500095DFD2576257D98F81E71C40858BB1DF33
:104B6000E2865E86CA8526858299FD57E300F5DEDA
:104B7000014A130BA401FD5BD257B307F040634B0E
:104B8000FA00E2565686CA8526858299FD57E316B5
:104B9000F5F26DBB85465A86CA8526858299E3075C
:104BA00075DB050AD1BF3C4C625A63D347013E8A8C
:104BB000635A4001D2865686CA8526858299FD575A
:104BC000E306F5D8814C130DA401FD5D09A88546C7
:104BD0006A86CA8526858299E30AB5D7850C032B98
:104BE0008405D28763530A008147B307FB40E3C0C3
:104BF000FCFE5257E257634DF7021C40858B8DEB4C
:104C0000E2575257338AE7406344EB00338A6741E7
:104C1000635B4001D28633866A01CA852685829904
:104C2000FD57E305F5D2814A130BA401FD5B15A0E6
:104C3000E2865E86CA8526858299FD57E312F5FCD9
:104C400031B385465A86CA8526858299E30075D197
:104C5000850A5257E257998F528763530A000147DA
:104C6000998FE3C0FAFE91BDE25605476344D70031
:104C7000858BB5C785465686CA85268582997D5A15
:104C8000E30645CDE2865E86CA8526858299E30FD6
:104C900045CB28446C4401468146EF20F0101DC9E5
:104CA000E25613861A00CA85FD1626858299E30FFF
:104CB00045C9DA8613060405F9B585465686CA85C0
:104CC00026858299E30475C9050AE257FD17E34674
:104CD000FAFEC5B7014A930AA401FD5BFDB78546FC
:104CE0005686CA8526858299E31595FD85B1854648
:104CF0005686CA8526858299E30A65C5050A5C44FD
:104D00007257998FE345FAFE6DBB014A930A9401ED
:104D10007D5BF5B7797156CA9C49BA8A984522D409
:104D200026D24ECE52CC06D64AD05AC85EC6AA89E2
:104D30002E84B284368A63D3E700BA879CC00347C7
:104D4000340419C385079CC01C4093F7070281C730
:104D50009C4089079CC00329040013796900631AE9
:104D60000900130B9401FD5B5C449840998F634CE0
:104D7000F9041C408346340493F70702B336D0008D
:104D8000A5EB13063404D2854E85829AFD57630342
:104D9000F5041C4011469840998B54448144639714
:104DA000C700B384E64063D3040081441C44184820
:104DB0006354F700998FBE94014969047D5B639841
:104DC0002405014509A885465A86D2854E85829AD2
:104DD000631E75017D55B250225492540259F24916
:104DE000624AD24A424BB24B456182800509ADBF4F
:104DF0003307D40013060003A301C7040347540478
:104E000093871600A2978906A381E7049DBF854674
:104E10002286D2854E85829AE30E65FB050945B749
:104E2000797122D426D24AD04ECE06D652CC56CA5A
:104E30005AC8B68983C68501930790063289AA8429
:104E40002E8413863504638DF60263E2D70693073A
:104E500080056389F61863EDD70063820622930705
:104E60003004638FF60A930A24042301D404D1A0EA
:104E7000930730066386F60A93074006E395F6FE2D
:104E80001C40084393F6070893054500CDC61C4116
:104E90000CC363D807001307D002B307F040A30187
:104EA000E40497460000938666FC294775A893079B
:104EB00000076385F61663E5D7029307E006638C67
:104EC000F6189307F006E390F6FA0C401C4313F82B
:104ED0000508138547006308080608C39C4395A886
:104EE00093075007E383F6FE93078007638CF6125F
:104EF00093073007E399F6F61C43D041814593862A
:104F0000470014C383AA07005685EF10203F01C550
:104F10003305554148C05C401CC8A301040471A876
:104F20001C43930A2404938647009C4314C3230123
:104F3000F4048547D5B793F607041C410CC3B1DAD6
:104F4000C207C187B9B793F5050408C3C1D983D790
:104F500007001307F0066388E60E97460000938665
:104F6000E6F02947A30104044C400CC463C50500C6
:104F700008406D9908C099E3B28A91CDB28AB3F521
:104F8000E702FD1AB69583C505002380BA00B3D5A4
:104F9000E70263F0E70CA147631EF7001C40858B16
:104FA00091CB58401C4863C7E70093070003A38FC9
:104FB000FAFEFD1A3306564110C84E87CA867000A5
:104FC000A2852685EFF01FD57D5A631E450B7D55C2
:104FD000B250225492540259F249624AD24A424B88
:104FE00045618280A382D50497460000938606E837
:104FF0000C40084313F805081C411105630D080215
:1050000008C313F7150001C793E505020CC041471B
:10501000B1FB0C4093F5F5FD0CC0A9B79C4193E79B
:1050200007029CC193078007A302F404974600007F
:10503000938606E575BF13F8050408C3E30308FC6F
:10504000C207C1837DBF97460000938626E22147B1
:1050500011BFAE872DB794411C43CC4913F8060805
:10506000138547006306080008C39C438CC301A84E
:1050700008C393F606049C43F5DA2390B70023286F
:105080000400B28A1DBF14485686CA8526858299B7
:10509000E30F45F31C40898B8DE7B2474844E35941
:1050A000F5F23E8535B785465686CA8526858299AE
:1050B000E30F65F1050A5C443247998FE345FAFE38
:1050C000E9BF014A930A94017D5BF5B7411122C4FF
:1050D0002A842E8523A0017806C6EF30E010FD5704
:1050E0006317F500938701789C4391C31CC0B240BD
:1050F00022444101828035713ECBA6DA36C73AC9D7
:1051000042CD46CF97C7FF1F938787A286DEA2DCDA
:10511000844363DB05009307B0089CC07D55F650BF
:105120006654D6540D61828093078020231AF100C3
:105130002AC42ACC814799C19387F5FF3EC83ECE49
:105140007401FD572E8426852C00231BF10036C2E6
:10515000EF10501DFD576355F5009307B0089CC034
:105160005DDCA247238007005DBF35713ECBB707EA
:10517000008093C7F7FF3ECE3EC8C1779387872054
:1051800032C536C73AC942CD46CF3ECA97C7FF1F80
:105190009387079A2AC42ACC884334012E862C0090
:1051A00086DE36C2EF101018A24723800700F650A3
:1051B0000D618280AA8703C7050085078505A38F37
:1051C000E7FE75FB8280AA87850703C7F7FF6DFF9F
:1051D0003385A7407D158280AA8709CA850503C744
:1051E000F5FF85077D16A38FE7FE65FB3E9663936B
:1051F000C70082808507A38F07FED5BF0347050040
:1052000083C7050001E791C301458280814701A85A
:105210008347150013071500E5DB81473A8533877F
:10522000F5000347070075D3B306F50083C60600F3
:10523000E390E6FE85072A87D5B779714AD04ECE2E
:1052400006D622D426D2AA892E899304190003C433
:10525000F4FF3A8536C632C42EC23AC0EF1040047D
:1052600022958347150002479245A18B2246B246FC
:10527000C9E79307D0026314F40883C70400054309
:1052800093042900FDC641476392E6021307000319
:10529000639EE70083C704001307800593F7F70DAB
:1052A0006394E70C83C71400C1468904B7080080E3
:1052B0006314030093C8F8FF33FFD8020148014587
:1052C000A54FE54EFD5233DED802138707FD63E498
:1052D000EF04BA8763DFD704630D58007D58636A13
:1052E000AE006314AE006346FF0005483385A60296
:1052F0003E95850483C7F4FFC9BF2689B9B79307D4
:10530000B0026305F400A2870143ADBF83C7040068
:1053100093042900D5BF1387F7FB63E5EE0093875D
:1053200097FC4DBF1387F7F963E5EE00938797FA73
:1053300055B7FD57631FF8009307200223A0F9001B
:10534000468519EEB250225492540259F2494561F1
:105350008280630403003305A0406DD66304080017
:105360009385F4FF0CC2F9BF93070003A1F2A14695
:1053700035BF13070003E38FE7F0A94605BF97B7D2
:10538000FF1F9387E77A9C43B286985309E717B7C4
:10539000FF1F1307A7622E86AA853E8579BD797106
:1053A0004AD04ECE06D622D426D2AA892E8993047C
:1053B000190003C4F4FF3A8536C632C42EC23AC07F
:1053C000EF00106E22958347150002479245A18B8E
:1053D0002246B246BDEF9307D002631EF40683C790
:1053E0000400054393042900F5C241476392E60295
:1053F00013070003639EE70083C7040013078005BB
:1054000093F7F70D639FE70A83C71400C146890429
:105410007D57335ED70201480145254FE54EB378ED
:10542000D702138707FD6364EF04BA8763D1D706F9
:10543000634D08047D58636AAE006314AE0063C612
:10544000F80005483385A6023E95850483C7F4FF1E
:10545000C9BF2689A9BF9307B0026305F400A287DC
:10546000014359B783C7040093042900D5BF1387AC
:10547000F7FB63E5EE00938797FC4DBF1387F7F9C1
:1054800063E7EE00938797FA55B77D587DBF635F5A
:1054900008009307200223A0F9007D5519EEB250B1
:1054A000225492540259F2494561828063040300F8
:1054B0003305A0406DD6630408009385F4FF0CC249
:1054C000F9BF93070003A9F6A14699B71307000394
:1054D000E384E7F2A9462DBF97B7FF1F938747657F
:1054E0009C43B286985309E717B7FF1F1307074D70
:1054F0002E86AA853E8565B51971A2DC86DEA6DA00
:105500003284635B06009307B0081CC17D55F650DA
:105510006654D654096182803686930680202EC454
:105520002ECC231AD100814519C09305F4FFFD57F5
:105530002EC82ECEBA862C00231BF100AA84EF10B1
:10554000605EFD576355F5009307B0089CC061D0BD
:10555000A2472380070065BF97B7FF1F9387475D6A
:105560003687B2862E86AA85884379B7011122CC68
:105570001C49804906CE26CA4AC84EC652C456C2E5
:1055800063C187127D141318240093894501338A5F
:105590000901130945014A9883270A0003270800D7
:1055A0008507B354F7026366F706C1684E834A8ED7
:1055B000814E014FFD1811030326C3FF110E3377EF
:1055C0001601418233079702330696027697935667
:1055D0000701B3771701B307FF4036968326CEFF46
:1055E000935E06013376160133F71601BA97C1822E
:1055F00013D70741918EBA9613DF0641B3F717010F
:10560000C206D58F232EFEFEE3776AFA83270800B1
:10561000BDCBAA8AEF10602063490504416685046A
:10562000CA8501457D16910903A8C9FF98419105D6
:10563000B376C800158DB376C700AA9693570701B5
:105640001358080113D70641B3870741BA9713D5FA
:105650000741F18EC207D58F23AEF5FEE3753AFD03
:1056600093172400CA9798431DC72685F2406244C9
:10567000D2444249B249224A924A05618280832734
:10568000080089E77D147118E36B09FF00C951B761
:10569000984309E77D14F117E36CF9FE23A88A000B
:1056A000E9B70145E1B775713ED85C5122C526C303
:1056B0004AC1CEDED2DCE2D406C7D6DADAD8DED6EC
:1056C000E6D2EAD0EECE36C23AC646CAAA842E84C4
:1056D0003289C2892E8A328C89EF4145EFE07FDA28
:1056E000C8D02322050023240500232005002326FB
:1056F0000500DC508C4389CDD84385472685B39778
:10570000E7009CC5D8C1EF00D049DC5023A00700BA
:10571000635309048547131C190023A0F900135C87
:105720001C00B707F07F3377FC006314F70642577D
:105730008967320C9387F770135CCC001CC3336C01
:105740008C00E3030C30D24791EB9737000093872E
:10575000A7793EC039A823A00900E1B79737000018
:10576000938787783EC09737000093871778524712
:105770001CC3BA402A4402459A440A49F659665A5B
:10578000D65A465BB65B265C965C065DF64D496173
:105790008280014681462285E28522CE62D4EF10C6
:1057A000B06005E1425785471CC3973700009387D7
:1057B000A7D53EC0D247D5DF973700009387D7D40F
:1057C0007DB7B800F4006286A285268513594C0186
:1057D000EF10E0161379F97FAA89A64A630D091024
:1057E000A2577245130919C09395C700B181B70735
:1057F000F03FDD8D02DC973700009387A769904367
:10580000D443EF1050779737000093872769904370
:10581000D443EFE0CFED973700009387A76890431C
:10582000D443EF1060652A8B4A85AE8BEF20C0729F
:1058300097370000938787679043D443EFE02FEBBF
:105840002A86AE865A85DE85EF1000632A8BAE8BE2
:10585000EF20006A2A84014681465A85DE85EF10D2
:105860003066635B05002285EF20006F5A86DE8676
:10587000EF10905311C17D140547D9473AD663E321
:10588000870213173400973700009387A76FBA97E2
:105890009043D4437245A255EF10906263530500C4
:1058A0007D1402D633892A41930BF9FF014B63D64D
:1058B0000B00054B330B2B41814B634E0406A29B1F
:1058C00022CC814A1247A54763E5E7149547854CEA
:1058D00063D6E7009307C7FF3EC2814C12478D474E
:1058E000630EF71063CFE704894702C8630DF7061C
:1058F00085473EC88DA03649930700025699130785
:10590000294363D5E70213050004198D9307294144
:105910003315AC003354F400418DEFE05FA8B707B6
:1059200010FEBE9585477D193EDCF1B53385E74015
:105930003315A400DDB7330B8B40B30A804002CC93
:1059400051B712479147630EF70005473AC812470F
:1059500095476306F70AFD573EC4FD5DC94702C679
:1059600019A885473EC8B2476348F00A85470547EE
:105970003EC4854D3AC603A94402114723220900BB
:10598000930647018325490063FCD7082685EF006D
:10599000D018DC502320A9009C433EC0B94763E6E1
:1059A000B71D63840C1C635E800A9377F400139721
:1059B0003700935C4440973700009387A75CBA9701
:1059C00093F60C0198430949DC4385C697360000DD
:1059D0009386C65890527245D452A2553AD03ED2C0
:1059E000EFD0FFF50257925793FCFC002A8A2E8CC9
:1059F0000D49173D0000130D6D5689A802C8B24726
:105A0000A2973EC4938D1700EE87E346B0F7854713
:105A10009DB7854C02C2E9BDB2473EC4BE8DA1BF51
:105A200085052322B9000607A1BF93F61C0081CE8D
:105A300003260D0083264D003A85BE85EFE02FCB6F
:105A400005092A87AE8793DC1C40210DE39F0CFCDF
:105A50003A86BE865285E285EFD07FEE2A8A2E8C6A
:105A600081A0094915CCB30C804093F7FC00139733
:105A70003700973700009387E750BA979043D44395
:105A80007245A25593DC4C40173D0000130D0D4D9F
:105A9000EFE0EFC52A8A2E8C8147639C0C12DDFF54
:105AA000B25763870714173700001307A740104346
:105AB00054435285E28552D0EF109040635A05124C
:105AC000638B0D12A2476350F00A173700001307CB
:105AD000E73E8257104354433E85E285EFE02FC1F5
