:04C000006F20005C51
:10C0040000000000000000009000002056080020FE
:10C01400A9BDF9F594000020000000000000000014
:10C02400960000209800002000000000000000009E
:10C034009A000020000000009C0000200000000086
:10C044009E0000201603002044030020A4000020CA
:10C05400A6000020A8000020AA000020AC000020B8
:10C06400AE000020B0000020C60000205A010020CD
:10C07400D2080020B8000020BA000020BC00002034
:10C08400BE000020EE01002082020020C400002037
:10C0940001A001A001A001A001A001A001A001A094
:10C0A40001A001A001A001A001A001A001A001A084
:10C0B40001A001A001A001A001A001A001A001A074
:10C0C40001A001A001A037370040834747009946EB
:10C0D4004111BD8B638CD70231476384E706114756
:10C0E400639EE702A3030100174600000346063DD2
:10C0F40037370040834771006315F6022C0013851F
:10C104008166977001E0E780408409A8834757005F
:10C1140093F7F70F2304F100834781004101730073
:10C12400203083477100834687000C08AE97238C28
:10C13400D7FE83477100850793F7F70FA303F10038
:10C1440055BF280097D001E0E78080951375F50F5F
:10C15400A303A1000346710055B737370040834756
:10C16400474099464111BD8B638CD70231476384A4
:10C17400E7061147639EE702A30301001746000088
:10C184000346E63337370040834771006315F602F0
:10C194002C001385C167976001E0E780007B09A844
:10C1A4008347574093F7F70F2304F1008347810037
:10C1B40041017300203083477100834687400C0897
:10C1C400AE97238CD7FE83477100850793F7F70F4B
:10C1D400A303F10055BF280097D001E0E780009E3B
:10C1E4001375F50FA303A1000346710055B7374734
:10C1F40000408347478099464111BD8B638CD70229
:10C2040031476384E7061147639EE702A3030100F5
:10C21400174600000346962A3747004083477100BB
:10C224006315F6022C0013850169976001E0E7802D
:10C23400C07109A88347578093F7F70F2304F100CF
:10C244008347810041017300203083477100834696
:10C2540087800C08AE97238CD7FE8347710085072F
:10C2640093F7F70FA303F10055BF280097D001E01F
:10C27400E78080A61375F50FA303A10003467100A0
:10C2840055B737470040834747C099464111BD8B96
:10C29400638CD70231476384E7061147639EE70244
:10C2A400A303010017460000034626523747004007
:10C2B400834771006315F6022C001385416A976069
:10C2C40001E0E780806809A8834757C093F7F70F18
:10C2D4002304F10083478100410173002030834728
:10C2E4007100834687C00C08AE97238CD7FE834722
:10C2F4007100850793F7F70FA303F10055BF2800DA
:10C3040097D001E0E78000AF1375F50FA303A100F8
:10C314000346710055B7411122C6371400408357B4
:10C32400C40913973701635B0700BD45014597B006
:10C3340001E0E78000C48567231EF408324441010C
:10C3440073002030411122C6371400408357E4099A
:10C354008357E409139717016359070097B001E065
:10C36400E78040B99167231FF40832444101730008
:10C3740020304111814601468145114506C60D2DE7
:10C38400B727004011472383E780B7F700E003A7EE
:10C3940007D16D9B23A8E7D003A707D15D9B23A8F2
:10C3A400E7D07300501001000100B24041018280C7
:10C3B4004111814681450146114506C6D52BB72753
:10C3C400004011472383E780B717004003C7E70203
:10C3D40083C5E70483D7870391661377F70F93E543
:10C3E400350063E5D700719B13671700B71700404A
:10C3F400130670052380C704930680FA2380D704AC
:10C4040001000100238207022380C7042380D7048C
:10C41400010001002387E7022387B7042380C704B0
:10C424002380D7040100010003C7B7041367070280
:10C43400A385E7042380070437F700E0832507D1A9
:10C4440093E545002328B7D0832507D1DD99232818
:10C45400B7D073005010010001002380C70423806B
:10C46400D7040100010003C7B7041377F70DA385B0
:10C47400E70423800704B240410182800111B7F52B
:10C48400070022CC8146E1052A840A86194506CE96
:10C4940026CA02C023120100212BB717004003C78C
:10C4A400E70283C5E70483D7870391661377F70F01
:10C4B40093E5350063E5D700719B13671700B71741
:10C4C4000040130670052380C704930680FA238076
:10C4D400D70401000100238207022380C7042380BC
:10C4E400D704010001002387E7022387B7042380D0
:10C4F4000704B7F500E003A705D11367470023A895
:10C50400E5D003D507026577110713750560418DE2
:10C51400598D4205418101002380C7042380D7043B
:10C524000100010003C7F70037F40700B7F400E087
:10C5340013670704A387E70003C7B70461041367FD
:10C544000702A385E7042390A70283A704D1DD9BF8
:10C5540023A8F4D0730050100100010013056004F7
:10C56400352E81463000A285194502C423160100E8
:10C57400812122478247E31AF7FCB71700401307CB
:10C5840070052380E704130780FA2380E704010081
:10C59400010003C7B7041377F70DA385E7042380CD
:10C5A4000704F2406244D2440561828001114EC600
:10C5B40081460146AA898145114506CE22CC26CA68
:10C5C4004AC8FD26B716004083C7E60203C7E6043F
:10C5D40083D68603116693F7F70F1367370063E575
:10C5E400C600F19B93E71700371400401309700548
:10C5F40023002405930480FA23009404010001001D
:10C6040023020402230024052300940401000100F2
:10C614002307F4022307E40423000404130550024F
:10C624005920B7F700E003A707D11367470023A8F1
:10C63400E7D02300240523009404010001000347EC
:10C64400F40013670704A307E40023002405230070
:10C654009404010001002567B3E9E90023103403C1
:10C6640003A707D15D9B23A8E7D0730050100100F6
:10C67400010081460146814511451D2E23002405F4
:10C6840023009404010001008347640493E7170026
:10C694002303F40423000404F2406244D2444249D4
:10C6A400B24905618280B717004093067005238064
:10C6B400D704130780FA2380E7040100010003C6AE
:10C6C400B7041376F60DA385C704238007041376F5
:10C6D40005024DC203C6A700118A1DE22380D704B8
:10C6E4002380E7040100010003C7A7001367470084
:10C6F4002385E7009307004B01000100FD17EDFFC0
:10C70400B7170040930670052380D704130780FAF7
:10C714002380E704010001007D892394A700010020
:10C72400010001000100238007042380D704238033
:10C73400E7040100010001000100372700409306CF
:10C744001005A303D78023800704B71700401307FD
:10C7540070052380E704130780FA2380E7040100AF
:10C76400010003C7B70413670708A385E704238000
:10C77400070482801376050441C603C6A700418AD4
:10C784001DE22380D7042380E7040100010003C7CE
:10C79400A700136707012385E7009307007D0100C5
:10C7A4000100FD17EDFFB7170040930670052380C5
:10C7B400D704130780FA2380E704010001001376ED
:10C7C400F501136606042394C7000100010001006B
:10C7D4000100238007042380D70413066004238008
:10C7E400E7046318C50001000100372700408946AB
:10C7F40089BF01000100372700409306200591B747
:10C804002380D7042380E7040100010003D78700B5
:10C814001367070C2394E7000DBF411181460146BD
:10C824008145114506C66922B717004013077005F4
:10C834002380E704130780FA2380E7040100010042
:10C8440003C76704136717002383E70423800704DF
:10C85400B240410182808146014681451145892AC1
:10C86400B7170040930670052380D704130780FA96
:10C874002380E704010001007D562396C70223802C
:10C88400D7042380E7040100010003C7670413678A
:10C8940017002383E7042380070401A0BD47330561
:10C8A400F50201007D1575FD8280411122C426C266
:10C8B40006C6AA84014463179400B24022449244F9
:10C8C4004101828005041305803E4204C13F41803A
:10C8D400DDB7B7170040130700032388E702854735
:10C8E400174700002320F70473002030411106C6C7
:10C8F400852DFDBF2303048015472303E480010035
:10C904002302A480828083076480E3CE07FE23038E
:10C914000480828083076480E3CE07FE034544805D
:10C92400828083076480E3CE07FE2302A480828092
:10C93400411126C44AC24EC006C61377F50BAD4753
:10C94400AA892E8995446306F70019456537653F22
:10C954008D444E854537FD59FD1463983401B2402A
:10C96400A244124982494101828013550901137579
:10C97400F50F453F2209CDB7011126CC06CEB704E9
:10C98400080051371545BD37713769372AC6A53FA9
:10C9940032459377150089EB136515001375F50F70
:10C9A400F240E24405618280FD14E9FC0145CDBFFB
:10C9B400397126DC4ADA4ED852D656D45AD25ED0D1
:10C9C40006DE62CE66CCB7E700E07D5783AA070097
:10C9D40022C603AA470023A0E71823A2E718B71723
:10C9E4000040130770052380E704130780FA2380AF
:10C9F400E70483C74704930B75FFB684E20793FBF0
:10CA0400FB0F8546AA892E8B328937240040E187A3
:10CA1400015763FA76016308D500894613070002BB
:10CA24006313D5000157D98F93F7F70FB71C004054
:10CA34002382FC0411472303E4801305F00F5D3DBA
:10CA4400094CD135636D7C11B7050700DA9537873A
:10CA54000700795563F2E504B3879500636EF70226
:10CA6400370B0800A94733EB65016399F90689E49C
:10CA74008144513D26850DA0DA850945553D0509BA
:10CA84000345F9FFFD14050B693D81C49377FB0F42
:10CA9400FDF7DD3569FD7D55B717004013077005B7
:10CAA4002380E704130780FA2380E70403C74704BD
:10CAB400418B2382E704F250B7E700E023A057112B
:10CAC40023A24711E25432445259C259325AA25A4B
:10CAD400125B825B724CE24C21618280A5476395B4
:10CAE400F90685691309F00FB3069900B3742B0195
:10CAF400B6941349F9FFB3749900856B33796901CE
:10CB0400416B9387F9FFB3F7270199E363FC340181
:10CB140093D94900C147E3E637FF99BF0569C16965
:10CB24007D19D9B71305800D6388690113050002C7
:10CB34006384790113051008CA85DD3B353D21DD89
:10CB44004E99B3843441D9B7DA852D45D533CA9487
:10CB5400E30099F205097D3BA30FA9FED5BF938796
:10CB6400F9FF93F7F70F6361FC0C83C71C041307E9
:10CB74003008631FF70437070800636BEB04B3073F
:10CB84009B00B706100063F5D704334BEB008947CD
:10CB94006393F9068980D549E38C04ECDA85094569
:10CBA400413B11090327C9FF91472320E480030770
:10CBB4006480E34E07FE23033481FD17EDFBFD146F
:10CBC400110B81C49377FB0FE9FF7D3371F5E1B558
:10CBD400B717004003C75704B707080013770702C5
:10CBE40019E3B78707007955E378FBEA33079B001D
:10CBF400E3FFE7F855B58547E382F9F2DA852D4579
:10CC0400053B9389F4FFE38504E6293393F7390060
:10CC140091EB832604800327090093074900E39AD4
:10CC2400E6E43E89CE84F1BFB5476396F900130567
:10CC3400900BC93135BDB1471305B00AE38BF9FE3A
:10CC440099476391F904B7050800B365BB002D4506
:10CC5400C53181448D4BA14975396396740183278D
:10CC640004802320F9008504E39834FF832704809B
:10CC740013172B01635507002312F900D5BB232298
:10CC8400F900FDB39D476399F90281451305B0048A
:10CC94004531BD442320090023220900FD599D3953
:10CCA40093F77400CA9703C70700FD14398D2380D6
:10CCB400A700E39634FF6DBBA1476392F9046D3975
:10CCC4008144630D0B008D479304C0036308FB008C
:10CCD4009304000563048B01930440041375C50792
:10CCE400E30895D819453931393905452131268567
:10CCF4000D3909453D314931E31C05D669BB9147DE
:10CD04006399F90013056006F536F53E130590099D
:10CD14000DB7E38F09D4F154A9BB19CD91CD09CE38
:10CD240081473387F500834607003307F5008507FD
:10CD34002300D700E317F6FE828019C991C909CAF6
:10CD4400910583A7C5FF11057D16232EF5FEC5BFEA
:10CD5400828001C919C62A960505A30FB5FEE31DF5
:10CD6400A6FE828081473307F5000307070019E315
:10CD74003E8582808507C5BF01112E8626CAAA84F6
:10CD8400131506019305F004418122CC06CE32C668
:10CD9400EF1040592A8401C53246A685BD3F22853D
:10CDA400F2406244D24405618280854715C18DC139
:10CDB40005C28147B306F5003387F50083C6060034
:10CDC400034707006398E6008507E315F6FE8547E9
:10CDD4003E8582808147EDBF9307F6FFBE952A9674
:10CDE4006313C5008280FD1583C715000505A30FD5
:10CDF400F5FEFDB7AA87014581CF09CE3E9685078A
:10CE040003C7F7FF6317B700E39BC7FE054582809E
:10CE14008280014582807971975700009387473952
:10CE240022D4804306D626D24AD04ECE52CC56CAFD
:10CE34005AC85EC662C45DCC37C9C901814B175A52
:10CE44000000130A6A3B975400009384A436130924
:10CE5400F937975A0000938A6A30B709C0A8370B8C
:10CE640040578357240095E35C44639D0B00175798
:10CE74000000232FF732032CC4002285EF10A057A3
:10CE8400628499A823A6FB00FDB783270A00829732
:10CE9400838664011C4463DB06063307F54063673D
:10CEA400E9089757000023A3072C83552400034562
:10CEB4000400970002E0E780A01C5C405844A9CF1E
:10CEC4001444B6978386640163C5060063E337019F
:10CED400DA971CC4A28B3A8449F4975700009387CD
:10CEE400E7279C4B09476378F706F91717570000A3
:10CEF400232EF726B250225492540259F249624A20
:10CF0400D24A424BB24B224C45618280E377F5F81A
:10CF14003387F9402A9761B763970B00975700004E
:10CF240023A8E72889BF23A6EB00B1B7D85009CFBF
:10CF340063DF06003385A74083A70A016376F50003
:10CF44009757000023A4A722A28B404471B7E3F3B0
:10CF5400A7FECE97C5B79757000023A9072059BF4E
:10CF6400411122C417540000130444221C4006C675
:10CF740026C24AC091C782979757000023A807206A
:10CF84005C4091C382971C406391071C9757000033
:10CF940083C7573E858B9DC797570000A38C073CDA
:10CFA400175700000347373D954763FDE700EF003F
:10CFB40010379757000083C7173CF5178A07A297C5
:10CFC4009C438297175900001309893E8347C9007F
:10CFD400918B99C3EF1060281C4491C38297975496
:10CFE40000009384A41C98401756000003461617AB
:10CFF4009757000083C7871693961700BA9683D66F
:10D004000600D5CA9757000083C7471563EFC70AC0
:10D0140097570000238407141C40639807129757FE
:10D02400000083C7773591CF9757000083C7B73483
:10D0340089EB97570000A3810734976003E0E780EA
:10D0440040B1975700009387271B9C43638F070EBB
:10D05400B707C0A817570000232AF7106D3B97574E
:10D06400000093872715DC53EDC3175700001307FF
:10D07400E70E184B9757000083C717156367F70C23
:10D08400175700000347372F954763E0E70C8347A2
:10D09400C900918BDDEB90409756000083C6160CB7
:10D0A40063CBD70A2244B240924402494101170398
:10D0B40002E0670003DA850793F7F70F975600003D
:10D0C400238EF608E3E6C7F235BF86073E978355FD
:10D0D400070023100700975700002397070C975762
:10D0E40000009387670A9C43175500000345050712
:10D0F40013172500BA979C4382979757000083D74C
:10D10400A70A175700000347670593C7F7FF7D8DEC
:10D114009317170098403E97835707005D8D23109F
:10D12400A7009757000083C7670391C78507175760
:10D1340000002305F70217570000034727029757FB
:10D14400000083C7B701E375F7ECB2402244924470
:10D154000249410182801397170032970357070051
:10D164006DF7850735BFAD6737C70040BD07232678
:10D17400F7200F10000097570000938727FEC84F31
:10D1840083278726BD66BD0693C7F7FF99836A0583
:10D194002326D7205D8D82804111B7170040985F08
:10D1A4003AC6945F3247E39CE6FE324541018280F1
:10D1B40082800327851163000712411122C406C629
:10D1C4008347C5008345C5042A8493F7C70F230604
:10D1D400F500834697000356C700139586016185C1
:10D1E40063F1C508635A05060345870093F6F607FD
:10D1F400A304D700054693E627006314C50093E60D
:10D2040017002306D4005C4389075CC3A30AB40057
:10D21400032504112E864C43090501368327841106
:10D2240003465401D44303D7C700B296118FD4C325
:10D234002396E7008947A30DF40003474403975757
:10D24400000083C747F86378F7048347C40093E773
:10D2540007012306F40081A093E717002306F400D6
:10D2640075B79376F60F635D050203458700854520
:10D2740013E627006314B50013E617002306C40061
:10D28400A30AD400A30407008547A30DF400832751
:10D2940084119C43DDF3B240224401454101828064
:10D2A40093E717002306F400A30AD400A30407009D
:10D2B400032504114C4309058D3483278411034647
:10D2C4005401D44303D7C700B296118FD4C3239615
:10D2D400E7008D475DBF054582809757000093871F
:10D2E400A7079C43411122C406C6858B2A84C5EF37
:10D2F4004165130525F5970003E0E780E09845C5EF
:10D304008347A5002315F50083270412BDE72320D6
:10D31400A4122322A41285472310F4042320050019
:10D324008347640154412316F5000347D4002304C2
:10D33400E5000547A304E50017570000130747035A
:10D34400184F1385170215811C437D151375F50FAE
:10D354009CC25C43DCC21C479CC65C47DCC61C4BBD
:10D364009CCA5C4BDCCA1C4F9CCE5C4FDCCE19CDF6
:10D374009386060213070702C1BF8327441288C39A
:10D38400835704042322A412850779B79757000012
:10D3940083D7470B8507175700002315F70AB240B8
:10D3A4002244410182808347C400230904000545C7
:10D3B40093C747002306F400DDB78347850193F73D
:10D3C400E70FD5EF83479501DDEB0346250183463F
:10D3D400C50009CA83454503175700000347B7DE54
:10D3E40063E7E50013F7060141CF014709C6C18A87
:10D3F4000357651C81C68356A51C369751C3130772
:10D40400C712175500000355E5D7B335A7023746B1
:10D414000F00411113060624814622C426C206C603
:10D424007D543305A702970004E0E780E0B49757E2
:10D43400000083C7B7D9B384A70097570000938728
:10D44400E7FF03A707098327070963F387003E84DF
:10D45400184375FB97570000938707DA9C4382971C
:10D4640081476364A400B307A440B2402244B3B725
:10D47400970093C7170092443E85410182808147FB
:10D484003E858280797126D206D622D44AD04ECEE9
:10D4940052CC56CA5AC85EC6834735030344751333
:10D4A400AA843E941374F40F9307400263F6870032
:10D4B4001304B4FD1374F40F03AA841383AAC413CE
:10D4C400A38B841222865285D685970004E0E780D8
:10D4D40020A5058915E503CBD41201498149337B85
:10D4E4006403930B50024A865285D685970004E064
:10D4F400E78000A3058915C5639169031374F90FC7
:10D50400238B8412B250225492540259F249624A33
:10D51400D24A424BB24B456182808509E20993D9D4
:10D5240089410509E31179FDE1BF83278509035684
:10D53400E503797193D60701BD8EC206C182358E8B
:10D544001357764093575640898B058B5D8F9357BD
:10D554003640918B5D8F93571640A18B5D8F931747
:10D564001600C18B5D8F9317360093F707025D8F0A
:10D57400931756009355860093F707041E065D8F94
:10D584001376F60F518F93D7554013D63540118A31
:10D59400898BD18F13D67540D18F13D61540218A2C
:10D5A400D18F13961500418AD18F139635001376C7
:10D5B4000602D18F13965500137606049E05D18F6B
:10D5C40093F5F50FCD8FA20745465D8F3307C7024C
:10D5D40022D42A8426D252CC56CA032A8413832AFC
:10D5E400C4135AC806D636974207418393577740E7
:10D5F400135557400989858BC98F135537401189B5
:10D60400C98F135517402189C98F131517004189F4
:10D61400C98F1315370013750502C98F13155700E9
:10D6240093558700137505041E07C98F1377F70FE9
:10D63400D98F13D5354013D755401189098B498F9C
:10D6440013D57540498F13D515402189498F1395FA
:10D6540015004189498F1395350013750502498FCB
:10D6640013955500137505049E05498F93F5F50F21
:10D674004D8F2207D98FB387C7024AD04ECE5EC6DC
:10D6840062C4B697C207C18313D7774013D55740F6
:10D694000989058B498F13D537401189498F13D5D3
:10D6A40017402189498F139517004189498F139594
:10D6B400370013750502498F1395570093D58700DA
:10D6C400137505049E07498F93F7F70FD98F13D568
:10D6D400354013D755401189098B498F13D57540AF
:10D6E400498F13D515402189498F13951500418918
:10D6F400498F1395350013750502498F139555000D
:10D70400137505049E05498F93F5F50F4D8F220778
:10D71400D98FB387C702130650025285D685B697B0
:10D72400BD8E93940601C18033F6C402137BF60FB9
:10D7340097F003E0E780C07E05890DED8347D4129E
:10D7440001498149B3849702130C5002C1804A866F
:10D754005285D68597F003E0E780807C0589937B2A
:10D76400F90F11C563863403850993F9F90F050987
:10D77400E31F89FD230B6413B250225492540259BF
:10D78400F249624AD24A424BB24B224C45618280F2
:10D794005E8BCDB7011197570000938727CA22CC1F
:10D7A40003A4470B26CA06CE2AC42EC6854419E410
:10D7B4000145F2406244D24405618280834791006E
:10D7C40003471400858B6304F7000044CDB7194662
:10D7D4009305A10013052400EFF02FDDE31795FE58
:10D7E4000545C1BF011122CC17540000130404BA2B
:10D7F40018402AC62EC432C206CE3C4B93F7F7F724
:10D804003CCB975003E0E7808031184097560000E6
:10D81400938606B53C4B93E707083CCB9C423245C4
:10D82400A24523A00700034715000348250022074B
:10D8340042084297034805004297034835006208AE
:10D84400429798D7034755000348650022074208CA
:10D85400429703484500429703487500620842977F
:10D86400D8D7034795000348A500220742084297EA
:10D874000348850042970348B5006208429798DB45
:10D884000347D5000348E5002207420842970348AE
:10D89400C5000345F500429762052A97D8DB03C704
:10D8A400150003C52500220742052A9703C5050074
:10D8B4002A9703C5350062052A9798CF03C75500F8
:10D8C40003C56500220742052A9703C545002A9728
:10D8D40003C5750062052A97D8CF03C7950003C511
:10D8E400A500220742052A9703C585002A9703C588
:10D8F400B50062052A9798D303C7D50003C5E50090
:10D90400220742052A9703C5C50083C5F5002A9757
:10D91400E2052E97D8D3D843759BD8C3D843136751
:10D924001700D8C398431367170098C31246984248
:10D934005C43858BD1E71C4F01452300F6009C42D4
:10D944009C4FA183A300F6009C429C4FC1832301FA
:10D95400F6009C429C4FE183A301F6009C42D84F01
:10D964002302E600D84F2183A302E600D84F418367
:10D974002303E600D84F6183A303E60098532304EE
:10D98400E60098532183A304E600985341832305BA
:10D99400E60098536183A305E600D8532306E60006
:10D9A400D8532183A306E600D85341832307E60016
:10D9B400DC53E183A307F600F240624405618280F0
:10D9C4000100B5B7175700001307C7991443411155
:10D9D40022C49C5E4AC006C6998326C2858B3A84BB
:10D9E400175900001309C997D1CB9C5E97540000C6
:10D9F4009384049893F7F7F99CDE175700000347C4
:10DA0400879793070008631BF700832709009C434B
:10DA140093F7070417570000230FF79483C70400F4
:10DA240093F707049DC3974700009387E77C9C43C3
:10DA340082979757000023A5A79483C7040093F700
:10DA4400F70B175700002305F79283C7440093F799
:10DA540007048DE7854717570000A30DF7909757E4
:10DA640000009387A7929C43096798C7130700FC9B
:10DA7400975600002380E690D844F8D31C40985F62
:10DA84001183058B09CB985F3D9B98DF054797561B
:10DA940000002381E68E985F1D83058B11CB985F70
:10DAA4001377F7F798DF8547175700002304F78C9F
:10DAB40083270900D8430583058B19C7D843759B71
:10DAC400D8C3D843799BD8C3B24022449244024974
:10DAD40041018280397106DE16DC1ADA1ED82AD694
:10DAE4002ED432D236D03ACE3ECC42CA46C872C6C2
:10DAF40076C47AC27EC0F935F250E2525253C25310
:10DB04003255A255125682567247E2475248C248CD
:10DB1400324EA24E124F824F21617300203097572C
:10DB240000009387A7869443975700009387478400
:10DB340003C70700058B11CB97570000238C07827E
:10DB440097570000A3880782828003C71700058BBC
:10DB540065F7F85271FF83C75700DDB71758000007
:10DB640013084880032708001C5F9583858BD1E741
:10DB740009C61C5BBD832300F60085CA8327080001
:10DB8400985B4607935767016356070093E707C0FE
:10DB9400C207C18303970600C207C18709C7BA97A2
:10DBA4000947B3C7E7022390F60085CD83471500E4
:10DBB4008DCB9746000083C6067C93F60604138734
:10DBC400970089478DCA3A950347050085469947CA
:10DBD4001376F7066311D60262076187B947634C6F
:10DBE4000700832708009C5FED838D8B1747000097
:10DBF400A305F77881473E8582808547EDBF4111B3
:10DC040022C406C61744000013044478184049E9A6
:10DC1400AE877453FDFE3E85B28597470000238A84
:10DC24000774975003E0E78080C597470000938707
:10DC340067739C43B70680009843558F98C3D857A1
:10DC4400719BD8D797470000A386077297470000B7
:10DC5400A38007721C40094798C3B7F700E003A7E5
:10DC640007D16D9B23A8E7D003A707D15D9B23A809
:10DC7400E7D0730050101440174700001307476F94
:10DC840083472700858B89EB83473700858BD9C76A
:10DC9400974700002380076EB240224441018280EE
:10DCA4008D476310F502974700009387A76B9C4349
:10DCB400B70680009843558F98C3D857719BD8D71F
:10DCC4005DBF8547E319F5FAB567BD075CC70F105B
:10DCD40000001C400967094698C7130700F89746D7
:10DCE40000002389E668174700001307A767144359
:10DCF400984231830D8B6319C7001307E043F8D3AF
:10DD04003D673D07D8C785BF984231830D8B01E736
:10DD140013076019EDB71307E01BD5B7FC52ADF339
:10DD2400A5BF5D7152DC174A0000130AAA630327DA
:10DD34000A0086C6A2C4A6C2CAC04EDE1C439749C6
:10DD4400000093896969174900001309296493F74E
:10DD5400F7E793E707081CC383A609003707CEFF3C
:10DD64007D179C46130680022A84F98F9CC683275C
:10DD74000900130700082800B8CBAE8493051008E7
:10DD8400EFE03FFD975003E0E78060D9975003E050
:10DD9400E78060E683270A009376F41F370FFCFFC1
:10DDA40023A40700984B4E88CA881367F70398CBBF
:10DDB400F84F130510F8D285137707E0558FF8CF85
:10DDC4009843F576FD16758F98C39843B7063300CC
:10DDD400B70204001377F7E798C398439303401FEF
:10DDE4007D1F1377F7E71367071098C303A709008C
:10DDF400930F800285491C47D58F1CC783270900D0
:10DE04001307900D3400B8CB114901471353370061
:10DE140026938347030013767700B3D7C740858BD7
:10DE2400DDCF9C41832E0800239C07042390070622
:10DE340003AECE02137EDEFF23A6CE0383AE07001D
:10DE4400137EF70793FE0EF833EECE0123A0C7012D
:10DE540003AE4702336E5E0023A2C70383AE0800FD
:10DE6400014E23A27E0603DA070663074E0303AEC0
:10DE74000703038A0600135EFE00620E135E8E41E2
:10DE84006358CA0103AE0703135EFE002380C60174
:10DE940003DE0706137EFE0F03AA4E0663060A007E
:10DEA40003DA8705E37F49FB03AE4702337EEE01C5
:10DEB40023A2C70383870600635CF400034E0300B8
:10DEC4003396C9001346F6FF3376C6012300C30018
:10DED4003E8663D3A7002A8613158601618505074C
:10DEE4001377F70F8506E313F7F3B64026449644F9
:10DEF4000649F259625A616182809746000093860E
:10DF0400E6489C42D8471316170163550602984702
:10DF140013161701635006027D57B8D71747000040
:10DF24001307C723584F0507174600002326E62486
:10DF3400116798C798470D83058B1DC317470000C9
:10DF44000347274313671700174600002303E642DD
:10DF5400130700F817460000230EE640214798C730
:10DF64009847058B09CF174700000347774013678D
:10DF7400170017460000A30DE63E054798C79847CB
:10DF84000983058B09E798470583058B31CF9847AB
:10DF9400174600001306C63D174500001305853CCF
:10DFA4000983058B630307101841184331830D8BD4
:10DFB40075EBAC4B184E93F5050203471700CDCD16
:10DFC40079EF13077006D8CF0347060013671700CD
:10DFD40017460000230EE638114798C718415C57CE
:10DFE400F19B93E717005CD79C429847931637013F
:10DFF40063D606029746000083C6864BC18A17473C
:10E0040000001307A743C5CE03474707136707025A
:10E0140097460000238EE648056798C798479316ED
:10E02400270163D10602174700000347A73462079C
:10E03400618763570700054797460000238CE63243
:10E04400096798C798479316070163D6060297464F
:10E05400000083C6F645858A174700001307073E6C
:10E06400ADCE034757071367270097460000A381E7
:10E07400E644216798C7828029D785456315B70090
:10E084001307B00689B789456315B7001307F0066F
:10E094001DBF8D456315B700130730072DB7130750
:10E0A400500715B71307600739BF034736001367D6
:10E0B400170017460000A30EE62A094739BF834616
:10E0C40047070946BD8A6388C600034747078D464C
:10E0D4003D8BE313D7F4114725BF83465707918A35
:10E0E400C9DA034757071367870041B7397106DE5A
:10E0F40016DC1ADA1ED82AD62ED432D236D03ACE2C
:10E104003ECC42CA46C872C676C47AC27EC0F533D3
:10E11400F250E2525253C2533255A255125682560D
:10E124007247E2475248C248324EA24E124F824FC3
:10E1340021617300203017470000130767258346C9
:10E14400B7019747000083C777274C4BB697FD8BE1
:10E1540033D7F50097460000A38CF62297460000BB
:10E16400A38EF624058B15EF1747000003475725A8
:10E17400B3F7E702814601471305000233D6E500F1
:10E18400058A1378F70F19CA6397D70097470000D9
:10E19400A38007218280850693F6F60F0507E31F07
:10E1A400A7FC828097470000938707059C430111D1
:10E1B40022CC4EC606CE26CA4AC852C456C282973C
:10E1C400974700009387C71E804781496305A406CB
:10E1D400BE84974700009387E7FD038767013E8964
:10E1E40063550706018D135455009747000083C7F4
:10E1F400C71B9379F501636DF402370AC0A8B70A07
:10E204004057153F9C449746000083C6061A13974F
:10E2140056003E9783076901158C63C50700636345
:10E22400470156979747000023A8E718E37BD4FCDF
:10E234001604B3693401F24062444E85D244424923
:10E24400B249224A924A05618280E37D85F8B70784
:10E25400C0A833848740229579B7974700009387F5
:10E26400A7F99C43411122C406C626C28297974748
:10E2740000009387E71380476309A406BE84974789
:10E284000000938727F38387670163D80704018D10
:10E29400135455009747000083C727116367F4049C
:10E2A400593D98449747000083C727109396570019
:10E2B40036971D8C9746000023A0E610E372F4FE07
:10E2C4002244B2409244174500000345750C814531
:10E2D4004101175303E0670023D9E37A85FAB707AE
:10E2E400C0A833848740229565B7B2402244924443
:10E2F40041018280974700009387070E9843B757E0
:10E3040002009387079F83260709139656006358D4
:10E314000600832607091396660063440600FD176A
:10E32400FDF3828071C5AA870145E9C58D07C2073F
:10E33400C183F19BC207C18313074003636FF702D4
:10E34400174700001307470F084317470000130738
:10E35400270E14436398A60217470000130787E5A6
:10E36400185B014541CB4111C20706C60545DD8D49
:10E374000297B2400145410182801747000013070C
:10E38400670BD9B70357650035E303574500636F3F
:10E39400F704B306F7402146637CD6020328050040
:10E3A400938687001D8FAA966117174600000356AF
:10E3B40046DB2392E60023A006012393060014C142
:10E3C4002312F500130786FF97460000239BE6D827
:10E3D4002313B5009745000083D5A5D8B387F5402E
:10E3E40017470000231FF7D62105828008419DB7F7
:10E3F4000145828082800DC1974700009387C7033F
:10E4040003A30700974700009387870283A80700A8
:10E4140081469A8763E31701828003A80700636D2E
:10E42400F50A636BA80A13878700E367E5FE03D642
:10E434006700216705076317E60003C7019805070E
:10E444002380E19897450000938545D103D6470082
:10E4540003D765002393070032974207418317458A
:10E4640000002310E5D0638A6702174500001305F6
:10E4740065FC08416303F50203D5660019ED83D7F3
:10E48400460023A0060121073E9621062392C600DA
:10E49400974700002397E7CCB6879843E30E17F716
:10E4A40097460000938606F99442E307D7F683560D
:10E4B4006700BDF283D64700035647001843A10600
:10E4C400B2962392D70098C383D76500A107174754
:10E4D40000002318F7C88280BE86C28725BF0111B9
:10E4E40097470000938787F522CC03A4C70B26CA5D
:10E4F4004AC84EC606CEAA8413092500854915C00C
:10E5040083C7140003473400858B6304F700405C21
:10E51400FDB71946930544004A85EFE01F89E318C7
:10E5240035FF2285F2406244D2444249B249056132
:10E534008280411197470000938747F022C403A4C7
:10E54400C70B26C24AC006C693042500054901E844
:10E554002285B24022449244024941018280A68528
:10E564001305A40297E003E0E780C050E30225FF0F
:10E57400405CF1BF411197470000938727EC22C408
:10E5840003A4C70B26C24AC006C693042500054946
:10E5940001E82285B240224492440249410182802A
:10E5A400A6851305A40197E003E0E780A04CE302ED
:08E5B40025FF405CF1BF0000EF
:10E5C0009751FF1F938101B717A1FF1F130181A36B
:10E5D00017E5FFFF130545A39725FF1F938585A228
:10E5E0001746FF1F130686FD63FAC5008322050048
:10E5F00023A0550011059105E3EAC5FE17E50300C8
:10E600001305050F9745FF1F938545FB138601866C
:10E6100063FAC5008322050023A05500110591056A
:10E62000E3EAC5FE138501869785FF1F938505F3F1
:10E630006377B500232005001105E36DB5FEFD42AB
:10E64000739002BC8D4273904280B7220000938287
:10E65000828873A002309722FF1F9382A29A93E2CE
:10E6600032007390523097F200009382A2BC7390F4
:10E670001234730020303D432A876373C3029377BB
:10E68000F700BDEFADE5937606FF3D8ABA960CC361
:10E690004CC30CC74CC74107E36BD7FE11E2828025
:10E6A000B306C3408A069702000096966780A600CC
:10E6B0002307B700A306B7002306B700A305B700DA
:10E6C0002305B700A304B7002304B700A303B700D2
:10E6D0002303B700A302B7002302B700A301B700CA
:10E6E0002301B700A300B7002300B700828093F591
:10E6F000F50F93968500D58D93960501D58D61B75D
:10E70000939627009702000096968682E78086FA05
:10E710009680C1171D8F3E96E374C3F8A5B7336783
:10E72000B500FD530D8B79E7B7877F7F9387F7F7A8
:10E7300010419441B372F6003363F600BE92B3E227
:10E7400062006397720C6318D6065041D441B372CD
:10E75000F6003363F600BE92B3E262006398720A79
:10E76000631BD60410459445B372F6003363F6007C
:10E77000BE92B3E262006391720A631ED6025045F4
:10E78000D445B372F6003363F600BE92B3E2620082
:10E79000639A72086311D60210499449B372F60065
:10E7A0003363F600BE92B3E26200639372085105D0
:10E7B000D105E30FD6F61317060193970601631CE4
:10E7C000F7001357060193D706013305F7409375F9
:10E7D000F50F91E982804183C1833305F74093753A
:10E7E000F50F91E182801377F70F93F7F70F330559
:10E7F000F74082800346050083C6050005058505B0
:10E800006313D60065FA3305D64082801105910561
:10E81000E312D6FE014582802105A105E31CD6FC4A
:10E82000014582803105B105E316D6FC01458280A1
:10E830004105C105E310D6FC014582800147114620
:10E840004148B386E5008147B308F50083C8080056
:10E850008507C10623A816FFE398C7FE1107110517
:10E86000E31107FF8280935785019CC193570541AF
:10E8700093F7F70FDCC19357854093F7F70F1375A4
:10E88000F50F9CC5C8C582801C41411113070501C5
:10E890003EC05C413EC21C453EC45C453EC69397AB
:10E8A00025001408B69783A707FF85051105232EB9
:10E8B000F5FE8D89E315E5FE41018280397122DC88
:10E8C00041661384419F06DE26DA4AD84ED652D4DA
:10E8D00056D25AD05ECE93050501A2863708FF00B6
:10E8E0007D1683070500034735001105E207D98F20
:10E8F0000307D5FF9106420733770701D98F030736
:10E90000E5FF2207718FD98F23AEF6FEE39BA5FCAE
:10E9100081499144930A0101179B0300130B8B3328
:10E92000979B0300938B8B30130AC00293F734003C
:10E93000032904004844BDE78A85353785450A85A3
:10E94000A1370A871C43110793F6F70093F7070FC7
:10E95000DA97B69783C70700232EF7FEE394EAFE03
:10E96000024592476205C2075D8DB2475D8DA247A1
:10E97000A2075D8D93972900DE979C4385093D8D05
:10E980003345250108C885041104E39144FBF25086
:10E990006254D2544259B259225A925A025BF24BF3
:10E9A000216182803345A90008C8F1BF797122D462
:10E9B00026D24AD04ECE52CC56CA06D62A8A93992F
:10E9C00045000144938A419F13090101C144B307E3
:10E9D0003401D69788438A85793533078A008A8738
:10E9E0001443904391074107B18E2328D7FEE39942
:10E9F00027FF1104E31D94FCB25022549254025993
:10EA0000F249624AD24A45618280397122DC13049C
:10EA1000050106DE22878147C1460C433306F1001B
:10EA200011070CC24C4710083E960CC24C4F1010F8
:10EA30003E960CC29107E392D7FE85450A85A9351B
:10EA40008945080891358D4508103D3D814741476E
:10EA5000B306F10094421104232ED4FE1408BE968E
:10EA6000944254C41410BE969442910754CCE3913E
:10EA7000E7FEF2506254216182800605937705100B
:10EA800089C71375F50F1345B5018280411106C67C
:10EA9000ED37B2404101D5B781471148C1483386AF
:10EAA000F500B306F500014703AE06003303E600A8
:10EAB00005072300C301C106E31807FF9107E39090
:10EAC00017FF828093060501179603001306862818
:10EAD00013050505138706FF1C43110793F5F7007F
:10EAE00093F7070FB297AE9783C70700232EF7FE61
:10EAF000E394E6FEC106E31FD5FC82801C41411170
:10EB0000FD563EC05C413EC21C453EC45C453EC60F
:10EB10008D47B385B7409307C500139725001008AC
:10EB20003297032707FFFD1598C36393D5008D45E2
:10EB30001387C7FF6314F50041018280BA87F1BFD4
:10EB4000397122DC1304050106DE22878147C146A4
:10EB50000C433306F10011070CC24C4710083E96D7
:10EB60000CC24C4F10103E960CC29107E392D7FE98
:10EB700085450A8561378945080849378D4508105C
:10EB8000B53F81474147B306F10094421104232E5B
:10EB9000D4FE1408BE96944254C41410BE969442F7
:10EBA000910754CCE391E7FEF250625421618280D8
:10EBB00093060501179603001306C60913050505FC
:10EBC000138706FF1C43110793F5F70093F7070F10
:10EBD000B297AE9783C70700232EF7FEE394E6FEB5
:10EBE000C106E31FD5FC8280411122C406C626C29D
:10EBF00085472E846301F50289476318F500224496
:10EC0000B24092442E8541018DBD8D47631BF500B6
:10EC10002E85A535298C2285B2402244924441019B
:10EC20008280A5476315F5002E858D35DDB7AD478C
:10EC3000631AF5002E85993D8935AA842285353DD4
:10EC4000258DC9BFB5476316F5002E858135AA8489
:10EC5000FDB7B947E311F5FC2E850D3DAA84313D82
:10EC6000A98C2285193D3344950075B7597186D614
:10EC7000A2D4A6D2CAD0CECED2CCD6CADAC8DEC6EC
:10EC8000E2C4E6C2930605040A87AA879043C10737
:10EC900041072328C7FE03A647FF232AC7FE03A672
:10ECA00087FF232CC7FE03A6C7FF232EC7FEE39FC3
:10ECB000D7FC179903001309E91D130A05019309ED
:10ECC0000505832C0900032C4900832B8900032BA5
:10ECD000C900930A0AFF8A848C406685910A293705
:10ECE0008C482A84628509378C50298C5E85ED3DDD
:10ECF0008C58298C5A85CD3D218D23AEAAFE9104D6
:10ED0000E31C5AFD410A4109E39D49FBB6502654D4
:10ED100096540659F649664AD64A464BB64B264C97
:10ED2000964C656182806382051493F7F500639EBB
:10ED300007121571D6C3AA8A3285A2CDA6CB86CF7B
:10ED4000CAC9CEC7D2C5DAC15EDF62DD66DB6AD969
:10ED50006ED73284AE84EF50F310C147631EF500C6
:10ED60002285A93E0149130A0106979B0300938B54
:10ED70006B12294C63419902FE406E44DE444E49B9
:10ED8000BE492E4A9E4A0E4BFA5B6A5CDA5C4A5DCB
:10ED9000BA5D2D618280338B2A010C105A85793C33
:10EDA0008145081021318549081019350810B139FD
:10EDB0001C10D2863E8710434107C10623A8C6FE19
:10EDC000032647FF23AAC6FE032687FF23ACC6FE01
:10EDD0000326C7FF23AEC6FEE31FEAFC1797030016
:10EDE0001307470703280700832D4700032D8700DB
:10EDF000832CC7005284138607010C4042853ECE07
:10EE00003ACC32CA42C8CD330C482AC66E85E93B9B
:10EE1000B2460C501104A98E6A8536C6F133B2464B
:10EE20004C54A98E668536C6C133B246F247524667
:10EE3000358D88C3910742486247E310F6FC4107CD
:10EE4000B287E391EBFACE85081085098536E39DFC
:10EE500089F50810B13B08104D3EA9450810B93698
:10EE6000DA8508101539410931B78280638D0510A4
:10EE700093F7F500639907105171CECFAA893285B7
:10EE8000A2D5A6D386D7CAD1D2CDD6CBDAC9DEC712
:10EE90003284AE84EF50037DC1476319F5002285AB
:10EEA000313C0149138B419F634D9900BE502E5454
:10EEB0009E540E59FE496E4ADE4A4E4BBE4B6D6162
:10EEC0008280338A29018C0052858D3AA9458800B9
:10EED000F13C138441A8C14A930B00048800DD363D
:10EEE0008800B9398800593308408A85AD3A4840CE
:10EEF0000C08953A08440C10BD3248440C18A53251
:10EF000018018147B306F100944241072328D7FE38
:10EF10001408BE969442232AD7FE1410BE9694423B
:10EF2000232CD7FE1418BE9694429107232ED7FEA9
:10EF3000E39A57FD08011D3B01479C003385E7001C
:10EF40001C01B305F70081473306F5003388F5004F
:10EF50001442032808009107B3C6060114C2E395C2
:10EF600057FF4107E31B77FD4114E31964F788005D
:10EF7000913E8800F136814588000D3CD28588009D
:10EF8000213E410915B782809307F00F6385F60A89
:10EF90002D71232A911023282111B28423263111A7
:10EFA000130600102E89AA89930530020A85232EA4
:10EFB0001110232C81103684EFF0EFEBA28526850B
:10EFC000EFA0B06413178500935785003365F700F1
:10EFD0002310A100A6852286130531009304340076
:10EFE0002301810093F4F40FEF40B31093F6F40083
:10EFF00089C64D04158C9374F40F1C02A697A68540
:10F000000A85179603001306A6EE238007F0213B1E
:10F0100026868A854E85EF40D30D230099008320F4
:10F02000C111032481118324411103290111832972
:10F03000C110156182808280797122D432844AD0D5
:10F040004ECE2A89AE892285B6851796030013060F
:10F0500026EA26D252CC06D636C6093DB246130A57
:10F0600034005285A296238006008344040083471F
:10F07000140083452400A204DD8CEFA01059639A8C
:10F08000A40203462400D2854A852380C900EF509C
:10F0900043612545979503009385C5E3EFA0B05ADA
:10F0A0000545B250225492540259F249624A4561D0
:10F0B00082802380090025452300090097950300DD
:10F0C000938505E2EFA030580145E1BF130101DD52
:10F0D0002E86AA85681823261122EFB04021130539
:10F0E000D103EF50235893150501C1811305D103B6
:10F0F000EFB0402E979503009385C5091305D10302
:10F10000EFA070701DC10545979503009385050913
:10F11000EFA070531755FF1F0345C57CEF50C05932
:10F120008320C122130101238280979503009385D8
:10F1300025081305D103EFA0106D19CD9795030095
:10F14000938585070545EFA010501755FF1F034510
:10F150006579EF502059E9B7979503009385C50667
:10F160001305D103EFA0306A0DC137170040832784
:10F17000C70AA1669795030093858505D58F232639
:10F18000F70A2545EFA0304C61BF979503009385A2
:10F19000E5041305D103EFA0106711CD3717004028
:10F1A0008327870AA166979503009385A503D58FCA
:10F1B0002324F70AF9B797950300938525031305D0
:10F1C000D103EFA0506411CD371700408327C70A41
:10F1D00091669795030093852502D58F2326F70A1C
:10F1E0004DB797950300938525021305D103EFA032
:10F1F000906111CD371700408327870A9166979554
:10F20000030093852501D58F2324F70A9DBF979589
:10F210000300938525011305D103EFA0D05E9795D8
:10F2200003009385E50031FD979503009385050163
:10F230001305D103EFA0305D979503009385C500BA
:10F2400029F1979503009385E5001305D103EFA0FD
:10F25000905B11C59757FF1F23A4076AD1B59795F7
:10F2600003009385E5FF1305D103EFA0D05901C535
:10F27000EF50103475B597950300938525FF13055E
:10F28000D103EFA0505801C5EF50B03951BD97954B
:10F290000300938565FE1305D103EFA0D05601C589
:10F2A000EF50A076B5BD979503009385A5FD130596
:10F2B000D103EFA0505501C5EF80603B95B5979500
:10F2C00003009385A5FC1305D103EFA0D05301C51E
:10F2D000EF80403AB1B5979503009385A5FB1305E0
:10F2E000D103EFA0505201C5EF80203915BD97B56D
:10F2F0000300938525131305D103EFA0D05001C55A
:10F30000EFA0203231BD97950300938565F9130571
:10F31000D103EFA0504F29C1130600038145130507
:10F32000A100EFF04FB5F5779387A7EB13076020A7
:10F330002314F1002316E10091471307206039469A
:10F340002C001385416AA305F1002319E100230A6B
:10F35000F100EF701032E9B30346D103A54713065D
:10F3600006FD1376F60FE3EDC7DA97950300938554
:10F37000A5F39757FF1F238FC756EFA090414DB3BA
:10F38000411106C6EF700014B240AA861797030019
:10F39000130707BC1756FF1F130656B597950300B2
:10F3A000938585BC114541016FA0B03E317122DDCE
:10F3B0004AD906DF26DB4ED752D556D35AD103475A
:10F3C0000500930710042A892E846316F73A034731
:10F3D0001500930740056310F73A0347250093078C
:10F3E000E005631AF7382E86AA852545EFA0103070
:10F3F0001306D003A2854A85EFA03047AA84635A3A
:10F4000005003546A2854A85EFA03046AA846345AB
:10F4100005089389D4FF9307100363CF37074E86FF
:10F42000930539006808EF50C3271C11BE99179A3D
:10F430000300130AAACC238E09F6D28A81494D4BC8
:10F4400083254A006808EFA0103C0DC18E09D699AB
:10F4500083D709004947636FF70017970300130725
:10F4600067AA8A07BA979C43BA9782878509210AB7
:10F47000E39869FD97950300938585C725455DA0B1
:10F480009305F4FF858D13851400C205814601465E
:10F49000C1814A95EF20D053FA506A54DA544A5940
:10F4A000BA592A5A9A5A0A5B296182809305F4FF55
:10F4B000858D13851400C205C1814A950139E9BFC4
:10F4C0001306F4FF058E13851400420641829795BA
:10F4D00003009385A5654A95EFA090461754FF1F3A
:10F4E0001304843F39C18357040097950300938523
:10F4F000E5A8880893E717001757FF1F231EF73C5E
:10F50000EF5023158808EF50E315131605018C08FA
:10F5100041821385416AEF70D0159795030093855A
:10F52000A5A71145EFA0301285BF979503009385DD
:10F5300065A78808EF50E3118808EF50A31213164F
:10F5400005018C0841821385416AEF709012835740
:10F550000400979503009385A5A6F99B1757FF1FF5
:10F56000231CF7367DBF293D05BF1306F4FF058E2A
:10F570001385140042064182979503009385055B2D
:10F580004A95EFA0F03B1754FF1F1304E43431C534
:10F5900097950300938585A38808EF50830B88080F
:10F5A000EF50430C1316050141828C081385416A04
:10F5B000EF70300C97950300938505A41145EFA0DB
:10F5C000900883570400414593E717001757FF1F22
:10F5D0002314F730EFB0803DC1B5979503009385B4
:10F5E00065A21145EFA0300641657D15EFB0E03E04
:10F5F00083570400F99B1757FF1F231FF72C69BD82
:10F60000EF60F0699757FF1F9387072DC85FEF40A2
:10F610006302AE862A86979503009385659F114500
:10F62000EFA0301795BDEF50E028BDB51796030049
:10F6300013064650979503009385459E1145EFA00C
:10F64000501599BDEF60906B979503009385C59D0C
:10F65000E31905EC979503009385059ED9B53545CB
:10F66000EF701076AA84EF30F37C2A86AE862545AB
:10F67000979503009385859DEFA0B01197970300A0
:10F680009387878F8843A6851744FF1F1304047C44
:10F69000EF30F30F2322A428EF60B0700325442835
:10F6A000EF305379AE862A86979503009385C59AE5
:10F6B000BDB781450D45EF50605CEF60F05F2A8675
:10F6C000979503009385059C95BF81453145EF5083
:10F6D000E05A81453945EF50605A81453545EF5034
:10F6E000E059EF60D05D2AC6EF60305EB2462A87EF
:10F6F0001746FF1F1306967F9795030093858599FC
:10F700001145EFA0100949BB1757FF1F0357E79B8F
:10F710009746FF1F9386D67E1746FF1F1306167D5A
:10F720009795030093854599E1BF85471757FF1FBC
:10F730002309F79AEF60F066979503009385059982
:10F74000CDB31757FF1F0347C79985479795030008
:10F7500093854598E317F7DCC5B79757FF1F938745
:10F76000A717885FEF30136DAE862A869795030042
:10F770009385C5966DB50146A2854A85EF50403206
:10F7800021BB411122C4216493050480994601469E
:10F79000254506C69710FF1FE780C021930504800A
:10F7A0002244B24099461386018629454101171328
:10F7B000FF1F6700232099E10145828075DD01115B
:10F7C00052C403DA418626CA93548A008504A204EF
:10F7D000C204C18056C2B38A4441C20A22CC4AC87C
:10F7E0002E862E842A8997950300938565C7254523
:10F7F00093DA0A014EC606CE93890186EFA060799E
:10F8000063ED8A0883D5418693F7F50FB1CF8D67F5
:10F8100083D5418693870780A2864A86BE9529456F
:10F820009710FF1FE78000191375F50F29ED83D797
:10F8300049001566A2972392F18603D7418683D7A4
:10F8400021866309F70063F3E700B297998F139657
:10F85000070141822545979503009385E5C1EFA0F7
:10F8600040731375F40F0DA08D679387078093067F
:10F8700000100146BE9525459710FF1FE7808013B5
:10F880001375F50F49D50145F2406244D24442490F
:10F89000B249224A924A05618280B3079440D297C6
:10F8A000C207C183A18303C74900850793F7F70FF8
:10F8B0009396870011EB9386170093740AF0A206C3
:10F8C000C204C206C180C18283D7218663F6F400D8
:10F8D00033879600E3C9E7FA0D6A130A0A800146E6
:10F8E000B385440125459710FF1FE780A00C1375D1
:10F8F000F50F51F983D54186A2864A86D29505B780
:10F90000411122C41384018622858145194606C609
:10F910009710FF1FE78020449307B0FA2300F400FC
:10F920008D352244B240979503009385E5AB25457C
:10F9300041016FA04051A16541119946138601868E
:10F94000938505802D4506C69710FF1FE78080062A
:10F9500003C701869307B00A6303F7005537B24027
:10F9600083D6418603D6218697950300938585A883
:10F97000254541016FA0E06183D741AA0145638C11
:10F98000071003D561AA6366F50023A201AA014509
:10F9900082803385A740D1473355F5021375F50FA3
:10F9A00001E5239201AA8280130101BD2324814233
:10F9B000232611422322914223202143232E314129
:10F9C000232C4141232A514195471374F50F63F3CA
:10F9D000A70015442286979503009385A5AB25457E
:10F9E000EFA0205B01498144938981AA514AA14A31
:10F9F0009377F90F03D561AA1747FF1F0347D75C19
:10FA000063E98704D1473304F4022A94239381AA3B
:10FA1000A147631CF706A6850808EF30307F03D79F
:10FA200061AA83D741AA05456364F70023A201AA0E
:10FA30008320C1420324814283244142032901429D
:10FA40008329C141032A8141832A41411301014392
:10FA50008280B30749031408AA97CE97338596008E
:10FA6000631E5701BE85EF40E0192317A10083579D
:10FA7000E1000509BE94C204C1809DBFAA8513069A
:10FA8000E1003E85EF80C077DDB726860C08014592
:10FA9000EF60100B69B78280011106CE22CC26CA16
:10FAA0004AC84EC691E901442285F2406244D244DC
:10FAB0004249B24905618280AA8975D583D74186BA
:10FAC00003D621862E849564638AC7006374F6008A
:10FAD00015673A961D8E93140601C1802686979568
:10FAE00003009385658D2545EFA0A04A938714F008
:10FAF0006356F4009307F00F63EA970097950300AD
:10FB00009385058D2545EFA0C04871BF83D44186FC
:10FB100033878400956763C7E700A2854E85613906
:10FB20008D3159B7156933099940420913590901B3
:10FB3000CA854E85493125D9ED75A695A295C20590
:10FB400023920186C18133852901D1BF83D641AA81
:10FB500081EA979503009385258E25456FA0A02EF9
:10FB600003D661AA4111918E979503009385C58DA7
:10FB7000254506C6EFA0E041138741AA835507003B
:10FB800083D761AA138581AA9D8DC2053E95C18147
:10FB90002137B24023A201AA41018280411183D7BB
:10FBA00041AA22C426C206C6AE971307401FAA84E4
:10FBB0002E84635AF700593F9795030093858585F6
:10FBC0002545EFA0402883D741AA138581AA228624
:10FBD000A6853E95EF30F35103D641AA2296420600
:10FBE0002244B240924441822392C1AA97950300D5
:10FBF0009385C583254541016FA0A039011126CA0F
:10FC000006CE22CC4AC84EC652C456C2814459C1FF
:10FC1000D1C183D7218603D44186638D870663F5DE
:10FC200087081D8C42044180AE892A8922869785E7
:10FC300003009385E5740145EFA0A035A28463F32A
:10FC40008900CE84C2040D6A83D7218603D74186FA
:10FC5000C180938A0186130A0A8063FAE704A686A4
:10FC60004A86B38547012D459710FF1FE78080D452
:10FC700083D72A00A6972391F186EFF09FB083D611
:10FC8000418603D62186978503009385A570254577
:10FC9000EFA02030F240624426854249D244B24966
:10FCA000224A924A0561828015673A949DBF156782
:10FCB0001D8FB385470163D5E400A6864A8665B7E4
:10FCC0009569B389F9406D743E94C20993D90901CD
:10FCD0002694CE864A8642042D459710FF1FE78062
:10FCE00060CD4180A28633063901D2852D4523910E
:10FCF00001869710FF1FE780E0CB83D72A003E9450
:10FD0000239181869DBF397106DE22DC26DA4AD82E
:10FD10004ED652D456D25AD05ECE62CCE9C9328485
:10FD200055CA368CE9C6BA8B79C32A89AE8A2300B4
:10FD3000AC0085448149114B330634416353CB00F9
:10FD40001146137AF60F5286B3853A01480002C273
:10FD5000EF30333A03475100834761000346710097
:10FD6000834641004A97CA974A96050789070D06B8
:10FD7000CA962307E100A306F100A307D1002306DA
:10FD8000C1007800814703460700B306F9008507E4
:10FD9000B18E2300D70093F7F70F0507E39567FFB0
:10FDA0008357C1000357E100D29933059C00B98FF6
:10FDB0002316F100B24711462C00910493F9F90F74
:10FDC0003EC493F4F40FEF30D332E3E789F6238097
:10FDD0009B0005442285F2506254D2544259B259D4
:10FDE000225A925A025BF24B624C2161828001449A
:10FDF000D5B71D7186CEA2CCA6CACAC8CEC6D2C4FB
:10FE0000D6C2DAC05EDE62DC66DA6AD86ED67DC53E
:10FE10002E84E9C532897DC2368CEDC2834D050042
:10FE2000AA84814C054D9149138A3D00938A1D0097
:10FE3000138B2D00930B00103306A44163D3C9002C
:10FE400011469377F60F3E86B385A40148083EC657
:10FE500002CAEF30132A834661010347410103467A
:10FE6000710183475101358F230AE100B18F33C7F8
:10FE7000ED00B346DB00A30AF1003346CA00B3C766
:10FE8000FA00A30FE100A30ED100230EC100230F3F
:10FE9000F1007408014783C706003386ED000507AB
:10FEA00093870710918FB3E777038506A38FF6FE3C
:10FEB000E31337FFF2473305990111462C083ECC76
:10FEC000EF303323B247910C93FCFC0F3E9D137D22
:10FED000FD0FE3638DF623009C0105442285F64067
:10FEE0006644D6444649B649264A964A064BF25BD2
:10FEF000625CD25C425DB25D256182800144F9BFE3
:10FF000039719307400622DC33F4F50226DA130731
:10FF10007100B684740806DEB377F6023304F40287
:10FF2000B387C5003E9493978500A181DD8D93171B
:10FF3000860021825D8E2314B1002315C1002C00A0
:10FF40001146D13389C483457100680882942285A3
:10FF5000F2506254D2542161828018419387010E7D
:10FF6000104598C303574500544590C72392E700B6
:10FF700058551049D4C7544998CF978503009385A5
:10FF800025590547254590CBD4CB238EE7006F90AC
:10FF9000906B397126DA4AD84ED652D456D25AD0FE
:10FFA00006DE22DC62CE66CC2A89EF40A36B937416
:10FFB000F50F8149254BE54A178A0300130A0A4FBA
:10FFC00091ECF25062544E85D2544259B259225AA1
:10FFD000925A025B724CE24C216182800347090015
:10FFE000930707FD93F7F70F637CFB009307F7F97F
:10FFF00093F7F70F63E2FA06930797FA93F7F70F71
:020000021000EC
:10000000139487016184FD14230089002685EF2065
:10001000736A2A86AE8603250A0083254A0093F474
:10002000F40F0509EFD0907D2AC422852EC6EF205B
:1000300073682246B246EF2083182A8C4E85AE8C18
:10004000EF20736E2A86AE866285E685EF10032C5C
:10005000EF209360AA89ADB79306F7FB93F6F60FEE
:100060008147E3EFDAF8930797FC49BF411122C4B7
:1000700006C6830795022A8499C713059502EF30B7
:100080009304238DA1088307D41291CB1305D412B6
:10009000EF301303EF30C36493878106C8D3B240B7
:1000A000224441018280011126CA9304150022CC0A
:1000B00097850300938585492A84268506CE4AC8FC
:1000C0004EC6EF90507C631E051097850300938504
:1000D00025482685EF90307B6302050E8544830713
:1000E000D4036386070C13059402EF30C37D854962
:1000F0001379F50F1305D4036387340F8947638C95
:10010000F418EF30437CA38EA108631A39017946B5
:1001100081451385F10B23830186EFE0CFD583075B
:10012000D40885C31305D408EF30E37903C761868B
:10013000930717002383F18693878106BA97A38BD1
:10014000A7048307D40D85C31305D40DEF30A3771F
:1001500003C76186930717002383F186938781067F
:10016000BA97A38BA7048307D41285C31305D412AF
:10017000EF30637503C76186930717002383F18609
:1001800093878106BA97A38BA7048307D41785C3E7
:100190001305D417EF30237303C761869307170045
:1001A0002383F18693878106BA97A38BA704F24035
:1001B0006244D2444249B249056182809785030076
:1001C000938545392685EF90106CE31905F0268557
:1001D0009785030093854538EF90F06A8944E310D2
:1001E00005F08144EDBDEF30036E238FA108631A43
:1001F0009900794681451385110A23830186EFE032
:100200008FC78307D40885C31305D408EF30A36BC9
:1002100003C76186930717002383F18693878106BE
:10022000BA97A38CA7028307D40D85C31305D40DF9
:10023000EF30636903C76186930717002383F18654
:1002400093878106BA97A38CA7028307D41285C32C
:100250001305D412EF30236703C761869307170095
:100260002383F18693878106BA97A38CA70283071D
:10027000D417E38E07F21305D417EF30C36403C716
:100280006186930717002383F18693878106BA97C7
:10029000A38CA70229BFEF300363A38FA10801BF7E
:1002A000411122C406C6830795072A8499C71305FE
:1002B0009507EF304361A38DA1088307D40899C740
:1002C0001305D408EF302360238EA1088307540B55
:1002D00091CB1305540BEF30A35EEF30634093874F
:1002E000810688D7B240224441018280011126CA8A
:1002F0008146B284014652C456C206CE22CC4AC8B8
:100300004EC62A8AAE8AEF10B34E41CD9307E00461
:100310006386F400930730056395F408978903001A
:100320009389C92003A6090083A649005285D68572
:10033000EF10F36837949800EF2013321304046829
:100340002A8933758502EF20133E03A6090083A690
:100350004900EF10A36E978703009387A71D904372
:10036000D443EF10A36D2A8A33558902AE8AEF2059
:10037000933B2A86AE865285D685EF0033791307E4
:100380003005AE876395E400B7070080AD8FF2407B
:100390006244D2444249B249224A924ABE8505612A
:1003A000828001458147E5B7011126CA8146B284A2
:1003B000014652C456C206CE22CC4AC84EC62A8A2C
:1003C000AE8AEF10F34241CD930750046386F400E8
:1003D000930770056395F4089789030093890915BD
:1003E00003A6090083A649005285D685EF10335D28
:1003F00037949800EF205326130404682A89337534
:100400008502EF20533203A6090083A64900EF10AE
:10041000E362978703009387E7119043D443EF107B
:10042000E3612A8A33558902AE8AEF20D32F2A86C8
:10043000AE865285D685EF00736D13077005AE87C3
:100440006395E400B7070080AD8FF2406244D24468
:100450004249B249224A924ABE85056182800145DD
:100460008147E5B7135785009357050113D88500D9
:100470009376F50F01111377F70F93F7F70F618557
:1004800093F5F50F1378F80F99C211C3B9E3230C54
:10049000D100A30CE100230DF100A30DA100034541
:1004A0009101834781010347A1012205A30E0101A8
:1004B0004207C98F230EB1000345B101D98F03470D
:1004C000D1018345C101620522075D8DD98D05618A
:1004D000828032951375F50F1313850113538341F1
:1004E0005D466357660861463363C302850713762A
:1004F000D70F114593F7F70F6305A6002545631A3B
:10050000A6007946637FF60205071377F70F854744
:100510000DA809466312C7041386067D930840069A
:10052000B36816036385080013F5360011C513057B
:1005300000193366A60219EE75466374F600854706
:100540000D47230CD100A30CE100230DF100A30DF6
:100550006100B1B77146D5B77D46E374F6FEB14789
:10056000E314F7FA850693F6F60F85470547D1BFE2
:10057000E35903FC6105FD171313850193F7F70F8A
:1005800013538341DDFF7D171377F70F1146F947AA
:10059000E309C7FA1946E306C7FA2546E303C7FA93
:1005A0002D46E300C7FA89476316F7021386067DD6
:1005B00093074006B367F60291C793F83600F547F4
:1005C000E38108F893070019B367F60293B71700A1
:1005D000F10785BFFD4735F7FD1693F6F60F314756
:1005E0008DB783471500034705000111A2075D8FF2
:1005F000834725008346350006CEC207D98F0347BF
:100600005500834545001746FF1F13062684030641
:100610004626E206220733E5F600D98DA1351358A8
:1006200085001356050193D7850013F7F50F93F74F
:10063000F70F935685011376F60F9375F80F137520
:10064000F50FEF6090579747FF1F83C73780054727
:100650006385E70011476396E700F24005616F602C
:100660007065F240056182804971232481161384EC
:1006700081068307340083C8D10603C8C10603C7B7
:10068000A10683C6910603C681069785030093855C
:1006900065EE4810232611162322911623202117D8
:1006A000232E3115EF3093764810EF30B37B184886
:1006B0005C48030604033AC03EC2030814035C44CA
:1006C00018445410978503009385C5EC3695EF3098
:1006D000F3734810EF3013795C103E958307640084
:1006E00017860300130686E889C7178603001306DA
:1006F00066E7979503009385A5B0EF3033714810F6
:10070000EF305376544C104C5C1097850300938562
:1007100065E93E95EF30936F4810EF30B3740306F0
:1007200034035C103E9597850300938565E8EF30B0
:10073000F36D4810EF30137303072403AA84485065
:100740003ACE13848106EF20F36E72475C10AE86BA
:100750002A86978503009385A5E633859700EF30B9
:10076000F36A4810EF3013705C1003C6C109978517
:100770000300938565E63E95EF3053694810EF30EE
:10078000736E5C1097850300938505E63E95EF3008
:10079000536C13896108A284979903009389C9A5B2
:1007A00003C6740519CA481032CEEF30B36B7246D7
:1007B0005C10CE853E95EF3073658504E39224FF8F
:1007C0004810EF30336A5C1097850300938545E24B
:1007D0003E95EF301368979403009384E4A1034699
:1007E000940319CA481032CEEF30D36772465C10BA
:1007F000A6853E95EF3093610504E31224FF4C106B
:100800002545EF9040648320C1160324811683247C
:100810004116032901168329C11575618280411192
:1008200022C406C626C2830755012A84B9C7A94631
:10083000938707FDB387D70203476501130707FDB9
:10084000BA97A385F106030775018347850113074E
:1008500007FD3307D702938707FD3E972386E106FE
:10086000830795010347A501938707FDB387D70247
:10087000130707FDBA97A386F1068307940281CB7D
:10088000130710046391E71485472387F106830754
:10089000D4039384810699C71305D403EF30430230
:1008A00088C4CCC40306140509CA8844CC44238CEC
:1008B000C108EFF0BFA388C4CCC48307540699C70E
:1008C00013055406EF20D37F88C8CCC803069407CD
:1008D00009CA8848CC48A38CC108EFF0FFAC88C88F
:1008E000CCC88307D40899CF1305D408EF20537DD3
:1008F00097870300938787C69043D443EF10330C48
:1009000088CCCCCC8307140A99C71305140AEF20AE
:10091000937B2394A1088307540BB9C7A9469387F7
:1009200007FDB387D7020347640B130707FDBA9788
:100930002385F1060307740B8347840B130707FD18
:100940003307D702938707FD3E97A384E106830709
:10095000940B0347A40B938707FDB387D7021307B4
:1009600007FDBA972384F10683853400856703C6A3
:10097000C106938707E11307C0033307E60283C666
:10098000D106B387F502BA97B69723AAF10817479D
:10099000FF1F130767F4835707003A8413F5870096
:1009A00039E1038564000547631FE50203C7A1061B
:1009B00011EF8844CC4401468146EF10636305E99A
:1009C00023870106B9A023870106D1B5FDD175D2D1
:1009D000EDD293E78700138581061747FF1F231D7C
:1009E000F7EEEFF01FC083876400E1F7D1BF8848BE
:1009F000CC4801468146EF10A35F79D183C7A10699
:100A0000E1D31306800793858106138501FFEF204C
:100A1000536E03C501CA9D4705053365F5021306EC
:100A20008007938581062380A1CA93078007330539
:100A3000F502938781CA3E95EF20B36BEFF0DFC2DA
:100A40005C542244B24092441747FF1F2320F7EC26
:100A50001306800781451385810641016FD0BFC110
:100A60000171232C811E232A911E1306101E2A8435
:100A7000AE8468008145232E111E2328211FEFD04C
:100A80009FBF81458147014701465148CD485D439D
:100A90006341960899C12306F1001306A002A685BA
:100AA0002285EF90805C8347C10051473386A44084
:100AB000B387E7029305150078007D16A295850798
:100AC0003305F700EF20F3621306A002A685228506
:100AD00003491400EF906059894763C4A708034590
:100AE000C100D1473305F5027C0005053E95EFF0C6
:100AF0004FCA631DA904194697850300938505A471
:100B00001305D100EF90C0632DC56800EFF03FD111
:100B100035A8B306C40003C50600930665FD93F629
:100B2000D60F91EA850793F7F70F6361F3028545C6
:100B300001470506B1BFB3860703130E011FF296E6
:100B4000BA96A38EA6E00507E3D5E8FE8320C11F71
:100B50000324811F8324411F0329011F1301012046
:100B600082803307F4000347070085073349E90013
:100B7000ADB71946978503009385859C1305D10071
:100B8000EF90005C0DED1946978503009385859BDA
:100B90001305D100EF90C05A19ED1946978503004F
:100BA0009385859A1305D100EF90805945D168004F
:100BB000EFF06FCF61BF6800EFF08FEE41BF6800CC
:100BC000EFF0CFCA61B7757122C526C34AC1CEDE28
:100BD000D2DCD6DADAD806C7AA892E898144014444
:100BE0008147130A4002854A354B1397040141831C
:100BF000636C2701BA402A449A440A49F659665A56
:100C0000D65A465B496182803387990003470700C3
:100C100063004703639C5701631D67019C18A297FB
:100C2000A2856800238E07F8253D8147850475BF9E
:100C300001449C18A29705041374F40F238EE7F85F
:100C400093373406E5B7411106C6138501CA8347B9
:100C50000500130780078145B387E7021306800765
:100C6000A1073E95EFD03FA1B2408145114541011A
:100C70006F90504D138501CA834705001307800705
:100C8000B387E702A1073E958280138501FF82802A
:100C90009747FF1F83C7C7C481CF9737FF1F83D7ED
:100CA0004741FD17C207C1831307A0036375F7000F
:100CB00023A40186828031714ED79389818683A7D0
:100CC000090056D3938A01CA850722DD26DB52D557
:100CD0005AD15ECF62CD66CB6AC906DF4AD96EC7EC
:100CE00023A4F18683C401CA014A130C80075684E9
:100CF000977C0300938C0C7C054D9D4B154B3389E1
:100D0000840356998307E900E1CF03A60C0083A66C
:100D10004C000325090283254902EF10E33E63419D
:100D2000050C83470904638DA70B93171A00180855
:100D3000BA97035789022390E7003C00D29723809B
:100D40009700050A9904B3E47403E31A6AFB035796
:100D5000810183570101998F13D7F741B98F998F7B
:100D6000939407011307400BC1806358F700930762
:100D70008016B3849740C204C1802686977503000D
:100D8000938545766808EF3073086C082545EF9029
:100D9000800B938714FFC207C1837947636EF708FE
:100DA00003499100130A800785450145330949032A
:100DB000210922994A86EF7090138344B10085453A
:100DC0000145B3844403A104A2942686EF70301237
:100DD000CA850D45EF205065A6850D45EF20D064EE
:100DE00083A709001737FF1F0357A72C63E7E70204
:100DF00003C501CA9304800733059502B30DA4000F
:100E00008387ED0099CB83C7C10F1389010E6397C8
:100E1000070E21052295EFF04F94FA506A54DA54E8
:100E20004A59BA592A5A9A5A0A5BFA4B6A4CDA4C0E
:100E30004A4DBA4D296182809307D002E3F297FAB6
:100E4000834B8100930A80078545B38B5B03014583
:100E5000138C8B00229C6286EF707009034B91000B
:100E600085450145330B5B03A29B210B229B5A86D0
:100E7000EF70F007034AA10085450145330A5A0384
:100E8000210A229A5286EF7090060349B1008545E7
:100E9000014533095903210922994A86EF7030052B
:100EA0008344C10085450145B3845403A104A29441
:100EB0002686EF70D003E2850D45EF20F056DA85E7
:100EC0000D45EF207056D2850D45EF20F055CA85AF
:100ED0000D45EF207055A6850D45EF20F05483C7D2
:100EE00001CAB38A570303A74B03A29A83A74A03F5
:100EF000E318F7EE85472380FA04DDB5177D03007C
:100F0000130DCD5B03260D0083264D0003A58D0137
:100F100083A5CD01977903009389C95AEF10232A3D
:100F200003A6090083A64900EF0053312A8BAE8B3C
:100F300003260D0083264D00032509018325490161
:100F4000EF10E32703A6090083A64900EF00132F43
:100F50002A8AAE8A2A86AE865A85DE85EF10A3716C
:100F600097770300938787569043D443EF10232548
:100F7000EFC0B0732A8CAE8C5A85DE85EFC0D06985
:100F80002A8BAE8B5285D685EFC010690326890067
:100F90008326C9002A8AAE8A03A50D0183A54D01C7
:100FA000EF10636D03260D0083264D00EF10232103
:100FB00003A6090083A64900EF0053289777030092
:100FC0009387C7509043D443EF10631FEFC0F06D79
:100FD0002A89AE895286D6865A85DE85EF10231E71
:100FE0004A86CE86EF10A31D4A86CE86EF10231DBB
:100FF0002A89AE896286E6866285E685EF10231C23
:101000002A86AE864A85CE85EF004330EFD0603128
:10101000EFC0F0722A86AE86EF00432F9777030069
:101020009387474B9043D443EF106319977703009E
:101030009387C74A9043D443EF1063182A86AE863D
:101040002A89AE896808977503009385A54AEF3011
:10105000E35B6C082545EF80105F1735FF1F0345E4
:10106000E5E8EF1033652A86AE864A85CE85EF0027
:10107000D37EE354A0DA03C601CA3306960285453F
:10108000014521062296EF70806683C501CAB385AB
:1010900095020D45A105A295EF20103903C501CA9F
:1010A0003305950221052295EFE03FEB23A401864D
:1010B000ADB3411106C6EF70907FEF70D04B83C780
:1010C00001872147639EE7001737FF1FA30EF7EE46
:1010D0009737FF1F238B07EEB24041016F50604CE2
:1010E0009737FF1FA38207EEC5BF411106C622C472
:1010F00005476303E6042A8419CA0947630DE60419
:101100008D476307F606B2402244410182809785ED
:1011100003009385E5701145EF80F052A2851145DB
:10112000EF8070522244B240978503009385057189
:10113000114541016F803051F9D69042EF50C02DDA
:101140002244B240014697550000938565323D45E3
:1011500041016F30C032C5DA2244C8C2B24003C573
:10116000A6002394B6003686954541016F7020583D
:101170002244B24041016FC0C04E557158109306D1
:101180003102130621029305110293075102130540
:10119000610286C7EF60201B9737FF1F9387C773D5
:1011A00083D70700BD9B1737FF1F2317F772EFF098
:1011B0007FAC030305039305E004835661020347F4
:1011C0001102834721020348310283484102034E42
:1011D000510217A603001306A6266316B30017765E
:1011E0000300130626E1830E150313035004032F97
:1011F0008500832FC500977503009385A5DF63865F
:101200006E0097A503009385A5230323050183237F
:1012100045017AC41ACC1ECE7EC672C02EC832C218
:1012200097850300938585DB1736FF1F130616CCC1
:101230002810EF30A33DEF7080652810EF30834217
:101240009387C1869043931505019386011028105A
:10125000C181613DBE4069618280411106C623A6FD
:10126000B18601C61C4223A0F1109737FF1F83C728
:1012700057BE8DEB0545EF90904B97750300938516
:1012800065442545EF80303C9737FF1F83D7C764FF
:10129000B24093E707011737FF1F231FF762410191
:1012A0006F70205E05470545639CE700EF9030486E
:1012B0000545EF90A06F977503009385E541D1B781
:1012C000EF90F0460545EF9090480545EF90006E91
:1012D000977503009385C5416DB7411122C42A84D7
:1012E0008307D40306C626C22E8589C71307F003D9
:1012F0006398E7021737FF1F130717BC9736FF1FC6
:10130000938676B81736FF1F1306D6B49775030079
:10131000938545492244B240924441016F30032FE6
:101320009737FF1FA38807B29737FF1FA38D07B416
:101330009737FF1FA38207B8034704008547AE8491
:1013400063FAE7009305D4031735FF1F130595B023
:10135000EF3023308307940791CF03470400894778
:1013600063FAE700930594071735FF1F1305B5B11E
:10137000EF30232E8307540B91CF034704008D4792
:1013800063FAE7009305540B1735FF1F1305D5B219
:10139000EF30232C0146974500009385C5A813051F
:1013A000C012EF30C00DEF50C01F1737FF1F1307DB
:1013B000B7B09736FF1F938616AD1736FF1F13067B
:1013C00076A997750300938525402685A1B741111D
:1013D00026C206C622C4034705008947AE8463F5CA
:1013E000E7029305D5032A841735FF1F1305859F50
:1013F000EF30232613059407EF20E34C9737FF1FA8
:101400002394A7A4EF506014EF5020181736FF1F45
:101410001306469D9736FF1F83D606A397850300C4
:101420009385C5B22685EF30631E85479735FF1F2C
:101430009385D5AB1735FF1F130585991737FF1F08
:10144000A30CF78EEF30E3209735FF1F938595A00F
:101450001735FF1F1305658EEF30A31F9735FF1F4C
:10146000938575A21735FF1F13054590EF30631E56
:101470009735FF1F938555A41735FF1F1305259238
:10148000EF30231D97750300938585AC1735FF1F3B
:1014900013056598EF30E31BEF50200B2244B24058
:1014A0009244014697650000938525AA13058002A2
:1014B00041016F20D07C411122C426C24AC006C619
:1014C0008307D503AE84177903001309A96717347E
:1014D000FF1F1304644089C71307F0036391E704F7
:1014E0001735FF1F034575A0EF10D31C0326090015
:1014F00083264900EF008354EF20831E28C0EF208D
:101500006313AE862A86977503009385256422446B
:10151000B24002492685924441016F30230F1305E2
:10152000D503EF20433A9737FF1FA380A79C13757D
:10153000F50FEF1033180326090083264900EF004A
:10154000E34FEF20E31928C0EF50A0052840EF201B
:10155000630EAE862A86977503009385256145BF85
:10156000AA870387D7032E8509C79306F00363155F
:10157000D7029737FF1F83C7B78D1776030013066F
:10158000A65989E717760300130686599775030055
:101590009385855A6F30830741111385D70306C69B
:1015A00022C42E84EF2023329737FF1FA382A78AFD
:1015B000EF40307F9737FF1F83C7978997750300E8
:1015C0009385855689E7977503009385655622852F
:1015D0002244B24041016F30C307411126C206C602
:1015E000AA8422C48387D4032E8589C71307F003F6
:1015F0006396E7049737FF1F83C7B7850547638561
:10160000E70289CB09476386E702B240224492444D
:101610004101828097750300938585592244B24029
:10162000924441016F30E302977503009385C55AD8
:10163000F5B7977503009385E55CCDB79384D40324
:101640002E842685977503009385C55EEF30A3072A
:101650001DC189471727FF1FA30DF77E977503004C
:10166000938585612285EF20D37E2244B240924447
:1016700041016F4010732685EF20E3241375F50FA9
:101680009727FF1FA387A77C85479775030093853E
:10169000A55CE309F5FC977503009385255A79D17C
:1016A0008947E30DF5FA1727FF1FA304F77A97750B
:1016B00003009385A55E7DB741112E8597750300C4
:1016C0009385C56506C6EF20D378B240014697657D
:1016D0000000938585871305200341016F20305A50
:1016E000411122C426C206C68307D503AE8417243F
:1016F000FF1F1304A47589C71307F003639BE70258
:1017000083064426178603001306468863D6060020
:10171000177603001306068E2685978503009385AA
:101720002587EF20B36E2244B240924441016F807E
:10173000304D1305D503EF2003199737FF1F238979
:10174000A796EF80F04B0306442697850300938508
:10175000E5852545EF80F003834744266147B107BF
:1017600093F7F70F6377F700A1471737FF1F2301A0
:10177000F794EF4010638306442617860300130690
:10178000E68063D60600177603001306A686224479
:10179000B24026859244978503009385A581410137
:1017A0006F20D366397122DC9307D1022E84781022
:1017B0009306B1021306A102930591021305E102FB
:1017C00006DE26DA4AD8EF5010388348D1020348A3
:1017D000C1028347B1020347A10283469102035627
:1017E000E102977503009385A51E2285EF20136201
:1017F0002285EF2033679734FF1F9384E40DCC5488
:1018000003A844030566130606E133F3C5029306F5
:10181000C0032295B378C802B377D80233F7D50254
:101820003EC09C54B3D8D8023358C802B356D30232
:1018300033D6C502977503009385C51BEF20135D52
:101840002285EF2033623309A400EF80C019177698
:1018500003001306E61509C51776030013060615DF
:10186000977503009385051D4A85EF20335A22851D
:10187000EF20535F1736FF1F0346460A9775030094
:101880009385451C2295EF2073582285EF20935DA8
:1018900083D704002A94177603001306A611139722
:1018A000170163460700177603001306661132CE50
:1018B000EFC0E0557246AA86977503009385C51957
:1018C0002285EF20B354F2506254D2544259216120
:1018D0008280AA870387D7032E8509C79306F00362
:1018E0006311D7029727FF1F83C7C7569775030059
:1018F0009385C5E189E797750300938525E46F20FB
:10190000535541111385D70322C406C62E84EF1008
:10191000937B1375F50F9727FF1F238DA75217276A
:10192000FF1F0347B75289476316F7000DE91145BA
:10193000EF90C0079727FF1F83C7C7519775030014
:10194000938545E189E7977503009385E5E3228553
:10195000EF2033502244B24041016F409044114582
:10196000EF90A007C1BFAA870387D7032E8509C7B9
:101970009306F003631ED7029727FF1F83C7674DA7
:101980000547638DE70089C70947638EE7008280BA
:1019900097750300938505E66F20B34B9775030099
:1019A000938585E9D5BF977503009385A5EEEDB7BF
:1019B00041111385D70322C406C62E84EF10B370DD
:1019C0001375F50F9727FF1F2385A7488547977540
:1019D0000300938565E66306F5029775030093851A
:1019E00065E105C18947977503009385A5EA630AF8
:1019F000F5001727FF1F230EF74497750300938503
:101A000025EF2285EF20F3442244B24041016F408C
:101A10005039AA870387D7032E8509C79306F00399
:101A2000631CD7001726FF1F0346464C977503001B
:101A3000938505096F20933D41111385D70306C691
:101A400022C42E84EF10B3689727FF1F2380A74A74
:101A5000EF40303522852244B2401726FF1F03464F
:101A6000E648977503009385E5074101E1B7411109
:101A700022C439452E84814506C6EF302020EF4030
:101A8000D0242A8622852244B2409775030093858C
:101A9000E50741016F209337411122C41305D50397
:101AA0002E84977503009385A5FC06C6EF80A05D84
:101AB00011CD0145EF40F03397750300938505FC88
:101AC00022852244B24041016F20B3380545EF40E2
:101AD000503297750300938525FCDDB7411122C470
