:04C000006F2000337A
:10C004000000000000000000900000202205002035
:10C01400A9BDF9F594000020000000000000000014
:10C02400960000209800002000000000000000009E
:10C034009A000020000000009C0000200000000086
:10C044009E0000201603002044030020A4000020CA
:10C05400A6000020A8000020AA000020AC000020B8
:10C06400AE000020B0000020C60000205A010020CD
:10C074009E050020B8000020BA000020BC0000206B
:10C08400BE000020EE01002082020020C400002037
:10C0940001A001A001A001A001A001A001A001A094
:10C0A40001A001A001A001A001A001A001A001A084
:10C0B40001A001A001A001A001A001A001A001A074
:10C0C40001A001A001A037370040834747009946EB
:10C0D4004111BD8B638CD70231476384E706114756
:10C0E400639EE702A3030100174600000346461FB0
:10C0F40037370040834771006315F6022C0013851F
:10C10400016E977001E0E780807909A883475700A2
:10C1140093F7F70F2304F100834781004101730073
:10C12400203083477100834687000C08AE97238C28
:10C13400D7FE83477100850793F7F70FA303F10038
:10C1440055BF280097E001E0E780C0821375F50F22
:10C15400A303A1000346710055B737370040834756
:10C16400474099464111BD8B638CD70231476384A4
:10C17400E7061147639EE702A30301001746000088
:10C184000346261637370040834771006315F602CD
:10C194002C001385416F977001E0E780407009A877
:10C1A4008347574093F7F70F2304F1008347810037
:10C1B40041017300203083477100834687400C0897
:10C1C400AE97238CD7FE83477100850793F7F70F4B
:10C1D400A303F10055BF280097E001E0E780408BFE
:10C1E4001375F50FA303A1000346710055B7374734
:10C1F40000408347478099464111BD8B638CD70229
:10C2040031476384E7061147639EE702A3030100F5
:10C21400174600000346D60C374700408347710099
:10C224006315F6022C0013858170977001E0E78096
:10C23400006709A88347578093F7F70F2304F10099
:10C244008347810041017300203083477100834696
:10C2540087800C08AE97238CD7FE8347710085072F
:10C2640093F7F70FA303F10055BF280097E001E00F
:10C27400E780C0931375F50FA303A1000346710073
:10C2840055B737470040834747C099464111BD8B96
:10C29400638CD70231476384E7061147639EE70244
:10C2A400A3030100174600000346663437470040E5
:10C2B400834771006315F6022C001385C1719770D2
:10C2C40001E0E780C05D09A8834757C093F7F70FE3
:10C2D4002304F10083478100410173002030834728
:10C2E4007100834687C00C08AE97238CD7FE834722
:10C2F4007100850793F7F70FA303F10055BF2800DA
:10C3040097E001E0E780409C1375F50FA303A100BB
:10C314000346710055B7411122C6371400408357B4
:10C32400C40913973701635B0700BD45014597C0F6
:10C3340001E0E78040B18567231EF40832444101DF
:10C3440073002030411122C6371400408357E4099A
:10C354008357E409139717016359070097C001E055
:10C36400E78080A69167231FF408324441017300DB
:10C374002030B7170040930670052380D7041307B5
:10C3840080FA2380E7040100010003C6B704137692
:10C39400F60DA385C70423800704137605024DC256
:10C3A40003C6A700118A1DE22380D7042380E70473
:10C3B4000100010003C7A700136747002385E700B6
:10C3C4009307004B01000100FD17EDFFB717004074
:10C3D400930670052380D704130780FA2380E704AB
:10C3E400010001007D892394A700010001000100E0
:10C3F4000100238007042380D7042380E70401007D
:10C404000100010001003727004093061005A30333
:10C41400D78023800704B7170040130770052380D3
:10C42400E704130780FA2380E7040100010003C72F
:10C43400B70413670708A385E704238007048280F1
:10C444001376050441C603C6A700418A1DE2238072
:10C45400D7042380E7040100010003C7A700136782
:10C4640007012385E7009307007D01000100FD1704
:10C47400EDFFB7170040930670052380D704130718
:10C4840080FA2380E704010001001376F5011366A6
:10C4940006042394C7000100010001000100238069
:10C4A40007042380D704130660042380E704631879
:10C4B400C5000100010037270040894689BF0100FB
:10C4C4000100372700409306200591B72380D70445
:10C4D4002380E7040100010003D787001367070CDA
:10C4E4002394E7000DBF4111814601468145114562
:10C4F40006C66922B7170040130770052380E704B6
:10C50400130780FA2380E7040100010003C76704CE
:10C51400136717002383E70423800704B240410113
:10C5240082808146014681451145892AB71700401A
:10C53400930670052380D704130780FA2380E70449
:10C54400010001007D562396C7022380D70423806F
:10C55400E7040100010003C767041367170023837E
:10C56400E7042380070401A0BD473305F502010059
:10C574007D1575FD8280411122C426C206C6AA8497
:10C58400014463179400B2402244924441018280E2
:10C5940005041305803E4204C13F4180DDB7B7174F
:10C5A4000040130700032388E7028547174700006C
:10C5B400232CF71873002030411106C6852DFDBFCA
:10C5C4002303048015472303E48001002302A4808D
:10C5D400828083076480E3CE07FE23030480828085
:10C5E40083076480E3CE07FE03454480828083078B
:10C5F4006480E3CE07FE2302A4808280411126C416
:10C604004AC24EC006C61377F50BAD47AA892E89D8
:10C6140095446306F70019456537653F8D444E859B
:10C624004537FD59FD1463983401B240A2441249C0
:10C63400824941018280135509011375F50F453F65
:10C644002209CDB7011126CC06CEB7040800513714
:10C654001545BD37713769372AC6A53F32459377EB
:10C66400150089EB136515001375F50FF240E244CC
:10C6740005618280FD14E9FC0145CDBF397126DCDA
:10C684004ADA4ED852D656D45AD25ED006DE62CE9C
:10C6940066CCB7E700E07D5783AA070022C603AA49
:10C6A400470023A0E71823A2E718B7170040130791
:10C6B40070052380E704130780FA2380E70483C707
:10C6C4004704930B75FFB684E20793FBFB0F854683
:10C6D400AA892E8B328937240040E187015763FAF7
:10C6E40076016308D5008946130700026313D50059
:10C6F4000157D98F93F7F70FB71C00402382FC042E
:10C7040011472303E4801305F00F5D3D094CD13537
:10C71400636D7C11B7050700DA95378707007955F3
:10C7240063F2E504B3879500636EF702370B0800E4
:10C73400A94733EB65016399F90689E48144513DC6
:10C7440026850DA0DA850945553D05090345F9FF00
:10C75400FD14050B693D81C49377FB0FFDF7DD35AF
:10C7640069FD7D55B7170040130770052380E70462
:10C77400130780FA2380E70403C74704418B23820D
:10C78400E704F250B7E700E023A0571123A24711B2
:10C79400E25432445259C259325AA25A125B825B51
:10C7A400724CE24C21618280A5476395F906856944
:10C7B4001309F00FB3069900B3742B01B69413490F
:10C7C400F9FFB3749900856B33796901416B9387E1
:10C7D400F9FFB3F7270199E363FC340193D94900C6
:10C7E400C147E3E637FF99BF0569C1697D19D9B728
:10C7F4001305800D638869011305000263847901C0
:10C8040013051008CA85DD3B353D21DD4E99B384FF
:10C814003441D9B7DA852D45D533CA94E30099F26A
:10C8240005097D3BA30FA9FED5BF9387F9FF93F7B5
:10C83400F70F6361FC0C83C71C0413073008631FE4
:10C84400F70437070800636BEB04B3079B00B706D4
:10C85400100063F5D704334BEB0089476393F90663
:10C864008980D549E38C04ECDA850945413B1109FB
:10C874000327C9FF91472320E48003076480E34E24
:10C8840007FE23033481FD17EDFBFD14110B81C456
:10C894009377FB0FE9FF7D3371F5E1B5B7170040DE
:10C8A40003C75704B70708001377070219E3B787CC
:10C8B40007007955E378FBEA33079B00E3FFE7F8C9
:10C8C40055B58547E382F9F2DA852D45053B938911
:10C8D400F4FFE38504E6293393F7390091EB8326CB
:10C8E40004800327090093074900E39AE6E43E899C
:10C8F400CE84F1BFB5476396F9001305900BC93197
:10C9040035BDB1471305B00AE38BF9FE994763912E
:10C91400F904B7050800B365BB002D45C531814452
:10C924008D4BA149753963967401832704802320B4
:10C93400F9008504E39834FF8327048013172B013F
:10C94400635507002312F900D5BB2322F900FDB378
:10C954009D476399F90281451305B0044531BD44EF
:10C964002320090023220900FD599D3993F77400FF
:10C97400CA9703C70700FD14398D2380A700E396E7
:10C9840034FF6DBBA1476392F9046D398144630D93
:10C994000B008D479304C0036308FB009304000558
:10C9A40063048B01930440041375C507E30895D809
:10C9B4001945393139390545213126850D3909455E
:10C9C4003D314931E31C05D669BB91476399F900B0
:10C9D40013056006F536F53E130590090DB7E38F90
:10C9E40009D4F154A9BB19CD91CD09CE8147338720
:10C9F400F500834607003307F50085072300D700B9
:10CA0400E317F6FE828019C991C909CA910583A763
:10CA1400C5FF11057D16232EF5FEC5BF828001C911
:10CA240019C62A960505A30FB5FEE31DA6FE82804E
:10CA340081473307F5000307070019E33E85828029
:10CA44008507C5BF01112E8626CAAA8413150601BF
:10CA54009305F004418122CC06CE32C6EF108063E8
:10CA64002A8401C53246A685BD3F2285F240624430
:10CA7400D24405618280854715C18DC105C28147B5
:10CA8400B306F5003387F50083C6060003470700A5
:10CA94006398E6008507E315F6FE85473E858280A8
:10CAA4008147EDBF9307F6FFBE952A966313C50031
:10CAB4008280FD1583C715000505A30FF5FEFDB79C
:10CAC400AA87014581CF09CE3E96850703C7F7FFA4
:10CAD4006317B700E39BC7FE05458280828001454A
:10CAE4008280797197670000938707CE22D48043B0
:10CAF40006D626D24AD04ECE52CC56CA5AC85EC6A4
:10CB040062C45DCC37C9C901814B176A0000130A9E
:10CB14002AD097640000938464CB1309F937976A89
:10CB24000000938A2AC5B709C0A8370B405783571A
:10CB3400240095E35C44639D0B00176700002325E4
:10CB4400F7C8032CC4002285EF10E061628499A821
:10CB540023A6FB00FDB783270A008297838664011E
:10CB64001C4463DB06063307F5406367E9089767EF
:10CB7400000023A907C0835524000345040097201F
:10CB840002E0E780C02A5C405844A9CF1444B69719
:10CB94008386640163C5060063E33701DA971CC426
:10CBA400A28B3A8449F4976700009387A7BC9C4BF7
:10CBB40009476378F706F917176700002324F7BCC1
:10CBC400B250225492540259F249624AD24A424B18
:10CBD400B24B224C45618280E377F5F83387F94004
:10CBE4002A9761B763970B009767000023AEE7BCF1
:10CBF40089BF23A6EB00B1B7D85009CF63DF060085
:10CC04003385A74083A70A016376F5009767000080
:10CC140023AAA7B6A28B404471B7E3F3A7FECE972D
:10CC2400C5B79767000023AF07B459BF411122C4A9
:10CC340017640000130404B71C4006C626C24AC089
:10CC440091C782979767000023AE07B45C4091C3F5
:10CC540082971C406391071C9767000083C717D312
:10CC6400858B9DC797670000A38207D217670000D2
:10CC74000347F7D1954763FDE700EF0050419767FD
:10CC8400000083C7D7D0F5178A07A2979C438297E1
:10CC940017690000130949D38347C900918B99C3CD
:10CCA400EF10A0321C4491C38297976400009384D0
:10CCB40064B19840176600000346D6AB976700003E
:10CCC40083C747AB93961700BA9683D60600D5CA96
:10CCD4009767000083C707AA63EFC70A9767000036
:10CCE400238A07A81C40639807129767000083C72C
:10CCF40037CA91CF9767000083C777C989EB9767D5
:10CD04000000A38707C897C003E0E78040FB97674C
:10CD140000009387E7AF9C43638F070EB707C0A853
:10CD2400176700002320F7A66D3B976700009387E1
:10CD3400E7A9DC53EDC3176700001307A7A3184B3B
:10CD44009767000083C7D7A96367F70C17670000CC
:10CD54000347F7C3954763E0E70C8347C900918B0A
:10CD6400DDEB90409766000083C6D6A063CBD70A5C
:10CD74002244B240924402494101172302E0670071
:10CD840023E8850793F7F70F976600002384F69E40
:10CD9400E3E6C7F235BF86073E97835507002310A5
:10CDA400070097670000239D07A0976700009387FB
:10CDB400279F9C43176500000345C59B1317250057
:10CDC400BA979C4382979767000083D7679F17673A
:10CDD40000000347279A93C7F7FF7D8D9317170029
:10CDE40098403E97835707005D8D2310A7009767EF
:10CDF400000083C7279891C7850717670000230B96
:10CE0400F796176700000347E7969767000083C704
:10CE14007796E375F7ECB24022449244024941010B
:10CE24008280139717003297035707006DF7850721
:10CE340035BFAD6737C70040BD072326F7200F1065
:10CE44000000976700009387E792C84F83278726DF
:10CE5400BD66BD0693C7F7FF99836A052326D720CD
:10CE64005D8D82804111B7170040985F3AC6945F88
:10CE74003247E39CE6FE32454101828082800327EB
:10CE8400851163000712411122C406C68347C500F9
:10CE94008345C5042A8493F7C70F2306F500834608
:10CEA40097000356C70013958601618563F1C50891
:10CEB400635A05060345870093F6F607A304D700D3
:10CEC400054693E627006314C50093E6170023067E
:10CED400D4005C4389075CC3A30AB400032504118E
:10CEE4002E864C43090501368327841103465401D9
:10CEF400D44303D7C700B296118FD4C32396E70057
:10CF04008947A30DF400034744039767000083C7D0
:10CF1400078D6378F7048347C40093E7070123066A
:10CF2400F40081A093E717002306F40075B7937605
:10CF3400F60F635D050203458700854513E6270068
:10CF44006314B50013E617002306C400A30AD40033
:10CF5400A30407008547A30DF400832784119C4391
:10CF6400DDF3B240224401454101828093E717007A
:10CF74002306F400A30AD400A30407000325041124
:10CF84004C4309058D348327841103465401D4434B
:10CF940003D7C700B296118FD4C32396E7008D47F9
:10CFA4005DBF05458280976700009387679C9C431B
:10CFB400411122C406C6858B2A84C5EF4165130539
:10CFC40025F5973003E0E78080F645C58347A50043
:10CFD4002315F50083270412BDE72320A41223227E
:10CFE400A41285472310F404232005008347640119
:10CFF40054412316F5000347D4002304E5000547F4
:10D00400A304E5001767000013070798184F13855A
:10D01400170215811C437D151375F50F9CC25C43E3
:10D02400DCC21C479CC65C47DCC61C4B9CCA5C4BE0
:10D03400DCCA1C4F9CCE5C4FDCCE19CD9386060215
:10D0440013070702C1BF8327441288C3835704040C
:10D054002322A412850779B79767000083D707A016
:10D06400850717670000231BF79EB2402244410145
:10D0740082808347C40023090400054593C7470001
:10D084002306F400DDB78347850193F7E70FD5EF57
:10D0940083479501DDEB034625018346C50009CA94
:10D0A40083454503175700000347777363E7E5009B
:10D0B40013F7060141CF014709C6C18A0357651C0E
:10D0C40081C68356A51C369751C31307C71217553B
:10D0D40000000355A56CB335A70237460F00411174
:10D0E40013060624814622C426C206C67D5433058F
:10D0F400A702978004E0E78060159757000083C774
:10D10400776EB384A700976700009387A79403A75B
:10D1140007098327070963F387003E84184375FBD7
:10D12400975700009387C76E9C4382978147636437
:10D13400A400B307A440B2402244B3B7970093C7F6
:10D14400170092443E854101828081473E8582805A
:10D15400797126D206D622D44AD04ECE52CC56CAA3
:10D164005AC85EC68347350303447513AA843E94A4
:10D174001374F40F9307400263F687001304B4FD9D
:10D184001374F40F03AA841383AAC413A38B841205
:10D1940022865285D685978004E0E780A00505891C
:10D1A40015E503CBD41201498149337B6403930B06
:10D1B40050024A865285D685978004E0E780800332
:10D1C400058915C5639169031374F90F238B8412C0
:10D1D400B250225492540259F249624AD24A424B02
:10D1E400B24B456182808509E20993D989410509D9
:10D1F400E31179FDE1BF832785090356E5037971BE
:10D2040093D60701BD8EC206C182358E1357764070
:10D2140093575640898B058B5D8F93573640918B7E
:10D224005D8F93571640A18B5D8F93171600C18BAA
:10D234005D8F9317360093F707025D8F931756009F
:10D244009355860093F707041E065D8F1376F60F39
:10D25400518F93D7554013D63540118A898BD18F7E
:10D2640013D67540D18F13D61540218AD18F1396CA
:10D274001500418AD18F1396350013760602D18F9B
:10D2840013965500137606049E05D18F93F5F50F7A
:10D29400CD8FA20745465D8F3307C70222D42A8467
:10D2A40026D252CC56CA032A8413832AC4135AC8DA
:10D2B40006D6369742074183935777401355574014
:10D2C4000989858BC98F135537401189C98F135527
:10D2D40017402189C98F131517004189C98F131568
:10D2E400370013750502C98F13155700935587002E
:10D2F400137505041E07C98F1377F70FD98F13D53C
:10D30400354013D755401189098B498F13D5754082
:10D31400498F13D515402189498F139515004189EB
:10D32400498F1395350013750502498F13955500E0
:10D33400137505049E05498F93F5F50F4D8F22074C
:10D34400D98FB387C7024AD04ECE5EC662C4B697A1
:10D35400C207C18313D7774013D557400989058B7A
:10D36400498F13D537401189498F13D51740218927
:10D37400498F139517004189498F13953700137509
:10D384000502498F1395570093D58700137505043B
:10D394009E07498F93F7F70FD98F13D5354013D7CD
:10D3A40055401189098B498F13D57540498F13D581
:10D3B40015402189498F139515004189498F13958B
:10D3C400350013750502498F13955500137505042F
:10D3D4009E05498F93F5F50F4D8F2207D98FB3879B
:10D3E400C702130650025285D685B697BD8E939414
:10D3F4000601C18033F6C402137BF60F978004E064
:10D40400E78040DF05890DED8347D4120149814946
:10D41400B3849702130C5002C1804A865285D68584
:10D42400978004E0E78000DD0589937BF90F11C53F
:10D4340063863403850993F9F90F0509E31F89FD10
:10D44400230B6413B250225492540259F249624A93
:10D45400D24A424BB24B224C456182805E8BCDB79F
:10D46400011122CC604126CA4AC84EC652C406CE17
:10D47400AA841D4A130965058549BC446364F40004
:10D48400054581A803C7D40083474400631B4705AF
:10D4940003C784026304F7000040C5B70347540080
:10D4A40083C75405E31AF7FE1946CA8513056400B9
:10D4B400EFF06FDCE31235FF0347C40083C7940227
:10D4C400E31CF7FC0357E40083D7A402E316F7FC3C
:10D4D4000145F2406244D2444249B249224A0561BC
:10D4E4008280E31BF7FA0347540083C75405E3150E
:10D4F400F7FA1946CA8513056400EFF0CFD7E31D88
:10D5040035F9F9B70111975700009387A75422CC36
:10D5140003A4470B26CA06CE2AC42EC6854419E4A2
:10D524000145F2406244D244056182808347910000
:10D5340003471400858B6304F7000044CDB71946F4
:10D544009305A10013052400EFF0EFD2E31795FE35
:10D554000545C1BF011122CC1754000013048444B3
:10D5640018402AC62EC432C206CE3C4B93F7F7F7B6
:10D574003CCB97B003E0E780407118409756000019
:10D584009386863F3C4B93E707083CCB9C4232454D
:10D59400A24523A0070003471500034825002207DE
:10D5A4004208429703480500429703483500620841
:10D5B400429798D70347550003486500220742085D
:10D5C4004297034845004297034875006208429712
:10D5D400D8D7034795000348A5002207420842977D
:10D5E4000348850042970348B5006208429798DBD8
:10D5F4000347D5000348E500220742084297034841
:10D60400C5000345F500429762052A97D8DB03C796
:10D61400150003C52500220742052A9703C5050006
:10D624002A9703C5350062052A9798CF03C755008A
:10D6340003C56500220742052A9703C545002A97BA
:10D6440003C5750062052A97D8CF03C7950003C5A3
:10D65400A500220742052A9703C585002A9703C51A
:10D66400B50062052A9798D303C7D50003C5E50022
:10D67400220742052A9703C5C50083C5F5002A97EA
:10D68400E2052E97D8D3D843759BD8C3D8431367E4
:10D694001700D8C398431367170098C312469842DB
:10D6A4005C43858BD1E71C4F01452300F6009C4267
:10D6B4009C4FA183A300F6009C429C4FC18323018D
:10D6C400F6009C429C4FE183A301F6009C42D84F94
:10D6D4002302E600D84F2183A302E600D84F4183FA
:10D6E4002303E600D84F6183A303E6009853230481
:10D6F400E60098532183A304E6009853418323054D
:10D70400E60098536183A305E600D8532306E60098
:10D71400D8532183A306E600D85341832307E600A8
:10D72400DC53E183A307F600F24062440561828082
:10D734000100B5B7175700001307472414434111DC
:10D7440022C49C5E4AC006C6998326C2858B3A844D
:10D754001759000013094922D1CB9C5E975400004D
:10D764009384842293F7F7F99CDE1757000003474C
:10D77400072293070008631BF700832709009C43D3
:10D7840093F70704175700002303F72083C7040007
:10D7940093F707049DC397570000938767079C433B
:10D7A40082979757000023A9A71E83C7040093F705
:10D7B400F70B175700002309F71C83C7440093F79E
:10D7C40007048DE7854717570000A301F71C9757F7
:10D7D40000009387271D9C43096798C7130700FC23
:10D7E400975600002384E61AD844F8D31C40985F67
:10D7F4001183058B09CB985F3D9B98DF05479756AE
:10D8040000002385E618985F1D83058B11CB985F74
:10D814001377F7F798DF8547175700002308F716A3
:10D8240083270900D8430583058B19C7D843759B03
:10D83400D8C3D843799BD8C3B24022449244024906
:10D8440041018280397106DE16DC1ADA1ED82AD626
:10D854002ED432D236D03ACE3ECC42CA46C872C654
:10D8640076C47AC27EC0F935F250E2525253C253A2
:10D874003255A255125682567247E2475248C24860
:10D88400324EA24E124F824F2161730020309757BF
:10D894000000938727119443975700009387C70E7E
:10D8A40003C70700058B11CB975700002380070E91
:10D8B40097570000A38C070C828003C71700058BC1
:10D8C40065F7F85271FF83C75700DDB7175800009A
:10D8D4001308C80A032708001C5F9583858BD1E7CA
:10D8E40009C61C5BBD832300F60085CA8327080094
:10D8F400985B4607935767016356070093E707C091
:10D90400C207C18303970600C207C18709C7BA9734
:10D914000947B3C7E7022390F60085CD8347150076
:10D924008DCB9756000083C6860693F606041387AC
:10D93400970089478DCA3A9503470500854699475C
:10D944001376F7066311D60262076187B947634C01
:10D954000700832708009C5FED838D8B1757000019
:10D96400A309F70281473E8582808547EDBF4111B7
:10D9740022C406C6175400001304C402184049E91F
:10D98400AE877453FDFE3E85B28597570000238E03
:10D9940007FE97B003E0E7804005975700009387A0
:10D9A400E7FD9C43B70680009843558F98C3D8572A
:10D9B400719BD8D797570000A38A07FC975700009C
:10D9C400A38407FC1C40094798C3B7F700E003A7EA
:10D9D40007D16D9B23A8E7D003A707D15D9B23A89C
:10D9E400E7D0730050101440175700001307C7F90D
:10D9F40083472700858B89EB83473700858BD9C7FD
:10DA040097570000238407F8B240224441018280E2
:10DA14008D476310F50297570000938727F69C43C0
:10DA2400B70680009843558F98C3D857719BD8D7B1
:10DA34005DBF8547E319F5FAB567BD075CC70F10ED
:10DA440000001C400967094698C7130700F8975659
:10DA54000000238DE6F217570000130727F2144342
:10DA6400984231830D8B6319C7001307E043F8D341
:10DA74003D673D07D8C785BF984231830D8B01E7C9
:10DA840013076019EDB71307E01BD5B7FC52ADF3CC
:10DA9400A5BF5D7152DC175A0000130A2AEE032752
:10DAA4000A0086C6A2C4A6C2CAC04EDE1C43975949
:10DAB40000009389E9F3175900001309A9EE93F7BD
:10DAC400F7E793E707081CC383A609003707CEFFCF
:10DAD4007D179C46130680022A84F98F9CC68327EF
:10DAE4000900130700082800B8CBAE84930510087A
:10DAF400EFE0FFF297B003E0E780201997B003E06E
:10DB0400E780202683270A009376F41F370FFCFF53
:10DB140023A40700984B4E88CA881367F70398CB51
:10DB2400F84F130510F8D285137707E0558FF8CF17
:10DB34009843F576FD16758F98C39843B70633005E
:10DB4400B70204001377F7E798C398439303401F81
:10DB54007D1F1377F7E71367071098C303A709001E
:10DB6400930F800285491C47D58F1CC78327090062
:10DB74001307900D3400B8CB1149014713533700F4
:10DB840026938347030013767700B3D7C740858B6A
:10DB9400DDCF9C41832E0800239C070423900706B5
:10DBA40003AECE02137EDEFF23A6CE0383AE0700B0
:10DBB400137EF70793FE0EF833EECE0123A0C701C0
:10DBC40003AE4702336E5E0023A2C70383AE080090
:10DBD400014E23A27E0603DA070663074E0303AE53
:10DBE4000703038A0600135EFE00620E135E8E4175
:10DBF4006358CA0103AE0703135EFE002380C60107
:10DC040003DE0706137EFE0F03AA4E0663060A0010
:10DC140003DA8705E37F49FB03AE4702337EEE0157
:10DC240023A2C70383870600635CF400034E03004A
:10DC34003396C9001346F6FF3376C6012300C300AA
:10DC44003E8663D3A7002A861315860161850507DE
:10DC54001377F70F8506E313F7F3B640264496448B
:10DC64000649F259625A6161828097560000938690
:10DC740066D39C42D847131617016355060298478A
:10DC840013161701635006027D57B8D717570000C3
:10DC9400130747AE584F050717560000232AE6AE70
:10DCA400116798C798470D83058B1DC3175700004C
:10DCB4000347A7CD13671700175600002307E6CCC8
:10DCC400130700F8175600002302E6CC214798C733
:10DCD4009847058B09CF175700000347F7CA136706
:10DCE400170017560000A301E6CA054798C79847CE
:10DCF4000983058B09E798470583058B31CF98473E
:10DD040017560000130646C817550000130505C72B
:10DD14000983058B630307101841184331830D8B66
:10DD240075EBAC4B184E93F5050203471700CDCDA8
:10DD340079EF13077006D8CF03470600136717005F
:10DD4400175600002302E6C4114798C718415C57D0
:10DD5400F19B93E717005CD79C42984793163701D1
:10DD640063D606029756000083C606D6C18A1757A3
:10DD74000000130727CEC5CE0347470713670702E2
:10DD8400975600002382E6D4056798C798479316F0
:10DD9400270163D1060217570000034727BF620714
:10DDA4006187635707000547975600002380E6BE46
:10DDB400096798C798479316070163D606029756D2
:10DDC400000083C676D0858A17570000130787C8DA
:10DDD400ADCE034757071367270097560000A38566
:10DDE400E6CE216798C7828029D785456315B70099
:10DDF4001307B00689B789456315B7001307F00602
:10DE04001DBF8D456315B700130730072DB71307E2
:10DE1400500715B71307600739BF03473600136768
:10DE2400170017560000A302E6B6094739BF834618
:10DE340047070946BD8A6388C600034747078D46DE
:10DE44003D8BE313D7F4114725BF83465707918AC7
:10DE5400C9DA034757071367870041B7397106DEEC
:10DE640016DC1ADA1ED82AD62ED432D236D03ACEBE
:10DE74003ECC42CA46C872C676C47AC27EC0F53366
:10DE8400F250E2525253C2533255A25512568256A0
:10DE94007247E2475248C248324EA24E124F824F56
:10DEA400216173002030175700001307E7AF834642
:10DEB400B7019757000083C7F7B14C4BB697FD8B5A
:10DEC40033D7F50097560000A380F6AE97560000AE
:10DED400A382F6B0058B15EF175700000347D7AFA1
:10DEE400B3F7E702814601471305000233D6E50084
:10DEF400058A1378F70F19CA6397D700975700005C
:10DF0400A38407AB8280850693F6F60F0507E31F0B
:10DF1400A7FC8280975700009387878F9C43011149
:10DF240022CC4EC606CE26CA4AC852C456C28297CE
:10DF340097570000938747A9804781496305A40642
:10DF4400BE849757000093876788038767013E89DB
:10DF540063550706018D135455009757000083C776
:10DF640047A69379F501636DF402370AC0A8B70A8E
:10DF74004057153F9C449756000083C686A41397C8
:10DF840056003E9783076901158C63C507006363D8
:10DF9400470156979757000023ACE7A2E37BD4FCD4
:10DFA4001604B3693401F24062444E85D2444249B6
:10DFB400B249224A924A05618280E37D85F8B70717
:10DFC400C0A833848740229579B797570000938778
:10DFD40027849C43411122C406C626C282979757C0
:10DFE40000009387679E80476309A406BE84974711
:10DFF40000009387A77D8387670163D80704018D99
:10E00400135455009757000083C7A79B6367F40414
:10E01400593D98449757000083C7A79A9396570091
:10E0240036971D8C9756000023A4E69AE372F4FEFB
:10E034002244B2409244175500000345F5968145A9
:10E04400410117B303E06700E318E37A85FAB707E1
:10E05400C0A833848740229565B7B24022449244D5
:10E064004101828097570000938787989843B75758
:10E0740002009387079F8326070913965600635867
:10E084000600832607091396660063440600FD17FD
:10E09400FDF3828071C5AA870145E9C58D07C207D2
:10E0A400C183F19BC207C18313074003636FF70267
:10E0B400175700001307C7990843175700001307A1
:10E0C400A79814436398A602174700001307077024
:10E0D400185B014541CB4111C20706C60545DD8DDC
:10E0E4000297B2400145410182801757000013078F
:10E0F400E795D9B70357650035E303574500636FC8
:10E10400F704B306F7402146637CD60203280500D2
:10E11400938687001D8FAA96611717460000035641
:10E12400C6652392E60023A006012393060014C1CA
:10E134002312F500130786FF97460000239FE6622B
:10E144002313B5009745000083D52563B387F540B5
:10E15400174700002313F7622105828008419DB709
:10E164000145828082800DC1975700009387478EB6
:10E1740003A30700975700009387078D83A8070020
:10E1840081469A8763E31701828003A80700636DC1
:10E19400F50A636BA80A13878700E367E5FE03D6D5
:10E1A4006700216705076317E60003C7019A05079F
:10E1B4002380E19A974500009385C55B03D6470009
:10E1C40003D765002393070032974207418317451D
:10E1D40000002314E55A638A6702175500001305EB
:10E1E400E58608416303F50203D5660019ED83D77C
:10E1F400460023A0060121073E9621062392C6006D
:10E2040097470000239BE756B6879843E30E17F71A
:10E2140097560000938686839442E307D7F6835685
:10E224006700BDF283D64700035647001843A10692
:10E23400B2962392D70098C383D76500A1071747E6
:10E244000000231CF7528280BE86C28725BF0111BD
:10E25400975700009387078022CC03A4C70B26CAD4
:10E264004AC84EC606CEAA8413092500854915C09E
:10E2740083C7140003473400858B6304F700405CB4
:10E28400FDB71946930544004A85EFE0CFFEE31835
:10E2940035FF2285F2406244D2444249B2490561C5
:10E2A40082804111974700009387C77A22C403A450
:10E2B400C70B26C24AC006C693042500054901E8D7
:10E2C4002285B24022449244024941018280A685BB
:10E2D4001305A402977004E0E78000A7E30225FF7A
:10E2E400405CF1BF4111974700009387A77622C491
:10E2F40003A4C70B26C24AC006C6930425000549D9
:10E3040001E82285B24022449244024941018280BC
:10E31400A6851305A401977004E0E780E0A2E30258
:08E3240025FF405CF1BF000081
:10E330009751FF1F938101B717A1FF1F130181CCD4
:10E3400017E5FFFF130545CC9725FF1F938585CB68
:10E350001746FF1F130686FD63FAC50083220500DA
:10E3600023A0550011059105E3EAC5FE17750400C9
:10E370001305C53B9745FF1F938545FB1386018712
:10E3800063FAC5008322050023A0550011059105FD
:10E39000E3EAC5FE138501879785FF1F9385857D79
:10E3A0006377B500232005001105E36DB5FEFD423E
:10E3B000739002BC8D4273904280B722000093821A
:10E3C000828873A002309722FF1F9382A2C393E238
:10E3D000320073905230971201009382E2C573901D
:10E3E0001234730020303D432A876373C30293774E
:10E3F000F700BDEFADE5937606FF3D8ABA960CC3F4
:10E400004CC30CC74CC74107E36BD7FE11E28280B7
:10E41000B306C3408A069702000096966780A6005E
:10E420002307B700A306B7002306B700A305B7006C
:10E430002305B700A304B7002304B700A303B70064
:10E440002303B700A302B7002302B700A301B7005C
:10E450002301B700A300B7002300B700828093F523
:10E46000F50F93968500D58D93960501D58D61B7EF
:10E47000939627009702000096968682E78086FA98
:10E480009680C1171D8F3E96E374C3F8A5B7336716
:10E49000B500FD530D8B79E7B7877F7F9387F7F73B
:10E4A00010419441B372F6003363F600BE92B3E2BA
:10E4B00062006397720C6318D6065041D441B37260
:10E4C000F6003363F600BE92B3E262006398720A0C
:10E4D000631BD60410459445B372F6003363F6000F
:10E4E000BE92B3E262006391720A631ED602504587
:10E4F000D445B372F6003363F600BE92B3E2620015
:10E50000639A72086311D60210499449B372F600F7
:10E510003363F600BE92B3E2620063937208510562
:10E52000D105E30FD6F61317060193970601631C76
:10E53000F7001357060193D706013305F74093758B
:10E54000F50F91E982804183C1833305F7409375CC
:10E55000F50F91E182801377F70F93F7F70F3305EB
:10E56000F74082800346050083C605000505850542
:10E570006313D60065FA3305D640828011059105F4
:10E58000E312D6FE014582802105A105E31CD6FCDD
:10E59000014582803105B105E316D6FC0145828034
:10E5A0004105C105E310D6FC0145828001471146B3
:10E5B0004148B386E5008147B308F50083C80800E9
:10E5C0008507C10623A816FFE398C7FE11071105AA
:10E5D000E31107FF8280935785019CC19357054142
:10E5E00093F7F70FDCC19357854093F7F70F137537
:10E5F000F50F9CC5C8C582801C4141111307050158
:10E600003EC05C413EC21C453EC45C453EC693973D
:10E6100025001408B69783A707FF85051105232E4B
:10E62000F5FE8D89E315E5FE41018280397122DC1A
:10E6300041661384C1A106DE26DA4AD84ED652D4EA
:10E6400056D25AD05ECE93050501A2863708FF0048
:10E650007D1683070500034735001105E207D98FB2
:10E660000307D5FF9106420733770701D98F0307C8
:10E67000E5FF2207718FD98F23AEF6FEE39BA5FC41
:10E6800081499144930A0101172B0400130B4B9409
:10E69000972B0400938B4B91130AC00293F734001D
:10E6A000032904004844BDE78A85353785450A8536
:10E6B000A1370A871C43110793F6F70093F7070F5A
:10E6C000DA97B69783C70700232EF7FEE394EAFE96
:10E6D000024592476205C2075D8DB2475D8DA24734
:10E6E000A2075D8D93972900DE979C4385093D8D98
:10E6F0003345250108C885041104E39144FBF25019
:10E700006254D2544259B259225A925A025BF24B85
:10E71000216182803345A90008C8F1BF797122D4F4
:10E7200026D24AD04ECE52CC56CA06D62A8A9399C1
:10E7300045000144938AC1A113090101C144B307F3
:10E740003401D69788438A85793533078A008A87CA
:10E750001443904391074107B18E2328D7FEE399D4
:10E7600027FF1104E31D94FCB25022549254025925
:10E77000F249624AD24A45618280397122DC13042F
:10E78000050106DE22878147C1460C433306F100AE
:10E7900011070CC24C4710083E960CC24C4F10108B
:10E7A0003E960CC29107E392D7FE85450A85A935AE
:10E7B0008945080891358D4508103D3D8147414701
:10E7C000B306F10094421104232ED4FE1408BE9621
:10E7D000944254C41410BE969442910754CCE391D1
:10E7E000E7FEF2506254216182800605937705109E
:10E7F00089C71375F50F1345B5018280411106C60F
:10E80000ED37B2404101D5B781471148C148338641
:10E81000F500B306F500014703AE06003303E6003A
:10E8200005072300C301C106E31807FF9107E39022
:10E8300017FF8280930605011726040013064689F8
:10E8400013050505138706FF1C43110793F5F70011
:10E8500093F7070FB297AE9783C70700232EF7FEF3
:10E86000E394E6FEC106E31FD5FC82801C41411102
:10E87000FD563EC05C413EC21C453EC45C453EC6A2
:10E880008D47B385B7409307C5001397250010083F
:10E890003297032707FFFD1598C36393D5008D4575
:10E8A0001387C7FF6314F50041018280BA87F1BF67
:10E8B000397122DC1304050106DE22878147C14637
:10E8C0000C433306F10011070CC24C4710083E966A
:10E8D0000CC24C4F10103E960CC29107E392D7FE2B
:10E8E00085450A8561378945080849378D450810EF
:10E8F000B53F81474147B306F10094421104232EEE
:10E90000D4FE1408BE96944254C41410BE96944289
:10E91000910754CCE391E7FEF2506254216182806A
:10E9200093060501171604001306866A13050505EC
:10E93000138706FF1C43110793F5F70093F7070FA2
:10E94000B297AE9783C70700232EF7FEE394E6FE47
:10E95000C106E31FD5FC8280411122C406C626C22F
:10E9600085472E846301F50289476318F500224428
:10E97000B24092442E8541018DBD8D47631BF50049
:10E980002E85A535298C2285B2402244924441012E
:10E990008280A5476315F5002E858D35DDB7AD471F
:10E9A000631AF5002E85993D8935AA842285353D67
:10E9B000258DC9BFB5476316F5002E858135AA841C
:10E9C000FDB7B947E311F5FC2E850D3DAA84313D15
:10E9D000A98C2285193D3344950075B7597186D6A7
:10E9E000A2D4A6D2CAD0CECED2CCD6CADAC8DEC67F
:10E9F000E2C4E6C2930605040A87AA879043C107CA
:10EA000041072328C7FE03A647FF232AC7FE03A604
:10EA100087FF232CC7FE03A6C7FF232EC7FEE39F55
:10EA2000D7FC171904001309A97E130A05019309DD
:10EA30000505832C0900032C4900832B8900032B37
:10EA4000C900930A0AFF8A848C406685910A293797
:10EA50008C482A84628509378C50298C5E85ED3D6F
:10EA60008C58298C5A85CD3D218D23AEAAFE910468
:10EA7000E31C5AFD410A4109E39D49FBB650265467
:10EA800096540659F649664AD64A464BB64B264C2A
:10EA9000964C656182806382051493F7F500639E4E
:10EAA00007121571D6C3AA8A3285A2CDA6CB86CF0E
:10EAB000CAC9CEC7D2C5DAC15EDF62DD66DB6AD9FC
:10EAC0006ED73284AE84EFD0B371C147631EF500B8
:10EAD0002285A93E0149130A0106971B0400938B66
:10EAE0002B73294C63419902FE406E44DE444E492B
:10EAF000BE492E4A9E4A0E4BFA5B6A5CDA5C4A5D5E
:10EB0000BA5D2D618280338B2A010C105A85793CC5
:10EB10008145081021318549081019350810B1398F
:10EB20001C10D2863E8710434107C10623A8C6FEAB
:10EB3000032647FF23AAC6FE032687FF23ACC6FE93
:10EB40000326C7FF23AEC6FEE31FEAFC1717040027
:10EB50001307076803280700832D4700032D87004C
:10EB6000832CC7005284138607010C4042853ECE99
:10EB70003ACC32CA42C8CD330C482AC66E85E93B2E
:10EB8000B2460C501104A98E6A8536C6F133B246DE
:10EB90004C54A98E668536C6C133B246F2475246FA
:10EBA000358D88C3910742486247E310F6FC410760
:10EBB000B287E391EBFACE85081085098536E39D8F
:10EBC00089F50810B13B08104D3EA9450810B9362B
:10EBD000DA8508101539410931B78280638D051037
:10EBE00093F7F500639907105171CECFAA8932854A
:10EBF000A2D5A6D386D7CAD1D2CDD6CBDAC9DEC7A5
:10EC00003284AE84EFD0D35DC1476319F50022850D
:10EC1000313C0149138BC1A1634D9900BE502E5464
:10EC20009E540E59FE496E4ADE4A4E4BBE4B6D61F4
:10EC30008280338A29018C0052858D3AA94588004B
:10EC4000F13C1384C1AAC14A930B00048800DD364D
:10EC50008800B9398800593308408A85AD3A484060
:10EC60000C08953A08440C10BD3248440C18A532E3
:10EC700018018147B306F100944241072328D7FECB
:10EC80001408BE969442232AD7FE1410BE969442CE
:10EC9000232CD7FE1418BE9694429107232ED7FE3C
:10ECA000E39A57FD08011D3B01479C003385E700AF
:10ECB0001C01B305F70081473306F5003388F500E2
:10ECC0001442032808009107B3C6060114C2E39555
:10ECD00057FF4107E31B77FD4114E31964F78800F0
:10ECE000913E8800F136814588000D3CD285880030
:10ECF000213E410915B782809307F00F6385F60A1C
:10ED00002D71232A911023282111B2842326311139
:10ED1000130600102E89AA89930530020A85232E36
:10ED20001110232C81103684EFF0EFEBA28526859D
:10ED3000EFB0107213178500935785003365F70005
:10ED40002310A100A6852286130531009304340008
:10ED50002301810093F4F40FEFC0F36693F6F400FF
:10ED600089C64D04158C9374F40F1C02A697A685D2
:10ED70000A85171604001306664F238007F0213B0F
:10ED800026868A854E85EFC0136423009900832070
:10ED9000C111032481118324411103290111832905
:10EDA000C110156182808280797122D432844AD068
:10EDB0004ECE2A89AE892285B68517160400130621
:10EDC000E64A26D252CC06D636C6093DB246130ACA
:10EDD00034005285A29623800600834404008347B2
:10EDE000140083452400A204DD8CEFB07066639AA2
:10EDF000A40203462400D2854A852380C900EFD0AF
:10EE0000134225459715040093858544EFB010689B
:10EE10000545B250225492540259F249624A456162
:10EE200082802380090025452300090097150400EE
:10EE30009385C542EFB090650145E1BF411106C61B
:10EE4000EF80205FB240AA86171704001307074817
:10EE50001756FF1F1306D6EB9715040093854548F8
:10EE6000114541016FB05077130101DB2324812448
:10EE7000232021252326112423229124232E3123EC
:10EE8000232C4123232A51232328612303470500F0
:10EE9000930710042A892E84631DF7640347150025
:10EEA000930740056317F764034725009307E005C0
:10EEB0006311F7642E86AA852545EFB09067130687
:10EEC000D003A2854A85EFB0B07EAA84635A0500BC
:10EED0003546A2854A85EFB0B07DAA846344050813
:10EEE0009389D4FF9307100363CE37074E869305AB
:10EEF00039002808EFD0B3321C1CBE99171A040041
:10EF0000130A4A6A238409DED28A81494D4B83253C
:10EF10004A002808EFB090730DC18E09D69983D7A7
:10EF200009004947636FF7001717040013074735B7
:10EF30008A07BA979C43BA9782878509210AE39882
:10EF400069FD9715040093852565CDA89305F4FF09
:10EF5000858D13851400C20581460146C1814A95FD
:10EF6000EF30F0478320C1240324812483244124EB
:10EF7000032901248329C123032A8123832A4123CE
:10EF8000032B01231301012582801306F4FF058E54
:10EF90009385140042064182CA95E800EFC08019AB
:10EFA0001305D104EFD0D32393150501C1811305B7
:10EFB000D104EFC08026971504009385A53313056F
:10EFC000D104EFB0B06819CD9715040093850533CF
:10EFD0000545EFB0B04B1755FF1F0345E572EF60D5
:10EFE000A06949B797150400938585321305D104AC
:10EFF000EFB0D06519CD971504009385E53105452F
:10F00000EFB0D0481755FF1F03450570EF608069CA
:10F0100091BF97150400938525311305D104EFB0F6
:10F02000F0620DC1371700408327C70AA166971504
:10F0300004009385E52FD58F2326F70A2545EFB0E9
:10F04000F0440DB7971504009385452F1305D1049F
:10F05000EFB0D05F11CD371700408327870AA16634
:10F06000971504009385052ED58F2324F70AF9B749
:10F07000971504009385852D1305D104EFB0105D1D
:10F0800011CD371700408327C70A916697150400F2
:10F090009385852CD58F2326F70A4DB79715040045
:10F0A0009385852C1305D104EFB0505A11CD371735
:10F0B00000408327870A9166971504009385852B66
:10F0C000D58F2324F70A9DBF971504009385852BC0
:10F0D0001305D104EFB09057971504009385452B85
:10F0E00031FD971504009385652B1305D104EFB00E
:10F0F000F055971504009385252B29F197150400E9
:10F100009385452B1305D104EFB0505411C5975783
:10F11000FF1F23A90760B9B5971504009385452AF9
:10F120001305D104EFB0905201C5EF60D0431DBD6F
:10F1300097150400938585291305D104EFB010516C
:10F1400001C5EF60704939BD971504009385C52846
:10F150001305D104EFB0904F01C5EF60100719B54A
:10F1600097150400938505281305D104EFB0104EC0
:10F1700001C5EF900045FDB3971504009385052761
:10F180001305D104EFB0904C01C5EF90E043D9BB1B
:10F1900097150400938505261305D104EFB0104B95
:10F1A00001C5EF90C0427DBB974504009385C5CC57
:10F1B0001305D104EFB0904901C5EFB0402D5DB308
:10F1C000971504009385C5231305D104EFB01048AB
:10F1D00001C5EFF0403579B3971504009385C5223A
:10F1E0001305D104EFB0904601CD9757FF1F83D789
:10F1F000E7500567D98F1757FF1F2311F7509DB3AD
:10F2000097150400938585201305D104EFB01044B1
:10F2100009C9FD771757FF1F0357474EFD17F98F91
:10F22000D9BF0346D104A547130606FD1376F60F92
:10F23000E3EAC7D29757FF1F2380C74E97150400F4
:10F240009385051D0145EFB0303929BB1306F4FF46
:10F25000058E13851400420641829725040093858C
:10F26000A5154A95EFB030521754FF1F13040449F7
:10F2700029C183570400971504009385A51AE80057
:10F2800093E717001757FF1F231AF746EFD0237491
:10F29000E800EFD0E37413160501EC0041821385FA
:10F2A000C171EF805032971504009385651911459F
:10F2B00079B39715040093856519E800EFD02371A1
:10F2C000E800EFD0E37113160501EC0041821385CD
:10F2D000C171EF80502F8357040097150400938568
:10F2E000A518F99B1757FF1F231AF740C9B7B9365E
:10F2F00095B91306F4FF058E13851400420641826A
:10F30000972504009385450B4A95EFB0D0471754D5
:10F31000FF1F1304A43E31C597150400938585157E
:10F32000E800EFD0C36AE800EFD0836B1316050145
:10F330004182EC001385C171EF80F028971504001D
:10F34000938505161145EFB07014835704004145AD
:10F3500093E717001757FF1F2312F73AEFC0A05289
:10F3600011B197150400938565141145EFB0101283
:10F3700041657D15EFC0005483570400F99BA5BD7E
:10F38000EF80C0089757FF1F93874737C85FEFC0CC
:10F39000A357AE862A86971504009385E51111457B
:10F3A000EFB09023C1B6EF60E04C6DBE17260400AD
:10F3B00013060601971504009385C510114561B524
:10F3C000EF80A00A9715040093858510E31105EEE0
:10F3D000971504009385C510D9BD3545EF9080136E
:10F3E000AA84EFC063522A86AE862545971504008D
:10F3F00093854510EFB0501E97170400938747EF91
:10F400008843A6851754FF1F13048486EFB07365E5
:10F410002322A428EF80C00F03254428EFC0C34E49
:10F42000AE862A86971504009385850D8DBF81458C
:10F430000D45EF601000EF70107F2A8697150400CD
:10F440009385C50EA5BF81453145EF60807E81451E
:10F450003945EF60007E81453545EF60807DEF7076
:10F46000F07C2AC6EF70507DB2462A871756FF1FE0
:10F470001306168A971504009385450C1145EFB0C5
:10F48000B015CDB41757FF1F035767A69756FF1F38
:10F49000938656891756FF1F130696879715040003
:10F4A0009385050CE1BF85471757FF1F230DF7A470
:10F4B000EF800006971504009385C50BCDBB175749
:10F4C000FF1F034747A48547971504009385050B45
:10F4D000E31FF7DCC5B79757FF1F93872722885F85
:10F4E000EFC08342AE862A8697150400938585096E
:10F4F0007DB50146A2854A85EF608056A5B4797135
:10F50000B1472300F1009307170022D4A300F100B4
:10F5100006D62301C1002A848D4715C7814713866B
:10F52000370008101376F60F2A963385F600034548
:10F53000050085072300A6FE13F6F70FE311E6FE8C
:10F540000D079377F70F81460147850613F6F60FEF
:10F550006368F6041410BE962380E6FE1387170036
:10F5600014101377F70F3697B5462300D7FE93860E
:10F57000270093F6F60F0A862285EFF06006DD4736
:10F58000631CF50025459715040093852564EFB0AD
:10F59000E06F2285EFF0C002B250225445618280B4
:10F5A0003306D1000346060032971377F70F71BF79
:10F5B00085472A86AE8663E3A70293078002330756
:10F5C000F5029387C1AC2545BA9798474D8F98C7E8
:10F5D00097150400938545606FB01000828041113B
:10F5E00022C406C683C731AD2A8481C7AA850145D6
:10F5F000C13783C7B1AF99C7A2852244B240054540
:10F6000041017DB7B24022444101828085472A866C
:10F61000AE8663E5A702930780023307F50293875E
:10F62000C1AC93C5F5FF2545BA9798476D8F98C72C
:10F63000971504009385050E6FB0007A8280411102
:10F6400022C426C206C683C731AD2A849384C1ACC6
:10F6500091CB98449347F5FFAA85F98F014523AADA
:10F66000F1AC6D3783C7B1AF91CF9C581347F4FF0E
:10F67000A2852244B2409244F98F23AEF1AE0545F3
:10F68000410169B7B2402244924441018280011194
:10F690004EC606CE22CC26CA4AC883C931AD63887D
:10F6A000090683C7B1AF7D54B9EB8549054493077B
:10F6B0008002B307F4021384C1AC2E89AA84130616
:10F6C000800281453E9422859710FF1FE7806035B8
:10F6D0008547A303F40022851946A6859710FF1FCE
:10F6E000E780A030CA85230324012685EFF06077E8
:10F6F000B74507002A849385F5804E85553D2285C0
:10F70000F2406244D2444249B249056182800144D8
:10F7100079BF011119468145280006CE9710FF1FB9
:10F72000E78020301306000581451385C1AC971092
:10F73000FF1FE780002F19469745FF1F9385A57887
:10F7400028009710FF1FE780403385476308F500C6
:10F7500081451745FF1F13050577153F1946974546
:10F76000FF1F9385A57628009710FF1FE780E030E4
:10F7700085476308F50081451745FF1F130505758B
:10F7800039379747FF1F83C7F77399C3EFC0C07717
:10F79000F24005618280411106C6EFF0C075B240AB
:10F7A0001306000581451385C1AC41011713FF1FE6
:10F7B00067002327854763E2A70293078002B30708
:10F7C000F5021387C1AC0145B306F70083C6760086
:10F7D00091C6B1073305F7008280014582803971F7
:10F7E00006DE22DC26DA4AD84ED652D456D283C759
:10F7F00011876147636BF7088507A388F1869747F0
:10F80000FF1F83C7E76BADCB1384C1AC1389C1B1B4
:10F8100085449759FF1F938969EE130AC003971A0D
:10F820000400938AEAED83477400B9C78347040252
:10F83000638497045C4C03A7C9021D8F9747FF1F81
:10F8400083C70768B38747036364F7021305002083
:10F8500023009402EFC0C01E19466C002285EFB051
:10F86000E07B7000D6852545230C0100EFB0C05623
:10F8700013048402E31924FBF2506254D254425917
:10F88000B259225A925A216182800D45A38801867D
:10F89000B933B5B75D71CAC01389018783470900C1
:10F8A00052DC56DA858B416A856A4EDE5AD85ED6BE
:10F8B00086C6A2C4A6C22388F186054B9389C1AC33
:10F8C000930B80027D1A938A0A8003C50187636ABD
:10F8D000AB0C330575034E95044599CC83477500F1
:10F8E00081CFEFF060692A8411ED971504009385AC
:10F8F000E5102545EFB08039834709008507238847
:10F90000F186E1B783470500918BFDD783568500CB
:10F91000E38446FF03C60187971504009385450FCE
:10F920002545EFB0604B9397C40063DF070893064B
:10F930007100130661009307910038009305510090
:10F940001305A100EF8070158357A100130740062F
:10F95000971504009385050EB3F7E70225452306A6
:10F96000F10083475100A306F1008347610023079C
:10F97000F10083477100A307F1008347810023084A
:10F98000F10083479100A308F100EFB02030194740
:10F9900074001306800A8355E40003558400EFF0D9
:10F9A0001FB683C7018709476385E700850723885A
:10F9B000F186B640264496440649F259625AD25A14
:10F9C000425BB25B6161828093F7140081CF97152F
:10F9D0000400938565072545EFB0402B014774006F
:10F9E000254655BF93F7240081CF971504009385D2
:10F9F00065072545EFB0802901477400194661BFAE
:10FA000093F7041085CB97150400938525072545AA
:10FA1000EFB0C02703C50187930780023305F502C5
:10FA200050006C004E95EF00506603474100740093
:10FA3000094695B793F7042085CB97150400938565
:10FA400025052545EFB0802403C501879307800273
:10FA50003305F50250006C004E95EF00106303472C
:10FA6000410074000D4605BF93F7044081CF971500
:10FA70000400938565032545EFB0402101477400DC
:10FA8000054611BFB3F7540185C797150400938548
:10FA9000E5022545EFB0801F9747FF1F9387471D5D
:10FAA00083C71725054774002306F1001146E5B505
:10FAB0009397340163D90702971504009385C50114
:10FAC0002545EFB0A01C9747FF1F9387671A83D780
:10FAD000272874001D4613978700A183D98F23160A
:10FAE000F10009474DBD9397240163D5070297158F
:10FAF0000400938525002545EFB040199747FF1F67
:10FB00009387071783C70725054774002306F1006D
:10FB1000354651B59397140163DD0700971504002E
:10FB2000938585FF2545EFB060160547740039467B
:10FB30009DB593F7440081CF97150400938505FF89
:10FB40002545EFB0A014014774001546A9B593F7F9
:10FB5000840081CF971504009385C5FE2545EFB03D
:10FB6000E0120147740021463DB59397040163DD1F
:10FB70000700971504009385A5FE2545EFB00011F9
:10FB800005477400414601BD9397F40063DB07020B
:10FB900097150400938545FE2545EFB0200F1747C4
:10FBA000FF1F1307E70C035727259747FF1F83C73E
:10FBB00067312307F1002316E10074000D474D461D
:10FBC000D9BB9397E40063DD070097150400938584
:10FBD00065FC2545EFB0800B01477400514665BBBD
:10FBE0009397D400E3DA07D097150400938545FC7A
:10FBF0002545EFB0A00901477400554669BB9547FC
:10FC000063F5C74A5971A6D2CECED2CC86D6A2D43D
:10FC1000CAD0D6CADAC8DEC6E2C4E6C2EAC06EDE20
:10FC2000328AAE89EFF0803CAA8463060512194639
:10FC30009385C1AC9710FF1FE78020E40544630B58
:10FC400085121946938541AF26859710FF1FE780DF
:10FC5000C0E263128510930A8002B3075403938AAB
:10FC6000C1AC856B814D175DFF1F130D2DA9171BAF
:10FC70000400130B2BAC938B0B80BE9A5689B38474
:10FC8000B90103C70400B1476312F70C13874D0095
:10FC90006353470D83CC1400138C3D00B3079C01C4
:10FCA00063D6470BCE9783C60700B5476390F60A25
:10FCB000814781463386F40003461600850793F793
:10FCC000F70FB29693F6F60FE3F6FCFEB3879401B6
:10FCD00083C72700639CD7068327CD02834609028A
:10FCE000232EF90085476397F602130500403AC6B4
:10FCF000EFB0105519466C085685EFB020327008E9
:10FD000097150400938585A3254523040102EFB0D0
:10FD1000A00C32472300090283C73400A546638E36
:10FD2000D72463E5F60A1147638DE71A6366F70483
:10FD300005476389E7126389071089466381D714F1
:10FD40008D466387D716669C937DFC0F850D93FDCA
:10FD5000FD0FE3E64DF3B650265496540659F64986
:10FD6000664AD64A464BB64B264C964C064DF25D3B
:10FD7000656182800144C5B519476388E71A63EB62
:10FD8000E7161D476382E71E2147E39EE7FA83C714
:10FD9000440003C55400A2075D8DEFB0E33E032687
:10FDA0000B0083264B00EF90B376EFB0B340232CCB
:10FDB000A900EFB073352A86AE8625459715040055
:10FDC0009385C5A9EFB04001A14575A0BD46638BE1
:10FDD000D72263E6F6022D476387E71E63EEE71C32
:10FDE00035476388E7203947E39FE7F49715040018
:10FDF0009385C5B12545EFA070699165ADA8D14641
:10FE0000638ED72263E1F60241476380E7224D47C4
:10FE1000E39BE7F2971504009385C5B52545EFA050
:10FE2000F066C16589A8D546638FD7241307800A79
:10FE3000E39BE7F097150400938585BA2545EFA06D
:10FE4000F064B705080005A883C7440003C6540042
:10FE5000971504009385858FA2075D8E2545EFA039
:10FE6000B077D5B597150400938505902545EFA08B
:10FE7000F061930500402285EFF04FF9E9B583C7A3
:10FE80004400639FE7002545971504009385058F7F
:10FE9000EFA0D05F0965EFB0B03A93050010E1BF65
:10FEA000971504009385058F2545EFA0305EF5B7C3
:10FEB00083C74400639FE700254597150400938599
:10FEC000A58EEFA0B05C5E85EFB090379305002063
:10FED0005DB7971504009385A58E2545EFA0105BAF
:10FEE000F5B7971504009385E58E2545EFA0105AC8
:10FEF000DE8551B703C54400EFB0032903260B008C
:10FF000083264B00EF90D360EFB0D32A232AA900B9
:10FF1000EFB0931F2A86AE8625459715040093857A
:10FF2000A58DEFA0706B9145B9B783C7440003C599
:10FF30005400A2075D8DEFB0232503260B00832616
:10FF40004B00EF90F35CEFB0F3262328A900EFB04D
:10FF5000B31B2A86AE862545971504009385458CEC
:10FF6000EFA09067894501BF971504009385058D23
:10FF70002545EFA0B0518565FDBD83C7440003C58D
:10FF80005400A2075D8DEFB0232003260B008326CB
:10FF90004B00EF90F357EFB0F3212326A900EFB009
:10FFA000B3162A86AE862545971504009385858D60
:10FFB000EFA090628545C1B503C6440097150400C3
:10FFC0009385058E61BD971504009385E58E2545C3
:10FFD000EFA0D04B971504009385C58F2545EFA062
:10FFE000F04A1165EFB0D02591652285EFF04FDC26
:10FFF00099BB971504009385258F2545EFA01049DF
:020000021000EC
:10000000896595BD97150400938505922545EFA058
:10001000F047971504009385E5922545EFA010471A
:100020002165EFB0F021A165C9B79715040093854C
:1000300065922545EFA09045A16535BD93845D008F
:10004000990DB387E900CE94CE9D03C6070003C780
:100050000D0083C60400971504009385E59325459C
:100060003EC6EFA07057B247B705020083C707002E
:10007000A300F90283C704002301F90283C70D001E
:10008000A301F902CDBBB384E90003C604009715B0
:100090000400938525932545EFA0105483C70400E1
:1000A000B70504002302F902F9B38280411122C48A
:1000B00021649305048099460146254506C69700AC
:1000C000FF1FE780E05B930504802244B24099461D
:1000D00013864187294541011703FF1F6700435AD3
:1000E00099E10145828075DD011152C403DA8187EF
:1000F00026CA93548A008504A204C204C18056C251
:10010000B38A4441C20A22CC4AC82E862E842A8948
:1001100097150400938505BC254593DA0A014EC660
:1001200006CE93894187EFA0304B63ED8A0883D5D3
:10013000818793F7F50FB1CF8D6783D5818793873B
:100140000780A2864A86BE9529459700FF1FE78053
:1001500020531375F50F29ED83D749001566A29733
:10016000239CF18603D7818783D761876309F700D2
:1001700063F3E700B297998F1396070141822545F3
:1001800097150400938585B6EFA010451375F40FFD
:100190000DA08D6793870780930600100146BE95DA
:1001A00025459700FF1FE780A04D1375F50F49D532
:1001B0000145F2406244D2444249B249224A924A3D
:1001C00005618280B3079440D297C207C183A1839F
:1001D00003C74900850793F7F70F9396870011EB44
:1001E0009386170093740AF0A206C204C206C18067
:1001F000C18283D7618763F6F40033879600E3C931
:10020000E7FA0D6A130A0A800146B38544012545C1
:100210009700FF1FE780C0461375F50F51F983D58E
:100220008187A2864A86D29505B7411122C41384DC
:10023000418722858145194606C69700FF1FE78042
:10024000407E9307B0FA2300F4008D352244B2407B
:1002500097150400938585A0254541016FA01023C3
:10026000A1654111994613864187938505802D45E7
:1002700006C69700FF1FE780A04003C7418793078A
:10028000B00A6303F7005537B24083D6818703D69F
:100290006187971504009385259D254541016FA031
:1002A000B03383D7C1B10145638C071003D5E1B1E9
:1002B0006366F50023AE01B0014582803385A74017
:1002C000D1473355F5021375F50F01E5239E01B0B3
:1002D0008280130101BD232481422326114223225F
:1002E000914223202143232E3141232C4141232AB3
:1002F000514195471374F50F63F3A7001544228607
:1003000097150400938545A02545EFA0F02C0149E1
:100310008144938901B2514AA14A9377F90F03D5D9
:10032000E1B11747FF1F034777AC63E98704D14763
:100330003304F4022A94239F81B0A147631CF7067B
:10034000A6850808EF40806803D7E1B183D7C1B123
:1003500005456364F70023AE01B08320C142032446
:10036000814283244142032901428329C141032A56
:100370008141832A4141130101438280B30749032C
:100380001408AA97CE9733859600631E5701BE8541
:10039000EF4050032317A1008357E1000509BE94E5
:1003A000C204C1809DBFAA851306E1003E85EF808F
:1003B000705ADDB726860C080145EF60F06E69B70C
:1003C0008280011106CE22CC26CA4AC84EC691E9C7
:1003D00001442285F2406244D2444249B249056157
:1003E0008280AA8975D583D7818703D661872E84B9
:1003F0009564638AC7006374F60015673A961D8E8C
:1004000093140601C1802686971504009385058202
:100410002545EFA0701C938714F06356F4009307F2
:10042000F00F63EA9700971504009385A581254591
:10043000EFA0901A71BF83D48187338784009567BA
:1004400063C9E700A2854E85EFF09FC9EFF01FC694
:1004500049B7156933099940420913590901CA85F9
:100460004E85EFF0FFC72DD5ED75A695A295C20577
:10047000239C0186C18133852901F9B783D6C1B197
:1004800081EA971504009385658225456FA01000C9
:1004900003D6E1B14111918E971504009385058231
:1004A000254506C6EFA050131387C1B18355070039
:1004B00083D7E1B1138501B29D8DC2053E95C181FF
:1004C0000937B24023AE01B041018280411183D788
:1004D000C1B122C426C206C6AE971307401FAA8424
:1004E0002E84635AF700593F970504009385C57918
:1004F0002545EFA0A07983D7C1B1138501B222862B
:10050000A6853E95EFB0236C03D6C1B12296420674
:100510002244B24092444182239EC1B09705040018
:1005200093850578254541016FA0100B011126CA5E
:1005300006CE22CC4AC84EC652C456C2814459C1C6
:10054000D1C183D7618703D48187638D870663F523
:1005500087081D8C42044180AE892A89228697052E
:100560000400938525690145EFA01007A28463F379
:100570008900CE84C2040D6A83D7618703D781873F
:10058000C180938A4187130A0A8063FAE704A6862A
:100590004A86B38547012D459700FF1FE780400E2F
:1005A00083D72A00A697239BF186EFF03FB083D62E
:1005B000818703D66187970504009385E564254507
:1005C000EFA09001F240624426854249D244B249EC
:1005D000224A924A0561828015673A949DBF156749
:1005E0001D8FB385470163D5E400A6864A8665B7AB
:1005F0009569B389F9406D743E94C20993D9090194
:100600002694CE864A8642042D459700FF1FE78038
:1006100020074180A28633063901D2852D45239BD0
:1006200001869700FF1FE780A00583D72A003E942C
:10063000239B81869DBF397106DE22DC26DA4AD8EB
:100640004ED652D456D25AD05ECE62CCE9C932844C
:1006500055CA368CE9C6BA8B79C32A89AE8A23007B
:10066000AC0085448149114B330634416353CB00C0
:100670001146137AF60F5286B3853A01480002C23A
:10068000EFB0635403475100834761000346710094
:10069000834641004A97CA974A96050789070D067F
:1006A000CA962307E100A306F100A307D1002306A1
:1006B000C1007800814703460700B306F9008507AB
:1006C000B18E2300D70093F7F70F0507E39567FF77
:1006D0008357C1000357E100D29933059C00B98FBD
:1006E0002316F100B24711462C00910493F9F90F3B
:1006F0003EC493F4F40FEFB0034DE3E789F6238093
:100700009B0005442285F2506254D2544259B2599A
:10071000225A925A025BF24B624C21618280014460
:10072000D5B71D7186CEA2CCA6CACAC8CEC6D2C4C1
:10073000D6C2DAC05EDE62DC66DA6AD86ED67DC505
:100740002E84E9C532897DC2368CEDC2834D050009
:10075000AA84814C054D9149138A3D00938A1D005E
:10076000138B2D00930B00103306A44163D3C900F3
:1007700011469377F60F3E86B385A40148083EC61E
:1007800002CAEFB043448346610103474101034677
:10079000710183475101358F230AE100B18F33C7BF
:1007A000ED00B346DB00A30AF1003346CA00B3C72D
:1007B000FA00A30FE100A30ED100230EC100230F06
:1007C000F1007408014783C706003386ED00050772
:1007D00093870710918FB3E777038506A38FF6FE03
:1007E000E31337FFF2473305990111462C083ECC3D
:1007F000EFB0633DB247910C93FCFC0F3E9D137D1F
:10080000FD0FE3638DF623009C0105442285F6402D
:100810006644D6444649B649264A964A064BF25B98
:10082000625CD25C425DB25D256182800144F9BFA9
:1008300039719307400622DC33F4F50226DA1307F8
:100840007100B684740806DEB377F6023304F4024E
:10085000B387C5003E9493978500A181DD8D9317E2
:10086000860021825D8E2314B1002315C1002C0067
:100870001146D13389C4834571006808829422856A
:10088000F2506254D25421618280317122DD26DB24
:100890004AD99307110118082A842E89B284930635
:1008A000F1001306E1009305D1001305210106DFD5
:1008B000EF70B01E814719473306F4000346060067
:1008C000B400BE962380C6008507E397E7FE8357F2
:1008D000210113074006B3F7E7022307F10483471A
:1008E000D100A307F1048347E1002308F104834703
:1008F000F100A308F104834701012309F1049307E0
:10090000A0FAA309F104EFB093737800F418AC00D7
:1009100031461375F50F05334C0822851946EFA0B3
:10092000E06F5008970504009385453F2545230057
:100930000102EFA0604A0346C1004C08E818EFA08E
:10094000E06D8346C1001819500893971600BA97B6
:10095000970504009385453D2545238207F6EFA0C2
:10096000A047034801018347F1000347E1008346A4
:10097000D100035621019548970504009385053C55
:100980002545EFA060450344C100EC184A85228646
:10099000EFB06323FA50238084006A54DA544A5932
:1009A00029618280184193878115104598C30357A8
:1009B0004500544590C72392E70058551049D4C7C5
:1009C000544998CF9705040093850541054725456F
:1009D00090CBD4CB238EE7006FA0402B397126DA61
:1009E0004AD84ED652D456D25AD006DE22DC62CE37
:1009F00066CC2A89EFB0D37E9374F50F8149254BDD
:100A0000E54A170A0400130AEA3691ECF2506254E0
:100A10004E85D2544259B259225A925A025B724CB4
:100A2000E24C2161828003470900930707FD93F799
:100A3000F70F637CFB009307F7F993F7F70F63E277
:100A4000FA06930797FA93F7F70F139487016184D7
:100A5000FD14230089002685EFA003732A86AE8645
:100A600003250A0083254A0093F4F40F0509EFF0EB
:100A7000C0332AC422852EC6EFA003712246B24697
:100A8000EF9033212A8C4E85AE8CEFA003772A8617
:100A9000AE866285E685EF80B334EFA02369AA892C
:100AA000ADB79306F7FB93F6F60F8147E3EFDAF85D
:100AB000930797FC49BF411122C406C683079502DC
:100AC0002A8499C713059502EFB0230D2389A1103D
:100AD0008307D41291CB1305D412EFB0A30BEFA070
:100AE000736D9387010EC8D3B240224441018280C6
:100AF000011126CA9304150022CC970504009385A2
:100B000065312A84268506CE4AC84EC6EFA0003C31
:100B1000631E051097050400938505302685EFA018
:100B2000E03A6302050E85448307D4036386070C0D
:100B300013059402EFB0630685491379F50F130589
:100B4000D4036387340F8947638CF418EFB0E30450
:100B5000A38AA110631A390179468145138571135F
:100B6000238D0186EFD03F888307D40885C3130502
:100B7000D408EFB0830203C7A18793071700238D22
:100B8000F1869387010EBA97A38BA7048307D40D30
:100B900085C31305D40DEFB0430003C7A1879307A6
:100BA0001700238DF1869387010EBA97A38BA704B4
:100BB0008307D41285C31305D412EFA0137E03C795
:100BC000A18793071700238DF1869387010EBA97AB
:100BD000A38BA7048307D41785C31305D417EFA0ED
:100BE000D37B03C7A18793071700238DF1869387D3
:100BF000010EBA97A38BA704F2406244D244424943
:100C0000B2490561828097050400938525212685D8
:100C1000EFA0C02BE31905F0268597050400938506
:100C20002520EFA0A02A8944E31005F08144EDBD02
:100C3000EFA0B376238BA110631A99007946814502
:100C400013859111238D0186EFD0EFF98307D40826
:100C500085C31305D408EFA0537403C7A187930776
:100C60001700238DF1869387010EBA97A38CA702F4
:100C70008307D40D85C31305D40DEFA0137203C7EA
:100C8000A18793071700238DF1869387010EBA97EA
:100C9000A38CA7028307D41285C31305D412EFA037
:100CA000D36F03C7A18793071700238DF18693871E
:100CB000010EBA97A38CA7028307D417E38E07F21D
:100CC0001305D417EFA0736D03C7A187930717000F
:100CD000238DF1869387010EBA97A38CA70229BFB3
:100CE000EFA0B36BA38BA11001BF411122C406C6B4
:100CF000830795072A8499C713059507EFA0F36921
:100D0000A389A1108307D40899C71305D408EFA0BD
:100D1000D368238AA1108307540B91CB1305540B7E
:100D2000EFA05367EFA013499387010E88D7B24015
:100D3000224441018280011126CA8146B2840146C3
:100D400052C456C206CE22CC4AC84EC62A8AAE8AA1
:100D5000EF90435741CD9307E0046386F400930777
:100D600030056395F408970904009389A90803A640
:100D7000090083A649005285D685EF908371379488
:100D80009800EFA0A33A130404682A8933758502FA
:100D9000EFA0A34603A6090083A64900EF8053777E
:100DA00097070400938787059043D443EF805376D9
:100DB0002A8A33558902AE8AEFA023442A86AE865A
:100DC0005285D685EF80D30113073005AE87639532
:100DD000E400B7070080AD8FF2406244D24442493C
:100DE000B249224A924ABE85056182800145814707
:100DF000E5B7011126CA8146B284014652C456C2E3
:100E000006CE22CC4AC84EC62A8AAE8AEF90834BC1
:100E100041CD930750046386F400930770056395F2
:100E2000F408970904009389E9FC03A6090083A646
:100E300049005285D685EF90C36537949800EFA09E
:100E4000E32E130404682A8933758502EFA0E33A80
:100E500003A6090083A64900EF80936B970704005F
:100E60009387C7F99043D443EF80936A2A8A335516
:100E70008902AE8AEFA063382A86AE865285D6856F
:100E8000EF80037613077005AE876395E400B7071C
:100E90000080AD8FF2406244D2444249B249224AB6
:100EA000924ABE850561828001458147E5B71357A7
:100EB00085009357050113D885009376F50F01112E
:100EC0001377F70F93F7F70F618593F5F50F137805
:100ED000F80F99C211C3B9E3230CD100A30CE100B0
:100EE000230DF100A30DA10003459101834781016A
:100EF0000347A1012205A30E01014207C98F230E5A
:100F0000B1000345B101D98F0347D1018345C10128
:100F1000620522075D8DD98D05618280329513753A
:100F2000F50F13138501135383415D46635766081C
:100F300061463363C30285071376D70F114593F7D4
:100F4000F70F6305A6002545631AA6007946637F5F
:100F5000F60205071377F70F85470DA809466312B8
:100F6000C7041386067D93084006B368160363859D
:100F7000080013F5360011C5130500193366A602E3
:100F800019EE75466374F60085470D47230CD100B2
:100F9000A30CE100230DF100A30D6100B1B7714670
:100FA000D5B77D46E374F6FEB147E314F7FA85063C
:100FB00093F6F60F85470547D1BFE35903FC61055A
:100FC000FD171313850193F7F70F13538341DDFFCB
:100FD0007D171377F70F1146F947E309C7FA19464A
:100FE000E306C7FA2546E303C7FA2D46E300C7FA2E
:100FF00089476316F7021386067D93074006B36799
:10100000F60291C793F83600F547E38108F8930795
:101010000019B367F60293B71700F10785BFFD47C4
:1010200035F7FD1693F6F60F31478DB78347150058
:10103000034705000111A2075D8F83472500834602
:10104000350006CEC207D98F0347550083454500BA
:101050001736FF1F1306C6C103064626E2062207FF
:1010600033E5F600D98DA1351358850013560501D7
:1010700093D7850013F7F50F93F7F70F9356850174
:101080001376F60F9375F80F1375F50FEF70202890
:101090009737FF1F83C7D7BD05476385E700114713
:1010A0006396E700F24005616F700036F24005611B
:1010B00082804971232481161384010E8307340032
:1010C00083C8510E03C8410E03C7210E83C6110EFB
:1010D00003C6010E97050400938545D648102326C4
:1010E00011162322911623202117232E3115EFB03C
:1010F000B3074810EFB0D30E18485C48030604034A
:101100003AC03EC2030814035C44184454109705C7
:1011100004009385A5D43695EFB013054810EFB0C1
:10112000330C5C103E958307640017060400130619
:1011300066D089C717060400130646CF971504002A
:1011400093850596EFB053024810EFB07309544CE5
:10115000104C5C1097050400938545D13E95EFB087
:10116000B3004810EFB0D307030634035C103E957C
:1011700097050400938545D0EFB0037F4810EFB08A
:10118000330603072403AA8448503ACE1384010E81
:10119000EFA0837772475C10AE862A86970504001D
:1011A000938585CE33859700EFB0037C4810EFB070
:1011B00033035C1003C6411197050400938545CEA7
:1011C0003E95EFB0637A4810EFB093015C1097053D
:1011D00004009385E5CD3E95EFB0637F1389E10F61
:1011E000A284971904009389298B03C6740519CA30
:1011F000481032CEEFB0C37E72465C10CE853E956D
:10120000EFB083768504E39224FF4810EFB0437D6E
:101210005C1097050400938525CA3E95EFB0237BAB
:1012200097140400938444870346940319CA481012
:1012300032CEEFB0E37A72465C10A6853E95EFB0F1
:10124000A3720504E31224FF4C102545EF901024EF
:101250008320C11603248116832441160329011615
:101260008329C11575618280411122C406C626C238
:10127000830755012A84B9C7A946938707FDB38719
:10128000D70203476501130707FDBA97A381F10E43
:101290000307750183478501130707FD3307D7024D
:1012A000938707FD3E972382E10E8307950103474D
:1012B000A501938707FDB387D702130707FDBA97E8
:1012C000A382F10E8307940281CB1307100463916C
:1012D000E71485472383F10E8307D4039384010E1B
:1012E00099C71305D403EFA0F30A88C4CCC403063E
:1012F000140509CA8844CC442388C110EFF0BFA369
:1013000088C4CCC48307540699C713055406EFA0BC
:10131000730888C8CCC80306940709CA8848CC4813
:10132000A388C110EFF0FFAC88C8CCC88307D408ED
:1013300099CF1305D408EFA0F3059707040093870E
:1013400067AE9043D443EF90C31488CCCCCC8307D2
:10135000140A99C71305140AEFA033042390A110AF
:101360008307540BB9C7A946938707FDB387D702F4
:101370000347640B130707FDBA972381F10E030798
:10138000740B8347840B130707FD3307D70293873A
:1013900007FD3E97A380E10E8307940B0347A40B40
:1013A000938707FDB387D702130707FDBA972380FA
:1013B000F10E83853400856703C6410E938707E1EC
:1013C0001307C0033307E60283C6510EB387F50245
:1013D000BA97B69723A6F1101737FF1F13070732E6
:1013E000835707003A8413F5870039E103856400C9
:1013F0000547631FE50203C7210E11EF8844CC4463
:1014000001468146EF80136C05E92383010EB9A0E4
:101410002383010ED1B5FDD175D2EDD293E78700BC
:101420001385010E1737FF1F231AF72CEFF01FC08B
:1014300083876400E1F7D1BF8848CC4801468146E4
:10144000EF80536879D183C7210EE1D3130680075B
:101450009385010E13858106EFA0E37603C581D144
:101460009D4705053365F502130680079385010E38
:10147000238CA1D0930780073305F502938701D20F
:101480003E95EFA04374EFF0DFC25C542244B240BB
:1014900092441737FF1F232DF72813068007814535
:1014A0001385010E41016FC01FF40171232C811EB1
:1014B000232A911E1306101E2A84AE8468008145DB
:1014C000232E111E2328211FEFC0FFF181458147E4
:1014D000014701465148CD485D436341960899C193
:1014E0002306F1001306A002A6852285EF90501C6A
:1014F0008347C10051473386A440B387E702930571
:10150000150078007D16A29585073305F700EFA03A
:10151000836B1306A002A685228503491400EF9071
:101520003019894763C4A7080345C100D147330573
:10153000F5027C0005053E95EFF04FCA631DA90436
:101540001946970504009385E58B1305D100EF90AC
:1015500090232DC56800EFF03FD135A8B306C40035
:1015600003C50600930665FD93F6D60F91EA85073D
:1015700093F7F70F6361F302854501470506B1BF95
:10158000B3860703130E011FF296BA96A38EA6E048
:101590000507E3D5E8FE8320C11F0324811F8324B0
:1015A000411F0329011F1301012082803307F4002A
:1015B0000347070085073349E900ADB7194697058A
:1015C0000400938565841305D100EF90D01B0DEDC9
:1015D000194697050400938565831305D100EF90A4
:1015E000901A19ED19469705040093856582130535
:1015F000D100EF90501945D16800EFF06FCF61BF77
:101600006800EFF08FEE41BF6800EFF0CFCA61B71E
:10161000757122C526C34AC1CEDED2DCD6DADAD84D
:1016200006C7AA892E89814401448147130A4002D2
:10163000854A354B139704014183636C2701BA40F7
:101640002A449A440A49F659665AD65A465B496171
:101650008280338799000347070063014703639D36
:101660005701631E67019C18A297A2856800238E0C
:1016700007F8EFF09FE3814785046DBF01449C1894
:10168000A29705041374F40F238EE7F893373406FA
:10169000E5B7411106C6138581D1834705001307BD
:1016A00080078145B387E70213068007A1073E95AF
:1016B000EFC07FD3B2408145114541016FA0201694
:1016C000138581D18347050013078007B387E7029D
:1016D000A1073E9582801385810682809737FF1F80
:1016E00083C7470281CF9727FF1F83D7C77EFD1788
:1016F000C207C1831307A0036375F70023AE0186F9
:10170000828031714ED79389C18783A7090056D350
:10171000938A81D1850722DD26DB52D55AD15ECF4F
:1017200062CD66CB6AC906DF4AD96EC723AEF186A1
:1017300083C481D1014A130C8007568497FC0300AF
:10174000938CCC63054D9D4B154B3389840356997F
:101750008307E900E1CF03A60C0083A64C00032514
:10176000090283254902EF8073476341050C8347D3
:101770000904638DA70B93171A001808BA9703572B
:1017800089022390E7003C00D29723809700050A46
:101790009904B3E47403E31A6AFB03578101835786
:1017A0000101998F13D7F741B98F998F939407014E
:1017B0001307400BC1806358F70093078016B3846A
:1017C0009740C204C180268697F503009385055E85
:1017D0006808EFB063196C082545EF90204B93879C
:1017E00014FFC207C1837947636EF708034991006C
:1017F000130A8007854501453309490321092299C8
:101800004A86EF7010648344B10085450145B38476
:101810004403A104A2942686EF70B062CA850D45E8
:10182000EF30803CA6850D45EF30003C83A70900D2
:101830001727FF1F0357276A63E7E70203C581D114
:101840009304800733059502B30DA4008387ED0050
:1018500099CB83C74117138981156397070E21051B
:101860002295EFF02F94FA506A54DA544A59BA5933
:101870002A5A9A5A0A5BFA4B6A4CDA4C4A4DBA4DCC
:10188000296182809307D002E3F297FA834B8100AB
:10189000930A80078545B38B5B030145138C8B004E
:1018A000229C6286EF70F059034B910085450145FB
:1018B000330B5B03A29B210B229B5A86EF7070585F
:1018C000034AA10085450145330A5A03210A229A99
:1018D0005286EF7010570349B10085450145330921
:1018E0005903210922994A86EF70B0558344C100FB
:1018F00085450145B3845403A104A2942686EF7064
:101900005054E2850D45EF30202EDA850D45EF303D
:10191000A02DD2850D45EF30202DCA850D45EF3025
:10192000A02CA6850D45EF30202C83C781D1B38A2A
:10193000570303A74B03A29A83A74A03E318F7EEC2
:1019400085472380FA04DDB517FD0300130D8D4391
:1019500003260D0083264D0003A58D0183A5CD012F
:1019600097F9030093898942EF80B33203A60900F7
:1019700083A64900EF80C3392A8BAE8B03260D0066
:1019800083264D000325090183254901EF8073302B
:1019900003A6090083A64900EF8083372A8AAE8A0E
:1019A0002A86AE865A85DE85EF80337A97F7030064
:1019B0009387473E9043D443EF80B32DEFE0C02997
:1019C0002A8CAE8C5A85DE85EFE0E01F2A8BAE8B29
:1019D0005285D685EFE0201F032689008326C900A3
:1019E0002A8AAE8A03A50D0183A54D01EF80F37508
:1019F00003260D0083264D00EF80B32903A60900BE
:101A000083A64900EF80C33097F703009387873898
:101A10009043D443EF80F327EFE000242A89AE8976
:101A20005286D6865A85DE85EF80B3264A86CE86D4
:101A3000EF8033264A86CE86EF80B3252A89AE8989
:101A40006286E6866285E685EF80B3242A86AE86C6
:101A50004A85CE85EF70D338EFE08067EFE000294C
:101A60002A86AE86EF70D33797F703009387073344
:101A70009043D443EF80F32197F703009387873295
:101A80009043D443EF80F3202A86AE862A89AE891C
:101A9000680897F5030093856532EFA0F36C6C0836
:101AA0002545EF90A01E1725FF1F03456526EF90E3
:101AB000A36D2A86AE864A85CE85EF805307E35410
:101AC000A0DA03C681D13306960285450145210679
:101AD0002296EF70103783C581D1B38595020D45ED
