:040000006F2000333A
:1000040000000000000000009000002022050020F5
:10001400A9BDF9F5940000200000000000000000D4
:10002400960000209800002000000000000000005E
:100034009A000020000000009C0000200000000046
:100044009E0000201603002044030020A40000208A
:10005400A6000020A8000020AA000020AC00002078
:10006400AE000020B0000020C60000205A0100208D
:100074009E050020B8000020BA000020BC0000202B
:10008400BE000020EE01002082020020C4000020F7
:1000940001A001A001A001A001A001A001A001A054
:1000A40001A001A001A001A001A001A001A001A044
:1000B40001A001A001A001A001A001A001A001A034
:1000C40001A001A001A037370040834747009946AB
:1000D4004111BD8B638CD70231476384E706114716
:1000E400639EE702A3030100174600000346C6020D
:1000F40037370040834771006315F6022C001385DF
:10010400815F97C000E0E780001A09A88347570081
:1001140093F7F70F2304F100834781004101730033
:10012400203083477100834687000C08AE97238CE8
:10013400D7FE83477100850793F7F70FA303F100F8
:1001440055BF2800973001E0E780A0841375F50FB0
:10015400A303A1000346710055B737370040834716
:10016400474099464111BD8B638CD7023147638464
:10017400E7061147639EE702A30301001746000048
:100184000346A6F937370040834771006315F6022A
:100194002C001385C16097C000E0E780C01009A857
:1001A4008347574093F7F70F2304F10083478100F7
:1001B40041017300203083477100834687400C0857
:1001C400AE97238CD7FE83477100850793F7F70F0B
:1001D400A303F10055BF2800973001E0E780208D8C
:1001E4001375F50FA303A1000346710055B73747F4
:1001F40000408347478099464111BD8B638CD702E9
:1002040031476384E7061147639EE702A3030100B5
:1002140017460000034656F03747004083477100F5
:100224006315F6022C001385016297C000E0E78095
:10023400800709A88347578093F7F70F2304F10039
:100244008347810041017300203083477100834656
:1002540087800C08AE97238CD7FE834771008507EF
:1002640093F7F70FA303F10055BF2800973001E07F
:10027400E780A0951375F50FA303A1000346710051
:1002840055B737470040834747C099464111BD8B56
:10029400638CD70231476384E7061147639EE70204
:1002A400A3030100174600000346E6173747004042
:1002B400834771006315F6022C001385416397C0D0
:1002C40000E0E78040FE09A8834757C093F7F70F83
:1002D4002304F100834781004101730020308347E8
:1002E4007100834687C00C08AE97238CD7FE8347E2
:1002F4007100850793F7F70FA303F10055BF28009A
:10030400973001E0E780209E1375F50FA303A10049
:100314000346710055B7411122C637140040835774
:10032400C40913973701635B0700BD450145971066
:1003340001E0E780409E8567231EF40832444101B2
:1003440073002030411122C6371400408357E4095A
:100354008357E4091397170163590700971001E0C5
:10036400E78080939167231FF408324441017300AE
:100374002030B7170040930670052380D704130775
:1003840080FA2380E7040100010003C6B704137652
:10039400F60DA385C70423800704137605024DC216
:1003A40003C6A700118A1DE22380D7042380E70433
:1003B4000100010003C7A700136747002385E70076
:1003C4009307004B01000100FD17EDFFB717004034
:1003D400930670052380D704130780FA2380E7046B
:1003E400010001007D892394A700010001000100A0
:1003F4000100238007042380D7042380E70401003D
:100404000100010001003727004093061005A303F3
:10041400D78023800704B717004013077005238093
:10042400E704130780FA2380E7040100010003C7EF
:10043400B70413670708A385E704238007048280B1
:100444001376050441C603C6A700418A1DE2238032
:10045400D7042380E7040100010003C7A700136742
:1004640007012385E7009307007D01000100FD17C4
:10047400EDFFB7170040930670052380D7041307D8
:1004840080FA2380E704010001001376F501136666
:1004940006042394C7000100010001000100238029
:1004A40007042380D704130660042380E704631839
:1004B400C5000100010037270040894689BF0100BB
:1004C4000100372700409306200591B72380D70405
:1004D4002380E7040100010003D787001367070C9A
:1004E4002394E7000DBF4111814601468145114522
:1004F40006C66922B7170040130770052380E70476
:10050400130780FA2380E7040100010003C767048E
:10051400136717002383E70423800704B2404101D3
:1005240082808146014681451145892AB7170040DA
:10053400930670052380D704130780FA2380E70409
:10054400010001007D562396C7022380D70423802F
:10055400E7040100010003C767041367170023833E
:10056400E7042380070401A0BD473305F502010019
:100574007D1575FD8280411122C426C206C6AA8457
:10058400014463179400B2402244924441018280A2
:1005940005041305803E4204C13F4180DDB7B7170F
:1005A4000040130700032388E7028547174700002C
:1005B400232CF7FC73002030411106C6852DFDBFA6
:1005C4002303048015472303E48001002302A4804D
:1005D400828083076480E3CE07FE23030480828045
:1005E40083076480E3CE07FE03454480828083074B
:1005F4006480E3CE07FE2302A4808280411126C4D6
:100604004AC24EC006C61377F50BAD47AA892E8998
:1006140095446306F70019456537653F8D444E855B
:100624004537FD59FD1463983401B240A244124980
:10063400824941018280135509011375F50F453F25
:100644002209CDB7011126CC06CEB70408005137D4
:100654001545BD37713769372AC6A53F32459377AB
:10066400150089EB136515001375F50FF240E2448C
:1006740005618280FD14E9FC0145CDBF397126DC9A
:100684004ADA4ED852D656D45AD25ED006DE62CE5C
:1006940066CCB7E700E07D5783AA070022C603AA09
:1006A400470023A0E71823A2E718B7170040130751
:1006B40070052380E704130780FA2380E70483C7C7
:1006C4004704930B75FFB684E20793FBFB0F854643
:1006D400AA892E8B328937240040E187015763FAB7
:1006E40076016308D5008946130700026313D50019
:1006F4000157D98F93F7F70FB71C00402382FC04EE
:1007040011472303E4801305F00F5D3D094CD135F7
:10071400636D7C11B7050700DA95378707007955B3
:1007240063F2E504B3879500636EF702370B0800A4
:10073400A94733EB65016399F90689E48144513D86
:1007440026850DA0DA850945553D05090345F9FFC0
:10075400FD14050B693D81C49377FB0FFDF7DD356F
:1007640069FD7D55B7170040130770052380E70422
:10077400130780FA2380E70403C74704418B2382CD
:10078400E704F250B7E700E023A0571123A2471172
:10079400E25432445259C259325AA25A125B825B11
:1007A400724CE24C21618280A5476395F906856904
:1007B4001309F00FB3069900B3742B01B6941349CF
:1007C400F9FFB3749900856B33796901416B9387A1
:1007D400F9FFB3F7270199E363FC340193D9490086
:1007E400C147E3E637FF99BF0569C1697D19D9B7E8
:1007F4001305800D63886901130500026384790180
:1008040013051008CA85DD3B353D21DD4E99B384BF
:100814003441D9B7DA852D45D533CA94E30099F22A
:1008240005097D3BA30FA9FED5BF9387F9FF93F775
:10083400F70F6361FC0C83C71C0413073008631FA4
:10084400F70437070800636BEB04B3079B00B70694
:10085400100063F5D704334BEB0089476393F90623
:100864008980D549E38C04ECDA850945413B1109BB
:100874000327C9FF91472320E48003076480E34EE4
:1008840007FE23033481FD17EDFBFD14110B81C416
:100894009377FB0FE9FF7D3371F5E1B5B71700409E
:1008A40003C75704B70708001377070219E3B7878C
:1008B40007007955E378FBEA33079B00E3FFE7F889
:1008C40055B58547E382F9F2DA852D45053B9389D1
:1008D400F4FFE38504E6293393F7390091EB83268B
:1008E40004800327090093074900E39AE6E43E895C
:1008F400CE84F1BFB5476396F9001305900BC93157
:1009040035BDB1471305B00AE38BF9FE99476391EE
:10091400F904B7050800B365BB002D45C531814412
:100924008D4BA14975396396740183270480232074
:10093400F9008504E39834FF8327048013172B01FF
:10094400635507002312F900D5BB2322F900FDB338
:100954009D476399F90281451305B0044531BD44AF
:100964002320090023220900FD599D3993F77400BF
:10097400CA9703C70700FD14398D2380A700E396A7
:1009840034FF6DBBA1476392F9046D398144630D53
:100994000B008D479304C0036308FB009304000518
:1009A40063048B01930440041375C507E30895D8C9
:1009B4001945393139390545213126850D3909451E
:1009C4003D314931E31C05D669BB91476399F90070
:1009D40013056006F536F53E130590090DB7E38F50
:1009E40009D4F154A9BB19CD91CD09CE81473387E0
:1009F400F500834607003307F50085072300D70079
:100A0400E317F6FE828019C991C909CA910583A723
:100A1400C5FF11057D16232EF5FEC5BF828001C9D1
:100A240019C62A960505A30FB5FEE31DA6FE82800E
:100A340081473307F5000307070019E33E858280E9
:100A44008507C5BF01112E8626CAAA84131506017F
:100A54009305F004418122CC06CE32C6EF108063A8
:100A64002A8401C53246A685BD3F2285F2406244F0
:100A7400D24405618280854715C18DC105C2814775
:100A8400B306F5003387F50083C606000347070065
:100A94006398E6008507E315F6FE85473E85828068
:100AA4008147EDBF9307F6FFBE952A966313C500F1
:100AB4008280FD1583C715000505A30FF5FEFDB75C
:100AC400AA87014581CF09CE3E96850703C7F7FF64
:100AD4006317B700E39BC7FE05458280828001450A
:100AE40082807971975700009387C77222D480431C
:100AF40006D626D24AD04ECE52CC56CA5AC85EC664
:100B040062C45DCC37C9C901814B175A0000130A6E
:100B1400EA7497540000938424701309F937975AA0
:100B24000000938AEA69B709C0A8370B4057835776
:100B3400240095E35C44639D0B0017570000232BAE
:100B4400F76C032CC4002285EF10E061628499A83D
:100B540023A6FB00FDB783270A00829783866401DE
:100B64001C4463DB06063307F5406367E9089757BF
:100B7400000023AF076483552400034504009770E5
:100B840001E0E780204B5C405844A9CF1444B69759
:100B94008386640163C5060063E33701DA971CC4E6
:100BA400A28B3A8449F497570000938767619C4B62
:100BB40009476378F706F91717570000232AF760E7
:100BC400B250225492540259F249624AD24A424BD8
:100BD400B24B224C45618280E377F5F83387F940C4
:100BE4002A9761B763970B009757000023A4E76225
:100BF40089BF23A6EB00B1B7D85009CF63DF060045
:100C04003385A74083A70A016376F5009757000050
:100C140023A0A75CA28B404471B7E3F3A7FECE9751
:100C2400C5B79757000023A5075A59BF411122C4DD
:100C3400175400001304C45B1C4006C626C24AC0F5
:100C440091C782979757000023A4075A5C4091C329
:100C540082971C406391071C9757000083C7D7777E
:100C6400858B9DC797570000A38807761757000008
:100C74000347B776954763FDE700EF005041975768
:100C8400000083C79775F5178A07A2979C4382973C
:100C940017590000130909788347C900918B99C338
:100CA400EF10A0321C4491C38297975400009384A0
:100CB4002456984017560000034696509757000054
:100CC40083C7075093961700BA9683D60600D5CAF1
:100CD4009757000083C7C74E63EFC70A97570000B2
:100CE4002380074E1C40639807129757000083C760
:100CF400F76E91CF9757000083C7376E89EB9757EC
:100D04000000A38D076C971003E0E780A01B9757A2
:100D140000009387A7549C43638F070EB707C0A8AE
:100D2400175700002326F74A6D3B97570000938717
:100D3400A74EDC53EDC31757000013076748184B41
:100D44009757000083C7974E6367F70C1757000047
:100D54000347B768954763E0E70C8347C900918B65
:100D6400DDEB90409756000083C6964563CBD70AC7
:100D74002244B240924402494101177301E06700E2
:100D84008308850793F7F70F97560000238AF642E6
:100D9400E3E6C7F235BF86073E9783550700231065
:100DA400070097570000239307469757000093873F
:100DB400E7439C431755000003458540131725005E
:100DC400BA979C4382979757000083D727441757B5
:100DD40000000347E73E93C7F7FF7D8D9317170085
:100DE40098403E97835707005D8D2310A7009757BF
:100DF400000083C7E73C91C785071757000023010C
:100E0400F73C175700000347A73B9757000083C7D9
:100E1400373BE375F7ECB240224492440249410166
:100E24008280139717003297035707006DF78507E1
:100E340035BFAD6737C70040BD072326F7200F1025
:100E44000000975700009387A737C84F832787264A
:100E5400BD66BD0693C7F7FF99836A052326D7208D
:100E64005D8D82804111B7170040985F3AC6945F48
:100E74003247E39CE6FE32454101828082800327AB
:100E8400851163000712411122C406C68347C500B9
:100E94008345C5042A8493F7C70F2306F5008346C8
:100EA40097000356C70013958601618563F1C50851
:100EB400635A05060345870093F6F607A304D70093
:100EC400054693E627006314C50093E6170023063E
:100ED400D4005C4389075CC3A30AB400032504114E
:100EE4002E864C4309050136832784110346540199
:100EF400D44303D7C700B296118FD4C32396E70017
:100F04008947A30DF400034744039757000083C7A0
:100F1400C7316378F7048347C40093E707012306C6
:100F2400F40081A093E717002306F40075B79376C5
:100F3400F60F635D050203458700854513E6270028
:100F44006314B50013E617002306C400A30AD400F3
:100F5400A30407008547A30DF400832784119C4351
:100F6400DDF3B240224401454101828093E717003A
:100F74002306F400A30AD400A304070003250411E4
:100F84004C4309058D348327841103465401D4430B
:100F940003D7C700B296118FD4C32396E7008D47B9
:100FA4005DBF0545828097570000938727419C4386
:100FB400411122C406C6858B2A84C5EF41651305F9
:100FC40025F5978002E0E780E01645C58347A50034
:100FD4002315F50083270412BDE72320A41223223E
:100FE400A41285472310F4042320050083476401D9
:100FF40054412316F5000347D4002304E5000547B4
:10100400A304E500175700001307C73C184F1385C6
:10101400170215811C437D151375F50F9CC25C43A3
:10102400DCC21C479CC65C47DCC61C4B9CCA5C4BA0
:10103400DCCA1C4F9CCE5C4FDCCE19CD93860602D5
:1010440013070702C1BF8327441288C383570404CC
:101054002322A412850779B79757000083D7074541
:101064008507175700002313F744B2402244410177
:1010740082808347C40023090400054593C74700C1
:101084002306F400DDB78347850193F7E70FD5EF17
:1010940083479501DDEB034625018346C50009CA54
:1010A40083454503175700000347371863E7E500F6
:1010B40013F7060141CF014709C6C18A0357651CCE
:1010C40081C68356A51C369751C31307C7121755FB
:1010D400000003556511B335A70237460F004111CF
:1010E40013060624814622C426C206C67D5433054F
:1010F400A70297D003E0E780C0359757000083C765
:101104003713B384A700975700009387A73903A721
:1011140007098327070963F387003E84184375FB97
:1011240097570000938787139C4382978147636492
:10113400A400B307A440B2402244B3B7970093C7B6
:10114400170092443E854101828081473E8582801A
:10115400797126D206D622D44AD04ECE52CC56CA63
:101164005AC85EC68347350303447513AA843E9464
:101174001374F40F9307400263F687001304B4FD5D
:101184001374F40F03AA841383AAC413A38B8412C5
:1011940022865285D68597D003E0E780002605890C
:1011A40015E503CBD41201498149337B6403930BC6
:1011B40050024A865285D68597D003E0E780E02323
:1011C400058915C5639169031374F90F238B841280
:1011D400B250225492540259F249624AD24A424BC2
:1011E400B24B456182808509E20993D98941050999
:1011F400E31179FDE1BF832785090356E50379717E
:1012040093D60701BD8EC206C182358E1357764030
:1012140093575640898B058B5D8F93573640918B3E
:101224005D8F93571640A18B5D8F93171600C18B6A
:101234005D8F9317360093F707025D8F931756005F
:101244009355860093F707041E065D8F1376F60FF9
:10125400518F93D7554013D63540118A898BD18F3E
:1012640013D67540D18F13D61540218AD18F13968A
:101274001500418AD18F1396350013760602D18F5B
:1012840013965500137606049E05D18F93F5F50F3A
:10129400CD8FA20745465D8F3307C70222D42A8427
:1012A40026D252CC56CA032A8413832AC4135AC89A
:1012B40006D63697420741839357774013555740D4
:1012C4000989858BC98F135537401189C98F1355E7
:1012D40017402189C98F131517004189C98F131528
:1012E400370013750502C98F1315570093558700EE
:1012F400137505041E07C98F1377F70FD98F13D5FC
:10130400354013D755401189098B498F13D5754042
:10131400498F13D515402189498F139515004189AB
:10132400498F1395350013750502498F13955500A0
:10133400137505049E05498F93F5F50F4D8F22070C
:10134400D98FB387C7024AD04ECE5EC662C4B69761
:10135400C207C18313D7774013D557400989058B3A
:10136400498F13D537401189498F13D517402189E7
:10137400498F139517004189498F139537001375C9
:101384000502498F1395570093D5870013750504FB
:101394009E07498F93F7F70FD98F13D5354013D78D
:1013A40055401189098B498F13D57540498F13D541
:1013B40015402189498F139515004189498F13954B
:1013C400350013750502498F1395550013750504EF
:1013D4009E05498F93F5F50F4D8F2207D98FB3875B
:1013E400C702130650025285D685B697BD8E9394D4
:1013F4000601C18033F6C402137BF60F97D003E0D5
:10140400E780A0FF05890DED8347D4120149814986
:10141400B3849702130C5002C1804A865285D68544
:1014240097D003E0E78060FD0589937BF90F11C530
:1014340063863403850993F9F90F0509E31F89FDD0
:10144400230B6413B250225492540259F249624A53
:10145400D24A424BB24B224C456182805E8BCDB75F
:10146400011122CC604126CA4AC84EC652C406CED7
:10147400AA841D4A130965058549BC446364F400C4
:10148400054581A803C7D40083474400631B47056F
:1014940003C784026304F7000040C5B70347540040
:1014A40083C75405E31AF7FE1946CA851305640079
:1014B400EFF06FDCE31235FF0347C40083C79402E7
:1014C400E31CF7FC0357E40083D7A402E316F7FCFC
:1014D4000145F2406244D2444249B249224A05617C
:1014E4008280E31BF7FA0347540083C75405E315CE
:1014F400F7FA1946CA8513056400EFF0CFD7E31D48
:1015040035F9F9B70111975700009387A7F922CC51
:1015140003A4470B26CA06CE2AC42EC6854419E462
:101524000145F2406244D2440561828083479100C0
:1015340003471400858B6304F7000044CDB71946B4
:101544009305A10013052400EFF0EFD2E31795FEF5
:101554000545C1BF011122CC17540000130444E90E
:1015640018402AC62EC432C206CE3C4B93F7F7F776
:101574003CCB971003E0E780A091184097560000F9
:10158400938646E43C4B93E707083CCB9C423245A8
:10159400A24523A00700034715000348250022079E
:1015A4004208429703480500429703483500620801
:1015B400429798D70347550003486500220742081D
:1015C40042970348450042970348750062084297D2
:1015D400D8D7034795000348A5002207420842973D
:1015E4000348850042970348B5006208429798DB98
:1015F4000347D5000348E500220742084297034801
:10160400C5000345F500429762052A97D8DB03C756
:10161400150003C52500220742052A9703C50500C6
:101624002A9703C5350062052A9798CF03C755004A
:1016340003C56500220742052A9703C545002A977A
:1016440003C5750062052A97D8CF03C7950003C563
:10165400A500220742052A9703C585002A9703C5DA
:10166400B50062052A9798D303C7D50003C5E500E2
:10167400220742052A9703C5C50083C5F5002A97AA
:10168400E2052E97D8D3D843759BD8C3D8431367A4
:101694001700D8C398431367170098C3124698429B
:1016A4005C43858BD1E71C4F01452300F6009C4227
:1016B4009C4FA183A300F6009C429C4FC18323014D
:1016C400F6009C429C4FE183A301F6009C42D84F54
:1016D4002302E600D84F2183A302E600D84F4183BA
:1016E4002303E600D84F6183A303E6009853230441
:1016F400E60098532183A304E6009853418323050D
:10170400E60098536183A305E600D8532306E60058
:10171400D8532183A306E600D85341832307E60068
:10172400DC53E183A307F600F24062440561828042
:101734000100B5B717570000130707C91443411137
:1017440022C49C5E4AC006C6998326C2858B3A840D
:1017540017590000130909C7D1CB9C5E97540000A8
:10176400938444C793F7F7F99CDE175700000347A7
:10177400C7C693070008631BF700832709009C432F
:1017840093F70704175700002309F7C483C704001D
:1017940093F707049DC397570000938727AC9C4396
:1017A40082979757000023AFA7C283C7040093F71B
:1017B400F70B17570000230FF7C083C7440093F7B4
:1017C40007048DE7854717570000A307F7C097570D
:1017D40000009387E7C19C43096798C7130700FC7F
:1017E40097560000238AE6BED844F8D31C40985F7D
:1017F4001183058B09CB985F3D9B98DF054797566E
:101804000000238BE6BC985F1D83058B11CB985F8A
:101814001377F7F798DF854717570000230EF7BAB9
:1018240083270900D8430583058B19C7D843759BC3
:10183400D8C3D843799BD8C3B240224492440249C6
:1018440041018280397106DE16DC1ADA1ED82AD6E6
:101854002ED432D236D03ACE3ECC42CA46C872C614
:1018640076C47AC27EC0F935F250E2525253C25362
:101874003255A255125682567247E2475248C24820
:10188400324EA24E124F824F21617300203097577F
:1018940000009387E7B5944397570000938787B375
:1018A40003C70700058B11CB97570000238607B2A7
:1018B40097570000A38207B2828003C71700058BE5
:1018C40065F7F85271FF83C75700DDB7175800005A
:1018D400130888AF032708001C5F9583858BD1E725
:1018E40009C61C5BBD832300F60085CA8327080054
:1018F400985B4607935767016356070093E707C051
:10190400C207C18303970600C207C18709C7BA97F4
:101914000947B3C7E7022390F60085CD8347150036
:101924008DCB9756000083C646AB93F60604138707
:10193400970089478DCA3A9503470500854699471C
:101944001376F7066311D60262076187B947634CC1
:101954000700832708009C5FED838D8B17570000D9
:10196400A30FF7A681473E8582808547EDBF4111CD
:1019740022C406C617540000130484A7184049E97A
:10198400AE877453FDFE3E85B285975700002384CD
:1019940007A4970003E0E780A025975700009387EA
:1019A400A7A29C43B70680009843558F98C3D85785
:1019B400719BD8D797570000A38007A297570000C0
:1019C400A38A07A01C40094798C3B7F700E003A700
:1019D40007D16D9B23A8E7D003A707D15D9B23A85C
:1019E400E7D0730050101440175700001307879E68
:1019F40083472700858B89EB83473700858BD9C7BD
:101A040097570000238A079CB240224441018280F8
:101A14008D476310F502975700009387E79A9C431C
:101A2400B70680009843558F98C3D857719BD8D771
:101A34005DBF8547E319F5FAB567BD075CC70F10AD
:101A440000001C400967094698C7130700F8975619
:101A540000002383E698175700001307E796144302
:101A6400984231830D8B6319C7001307E043F8D301
:101A74003D673D07D8C785BF984231830D8B01E789
:101A840013076019EDB71307E01BD5B7FC52ADF38C
:101A9400A5BF5D7152DC175A0000130AEA920327AE
:101AA4000A0086C6A2C4A6C2CAC04EDE1C43975909
:101AB40000009389A998175900001309699393F7B3
:101AC400F7E793E707081CC383A609003707CEFF8F
:101AD4007D179C46130680022A84F98F9CC68327AF
:101AE4000900130700082800B8CBAE84930510083A
:101AF400EFE0FFF2970003E0E7808039970003E00E
:101B0400E780804683270A009376F41F370FFCFF93
:101B140023A40700984B4E88CA881367F70398CB11
:101B2400F84F130510F8D285137707E0558FF8CFD7
:101B34009843F576FD16758F98C39843B70633001E
:101B4400B70204001377F7E798C398439303401F41
:101B54007D1F1377F7E71367071098C303A70900DE
:101B6400930F800285491C47D58F1CC78327090022
:101B74001307900D3400B8CB1149014713533700B4
:101B840026938347030013767700B3D7C740858B2A
:101B9400DDCF9C41832E0800239C07042390070675
:101BA40003AECE02137EDEFF23A6CE0383AE070070
:101BB400137EF70793FE0EF833EECE0123A0C70180
:101BC40003AE4702336E5E0023A2C70383AE080050
:101BD400014E23A27E0603DA070663074E0303AE13
:101BE4000703038A0600135EFE00620E135E8E4135
:101BF4006358CA0103AE0703135EFE002380C601C7
:101C040003DE0706137EFE0F03AA4E0663060A00D0
:101C140003DA8705E37F49FB03AE4702337EEE0117
:101C240023A2C70383870600635CF400034E03000A
:101C34003396C9001346F6FF3376C6012300C3006A
:101C44003E8663D3A7002A8613158601618505079E
:101C54001377F70F8506E313F7F3B640264496444B
:101C64000649F259625A6161828097460000938660
:101C740026789C42D84713161701635506029847E5
:101C840013161701635006027D57B8D71747000093
:101C940013070753584F0507174600002320E6543F
:101CA400116798C798470D83058B1DC3174700001C
:101CB400034767721367170017460000230DE67089
:101CC400130700F8174600002308E670214798C759
:101CD4009847058B09CF174700000347B76F136771
:101CE400170017460000A307E66E054798C79847F4
:101CF4000983058B09E798470583058B31CF9847FE
:101D0400174600001306066D174500001305C56B42
:101D14000983058B630307101841184331830D8B26
:101D240075EBAC4B184E93F5050203471700CDCD68
:101D340079EF13077006D8CF03470600136717001F
:101D4400174600002308E668114798C718415C57F6
:101D5400F19B93E717005CD79C4298479316370191
:101D640063D606029746000083C6067BC18A1747DE
:101D7400000013072773C5CE0347470713670702FD
:101D840097460000238AE678056798C79847931614
:101D9400270163D10602174700000347E763620780
:101DA4006187635707000547974600002386E6626C
:101DB400096798C798479316070163D606029746A2
:101DC400000083C67675858A174700001307876D60
:101DD400ADCE034757071367270097460000A38D2E
:101DE400E672216798C7828029D785456315B700B5
:101DF4001307B00689B789456315B7001307F006C2
:101E04001DBF8D456315B700130730072DB71307A2
:101E1400500715B71307600739BF03473600136728
:101E2400170017460000A308E65A094739BF83463E
:101E340047070946BD8A6388C600034747078D469E
:101E44003D8BE313D7F4114725BF83465707918A87
:101E5400C9DA034757071367870041B7397106DEAC
:101E640016DC1ADA1ED82AD62ED432D236D03ACE7E
:101E74003ECC42CA46C872C676C47AC27EC0F53326
:101E8400F250E2525253C2533255A2551256825660
:101E94007247E2475248C248324EA24E124F824F16
:101EA400216173002030174700001307A7548346AD
:101EB400B7019747000083C7B7564C4BB697FD8BC5
:101EC40033D7F50097460000A386F65297460000E4
:101ED400A388F654058B15EF174700000347975462
:101EE400B3F7E702814601471305000233D6E50044
:101EF400058A1378F70F19CA6397D700974700002C
:101F0400A38A074F8280850693F6F60F0507E31F21
:101F1400A7FC828097470000938747349C430111B4
:101F240022CC4EC606CE26CA4AC852C456C282978E
:101F3400974700009387074E804781496305A406AD
:101F4400BE84974700009387272D038767013E8946
:101F540063550706018D135455009747000083C746
:101F6400074B9379F501636DF402370AC0A8B70AE9
:101F74004057153F9C449746000083C64649139733
:101F840056003E9783076901158C63C50700636398
:101F9400470156979747000023A2E748E37BD4FC08
:101FA4001604B3693401F24062444E85D244424976
:101FB400B249224A924A05618280E37D85F8B707D7
:101FC400C0A833848740229579B797470000938748
:101FD400E7289C43411122C406C626C2829797472C
:101FE40000009387274380476309A406BE8497476C
:101FF4000000938767228387670163D80704018DF4
:10200400135455009747000083C767406367F4047F
:10201400593D98449747000083C7673F93965700FC
:1020240036971D8C9746000023AAE63EE372F4FE21
:102034002244B2409244174500000345B53B814514
:102044004101170303E067004339E37A85FAB707D0
:10205400C0A833848740229565B7B2402244924495
:1020640041018280974700009387473D9843B757C3
:1020740002009387079F8326070913965600635827
:102084000600832607091396660063440600FD17BD
:10209400FDF3828071C5AA870145E9C58D07C20792
:1020A400C183F19BC207C18313074003636FF70227
:1020B400174700001307873E08431747000013071C
:1020C400673D14436398A602174700001307C7141B
:1020D400185B014541CB4111C20706C60545DD8D9C
:1020E4000297B2400145410182801747000013075F
:1020F400A73AD9B70357650035E303574500636F23
:10210400F704B306F7402146637CD6020328050092
:10211400938687001D8FAA96611717460000035601
:10212400860A2392E60023A006012393060014C125
:102134002312F500130786FF974600002395E6084F
:102144002313B5009745000083D5E507B387F54011
:10215400174700002319F7062105828008419DB71F
:102164000145828082800DC1974700009387073321
:1021740003A30700974700009387C73183A807008C
:1021840081469A8763E31701828003A80700636D81
:10219400F50A636BA80A13878700E367E5FE03D695
:1021A4006700216705076317E60003C7819B0507DE
:1021B400238CE19A974500009385850003D6470058
:1021C40003D76500239307003297420741831745DD
:1021D4000000231AE5FE638A670217450000130511
:1021E400A52B08416303F50203D5660019ED83D7D7
:1021F400460023A0060121073E9621062392C6002D
:10220400974700002391E7FCB6879843E30E17F73E
:1022140097460000938646289442E307D7F68356F0
:102224006700BDF283D64700035647001843A10652
:10223400B2962392D70098C383D76500A1071747A6
:1022440000002312F7F88280BE86C28725BF0111E1
:10225400974700009387072522CC03A4C70B26CAFF
:102264004AC84EC606CEAA8413092500854915C05E
:1022740083C7140003473400858B6304F700405C74
:10228400FDB71946930544004A85EFE0CFFEE318F5
:1022940035FF2285F2406244D2444249B249056185
:1022A40082804111974700009387C71F22C403A46B
:1022B400C70B26C24AC006C693042500054901E897
:1022C4002285B24022449244024941018280A6857B
:1022D4001305A40297C003E0E78060C7E30225FF6B
:1022E400405CF1BF4111974700009387A71B22C4AC
:1022F40003A4C70B26C24AC006C693042500054999
:1023040001E82285B240224492440249410182807C
:10231400A6851305A40197C003E0E78040C3E30248
:0823240025FF405CF1BF000041
:1023300097110020938101B717610020130181CC10
:102340001305400097E5FF1F9385C5CB17060020B6
:102350001306C6FD63FAC5008322050023A05500BD
:1023600011059105E3EAC5FE17950400130585E5FF
:1023700097050020938585FB1386018763FAC500C6
:102380008322050023A0550011059105E3EAC5FE4F
:1023900013850187974500209385C5226377B50093
:1023A000232005001105E36DB5FEFD42739002BCCC
:1023B0008D4273904280B72200009382828873A07E
:1023C000023097E2FF1F9382E2C393E232007390E0
:1023D000523097220100938222DF739012347300EF
:1023E00020303D432A876373C3029377F700BDEF24
:1023F000ADE5937606FF3D8ABA960CC34CC30CC775
:102400004CC74107E36BD7FE11E28280B306C3409D
:102410008A069702000096966780A6002307B700F9
:10242000A306B7002306B700A305B7002305B7002E
:10243000A304B7002304B700A303B7002303B70026
:10244000A302B7002302B700A301B7002301B7001E
:10245000A300B7002300B700828093F5F50F939691
:102460008500D58D93960501D58D61B7939627008C
:102470009702000096968682E78086FA9680C117BA
:102480001D8F3E96E374C3F8A5B73367B500FD53BF
:102490000D8B79E7B7877F7F9387F7F710419441DA
:1024A000B372F6003363F600BE92B3E26200639744
:1024B000720C6318D6065041D441B372F6003363F0
:1024C000F600BE92B3E262006398720A631BD60400
:1024D00010459445B372F6003363F600BE92B3E242
:1024E00062006391720A631ED6025045D445B372EE
:1024F000F6003363F600BE92B3E26200639A72089C
:102500006311D60210499449B372F6003363F600A2
:10251000BE92B3E26200639372085105D105E30FE6
:10252000D6F61317060193970601631CF70013579D
:10253000060193D706013305F7409375F50F91E92E
:1025400082804183C1833305F7409375F50F91E194
:1025500082801377F70F93F7F70F3305F7408280E8
:102560000346050083C60500050585056313D600EF
:1025700065FA3305D640828011059105E312D6FE37
:10258000014582802105A105E31CD6FC014582801E
:102590003105B105E316D6FC014582804105C10530
:1025A000E310D6FC01458280014711464148B386BD
:1025B000E5008147B308F50083C808008507C10618
:1025C00023A816FFE398C7FE11071105E31107FFC3
:1025D0008280935785019CC19357054193F7F70F6C
:1025E000DCC19357854093F7F70F1375F50F9CC522
:1025F000C8C582801C414111130705013EC05C41E2
:102600003EC21C453EC45C453EC693972500140857
:10261000B69783A707FF85051105232EF5FE8D8943
:10262000E315E5FE41018280397122DC41661384A5
:1026300041A306DE26DA4AD84ED652D456D25AD014
:102640005ECE93050501A2863708FF007D1683073D
:102650000500034735001105E207D98F0307D5FFB1
:102660009106420733770701D98F0307E5FF220759
:10267000718FD98F23AEF6FEE39BA5FC814991446F
:10268000930A0101173B0400130B8BF3973B0400E3
:10269000938B8BF0130AC00293F7340003290400D4
:1026A0004844BDE78A85353785450A85A1370A87BD
:1026B0001C43110793F6F70093F7070FDA97B697C5
:1026C00083C70700232EF7FEE394EAFE02459247F4
:1026D0006205C2075D8DB2475D8DA247A2075D8D81
:1026E00093972900DE979C4385093D8D334525014D
:1026F00008C885041104E39144FBF2506254D2549B
:102700004259B259225A925A025BF24B216182809D
:102710003345A90008C8F1BF797122D426D24AD026
:102720004ECE52CC56CA06D62A8A93994500014409
:10273000938A41A313090101C144B3073401D69719
:1027400088438A85793533078A008A871443904302
:1027500091074107B18E2328D7FEE39927FF110483
:10276000E31D94FCB250225492540259F249624A39
:10277000D24A45618280397122DC1304050106DEEC
:1027800022878147C1460C433306F10011070CC272
:102790004C4710083E960CC24C4F10103E960CC28F
:1027A0009107E392D7FE85450A85A9358945080832
:1027B00091358D4508103D3D81474147B306F100F5
:1027C00094421104232ED4FE1408BE96944254C49D
:1027D0001410BE969442910754CCE391E7FEF25058
:1027E00062542161828006059377051089C71375AD
:1027F000F50F1345B5018280411106C6ED37B24091
:102800004101D5B781471148C1483386F500B30669
:10281000F500014703AE06003303E6000507230079
:10282000C301C106E31807FF9107E39017FF8280F9
:102830009306050117360400130686E813050505FF
:10284000138706FF1C43110793F5F70093F7070F53
:10285000B297AE9783C70700232EF7FEE394E6FEF8
:10286000C106E31FD5FC82801C414111FD563EC0CC
:102870005C413EC21C453EC45C453EC68D47B385A7
:10288000B7409307C5001397250010083297032718
:1028900007FFFD1598C36393D5008D451387C7FFC8
:1028A0006314F50041018280BA87F1BF397122DCDF
:1028B0001304050106DE22878147C1460C43330617
:1028C000F10011070CC24C4710083E960CC24C4F49
:1028D00010103E960CC29107E392D7FE85450A85FB
:1028E00061378945080849378D450810B53F81474C
:1028F0004147B306F10094421104232ED4FE14087C
:10290000BE96944254C41410BE969442910754CC7F
:10291000E391E7FEF2506254216182809306050143
:10292000173604001306C6C913050505138706FFED
:102930001C43110793F5F70093F7070FB297AE9773
:1029400083C70700232EF7FEE394E6FEC106E31FCC
:10295000D5FC8280411122C406C626C285472E843A
:102960006301F50289476318F5002244B24092449E
:102970002E8541018DBD8D47631BF5002E85A53544
:10298000298C2285B2402244924441018280A5478D
:102990006315F5002E858D35DDB7AD47631AF5005B
:1029A0002E85993D8935AA842285353D258DC9BF5F
:1029B000B5476316F5002E858135AA84FDB7B94762
:1029C000E311F5FC2E850D3DAA84313DA98C2285AD
:1029D000193D3344950075B7597186D6A2D4A6D255
:1029E000CAD0CECED2CCD6CADAC8DEC6E2C4E6C2DF
:1029F000930605040A87AA879043C1074107232845
:102A0000C7FE03A647FF232AC7FE03A687FF232C82
:102A1000C7FE03A6C7FF232EC7FEE39FD7FC1739C7
:102A200004001309E9DD130A050193090505832C48
:102A30000900032C4900832B8900032BC900930A4A
:102A40000AFF8A848C406685910A29378C482A843B
:102A5000628509378C50298C5E85ED3D8C58298C18
:102A60005A85CD3D218D23AEAAFE9104E31C5AFD6B
:102A7000410A4109E39D49FBB65026549654065934
:102A8000F649664AD64A464BB64B264C964C65618B
:102A900082806382051493F7F500639E0712157117
:102AA000D6C3AA8A3285A2CDA6CB86CFCAC9CEC745
:102AB000D2C5DAC15EDF62DD66DB6AD96ED73284E9
:102AC000AE84EFF0C350C147631EF5002285A93ED6
:102AD0000149130A0106973B0400938B6BD2294CE2
:102AE00063419902FE406E44DE444E49BE492E4A7F
:102AF0009E4A0E4BFA5B6A5CDA5C4A5DBA5D2D61F8
:102B00008280338B2A010C105A85793C814508104C
:102B100021318549081019350810B1391C10D286A9
:102B20003E8710434107C10623A8C6FE032647FF80
:102B300023AAC6FE032687FF23ACC6FE0326C7FFD3
:102B400023AEC6FEE31FEAFC17370400130747C78E
:102B500003280700832D4700032D8700832CC7001F
:102B60005284138607010C4042853ECE3ACC32CACD
:102B700042C8CD330C482AC66E85E93BB2460C509C
:102B80001104A98E6A8536C6F133B2464C54A98E1B
:102B9000668536C6C133B246F2475246358D88C384
:102BA000910742486247E310F6FC4107B287E39180
:102BB000EBFACE85081085098536E39D89F5081066
:102BC000B13B08104D3EA9450810B936DA8508100A
:102BD0001539410931B78280638D051093F7F500EF
:102BE000639907105171CECFAA893285A2D5A6D399
:102BF00086D7CAD1D2CDD6CBDAC9DEC73284AE846D
:102C0000EFF0E33CC1476319F5002285313C0149EF
:102C1000138B41A3634D9900BE502E549E540E5900
:102C2000FE496E4ADE4A4E4BBE4B6D618280338A4E
:102C300029018C0052858D3AA9458800F13C138406
:102C400041ACC14A930B00048800DD368800B939D5
:102C50008800593308408A85AD3A48400C08953AB7
:102C600008440C10BD3248440C18A53218018147A5
:102C7000B306F100944241072328D7FE1408BE96FC
:102C80009442232AD7FE1410BE969442232CD7FEDA
:102C90001418BE9694429107232ED7FEE39A57FD4F
:102CA00008011D3B01479C003385E7001C01B3056B
:102CB000F70081473306F5003388F50014420328F6
:102CC00008009107B3C6060114C2E39557FF4107F8
:102CD000E31B77FD4114E31964F78800913E8800F7
:102CE000F136814588000D3CD2858800213E41099E
:102CF00015B782809307F00F6385F60A2D71232A9A
:102D0000911023282111B2842326311113060010BB
:102D10002E89AA89930530020A85232E1110232CAF
:102D200081103684EFF0EFEBA2852685EFC0D05FEF
:102D300013178500935785003365F7002310A10012
:102D4000A6852286130531009304340023018100F7
:102D500093F4F40FEFE0034693F6F40089C64D04B4
:102D6000158C9374F40F1C02A697A6850A85173656
:102D700004001306A6AE238007F0213B26868A8531
:102D80004E85EFE02343230099008320C1110324E3
:102D9000811183244111032901118329C110156177
:102DA00082808280797122D432844AD04ECE2A89A0
:102DB000AE892285B68517360400130626AA26D2C8
:102DC00052CC06D636C6093DB246130A34005285A7
:102DD000A2962380060083440400834714008345A1
:102DE0002400A204DD8CEFC03054639AA402034691
:102DF0002400D2854A852380C900EFF02321254590
:102E0000973504009385C5A3EFC0D0550545B25052
:102E1000225492540259F249624A456182802380C9
:102E2000090025452300090097350400938505A274
:102E3000EFC050530145E1BF411106C6EF80106E4F
:102E4000B240AA8617370400130707A817160020F8
:102E5000130646C3973504009385C5A81145410163
:102E60006FC01065130101DB23229124232021254B
:102E70002326112423248124232E3123232C412390
:102E8000232A5123232861230347050093071004B5
:102E90002A89AE84631BF77003471500930740052A
:102EA0006315F770034725009307E005631FF76E6E
:102EB0002E86AA852545EFC050551306D003A6855A
:102EC0004A85EFC0306C2A84635A05003546A685D2
:102ED0004A85EFC0306B2A84634405089309D4FF08
:102EE0009307100363CE37074E86930539002808F1
:102EF000EFF0C3111C1CBE99173A0400130A0ACE46
:102F0000238409DED28A8149594B83254A00280847
:102F1000EFC010610DC18E09D69983D709005547BE
:102F2000636FF70017370400130787948A07BA976F
:102F30009C43BA9782878509210AE39869FD9735F2
:102F400004009385E5C8CDA89385F4FF818D130512
:102F50001400C20581460146C1814A95EF30B06C2C
:102F60008320C124032481248324412403290124B0
:102F70008329C123032A8123832A4123032B01238D
:102F80001301012582801386F4FF018E930514003E
:102F900042064182CA95E800EFD000071305D1042C
:102FA000EFF0E30293150501C1811305D104EFD0C1
:102FB000001497350400938525941305D104EFC0C0
:102FC000305619CD97350400938585930545EFC09C
:102FD0007039171500200345A556EF60F03D49B73D
:102FE00097350400938505931305D104EFC0505322
:102FF00019CD97350400938565920545EFC090364D
:10300000171500200345C553EF60D03D91BF97359C
:1030100004009385A5911305D104EFC070500DC134
:10302000371700408327C70AA166973504009385A8
:103030006590D58F2326F70A2545EFC0B0320DB72E
:10304000973504009385C58F1305D104EFC0504D0B
:1030500011CD371700408327870AA16697350400F2
:103060009385858ED58F2324F70AF9B79735040009
:103070009385058E1305D104EFC0904A11CD371703
:1030800000408327C70A9166973504009385058D14
:10309000D58F2326F70A4DB7973504009385058D04
:1030A0001305D104EFC0D04711CD37170040832757
:1030B000870A9166973504009385058CD58F232464
:1030C000F70A9DBF973504009385058C1305D1043D
:1030D000EFC01045973504009385C58B31FD9735BA
:1030E00004009385E58B1305D104EFC07043973539
:1030F00004009385A58B29F1973504009385C58B32
:103100001305D104EFC0D04111C59717002023A7A4
:103110000744B9B5973504009385C58A1305D104D2
:10312000EFC0104001C5EF7020481DBD9735040069
:103130009385058A1305D104EFC0903E01C5EF7059
:10314000C04D39BD97350400938545891305D104D9
:10315000EFC0103D01C5EF70400B19B59735040065
:10316000938585881305D104EFC0903B01C5EF908E
:10317000B067FDB397350400938585871305D104A7
:10318000EFC0103A01C5EF909066D9BB97350400A7
:10319000938585861305D104EFC0903801C5EF9063
:1031A00070657DBB975504009385C5541305D10404
:1031B000EFC0103701C5EFC080085DB3973504003C
:1031C000938545841305D104EFC0903501C5EF0008
:1031D000613979B397350400938545831305D1048C
:1031E000EFC01034E31E05D6973504009385458261
:1031F0001305D104EFC0D032E31405D6973504008F
:10320000938545811305D104EFC09031E31A05D4AD
:103210000346D104A547130606FD1376F60FE3E136
:10322000C7D4971700202385C732972504009385BC
:10323000A57EEFC0F0272DB31386F4FF018E130592
:1032400014004206418297450400938525884A95DB
:10325000EFC0B040171400201304C42D31C59725CA
:1032600004009385A57CE800EFE05355E800EFE00B
:103270001356131605014182EC0013854163EF904C
:10328000A057972504009385257D1145EFC0900D2B
:1032900083570400414593E7170017170020231BAD
:1032A000F728EFD020486DB9972504009385857BDA
:1032B0001145EFC0300B7D55EFD0604C83570400B3
:1032C000F99B171700202317F72659B9B53649B9C6
:1032D0001386F4FF018E13051400420641829735D0
:1032E00004009385A57E4A95EFC03037171400205F
:1032F0001304442429C183570400972504009385AF
:103300002577E80093E71700171700202314F7220A
:10331000EFE0D34AE800EFE0934B13160501EC0011
:10332000418213854163EF90204D972504009385DA
:10333000E575114519B3972504009385E575E800F7
:10334000EFE0D347E800EFE0934813160501EC00E7
:10335000418213854163EF90204A835704009725EB
:10336000040093852575F99B171700202314F71C7B
:10337000C9B7EF805018971700209387A71BC85F25
:10338000EFD07337AE862A86972504009385457360
:103390001145EFC0F011E9B6EF60501AD1B61736FB
:1033A00004001306267397250400938525721145A2
:1033B00049B5EF80301A972504009385E57135F9FA
:1033C0009725040093854572ADB73545EF90F036EB
:1033D000AA84EFD053322A86AE862545972504006D
:1033E0009385C571EFC0D00C972704009387875051
:1033F0008843A685170400201304447FEFD0C3063A
:103400002328A422EF80701F03250423EFD0B32EBE
:10341000AE862A86972504009385056F95BF814562
:103420000D45EF702005EF80B00E2A869725040029
:1034300093854570ADBF81453145EF70A00381454F
:103440003945EF70200381453545EF70A002EF80CC
:10345000900C2AC6EF80F00CB2462A87170600208F
:1034600013064662972504009385C56D1145EFC08C
:103470003004FDB4171700200357E7999716002072
:103480009386D680170600201306C65F9725040092
:103490009385856DE1BF8547171700202308F798AE
:1034A000EF80B015972504009385456D59B5171722
:1034B00000200347A7978547972504009385856CCF
:1034C000E319F7E6C5B7854717170020A30BF79A4E
:1034D000EF80B012972504009385856B99BD9717EF
:1034E000002083C7179A972504009385E56AE38235
:1034F00007E4CDB7971700209387C703885FEFD005
:10350000931FAE862A86972504009385A56949B541
:103510003D2E05044A9431468145171500201305B8
:10352000558D97D0FF1FE780C04F8144930AA400B8
:10353000695AB30994400946CE85E80097D0FF1F29
:10354000E780A04A33899A000946CA854E8597D0FC
:10355000FF1FE78080490946EC004A85F91497D09F
:10356000FF1FE7808048E39644FD1946A2851715A2
:10357000002013051588EFC0301C81451715002069
:1035800013053587C9222286972504009385C562D5
:103590001145EFC0E0710146970500009385652B4A
:1035A00013056009EF60A03D65BA0146A6854A850E
:1035B000EF60104F75B27971B1472300F1009307A6
:1035C000170022D4A300F10006D62301C1002A84EB
:1035D0008D4715C781471386370008101376F60FFD
:1035E0002A963385F6000345050085072300A6FECD
:1035F00013F6F70FE311E6FE0D079377F70F8146F9
:103600000147850613F6F60F6368F6041410BE969C
:103610002380E6FE1387170014101377F70F3697F1
:10362000B5462300D7FE9386270093F6F60F0A8649
:103630002285EFF0D07EDD47631CF50025459735E8
:1036400004009385E5C3EFC0E0512285EFF0307BA5
:10365000B2502254456182803306D10003460600F1
:1036600032971377F70F71BF85472A86AE8663E3DB
:10367000A702930780023307F502938741AE2545E1
:10368000BA9798474D8F98C797350400938505C022
:103690006FC000628280411122C406C683C7B1AEEA
:1036A0002A8481C7AA850145C13783C731B199C72B
:1036B000A2852244B240054541017DB7B240224473
:1036C0004101828085472A86AE8663E5A70293077B
:1036D00080023307F502938741AE93C5F5FF254578
:1036E000BA9798476D8F98C7972504009385C56949
:1036F0006FC0005C8280411122C426C206C683C707
:10370000B1AE2A84938441AE91CB98449347F5FFA0
:10371000AA85F98F014523A6F1AE6D3783C731B174
:1037200091CF9C581347F4FFA2852244B2409244A3
:10373000F98F23AAF1B00545410169B7B24022448F
:1037400092444101828001114EC606CE22CC26CA87
:103750004AC883C9B1AE6388090683C731B17D54B5
:10376000B9EB8549054493078002B307F40213843B
:1037700041AE2E89AA841306800281453E9422859B
:1037800097D0FF1FE780E0298547A303F400228537
:103790001946A68597D0FF1FE7802025CA852303F9
:1037A00024012685EFF0306FB74507002A84938502
:1037B000F5804E85553D2285F2406244D24442490F
:1037C000B24905618280014479BF011119468145E2
:1037D000280006CE97D0FF1FE780A024130600051F
:1037E0008145138541AE97D0FF1FE780802319469E
:1037F000970500209385F55F280097D0FF1FE7808D
:10380000C02785476308F50081451705002013058B
:10381000555E153F1946970500209385F55D2800F4
:1038200097D0FF1FE780602585476308F500814535
:10383000170500201305555C39379707002083C70B
:10384000475B99C3EFD04059F24005618280411136
:1038500006C6EFF0906DB240130600058145138552
:1038600041AE410117D3FF1F6700A31B854763E2E9
:10387000A70293078002B307F502138741AE014503
:10388000B306F70083C6760091C6B1073305F7008B
:10389000828001458280397106DE22DC26DA4AD830
:1038A0004ED652D456D283C711876147636BF7084F
:1038B0008507A388F1869707002083C73753ADCBD0
:1038C000138441AE138941B385449719002093892D
:1038D00069C6130AC003972A0400938AAA4983473A
:1038E0007400B9C783470402638497045C4C03A740
:1038F000C9021D8F9707002083C7574FB38747031F
:103900006364F7021305002023009402EFD0400007
:1039100019466C002285EFC0A05D7000D685254554
:10392000230C0100EFC0C03813048402E31924FB08
:10393000F2506254D2544259B259225A925A2161D9
:1039400082800D45A3880186B933B5B75D71CAC0C1
:10395000138901878347090052DC56DA858B416A57
:10396000856A4EDE5AD85ED686C6A2C4A6C2238811
:10397000F186054B938941AE930B80027D1A938AA1
:103980000A8003C50187636AAB0C330575034E9546
:10399000044599CC8347750081CFEF00E1762A84F6
:1039A00011ED972504009385A5702545EFC0801B78
:1039B0008347090085072388F186E1B7834705001F
:1039C000918BFDD783568500E38446FF03C60187AC
:1039D000972504009385056F2545EFC0602D9397CB
:1039E000C40063DF070893067100130661009307A4
:1039F00091003800930551001305A100EF90402C71
:103A00008357A10013074006972504009385C56DD1
:103A1000B3F7E70225452306F10083475100A306CB
:103A2000F100834761002307F10083477100A3077A
:103A3000F100834781002308F10083479100A30828
:103A4000F100EFC02012194774001306800A835555
:103A5000E40003558400EFF01FB683C701870947D0
:103A60006385E70085072388F186B640264496449F
:103A70000649F259625AD25A425BB25B6161828056
:103A800093F7140081CF972504009385256725457A
:103A9000EFC0400D01477400254655BF93F7240041
:103AA00081CF97250400938525672545EFC0800BBE
:103AB00001477400194661BF93F7041085CB972521
:103AC00004009385E5662545EFC0C00903C501875D
:103AD000930780023305F50250006C004E95EF000D
:103AE000306A034741007400094695B793F70420F4
:103AF00085CB972504009385E5642545EFC08006B6
:103B000003C50187930780023305F50250006C005E
:103B10004E95EF00F0660347410074000D4605BF67
:103B200093F7044081CF97250400938525632545AD
:103B3000EFC0400301477400054611BFB3F75401BD
:103B400085C7972504009385A5622545EFC08001B0
:103B5000970700209387870983C7272005477400AC
:103B60002306F1001146E5B59397340163D90702A6
:103B700097250400938585612545EFB0B07E9707B2
:103B800000209387A70683D7E72274001D4613976A
:103B90008700A183D98F2316F10009474DBD939764
:103BA000240163D50702972504009385E55F254529
:103BB000EFB0507B970700209387470383C71720F8
:103BC000054774002306F100354651B5939714015B
:103BD00063DD0700972504009385455F2545EFB019
:103BE00070780547740039469DB593F7440081CF3E
:103BF000972504009385C55E2545EFB0B076014753
:103C000074001546A9B593F7840081CF9725040069
:103C10009385855E2545EFB0F07401477400214619
:103C20003DB59397040163DD070097250400938554
:103C3000655E2545EFB0107305477400414601BD30
:103C40009397F40063DD0702972504009385055ED2
:103C50002545EFB0307197070020938727F903C7F8
:103C6000372074004D462306E10003C7472083C771
:103C70005720A306E1002307F1000D47C9BB939726
:103C8000E40063DD0700972504009385E55B254587
:103C9000EFB0506D01477400514655BB9397D40067
:103CA000E3D807D0972504009385C55B2545EFB081
:103CB000706B01477400554659BB954763F2C74E78
:103CC0005971A6D2CECED2CC86D6A2D4CAD0D6CA6C
:103CD000DAC8DEC6E2C4E6C2EAC06EDE328AAE8967
:103CE000EF00C149AA84630605121946938541AEC7
:103CF00097D0FF1FE78060D80544630B85121946F3
:103D00009385C1B0268597D0FF1FE78000D7631247
:103D10008510930A8002B3075403938A41AE856BE2
:103D2000814D171D0020130DED80172B0400130B80
:103D30006B07938B0B80BE9A5689B384B90103C776
:103D40000400B1476312F70C13874D006353470D0E
:103D500083CC1400138C3D00B3079C0163D6470B42
:103D6000CE9783C60700B5476390F60A8147814620
:103D70003386F40003461600850793F7F70FB296D3
:103D800093F6F60FE3F6FCFEB387940183C7270092
:103D9000639CD7068327CD0283460902232EF900B0
:103DA00085476397F602130500403AC6EFC05036C8
:103DB00019466C085685EFC0A013700897250400BB
:103DC0009385C5FE254523040102EFB0706E32478E
:103DD0002300090283C73400A5466382D72863E520
:103DE000F60A11476381E71E6366F7040547638996
:103DF000E7126389071089466381D7148D46638172
:103E0000D718669C937DFC0F850D93FDFD0FE3E6AF
:103E10004DF3B650265496540659F649664AD64A8A
:103E2000464BB64B264C964C064DF25D6561828042
:103E30000144C5B51947638CE71C63EFE7181D47BC
:103E40006386E7202147E39EE7FA83C7440003C562
:103E50005400A2075D8DEFC0835303260B00832619
:103E60004B00EFB0430BEFD0C313232CA900EFD0CE
:103E700083082A86AE862545972504009385450943
:103E8000EFB01063A14575A0BD466388D72663E6F1
:103E9000F6022D47638BE72063E2E7203547638511
:103EA000E7243947E39FE7F49725040093854511FC
:103EB0002545EFB0304B9165ADA8D146638BD72631
:103EC00063E1F6024147638DE7244D47E39BE7F248
:103ED00097250400938545152545EFB0B048C16589
:103EE00089A8D546638CD7281307800AE39BE7F09F
:103EF000972504009385051A2545EFB0B046B70510
:103F0000080005A883C7440003C654009725040091
:103F10009385C5EAA2075D8E2545EFB07059D5B5EA
:103F200097250400938545EB2545EFB0B0439305F5
:103F300000402285EFF00FF9E9B583C7440063958F
:103F4000E70297250400938565EA2545EFB0904187
:103F50000965EFC0F01B172504001305A5EAEF1053
:103F6000705493050010F1B72545972504009385FB
:103F700065EAEFB0303F172504001305E5EAC5B741
:103F800083C744006395E702972504009385C5EA3B
:103F90002545EFB0303D5E85EFC090171725040032
:103FA000130505EBEF1010509305002059B7254578
:103FB00097250400938505EBEFB0D03A1725040050
:103FC000130585EBC5B7972504009385E5EB2545DB
:103FD000EFB05039DE85B1BF03C54400EFC0233BCD
:103FE00003260B0083264B00EFA0F372EFC0737B18
:103FF000232AA900EFC033702A86AE86254597256F
:1040000004009385A5EAEFB0B04A91451DB783C778
:10401000440003C55400A2075D8DEFC0433703265B
:104020000B0083264B00EFA0136FEFC0937723287C
:10403000A900EFC0536C2A86AE862545972504005B
:10404000938545E9EFB0D0468945E5B5972504004D
:10405000938505EA2545EFB0F0308565D9BD83C766
:10406000440003C55400A2075D8DEFC04332032610
:104070000B0083264B00EFA0136AEFC09372232638
:10408000A900EFC053672A86AE8625459725040010
:10409000938585EAEFB0D041854561BD03C64400F4
:1040A00097250400938505EB85BD854717070020FC
:1040B0002301F7D4EF707054EFC01052972504001D
:1040C0009385C5EA2545EFB0F0299725040093852F
:1040D000A5EB2545EFB010291165EFC07003916580
:1040E0002285EFF06FD831BB97250400938505EB4F
:1040F0002545EFB0302789652DBD972504009385B0
:10410000E5ED2545EFB01026972504009385C5EE13
:104110002545EFB030252165EFC0807FA165C9B787
:1041200097250400938545EE2545EFB0B023A165A2
:1041300009B593845D00990DB387E900CE94CE9DB7
:1041400003C6070003C70D0083C6040097250400BB
:104150009385C5EF25453EC6EFB09035B247B7050C
:10416000020083C70700A300F90283C704002301EC
:10417000F90283C70D00A301F90265BBB384E9000E
:1041800003C6040097250400938505EF2545EFB08D
:10419000303283C70400B70504002302F90251BB83
:1041A0008280411122C4216493050480994601460E
:1041B000254506C697C0FF1FE780804C9305048005
:1041C0002244B2409946138641872945410117C3CD
:1041D000FF1F6700E34A99E10145828075DD011107
:1041E00052C403DA818726CA93548A008504A20444
:1041F000C204C18056C2B38A4441C20A22CC4AC812
:104200002E862E842A89972504009385E517254557
:1042100093DA0A014EC606CE93894187EFB0502942
:1042200063ED8A0883D5818793F7F50FB1CF8D674A
:1042300083D5818793870780A2864A86BE952945C4
:1042400097C0FF1FE780C0431375F50F29ED83D793
:1042500049001566A297239CF18603D7818783D7EF
:1042600061876309F70063F3E700B297998F1396AC
:104270000701418225459725040093856512EFB01B
:1042800030231375F40F0DA08D6793870780930675
:1042900000100146BE95254597C0FF1FE780403EB0
:1042A0001375F50F49D50145F2406244D2444249A5
:1042B000B249224A924A05618280B3079440D2975C
:1042C000C207C183A18303C74900850793F7F70F8E
:1042D0009396870011EB9386170093740AF0A20659
:1042E000C204C206C180C18283D7618763F6F4002D
:1042F00033879600E3C9E7FA0D6A130A0A8001467C
:10430000B3854401254597C0FF1FE78060371375CB
:10431000F50F51F983D58187A2864A86D29505B7D4
:10432000411122C41384418722858145194606C65E
:1043300097C0FF1FE780E06E9307B0FA2300F400F8
:104340008D352244B24097250400938565FC2545B0
:1043500041016FB03001A165411199461386418733
:10436000938505802D4506C697C0FF1FE780403125
:1043700003C741879307B00A6303F7005537B2407C
:1043800083D6818703D6618797250400938505F935
:10439000254541016FB0D01183D741B30145638CEE
:1043A000071003D561B36366F50023AA01B2014586
:1043B00082803385A740D1473355F5021375F50F39
:1043C00001E5239A01B28280130101BD23248142B9
:1043D000232611422322914223202143232E3141BF
:1043E000232C4141232A514195471374F50F63F360
:1043F000A7001544228697250400938525FC2545B2
:10440000EFB0100B01498144938981B3514AA14A0D
:104410009377F90F03D561B31707002003479793EC
:1044200063E98704D1473304F4022A94239B81B2C1
:10443000A147631CF706A6850808EF40502803D75C
:1044400061B383D741B305456364F70023AA01B282
:104450008320C14203248142832441420329014233
:104460008329C141032A8141832A41411301014328
:104470008280B30749031408AA97CE973385960024
:10448000631E5701BE85EF4010432317A1008357D9
:10449000E1000509BE94C204C1809DBFAA85130630
:1044A000E1003E85EF900075DDB726860C080145DA
:1044B000EF70806D69B78280011106CE22CC26CACA
:1044C0004AC84EC691E901442285F2406244D24472
:1044D0004249B24905618280AA8975D583D781870F
:1044E00003D661872E849564638AC7006374F600DF
:1044F00015673A961D8E93140601C180268697256E
:1045000004009385E5DD2545EFB0807A938714F0AC
:104510006356F4009307F00F63EA970097250400B1
:10452000938585DD2545EFB0A07871BF83D4818761
:1045300033878400956763C9E700A2854E85EFF055
:104540009FC9EFF01FC649B7156933099940420961
:1045500013590901CA854E85EFF0FFC72DD5ED75BA
:10456000A695A295C205239C0186C18133852901A8
:10457000F9B783D641B381EA97250400938545DED8
:1045800025456FB0205E03D661B34111918E97250A
:1045900004009385E5DD254506C6EFB060711387FD
:1045A00041B38355070083D761B3138581B39D8DD4
:1045B000C2053E95C1810937B24023AA01B241012B
:1045C0008280411183D741B322C426C206C6AE976A
:1045D0001307401FAA842E84635AF700593F97257A
:1045E00004009385A5D52545EFB0C05783D741B3C7
:1045F000138581B32286A6853E95EFC0B33B03D6D3
:1046000041B3229642062244B24092444182239A08
:10461000C1B2972504009385E5D3254541016FB0CC
:104620002069011126CA06CE22CC4AC84EC652C401
:1046300056C2814459C1D1C183D7618703D48187D0
:10464000638D870663F587081D8C42044180AE891F
:104650002A89228697250400938505C50145EFB078
:104660002065A28463F38900CE84C2040D6A83D7D7
:10467000618703D78187C180938A4187130A0A80A3
:1046800063FAE704A6864A86B38547012D4597C09D
:10469000FF1FE780E0FE83D72A00A697239BF186C1
:1046A000EFF03FB083D6818703D66187972504005A
:1046B0009385C5C02545EFB0A05FF24062442685D2
:1046C0004249D244B249224A924A05618280156722
:1046D0003A949DBF15671D8FB385470163D5E400EC
:1046E000A6864A8665B79569B389F9406D743E948C
:1046F000C20993D909012694CE864A8642042D45E3
:1047000097C0FF1FE780C0F74180A28633063901BA
:10471000D2852D45239B018697C0FF1FE78040F679
:1047200083D72A003E94239B81869DBF397106DE84
:1047300022DC26DA4AD84ED652D456D25AD05ECE91
:1047400062CCE9C9328455CA368CE9C6BA8B79C3C2
:104750002A89AE8A2300AC0085448149114B330677
:1047600034416353CB001146137AF60F5286B3855A
:104770003A01480002C2EFC0F323034751008347C8
:10478000610003467100834641004A97CA974A96E2
:10479000050789070D06CA962307E100A306F10065
:1047A000A307D1002306C100780081470346070014
:1047B000B306F9008507B18E2300D70093F7F70FF2
:1047C0000507E39567FF8357C1000357E100D299BE
:1047D00033059C00B98F2316F100B24711462C0017
:1047E000910493F9F90F3EC493F4F40FEFC0931CB6
:1047F000E3E789F623809B0005442285F25062544A
:10480000D2544259B259225A925A025BF24B624C2C
:10481000216182800144D5B71D7186CEA2CCA6CA83
:10482000CAC8CEC6D2C4D6C2DAC05EDE62DC66DAE0
:104830006AD86ED67DC52E84E9C532897DC2368C94
:10484000EDC2834D0500AA84814C054D9149138A20
:104850003D00938A1D00138B2D00930B001033062F
:10486000A44163D3C90011469377F60F3E86B38502
:10487000A40148083EC602CAEFC0D31383466101B3
:10488000034741010346710183475101358F230AD4
:10489000E100B18F33C7ED00B346DB00A30AF1009E
:1048A0003346CA00B3C7FA00A30FE100A30ED1003C
:1048B000230EC100230FF1007408014783C70600CF
:1048C0003386ED00050793870710918FB3E77703D1
:1048D0008506A38FF6FEE31337FFF24733059901F0
:1048E00011462C083ECCEFC0F30CB247910C93FC60
:1048F000FC0F3E9D137DFD0FE3638DF623009C01AD
:1049000005442285F6406644D6444649B649264ABF
:10491000964A064BF25B625CD25C425DB25D2561F9
:1049200082800144F9BF39719307400622DC33F4D9
:10493000F50226DA13077100B684740806DEB37731
:10494000F6023304F402B387C5003E9493978500C2
:10495000A181DD8D9317860021825D8E2314B10025
:104960002315C1002C001146D13389C48345710041
:10497000680882942285F2506254D2542161828068
:10498000317122DD26DB4AD99307110118082A84E8
:104990002E89B2849306F1001306E1009305D1003D
:1049A0001305210106DFEF80A03181471947330647
:1049B000F40003460600B400BE962380C6008507B7
:1049C000E397E7FE8357210113074006B3F7E70299
:1049D0002307F1048347D100A307F1048347E100D3
:1049E0002308F1048347F100A308F1048347010180
:1049F0002309F1049307A0FAA309F104EFD00343BC
:104A00007800F418AC0031461375F50F05334C08E7
:104A100022851946EFB0C04D5008972504009385B4
:104A2000259B254523000102EFB080280346C100E5
:104A30004C08E818EFB0C04B8346C1001819500865
:104A400093971600BA9797250400938525992545D5
:104A5000238207F6EFB0C025034801018347F10028
:104A60000347E1008346D10003562101954897256D
:104A700004009385E5972545EFB080230344C100EA
:104A8000EC184A852286EFC0E372FA502380840036
:104A90006A54DA544A592961828018419387011770
:104AA000104598C303574500544590C72392E7002B
:104AB00058551049D4C7544998CF97250400938579
:104AC000259D0547254590CBD4CB238EE7006FB0BD
:104AD0006009397126DA4AD84ED652D456D25AD005
:104AE00006DE22DC62CE66CC2A89EFD0434E937478
:104AF000F50F8149254BE54A172A0400130A0A934A
:104B000091ECF25062544E85D2544259B259225A15
:104B1000925A025B724CE24C216182800347090089
:104B2000930707FD93F7F70F637CFB009307F7F9F3
:104B300093F7F70F63E2FA06930797FA93F7F70FE5
:104B4000139487016184FD14230089002685EFB04A
:104B500013042A86AE8603250A0083254A0093F4AF
:104B6000F40F0509EF00C1442AC422852EC6EFB018
:104B700013022246B246EFA033322A8C4E85AE8C09
:104B8000EFB013082A86AE866285E685EF90B345BE
:104B9000EFB0237AAA89ADB79306F7FB93F6F60F29
:104BA0008147E3EFDAF8930797FC49BF411122C42C
:104BB00006C6830795022A8499C713059502EFC09C
:104BC000A35C2385A1128307D41291CB1305D412C1
:104BD000EFC0235BEFC0E33C9387810FC8D3B240A3
:104BE000224441018280011126CA9304150022CC7F
:104BF000972504009385858D2A84268506CE4AC88C
:104C00004EC6EFB0E019631E05109725040093858A
:104C1000258C2685EFB0C0186302050E85448307F6
:104C2000D4036386070C13059402EFC0E35585494E
:104C30001379F50F1305D4036387340F8947638C09
:104C4000F418EFC06354A386A112631A39017946A0
:104C500081451385F114238D0186EFD08FF88307EA
:104C6000D40885C31305D408EFC0035203C7A18736
:104C700093071700238DF1869387810FBA97A38B33
:104C8000A7048307D40D85C31305D40DEFC0C34F0C
:104C900003C7A18793071700238DF1869387810FA0
:104CA000BA97A38BA7048307D41285C31305D41224
:104CB000EFC0834D03C7A18793071700238DF186AB
:104CC0009387810FBA97A38BA7048307D41785C353
:104CD0001305D417EFC0434B03C7A18793071700F1
:104CE000238DF1869387810FBA97A38BA704F24097
:104CF0006244D2444249B24905618280971504005A
:104D00009385457D2685EFB0A009E31905F026853A
:104D1000971504009385457CEFB080088944E31023
:104D200005F08144EDBDEFC023462387A112631A2D
:104D300099007946814513851113238D0186EFD0A3
:104D40004FEA8307D40885C31305D408EFC0C343D3
:104D500003C7A18793071700238DF1869387810FDF
:104D6000BA97A38CA7028307D40D85C31305D40D6E
:104D7000EFC0834103C7A18793071700238DF186F6
:104D80009387810FBA97A38CA7028307D41285C398
:104D90001305D412EFC0433F03C7A1879307170041
:104DA000238DF1869387810FBA97A38CA70283077F
:104DB000D417E38E07F21305D417EFC0E33C03C703
:104DC000A18793071700238DF1869387810FBA97E8
:104DD000A38CA70229BFEFC0233BA387A11201BF69
:104DE000411122C406C6830795072A8499C7130573
:104DF0009507EFC06339A385A1128307D40899C72B
:104E00001305D408EFC043382386A1128307540B3F
:104E100091CB1305540BEFC0C336EFC083189387B3
:104E2000810F88D7B240224441018280011126CAF5
:104E30008146B284014652C456C206CE22CC4AC82C
:104E40004EC62A8AAE8AEFA0436841CD9307E0049C
:104E50006386F400930730056395F40897190400FE
:104E60009389C96403A6090083A649005285D685A3
:104E7000EFA0930237949800EFB0A34B130404689B
:104E80002A8933758502EFB0A35703A6090083A6CC
:104E90004900EFA04308971704009387A761904348
:104EA000D443EFA043072A8A33558902AE8AEFB074
:104EB00023552A86AE865285D685EF90D3121307E6
:104EC0003005AE876395E400B7070080AD8FF240F0
:104ED0006244D2444249B249224A924ABE8505619F
:104EE000828001458147E5B7011126CA8146B28417
:104EF000014652C456C206CE22CC4AC84EC62A8AA1
:104F0000AE8AEFA0835C41CD930750046386F40022
:104F1000930770056395F40897190400938909595C
:104F200003A6090083A649005285D685EFA0C37663
:104F300037949800EFB0E33F130404682A8933756F
:104F40008502EFB0E34B03A6090083A64900EF906A
:104F5000937C971704009387E7559043D443EF90D1
:104F6000937B2A8A33558902AE8AEFB063492A8639
:104F7000AE865285D685EF90130713077005AE876E
:104F80006395E400B7070080AD8FF2406244D244DD
:104F90004249B249224A924ABE8505618280014552
:104FA0008147E5B7135785009357050113D885004E
:104FB0009376F50F01111377F70F93F7F70F6185CC
:104FC00093F5F50F1378F80F99C211C3B9E3230CC9
:104FD000D100A30CE100230DF100A30DA1000345B6
:104FE0009101834781010347A1012205A30E01011D
:104FF0004207C98F230EB1000345B101D98F034782
:10500000D1018345C101620522075D8DD98D0561FE
:10501000828032951375F50F131385011353834165
:105020005D466357660861463363C302850713769E
:10503000D70F114593F7F70F6305A6002545631AAF
:10504000A6007946637FF60205071377F70F8547B9
:105050000DA809466312C7041386067D930840060F
:10506000B36816036385080013F5360011C51305F0
:1050700000193366A60219EE75466374F60085477B
:105080000D47230CD100A30CE100230DF100A30D6B
:105090006100B1B77146D5B77D46E374F6FEB147FE
:1050A000E314F7FA850693F6F60F85470547D1BF57
:1050B000E35903FC6105FD171313850193F7F70FFF
:1050C00013538341DDFF7D171377F70F1146F9471F
:1050D000E309C7FA1946E306C7FA2546E303C7FA08
:1050E0002D46E300C7FA89476316F7021386067D4B
:1050F00093074006B367F60291C793F83600F54769
:10510000E38108F893070019B367F60293B7170015
:10511000F10785BFFD4735F7FD1693F6F60F3147CA
:105120008DB783471500034705000111A2075D8F66
:10513000834725008346350006CEC207D98F034733
:1051400055008345450017F6FF1F130626AA0306E0
:105150005621E206220733E5F600D98DA135135812
:1051600085001356050193D7850013F7F50F93F7C4
:10517000F70F935685011376F60F9375F80F137595
:10518000F50FEF70303B97F7FF1F83C737A6054732
:105190006385E70011476396E700F24005616F7091
:1051A0001049F240056182804971232481161384DD
:1051B000810F8307340083C8D10F03C8C10F03C711
:1051C000A10F83C6910F03C6810F97150400938525
:1051D0006532481023261116232291162320211709
:1051E000232E3115EFC033574810EFC0535E1848D7
:1051F0005C48030604033AC03EC2030814035C443F
:1052000018445410971504009385C5303695EFC0A7
:1052100093544810EFC0B35B5C103E958307640065
:10522000171604001306862C89C7171604001306E8
:10523000662B972504009385E5F9EFC0D3514810FC
:10524000EFC0F358544C104C5C1097150400938534
:10525000652D3E95EFC033504810EFC053570306FD
:1052600034035C103E95971504009385652CEFC0C0
:10527000934E4810EFC0B35503072403AA84485047
:105280003ACE1384810FEFB0134772475C10AE869D
:105290002A86971504009385A52A33859700EFC0C9
:1052A000934B4810EFC0B3525C1003C6C112971560
:1052B00004009385652A3E95EFC0F3494810EFC07E
:1052C00013515C10971504009385052A3E95EFC095
:1052D000F34E13896111A28497290400938909EF81
:1052E00003C6740519CA481032CEEFC0534E724639
:1052F0005C10CE853E95EFC013468504E39224FFF3
:105300004810EFC0D34C5C109715040093854526D8
:105310003E95EFC0B34A97240400938424EB0346E0
:10532000940319CA481032CEEFC0734A72465C101B
:10533000A6853E95EFC033420504E31224FF4C10CE
:105340002545EFA030028320C11603248116832453
:105350004116032901168329C11575618280411107
:1053600022C406C626C2830755012A84B9C7A946A6
:10537000938707FDB387D70203476501130707FD2E
:10538000BA97A38DF10E03077501834785011307B3
:1053900007FD3307D702938707FD3E97238EE10E63
:1053A000830795010347A501938707FDB387D702BC
:1053B000130707FDBA97A38EF10E8307940281CBE2
:1053C000130710046391E7148547238FF10E8307B9
:1053D000D4039384810F99C71305D403EFB0735A94
:1053E00088C4CCC40306140509CA8844CC44238469
:1053F000C112EFF0BFA388C4CCC48307540699C779
:1054000013055406EFB0F35788C8CCC803069407B9
:1054100009CA8848CC48A384C112EFF0FFAC88C801
:10542000CCC88307D40899CF1305D408EFB07355BF
:10543000971704009387870A9043D443EFA0C325AE
:1054400088CCCCCC8307140A99C71305140AEFB093
:10545000B353239CA1108307540BB9C7A946938764
:1054600007FDB387D7020347640B130707FDBA97FD
:10547000238DF10E0307740B8347840B130707FD7D
:105480003307D702938707FD3E97A38CE10E83076E
:10549000940B0347A40B938707FDB387D702130729
:1054A00007FDBA97238CF10E83853400856703C608
:1054B000C10F938707E11307C0033307E60283C6D2
:1054C000D10FB387F502BA97B69723A2F11217F757
:1054D000FF1F13072706835707003A8413F5870039
:1054E00039E1038564000547631FE50203C7A10F87
:1054F00011EF8844CC4401468146EF90137D05E9C5
:10550000238F010EB9A0238F010ED1B5FDD175D225
:10551000EDD293E787001385810F17F7FF1F231B39
:10552000F700EFF01FC083876400E1F7D1BF884820
:10553000CC4801468146EF90537979D183C7A10FBA
:10554000E1D3130680079385810F13850108EFB01F
:10555000734603C501D39D4705053365F502130660
:1055600080079385810F2388A1D293078007330595
:10557000F502938781D33E95EFB0D343EFF0DFC2BE
:105580005C542244B240924417F7FF1F232EF7FCCD
:105590001306800781451385810F41016FC07FE4A9
:1055A0000171232C811E232A911E1306101E2A84AA
:1055B000AE8468008145232E111E2328211FEFC0D1
:1055C0005FE281458147014701465148CD485D432F
:1055D0006341960899C12306F1001306A002A6852F
:1055E0002285EFA0207A8347C10051473386A4402B
:1055F000B387E7029305150078007D16A29585070D
:105600003305F700EFB0133B1306A002A6852285F1
:1056100003491400EFA00077894763C4A708034536
:10562000C100D1473305F5027C0005053E95EFF03A
:105630004FCA631DA904194697150400938505E810
:105640001305D100EFA070012DC56800EFF03FD128
:1056500035A8B306C40003C50600930665FD93F69E
:10566000D60F91EA850793F7F70F6361F30285453B
:1056700001470506B1BFB3860703130E011FF2965B
:10568000BA96A38EA6E00507E3D5E8FE8320C11FE6
:105690000324811F8324411F0329011F13010120BB
:1056A00082803307F4000347070085073349E90088
:1056B000ADB7194697150400938585E01305D10011
:1056C000EFA0A0790DED194697150400938585DFAD
:1056D0001305D100EFA0607819ED19469715040065
:1056E000938585DE1305D100EFA0207745D16800B2
:1056F000EFF06FCF61BF6800EFF08FEE41BF680041
:10570000EFF0CFCA61B7757122C526C34AC1CEDE9C
:10571000D2DCD6DADAD806C7AA892E8981440144B8
:105720008147130A4002854A354B13970401418390
:10573000636C2701BA402A449A440A49F659665ACA
:10574000D65A465B49618280338799000347070038
:1057500063014703639D5701631E67019C18A2976D
:10576000A2856800238E07F8EFF09FE38147850448
:105770006DBF01449C18A29705041374F40F238E87
:10578000E7F893373406E5B7411106C6138501D310
:1057900083470500130780078145B387E702130697
:1057A0008007A1073E95EFC0DFC3B2408145114598
:1057B00041016FA0B070138501D383470500130723
:1057C0008007B387E702A1073E9582801385010811
:1057D000828097F7FF1F83C767D681CF97E7FF1FA8
:1057E00083D72762FD17C207C1831307A003637520
:1057F000F70023AE0186828031714ED79389C1872D
:1058000083A7090056D3938A01D3850722DD26DBBF
:1058100052D55AD15ECF62CD66CB6AC906DF4AD96E
:105820006EC723AEF18683C401D3014A130C8007EF
:105830005684971C0400938CECBF054D9D4B154B73
:105840003389840356998307E900E1CF03A60C004E
:1058500083A64C000325090283254902EF90735863
:105860006341050C83470904638DA70B93171A0046
:105870001808BA97035789022390E7003C00D29793
:1058800023809700050A9904B3E47403E31A6AFBC2
:105890000357810183570101998F13D7F741B98FBE
:1058A000998F939407011307400BC1806358F70049
:1058B00093078016B3849740C204C180268697154B
:1058C0000400938525BA6808EFC0E3686C08254595
:1058D000EFA04029938714FFC207C1837947636E05
:1058E000F70803499100130A8007854501453309EC
:1058F0004903210922994A86EF80A07E8344B100A2
:1059000085450145B3844403A104A2942686EF8013
:10591000407DCA850D45EF30407CA6850D45EF30B2
:10592000C07B83A7090017E7FF1F0357874D63E775
:10593000E70203C501D39304800733059502B30D35
:10594000A4008387ED0099CB83C7C1181389011781
:105950006397070E21052295EFF02F94FA506A54B1
:10596000DA544A59BA592A5A9A5A0A5BFA4B6A4C7B
:10597000DA4C4A4DBA4D296182809307D002E3F296
:1059800097FA834B8100930A80078545B38B5B03AD
:105990000145138C8B00229C6286EF808074034B40
:1059A000910085450145330B5B03A29B210B229B94
:1059B0005A86EF800073034AA10085450145330AEA
:1059C0005A03210A229A5286EF80A0710349B1003E
:1059D0008545014533095903210922994A86EF80FB
:1059E00040708344C10085450145B3845403A1043C
:1059F000A2942686EF80E06EE2850D45EF30E06DE3
:105A0000DA850D45EF30606DD2850D45EF30E06CE5
:105A1000CA850D45EF30606CA6850D45EF30E06B13
:105A200083C701D3B38A570303A74B03A29A83A763
:105A30004A03E318F7EE85472380FA04DDB5171D06
:105A40000400130DAD9F03260D0083264D0003A512
:105A50008D0183A5CD01971904009389A99EEF902C
:105A6000B34303A6090083A64900EF90C34A2A8BDB
:105A7000AE8B03260D0083264D00032509018325E7
:105A80004901EF90734103A6090083A64900EF90F6
:105A900083482A8AAE8A2A86AE865A85DE85EFA09A
:105AA000230B971704009387679A9043D443EF9092
:105AB000B33EEFF0C03A2A8CAE8C5A85DE85EFF00B
:105AC000E0302A8BAE8B5285D685EFF0203003264E
:105AD00089008326C9002A8AAE8A03A50D0183A501
