:04C000006F10103875
:10C004000000000000000000900000202205002035
:10C01400A9BDF9F594000020000000000000000014
:10C02400960000209800002000000000000000009E
:10C034009A000020000000009C0000200000000086
:10C044009E0000201603002044030020A4000020CA
:10C05400A6000020A8000020AA000020AC000020B8
:10C06400AE000020B0000020C60000205A010020CD
:10C074009E050020B8000020BA000020BC0000206B
:10C08400BE000020EE01002082020020C400002037
:10C0940001A001A001A001A001A001A001A001A094
:10C0A40001A001A001A001A001A001A001A001A084
:10C0B40001A001A001A001A001A001A001A001A074
:10C0C40001A001A001A037370040834747009946EB
:10C0D4004111BD8B638CD70231476384E706114756
:10C0E400639EE702A3030100173600000346866A35
:10C0F40037370040834771006315F6022C0013851F
:10C104000150976001E0E780402C09A8834757005D
:10C1140093F7F70F2304F100834781004101730073
:10C12400203083477100834687000C08AE97238C28
:10C13400D7FE83477100850793F7F70FA303F10038
:10C1440055BF280097C001E0E780005D1375F50F27
:10C15400A303A1000346710055B737370040834756
:10C16400474099464111BD8B638CD70231476384A4
:10C17400E7061147639EE702A30301001736000098
:10C184000346666137370040834771006315F60242
:10C194002C0013854151976001E0E780002309A832
:10C1A4008347574093F7F70F2304F1008347810037
:10C1B40041017300203083477100834687400C0897
:10C1C400AE97238CD7FE83477100850793F7F70F4B
:10C1D400A303F10055BF280097C001E0E780806504
:10C1E4001375F50FA303A1000346710055B7374734
:10C1F40000408347478099464111BD8B638CD70229
:10C2040031476384E7061147639EE702A3030100F5
:10C21400173600000346165837470040834771001D
:10C224006315F6022C0013858152976001E0E780C4
:10C23400C01909A88347578093F7F70F2304F10027
:10C244008347810041017300203083477100834696
:10C2540087800C08AE97238CD7FE8347710085072F
:10C2640093F7F70FA303F10055BF280097C001E02F
:10C27400E780006E1375F50FA303A1000346710058
:10C2840055B737470040834747C099464111BD8B96
:10C29400638CD70231476384E7061147639EE70244
:10C2A400A3030100173600000346A67F374700406A
:10C2B400834771006315F6022C001385C153976000
:10C2C40001E0E780801009A8834757C093F7F70F70
:10C2D4002304F10083478100410173002030834728
:10C2E4007100834687C00C08AE97238CD7FE834722
:10C2F4007100850793F7F70FA303F10055BF2800DA
:10C3040097C001E0E78080761375F50FA303A100C1
:10C314000346710055B7411122C6371400408357B4
:10C32400C40913973701635B0700BD45014597A016
:10C3340001E0E780C0768567231EF408324441019A
:10C3440073002030411122C6371400408357E4099A
:10C354008357E409139717016359070097A001E075
:10C36400E780006C9167231FF40832444101730095
:10C374002030B7170040930670052380D7041307B5
:10C3840080FA2380E7040100010003C6B704137692
:10C39400F60DA385C70423800704137605024DC256
:10C3A40003C6A700118A1DE22380D7042380E70473
:10C3B4000100010003C7A700136747002385E700B6
:10C3C4009307004B01000100FD17EDFFB717004074
:10C3D400930670052380D704130780FA2380E704AB
:10C3E400010001007D892394A700010001000100E0
:10C3F4000100238007042380D7042380E70401007D
:10C404000100010001003727004093061005A30333
:10C41400D78023800704B7170040130770052380D3
:10C42400E704130780FA2380E7040100010003C72F
:10C43400B70413670708A385E704238007048280F1
:10C444001376050441C603C6A700418A1DE2238072
:10C45400D7042380E7040100010003C7A700136782
:10C4640007012385E7009307007D01000100FD1704
:10C47400EDFFB7170040930670052380D704130718
:10C4840080FA2380E704010001001376F5011366A6
:10C4940006042394C7000100010001000100238069
:10C4A40007042380D704130660042380E704631879
:10C4B400C5000100010037270040894689BF0100FB
:10C4C4000100372700409306200591B72380D70445
:10C4D4002380E7040100010003D787001367070CDA
:10C4E4002394E7000DBF4111814601468145114562
:10C4F40006C66922B7170040130770052380E704B6
:10C50400130780FA2380E7040100010003C76704CE
:10C51400136717002383E70423800704B240410113
:10C5240082808146014681451145892AB71700401A
:10C53400930670052380D704130780FA2380E70449
:10C54400010001007D562396C7022380D70423806F
:10C55400E7040100010003C767041367170023837E
:10C56400E7042380070401A0BD473305F502010059
:10C574007D1575FD8280411122C426C206C6AA8497
:10C58400014463179400B2402244924441018280E2
:10C5940005041305803E4204C13F4180DDB7B7174F
:10C5A4000040130700032388E7028547173700007C
:10C5B4002326F76473002030411106C6852DFDBF84
:10C5C4002303048015472303E48001002302A4808D
:10C5D400828083076480E3CE07FE23030480828085
:10C5E40083076480E3CE07FE03454480828083078B
:10C5F4006480E3CE07FE2302A4808280411126C416
:10C604004AC24EC006C61377F50BAD47AA892E89D8
:10C6140095446306F70019456537653F8D444E859B
:10C624004537FD59FD1463983401B240A2441249C0
:10C63400824941018280135509011375F50F453F65
:10C644002209CDB7011126CC06CEB7040800513714
:10C654001545BD37713769372AC6A53F32459377EB
:10C66400150089EB136515001375F50FF240E244CC
:10C6740005618280FD14E9FC0145CDBF397126DCDA
:10C684004ADA4ED852D656D45AD25ED006DE62CE9C
:10C6940066CCB7E700E07D5783AA070022C603AA49
:10C6A400470023A0E71823A2E718B7170040130791
:10C6B40070052380E704130780FA2380E70483C707
:10C6C4004704930B75FFB684E20793FBFB0F854683
:10C6D400AA892E8B328937240040E187015763FAF7
:10C6E40076016308D5008946130700026313D50059
:10C6F4000157D98F93F7F70FB71C00402382FC042E
:10C7040011472303E4801305F00F5D3D094CD13537
:10C71400636D7C11B7050700DA95378707007955F3
:10C7240063F2E504B3879500636EF702370B0800E4
:10C73400A94733EB65016399F90689E48144513DC6
:10C7440026850DA0DA850945553D05090345F9FF00
:10C75400FD14050B693D81C49377FB0FFDF7DD35AF
:10C7640069FD7D55B7170040130770052380E70462
:10C77400130780FA2380E70403C74704418B23820D
:10C78400E704F250B7E700E023A0571123A24711B2
:10C79400E25432445259C259325AA25A125B825B51
:10C7A400724CE24C21618280A5476395F906856944
:10C7B4001309F00FB3069900B3742B01B69413490F
:10C7C400F9FFB3749900856B33796901416B9387E1
:10C7D400F9FFB3F7270199E363FC340193D94900C6
:10C7E400C147E3E637FF99BF0569C1697D19D9B728
:10C7F4001305800D638869011305000263847901C0
:10C8040013051008CA85DD3B353D21DD4E99B384FF
:10C814003441D9B7DA852D45D533CA94E30099F26A
:10C8240005097D3BA30FA9FED5BF9387F9FF93F7B5
:10C83400F70F6361FC0C83C71C0413073008631FE4
:10C84400F70437070800636BEB04B3079B00B706D4
:10C85400100063F5D704334BEB0089476393F90663
:10C864008980D549E38C04ECDA850945413B1109FB
:10C874000327C9FF91472320E48003076480E34E24
:10C8840007FE23033481FD17EDFBFD14110B81C456
:10C894009377FB0FE9FF7D3371F5E1B5B7170040DE
:10C8A40003C75704B70708001377070219E3B787CC
:10C8B40007007955E378FBEA33079B00E3FFE7F8C9
:10C8C40055B58547E382F9F2DA852D45053B938911
:10C8D400F4FFE38504E6293393F7390091EB8326CB
:10C8E40004800327090093074900E39AE6E43E899C
:10C8F400CE84F1BFB5476396F9001305900BC93197
:10C9040035BDB1471305B00AE38BF9FE994763912E
:10C91400F904B7050800B365BB002D45C531814452
:10C924008D4BA149753963967401832704802320B4
:10C93400F9008504E39834FF8327048013172B013F
:10C94400635507002312F900D5BB2322F900FDB378
:10C954009D476399F90281451305B0044531BD44EF
:10C964002320090023220900FD599D3993F77400FF
:10C97400CA9703C70700FD14398D2380A700E396E7
:10C9840034FF6DBBA1476392F9046D398144630D93
:10C994000B008D479304C0036308FB009304000558
:10C9A40063048B01930440041375C507E30895D809
:10C9B4001945393139390545213126850D3909455E
:10C9C4003D314931E31C05D669BB91476399F900B0
:10C9D40013056006F536F53E130590090DB7E38F90
:10C9E40009D4F154A9BB19CD91CD09CE8147338720
:10C9F400F500834607003307F50085072300D700B9
:10CA0400E317F6FE828019C991C909CA910583A763
:10CA1400C5FF11057D16232EF5FEC5BF828001C911
:10CA240019C62A960505A30FB5FEE31DA6FE82804E
:10CA340081473307F5000307070019E33E85828029
:10CA44008507C5BF01112E8626CAAA8413150601BF
:10CA54009305F004418122CC06CE32C6EF00107655
:10CA64002A8401C53246A685BD3F2285F240624430
:10CA7400D24405618280854715C18DC105C28147B5
:10CA8400B306F5003387F50083C6060003470700A5
:10CA94006398E6008507E315F6FE85473E858280A8
:10CAA4008147EDBF9307F6FFBE952A966313C50031
:10CAB4008280FD1583C715000505A30FF5FEFDB79C
:10CAC400AA87014581CF09CE3E96850703C7F7FFA4
:10CAD4006317B700E39BC7FE05458280828001454A
:10CAE4008280797197570000938707DA22D48043B4
:10CAF40006D626D24AD04ECE52CC56CA5AC85EC6A4
:10CB040062C45DCC37C9C901814B175A0000130AAE
:10CB14002ADC97540000938464D71309F937975A91
:10CB24000000938A2AD1B709C0A8370B405783570E
:10CB3400240095E35C44639D0B00175700002325F4
:10CB4400F7D4032CC4002285EF007074628499A882
:10CB540023A6FB00FDB783270A008297838664011E
:10CB64001C4463DB06063307F5406367E9089757FF
:10CB7400000023A907CC835524000345040097F043
:10CB840001E0E780E0625C405844A9CF1444B697C2
:10CB94008386640163C5060063E33701DA971CC426
:10CBA400A28B3A8449F4975700009387A7C89C4BFB
:10CBB40009476378F706F917175700002324F7C8C5
:10CBC400B250225492540259F249624AD24A424B18
:10CBD400B24B224C45618280E377F5F83387F94004
:10CBE4002A9761B763970B009757000023AEE7C8F5
:10CBF40089BF23A6EB00B1B7D85009CF63DF060085
:10CC04003385A74083A70A016376F5009757000090
:10CC140023AAA7C2A28B404471B7E3F3A7FECE9721
:10CC2400C5B79757000023AF07C059BF411122C4AD
:10CC340017540000130404C31C4006C626C24AC08D
:10CC440091C782979757000023AE07C05C4091C3F9
:10CC540082971C406390071C9757000083C757DBDB
:10CC6400858B95C797570000A38407DA17570000F0
:10CC7400034737DA954763FCE700352B97570000E5
:10CC840083C737D9F5178A07A2979C438297175908
:10CC940000001309A9DB8347C900918B99C3EF00F6
:10CCA40050451C4491C3829797540000938484BDDB
:10CCB4009840175600000346F6B79757000083C7FD
:10CCC40067B793961700BA9683D60600D5CA9757C6
:10CCD400000083C727B663EFC70A97570000238B6A
:10CCE40007B41C40639807129757000083C797D274
:10CCF40091CF9757000083C7D7D189EB975700008E
:10CD0400A38A07D0971002E0E780E06697570000F7
:10CD1400938707BC9C43638F070EB707C0A81757B8
:10CD240000002321F7B2753B97570000938707B69D
:10CD3400DC53EDC3175700001307C7AF184B9757C1
:10CD4400000083C7F7B56367F70C17570000034764
:10CD540057CC954763E0E70C8347C900918BDDEB23
:10CD640090409756000083C6F6AC63CBD70A2244A2
:10CD7400B24092440249410117F301E067002330B5
:10CD8400850793F7F70F975600002385F6AAE3E685
:10CD9400C7F235BF86073E97835507002310070067
:10CDA40097570000239E07AC97570000938747AB23
:10CDB4009C43175500000345E5A713172500BA97B0
:10CDC4009C4382979757000083D787AB175700007F
:10CDD400034747A693C7F7FF7D8D93171700984025
:10CDE4003E97835707005D8D2310A70097570000D7
:10CDF40083C747A491C7850717570000230CF7A2E0
:10CE040017570000034707A39757000083C797A24B
:10CE1400E375F7ECB2402244924402494101828016
:10CE2400139717003297035707006DF7850735BF2F
:10CE3400AD6737C70040BD072326F7200F10000059
:10CE4400975700009387079FC84F83278726BD669F
:10CE5400BD0693C7F7FF99836A052326D7205D8D06
:10CE640082804111B7170040985F3AC6945F3247F9
:10CE7400E39CE6FE3245410182808280011122CC8E
:10CE840017540000130444BA18402AC62EC432C2F0
:10CE940006CE3C4B93F7F7F73CCB971002E0E780C4
:10CEA400404A184097560000938646B53C4B93E79A
:10CEB40007083CCB9C423245A24523A00700034708
:10CEC400150003482500220742084297034805003D
:10CED4004297034835006208429798D703475500A4
:10CEE40003486500220742084297034845004297D9
:10CEF4000348750062084297D8D703479500034852
:10CF0400A500220742084297034885004297034838
:10CF1400B5006208429798DB0347D5000348E50053
:10CF24002207420842970348C5000345F50042978B
:10CF340062052A97D8DB03C7150003C5250022071D
:10CF440042052A9703C505002A9703C535006205E3
:10CF54002A9798CF03C7550003C5650022074205E9
:10CF64002A9703C545002A9703C5750062052A97C9
:10CF7400D8CF03C7950003C5A500220742052A9709
:10CF840003C585002A9703C5B50062052A9798D37F
:10CF940003C7D50003C5E500220742052A9703C548
:10CFA400C50083C5F5002A97E2052E97D8D3D84348
:10CFB400759BD8C3D84313671700D8C39843136726
:10CFC400170098C3124698425C43858BD1E71C4FE7
:10CFD40001452300F6009C429C4FA183A300F60068
:10CFE4009C429C4FC1832301F6009C429C4FE183E9
:10CFF400A301F6009C42D84F2302E600D84F2183B8
:10D00400A302E600D84F41832303E600D84F61838F
:10D01400A303E60098532304E60098532183A30452
:10D02400E600985341832305E60098536183A305E2
:10D03400E600D8532306E600D8532183A306E6006E
:10D04400D85341832307E600DC53E183A307F600AA
:10D05400F2406244056182800100B5B717570000B1
:10D064001307079A1443411122C49C5E4AC006C6A2
:10D07400998326C2858B3A841759000013090998AD
:10D08400D1CB9C5E975400009384449893F7F7F9AE
:10D094009CDE175700000347C79793070008631BDC
:10D0A400F700832709009C4393F7070417570000F0
:10D0B4002301F79683C7040093F707049DC397578A
:10D0C40000009387E7809C4382979757000023A72B
:10D0D400A79483C7040093F7F70B1757000023079F
:10D0E400F79283C7440093F707048DE785471757E2
:10D0F4000000A30FF790975700009387E7929C4393
:10D10400096798C7130700FC975600002382E6902E
:10D11400D844F8D31C40985F1183058B09CB985FE2
:10D124003D9B98DF0547975600002383E68E985F62
:10D134001D83058B11CB985F1377F7F798DF85472D
:10D14400175700002306F78C83270900D84305836B
:10D15400058B19C7D843759BD8C3D843799BD8C3CB
:10D16400B24022449244024941018280397106DE70
:10D1740016DC1ADA1ED82AD62ED432D236D03ACEBB
:10D184003ECC42CA46C872C676C47AC27EC0F9355D
:10D19400F250E2525253C2533255A255125682569D
:10D1A4007247E2475248C248324EA24E124F824F53
:10D1B400216173002030975700009387E7869443DA
:10D1C400975700009387878403C70700058B11CB0B
:10D1D40097570000238E078297570000A38A07827F
:10D1E400828003C71700058B65F7F85271FF83C768
:10D1F4005700DDB71758000013088880032708007C
:10D204001C5F9583858BD1E709C61C5BBD83230016
:10D21400F60085CA83270800985B46079357670181
:10D224006356070093E707C0C207C183039706004C
:10D23400C207C18709C7BA970947B3C7E702239052
:10D24400F60085CD834715008DCB9746000083C635
:10D25400467C93F606041387970089478DCA3A954E
:10D2640003470500854699471376F7066311D602EE
:10D2740062076187B947634C0700832708009C5FF6
:10D28400ED838D8B17470000A307F77881473E8510
:10D2940082808547EDBF411122C406C617440000B1
:10D2A40013048478184049E9AE877453FDFE3E8523
:10D2B400B28597470000238C0774971002E0E7803B
:10D2C400A0E3974700009387A7739C43B7068000A9
:10D2D4009843558F98C3D857719BD8D79747000068
:10D2E400A388077297470000A38207721C4009476E
:10D2F40098C3B7F700E003A707D16D9B23A8E7D035
:10D3040003A707D15D9B23A8E7D0730050101440F6
:10D31400174700001307876F83472700858B89EB26
:10D3240083473700858BD9C7974700002382076E50
:10D33400B2402244410182808D476310F502974731
:10D3440000009387E76B9C43B70680009843558F92
:10D3540098C3D857719BD8D75DBF8547E319F5FAB1
:10D36400B567BD075CC70F1000001C40096709467C
:10D3740098C7130700F897460000238BE668174701
:10D3840000001307E7671443984231830D8B631938
:10D39400C7001307E043F8D33D673D07D8C785BFEF
:10D3A400984231830D8B01E713076019EDB713071A
:10D3B400E01BD5B7FC52ADF3A5BF5D7152DC174A33
:10D3C4000000130AEA6303270A0086C6A2C4A6C2A1
:10D3D400CAC04EDE1C43974900009389A9691749C6
:10D3E40000001309696493F7F7E793E707081CC380
:10D3F40083A609003707CEFF7D179C4613068002DB
:10D404002A84F98F9CC68327090013070008280083
:10D41400B8CBAE8493051008EFF06FE0971002E0EC
:10D42400E78020F2971002E0E78020FF83270A00BC
:10D434009376F41F370FFCFF23A40700984B4E8804
:10D44400CA881367F70398CBF84F130510F8D285F1
:10D45400137707E0558FF8CF9843F576FD16758F4F
:10D4640098C39843B7063300B70204001377F7E76D
:10D4740098C398439303401F7D1F1377F7E71367FF
:10D48400071098C303A70900930F800285491C471E
:10D49400D58F1CC7832709001307900D3400B8CB20
:10D4A400114901471353370026938347030013762A
:10D4B4007700B3D7C740858BDDCF9C41832E08000E
:10D4C400239C07042390070603AECE02137EDEFFDF
:10D4D40023A6CE0383AE0700137EF70793FE0EF850
:10D4E40033EECE0123A0C70103AE4702336E5E00C4
:10D4F40023A2C70383AE0800014E23A27E0603DAEB
:10D50400070663074E0303AE0703038A0600135E90
:10D51400FE00620E135E8E416358CA0103AE070318
:10D52400135EFE002380C60103DE0706137EFE0F92
:10D5340003AA4E0663060A0003DA8705E37F49FB64
:10D5440003AE4702337EEE0123A2C703838706009E
:10D55400635CF400034E03003396C9001346F6FFE0
:10D564003376C6012300C3003E8663D3A7002A8610
:10D5740013158601618505071377F70F8506E313F5
:10D58400F7F3B640264496440649F259625A61615B
:10D59400828097460000938626499C42D8471316FA
:10D5A40017016355060298471316170163500602C4
:10D5B4007D57B8D7174700001307C727584F0507EB
:10D5C400174600002326E628116798C798470D835D
:10D5D400058B1DC3174700000347674313671700F4
:10D5E400174600002305E642130700F8174600001B
:10D5F4002300E642214798C79847058B09CF174770
:10D6040000000347B7401367170017460000A30F35
:10D61400E63E054798C798470983058B09E798476D
:10D624000583058B31CF9847174600001306063E45
:10D63400174500001305C53C0983058B63030710D8
:10D644001841184331830D8B75EBAC4B184E93F591
:10D65400050203471700CDCD79EF13077006D8CF25
:10D664000347060013671700174600002300E63A35
:10D67400114798C718415C57F19B93E717005CD793
:10D684009C4298479316370163D6060297460000DA
:10D6940083C6064BC18A1747000013072743C5CE2C
:10D6A400034747071367070297460000238AE648A3
:10D6B400056798C798479316270163D10602174751
:10D6C40000000347E7346207618763570700054793
:10D6D40097460000238EE632096798C79847931649
:10D6E400070163D606029746000083C67645858AFD
:10D6F400174700001307873DADCE0347570713674D
:10D70400270097460000A38DE642216798C78280D0
:10D7140029D785456315B7001307B00689B789452E
:10D724006315B7001307F0061DBF8D456315B700D9
:10D73400130730072DB71307500715B713076007F2
:10D7440039BF034736001367170017460000A300CC
:10D75400E62C094739BF834647070946BD8A6388D3
:10D76400C600034747078D463D8BE313D7F41147A3
:10D7740025BF83465707918AC9DA034757071367BA
:10D78400870041B7397106DE16DC1ADA1ED82AD6AC
:10D794002ED432D236D03ACE3ECC42CA46C872C615
:10D7A40076C47AC27EC0F533F250E2525253C25369
:10D7B4003255A255125682567247E2475248C24821
:10D7C400324EA24E124F824F216173002030174710
:10D7D40000001307A7258346B7019747000083C7B6
:10D7E400B7274C4BB697FD8B33D7F500974600000F
:10D7F400A38EF62297460000A380F626058B15EF2C
:10D804001747000003479725B3F7E702814601470E
:10D814001305000233D6E500058A1378F70F19CAF9
:10D824006397D70097470000A3820721828085066B
:10D8340093F6F60F0507E31FA7FC828097470000C5
:10D84400938707099C43011122CC4EC606CE26CAF3
:10D854004AC852C456C28297974700009387071F4D
:10D86400804781496305A406BE84974700009387D7
:10D87400E701038767013E8963550706018D135449
:10D8840055009747000083C7071C9379F501636D22
:10D89400F402370AC0A8B70A4057153F9C4497467C
:10D8A400000083C6461A139756003E978307690102
:10D8B400158C63C5070063634701569797470000BB
:10D8C40023AAE718E37BD4FC1604B3693401F240BD
:10D8D40062444E85D2444249B249224A924A056181
:10D8E4008280E37D85F8B707C0A8338487402295FA
:10D8F40079B7974700009387A7FD9C43411122C441
:10D9040006C626C28297974700009387271480474C
:10D914006309A406BE8497470000938727F783878B
:10D92400670163D80704018D13545500974700001D
:10D9340083C767116367F404593D9844974700000F
:10D9440083C767109396570036971D8C974600003F
:10D9540023A2E610E372F4FE2244B2409244174537
:10D9640000000345B50C81454101171302E067002F
:10D97400C3D3E37A85FAB707C0A8338487402295D6
:10D9840065B7B24022449244410182809747000027
:10D994009387470E9843B75702009387079F8326C0
:10D9A4000709139656006358060083260709139641
:10D9B400660063440600FD17FDF3828071C5AA87E3
:10D9C4000145E9C58D07C207C183F19BC207C18325
:10D9D40013074003636FF702174700001307870E0E
:10D9E4000843174700001307670D14436398A60202
:10D9F40017470000130787E9185B014541CB411124
:10DA0400C20706C60545DD8D0297B24001454101B6
:10DA14008280174700001307A70AD9B70357650088
:10DA240035E303574500636FF704B306F740214617
:10DA3400637CD60203280500938687001D8FAA966F
:10DA4400611717460000035646DF2392E60023A021
:10DA540006012393060014C12312F500130786FF61
:10DA640097460000239BE6DC2313B500974500008E
:10DA740083D5A5DCB387F54017470000231FF7DAE9
:10DA84002105828008419DB70145828082800DC1B5
:10DA9400974700009387070303A3070097470000F5
:10DAA4009387C70183A8070081469A8763E3170118
:10DAB400828003A80700636DF50A636BA80A1387C5
:10DAC4008700E367E5FE03D6670021670507631750
:10DAD400E60003C7F18F0507A38FE18E9745000089
:10DAE400938545D503D6470003D7650023930700E4
:10DAF400329742074183174500002310E5D4638A17
:10DB04006702174500001305A5FB08416303F502EE
:10DB140003D5660019ED83D7460023A0060121072B
:10DB24003E9621062392C600974700002397E7D02C
:10DB3400B6879843E30E17F797460000938646F896
:10DB44009442E307D7F683566700BDF283D64700B5
:10DB5400035647001843A106B2962392D70098C3F0
:10DB640083D76500A107174700002318F7CC8280EC
:08DB7400BE86C28725BF000038
:10DB80009751FF1F938101A217A1FF1F1301814726
:10DB900017E5FFFF130545479725FF1F938585462A
:10DBA0001746FF1F130686FD63FAC5008322050092
:10DBB00023A0550011059105E3EAC5FE17350200C3
:10DBC000130505A69745FF1F938545FB1386018323
:10DBD00063FAC5008322050023A0550011059105B5
:10DBE000E3EAC5FE138501839785FF1F9385050032
:10DBF0006377B500232005001105E36DB5FEFD42F6
:10DC0000739002BC8D4273904280B72200009382D1
:10DC1000828873A002309722FF1F9382A23E93E274
:10DC200032007390523097F200009382A22D7390CD
:10DC30001234730020303D432A876373C302937705
:10DC4000F700BDEFADE5937606FF3D8ABA960CC3AB
:10DC50004CC30CC74CC74107E36BD7FE11E282806F
:10DC6000B306C3408A069702000096966780A60016
:10DC70002307B700A306B7002306B700A305B70024
:10DC80002305B700A304B7002304B700A303B7001C
:10DC90002303B700A302B7002302B700A301B70014
:10DCA0002301B700A300B7002300B700828093F5DB
:10DCB000F50F93968500D58D93960501D58D61B7A7
:10DCC000939627009702000096968682E78086FA50
:10DCD0009680C1171D8F3E96E374C3F8A5B73367CE
:10DCE000B500FD530D8B79E7B7877F7F9387F7F7F3
:10DCF00010419441B372F6003363F600BE92B3E272
:10DD000062006397720C6318D6065041D441B37217
:10DD1000F6003363F600BE92B3E262006398720AC3
:10DD2000631BD60410459445B372F6003363F600C6
:10DD3000BE92B3E262006391720A631ED60250453E
:10DD4000D445B372F6003363F600BE92B3E26200CC
:10DD5000639A72086311D60210499449B372F600AF
:10DD60003363F600BE92B3E262006393720851051A
:10DD7000D105E30FD6F61317060193970601631C2E
:10DD8000F7001357060193D706013305F740937543
:10DD9000F50F91E982804183C1833305F740937584
:10DDA000F50F91E182801377F70F93F7F70F3305A3
:10DDB000F74082800346050083C6050005058505FA
:10DDC0006313D60065FA3305D640828011059105AC
:10DDD000E312D6FE014582802105A105E31CD6FC95
:10DDE000014582803105B105E316D6FC01458280EC
:10DDF0004105C105E310D6FC01458280014711466B
:10DE00004148B386E5008147B308F50083C80800A0
:10DE10008507C10623A816FFE398C7FE1107110561
:10DE2000E31107FF8280935785019CC193570541F9
:10DE300093F7F70FDCC19357854093F7F70F1375EE
:10DE4000F50F9CC5C8C582801C414111130705010F
:10DE50003EC05C413EC21C453EC45C453EC69397F5
:10DE600025001408B69783A707FF85051105232E03
:10DE7000F5FE8D89E315E5FE41018280397122DCD2
:10DE800041661384C19306DE26DA4AD84ED652D4B0
:10DE900056D25AD05ECE93050501A2863708FF0000
:10DEA0007D1683070500034735001105E207D98F6A
:10DEB0000307D5FF9106420733770701D98F030780
:10DEC000E5FF2207718FD98F23AEF6FEE39BA5FCF9
:10DED00081499144930A010117EB0100130B0B24B4
:10DEE00097EB0100938B0B21130AC00293F73400C8
:10DEF000032904004844BDE78A85353785450A85EE
:10DF0000A1370A871C43110793F6F70093F7070F11
:10DF1000DA97B69783C70700232EF7FEE394EAFE4D
:10DF2000024592476205C2075D8DB2475D8DA247EB
:10DF3000A2075D8D93972900DE979C4385093D8D4F
:10DF40003345250108C885041104E39144FBF250D0
:10DF50006254D2544259B259225A925A025BF24B3D
:10DF6000216182803345A90008C8F1BF797122D4AC
:10DF700026D24AD04ECE52CC56CA06D62A8A939979
:10DF800045000144938AC19313090101C144B307B9
:10DF90003401D69788438A85793533078A008A8782
:10DFA0001443904391074107B18E2328D7FEE3998C
:10DFB00027FF1104E31D94FCB250225492540259DD
:10DFC000F249624AD24A45618280397122DC1304E7
:10DFD000050106DE22878147C1460C433306F10066
:10DFE00011070CC24C4710083E960CC24C4F101043
:10DFF0003E960CC29107E392D7FE85450A85A93566
:10E000008945080891358D4508103D3D81474147B8
:10E01000B306F10094421104232ED4FE1408BE96D8
:10E02000944254C41410BE969442910754CCE39188
:10E03000E7FEF25062542161828006059377051055
:10E0400089C71375F50F1345B5018280411106C6C6
:10E05000ED37B2404101D5B781471148C1483386F9
:10E06000F500B306F500014703AE06003303E600F2
:10E0700005072300C301C106E31807FF9107E390DA
:10E0800017FF82809306050117E6010013060609B3
:10E0900013050505138706FF1C43110793F5F700C9
:10E0A00093F7070FB297AE9783C70700232EF7FEAB
:10E0B000E394E6FEC106E31FD5FC8280411122C431
:10E0C00006C626C285472E846301F5028947631878
:10E0D000F5002244B24092442E854101B9BF8D47DC
:10E0E000631BF5002E85913F298C2285B240224486
:10E0F000924441018280A5476315F5002E85B9370A
:10E10000DDB7AD47631AF5002E8589373D37AA8400
:10E1100022852537258DC9BFB5476316F5002E85A5
:10E120003537AA84FDB7B947E311F5FC2E85393F91
:10E13000AA842137A98C228509373344950075B705
:10E140006382051493F7F500639E07121571D6C319
:10E15000AA8A3285A2CDA6CB86CFCAC9CEC7D2C5E0
:10E16000DAC15EDF62DD66DB6AD96ED73284AE84E7
:10E17000EFA0B11CC147631EF500228501330149A0
:10E18000130A010697EB0100938B4B0D294C634159
:10E190009902FE406E44DE444E49BE492E4A9E4AD4
:10E1A0000E4BFA5B6A5CDA5C4A5DBA5D2D61828077
:10E1B000338B2A010C105A859131814508107D332B
:10E1C00085490810C135081009351C10D2863E87D4
:10E1D00010434107C10623A8C6FE032647FF23AA12
:10E1E000C6FE032687FF23ACC6FE0326C7FF23AE69
:10E1F000C6FEE31FEAFC17E7010013072702032806
:10E200000700832D4700032D8700832CC70052840D
:10E21000138607010C4042853ECE3ACC32CA42C832
:10E22000713D0C482AC66E85513DB2460C50110412
:10E23000A98E6A8536C65935B2464C54A98E668574
:10E2400036C6AD3DB246F2475246358D88C391077A
:10E2500042486247E310F6FC4107B287E391EBFACC
:10E26000CE85081085091933E39D89F50810193DFD
:10E270000810A13BA9450810D539DA850810E93BFB
:10E28000410931B782809307F00F6384F60A2D713C
:10E29000232A911023282111B28423263111130639
:10E2A00000102E89AA89930530020A85232E1110A9
:10E2B000232C811036844132A2852685EFB000627E
:10E2C00013178500935785003365F7002310A100CD
:10E2D000A6852286130531009304340023018100B2
:10E2E00093F4F40FEF90512E93F6F40089C64D0489
:10E2F000158C9374F40F1C02A697A6850A8517E661
:10E3000001001306A6F5238007F01D3D26868A85A9
:10E310004E85EF90712B230099008320C1110324B7
:10E32000811183244111032901118329C110156131
:10E3300082808280411106C6EF70B035B240AA8655
:10E3400017E70100130747F81756FF1F130646CBC0
:10E3500097E501009385C5F8114541016FB08070C4
:10E36000130101DB232291242320212523261124BC
:10E3700023248124232E3123232C4123232A512398
:10E380002328612303470500930710042A89AE84DC
:10E39000631FF77003471500930740056319F77073
:10E3A000034725009307E0056313F7702E86AA85BF
:10E3B0002545EFB0C0601306D003A6854A85EFB0AF
:10E3C000A0772A84635A05003546A6854A85EFB0B2
:10E3D000A0762A84634405089309D4FF93071003A9
:10E3E00063CE37074E86930539002808EFA0C17821
:10E3F0001C1CBE9917EA0100130ACA1D238409DEFA
:10E40000D28A8149594B83254A002808EFB0806C95
:10E410000DC18E09D69983D709005547636FF70060
:10E4200017E701001307C7E48A07BA979C43BA9716
:10E4300082878509210AE39869FD97E501009385A4
:10E44000A518CDA89385F4FF818D13051400C2058E
:10E4500081460146C1814A95EF30E0138320C124F3
:10E460000324812483244124032901248329C123F3
:10E47000032A8123832A4123032B0123130101252E
:10E4800082801386F4FF018E9305140042064182B8
:10E49000CA95E800EFB090121305D104EFA0E1692E
:10E4A00093150501C1811305D104EFB0901F97E5C5
:10E4B0000100938525E41305D104EFB0A06119CDC7
:10E4C00097E50100938585E30545EFB0E0441755D6
:10E4D000FF1F0345A56EEF50703849B797E501005F
:10E4E000938505E31305D104EFB0C05E19CD97E520
:10E4F0000100938565E20545EFB000421755FF1F07
:10E500000345C56BEF50503891BF97E501009385E7
:10E51000A5E11305D104EFB0E05B0DC13717004052
:10E520008327C70AA16697E50100938565E0D58F2B
:10E530002326F70A2545EFB0203E0DB797E50100E9
:10E540009385C5DF1305D104EFB0C05811CD37173F
:10E5500000408327870AA16697E50100938585DE41
:10E56000D58F2324F70AF9B797E50100938505DED7
:10E570001305D104EFB0005611CD371700408327A3
:10E58000C70A916697E50100938505DDD58F23269F
:10E59000F70A4DB797E50100938505DD1305D10412
:10E5A000EFB0405311CD371700408327870A91669B
:10E5B00097E50100938505DCD58F2324F70A9DBFDD
:10E5C00097E50100938505DC1305D104EFB0805079
:10E5D00097E501009385C5DB31FD97E50100938543
:10E5E000E5DB1305D104EFB0E04E97E5010093851C
:10E5F000A5DB29F197E501009385C5DB1305D1045F
:10E60000EFB0404D11C59757FF1F23A7075CB9B561
:10E6100097E501009385C5DA1305D104EFB0804B6F
:10E6200001C5EF6080111DBD97E50100938505DAF6
:10E630001305D104EFB0004A01C5EF60201739BDC2
:10E6400097E50100938545D91305D104EFB08048C3
:10E6500001C5EF50B05419B597E50100938585D8F1
:10E660001305D104EFB0004701C5EF805028FDB37A
:10E6700097E50100938585D71305D104EFB0804558
:10E6800001C5EF803027D9BB97E50100938585D67A
:10E690001305D104EFB0004401C5EF8010267DBB07
:10E6A00097050200938545451305D104EFB08042DC
:10E6B00001C5EFA030245DB397E50100938545D4F3
:10E6C0001305D104EFB0004101C5EFE0E06D79B36F
:10E6D00097E50100938545D31305D104EFB0803F42
:10E6E00001CD9757FF1F83D7A74C0567D98F1757C1
:10E6F000FF1F231FF74A9DB397E50100938505D1BE
:10E700001305D104EFB0003D09C9FD771757FF1F6E
:10E710000357074AFD17F98FD9BF0346D104A54710
:10E72000130606FD1376F60FE3EAC7D29757FF1FCD
:10E73000238EC74897E50100938585CD0145EFB04D
:10E74000603229BB1386F4FF018E130514004206C4
:10E75000418297F50100938565814A95EFB0204B82
:10E760001754FF1F1304C44431C597E50100938576
:10E7700065CBE800EFA0413BE800EFA0013C131699
:10E7800005014182EC001385C153EF80801697E5A7
:10E7900001009385E5CB1145EFB0001883570400C5
:10E7A000414593E717001757FF1F2313F740EFB0BA
:10E7B000F04F6DB197E50100938545CA1145EFB063
:10E7C000A0157D55EFB0305483570400F99B05B771
:10E7D000953669B11386F4FF018E130514004206C5
:10E7E000418297E50100938565784A95EFB0204214
:10E7F0001754FF1F1304C43B29C18357040097E536
:10E800000100938565C6E80093E717001757FF1FBF
:10E810002310F73AEFA04131E800EFA001321316C0
:10E820000501EC0041821385C153EF80800C97E510
:10E830000100938525C51145FDB997E50100938534
:10E8400025C5E800EFA0412EE800EFA0012F131628
:10E850000501EC0041821385C153EF808009835785
:10E86000040097E50100938565C4F99B1757FF1FC6
:10E870002310F734C9B7EF70605F9757FF1F938776
:10E880002733C85FEF906128AE862A8697E501009E
:10E89000938585C21145EFB0E01CC9B6EF50101B3F
:10E8A00075BE17E601001306E66C97E50100938537
:10E8B00065C1114569B5EF70406197E50100938529
:10E8C00025C135F997E50100938585C1ADB735457B
:10E8D000EF800077AA84EF9041232A86AE862545F3
:10E8E00097E50100938505C1EFB0C01797E70100D8
:10E8F000938707A08843A6851754FF1F1304C48677
:10E90000EF80C1772328A422EF70806603250423BB
:10E91000EF90A11FAE862A8697E50100938545BE3C
:10E9200095BF81450D45EF50104EEF70C0552A86BA
:10E9300097E50100938585BFADBF81453145EF5017
:10E94000904C81453945EF50104C81453545EF508D
:10E95000904BEF70A0532AC6EF700054B2462A873E
:10E960001746FF1F1306C66997E50100938505BD8D
:10E970001145EFB0200FDDB41757FF1F035767A1F4
:10E980009756FF1F938656881746FF1F1306466744
:10E9900097E501009385C5BCE1BF85471757FF1F69
:10E9A0002304F7A0EF70C05C97E50100938585BC58
:10E9B00059B51757FF1F0347279F854797E5010064
:10E9C0009385C5BBE319F7E6C5B785471757FF1F02
:10E9D000A307F7A2EF70C05997E501009385C5BA68
:10E9E00099BD9757FF1F83C797A197E501009385AE
:10E9F00025BAE38207E4CDB79757FF1F9387471BDC
:10EA0000885FEF908110AE862A8697E50100938596
:10EA1000E5B849B5212405044A9431468145175586
:10EA2000FF1F1305D5949720FF1FE78080FF8144C7
:10EA3000930AA400695AB30994400946CE85E800B8
:10EA40009720FF1FE78060FA33899A000946CA853C
:10EA50004E859720FF1FE78040F90946EC004A8564
:10EA6000F9149720FF1FE78040F8E39644FD19460C
:10EA7000A2851755FF1F1305958FEFB020278145FD
:10EA80001755FF1F1305B58E012A228697E5010051
:10EA9000938505B21145EFA0F07C01469705000073
:10EAA0009385051813056009EF50A03745BA014654
:10EAB000A6854A85EF50F01755B285472A86AE865F
:10EAC00063E3A702930780023307F5029387C19E91
:10EAD0002545BA9798474D8F98C797E501009385CC
:10EAE000A5CA6FA030788280411122C406C683C7B0
:10EAF000319F2A8481C7AA850145C13783C7B1A147
:10EB000099C7A2852244B240054541017DB7B24074
:10EB100022444101828085472A86AE8663E5A702AA
:10EB2000930780023307F5029387C19E93C5F5FFD3
:10EB30002545BA9798476D8F98C797E5010093854B
:10EB4000E5C26FA030728280411122C426C206C67F
:10EB500083C7319F2A849384C19E91CB9844934765
:10EB6000F5FFAA85F98F014523AAF19E6D3783C76A
:10EB7000B1A191CF9C581347F4FFA2852244B24023
:10EB80009244F98F23AEF1A00545410169B7B24027
:10EB9000224492444101828001114EC606CE22CC0D
:10EBA00026CA4AC883C9319F6388090683C7B1A1B1
:10EBB0007D54B9EB8549054493078002B307F402FD
:10EBC0001384C19E2E89AA841306800281453E9437
:10EBD00022859720FF1FE780C0E48547A303F40048
:10EBE00022851946A6859720FF1FE78000E0CA8589
:10EBF000230324012685EFE0401FB74507002A8440
:10EC00009385F5804E85553D2285F2406244D2447D
:10EC10004249B24905618280014479BF411106C66B
:10EC2000EFE0E025B2401306000581451385C19E43
:10EC300041011723FF1F6700C3DE854763E2A70278
:10EC400093078002B307F5021387C19E0145B306FF
:10EC5000F70083C6760091C6B1073305F7008280BE
:10EC600001458280411122C42164930504809946A4
:10EC70000146254506C69720FF1FE78060A0930543
:10EC800004802244B24099461386018329454101FC
:10EC90001723FF1F6700C39E99E10145828075DD40
:10ECA000011152C403DA418326CA93548A008504B1
:10ECB000A204C204C18056C2B38A4441C20A22CC13
:10ECC0004AC82E862E842A8997E50100938585BB44
:10ECD000254593DA0A014EC606CE93890183EFA03B
:10ECE000705863ED8A0883D5418393F7F50FB1CF50
:10ECF0008D6783D5418393870780A2864A86BE9518
:10ED000029459720FF1FE780A0971375F50F29ED80
:10ED100083D749001566A297239AF18203D74183CE
:10ED200083D721836309F70063F3E700B297998FD4
:10ED3000139607014182254597E50100938505B6A5
:10ED4000EFA050521375F40F0DA08D6793870780C5
:10ED5000930600100146BE9525459720FF1FE780CA
:10ED600020921375F50F49D50145F2406244D24413
:10ED70004249B249224A924A05618280B3079440CF
:10ED8000D297C207C183A18303C74900850793F7C0
:10ED9000F70F9396870011EB9386170093740AF090
:10EDA000A206C204C206C180C18283D7218363F652
:10EDB000F40033879600E3C9E7FA0D6A130A0A8064
:10EDC0000146B385440125459720FF1FE780408B0E
:10EDD0001375F50F51F983D54183A2864A86D295E2
:10EDE00005B7411122C41384018322858145194648
:10EDF00006C69720FF1FE780C0C29307B0FA230022
:10EE0000F4008D352244B24097E50100938505A0BA
:10EE1000254541016FA05030A165411199461386E7
:10EE20000183938505802D4506C69720FF1FE78047
:10EE3000208503C701839307B00A6303F7005537A2
:10EE4000B24083D6418303D6218397E501009385A1
:10EE5000A59C254541016FA0F04083D7C1A3014582
:10EE6000638C071003D5E1A36366F50023AE01A20E
:10EE7000014582803385A740D1473355F50213758C
:10EE8000F50F01E5239E01A28280130101BD232419
:10EE90008142232611422322914223202143232E03
:10EEA0003141232C4141232A514195471374F50FD9
:10EEB00063F3A7001544228697E501009385C59F5B
:10EEC0002545EFA0303A01498144938901A4514A74
:10EED000A14A9377F90F03D5E1A31747FF1F034713
:10EEE000373F63E98704D1473304F4022A94239F10
:10EEF00081A2A147631CF706A6850808EF4060467B
:10EF000003D7E1A383D7C1A305456364F70023AE0C
:10EF100001A28320C1420324814283244142032968
:10EF200001428329C141032A8141832A41411301BE
:10EF300001438280B30749031408AA97CE9733850B
:10EF40009600631E5701BE85EF4020612317A10084
:10EF50008357E1000509BE94C204C1809DBFAA8504
:10EF60001306E1003E85EF80705DDDB726860C0854
:10EF70000145EF60D05869B78280011106CE22CCDE
:10EF800026CA4AC84EC691E901442285F24062442D
:10EF9000D2444249B24905618280AA8975D583D796
:10EFA000418303D621832E849564638AC7006374EA
:10EFB000F60015673A961D8E93140601C1802686C9
:10EFC00097E50100938585812545EFA0B0299387BA
:10EFD00014F06356F4009307F00F63EA970097E587
:10EFE0000100938525812545EFA0D02771BF83D4EB
:10EFF000418333878400956763C7E700A2854E8508
:10F0000061398D3159B7156933099940420913594E
:10F010000901CA854E85493125D9ED75A695A29578
:10F02000C205239A0182C18133852901D1BF83D6CC
:10F03000C1A381EA97E501009385458225456FA02C
:10F04000B00D03D6E1A34111918E97E501009385A0
:10F05000E581254506C6EFA0F0201387C1A383559F
:10F06000070083D7E1A3138501A49D8DC2053E95BA
:10F07000C1812137B24023AE01A2410182804111FA
:10F0800083D7C1A322C426C206C6AE971307401F6A
:10F09000AA842E84635AF700593F97D501009385BF
:10F0A000A5792545EFA0500783D7C1A3138501A4F7
:10F0B0002286A6853E95EF80315103D6C1A32296C4
:10F0C00042062244B24092444182239EC1A297D577
:10F0D00001009385E577254541016FA0B018011126
:10F0E00026CA06CE22CC4AC84EC652C456C2814455
:10F0F00059C1D1C183D7218303D44183638D87064E
:10F1000063F587081D8C42044180AE892A892286D6
:10F1100097D50100938505690145EFA0B014A2843D
:10F1200063F38900CE84C2040D6A83D7218303D799
:10F130004183C180938A0183130A0A8063FAE7043A
:10F14000A6864A86B38547012D459710FF1FE780A5
:10F15000205383D72A00A6972399F182EFF09FB01E
:10F1600083D6418303D6218397D501009385C56457
:10F170002545EFA0300FF240624426854249D24433
:10F18000B249224A924A0561828015673A949DBF2E
:10F1900015671D8FB385470163D5E400A6864A86AF
:10F1A00065B79569B389F9406D743E94C20993D9E6
:10F1B00009012694CE864A8642042D459710FF1FEA
:10F1C000E780004C4180A28633063901D2852D4567
:10F1D000239901829710FF1FE780804A83D72A0076
:10F1E0003E94239981829DBF1841938781071045E2
:10F1F00098C303574500544590C72392E7005855DC
:10F200001049D4C7544998CF97D5010093854572CA
:10F210000547254590CBD4CB238EE7006FA0C06F68
:10F22000397126DA4AD84ED652D456D25AD006DE92
:10F2300022DC62CE66CC2A89EF9031109374F50FF0
:10F240008149254BE54A17DA0100130A2A6891EC37
:10F25000F25062544E85D2544259B259225A925AAF
:10F26000025B724CE24C21618280034709009307E4
:10F2700007FD93F7F70F637CFB009307F7F993F70C
:10F28000F70F63E2FA06930797FA93F7F70F1394D1
:10F2900087016184FD14230089002685EF70715079
:10F2A0002A86AE8603250A0083254A0093F4F40FCC
:10F2B0000509EFD090772AC422852EC6EF70714ED3
:10F2C0002246B246EF60917E2A8C4E85AE8CEF705E
:10F2D00071542A86AE866285E685EF600112EF7072
:10F2E0009146AA89ADB79306F7FB93F6F60F8147CF
:10F2F000E3EFDAF8930797FC49BF411122C406C631
:10F30000830795022A8499C713059502EF80112976
:10F310002389A1028307D41291CB1305D412EF8065
:10F320009127EF80510993870100C8D3B24022444E
:10F3300041018280011126CA9304150022CC97D581
:10F3400001009385A5622A84268506CE4AC84EC64A
:10F35000EFA05000631E051097D50100938545610D
:10F360002685EFA0207F6302050E85448307D40322
:10F370006386070C13059402EF80512285491379A7
:10F38000F50F1305D4036387340F8947638CF41892
:10F39000EF80D120A38AA102631A39017946814501
:10F3A00013857105238B0182EFE0FF888307D40862
:10F3B00085C31305D408EF80711E03C761839307CB
:10F3C0001700238BF18293870100BA97A38BA704C0
:10F3D0008307D40D85C31305D40DEF80311C03C7FB
:10F3E000618393071700238BF18293870100BA97FB
:10F3F000A38BA7048307D41285C31305D412EF800F
:10F40000F11903C7618393071700238BF182938758
:10F410000100BA97A38BA7048307D41785C31305EC
:10F42000D417EF80B11703C7618393071700238BAD
:10F43000F18293870100BA97A38BA704F24062443C
:10F44000D2444249B2490561828097D50100938533
:10F4500065522685EFA00070E31905F0268597D543
:10F46000010093856551EFA0E06E8944E31005F03B
:10F470008144EDBDEF809112238BA102631A9900A4
:10F480007946814513859103238B0182EFE0AFFA22
:10F490008307D40885C31305D408EF80311003C750
:10F4A000618393071700238BF18293870100BA973A
:10F4B000A38CA7028307D40D85C31305D40DEF8059
:10F4C000F10D03C7618393071700238BF1829387A4
:10F4D0000100BA97A38CA7028307D41285C3130532
:10F4E000D412EF80B10B03C7618393071700238BFE
:10F4F000F18293870100BA97A38CA7028307D417E0
:10F50000E38E07F21305D417EF80510903C7618317
:10F5100093071700238BF18293870100BA97A38C7E
:10F52000A70229BFEF809107A38BA10201BF411160
:10F5300022C406C6830795072A8499C71305950731
:10F54000EF80D105A389A1028307D40899C71305C9
:10F55000D408EF80B104238AA1028307540B91CB16
:10F560001305540BEF803103EF80E16493870100B2
:10F5700088D7B240224441018280011126CA8146C7
:10F58000B284014652C456C206CE22CC4AC84EC6E8
:10F590002A8AAE8AEF60B13441CD9307E0046386D6
:10F5A000F400930730056395F40897D90100938917
:10F5B000E93903A6090083A649005285D685EF6084
:10F5C000F14E37949800EF701118130404682A89DB
:10F5D00033758502EF70112403A6090083A6490044
:10F5E000EF60A15497D701009387C7369043D44367
:10F5F000EF60A1532A8A33558902AE8AEF709121B8
:10F600002A86AE865285D685EF50315F13073005C6
:10F61000AE876395E400B7070080AD8FF240624487
:10F62000D2444249B249224A924ABE85056182804B
:10F6300001458147E5B7011126CA8146B2840146DA
:10F6400052C456C206CE22CC4AC84EC62A8AAE8AB8
:10F65000EF60F12841CD930750046386F4009307CF
:10F6600070056395F40897D901009389292E03A6A4
:10F67000090083A649005285D685EF60314337944F
:10F680009800EF70510C130404682A8933758502C1
:10F69000EF70511803A6090083A64900EF60E14806
:10F6A00097D701009387072B9043D443EF60E1473E
:10F6B0002A8A33558902AE8AEF70D1152A86AE8622
:10F6C0005285D685EF50715313077005AE87639549
:10F6D000E400B7070080AD8FF2406244D244424953
:10F6E000B249224A924ABE8505618280014581471E
:10F6F000E5B7135785009357050113D88500937616
:10F70000F50F01111377F70F93F7F70F618593F555
:10F71000F50F1378F80F99C211C3B9E3230CD10088
:10F72000A30CE100230DF100A30DA10003459101FD
:10F73000834781010347A1012205A30E010142076E
:10F74000C98F230EB1000345B101D98F0347D10101
:10F750008345C101620522075D8DD98D05618280D7
:10F7600032951375F50F13138501135383415D46CD
:10F770006357660861463363C30285071376D70F64
:10F78000114593F7F70F6305A6002545631AA600F8
:10F790007946637FF60205071377F70F85470DA8B3
:10F7A00009466312C7041386067D93084006B368B2
:10F7B00016036385080013F5360011C513050019FB
:10F7C0003366A60219EE75466374F60085470D4749
:10F7D000230CD100A30CE100230DF100A30D610067
:10F7E000B1B77146D5B77D46E374F6FEB147E31471
:10F7F000F7FA850693F6F60F85470547D1BFE3591B
:10F8000003FC6105FD171313850193F7F70F1353DD
:10F810008341DDFF7D171377F70F1146F947E309A1
:10F82000C7FA1946E306C7FA2546E303C7FA2D4689
:10F83000E300C7FA89476316F7021386067D93072C
:10F840004006B367F60291C793F83600F547E381A7
:10F8500008F893070019B367F60293B71700F1078A
:10F8600085BFFD4735F7FD1693F6F60F31478DB787
:10F8700083471500034705000111A2075D8F8347E9
:10F8800025008346350006CEC207D98F03475500B1
:10F89000834545001746FF1F1306068D03065621B4
:10F8A000E206220733E5F600D98DA135135885000D
:10F8B0001356050193D7850013F7F50F93F7F70F4C
:10F8C000935685011376F60F9375F80F1375F50FA0
:10F8D000EF70A0569747FF1F83C7178905476385B9
:10F8E000E70011476396E700F24005616F7080649E
:10F8F000F24005618280497123248116138401003E
:10F900008307340083C8510003C8410003C72100A6
:10F9100083C6110003C6010097D5010093858507B2
:10F920004810232611162322911623202117232E57
:10F930003115EF90011B4810EF90212018485C48CA
:10F94000030604033AC03EC2030814035C4418448F
:10F95000541097D501009385E5053695EF90611811
:10F960004810EF90811D5C103E958307640017D608
:10F9700001001306A60189C717D6010013068600E9
:10F9800097E50100938585CFEF90A1154810EF9082
:10F99000C11A544C104C5C1097D501009385850218
:10F9A0003E95EF9001144810EF902119030634039F
:10F9B0005C103E9597D5010093858501EF9061120B
:10F9C0004810EF90811703072403AA8448503ACEC9
:10F9D00013840100EF80611372475C10AE862A86A3
:10F9E00097D501009385C5FF33859700EF90610F90
:10F9F0004810EF9081145C1003C6410397D50100B5
:10FA0000938585FF3E95EF90C10D4810EF90E11270
:10FA10005C1097D50100938525FF3E95EF90C110AE
:10FA20001389E101A28497E901009389A9C403C65F
:10FA3000740519CA481032CEEF90211072465C103E
:10FA4000CE853E95EF90E1098504E39224FF4810AE
:10FA5000EF90A10E5C1097D50100938565FB3E9554
:10FA6000EF90810C97E401009384C4C00346940393
:10FA700019CA481032CEEF90410C72465C10A68530
:10FA80003E95EF9001060504E31224FF4C10254536
:10FA9000EF9090688320C1160324811683244116B9
:10FAA000032901168329C11575618280411122C481
:10FAB00006C626C2830755012A84B9C7A94693877B
:10FAC00007FDB387D70203476501130707FDBA9700
:10FAD000A381F1000307750183478501130707FD23
:10FAE0003307D702938707FD3E972382E100830700
:10FAF00095010347A501938707FDB387D702130735
:10FB000007FDBA97A382F1008307940281CB130704
:10FB100010046391E71485472383F1008307D4031E
:10FB20009384010099C71305D403EF80C12688C4CC
:10FB3000CCC40306140509CA8844CC442388C102F6
:10FB4000EFF0BFA388C4CCC48307540699C713053C
:10FB50005406EF80412488C8CCC80306940709CA1C
:10FB60008848CC48A388C102EFF0FFAC88C8CCC855
:10FB70008307D40899CF1305D408EF80C12197D704
:10FB800001009387A7DF9043D443EF60217288CCB4
:10FB9000CCCC8307140A99C71305140AEF800120FF
:10FBA0002390A1028307540BB9C7A946938707FD89
:10FBB000B387D7020347640B130707FDBA97238166
:10FBC000F1000307740B8347840B130707FD33070A
:10FBD000D702938707FD3E97A380E1008307940B2C
:10FBE0000347A40B938707FDB387D702130707FDCD
:10FBF000BA972380F10083853400856703C64100EE
:10FC0000938707E11307C0033307E60283C6510059
:10FC1000B387F502BA97B69723A6F1021747FF1FDD
:10FC2000130707F9835707003A8413F5870039E172
:10FC3000038564000547631FE50203C7210011EF38
:10FC40008844CC4401468146EF60614905E923833D
:10FC50000100B9A023830100D1B5FDD175D2EDD249
:10FC600093E78700138501001747FF1F2312F7F45E
:10FC7000EFF01FC083876400E1F7D1BF8848CC480C
:10FC800001468146EF60A14579D183C72100E1D3C8
:10FC90001306800793850100138581F8EF80C11258
:10FCA00003C581C39D4705053365F502130680072B
:10FCB00093850100238CA1C2930780073305F502C9
:10FCC000938701C43E95EF802110EFF0DFC25C54B2
:10FCD0002244B24092441747FF1F2325F7F0130632
:10FCE000800781451385010041016FD0DFF4017168
:10FCF000232C811E232A911E1306101E2A84AE84F3
:10FD000068008145232E111E2328211FEFD0BFF24A
:10FD100081458147014701465148CD485D436340D5
:10FD2000960899C12306F1001306A002A685228534
:10FD3000EF9090608347C10051473386A440B3875A
:10FD4000E7029305150078007D16A2958507330517
:10FD5000F700EF8061071306A002A68522850349FC
:10FD60001400EF90705D894763C3A7080345C10085
:10FD7000D1473305F5027C0005053E95EFF04FCAEB
:10FD8000631CA904194697D50100938525BD130569
:10FD9000D100EF90D06725C56800093B35A8B306B0
:10FDA000C40003C50600930665FD93F6D60F91EADD
:10FDB000850793F7F70F6361F30285450147050651
:10FDC000B9BFB3860703130E011FF296BA96A38E2E
:10FDD000A6E00507E3D5E8FE8320C11F0324811FA9
:10FDE0008324411F0329011F13010120828033074F
:10FDF000F4000347070085073349E900B5B7194602
:10FE000097D501009385C5B51305D100EF903060FB
:10FE10000DED194697D501009385C5B41305D100A2
:10FE2000EF90F05E19ED194697D501009385C5B3A3
:10FE30001305D100EF90B05D45D16800EFF08FCF92
:10FE400061BF6800EFF0AFEE41BF6800EFF0EFCAAE
:10FE500061B7757122C526C34AC1CEDED2DCD6DABF
:10FE6000DAD806C7AA892E89814401448147130A3A
:10FE70004002854A354B139704014183636C270187
:10FE8000BA402A449A440A49F659665AD65A465BF9
:10FE90004961828033879900034707006300470365
:10FEA000639C5701631D67019C18A297A285680097
:10FEB000238E07F82D3D8147850475BF01449C18AA
:10FEC000A29705041374F40F238EE7F893373406D2
:10FED000E5B7411106C6138581C3834705001307A3
:10FEE00080078145B387E70213068007A1073E9587
:10FEF000EFD07FD4B2408145114541016FA08054BD
:10FF0000138581C38347050013078007B387E70282
:10FF1000A1073E958280138581F882809747FF1F55
:10FF200083C787C981CF9737FF1F83D74745FD1701
:10FF3000C207C1831307A0036375F70023AC0182D6
:10FF4000828031714ED79389818383A7090056D36C
:10FF5000938A81C3850722DD26DB52D55AD15ECF35
:10FF600062CD66CB6AC906DF4AD96EC723ACF1827F
:10FF700083C481C3014A130C8007568497DC0100B7
:10FF8000938C4C95054D9D4B154B338984035699A5
:10FF90008307E900E1CF03A60C0083A64C000325EC
:10FFA000090283254902EF6001256341050C83475F
:10FFB0000904638DA70B93171A001808BA97035703
:10FFC00089022390E7003C00D29723809700050A1E
:10FFD0009904B3E47403E31A6AFB0357810183575E
:10FFE0000101998F13D7F741B98F998F9394070126
:10FFF0001307400BC1806358F70093078016B38442
:020000021000EC
:100000009740C204C180268697D501009385858FCD
:100010006808EF80112D6C082545EF90F00F93874D
:1000200014FFC207C1837947636EF7080349910043
:10003000130A80078545014533094903210922999F
:100040004A86EF80801E8344B10085450145B38414
:100050004403A104A2942686EF80201DCA850D4585
:10006000EF30E051A6850D45EF30605183A70900C0
:100070001737FF1F0357A73063E7E70203C581C3A4
:100080009304800733059502B30DA4008387ED0028
:1000900099CB83C74109138981076397070E21050F
:1000A0002295EFF06F94FA506A54DA544A59BA59CB
:1000B0002A5A9A5A0A5BFA4B6A4CDA4C4A4DBA4DA4
:1000C000296182809307D002E3F297FA834B810083
:1000D000930A80078545B38B5B030145138C8B0026
:1000E000229C6286EF806014034B91008545014598
:1000F000330B5B03A29B210B229B5A86EF80E012FD
:10010000034AA10085450145330A5A03210A229A70
:100110005286EF8080110349B100854501453309BE
:100120005903210922994A86EF8020108344C10097
:1001300085450145B3845403A104A2942686EF802B
:10014000C00EE2850D45EF308043DA850D45EF3076
:100150000043D2850D45EF308042CA850D45EF3012
:100160000042A6850D45EF30804183C781C3B38A25
:10017000570303A74B03A29A83A74A03E318F7EE9A
:1001800085472380FA04DDB517CD0100130D0D75E9
:1001900003260D0083264D0003A58D0183A5CD0107
:1001A00097C9010093890974EF60411003A6090003
:1001B00083A64900EF5071172A8BAE8B03260D00E2
:1001C00083264D000325090183254901EF60010EB7
:1001D00003A6090083A64900EF5031152A8AAE8A8A
:1001E0002A86AE865A85DE85EF60C15797C7010023
:1001F0009387C76F9043D443EF60410BEFC0D06D3E
:100200002A8CAE8C5A85DE85EFC0F0632A8BAE8BCC
:100210005285D685EFC03063032689008326C90046
:100220002A8AAE8A03A50D0183A54D01EF60815393
:1002300003260D0083264D00EF60410703A6090049
:1002400083A64900EF50710E97C701009387076A94
:100250009043D443EF608105EFC010682A89AE89CE
:100260005286D6865A85DE85EF6041044A86CE8660
:10027000EF60C1034A86CE86EF6041032A89AE89CA
:100280006286E6866285E685EF6041022A86AE8652
:100290004A85CE85EF506116EFD0802BEFC0106DF0
:1002A0002A86AE86EF50611597C701009387876451
:1002B0009043D443EF50917F97C701009387076421
:1002C0009043D443EF50917E2A86AE862A89AE8928
:1002D000680897C501009385E563EF8091006C087D
:1002E0002545EF9060631735FF1F0345E5F1EF608B
:1002F000514B2A86AE864A85CE85EF50F164E35491
:10030000A0DA03C681C3330696028545014521065E
:100310002296EF70907183C581C3B38595020D4518
:10032000A105A295EF30A02503C581C33305950231
:1003300021052295EFE05FEB23AC0182ADB391473D
:1003400063EEC70817C701001307476D0A063A9600
:100350001C42411122C406C6BA972A84828797E5B7
:1003600001009385A5B41145EF90005BA28511456E
:10037000EF90805A2244B24097E501009385C5B4BE
:10038000114541016F904059B1C69042EF50B024E1
:100390002244B240014697650000938545AA3D4539
:1003A00041016F3010289DC62244C8C2B24003C527
:1003B000A6002394B6003686954541016F70F0661D
:1003C0002244B24041016FC070352244B240410125
:1003D0006F30C065B2402244410182808280411169
:1003E00006C6EF80C07EEF80004C83C74184214762
:1003F0006390E7021737FF1FA30CF7EC9737FF1F37
:10040000238A07C0EF50D036B24041016F50503BB5
:100410009737FF1FA38E07EAF5B75D71AA856800BD
:1004200086C6EF806170EF80C0156800EF80E170D4
:100430009387C1839043931505019736FF1F9386D9
:1004400026BB6800C181E53D9727FF1F93878795ED
:100450008843FD576306F5001375F50FEF30D02C78
:10046000B640FD571727FF1F232EF7926161828048
:100470009727FF1F938707939843FD576301F70260
:10048000411117E501001305659F06C67937B24093
:10049000FD571727FF1F2327F79041018280FD5743
:1004A0001727FF1F2320F79082809727FF1F93872E
:1004B000678F9843FD576301F702411117E501006B
:1004C0001305459D06C6913FB240FD571727FF1FF4
:1004D000232AF78C41018280FD571727FF1F232312
:1004E000F78C828055715810930631021306210251
:1004F00093051102930751021305610286C7EF604D
:10050000900C9737FF1F9387A76A83D70700BD9B7F
:100510001737FF1F231EF768EFF09F9E03030503A5
:100520009305E004835661020347110283472102C9
:100530000348310283484102034E510217E601008D
:100540001306461B6316B30017C60100130606F018
:10055000830E150313035004032F8500832FC5005A
:1005600097C50100938585EE63866E0097E50100CF
:100570009385451803230501832345017AC41ACCCA
:100580001ECE7EC672C02EC832C297D5010093859A
:10059000E5E81736FF1F1306A6A62810EF80615462
:1005A000EF70B0622810EF80415993870184904327
:1005B00093150501938681092810C181EFF03FD87A
:1005C000BE4069618280411106C623A0B18401C684
:1005D0001C4223ACF1089737FF1F83C757B98DEB37
:1005E0000545EFA0804797C501009385A551254596
:1005F000EF9080329737FF1F83D7875BB24093E736
:1006000007011737FF1F2315F75A41016F70305B41
:1006100005470545639CE700EFA020440545EF90A2
:10062000F06897C501009385254FD1B7EFA0E04250
:100630000545EFA080440545EF90506797C5010040
:100640009385054F6DB7411122C42A848307D403D3
:1006500006C626C22E8589C71307F0036398E702F2
:100660001737FF1F130717B79736FF1F938676B309
:100670001736FF1F1306D6AF97C501009385855621
:100680002244B240924441016F80A1459737FF1F39
:10069000A38007AE9737FF1FA38507B09737FF1FCB
:1006A000A38A07B2034704008547AE8463FAE700D4
:1006B0009305D4031735FF1F130595ABEF80C14693
:1006C0008307940791CF03470400894763FAE70043
:1006D000930594071735FF1F1305B5ACEF80C14490
:1006E0008307540B91CF034704008D4763FAE7005B
:1006F0009305540B1735FF1F1305D5ADEF80C1428D
:100700000146974500009385A50A1305C012EF30F6
:100710004071EF50F0051737FF1F1307B7AB97363F
:10072000FF1F938616A81736FF1F130676A497C5DA
:1007300001009385654D2685A1B7411126C206C6E5
:1007400022C4034705008947AE8463F5E702930599
:10075000D5032A841735FF1F1305859AEF80C13C06
:1007600013059407EF7081639737FF1F239CA79EA3
:10077000EF50807AEF50407E1736FF1F13064698E1
:100780009736FF1F83D6069E97D50100938505C037
:100790002685EF80013585479735FF1F9385458670
:1007A0001735FF1F130585941737FF1FA304F78A1A
:1007B000EF8081379735FF1F9385959B1735FF1F76
:1007C00013056589EF8041369735FF1F9385759D29
:1007D0001735FF1F1305458BEF8001359735FF1F38
:1007E0009385559F1735FF1F1305258DEF80C13366
:1007F00097C50100938545AD1735FF1F1305659318
:10080000EF808132EF5040712244B2409244014661
:10081000976500009385651B1305800241016F30C9
:100820004060411122C426C24AC006C68307D503D0
:10083000AE8417C901001309E9741734FF1F1304AC
:10084000243789C71307F0036391E7041735FF1FA7
:100850000345759BEF60E174032609008326490078
:10086000EF50A12CEF70213528C0EF70012AAE8621
:100870002A8697C50100938565712244B2400249DA
:100880002685924441016F80C1251305D503EF7081
:10089000E1509737FF1FA388A7961375F50FEF60F8
:1008A00041700326090083264900EF500128EF70AC
:1008B000813028C0EF50C06B2840EF700125AE8614
:1008C0002A8697C501009385656E45BFAA87038771
:1008D000D7032E8509C79306F0036315D702973710
:1008E000FF1F83C7B78817C601001306E66689E7AE
:1008F00017C601001306C66697C501009385C56734
:100900006F80211E41111385D70306C622C42E8491
:10091000EF70C1489737FF1FA38AA784EF50406547
:100920009737FF1F83C7978497C501009385C563D9
:1009300089E797C501009385A56322852244B240CB
:1009400041016F80611E411126C206C6AA8422C4DD
:100950008387D4032E8589C71307F0036396E704C2
:100960009737FF1F83C7B78005476385E70289CBA9
:1009700009476386E702B2402244924441018280E3
:1009800097C501009385C5662244B2409244410157
:100990006F80811997C5010093850568F5B797C5E4
:1009A00001009385256ACDB79384D4032E842685D0
:1009B00097C501009385056CEF80411E1DC18947D5
:1009C0001727FF1FA305F77A97C501009385C56E0A
:1009D0002285EF8061152244B240924441016F505C
:1009E00020592685EF70813B1375F50F9727FF1F60
:1009F000A38FA776854797C501009385E569E3092D
:100A0000F5FC97C501009385656779D18947E30DAA
:100A1000F5FA1727FF1FA30CF77497C501009385FC
:100A2000E56B7DB741112E8597C501009385057350
:100A300006C6EF80610FB2400146976500009385BE
:100A4000C5F81305200341016F30A03D411122C4B8
:100A500026C206C68307D503AE841724FF1F1304DE
:100A6000A47089C71307F003639BE7028306542130
:100A700017D601001306869563D6060017C6010037
:100A80001306C69C268597D5010093856594EF8053
:100A900041052244B240924441016F904043130506
:100AA000D503EF70A12F9737FF1FA389A78CEF9075
:100AB00000420306542197D50100938525932545CF
:100AC000EF80507A834754216147B10793F7F70FBE
:100AD0006377F700A1471737FF1FA301F78AEF508D
:100AE00020498306542117D601001306268E63D6AB
:100AF000060017C60100130666952244B2402685FB
:100B0000924497D501009385E58E41016F70717D08
:100B1000397122DC9307D1022E8478109306B1023A
:100B20001306A102930591021305E10206DE26DAFF
:100B30004AD8EF6040298348D1020348C102834765
:100B4000B1020347A102834691020356E10297C511
:100B500001009385E52B2285EF70B1782285EF7037
:100B6000D17D9734FF1F9384A404CC5403A844037D
:100B70000566130606E133F3C5029306C00322950A
:100B8000B378C802B377D80233F7D5023EC09C547D
:100B9000B3D8D8023358C802B356D30233D6C502ED
:100BA00097C5010093850529EF70B1732285EF7019
:100BB000D1783309A400EF80301017C60100130666
:100BC000262309C517C601001306462297C5010052
:100BD0009385452A4A85EF70D1702285EF70F175B3
:100BE0001736FF1F0346060197C501009385852927
:100BF0002295EF70116F2285EF70317483D7040056
:100C00002A9417C601001306E61E139727016346B0
:100C1000070017C601001306A61E32CEEFC0004221
:100C20007246AA8697C50100938505272285EF7035
:100C3000516BF2506254D254425921618280AA878A
:100C40000387D7032E8509C79306F0036311D702E4
:100C50009727FF1F83C7C75197C50100938505EFED
:100C600089E797C50100938565F16F70F16B4111BC
:100C70001385D70322C406C62E84EF702112137584
:100C8000F50F9727FF1F2385A74E1727FF1F034741
:100C9000B74D89476316F7000DE91145EF90100134
:100CA0009727FF1F83C7C74C97C50100938585EE23
:100CB00089E797C50100938525F12285EF70D166FC
:100CC0002244B24041016F50A02A1145EF90B00379
:100CD000C1BFAA870387D7032E8509C79306F003F0
:100CE000631ED7029727FF1F83C767480547638D99
:100CF000E70089C70947638EE700828097C5010036
:100D0000938545F36F70516297C501009385C5F6D1
:100D1000D5BF97C501009385E5FBEDB7411113855C
:100D2000D70322C406C62E84EF7041071375F50F52
:100D30009727FF1F238DA742854797C501009385FD
:100D4000A5F36306F50297C501009385A5EE05C1DD
:100D5000894797C501009385E5F7630AF5001727D2
:100D6000FF1F2306F74097C50100938565FC228588
:100D7000EF70915B2244B24041016F50601FAA871F
:100D80000387D7032E8509C79306F003631CD7009A
:100D90001726FF1F0346464797C501009385451652
:100DA0006F70315441111385D70306C622C42E84B7
:100DB000EF60517F9727FF1F2388A744EF50401B08
:100DC00022852244B2401726FF1F0346E64397C5FB
:100DD0000100938525154101E1B7411122C4394530
:100DE0002E84814506C6EF301002EF50E00A2A86B5
:100DF00022852244B24097C5010093852515410103
:100E00006F70314E411122C41305D5032E8497C54E
:100E100001009385E50906C6EF80D05311CD014549
:100E2000EF50801F97C50100938545092285224414
:100E3000B24041016F70514F0545EF50E01D97C51D
:100E4000010093856509DDB7411122C42A84830717
:100E5000D40306C626C22E8589C71307F003639CF8
:100E6000E7029727FF1F938797431727FF1F130753
:100E7000F73F9726FF1F83D666511726FF1F1306DD
:100E8000D63B97C501009385653A2244B24092440F
:100E900041016F701145AE841725FF1F1305F53909
:100EA0009305D403EF7051481725FF1F1305F5383C
:100EB000EF70B14893150501C1811725FF1F130578
:100EC000D537EF9000028307940789CB1305940769
:100ED000EF60D16C9727FF1F239AA74A8307540B13
:100EE00085CB9305540B1725FF1F13053538EF707D
:100EF000B1431725FF1F13057537EF701144931584
:100F00000501C1811725FF1F13055536EF80707D40
:100F10008307140F85CB9305140F1725FF1F1305A7
:100F20001538EF7071401725FF1F13055537EF7007
:100F3000D14093150501C1811725FF1F13053536D3
:100F4000EF80307AEF50C0029727FF1F9387373525
:100F50001727FF1F130797319726FF1F83D60643D6
:100F60001726FF1F1306762D97C501009385452D83
:100F7000268521BF011106CE2EC6EF90803F854702
:100F80001727FF1F230CF73EEF40907E3245F240BB
:100F900097C50100938545E005616F70F138011137
:100FA00006CE2EC6EF90403E9727FF1F2388073CB2
:100FB000EF40107C3245F24097C50100938545DE35
:100FC00005616F707136411122C426C206C68307BF
:100FD000D5032E849724FF1F9384041989C7130710
:100FE000F0036393E70203A5C423EF6011322A865E
:100FF00022852244B2409244AE8697C50100938573
:10100000651141016F70F12D1305D503EF60115982
:10101000EF50317997C701009387C7F69043D443C7
:10102000EF40B130EF60313923AEA422EF60F12DF3
:101030002A86AE86228597C501009385E50FEF705D
:10104000512A2244B240924441016F407072AA87F3
:101050000387D7032E8509C79306F003631CD700C7
:101060001726FF1F0356A63197C501009385852FCC
:101070006F70312741111385D70306C622C42E8411
:10108000EF60D151131605019727FF1F2399A72E53
:10109000418297C501009385252E2285EF7071242A
:1010A0009727FF1F83C7570C09476388E700F1178D
:1010B00093F7F70F0547636AF7009727FF1F83D75A
:1010C000072C89EB0945EF9000442244B2404101CE
:1010D0006F40106AEF90802C75D51727FF1F0357BC
:1010E000072A9307B003E3EFE7FC0945EF90003CC4
:1010F000E9BF797126D206D622D44AD04ECE52CC40
:1011000056CA5AC85EC68307D503AE8489C713077B
:10111000F0036394E70697C501009385E5062685ED
:10112000EF7091201724FF1F130404041729FF1FD9
:101130001309490717CA0100130A8A0497D9010045
:10114000938949202685EF70511F834714242695E3
:10115000528699C313061424CE855104EF7071187A
:10116000E31224FFB250225492540259F249624AC7
:10117000D24A424BB24B4561828085472A84631232
:10118000F604A1C203A906004A85EF70111B2A8646
:101190009725FF1F938515254A85EF80502715E178
:1011A0002254B2500259F249624AD24A424BB24BDF
:1011B0002685925497C50100938545FE45616F7061
:1011C000B1168307D4031307100493F7F7FD639D4B
:1011D000E7081729FF1F130929F922859305440BF6
:1011E0004A873A86AA86CD4703C89607FD1793F724
:1011F000F70FA300062585060506FDF7230A072439
:101200001305C5035107E31EB5FC97C5010093857F
:10121000A5FB2685EF7051111724FF1F130484F8D6
:1012200017CA0100130ACAF597D9010093898911D9
:101230002685EF709110834719242695528699C30D
:1012400013061924CE855109EF70B109E31224FF6A
:101250002254B25092540259F249624AD24A424B45
:10126000B24B45616F40D0501307400497C5010051
:101270009385C5FA639EE706130494072285EF70F1
:10128000D10B7D151375F50FC94763EFA70413093B
:101290001024014A172BFF1F130B0BED97CB0100F6
:1012A000938B8BF3930AD027B3096901A2854E85EE
:1012B000EF80500A01CD2685EF7031084E86DE851D
:1012C0002695EF701102054A238009005109E31D9C
:1012D00059FDE31F0AF6228697C501009385C5F0E4
:1012E0002685EF701100ADB797C501009385C5F154
:1012F0002685EF707103A9BF411122C406C626C21C
:101300004AC08307D5032E8489C71307F00363956A
:10131000E70497C50100938525A92285EF70D100C8
:101320002285EF7091019727FF1F83C7B70B229586
:1013300017C601001306C6E489C71726FF1F130648
:10134000760A2244B2409244024997D5010093851F
:1013500065FF41016F70E1788547AA84631DF6023D
:101360009DCA03A906004A85EF70217D2A8697252C
:10137000FF1F938535074A85EF80700909ED2285A7
:101380002244B2409244024997C50100938505E189
:1013900041016F7061798387D4031307100493F7B9
:1013A000F7FD639BE706938794071727FF1F130733
:1013B000A7DB9384C40883C6070085070507230EAF
:1013C000D726E39A97FE97C501009385659F2285EE
:1013D0009727FF1F23820702EF7001752285EF70A8
:1013E000C1759727FF1F83C7F7FF229517C6010016
:1013F000130606D989C71726FF1F1306B6FE97D511
:101400000100938525F4EF70C16D2244B2409244EF
:10141000024941016F40D0351307400497C50100D0
:101420009385C5DF6393E706938494072685EF7061
:10143000C1707D151375F50FC94763E4A704A68530
:101440001725FF1F130515FAEF80C07001E92686E6
:1014500097C50100938545D9228575B72285EF7020
:10146000C16D1726FF1F1306F6F797C50100938578
:10147000A5D62295EF70E1669727FF1FA38407F694
:1014800069B797C501009385E5942285EF70C1691E
:10149000ADBFAA870387D7032E8509C79306F0033C
:1014A0006313D7069727FF1F83C717F5054763897F
:1014B000E70289CF0947638EE7020D476380E7049F
:1014C00097C50100938505E36F70016617C601009B
:1014D000130606D997C50100938505DA6F70616020
:1014E00017C60100130606DA97C50100938585DA51
:1014F000F5B717C60100130666DCFDB717C6010075
:10150000130606DDD5B741111385D70322C426C2C1
:1015100006C62E84EF6091081375F50F9727FF1FFD
:10152000A38CA7EC8544630295041DC18947630A17
:10153000F5048D47630CF50497C50100938585DF9D
:101540002285EF70615E9727FF1FA38797EA01A8A6
:1015500097C50100938585DA2285EF70E15C22440E
:10156000B240924441016F40B02017C601001306FB
:1015700066D197C501009385A5D92285EF70615684
:10158000F9BF17C60100130666D3E5B717C60100F9
:10159000130606D4F9BF130101B92320214732896C
:1015A0002E86AA85E800232611462324814623227D
:1015B0009146232E3145232C4145B689232A514596
:1015C0002328614523267145232481452322914503
:1015D0002320A145232EB143EF80407E1305D10483
:1015E000EF70A15593150501C1811305D10497C46E
:1015F0000100938424E8014AEF80B00A0144A68ADE
:10160000130B0003C8409305D104EF80A05415C903
:101610000E04569483170400139707012308012230
:1016200041839306F00263F4E6006F10404817B65A
:1016300001001306E63F93962700B2969842329730
:1016400002870504A104E31F64FBFD57F1B71727C8
:10165000FF1F0347F7C7A1476312F70C19464C1049
:101660001725FF1F1305159BEF80C063081C230877
:101670000102001CEF70614C9727FF1F83D727D111
:101680001727FF1F130717C89726FF1F9386469734
:10169000501097C50100938565FB2295EF7061445A
:1016A000081CEF7081491C1C1726FF1F130656AC3F
:1016B0003E9597C50100938525FCEF708142081C7B
:1016C000EF70A1471C1C3E959727FF1F9387C7A962
:1016D0008386572117C60100130646CF63D606003E
:1016E00017B60100130686D697C50100938545F904
:1016F000EF70213F1724FF1F034414A79307F4FF43
:1017000093F7F70F1147636FF70E17B70100130731
:10171000273E8A07BA979C43BA978287081CEF70C6
:10172000C1411C1C1727FF1F0357A7C69726FF1F81
:10173000938696AD1726FF1F1306868C97C501006A
:10174000938585F23E95EF70C13999BF081CEF7003
:10175000C13E1C1C3E95854797C50100938505F346
:101760006306F40097C501009385C5F2C164EF706C
:10177000A13B1724FF1F1304249F172BFF1F130BDC
:101780004B9FFD14930AC00397CB0100938B0BF181
:10179000035A8421630E9A00081CEF70013AB37655
:1017A0005A031C1CDE853E9533565A03EF70613395
:1017B0000904E31F8BFC081CEF7021381726FF1F5C
:1017C0000346B69A97C50100938505EE1C1C3E950D
:1017D00005A81726FF1F035686BA9726FF1F83D634
:1017E000C6BA081C32CE36C8EF70213572461C1CB2
:1017F0003E95C24639C29DEA97C501009385C5EB67
:10180000EF70212E081CEF7041331C1C9716FF1F30
:1018100083D6C67E1716FF1F0356667E97C5010046
:10182000938585EF3E95EF70C12B65A497C50100A8
:10183000938545E9EF70E12AF1B781EA97C5010088
:10184000938545E9EF70412E75BF368697C5010037
:10185000938545E975B7081CEF70212E1726FF1FE9
:101860000356A6B297C50100938585E885B7081C85
:10187000EF70A12C1C1C9726FF1F83D646B017269D
:10188000FF1F035686B097C501009385A5E73E95D7
:1018900055B7EF40E04F9727FF1F93876731885F69
:1018A000EF60A1262A86AE86081C97C501009385A5
:1018B00025E8EF7001239727FF1F83C7E72F638079
:1018C0000714EFE0EFE32A84081CEF7001271C1CCB
:1018D0003E958307640017C601001306A6D289E768
:1018E00017B601001306860A97C50100938545E5E2
:1018F000EF70211F081CEF704124AA844850EF604C
:10190000C1201C1C2A86AE863385970097C501002E
:10191000938585E3EF70E11C081CEF7001221C1C0D
:101920003384A700EF80902717C60100130606CE68
:1019300009E517C601001306A6CD97C501009385DA
:1019400025E22285EF70E119081CEF70011F2A843F
:10195000EF4060531C1C2A8697C501009385C5E0A3
:1019600033858700EF70E117081CEF70011D1C1C08
:101970003384A700EF80502917C60100130686C9DB
:1019800009E517C601001306A6C997C5010093858E
:1019900065DE2285EF70E114081CEF70011A1C1C33
:1019A0003384A700EF70D02C17B60100130606444D
:1019B00009E517B601001306A64397C501009385F4
:1019C00025DC2285EF70E111081CEF7001171C1C4B
:1019D0003384A700EF209007CD4717B60100130608
:1019E000A6B96306F50017C60100130626C497C5FD
:1019F00001009385A5D92285EF70A10ED9A8081CF6
:101A0000EF70A1131C1C97C501009385A5D43E95CA
:101A1000EF70811111B717C701001307E7D797C6F9
:101A20000100938626D817B601001306E68997C5EC
:101A300001009385E5D7081CEF70A10A59A8830718
:101A4000510C638E070E83071110638A070E13056E
:101A50009108EF60A1341375F50F2382A184A1478B
:101A6000130620039305510C6312F5081725FF1F79
:101A700013055589EF7041101725FF1F1305958831
:101A8000EF70A10B93150501C1811725FF1F1305E9
:101A90007587EF80004513051110EF602130931614
:101AA00005019727FF1F2394A78EC1821726FF1FCA
:101AB0001306568597C50100938545D1081CEF7024
:101AC0004102014697F5FFFF9385A5917945EF20E7
:101AD0004035081CEF70610693150501CE864A86D5
