:040000006F20005C11
:1000040000000000000000009000002056080020BE
:10001400A9BDF9F5940000200000000000000000D4
:10002400960000209800002000000000000000005E
:100034009A000020000000009C0000200000000046
:100044009E0000201603002044030020A40000208A
:10005400A6000020A8000020AA000020AC00002078
:10006400AE000020B0000020C60000205A0100208D
:10007400D2080020B8000020BA000020BC000020F4
:10008400BE000020EE01002082020020C4000020F7
:1000940001A001A001A001A001A001A001A001A054
:1000A40001A001A001A001A001A001A001A001A044
:1000B40001A001A001A001A001A001A001A001A034
:1000C40001A001A001A037370040834747009946AB
:1000D4004111BD8B638CD70231476384E706114716
:1000E400639EE702A303010017460000034686252A
:1000F40037370040834771006315F6022C001385DF
:10010400815497A000E0E780A02D09A883475700F9
:1001140093F7F70F2304F100834781004101730033
:10012400203083477100834687000C08AE97238CE8
:10013400D7FE83477100850793F7F70FA303F100F8
:1001440055BF2800970001E0E780A0521375F50F12
:10015400A303A1000346710055B737370040834716
:10016400474099464111BD8B638CD7023147638464
:10017400E7061147639EE702A30301001746000048
:100184000346661C37370040834771006315F60247
:100194002C001385C15597A000E0E780602409A8CE
:1001A4008347574093F7F70F2304F10083478100F7
:1001B40041017300203083477100834687400C0857
:1001C400AE97238CD7FE83477100850793F7F70F0B
:1001D400A303F10055BF2800970001E0E780205BEE
:1001E4001375F50FA303A1000346710055B73747F4
:1001F40000408347478099464111BD8B638CD702E9
:1002040031476384E7061147639EE702A3030100B5
:100214001746000003461613374700408347710012
:100224006315F6022C001385015797A000E0E780C0
:10023400201B09A88347578093F7F70F2304F10085
:100244008347810041017300203083477100834656
:1002540087800C08AE97238CD7FE834771008507EF
:1002640093F7F70FA303F10055BF2800970001E0AF
:10027400E780A0631375F50FA303A1000346710083
:1002840055B737470040834747C099464111BD8B56
:10029400638CD70231476384E7061147639EE70204
:1002A400A3030100174600000346A62A374700406F
:1002B400834771006315F6022C001385415897A0FB
:1002C40000E0E780E01109A8834757C093F7F70FD0
:1002D4002304F100834781004101730020308347E8
:1002E4007100834687C00C08AE97238CD7FE8347E2
:1002F4007100850793F7F70FA303F10055BF28009A
:10030400970001E0E780206C1375F50FA303A100AB
:100314000346710055B7411122C637140040835774
:10032400C40913973701635B0700BD45014597E096
:1003340000E0E780E0778567231EF408324441013A
:1003440073002030411122C6371400408357E4095A
:100354008357E409139717016359070097E000E0F6
:10036400E780206D9167231FF40832444101730034
:1003740020304111814601468145114506C60D2DA7
:10038400B727004011472383E780B7F700E003A7AE
:1003940007D16D9B23A8E7D003A707D15D9B23A8B2
:1003A400E7D07300501001000100B2404101828087
:1003B4004111814681450146114506C6D52BB72713
:1003C400004011472383E780B717004003C7E702C3
:1003D40083C5E70483D7870391661377F70F93E503
:1003E400350063E5D700719B13671700B71700400A
:1003F400130670052380C704930680FA2380D7046C
:1004040001000100238207022380C7042380D7044C
:10041400010001002387E7022387B7042380C70470
:100424002380D7040100010003C7B7041367070240
:10043400A385E7042380070437F700E0832507D169
:1004440093E545002328B7D0832507D1DD992328D8
:10045400B7D073005010010001002380C70423802B
:10046400D7040100010003C7B7041377F70DA38570
:10047400E70423800704B240410182800111B7F5EB
:10048400070022CC8146E1052A840A86194506CE56
:1004940026CA02C023120100212BB717004003C74C
:1004A400E70283C5E70483D7870391661377F70FC1
:1004B40093E5350063E5D700719B13671700B71701
:1004C4000040130670052380C704930680FA238036
:1004D400D70401000100238207022380C70423807C
:1004E400D704010001002387E7022387B704238090
:1004F4000704B7F500E003A705D11367470023A855
:10050400E5D003D507026577110713750560418DA2
:10051400598D4205418101002380C7042380D704FB
:100524000100010003C7F70037F40700B7F400E047
:1005340013670704A387E70003C7B70461041367BD
:100544000702A385E7042390A70283A704D1DD9BB8
:1005540023A8F4D0730050100100010013056004B7
:10056400352E81463000A285194502C423160100A8
:10057400812122478247E31AF7FCB717004013078B
:1005840070052380E704130780FA2380E704010041
:10059400010003C7B7041377F70DA385E70423808D
:1005A4000704F2406244D2440561828001114EC6C0
:1005B40081460146AA898145114506CE22CC26CA28
:1005C4004AC8FD26B716004083C7E60203C7E604FF
:1005D40083D68603116693F7F70F1367370063E535
:1005E400C600F19B93E71700371400401309700508
:1005F40023002405930480FA2300940401000100DD
:1006040023020402230024052300940401000100B2
:100614002307F4022307E40423000404130550020F
:100624005920B7F700E003A707D11367470023A8B1
:10063400E7D02300240523009404010001000347AC
:10064400F40013670704A307E40023002405230030
:100654009404010001002567B3E9E9002310340381
:1006640003A707D15D9B23A8E7D0730050100100B6
:10067400010081460146814511451D2E23002405B4
:1006840023009404010001008347640493E71700E6
:100694002303F40423000404F2406244D244424994
:1006A400B24905618280B717004093067005238024
:1006B400D704130780FA2380E7040100010003C66E
:1006C400B7041376F60DA385C704238007041376B5
:1006D40005024DC203C6A700118A1DE22380D70478
:1006E4002380E7040100010003C7A7001367470044
:1006F4002385E7009307004B01000100FD17EDFF80
:10070400B7170040930670052380D704130780FAB7
:100714002380E704010001007D892394A7000100E0
:10072400010001000100238007042380D7042380F3
:10073400E70401000100010001003727004093068F
:100744001005A303D78023800704B71700401307BD
:1007540070052380E704130780FA2380E70401006F
:10076400010003C7B70413670708A385E7042380C0
:10077400070482801376050441C603C6A700418A94
:100784001DE22380D7042380E7040100010003C78E
:10079400A700136707012385E7009307007D010085
:1007A4000100FD17EDFFB717004093067005238085
:1007B400D704130780FA2380E704010001001376AD
:1007C400F501136606042394C7000100010001002B
:1007D4000100238007042380D704130660042380C8
:1007E400E7046318C500010001003727004089466B
:1007F40089BF01000100372700409306200591B707
:100804002380D7042380E7040100010003D7870075
:100814001367070C2394E7000DBF4111814601467D
:100824008145114506C66922B717004013077005B4
:100834002380E704130780FA2380E7040100010002
:1008440003C76704136717002383E704238007049F
:10085400B240410182808146014681451145892A81
:10086400B7170040930670052380D704130780FA56
:100874002380E704010001007D562396C7022380EC
:10088400D7042380E7040100010003C7670413674A
:1008940017002383E7042380070401A0BD47330521
:1008A400F50201007D1575FD8280411122C426C226
:1008B40006C6AA84014463179400B24022449244B9
:1008C4004101828005041305803E4204C13F4180FA
:1008D400DDB7B7170040130700032388E7028547F5
:1008E400174700002326F7DC73002030411106C6A9
:1008F400852DFDBF2303048015472303E4800100F5
:100904002302A480828083076480E3CE07FE23034E
:100914000480828083076480E3CE07FE034544801D
:10092400828083076480E3CE07FE2302A480828052
:10093400411126C44AC24EC006C61377F50BAD4713
:10094400AA892E8995446306F70019456537653FE2
:100954008D444E854537FD59FD1463983401B240EA
:10096400A244124982494101828013550901137539
:10097400F50F453F2209CDB7011126CC06CEB704A9
:10098400080051371545BD37713769372AC6A53F69
:1009940032459377150089EB136515001375F50F30
:1009A400F240E24405618280FD14E9FC0145CDBFBB
:1009B400397126DC4ADA4ED852D656D45AD25ED091
:1009C40006DE62CE66CCB7E700E07D5783AA070057
:1009D40022C603AA470023A0E71823A2E718B717E3
:1009E4000040130770052380E704130780FA23806F
:1009F400E70483C74704930B75FFB684E20793FBB0
:100A0400FB0F8546AA892E8B328937240040E18763
:100A1400015763FA76016308D5008946130700027B
:100A24006313D5000157D98F93F7F70FB71C004014
:100A34002382FC0411472303E4801305F00F5D3D7A
:100A4400094CD135636D7C11B7050700DA953787FA
:100A54000700795563F2E504B3879500636EF702E6
:100A6400370B0800A94733EB65016399F90689E45C
:100A74008144513D26850DA0DA850945553D05097A
:100A84000345F9FFFD14050B693D81C49377FB0F02
:100A9400FDF7DD3569FD7D55B71700401307700577
:100AA4002380E704130780FA2380E70403C747047D
:100AB400418B2382E704F250B7E700E023A05711EB
:100AC40023A24711E25432445259C259325AA25A0B
:100AD400125B825B724CE24C21618280A547639574
:100AE400F90685691309F00FB3069900B3742B0155
:100AF400B6941349F9FFB3749900856B337969018E
:100B0400416B9387F9FFB3F7270199E363FC340141
:100B140093D94900C147E3E637FF99BF0569C16925
:100B24007D19D9B71305800D638869011305000287
:100B34006384790113051008CA85DD3B353D21DD49
:100B44004E99B3843441D9B7DA852D45D533CA9447
:100B5400E30099F205097D3BA30FA9FED5BF938756
:100B6400F9FF93F7F70F6361FC0C83C71C041307A9
:100B74003008631FF70437070800636BEB04B307FF
:100B84009B00B706100063F5D704334BEB0089478D
:100B94006393F9068980D549E38C04ECDA85094529
:100BA400413B11090327C9FF91472320E480030730
:100BB4006480E34E07FE23033481FD17EDFBFD142F
:100BC400110B81C49377FB0FE9FF7D3371F5E1B518
:100BD400B717004003C75704B70708001377070285
:100BE40019E3B78707007955E378FBEA33079B00DD
:100BF400E3FFE7F855B58547E382F9F2DA852D4539
:100C0400053B9389F4FFE38504E6293393F7390020
:100C140091EB832604800327090093074900E39A94
:100C2400E6E43E89CE84F1BFB5476396F900130527
:100C3400900BC93135BDB1471305B00AE38BF9FEFA
:100C440099476391F904B7050800B365BB002D45C6
:100C5400C53181448D4BA14975396396740183274D
:100C640004802320F9008504E39834FF832704805B
:100C740013172B01635507002312F900D5BB232258
:100C8400F900FDB39D476399F90281451305B0044A
:100C94004531BD442320090023220900FD599D3913
:100CA40093F77400CA9703C70700FD14398D238096
:100CB400A700E39634FF6DBBA1476392F9046D3935
:100CC4008144630D0B008D479304C0036308FB004C
:100CD4009304000563048B01930440041375C50752
:100CE400E30895D819453931393905452131268527
:100CF4000D3909453D314931E31C05D669BB91479E
:100D04006399F90013056006F536F53E130590095D
:100D14000DB7E38F09D4F154A9BB19CD91CD09CEF8
:100D240081473387F500834607003307F5008507BD
:100D34002300D700E317F6FE828019C991C909CAB6
:100D4400910583A7C5FF11057D16232EF5FEC5BFAA
:100D5400828001C919C62A960505A30FB5FEE31DB5
:100D6400A6FE828081473307F5000307070019E3D5
:100D74003E8582808507C5BF01112E8626CAAA84B6
:100D8400131506019305F004418122CC06CE32C628
:100D9400EF1040592A8401C53246A685BD3F2285FD
:100DA400F2406244D24405618280854715C18DC1F9
:100DB40005C28147B306F5003387F50083C60600F4
:100DC400034707006398E6008507E315F6FE8547A9
:100DD4003E8582808147EDBF9307F6FFBE952A9634
:100DE4006313C5008280FD1583C715000505A30F95
:100DF400F5FEFDB7AA87014581CF09CE3E9685074A
:100E040003C7F7FF6317B700E39BC7FE054582805E
:100E1400828001458280797197570000938747113A
:100E240022D4804306D626D24AD04ECE52CC56CABD
:100E34005AC85EC662C45DCC37C9C901814B175A12
:100E44000000130A6A13975400009384A40E130934
:100E5400F937975A0000938A6A08B709C0A8370B74
:100E640040578357240095E35C44639D0B00175758
:100E74000000232FF70A032CC4002285EF10A0578B
:100E8400628499A823A6FB00FDB783270A008297F2
:100E9400838664011C4463DB06063307F5406367FD
:100EA400E9089757000023A307048355240003454A
:100EB4000400974001E0E78000A15C405844A9CFBA
:100EC4001444B6978386640163C5060063E337015F
:100ED400DA971CC4A28B3A8449F49757000093878D
:100EE400E7FF9C4B09476378F706F917175700008B
:100EF400232EF7FEB250225492540259F249624A08
:100F0400D24A424BB24B224C45618280E377F5F8DA
:100F14003387F9402A9761B763970B00975700000E
:100F240023A8E70089BF23A6EB00B1B7D85009CFA7
:100F340063DF06003385A74083A70A016376F500C3
:100F44009757000023A4A7FAA28B404471B7E3F398
:100F5400A7FECE97C5B79757000023A907F859BF36
:100F6400411122C417540000130444FA1C4006C65D
:100F740026C24AC091C782979757000023A807F852
:100F84005C4091C382971C406391071C97570000F3
:100F940083C75716858B9DC797570000A38C0714EA
:100FA4001757000003473715954763FDE700EF0027
:100FB40010379757000083C71714F5178A07A297AD
:100FC4009C43829717590000130989168347C90067
:100FD400918B99C3EF1060281C4491C38297975456
:100FE40000009384A4F4984017560000034616EFBB
:100FF4009757000083C787EE93961700BA9683D657
:101004000600D5CA9757000083C747ED63EFC70AA8
:1010140097570000238407EC1C40639807129757E6
:10102400000083C7770D91CF9757000083C7B70C93
:1010340089EB97570000A381070C979002E0E780A3
:10104400209F97570000938727F39C43638F070ED5
:10105400B707C0A817570000232AF7E86D3B975736
:101064000000938727EDDC53EDC3175700001307E7
:10107400E7E6184B9757000083C717ED6367F70C33
:101084001757000003473707954763E0E70C83478A
:10109400C900918BDDEB90409756000083C616E49F
:1010A40063CBD70A2244B240924402494101173328
:1010B40001E06700635E850793F7F70F975600001A
:1010C400238EF6E0E3E6C7F235BF86073E978355E5
:1010D40007002310070097570000239707E497574A
:1010E4000000938767E29C4317550000034505DF22
:1010F40013172500BA979C4382979757000083D70C
:10110400A7E217570000034767DD93C7F7FF7D8DFC
:101114009317170098403E97835707005D8D23105F
:10112400A7009757000083C767DB91C78507175748
:1011340000002305F7DA17570000034727DA97570B
:10114400000083C7B7D9E375F7ECB2402244924458
:101154000249410182801397170032970357070011
:101164006DF7850735BFAD6737C70040BD07232638
:10117400F7200F10000097570000938727D6C84F19
:1011840083278726BD66BD0693C7F7FF99836A0543
:101194002326D7205D8D82804111B7170040985FC8
:1011A4003AC6945F3247E39CE6FE324541018280B1
:1011B40082800327851163000712411122C406C6E9
:1011C4008347C5008345C5042A8493F7C70F2306C4
:1011D400F500834697000356C70013958601618581
:1011E40063F1C508635A05060345870093F6F607BD
:1011F400A304D700054693E627006314C50093E6CD
:1012040017002306D4005C4389075CC3A30AB40017
:10121400032504112E864C430905013683278411C6
:1012240003465401D44303D7C700B296118FD4C3E5
:101234002396E7008947A30DF40003474403975717
:10124400000083C747D06378F7048347C40093E75B
:1012540007012306F40081A093E717002306F40096
:1012640075B79376F60F635D0502034587008545E0
:1012740013E627006314B50013E617002306C40021
:10128400A30AD400A30407008547A30DF400832711
:1012940084119C43DDF3B240224401454101828024
:1012A40093E717002306F400A30AD400A30407005D
:1012B400032504114C4309058D3483278411034607
:1012C4005401D44303D7C700B296118FD4C32396D5
:1012D400E7008D475DBF05458280975700009387DF
:1012E400A7DF9C43411122C406C6858B2A84C5EF1F
:1012F4004165130525F5973002E0E780C08645C5B2
:101304008347A5002315F50083270412BDE7232096
:10131400A4122322A41285472310F40423200500D9
:101324008347640154412316F5000347D400230482
:10133400E5000547A304E50017570000130747DB42
:10134400184F1385170215811C437D151375F50F6E
:101354009CC25C43DCC21C479CC65C47DCC61C4B7D
:101364009CCA5C4BDCCA1C4F9CCE5C4FDCCE19CDB6
:101374009386060213070702C1BF8327441288C35A
:10138400835704042322A412850779B797570000D2
:1013940083D747E38507175700002315F7E2B240C8
:1013A4002244410182808347C40023090400054587
:1013B40093C747002306F400DDB78347850193F7FD
:1013C400E70FD5EF83479501DDEB034625018346FF
:1013D400C50009CA83454503175700000347B7B63C
:1013E40063E7E50013F7060141CF014709C6C18A47
:1013F4000357651C81C68356A51C369751C3130732
:10140400C712175500000355E5AFB335A702374699
:101414000F00411113060624814622C426C206C6C3
:101424007D543305A702973003E0E780C007975740
:10143400000083C7B7B1B384A70097570000938710
:10144400E7D703A707098327070963F387003E84C7
:10145400184375FB97570000938707B29C43829704
:1014640081476364A400B307A440B2402244B3B7E5
:10147400970093C7170092443E85410182808147BB
:101484003E858280797126D206D622D44AD04ECEA9
:1014940052CC56CA5AC85EC68347350303447513F3
:1014A400AA843E941374F40F9307400263F68700F2
:1014B4001304B4FD1374F40F03AA841383AAC4138E
:1014C400A38B841222865285D685973003E0E78069
:1014D40000F8058915E503CBD41201498149337B12
:1014E4006403930B50024A865285D685973003E0F5
:1014F400E780E0F5058915C5639169031374F90F55
:10150400238B8412B250225492540259F249624AF3
:10151400D24A424BB24B456182808509E20993D994
:1015240089410509E31179FDE1BF83278509035644
:10153400E503797193D60701BD8EC206C182358E4B
:101544001357764093575640898B058B5D8F93577D
:101554003640918B5D8F93571640A18B5D8F931707
:101564001600C18B5D8F9317360093F707025D8FCA
:10157400931756009355860093F707041E065D8F54
:101584001376F60F518F93D7554013D63540118AF1
:10159400898BD18F13D67540D18F13D61540218AEC
:1015A400D18F13961500418AD18F13963500137687
:1015B4000602D18F13965500137606049E05D18F2B
:1015C40093F5F50FCD8FA20745465D8F3307C7020C
:1015D40022D42A8426D252CC56CA032A8413832ABC
:1015E400C4135AC806D636974207418393577740A7
:1015F400135557400989858BC98F13553740118975
:10160400C98F135517402189C98F131517004189B4
:10161400C98F1315370013750502C98F13155700A9
:1016240093558700137505041E07C98F1377F70FA9
:10163400D98F13D5354013D755401189098B498F5C
:1016440013D57540498F13D515402189498F1395BA
:1016540015004189498F1395350013750502498F8B
:1016640013955500137505049E05498F93F5F50FE1
:101674004D8F2207D98FB387C7024AD04ECE5EC69C
:1016840062C4B697C207C18313D7774013D55740B6
:101694000989058B498F13D537401189498F13D593
:1016A40017402189498F139517004189498F139554
:1016B400370013750502498F1395570093D587009A
:1016C400137505049E07498F93F7F70FD98F13D528
:1016D400354013D755401189098B498F13D575406F
:1016E400498F13D515402189498F139515004189D8
:1016F400498F1395350013750502498F13955500CD
:10170400137505049E05498F93F5F50F4D8F220738
:10171400D98FB387C702130650025285D685B69770
:10172400BD8E93940601C18033F6C402137BF60F79
:10173400973003E0E780A0D105890DED8347D412EB
:1017440001498149B3849702130C5002C1804A862F
:101754005285D685973003E0E78060CF0589937B77
:10176400F90F11C563863403850993F9F90F050947
:10177400E31F89FD230B6413B2502254925402597F
:10178400F249624AD24A424BB24B224C45618280B2
:101794005E8BCDB7011197570000938727A222CC07
:1017A40003A4470B26CA06CE2AC42EC6854419E4D0
:1017B4000145F2406244D24405618280834791002E
:1017C40003471400858B6304F7000044CDB7194622
:1017D4009305A10013052400EFF02FDDE31795FE18
:1017E4000545C1BF011122CC175400001304049213
:1017F40018402AC62EC432C206CE3C4B93F7F7F7E4
:101804003CCB978002E0E780601F184097560000A9
:101814009386068D3C4B93E707083CCB9C423245AC
:10182400A24523A00700034715000348250022070B
:10183400420842970348050042970348350062086E
:10184400429798D70347550003486500220742088A
:10185400429703484500429703487500620842973F
:10186400D8D7034795000348A500220742084297AA
:101874000348850042970348B5006208429798DB05
:101884000347D5000348E50022074208429703486E
:10189400C5000345F500429762052A97D8DB03C7C4
:1018A400150003C52500220742052A9703C5050034
:1018B4002A9703C5350062052A9798CF03C75500B8
:1018C40003C56500220742052A9703C545002A97E8
:1018D40003C5750062052A97D8CF03C7950003C5D1
:1018E400A500220742052A9703C585002A9703C548
:1018F400B50062052A9798D303C7D50003C5E50050
:10190400220742052A9703C5C50083C5F5002A9717
:10191400E2052E97D8D3D843759BD8C3D843136711
:101924001700D8C398431367170098C31246984208
:101934005C43858BD1E71C4F01452300F6009C4294
:101944009C4FA183A300F6009C429C4FC1832301BA
:10195400F6009C429C4FE183A301F6009C42D84FC1
:101964002302E600D84F2183A302E600D84F418327
:101974002303E600D84F6183A303E60098532304AE
:10198400E60098532183A304E6009853418323057A
:10199400E60098536183A305E600D8532306E600C6
:1019A400D8532183A306E600D85341832307E600D6
:1019B400DC53E183A307F600F240624405618280B0
:1019C4000100B5B7174700001307C771144341114D
:1019D40022C49C5E4AC006C6998326C2858B3A847B
:1019E400174900001309C96FD1CB9C5E97440000CE
:1019F4009384047093F7F7F99CDE174700000347BC
:101A0400876F93070008631BF700832709009C4333
:101A140093F7070417470000230FF76C83C70400EC
:101A240093F707049DC3974700009387E7549C43AB
:101A340082979747000023A5A76C83C7040093F7F8
:101A4400F70B174700002305F76A83C7440093F791
:101A540007048DE7854717470000A30DF7689747EC
:101A640000009387A76A9C43096798C7130700FC83
:101A7400974600002380E668D844F8D31C40985F5A
:101A84001183058B09CB985F3D9B98DF05479746EB
:101A940000002381E666985F1D83058B11CB985F58
:101AA4001377F7F798DF8547174700002304F76497
:101AB40083270900D8430583058B19C7D843759B31
:101AC400D8C3D843799BD8C3B24022449244024934
:101AD40041018280397106DE16DC1ADA1ED82AD654
:101AE4002ED432D236D03ACE3ECC42CA46C872C682
:101AF40076C47AC27EC0F935F250E2525253C253D0
:101B04003255A255125682567247E2475248C2488D
:101B1400324EA24E124F824F2161730020309747FC
:101B240000009387A75E9443974700009387475C20
:101B340003C70700058B11CB97470000238C075A76
:101B440097470000A388075A828003C71700058BB4
:101B540065F7F85271FF83C75700DDB717480000D7
:101B640013084858032708001C5F9583858BD1E729
:101B740009C61C5BBD832300F60085CA83270800C1
:101B8400985B4607935767016356070093E707C0BE
:101B9400C207C18303970600C207C18709C7BA9762
:101BA4000947B3C7E7022390F60085CD83471500A4
:101BB4008DCB9746000083C6065493F6060413871C
:101BC400970089478DCA3A9503470500854699478A
:101BD4001376F7066311D60262076187B947634C2F
:101BE4000700832708009C5FED838D8B1747000057
:101BF400A305F75081473E8582808547EDBF41119B
:101C040022C406C61744000013044450184049E98E
:101C1400AE877453FDFE3E85B28597470000238A44
:101C2400074C978002E0E78060B3974700009387F2
:101C3400674B9C43B70680009843558F98C3D85789
:101C4400719BD8D797470000A386074A974700009F
:101C5400A380074A1C40094798C3B7F700E003A7CD
:101C640007D16D9B23A8E7D003A707D15D9B23A8C9
:101C7400E7D073005010144017470000130747477C
:101C840083472700858B89EB83473700858BD9C72A
:101C94009747000023800746B240224441018280D6
:101CA4008D476310F502974700009387A7439C4331
:101CB400B70680009843558F98C3D857719BD8D7DF
:101CC4005DBF8547E319F5FAB567BD075CC70F101B
:101CD40000001C400967094698C7130700F8974697
:101CE40000002389E640174700001307A73F144369
:101CF400984231830D8B6319C7001307E043F8D36F
:101D04003D673D07D8C785BF984231830D8B01E7F6
:101D140013076019EDB71307E01BD5B7FC52ADF3F9
:101D2400A5BF5D7152DC174A0000130AAA3B0327C2
:101D34000A0086C6A2C4A6C2CAC04EDE1C43974986
:101D4400000093896941174900001309293C93F75E
:101D5400F7E793E707081CC383A609003707CEFFFC
:101D64007D179C46130680022A84F98F9CC683271C
:101D74000900130700082800B8CBAE8493051008A7
:101D8400EFE03FFD978002E0E78040C7978002E0E4
:101D9400E78040D483270A009376F41F370FFCFFB3
:101DA40023A40700984B4E88CA881367F70398CB7F
:101DB400F84F130510F8D285137707E0558FF8CF45
:101DC4009843F576FD16758F98C39843B70633008C
:101DD400B70204001377F7E798C398439303401FAF
:101DE4007D1F1377F7E71367071098C303A709004C
:101DF400930F800285491C47D58F1CC78327090090
:101E04001307900D3400B8CB114901471353370021
:101E140026938347030013767700B3D7C740858B97
:101E2400DDCF9C41832E0800239C070423900706E2
:101E340003AECE02137EDEFF23A6CE0383AE0700DD
:101E4400137EF70793FE0EF833EECE0123A0C701ED
:101E540003AE4702336E5E0023A2C70383AE0800BD
:101E6400014E23A27E0603DA070663074E0303AE80
:101E74000703038A0600135EFE00620E135E8E41A2
:101E84006358CA0103AE0703135EFE002380C60134
:101E940003DE0706137EFE0F03AA4E0663060A003E
:101EA40003DA8705E37F49FB03AE4702337EEE0185
:101EB40023A2C70383870600635CF400034E030078
:101EC4003396C9001346F6FF3376C6012300C300D8
:101ED4003E8663D3A7002A8613158601618505070C
:101EE4001377F70F8506E313F7F3B64026449644B9
:101EF4000649F259625A61618280974600009386CE
:101F0400E6209C42D84713161701635506029847EA
:101F140013161701635006027D57B8D71747000000
:101F24001307C7FB584F0507174600002326E6FC96
:101F3400116798C798470D83058B1DC31747000089
:101F44000347271B13671700174600002303E61AED
:101F5400130700F817460000230EE618214798C718
:101F64009847058B09CF1747000003477718136775
:101F7400170017460000A30DE616054798C79847B3
:101F84000983058B09E798470583058B31CF98476B
:101F9400174600001306C6151745000013058514DF
:101FA4000983058B630307101841184331830D8B94
:101FB40075EBAC4B184E93F5050203471700CDCDD6
:101FC40079EF13077006D8CF03470600136717008D
:101FD40017460000230EE610114798C718415C57B6
:101FE400F19B93E717005CD79C42984793163701FF
:101FF40063D606029746000083C68623C18A174724
:1020040000001307A71BC5CE034747071367070242
:1020140097460000238EE620056798C798479316D5
:10202400270163D10602174700000347A70C620784
:10203400618763570700054797460000238CE60A2B
:10204400096798C798479316070163D6060297460F
:10205400000083C6F61D858A17470000130707167C
:10206400ADCE034757071367270097460000A381A7
:10207400E61C216798C7828029D785456315B70078
:102084001307B00689B789456315B7001307F0062F
:102094001DBF8D456315B700130730072DB7130710
:1020A400500715B71307600739BF03473600136796
:1020B400170017460000A30EE602094739BF8346FE
:1020C40047070946BD8A6388C600034747078D460C
:1020D4003D8BE313D7F4114725BF83465707918AF5
:1020E400C9DA034757071367870041B7397106DE1A
:1020F40016DC1ADA1ED82AD62ED432D236D03ACEEC
:102104003ECC42CA46C872C676C47AC27EC0F53393
:10211400F250E2525253C2533255A25512568256CD
:102124007247E2475248C248324EA24E124F824F83
:1021340021617300203017470000130767FD8346B1
:10214400B7019747000083C777FF4C4BB697FD8BC9
:1021540033D7F50097460000A38CF6FA97460000A3
:10216400A38EF6FC058B15EF17470000034757FDB8
:10217400B3F7E702814601471305000233D6E500B1
:10218400058A1378F70F19CA6397D7009747000099
:10219400A38007F98280850693F6F60F0507E31FEF
:1021A400A7FC828097470000938707DD9C430111B9
:1021B40022CC4EC606CE26CA4AC852C456C28297FC
:1021C400974700009387C7F6804781496305A406B3
:1021D400BE84974700009387E7D5038767013E894C
:1021E40063550706018D135455009747000083C7B4
:1021F400C7F39379F501636DF402370AC0A8B70AEF
:102204004057153F9C449746000083C606F2139737
:1022140056003E9783076901158C63C50700636305
:10222400470156979747000023A8E7F0E37BD4FCC7
:102234001604B3693401F24062444E85D2444249E3
:10224400B249224A924A05618280E37D85F8B70744
:10225400C0A833848740229579B7974700009387B5
:10226400A7D19C43411122C406C626C28297974730
:1022740000009387E7EB80476309A406BE84974771
:102284000000938727CB8387670163D80704018DF8
:10229400135455009747000083C727E96367F40484
:1022A400593D98449747000083C727E89396570001
:1022B40036971D8C9746000023A0E6E8E372F4FEEF
:1022C4002244B240924417450000034575E4814519
:1022D4004101178302E0670003C7E37A85FAB70771
:1022E400C0A833848740229565B7B2402244924403
:1022F4004101828097470000938707E69843B757C8
:1023040002009387079F8326070913965600635894
:102314000600832607091396660063440600FD172A
:10232400FDF3828071C5AA870145E9C58D07C207FF
:10233400C183F19BC207C18313074003636FF70294
:1023440017470000130747E7084317470000130720
:1023540027E614436398A60217470000130787BDB6
:10236400185B014541CB4111C20706C60545DD8D09
:102374000297B240014541018280174700001307CC
:1023840067E3D9B70357650035E303574500636F27
:10239400F704B306F7402146637CD6020328050000
:1023A400938687001D8FAA9661171746000003566F
:1023B40046B32392E60023A006012393060014C12A
:1023C4002312F500130786FF97460000239BE6B00F
:1023D4002313B5009745000083D5A5B0B387F54016
:1023E40017470000231FF7AE2105828008419DB7DF
:1023F4000145828082800DC1974700009387C7DB27
:1024040003A3070097470000938787DA83A8070090
:1024140081469A8763E31701828003A80700636DEE
:10242400F50A636BA80A13878700E367E5FE03D602
:102434006700216705076317E60003C7C195050711
:10244400238EE19497450000938545A903D6470060
:1024540003D765002393070032974207418317454A
:1024640000002310E5A8638A6702174500001305DE
:1024740065D408416303F50203D5660019ED83D7DB
:10248400460023A0060121073E9621062392C6009A
:10249400974700002397E7A4B6879843E30E17F7FE
:1024A40097460000938606D19442E307D7F68356F5
:1024B4006700BDF283D64700035647001843A106C0
:1024C400B2962392D70098C383D76500A107174714
:1024D40000002318F7A08280BE86C28725BF0111A1
:1024E40097470000938787CD22CC03A4C70B26CA45
:1024F4004AC84EC606CEAA8413092500854915C0CC
:1025040083C7140003473400858B6304F700405CE1
:10251400FDB71946930544004A85EFE01F89E31887
:1025240035FF2285F2406244D2444249B2490561F2
:102534008280411197470000938747C822C403A4AF
:10254400C70B26C24AC006C693042500054901E804
:102554002285B24022449244024941018280A685E8
:102564001305A402972003E0E780A0A3E30225FF5C
:10257400405CF1BF411197470000938727C422C4F0
:1025840003A4C70B26C24AC006C693042500054906
:1025940001E82285B24022449244024941018280EA
:1025A400A6851305A401972003E0E780809FE3023A
:0825B40025FF405CF1BF0000AF
:1025C00097110020938181B117610020130181A32D
:1025D0001305400097E5FF1F9385C5A2170600204D
:1025E0001306C6FD63FAC5008322050023A055002B
:1025F00011059105E3EAC5FE17D503001305455102
:1026000097050020938585FB1386818463FAC500B6
:102610008322050023A0550011059105E3EAC5FEBC
:102620001385818497450020938545CB6377B5005A
:10263000232005001105E36DB5FEFD42739002BC39
:102640008D4273904280B72200009382828873A0EB
:10265000023097E2FF1F9382E29A93E23200739076
:10266000523097E200009382027A73901234730022
:1026700020303D432A876373C3029377F700BDEF91
:10268000ADE5937606FF3D8ABA960CC34CC30CC7E2
:102690004CC74107E36BD7FE11E28280B306C3400B
:1026A0008A069702000096966780A6002307B70067
:1026B000A306B7002306B700A305B7002305B7009C
:1026C000A304B7002304B700A303B7002303B70094
:1026D000A302B7002302B700A301B7002301B7008C
:1026E000A300B7002300B700828093F5F50F9396FF
:1026F0008500D58D93960501D58D61B793962700FA
:102700009702000096968682E78086FA9680C11727
:102710001D8F3E96E374C3F8A5B73367B500FD532C
:102720000D8B79E7B7877F7F9387F7F71041944147
:10273000B372F6003363F600BE92B3E262006397B1
:10274000720C6318D6065041D441B372F60033635D
:10275000F600BE92B3E262006398720A631BD6046D
:1027600010459445B372F6003363F600BE92B3E2AF
:1027700062006391720A631ED6025045D445B3725B
:10278000F6003363F600BE92B3E26200639A720809
:102790006311D60210499449B372F6003363F60010
:1027A000BE92B3E26200639372085105D105E30F54
:1027B000D6F61317060193970601631CF70013570B
:1027C000060193D706013305F7409375F50F91E99C
:1027D00082804183C1833305F7409375F50F91E102
:1027E00082801377F70F93F7F70F3305F740828056
:1027F0000346050083C60500050585056313D6005D
:1028000065FA3305D640828011059105E312D6FEA4
:10281000014582802105A105E31CD6FC014582808B
:102820003105B105E316D6FC014582804105C1059D
:10283000E310D6FC01458280014711464148B3862A
:10284000E5008147B308F50083C808008507C10685
:1028500023A816FFE398C7FE11071105E31107FF30
:102860008280935785019CC19357054193F7F70FD9
:10287000DCC19357854093F7F70F1375F50F9CC58F
:10288000C8C582801C414111130705013EC05C414F
:102890003EC21C453EC45C453EC6939725001408C5
:1028A000B69783A707FF85051105232EF5FE8D89B1
:1028B000E315E5FE41018280397122DC4166138413
:1028C000819D06DE26DA4AD84ED652D456D25AD048
:1028D0005ECE93050501A2863708FF007D168307AB
:1028E0000500034735001105E207D98F0307D5FF1F
:1028F0009106420733770701D98F0307E5FF2207C7
:10290000718FD98F23AEF6FEE39BA5FC81499144DC
:10291000930A0101179B0300130BCB86979B0300BF
:10292000938BCB83130AC00293F73400032904006E
:102930004844BDE78A85353785450A85A1370A872A
:102940001C43110793F6F70093F7070FDA97B69732
:1029500083C70700232EF7FEE394EAFE0245924761
:102960006205C2075D8DB2475D8DA247A2075D8DEE
:1029700093972900DE979C4385093D8D33452501BA
:1029800008C885041104E39144FBF2506254D25408
:102990004259B259225A925A025BF24B216182800B
:1029A0003345A90008C8F1BF797122D426D24AD094
:1029B0004ECE52CC56CA06D62A8A93994500014477
:1029C000938A819D13090101C144B3073401D6974D
:1029D00088438A85793533078A008A871443904370
:1029E00091074107B18E2328D7FEE39927FF1104F1
:1029F000E31D94FCB250225492540259F249624AA7
:102A0000D24A45618280397122DC1304050106DE59
:102A100022878147C1460C433306F10011070CC2DF
:102A20004C4710083E960CC24C4F10103E960CC2FC
:102A30009107E392D7FE85450A85A935894508089F
:102A400091358D4508103D3D81474147B306F10062
:102A500094421104232ED4FE1408BE96944254C40A
:102A60001410BE969442910754CCE391E7FEF250C5
:102A700062542161828006059377051089C713751A
:102A8000F50F1345B5018280411106C6ED37B240FE
:102A90004101D5B781471148C1483386F500B306D7
:102AA000F500014703AE06003303E60005072300E7
:102AB000C301C106E31807FF9107E39017FF828067
:102AC00093060501178603001306C66B130505055B
:102AD000138706FF1C43110793F5F70093F7070FC1
:102AE000B297AE9783C70700232EF7FEE394E6FE66
:102AF000C106E31FD5FC8280411122C406C626C24E
:102B000085472E846301F50289476318F500224446
:102B1000B24092442E854101B9BF8D47631BF50039
:102B20002E85913F298C2285B24022449244410156
:102B30008280A5476315F5002E85B937DDB7AD470F
:102B4000631AF5002E8589373D37AA8422852537FB
:102B5000258DC9BFB5476316F5002E853537AA8484
:102B6000FDB7B947E311F5FC2E85393FAA8421371B
:102B7000A98C228509373344950075B76382051403
:102B800093F7F500639E07121571D6C3AA8A3285A2
:102B9000A2CDA6CB86CFCAC9CEC7D2C5DAC15EDF69
:102BA00062DD66DB6AD96ED73284AE84EF40737E15
:102BB000C147631EF500228501330149130A01064E
:102BC000978B0300938B0B70294C63419902FE4055
:102BD0006E44DE444E49BE492E4A9E4A0E4BFA5B75
:102BE0006A5CDA5C4A5DBA5D2D618280338B2A01B2
:102BF0000C105A859131814508107D3385490810A4
:102C0000C135081009351C10D2863E871043410794
:102C1000C10623A8C6FE032647FF23AAC6FE032635
:102C200087FF23ACC6FE0326C7FF23AEC6FEE31F05
:102C3000EAFC178703001307E76403280700832DC6
:102C40004700032D8700832CC70052841386070199
:102C50000C4042853ECE3ACC32CA42C8713D0C4847
:102C60002AC66E85513DB2460C501104A98E6A8564
:102C700036C65935B2464C54A98E668536C6AD3D2A
:102C8000B246F2475246358D88C3910742486247A3
:102C9000E310F6FC4107B287E391EBFACE8508100A
:102CA00085091933E39D89F50810193D0810A13BEA
:102CB000A9450810D539DA850810E93B410931B733
:102CC00082809307F00F6384F60A2D71232A9110F6
:102CD00023282111B28423263111130600102E89D6
:102CE000AA89930530020A85232E1110232C811006
:102CF00036844132A2852685EFA0F0461317850061
:102D0000935785003365F7002310A100A68522861E
:102D100013053100930434002301810093F4F40F70
:102D2000EF40031093F6F40089C64D04158C93749C
:102D3000F40F1C02A697A6850A85178603001306C2
:102D40006658238007F01D3D26868A854E85EF4014
:102D5000230D230099008320C111032481118324B2
:102D60004111032901118329C110156182808280DC
:102D7000411106C6EF70801FB240AA861787030074
:102D80001307475A17160020130696FE978503006F
:102D90009385C55A114541016FA07055130101DBA0
:102DA0002324812423202125232611242322912436
:102DB000232E3123232C4123232A5123232861232B
:102DC00003470500930710042A892E846317F762CE
:102DD00003471500930740056311F7620347250079
:102DE0009307E005631BF7602E86AA852545EFA0B3
:102DF000B0451306D003A2854A85EFA0905CAA8453
:102E0000635A05003546A2854A85EFA0905BAA84E7
:102E1000634405089389D4FF9307100363CE3707F3
:102E20004E86930539002808EF40935A1C1CBE9922
:102E3000178A0300130A0A7D238409DED28A814996
:102E40004D4B83254A002808EFA070510DC18E0913
:102E5000D69983D709004947636FF70017870300A6
:102E6000130787478A07BA979C43BA9782878509D1
:102E7000210AE39869FD978503009385E577CDA83E
:102E80009305F4FF858D13851400C2058146014624
:102E9000C1814A95EF2010558320C1240324812449
:102EA00083244124032901248329C123032A812364
:102EB000832A4123032B012313010125828013065A
:102EC000F4FF058E9385140042064182CA95E800FE
:102ED000EFA070771305D104EF40B34B93150501B4
:102EE000C1811305D104EFB0600497850300938579
:102EF00025461305D104EFA0904619CD9785030010
:102F0000938585450545EFA0D02917150020034579
:102F1000E575EF50201849B797850300938505455F
:102F20001305D104EFA0B04319CD97850300938515
:102F300065440545EFA0F0261715002003450573ED
:102F4000EF50001891BF978503009385A5431305A3
:102F5000D104EFA0D0400DC1371700408327C70A26
:102F6000A1669785030093856542D58F2326F70ACE
:102F70002545EFA010230DB7978503009385C54124
:102F80001305D104EFA0B03D11CD371700408327C2
:102F9000870AA1669785030093858540D58F2324F2
:102FA000F70AF9B797850300938505401305D10407
:102FB000EFA0F03A11CD371700408327C70A91667A
:102FC000978503009385053FD58F2326F70A4DB7D4
:102FD000978503009385053F1305D104EFA0303892
:102FE00011CD371700408327870A91669785030024
:102FF0009385053ED58F2324F70A9DBF978503004F
:103000009385053E1305D104EFA070359785030025
:103010009385C53D31FD978503009385E53D1305F7
:10302000D104EFA0D033978503009385A53D29F106
:10303000978503009385C53D1305D104EFA0303279
:1030400011C59717002023A10764B9B59785030020
:103050009385C53C1305D104EFA0703001C5EF5036
:10306000E07C1DBD978503009385053C1305D104C5
:10307000EFA0F02E01C5EF50900239BD97850300F7
:103080009385453B1305D104EFA0702D01C5EF508A
:10309000604119B5978503009385853A1305D104DE
:1030A000EFA0F02B01C5EF707074FDB3978503009E
:1030B000938585391305D104EFA0702A01C5EF70FF
:1030C0005073D9BB97850300938585381305D104C8
:1030D000EFA0F02801C5EF7030727DBB97A503000B
:1030E0009385C5781305D104EFA0702701C5EFA023
:1030F000E0065DB397850300938545361305D1043B
:10310000EFA0F02501C5EF70707579B397850300C6
:10311000938545351305D104EFA0702401C5EF80D8
:1031200060099DBB0346D104A547130606FD13762F
:10313000F60FE3E3C7D6971700202381C75497857E
:1031400003009385E532EFA0901AB9B31306F4FF9C
:10315000058E1385140042064182979503009385DE
:10316000A5DB4A95EFA05033171400201304444FF9
:1031700029C183570400978503009385A530E80093
:1031800093E7170017170020231CF74CEF40531F3D
:10319000E800EF40132013160501EC00418213856F
:1031A0004158EF706076978503009385652F114530
:1031B000C9B3978503009385652FE800EF40531C42
:1031C000E800EF40131D13160501EC004182138542
:1031D0004158EF706073835704009785030093850F
:1031E000A52EF99B17170020231CF746C9B74936AF
:1031F00065B11306F4FF058E138514004206418263
:1032000097950300938545D14A95EFA0F0281714B0
:1032100000201304E44431C5978503009385852B72
:10322000E800EF40F315E800EF40B3161316050170
:103230004182EC0013854158EF70006D97850300C3
:103240009385052C1145EFA0C075835704004145B7
:1032500093E71700171700202314F740EFB0402919
:1032600025B9978503009385652A1145EFA0607302
:1032700041657D15EFB0A02A83570400F99B17170D
:103280000020231FF73C09B9EF60F04B971700208F
:103290009387073DC85FEF30D30CAE862A869785AB
:1032A0000300938565271145EFA07004F5B6EF5034
:1032B0000008DDB617960300130686C6978503003F
:1032C00093854526114541B5EF60D04D97850300A4
:1032D00093850526E31D05EC978503009385452618
:1032E000F9B53545EF70B045AA84EF3093072A86CB
:1032F000AE862545978503009385C525EFA0207FE1
:1033000097870300938787048843A68517140020B6
:103310001304049CEF30831A2322A428EF60705317
:1033200003254428EF30F303AE862A8697850300F1
:10333000938505238DBF81450D45EF50E03BEF6040
:1033400030422A869785030093854524A5BF814591
:103350003145EF50603A81453945EF50E0398145BC
:103360003545EF506039EF6010402AC6EF6070407D
:10337000B2462A87171600201306969F97850300EA
:103380009385C5211145EFA0807639B61717002027
:103390000357E7BB971600209386D69E171600208A
:1033A0001306169D9785030093858521E1BF854708
:1033B000171700202309F7BAEF60B049978503007B
:1033C00093854521EDB3171700200347C7B98547FB
:1033D0009785030093858520E31BF7DCC5B7971716
:1033E00000209387E727885FEF30A377AE862A8691
:1033F000978503009385051F7DB50146A2854A8503
:10340000EF50601251BC411122C421649305048025
:1034100099460146254506C697D0FF1FE78080598B
:10342000930504802244B24099461386818429453D
:10343000410117D3FF1F6700E35799E101458280DF
:1034400075DD011152C403DAC18426CA93548A007F
:103450008504A204C204C18056C2B38A4441C20A90
:1034600022CC4AC82E862E842A899785030093850C
:10347000253D254593DA0A014EC606CE93898184FF
:10348000EFA0E06663ED8A0883D5C18493F7F50F5A
:10349000B1CF8D6783D5C18493870780A2864A8682
:1034A000BE95294597D0FF1FE780C0501375F50FD3
:1034B00029ED83D749001566A2972396F18403D797
:1034C000C18483D7A1846309F70063F3E700B2974F
:1034D000998F1396070141822545978503009385AF
:1034E000A537EFA0C0601375F40F0DA08D6793870B
:1034F0000780930600100146BE95254597D0FF1F13
:10350000E780404B1375F50F49D50145F240624401
:10351000D2444249B249224A924A05618280B307A5
:103520009440D297C207C183A18303C7490085078E
:1035300093F7F70F9396870011EB93861700937418
:103540000AF0A206C204C206C180C18283D7A18448
:1035500063F6F40033879600E3C9E7FA0D6A130AAD
:103560000A800146B3854401254597D0FF1FE780B7
:1035700060441375F50F51F983D5C184A2864A863C
:10358000D29505B7411122C41384818422858145D7
:10359000194606C697D0FF1FE780E07B9307B0FA75
:1035A0002300F4008D352244B240978503009385B3
:1035B000A521254541016FA0C03EA1654111994655
:1035C00013868184938505802D4506C697D0FF1FFD
:1035D000E780403E03C781849307B00A6303F70086
:1035E0005537B24083D6C18403D6A18497850300A2
:1035F0009385451E254541016FA0604F83D781A863
:103600000145638C071003D5A1A86366F50023A4C8
:1036100001A8014582803385A740D1473355F50283
:103620001375F50F01E5239401A88280130101BDF4
:103630002324814223261142232291422320214325
:10364000232E3141232C4141232A514195471374A4
:10365000F50F63F3A7001544228697850300938531
:1036600065212545EFA0A048014981449389C1A85F
:10367000514AA14A9377F90F03D5A1A81707002053
:103680000347D77C63E98704D1473304F4022A94C3
:10369000239581A8A147631CF706A6850808EF308B
:1036A000505303D7A1A883D781A805456364F700C9
:1036B00023A401A88320C1420324814283244142E0
:1036C000032901428329C141032A8141832A4141BF
:1036D000130101438280B30749031408AA97CE97C8
:1036E00033859600631E5701BE85EF30106E231799
:1036F000A1008357E1000509BE94C204C1809DBFAB
:10370000AA851306E1003E85EF80E063DDB72686DB
:103710000C080145EF60E06969B78280011106CEAF
:1037200022CC26CA4AC84EC691E901442285F240FD
:103730006244D2444249B24905618280AA8975D562
:1037400083D7C18403D6A1842E849564638AC7007D
:103750006374F60015673A961D8E93140601C180B6
:10376000268697850300938525032545EFA02038FD
:10377000938714F06356F4009307F00F63EA970001
:10378000978503009385C5022545EFA0403671BF9C
:1037900083D4C18433878400956763C7E700A2851B
:1037A0004E8561398D3159B7156933099940420900
:1037B00013590901CA854E85493125D9ED75A6955C
:1037C000A295C20523960184C18133852901D1BF09
:1037D00083D681A881EA978503009385E503254573
:1037E0006FA0201C03D6A1A84111918E97850300DC
:1037F00093858503254506C6EFA0602F138781A812
:103800008355070083D7A1A81385C1A89D8DC20544
:103810003E95C1812137B24023A401A84101828095
:10382000411183D781A822C426C206C6AE971307CA
:10383000401FAA842E84635AF700593F97850300DE
:10384000938545FB2545EFA0C01583D781A8138537
:10385000C1A82286A6853E95EF30835C03D681A859
:10386000229642062244B240924441822394C1A847
:1038700097850300938585F9254541016FA0202791
:10388000011126CA06CE22CC4AC84EC652C456C220
:10389000814459C1D1C183D7A18403D4C184638D2C
:1038A000870663F587081D8C42044180AE892A890A
:1038B0002286978503009385A5EA0145EFA0202382
:1038C000A28463F38900CE84C2040D6A83D7A184E5
:1038D00003D7C184C180938A8184130A0A8063FA62
:1038E000E704A6864A86B38547012D4597D0FF1F7A
:1038F000E780400C83D72A00A6972395F184EFF048
:103900009FB083D6C18403D6A18497850300938595
:1039100065E62545EFA0A01DF24062442685424998
:10392000D244B249224A924A0561828015673A948C
:103930009DBF15671D8FB385470163D5E400A6863B
:103940004A8665B79569B389F9406D743E94C2099A
:1039500093D909012694CE864A8642042D4597D0F4
:10396000FF1FE78020054180A28633063901D285FA
:103970002D452395018497D0FF1FE780A00383D7AF
:103980002A003E94239581849DBF18419387010CA2
:10399000104598C303574500544590C72392E7004C
:1039A00058551049D4C7544998CF9785030093853B
:1039B00025F40547254590CBD4CB238EE7006F90A7
:1039C000507E397126DA4AD84ED652D456D25AD0C1
:1039D00006DE22DC62CE66CC2A89EF40831B93741C
:1039E000F50F8149254BE54A178A0300130A0AEAB5
:1039F00091ECF25062544E85D2544259B259225A37
:103A0000925A025B724CE24C2161828003470900AA
:103A1000930707FD93F7F70F637CFB009307F7F914
:103A200093F7F70F63E2FA06930797FA93F7F70F06
:103A3000139487016184FD14230089002685EF20FB
:103A4000531A2A86AE8603250A0083254A0093F47A
:103A5000F40F0509EFD0F05E2AC422852EC6EF20B0
:103A600053182246B246EF1073482A8C4E85AE8C0E
:103A7000EF20531E2A86AE866285E685EF00F35B53
:103A8000EF207310AA89ADB79306F7FB93F6F60FF4
:103A90008147E3EFDAF8930797FC49BF411122C44D
:103AA00006C6830795022A8499C713059502EF304D
:103AB0006334238DA1068307D41291CB1305D4124E
:103AC000EF30E332EF30A31493878104C8D3B240C0
:103AD000224441018280011126CA9304150022CCA0
:103AE00097850300938585E42A84268506CE4AC8F7
:103AF0004EC6EFA0C00E631E051097850300938588
:103B000025E32685EFA0A00D6302050E85448307FB
:103B1000D4036386070C13059402EF30A32D854967
:103B20001379F50F1305D4036387340F8947638C2A
:103B3000F418EF30232CA38EA106631A39017946BD
:103B400081451385F10923870184EFE09FB2830744
:103B5000D40885C31305D408EF30C32903C7E18413
:103B6000930717002387F18493878104BA97A38B67
:103B7000A7048307D40D85C31305D40DEF30832725
:103B800003C7E184930717002387F1849387810497
:103B9000BA97A38BA7048307D41285C31305D41245
:103BA000EF30432503C7E184930717002387F1848F
:103BB00093878104BA97A38BA7048307D41785C37F
:103BC0001305D417EF30032303C7E18493071700CD
:103BD0002387F18493878104BA97A38BA704F240CB
:103BE0006244D2444249B24905618280978503000C
:103BF000938545D42685EF90907EE31905F02685C0
:103C000097850300938545D3EF90707D8944E31039
:103C100005F08144EDBDEF30E31D238FA106631A4B
:103C20009900794681451385110823870184EFE0C7
:103C30005FA48307D40885C31305D408EF30831B22
:103C400003C7E184930717002387F18493878104D6
:103C5000BA97A38CA7028307D40D85C31305D40D8F
:103C6000EF30431903C7E184930717002387F184DA
:103C700093878104BA97A38CA7028307D41285C3C4
:103C80001305D412EF30031703C7E184930717001D
:103C90002387F18493878104BA97A38CA7028307B3
:103CA000D417E38E07F21305D417EF30A31403C71C
:103CB000E184930717002387F18493878104BA97DF
:103CC000A38CA70229BFEF30E312A38FA10601BF87
:103CD000411122C406C6830795072A8499C7130594
:103CE0009507EF302311A38DA1068307D40899C748
:103CF0001305D408EF300310238EA1068307540B5D
:103D000091CB1305540BEF30830EEF205370938744
:103D1000810488D7B240224441018280011126CA21
:103D20008146B284014652C456C206CE22CC4AC84D
:103D30004EC62A8AAE8AEF10837E41CD9307E004F7
:103D40006386F400930730056395F40897890300B0
:103D50009389C9BB03A6090083A649005285D6856D
:103D6000EF10D31837949800EF20E3611304046830
:103D70002A8933758502EF20E36D03A6090083A627
:103D80004900EF10831E978703009387A7B89043DD
:103D9000D443EF10831D2A8A33558902AE8AEF205F
:103DA000636B2A86AE865285D685EF0013291307EA
:103DB0003005AE876395E400B7070080AD8FF24011
:103DC0006244D2444249B249224A924ABE850561C0
:103DD000828001458147E5B7011126CA8146B28438
:103DE000014652C456C206CE22CC4AC84EC62A8AC2
:103DF000AE8AEF10C37241CD930750046386F4007E
:103E0000930770056395F40897890300938909B0B7
:103E100003A6090083A649005285D685EF10130D2D
:103E200037949800EF202356130404682A893375C9
:103E30008502EF20236203A6090083A64900EF1044
:103E4000C312978703009387E7AC9043D443EF10E6
:103E5000C3112A8A33558902AE8AEF20A35F2A86CE
:103E6000AE865285D685EF00531D13077005AE87C9
:103E70006395E400B7070080AD8FF2406244D244FE
:103E80004249B249224A924ABE8505618280014573
:103E90008147E5B7135785009357050113D885006F
:103EA0009376F50F01111377F70F93F7F70F6185ED
:103EB00093F5F50F1378F80F99C211C3B9E3230CEA
:103EC000D100A30CE100230DF100A30DA1000345D7
:103ED0009101834781010347A1012205A30E01013E
:103EE0004207C98F230EB1000345B101D98F0347A3
:103EF000D1018345C101620522075D8DD98D056120
:103F0000828032951375F50F131385011353834186
:103F10005D466357660861463363C30285071376BF
:103F2000D70F114593F7F70F6305A6002545631AD0
:103F3000A6007946637FF60205071377F70F8547DA
:103F40000DA809466312C7041386067D9308400630
:103F5000B36816036385080013F5360011C5130511
:103F600000193366A60219EE75466374F60085479C
:103F70000D47230CD100A30CE100230DF100A30D8C
:103F80006100B1B77146D5B77D46E374F6FEB1471F
:103F9000E314F7FA850693F6F60F85470547D1BF78
:103FA000E35903FC6105FD171313850193F7F70F20
:103FB00013538341DDFF7D171377F70F1146F94740
:103FC000E309C7FA1946E306C7FA2546E303C7FA29
:103FD0002D46E300C7FA89476316F7021386067D6C
:103FE00093074006B367F60291C793F83600F5478A
:103FF000E38108F893070019B367F60293B7170037
:10400000F10785BFFD4735F7FD1693F6F60F3147EB
:104010008DB783471500034705000111A2075D8F87
:10402000834725008346350006CEC207D98F034754
:1040300055008345450017060020130666C9030690
:104040004626E206220733E5F600D98DA13513583E
:1040500085001356050193D7850013F7F50F93F7E5
:10406000F70F935685011376F60F9375F80F1375B6
:10407000F50FEF7080049707002083C777C50547C9
:104080006385E70011476396E700F24005616F60C2
:10409000505AF240056182804971232481161384AD
:1040A00081048307340083C8D10403C8C10403C753
:1040B000A10483C6910403C68104978503009385F8
:1040C000A58D48102326111623229116232021178F
:1040D000232E3115EF3073264810EF30932B1848FC
:1040E0005C48030604033AC03EC2030814035C4460
:1040F00018445410978503009385058C3695EF304E
:10410000D3234810EF30F3285C103E9583076400FA
:10411000178603001306C68789C717860300130690
:10412000A686978503009385254CEF301321481010
:10413000EF303326544C104C5C1097850300938568
:10414000A5883E95EF30731F4810EF309324030687
:1041500034035C103E95978503009385A587EF3067
:10416000D31D4810EF30F32203072403AA844850DC
:104170003ACE13848104EF20D31E72475C10AE86C2
:104180002A86978503009385E58533859700EF3070
:10419000D31A4810EF30F31F5C1003C6C107978590
:1041A00003009385A5853E95EF3033194810EF3015
:1041B000531E5C1097850300938545853E95EF302F
:1041C000331C13896106A2849789030093894941AE
:1041D00003C6740519CA481032CEEF30931B7246DD
:1041E0005C10CE853E95EF3053158504E39224FF95
:1041F0004810EF30131A5C10978503009385858172
:104200003E95EF30F317978403009384643D034693
:10421000940319CA481032CEEF30B31772465C10BF
:10422000A6853E95EF3073110504E31224FF4C1070
:104230002545EF9000778320C1160324811683243F
:104240004116032901168329C11575618280411128
:1042500022C406C626C2830755012A84B9C7A946C7
:10426000938707FDB387D70203476501130707FD4F
:10427000BA97A385F10403077501834785011307E6
:1042800007FD3307D702938707FD3E972386E10496
:10429000830795010347A501938707FDB387D702DD
:1042A000130707FDBA97A386F1048307940281CB15
:1042B00013071004639BE71E85472387F1048307D8
:1042C000D4039384810499C71305D403EF203332B8
:1042D00088C4CCC40306140509CA8844CC44238C82
:1042E000C106EFF0BFA388C4CCC48307540699C7A6
:1042F00013055406EF20B32F88C8CCC803069407D3
:1043000009CA8848CC48A38CC106EFF0FFAC88C826
:10431000CCC88307D40899CF1305D408EF20332DD8
:1043200097770300938787619043D443EF10033C52
:1043300088CCCCCC8307140A99C71305140AEF2044
:10434000732B2394A1068307540BB9C7A9469387FF
:1043500007FDB387D7020347640B130707FDBA971E
:104360002385F1040307740B8347840B130707FDB0
:104370003307D702938707FD3E97A384E1048307A1
:10438000940B0347A40B938707FDB387D70213074A
:1043900007FDBA972384F104838734000567130768
:1043A00007E1B387E7029306C00303C7C1041704FC
:1043B00000201304E42A3307D702BA9703C7D104B5
:1043C000BA9723AAF10683570400A18BA1EF0387B4
:1043D000640085476318F704977503009385855635
:1043E0002545EF90005C83C7A1048DCF83873400FF
:1043F00095CB83C7C1049DC783C7D10485C78357A5
:1044000004001385810493E7870017070020231910
:10441000F724EFF01FC0977503009385A554254539
:10442000EF90205883876400C1C78844CC4401467C
:104430008146EF10C30E2DCD8848CC4801468146F9
:10444000EF10E30D35C583C7A104BDC31306800774
:1044500093858104138501FDEF20931C03C501C8DA
:104460009D4705053365F502130680079385810492
:104470002380A1C8930780073305F502938781C87D
:104480003E95EF20F319EFF03FC15C542244B24057
:10449000924417070020232FF71E1306800781453B
:1044A0001385810441016FE0CF9C2387010401BD86
:1044B0002387010465B70171232C811E232A911ED5
:1044C0001306101E2A84AE8468008145232E111E17
:1044D0002328211FEFE0EF998145814701470146DD
:1044E0005148CD485D436340960899C12306F100C9
:1044F0001306A002A6852285EF90A06C8347C10019
:1045000051473386A440B387E7029305150078002E
:104510007D16A29585073305F700EF20731013066B
:10452000A002A685228503491400EF90806989477F
:1045300063C3A7080345C100D1473305F5027C00DA
:1045400005053E95EFF0EFC7631CA9041946977562
:1045500003009385A53C1305D100EF90E07325C5BA
:104560006800F53135A8B306C40003C506009306FC
:1045700065FD93F6D60F91EA850793F7F70F636110
:10458000F302854501470506B9BFB3860703130E3D
:10459000011FF296BA96A38EA6E00507E3D5E8FEC2
:1045A0008320C11F0324811F8324411F0329011F6E
:1045B0001301012082803307F400034707008507B9
:1045C0003349E900B5B7194697750300938545351A
:1045D0001305D100EF90406C0DED1946977503005F
:1045E000938545341305D100EF90006B19ED194602
:1045F00097750300938545331305D100EF90C0698B
:1046000045D16800EFF02FCD61BF6800EFF04FECAF
:1046100041BF6800EFF08FC861B7757122C526C32E
:104620004AC1CEDED2DCD6DADAD806C7AA892E890C
:10463000814401448147130A4002854A354B139750
:1046400004014183636C2701BA402A449A440A4911
:10465000F659665AD65A465B49618280338799007B
:104660000347070063004703639C5701631D67010D
:104670009C18A297A2856800238E07F82D3D8147DC
:10468000850475BF01449C18A29705041374F40FA8
:10469000238EE7F893373406E5B7411106C6138534
:1046A00001C883470500130780078145B387E702E8
:1046B00013068007A1073E95EFD0BFFBB2408145AE
:1046C000114541016F90505C138501C88347050077
:1046D00013078007B387E702A1073E958280138501
:1046E00001FD82809707002083C707F881CF9707D5
:1046F000002083D74784FD17C207C1831307A00397
:104700006375F70023A80184828031714ED79389A5
:10471000018583A7090056D3938A01C8850722DD46
:1047200026DB52D55AD15ECF62CD66CB6AC906DF91
:104730004AD96EC723A8F18483C401C8014A130C67
:1047400080075684977C0300938CCC14054D9D4BB9
:10475000154B3389840356998307E900E1CF03A6FB
:104760000C0083A64C000325090283254902EF00B3
:10477000936C6341050C83470904638DA70B931762
:104780001A001808BA97035789022390E7003C00E3
:10479000D29723809700050A9904B3E47403E31ABF
:1047A0006AFB0357810183570101998F13D7F741A2
:1047B000B98F998F939407011307400BC1806358F9
:1047C000F70093078016B3849740C204C180268601
:1047D000977503009385050F6808EF3003366C0862
:1047E0002545EF90001C938714FFC207C1837947CA
:1047F000636EF70803499100130A80078545014558
:1048000033094903210922994A86EF70B022834473
:10481000B10085450145B3844403A104A2942686D2
:10482000EF705021CA850D45EF20705CA6850D45BF
:10483000EF20F05B83A7090017F7FF1F0357A76F4F
:1048400063E7E70203C501C89304800733059502B7
:10485000B30DA4008387ED0099CB83C7C10D1389E5
:10486000010C6397070E21052295EFF00F92FA5085
:104870006A54DA544A59BA592A5A9A5A0A5BFA4B74
:104880006A4CDA4C4A4DBA4D296182809307D002B6
:10489000E3F297FA834B8100930A80078545B38B37
:1048A0005B030145138C8B00229C6286EF7090188D
:1048B000034B910085450145330B5B03A29B210B04
:1048C000229B5A86EF701017034AA10085450145C7
:1048D000330A5A03210A229A5286EF70B01503490F
:1048E000B1008545014533095903210922994A86BA
:1048F000EF7050148344C10085450145B3845403CF
:10490000A104A2942686EF70F012E2850D45EF20F7
:10491000104EDA850D45EF20904DD2850D45EF20E4
:10492000104DCA850D45EF20904CA6850D45EF2012
:10493000104C83C701C8B38A570303A74B03A29A3D
:1049400083A74A03E318F7EE85472380FA04DDB511
:10495000177D0300130D8DF403260D0083264D00F3
:1049600003A58D0183A5CD0197790300938989F370
:10497000EF00D35703A6090083A64900EF00E35ECA
:104980002A8BAE8B03260D0083264D0003250901DB
:1049900083254901EF00935503A6090083A649002A
:1049A000EF00A35C2A8AAE8A2A86AE865A85DE8507
:1049B000EF10431F97770300938747EF9043D4434B
:1049C000EF00D352EFC0D0522A8CAE8C5A85DE85D0
:1049D000EFC0F0482A8BAE8B5285D685EFC03048A9
:1049E000032689008326C9002A8AAE8A03A50D0101
:1049F00083A54D01EF10031B03260D0083264D00F8
:104A0000EF00D34E03A6090083A64900EF00E3554B
:104A100097770300938787E99043D443EF00134DC2
:104A2000EFC0104D2A89AE895286D6865A85DE851A
:104A3000EF00D34B4A86CE86EF00534B4A86CE8694
:104A4000EF00D34A2A89AE896286E6866285E685CA
:104A5000EF00D3492A86AE864A85CE85EFF0F25D17
:104A6000EFD08010EFC010522A86AE86EFF0F25CD5
:104A700097770300938707E49043D443EF001347ED
:104A800097770300938787E39043D443EF0013465F
:104A90002A86AE862A89AE896808977503009385B1
:104AA00065E3EF3083096C082545EF80906F17F5BB
:104AB000FF1F0345E52BEF10D3122A86AE864A85E9
:104AC000CE85EF00732CE354A0DA03C601C8330689
:104AD00096028545014521062296EF70A07583C593
:104AE00001C8B38595020D45A105A295EF20303090
:104AF00003C501C83305950221052295EFE0FFE8C3
:104B000023A80184ADB3411106C6EF70507CEF704D
:104B1000904883C781852147639EE70017F7FF1FF1
:104B2000A306F73297F7FF1F23830732B2404101F4
:104B30006F50205297F7FF1FA38A0730C5BF41115E
:104B400006C622C405476303E6042A8419CA094736
:104B5000630DE6048D476307F606B2402244410127
:104B60008280978503009385E50E1145EF80706381
:104B7000A2851145EF80F0622244B2409785030080
:104B80009385050F114541016F80B061F9D69042C0
:104B9000EF5000332244B240014697550000938500
:104BA000A5373D4541016F30402BC5DA2244C8C2CC
:104BB000B24003C5A6002394B60036869545410150
:104BC0006F7040672244B24041016FC0D01F5571E1
:104BD0005810930631021306210293051102930720
:104BE00051021305610286C7EF60601D9707002020
:104BF000938707A783D70700BD9B170700202311C2
:104C0000F7A6EFF07FAC030305039305E00483569A
:104C1000610203471102834721020348310283489E
:104C20004102034E510217A60300130626E663163F
:104C3000B300177603001306668C830E1503130367
:104C40005004032F8500832FC500977503009385BB
:104C5000E58A63866E0097A50300938525E3032309
:104C60000501832345017AC41ACC1ECE7EC672C0CC
:104C70002EC832C2977503009385457517F6FF1F3E
:104C80001306160F2810EF20536BEF70A074281036
:104C9000EF203370938741859043931505019386E8
:104CA000010E2810C181613DBE40696182804111C1
:104CB00006C623AAB18401C61C4223A0F10E97F7B1
:104CC000FF1F83C757018DEB0545EF90305A97754D
:104CD0000300938565E12545EF80B04C97070020E0
:104CE00083D70798B24093E70701170700202319DD
:104CF000F79641016F70406D05470545639CE700DD
:104D0000EF90D0560545EF90A07E977503009385F0
:104D1000E5DED1B7EF9090550545EF90305705454A
:104D2000EF90007D977503009385C5DE6DB7411147
:104D300022C42A848307D40306C626C22E8589C7C7
:104D40001307F0036398E70217F7FF1F130717FF16
:104D500097F6FF1F938676FB17F6FF1F1306D6F70D
:104D600097750300938545E62244B2409244410181
:104D70006F20B35C97F7FF1FA38007F697F7FF1F1D
:104D8000A38507F897F7FF1FA38A07FA03470400D4
:104D90008547AE8463FAE7009305D40317F5FF1F38
:104DA000130595F3EF20D35D8307940791CF034755
:104DB0000400894763FAE7009305940717F5FF1F7E
:104DC0001305B5F4EF20D35B8307540B91CF034752
:104DD00004008D4763FAE7009305540B17F5FF1F96
:104DE0001305D5F5EF20D35901469745000093856B
:104DF00045AB1305C012EF304006EF50802517F782
:104E0000FF1F1307B7F397F6FF1F938616F017F6E9
:104E1000FF1F130676EC97750300938525DD268525
:104E2000A1B7411126C206C622C40347050089471F
:104E3000AE8463F5E7029305D5032A8417F5FF1FB7
:104E4000130585E2EF20D35313059407EF10937AEF
:104E500097F7FF1F239CA7E6EF50201AEF50E01DA5
:104E600017F6FF1F130646E097F6FF1F83D606E6E8
:104E7000977503009385854C2685EF20134C854755
:104E800097F5FF1F9385D5EE17F5FF1F130585DCFA
:104E900017F7FF1FA304F7D2EF20934E97F5FF1FDC
:104EA000938595E317F5FF1F130565D1EF20534D4B
:104EB00097F5FF1F938575E517F5FF1F130545D37C
:104EC000EF20134C97F5FF1F938555E717F5FF1F4C
:104ED000130525D5EF20D34A9765030093858544B4
:104EE00017F5FF1F130565DBEF209349EF50E01026
:104EF0002244B24092440146976500009385C5194B
:104F00001305800241016F205075411122C426C251
:104F10004AC006C68307D503AE8417790300130978
:104F2000690117F4FF1F1304A47389C71307F00363
:104F30006391E70417F5FF1F034575E3EF10634A1C
:104F40000326090083264900EF002302EF10334CAB
:104F500028C0EF101341AE862A869775030093850B
:104F6000E5FD2244B24002492685924441016F206A
:104F7000D33C1305D503EF10F36797F7FF1FA38802
:104F8000A7DE1375F50FEF10C3450326090083262E
:104F90004900EFF0927DEF10934728C0EF50600B6F
:104FA0002840EF10133CAE862A8697750300938540
:104FB000E5FA45BFAA870387D7032E8509C793065D
:104FC000F0036315D70297F7FF1F83C7B7D0177693
:104FD0000300130626F389E717760300130606F38A
:104FE00097750300938505F46F20333541111385C0
:104FF000D70306C622C42E84EF10D35F97F7FF1F96
:10500000A38AA7CCEF50E00497F7FF1F83C797CC84
:1050100097750300938505F089E7977503009385DD
:10502000E5EF22852244B24041016F2073354111E2
:1050300026C206C6AA8422C48387D4032E8589C7C4
:105040001307F0036396E70497F7FF1F83C7B7C8FA
:1050500005476385E70289CB09476386E702B240CB
:10506000224492444101828097750300938545F361
:105070002244B240924441016F209330977503005F
:10508000938585F4F5B7977503009385A5F6CDB79D
:105090009384D4032E84268597750300938585F821
:1050A000EF2053351DC1894717F7FF1FA305F7C22E
:1050B00097750300938545FB2285EF20732C2244CE
:1050C000B240924441016F40D0782685EF10935250
:1050D0001375F50F97F7FF1FA38FA7BE8547977529
:1050E0000300938565F6E309F5FC97750300938546
:1050F000E5F379D18947E30DF5FA17F7FF1FA30C04
:10510000F7BC97750300938565F87DB741112E852F
:1051100097750300938585FF06C6EF207326B2407E
:10512000014697650000938525F71305200341018B
:105130006F20B052411122C426C206C68307D50390
:10514000AE8417F4FF1F1304A4B889C71307F00334
:10515000639BE702830644261776030013060622A4
:1051600063D6060017660300130646392685977531
:1051700003009385E520EF20531C2244B240924463
:1051800041016F80705D1305D503EF10B34697F7AB
:10519000FF1F2381A7DAEF80305C03064426977552
:1051A00003009385A51F2545EF807014834744268F
:1051B0006147B10793F7F70F6377F700A14717F738
:1051C000FF1F2309F7D6EF40D068830644261776E1
:1051D00003001306A61A63D606001766030013061B
:1051E000E6312244B24026859244977503009385A8
:1051F000651B41016F207314797122D49307D1018B
:105200002E8478089306B1011306A101930591013C
:105210001305E10106D626D2EF50703A8348D1013A
:105220000348C1018347B1010347A10183469101AE
:105230000356E10197750300938505BA2285EF2097
:10524000D30F2285EF20F31497F7FF1F9387474171
:10525000CC5703A847030566130606E19306C0036F
:1052600033F3C50222953377D802B378C8023AC027
:105270009C5733F7D502B3D8D8023358C802B35677
:10528000D30233D6C50297750300938525B7EF2067
:10529000D30A2285EF20F30FB304A400EF80602A25
:1052A00017760300130606B309C517760300130625
:1052B00026B297750300938565B82685EF20F3071E
:1052C0002285EF20130D229517F6FF1F0346863D1A
:1052D00097750300938585B7EF203306B2502254AB
:1052E000925445618280AA870387D7032E8509C718
:1052F0009306F0036311D70297F7FF1F83C7C79D7B
:10530000977503009385C58289E797750300938598
:1053100025856F20F30641111385D70322C406C6E5
:105320002E84EF10332D1375F50F97F7FF1F23858C
:10533000A79A17F7FF1F0347B79989476316F70026
:105340000DE91145EF90C01A97F7FF1F83C7C79863
:10535000977503009385458289E7977503009385C8
:10536000E5842285EF20D3012244B24041016F4001
:10537000504E1145EF90A01AC1BFAA870387D703EB
:105380002E8509C79306F003631ED70297F7FF1F08
:1053900083C767940547638DE70089C70947638E14
:1053A000E700828097750300938505876F20437D12
:1053B000977503009385858AD5BF977503009385FC
:1053C000A58FEDB741111385D70322C406C62E84DD
:1053D000EF1053221375F50F97F7FF1F238DA78E3C
:1053E000854797750300938565876306F502977572
:1053F00003009385658205C18947977503009385EE
:10540000A58B630AF50017F7FF1F2306F78C977526
:105410000300938525902285EF2083762244B240B5
:1054200041016F401043AA870387D7032E8509C720
:105430009306F003631CD70017F6FF1F034646933D
:1054400097750300938585A66F20236F41111385FF
:10545000D70306C622C42E84EF10531A97F7FF1FF6
:105460002388A790EF40F03E22852244B24017F6F1
:10547000FF1F0346E68F97750300938565A54101DD
:10548000E1B7411122C439452E84814506C6EF306B
:10549000A026EF40102E2A8622852244B24097751E
:1054A0000300938565A541016F202369411122C442
:1054B0001305D5032E84977503009385259A06C698
:1054C000EF80E07111CD0145EF40B03D97750300CD
:1054D0009385859922852244B24041016F20436A19
:1054E0000545EF40103C977503009385A599DDB7FE
:1054F000411122C42A848307D40306C626C22E85FE
:1055000089C71307F003639CE70297F7FF1F938790
:10551000D79017F7FF1F1307378D97F6FF1F83D616
:10552000A6A217F6FF1F1306168997750300938529
:10553000E5CA2244B240924441016F200360AE8428
:1055400017F5FF1F130535879305D403EF20436339
:105550008307940789CB13059407EF10B30997F7D6
:10556000FF1F2393A79E8307540B89CB9305540BEE
:1055700017F5FF1F13055587EF2083608307140F6E
:1055800089CB9305140F17F5FF1F13051589EF201D
:10559000235FEF40102C97F7FF1F9387178817F7AB
:1055A000FF1F1307778497F6FF1F83D6E69917F638
:1055B000FF1F1306568097750300938565C32685E4
:1055C0008DBF011106CE2EC6EF80F05E854717F71E
:1055D000FF1FA300F796EF40D0273245F2409765B2
:1055E00003009385A57905616F208359011106CECB
:1055F0002EC6EF80B05D97F7FF1FA38C0792EF4098
:1056000050253245F240976503009385A5770561E3
:105610006F200357411122C426C206C68307D50353
:105620002E8497E4FF1F9384A46A89C71307F003AD
:105630006393E70203A50429EF10A3522A8622856B
:105640002244B2409244AE8697750300938585A7A5
:1056500041016F20834E1305D503EF10A379EF00AE
:105660005358977703009387E78C9043D443EFF028
:10567000D20FEF10C35923A8A428EF10834E2A8617
:10568000AE86228597750300938505A6EF20E34A31
:105690002244B240924441016F40B01BAA87038765
:1056A000D7032E8509C79306F003631CD70017F6AE
:1056B000FF1F03564688977503009385A5C56F2085
:1056C000C34741111385D70306C622C42E84EF10A9
:1056D00063721316050197F7FF1F239EA78441826B
:1056E00097750300938545C42285EF20034597E70E
:1056F000FF1F83C7F75D09476388E700F11793F73A
:10570000F70F0547636AF70097F7FF1F83D7A78254
:1057100089EB0945EF80B0602244B24041016F40FF
:105720005013EF80F04B75D517F7FF1F0357A78075
:105730009307B003E3EFE7FC0945EF80705BE9BF37
:10574000797126D206D622D44AD04ECE52CC56CA31
:105750005AC85EC68307D503AE8489C71307F00312
:105760006394E706977503009385059D2685EF20D2
:10577000234117E4FF1F1304A45517E9FF1F130962
:10578000E958177A0300130AAA9A978903009389A4
:10579000E9932685EF20E33F8347742926955286B7
:1057A00099C313067429CE855104EF200339E312FF
:1057B00024FFB250225492540259F249624AD24A0A
:1057C000424BB24B4561828085472A846312F604BE
:1057D000A1C203A906004A85EF20A33B2A8697E5CC
:1057E000FF1F9385157C4A85EF80004B15E12254FD
:1057F000B2500259F249624AD24A424BB24B268514
:105800009254977503009385659445616F204337E3
:105810008307D4031307100493F7F7FD639DE7088C
:1058200017E9FF1F1309C94A22859305440B4A87CC
:105830003A86AA86CD4703C89607FD1793F7F70F58
:10584000A30B062985060506FDF72305072A130580
:10585000C5035107E31EB5FC977503009385C591F9
:105860002685EF20E33117E4FF1F1304244A177A3B
:105870000300130AEA8B97890300938929852685FB
:10588000EF202331834779292695528699C3130641
:105890007929CE855109EF20432AE31224FF2254AF
:1058A000B25092540259F249624AD24A424BB24B28
:1058B00045616F40007A1307400497750300938594
:1058C000E590639EE706130494072285EF20632C7E
:1058D0007D151375F50FC94763EFA70413097029E8
:1058E000014A17EBFF1F130BAB3E977B0300938B13
:1058F000AB89930A302DB3096901A2854E85EF80EB
:10590000002E01CD2685EF20C3284E86DE85269504
:10591000EF20A322054A238009005109E31D59FD08
:10592000E31F0AF62286977503009385E586268590
:10593000EF20A320ADB7977503009385E5872685F3
:10594000EF200324A9BF411122C406C626C24AC0C3
:105950008307D5032E8489C71307F0036395E704F3
:1059600097650300938585422285EF206321228578
:10597000EF20232297E7FF1F83C7B76222951766A0
:1059800003001306E67A89C717E6FF1F1306766140
:105990002244B240924402499775030093850573EF
:1059A00041016F2083198547AA84631DF6029DCAB1
:1059B00003A906004A85EF20C31D2A8697E5FF1F2D
:1059C0009385355E4A85EF80202D09ED228522449E
:1059D000B2409244024997650300938525774101BF
:1059E0006F20031A8387D4031307100493F7F7FD7E
:1059F000639BE7069387940717E7FF1F1307472D5D
:105A00009384C40883C60700850705072309D72C9C
:105A1000E39A97FE976503009385C538228597E73B
:105A2000FF1F238A0758EF20A3152285EF20631656
:105A300097E7FF1F83C7F7562295176603001306E3
:105A4000266F89C717E6FF1F1306B6559775030023
:105A50009385C567EF20630E2244B2409244024909
:105A600041016F40005F1307400497650300938571
:105A7000E5756393E706938494072685EF20631109
:105A80007D151375F50FC94763E4A704A68517E5CF
:105A9000FF1F13051551EF80801401E926869765D5
:105AA00003009385656F228575B72285EF20630E0D
:105AB00017E6FF1F1306F64E976503009385C56C26
:105AC0002295EF20830797E7FF1FA38C074C69B748
:105AD000976503009385452E2285EF20630AADBFAD
