:04C000006F2000337A
:10C004000000000000000000900000202205002035
:10C01400A9BDF9F594000020000000000000000014
:10C02400960000209800002000000000000000009E
:10C034009A000020000000009C0000200000000086
:10C044009E0000201603002044030020A4000020CA
:10C05400A6000020A8000020AA000020AC000020B8
:10C06400AE000020B0000020C60000205A010020CD
:10C074009E050020B8000020BA000020BC0000206B
:10C08400BE000020EE01002082020020C400002037
:10C0940001A001A001A001A001A001A001A001A094
:10C0A40001A001A001A001A001A001A001A001A084
:10C0B40001A001A001A001A001A001A001A001A074
:10C0C40001A001A001A037370040834747009946EB
:10C0D4004111BD8B638CD70231476384E706114756
:10C0E400639EE702A303010017460000034606030C
:10C0F40037370040834771006315F6022C0013851F
:10C10400015F978001E0E780E02709A88347570093
:10C1140093F7F70F2304F100834781004101730073
:10C12400203083477100834687000C08AE97238C28
:10C13400D7FE83477100850793F7F70FA303F10038
:10C1440055BF280097E001E0E78060791375F50F8B
:10C15400A303A1000346710055B737370040834756
:10C16400474099464111BD8B638CD70231476384A4
:10C17400E7061147639EE702A30301001746000088
:10C184000346E6F937370040834771006315F6022A
:10C194002C0013854160978001E0E780A01E09A868
:10C1A4008347574093F7F70F2304F1008347810037
:10C1B40041017300203083477100834687400C0897
:10C1C400AE97238CD7FE83477100850793F7F70F4B
:10C1D400A303F10055BF280097F001E0E780E08158
:10C1E4001375F50FA303A1000346710055B7374734
:10C1F40000408347478099464111BD8B638CD70229
:10C2040031476384E7061147639EE702A3030100F5
:10C2140017460000034696F03747004083477100F5
:10C224006315F6022C0013858161978001E0E78095
:10C23400601509A88347578093F7F70F2304F1008B
:10C244008347810041017300203083477100834696
:10C2540087800C08AE97238CD7FE8347710085072F
:10C2640093F7F70FA303F10055BF280097F001E0FF
:10C27400E780608A1375F50FA303A10003467100DC
:10C2840055B737470040834747C099464111BD8B96
:10C29400638CD70231476384E7061147639EE70244
:10C2A400A303010017460000034626183747004041
:10C2B400834771006315F6022C001385C1629780D1
:10C2C40001E0E780200C09A8834757C093F7F70FD4
:10C2D4002304F10083478100410173002030834728
:10C2E4007100834687C00C08AE97238CD7FE834722
:10C2F4007100850793F7F70FA303F10055BF2800DA
:10C3040097F001E0E780E0921375F50FA303A10015
:10C314000346710055B7411122C6371400408357B4
:10C32400C40913973701635B0700BD45014597D0E6
:10C3340001E0E78080C08567231EF4083244410190
:10C3440073002030411122C6371400408357E4099A
:10C354008357E409139717016359070097D001E045
:10C36400E780C0B59167231FF4083244410173008C
:10C374002030B7170040930670052380D7041307B5
:10C3840080FA2380E7040100010003C6B704137692
:10C39400F60DA385C70423800704137605024DC256
:10C3A40003C6A700118A1DE22380D7042380E70473
:10C3B4000100010003C7A700136747002385E700B6
:10C3C4009307004B01000100FD17EDFFB717004074
:10C3D400930670052380D704130780FA2380E704AB
:10C3E400010001007D892394A700010001000100E0
:10C3F4000100238007042380D7042380E70401007D
:10C404000100010001003727004093061005A30333
:10C41400D78023800704B7170040130770052380D3
:10C42400E704130780FA2380E7040100010003C72F
:10C43400B70413670708A385E704238007048280F1
:10C444001376050441C603C6A700418A1DE2238072
:10C45400D7042380E7040100010003C7A700136782
:10C4640007012385E7009307007D01000100FD1704
:10C47400EDFFB7170040930670052380D704130718
:10C4840080FA2380E704010001001376F5011366A6
:10C4940006042394C7000100010001000100238069
:10C4A40007042380D704130660042380E704631879
:10C4B400C5000100010037270040894689BF0100FB
:10C4C4000100372700409306200591B72380D70445
:10C4D4002380E7040100010003D787001367070CDA
:10C4E4002394E7000DBF4111814601468145114562
:10C4F40006C66922B7170040130770052380E704B6
:10C50400130780FA2380E7040100010003C76704CE
:10C51400136717002383E70423800704B240410113
:10C5240082808146014681451145892AB71700401A
:10C53400930670052380D704130780FA2380E70449
:10C54400010001007D562396C7022380D70423806F
:10C55400E7040100010003C767041367170023837E
:10C56400E7042380070401A0BD473305F502010059
:10C574007D1575FD8280411122C426C206C6AA8497
:10C58400014463179400B2402244924441018280E2
:10C5940005041305803E4204C13F4180DDB7B7174F
:10C5A4000040130700032388E7028547174700006C
:10C5B400232AF7FC73002030411106C6852DFDBFE8
:10C5C4002303048015472303E48001002302A4808D
:10C5D400828083076480E3CE07FE23030480828085
:10C5E40083076480E3CE07FE03454480828083078B
:10C5F4006480E3CE07FE2302A4808280411126C416
:10C604004AC24EC006C61377F50BAD47AA892E89D8
:10C6140095446306F70019456537653F8D444E859B
:10C624004537FD59FD1463983401B240A2441249C0
:10C63400824941018280135509011375F50F453F65
:10C644002209CDB7011126CC06CEB7040800513714
:10C654001545BD37713769372AC6A53F32459377EB
:10C66400150089EB136515001375F50FF240E244CC
:10C6740005618280FD14E9FC0145CDBF397126DCDA
:10C684004ADA4ED852D656D45AD25ED006DE62CE9C
:10C6940066CCB7E700E07D5783AA070022C603AA49
:10C6A400470023A0E71823A2E718B7170040130791
:10C6B40070052380E704130780FA2380E70483C707
:10C6C4004704930B75FFB684E20793FBFB0F854683
:10C6D400AA892E8B328937240040E187015763FAF7
:10C6E40076016308D5008946130700026313D50059
:10C6F4000157D98F93F7F70FB71C00402382FC042E
:10C7040011472303E4801305F00F5D3D094CD13537
:10C71400636D7C11B7050700DA95378707007955F3
:10C7240063F2E504B3879500636EF702370B0800E4
:10C73400A94733EB65016399F90689E48144513DC6
:10C7440026850DA0DA850945553D05090345F9FF00
:10C75400FD14050B693D81C49377FB0FFDF7DD35AF
:10C7640069FD7D55B7170040130770052380E70462
:10C77400130780FA2380E70403C74704418B23820D
:10C78400E704F250B7E700E023A0571123A24711B2
:10C79400E25432445259C259325AA25A125B825B51
:10C7A400724CE24C21618280A5476395F906856944
:10C7B4001309F00FB3069900B3742B01B69413490F
:10C7C400F9FFB3749900856B33796901416B9387E1
:10C7D400F9FFB3F7270199E363FC340193D94900C6
:10C7E400C147E3E637FF99BF0569C1697D19D9B728
:10C7F4001305800D638869011305000263847901C0
:10C8040013051008CA85DD3B353D21DD4E99B384FF
:10C814003441D9B7DA852D45D533CA94E30099F26A
:10C8240005097D3BA30FA9FED5BF9387F9FF93F7B5
:10C83400F70F6361FC0C83C71C0413073008631FE4
:10C84400F70437070800636BEB04B3079B00B706D4
:10C85400100063F5D704334BEB0089476393F90663
:10C864008980D549E38C04ECDA850945413B1109FB
:10C874000327C9FF91472320E48003076480E34E24
:10C8840007FE23033481FD17EDFBFD14110B81C456
:10C894009377FB0FE9FF7D3371F5E1B5B7170040DE
:10C8A40003C75704B70708001377070219E3B787CC
:10C8B40007007955E378FBEA33079B00E3FFE7F8C9
:10C8C40055B58547E382F9F2DA852D45053B938911
:10C8D400F4FFE38504E6293393F7390091EB8326CB
:10C8E40004800327090093074900E39AE6E43E899C
:10C8F400CE84F1BFB5476396F9001305900BC93197
:10C9040035BDB1471305B00AE38BF9FE994763912E
:10C91400F904B7050800B365BB002D45C531814452
:10C924008D4BA149753963967401832704802320B4
:10C93400F9008504E39834FF8327048013172B013F
:10C94400635507002312F900D5BB2322F900FDB378
:10C954009D476399F90281451305B0044531BD44EF
:10C964002320090023220900FD599D3993F77400FF
:10C97400CA9703C70700FD14398D2380A700E396E7
:10C9840034FF6DBBA1476392F9046D398144630D93
:10C994000B008D479304C0036308FB009304000558
:10C9A40063048B01930440041375C507E30895D809
:10C9B4001945393139390545213126850D3909455E
:10C9C4003D314931E31C05D669BB91476399F900B0
:10C9D40013056006F536F53E130590090DB7E38F90
:10C9E40009D4F154A9BB19CD91CD09CE8147338720
:10C9F400F500834607003307F50085072300D700B9
:10CA0400E317F6FE828019C991C909CA910583A763
:10CA1400C5FF11057D16232EF5FEC5BF828001C911
:10CA240019C62A960505A30FB5FEE31DA6FE82804E
:10CA340081473307F5000307070019E33E85828029
:10CA44008507C5BF01112E8626CAAA8413150601BF
:10CA54009305F004418122CC06CE32C6EF108063E8
:10CA64002A8401C53246A685BD3F2285F240624430
:10CA7400D24405618280854715C18DC105C28147B5
:10CA8400B306F5003387F50083C6060003470700A5
:10CA94006398E6008507E315F6FE85473E858280A8
:10CAA4008147EDBF9307F6FFBE952A966313C50031
:10CAB4008280FD1583C715000505A30FF5FEFDB79C
:10CAC400AA87014581CF09CE3E96850703C7F7FFA4
:10CAD4006317B700E39BC7FE05458280828001454A
:10CAE40082807971975700009387877222D480439C
:10CAF40006D626D24AD04ECE52CC56CA5AC85EC6A4
:10CB040062C45DCC37C9C901814B175A0000130AAE
:10CB1400AA74975400009384E46F1309F937975A61
:10CB24000000938AAA69B709C0A8370B40578357F6
:10CB3400240095E35C44639D0B00175700002329F0
:10CB4400F76C032CC4002285EF10E061628499A87D
:10CB540023A6FB00FDB783270A008297838664011E
:10CB64001C4463DB06063307F5406367E9089757FF
:10CB7400000023AD07648355240003450400973067
:10CB840002E0E780E03F5C405844A9CF1444B697E4
:10CB94008386640163C5060063E33701DA971CC426
:10CBA400A28B3A8449F497570000938727619C4BE2
:10CBB40009476378F706F917175700002328F76029
:10CBC400B250225492540259F249624AD24A424B18
:10CBD400B24B224C45618280E377F5F83387F94004
:10CBE4002A9761B763970B009757000023A2E76267
:10CBF40089BF23A6EB00B1B7D85009CF63DF060085
:10CC04003385A74083A70A016376F5009757000090
:10CC140023AEA75AA28B404471B7E3F3A7FECE9785
:10CC2400C5B79757000023A3075A59BF411122C41F
:10CC3400175400001304845B1C4006C626C24AC075
:10CC440091C782979757000023A2075A5C4091C36B
:10CC540082971C406391071C9757000083C79777FE
:10CC6400858B9DC797570000A3860776175700004A
:10CC740003477776954763FDE700EF0050419757E8
:10CC8400000083C75775F5178A07A2979C438297BC
:10CC9400175900001309C9778347C900918B99C3B9
:10CCA400EF10A0321C4491C38297975400009384E0
:10CCB400E455984017560000034656509757000015
:10CCC40083C7C74F93961700BA9683D60600D5CA72
:10CCD4009757000083C7874E63EFC70A9757000032
:10CCE400238E074C1C40639807129757000083C794
:10CCF400B76E91CF9757000083C7F76D89EB9757AD
:10CD04000000A38B076C97D003E0E780601097576F
:10CD14000000938767549C43638F070EB707C0A82E
:10CD2400175700002324F74A6D3B97570000938759
:10CD3400674EDC53EDC31757000013072748184B01
:10CD44009757000083C7574E6367F70C17570000C7
:10CD540003477768954763E0E70C8347C900918BE5
:10CD6400DDEB90409756000083C6564563CBD70A47
:10CD74002244B240924402494101173302E0670061
:10CD840043FD850793F7F70F975600002388F64273
:10CD9400E3E6C7F235BF86073E97835507002310A5
:10CDA4000700975700002391074697570000938781
:10CDB400A7439C431755000003454540131725001E
:10CDC400BA979C4382979757000083D7E743175736
:10CDD40000000347A73E93C7F7FF7D8D9317170005
:10CDE40098403E97835707005D8D2310A7009757FF
:10CDF400000083C7A73C91C7850717570000230F7E
:10CE0400F73A175700000347673B9757000083C75B
:10CE1400F73AE375F7ECB2402244924402494101E7
:10CE24008280139717003297035707006DF7850721
:10CE340035BFAD6737C70040BD072326F7200F1065
:10CE440000009757000093876737C84F83278726CA
:10CE5400BD66BD0693C7F7FF99836A052326D720CD
:10CE64005D8D82804111B7170040985F3AC6945F88
:10CE74003247E39CE6FE32454101828082800327EB
:10CE8400851163000712411122C406C68347C500F9
:10CE94008345C5042A8493F7C70F2306F500834608
:10CEA40097000356C70013958601618563F1C50891
:10CEB400635A05060345870093F6F607A304D700D3
:10CEC400054693E627006314C50093E6170023067E
:10CED400D4005C4389075CC3A30AB400032504118E
:10CEE4002E864C43090501368327841103465401D9
:10CEF400D44303D7C700B296118FD4C32396E70057
:10CF04008947A30DF400034744039757000083C7E0
:10CF140087316378F7048347C40093E70701230646
:10CF2400F40081A093E717002306F40075B7937605
:10CF3400F60F635D050203458700854513E6270068
:10CF44006314B50013E617002306C400A30AD40033
:10CF5400A30407008547A30DF400832784119C4391
:10CF6400DDF3B240224401454101828093E717007A
:10CF74002306F400A30AD400A30407000325041124
:10CF84004C4309058D348327841103465401D4434B
:10CF940003D7C700B296118FD4C32396E7008D47F9
:10CFA4005DBF05458280975700009387E7409C4307
:10CFB400411122C406C6858B2A84C5EF4165130539
:10CFC40025F5974003E0E780A00B45C58347A500FE
:10CFD4002315F50083270412BDE72320A41223227E
:10CFE400A41285472310F404232005008347640119
:10CFF40054412316F5000347D4002304E5000547F4
:10D00400A304E500175700001307873C184F138546
:10D01400170215811C437D151375F50F9CC25C43E3
:10D02400DCC21C479CC65C47DCC61C4B9CCA5C4BE0
:10D03400DCCA1C4F9CCE5C4FDCCE19CD9386060215
:10D0440013070702C1BF8327441288C3835704040C
:10D054002322A412850779B79757000083D7874402
:10D06400850717570000231FF742B24022444101AD
:10D0740082808347C40023090400054593C7470001
:10D084002306F400DDB78347850193F7E70FD5EF57
:10D0940083479501DDEB034625018346C50009CA94
:10D0A40083454503175700000347F71763E7E50077
:10D0B40013F7060141CF014709C6C18A0357651C0E
:10D0C40081C68356A51C369751C31307C71217553B
:10D0D400000003552511B335A70237460F0041114F
:10D0E40013060624814622C426C206C67D5433058F
:10D0F400A702979004E0E780802A9757000083C72F
:10D10400F712B384A700975700009387273903A722
:10D1140007098327070963F387003E84184375FBD7
:10D1240097570000938747139C4382978147636412
:10D13400A400B307A440B2402244B3B7970093C7F6
:10D14400170092443E854101828081473E8582805A
:10D15400797126D206D622D44AD04ECE52CC56CAA3
:10D164005AC85EC68347350303447513AA843E94A4
:10D174001374F40F9307400263F687001304B4FD9D
:10D184001374F40F03AA841383AAC413A38B841205
:10D1940022865285D685979004E0E780C01A0589D7
:10D1A40015E503CBD41201498149337B6403930B06
:10D1B40050024A865285D685979004E0E780A018ED
:10D1C400058915C5639169031374F90F238B8412C0
:10D1D400B250225492540259F249624AD24A424B02
:10D1E400B24B456182808509E20993D989410509D9
:10D1F400E31179FDE1BF832785090356E5037971BE
:10D2040093D60701BD8EC206C182358E1357764070
:10D2140093575640898B058B5D8F93573640918B7E
:10D224005D8F93571640A18B5D8F93171600C18BAA
:10D234005D8F9317360093F707025D8F931756009F
:10D244009355860093F707041E065D8F1376F60F39
:10D25400518F93D7554013D63540118A898BD18F7E
:10D2640013D67540D18F13D61540218AD18F1396CA
:10D274001500418AD18F1396350013760602D18F9B
:10D2840013965500137606049E05D18F93F5F50F7A
:10D29400CD8FA20745465D8F3307C70222D42A8467
:10D2A40026D252CC56CA032A8413832AC4135AC8DA
:10D2B40006D6369742074183935777401355574014
:10D2C4000989858BC98F135537401189C98F135527
:10D2D40017402189C98F131517004189C98F131568
:10D2E400370013750502C98F13155700935587002E
:10D2F400137505041E07C98F1377F70FD98F13D53C
:10D30400354013D755401189098B498F13D5754082
:10D31400498F13D515402189498F139515004189EB
:10D32400498F1395350013750502498F13955500E0
:10D33400137505049E05498F93F5F50F4D8F22074C
:10D34400D98FB387C7024AD04ECE5EC662C4B697A1
:10D35400C207C18313D7774013D557400989058B7A
:10D36400498F13D537401189498F13D51740218927
:10D37400498F139517004189498F13953700137509
:10D384000502498F1395570093D58700137505043B
:10D394009E07498F93F7F70FD98F13D5354013D7CD
:10D3A40055401189098B498F13D57540498F13D581
:10D3B40015402189498F139515004189498F13958B
:10D3C400350013750502498F13955500137505042F
:10D3D4009E05498F93F5F50F4D8F2207D98FB3879B
:10D3E400C702130650025285D685B697BD8E939414
:10D3F4000601C18033F6C402137BF60F979004E054
:10D40400E78060F405890DED8347D4120149814911
:10D41400B3849702130C5002C1804A865285D68584
:10D42400979004E0E78020F20589937BF90F11C5FA
:10D4340063863403850993F9F90F0509E31F89FD10
:10D44400230B6413B250225492540259F249624A93
:10D45400D24A424BB24B224C456182805E8BCDB79F
:10D46400011122CC604126CA4AC84EC652C406CE17
:10D47400AA841D4A130965058549BC446364F40004
:10D48400054581A803C7D40083474400631B4705AF
:10D4940003C784026304F7000040C5B70347540080
:10D4A40083C75405E31AF7FE1946CA8513056400B9
:10D4B400EFF06FDCE31235FF0347C40083C7940227
:10D4C400E31CF7FC0357E40083D7A402E316F7FC3C
:10D4D4000145F2406244D2444249B249224A0561BC
:10D4E4008280E31BF7FA0347540083C75405E3150E
:10D4F400F7FA1946CA8513056400EFF0CFD7E31D88
:10D5040035F9F9B7011197570000938727F922CC11
:10D5140003A4470B26CA06CE2AC42EC6854419E4A2
:10D524000145F2406244D244056182808347910000
:10D5340003471400858B6304F7000044CDB71946F4
:10D544009305A10013052400EFF0EFD2E31795FE35
:10D554000545C1BF011122CC17540000130404E98E
:10D5640018402AC62EC432C206CE3C4B93F7F7F7B6
:10D574003CCB97D003E0E7806086184097560000C4
:10D58400938606E43C4B93E707083CCB9C42324528
:10D59400A24523A0070003471500034825002207DE
:10D5A4004208429703480500429703483500620841
:10D5B400429798D70347550003486500220742085D
:10D5C4004297034845004297034875006208429712
:10D5D400D8D7034795000348A5002207420842977D
:10D5E4000348850042970348B5006208429798DBD8
:10D5F4000347D5000348E500220742084297034841
:10D60400C5000345F500429762052A97D8DB03C796
:10D61400150003C52500220742052A9703C5050006
:10D624002A9703C5350062052A9798CF03C755008A
:10D6340003C56500220742052A9703C545002A97BA
:10D6440003C5750062052A97D8CF03C7950003C5A3
:10D65400A500220742052A9703C585002A9703C51A
:10D66400B50062052A9798D303C7D50003C5E50022
:10D67400220742052A9703C5C50083C5F5002A97EA
:10D68400E2052E97D8D3D843759BD8C3D8431367E4
:10D694001700D8C398431367170098C312469842DB
:10D6A4005C43858BD1E71C4F01452300F6009C4267
:10D6B4009C4FA183A300F6009C429C4FC18323018D
:10D6C400F6009C429C4FE183A301F6009C42D84F94
:10D6D4002302E600D84F2183A302E600D84F4183FA
:10D6E4002303E600D84F6183A303E6009853230481
:10D6F400E60098532183A304E6009853418323054D
:10D70400E60098536183A305E600D8532306E60098
:10D71400D8532183A306E600D85341832307E600A8
:10D72400DC53E183A307F600F24062440561828082
:10D734000100B5B7175700001307C7C814434111B8
:10D7440022C49C5E4AC006C6998326C2858B3A844D
:10D75400175900001309C9C6D1CB9C5E9754000029
:10D76400938404C793F7F7F99CDE17570000034727
:10D7740087C693070008631BF700832709009C43AF
:10D7840093F70704175700002307F7C483C704005F
:10D7940093F707049DC3975700009387E7AB9C4317
:10D7A40082979757000023ADA7C283C7040093F75D
:10D7B400F70B17570000230DF7C083C7440093F7F6
:10D7C40007048DE7854717570000A305F7C097574F
:10D7D40000009387A7C19C43096798C7130700FCFF
:10D7E400975600002388E6BED844F8D31C40985FBF
:10D7F4001183058B09CB985F3D9B98DF05479756AE
:10D8040000002389E6BC985F1D83058B11CB985FCC
:10D814001377F7F798DF854717570000230CF7BAFB
:10D8240083270900D8430583058B19C7D843759B03
:10D83400D8C3D843799BD8C3B24022449244024906
:10D8440041018280397106DE16DC1ADA1ED82AD626
:10D854002ED432D236D03ACE3ECC42CA46C872C654
:10D8640076C47AC27EC0F935F250E2525253C253A2
:10D874003255A255125682567247E2475248C24860
:10D88400324EA24E124F824F2161730020309757BF
:10D8940000009387A7B5944397570000938747B335
:10D8A40003C70700058B11CB97570000238407B2E9
:10D8B40097570000A38007B2828003C71700058B27
:10D8C40065F7F85271FF83C75700DDB7175800009A
:10D8D400130848AF032708001C5F9583858BD1E7A5
:10D8E40009C61C5BBD832300F60085CA8327080094
:10D8F400985B4607935767016356070093E707C091
:10D90400C207C18303970600C207C18709C7BA9734
:10D914000947B3C7E7022390F60085CD8347150076
:10D924008DCB9756000083C606AB93F60604138787
:10D93400970089478DCA3A9503470500854699475C
:10D944001376F7066311D60262076187B947634C01
:10D954000700832708009C5FED838D8B1757000019
:10D96400A30DF7A681473E8582808547EDBF41110F
:10D9740022C406C617540000130444A7184049E9FA
:10D98400AE877453FDFE3E85B2859757000023820F
:10D9940007A497C003E0E780601A975700009387B5
:10D9A40067A29C43B70680009843558F98C3D85705
:10D9B400719BD8D797570000A38E07A097570000F4
:10D9C400A38807A01C40094798C3B7F700E003A742
:10D9D40007D16D9B23A8E7D003A707D15D9B23A89C
:10D9E400E7D0730050101440175700001307479EE8
:10D9F40083472700858B89EB83473700858BD9C7FD
:10DA0400975700002388079CB2402244410182803A
:10DA14008D476310F502975700009387A79A9C439C
:10DA2400B70680009843558F98C3D857719BD8D7B1
:10DA34005DBF8547E319F5FAB567BD075CC70F10ED
:10DA440000001C400967094698C7130700F8975659
:10DA540000002381E698175700001307A796144384
:10DA6400984231830D8B6319C7001307E043F8D341
:10DA74003D673D07D8C785BF984231830D8B01E7C9
:10DA840013076019EDB71307E01BD5B7FC52ADF3CC
:10DA9400A5BF5D7152DC175A0000130AAA9203272E
:10DAA4000A0086C6A2C4A6C2CAC04EDE1C43975949
:10DAB400000093896998175900001309299393F773
:10DAC400F7E793E707081CC383A609003707CEFFCF
:10DAD4007D179C46130680022A84F98F9CC68327EF
:10DAE4000900130700082800B8CBAE84930510087A
:10DAF400EFE0FFF297C003E0E780402E97C003E019
:10DB0400E780403B83270A009376F41F370FFCFF1E
:10DB140023A40700984B4E88CA881367F70398CB51
:10DB2400F84F130510F8D285137707E0558FF8CF17
:10DB34009843F576FD16758F98C39843B70633005E
:10DB4400B70204001377F7E798C398439303401F81
:10DB54007D1F1377F7E71367071098C303A709001E
:10DB6400930F800285491C47D58F1CC78327090062
:10DB74001307900D3400B8CB1149014713533700F4
:10DB840026938347030013767700B3D7C740858B6A
:10DB9400DDCF9C41832E0800239C070423900706B5
:10DBA40003AECE02137EDEFF23A6CE0383AE0700B0
:10DBB400137EF70793FE0EF833EECE0123A0C701C0
:10DBC40003AE4702336E5E0023A2C70383AE080090
:10DBD400014E23A27E0603DA070663074E0303AE53
:10DBE4000703038A0600135EFE00620E135E8E4175
:10DBF4006358CA0103AE0703135EFE002380C60107
:10DC040003DE0706137EFE0F03AA4E0663060A0010
:10DC140003DA8705E37F49FB03AE4702337EEE0157
:10DC240023A2C70383870600635CF400034E03004A
:10DC34003396C9001346F6FF3376C6012300C300AA
:10DC44003E8663D3A7002A861315860161850507DE
:10DC54001377F70F8506E313F7F3B640264496448B
:10DC64000649F259625A61618280974600009386A0
:10DC7400E6779C42D8471316170163550602984766
:10DC840013161701635006027D57B8D717470000D3
:10DC94001307C752584F050717460000232EE652B4
:10DCA400116798C798470D83058B1DC3174700005C
:10DCB400034727721367170017460000230BE6700B
:10DCC400130700F8174600002306E670214798C79B
:10DCD4009847058B09CF174700000347776F1367F1
:10DCE400170017460000A305E66E054798C7984736
:10DCF4000983058B09E798470583058B31CF98473E
:10DD0400174600001306C66C174500001305856B03
:10DD14000983058B630307101841184331830D8B66
:10DD240075EBAC4B184E93F5050203471700CDCDA8
:10DD340079EF13077006D8CF03470600136717005F
:10DD4400174600002306E668114798C718415C5738
:10DD5400F19B93E717005CD79C42984793163701D1
:10DD640063D606029746000083C6867AC18A17479F
:10DD740000001307A772C5CE0347470713670702BE
:10DD8400974600002386E678056798C79847931658
:10DD9400270163D10602174700000347A763620700
:10DDA4006187635707000547974600002384E662AE
:10DDB400096798C798479316070163D606029746E2
:10DDC400000083C6F674858A174700001307076DA1
:10DDD400ADCE034757071367270097460000A38972
:10DDE400E672216798C7828029D785456315B700F5
:10DDF4001307B00689B789456315B7001307F00602
:10DE04001DBF8D456315B700130730072DB71307E2
:10DE1400500715B71307600739BF03473600136768
:10DE2400170017460000A306E65A094739BF834680
:10DE340047070946BD8A6388C600034747078D46DE
:10DE44003D8BE313D7F4114725BF83465707918AC7
:10DE5400C9DA034757071367870041B7397106DEEC
:10DE640016DC1ADA1ED82AD62ED432D236D03ACEBE
:10DE74003ECC42CA46C872C676C47AC27EC0F53366
:10DE8400F250E2525253C2533255A25512568256A0
:10DE94007247E2475248C248324EA24E124F824F56
:10DEA400216173002030174700001307675483462D
:10DEB400B7019747000083C777564C4BB697FD8B45
:10DEC40033D7F50097460000A384F6529746000026
:10DED400A386F654058B15EF1747000003475754E4
:10DEE400B3F7E702814601471305000233D6E50084
:10DEF400058A1378F70F19CA6397D700974700006C
:10DF0400A388074F8280850693F6F60F0507E31F63
:10DF1400A7FC828097470000938707349C43011134
:10DF240022CC4EC606CE26CA4AC852C456C28297CE
:10DF3400974700009387C74D804781496305A4062E
:10DF4400BE84974700009387E72C038767013E89C7
:10DF540063550706018D135455009747000083C786
:10DF6400C74A9379F501636DF402370AC0A8B70A6A
:10DF74004057153F9C449746000083C606491397B3
:10DF840056003E9783076901158C63C507006363D8
:10DF9400470156979747000023A0E748E37BD4FC4A
:10DFA4001604B3693401F24062444E85D2444249B6
:10DFB400B249224A924A05618280E37D85F8B70717
:10DFC400C0A833848740229579B797470000938788
:10DFD400A7289C43411122C406C626C282979747AC
:10DFE40000009387E74280476309A406BE849747ED
:10DFF4000000938727228387670163D80704018D74
:10E00400135455009747000083C727406367F404FF
:10E01400593D98449747000083C7273F939657007C
:10E0240036971D8C9746000023A8E63EE372F4FE63
:10E034002244B2409244174500000345753B814594
:10E04400410117C303E06700032EE37A85FAB7079B
:10E05400C0A833848740229565B7B24022449244D5
:10E0640041018280974700009387073D9843B75743
:10E0740002009387079F8326070913965600635867
:10E084000600832607091396660063440600FD17FD
:10E09400FDF3828071C5AA870145E9C58D07C207D2
:10E0A400C183F19BC207C18313074003636FF70267
:10E0B400174700001307473E08431747000013079C
:10E0C400273D14436398A6021747000013078714DB
:10E0D400185B014541CB4111C20706C60545DD8DDC
:10E0E4000297B2400145410182801747000013079F
:10E0F400673AD9B70357650035E303574500636FA3
:10E10400F704B306F7402146637CD60203280500D2
:10E11400938687001D8FAA96611717460000035641
:10E12400460A2392E60023A006012393060014C1A5
:10E134002312F500130786FF974600002393E60891
:10E144002313B5009745000083D5A507B387F54091
:10E15400174700002317F7062105828008419DB761
:10E164000145828082800DC1974700009387C732A2
:10E1740003A30700974700009387873183A807000C
:10E1840081469A8763E31701828003A80700636DC1
:10E19400F50A636BA80A13878700E367E5FE03D6D5
:10E1A4006700216705076317E60003C7019B05079E
:10E1B4002388E19A974500009385450003D64700DC
:10E1C40003D765002393070032974207418317451D
:10E1D40000002318E5FE638A670217450000130553
:10E1E400652B08416303F50203D5660019ED83D757
:10E1F400460023A0060121073E9621062392C6006D
:10E2040097470000239FE7FAB6879843E30E17F772
:10E2140097460000938606289442E307D7F6835670
:10E224006700BDF283D64700035647001843A10692
:10E23400B2962392D70098C383D76500A1071747E6
:10E2440000002310F7F88280BE86C28725BF011123
:10E25400974700009387872422CC03A4C70B26CAC0
:10E264004AC84EC606CEAA8413092500854915C09E
:10E2740083C7140003473400858B6304F700405CB4
:10E28400FDB71946930544004A85EFE0CFFEE31835
:10E2940035FF2285F2406244D2444249B2490561C5
:10E2A40082804111974700009387471F22C403A42B
:10E2B400C70B26C24AC006C693042500054901E8D7
:10E2C4002285B24022449244024941018280A685BB
:10E2D4001305A402978004E0E78020BCE30225FF35
:10E2E400405CF1BF4111974700009387271B22C46C
:10E2F40003A4C70B26C24AC006C6930425000549D9
:10E3040001E82285B24022449244024941018280BC
:10E31400A6851305A401978004E0E78000B8E30212
:08E3240025FF405CF1BF000081
:10E330009751FF1F938101B717A1FF1F130181CCD4
:10E3400017E5FFFF130545CC9725FF1F938585CB68
:10E350001746FF1F130686FD63FAC50083220500DA
:10E3600023A0550011059105E3EAC5FE17950400A9
:10E370001305C5D89745FF1F938545FB1386018775
:10E3800063FAC5008322050023A0550011059105FD
:10E39000E3EAC5FE138501879785FF1F9385052254
:10E3A0006377B500232005001105E36DB5FEFD423E
:10E3B000739002BC8D4273904280B722000093821A
:10E3C000828873A002309722FF1F9382A2C393E238
:10E3D000320073905230972201009382A2D373903F
:10E3E0001234730020303D432A876373C30293774E
:10E3F000F700BDEFADE5937606FF3D8ABA960CC3F4
:10E400004CC30CC74CC74107E36BD7FE11E28280B7
:10E41000B306C3408A069702000096966780A6005E
:10E420002307B700A306B7002306B700A305B7006C
:10E430002305B700A304B7002304B700A303B70064
:10E440002303B700A302B7002302B700A301B7005C
:10E450002301B700A300B7002300B700828093F523
:10E46000F50F93968500D58D93960501D58D61B7EF
:10E47000939627009702000096968682E78086FA98
:10E480009680C1171D8F3E96E374C3F8A5B7336716
:10E49000B500FD530D8B79E7B7877F7F9387F7F73B
:10E4A00010419441B372F6003363F600BE92B3E2BA
:10E4B00062006397720C6318D6065041D441B37260
:10E4C000F6003363F600BE92B3E262006398720A0C
:10E4D000631BD60410459445B372F6003363F6000F
:10E4E000BE92B3E262006391720A631ED602504587
:10E4F000D445B372F6003363F600BE92B3E2620015
:10E50000639A72086311D60210499449B372F600F7
:10E510003363F600BE92B3E2620063937208510562
:10E52000D105E30FD6F61317060193970601631C76
:10E53000F7001357060193D706013305F74093758B
:10E54000F50F91E982804183C1833305F7409375CC
:10E55000F50F91E182801377F70F93F7F70F3305EB
:10E56000F74082800346050083C605000505850542
:10E570006313D60065FA3305D640828011059105F4
:10E58000E312D6FE014582802105A105E31CD6FCDD
:10E59000014582803105B105E316D6FC0145828034
:10E5A0004105C105E310D6FC0145828001471146B3
:10E5B0004148B386E5008147B308F50083C80800E9
:10E5C0008507C10623A816FFE398C7FE11071105AA
:10E5D000E31107FF8280935785019CC19357054142
:10E5E00093F7F70FDCC19357854093F7F70F137537
:10E5F000F50F9CC5C8C582801C4141111307050158
:10E600003EC05C413EC21C453EC45C453EC693973D
:10E6100025001408B69783A707FF85051105232E4B
:10E62000F5FE8D89E315E5FE41018280397122DC1A
:10E6300041661384C1A206DE26DA4AD84ED652D4E9
:10E6400056D25AD05ECE93050501A2863708FF0048
:10E650007D1683070500034735001105E207D98FB2
:10E660000307D5FF9106420733770701D98F0307C8
:10E67000E5FF2207718FD98F23AEF6FEE39BA5FC41
:10E6800081499144930A0101173B0400130B0BE8E5
:10E69000973B0400938B0BE5130AC00293F73400F9
:10E6A000032904004844BDE78A85353785450A8536
:10E6B000A1370A871C43110793F6F70093F7070F5A
:10E6C000DA97B69783C70700232EF7FEE394EAFE96
:10E6D000024592476205C2075D8DB2475D8DA24734
:10E6E000A2075D8D93972900DE979C4385093D8D98
:10E6F0003345250108C885041104E39144FBF25019
:10E700006254D2544259B259225A925A025BF24B85
:10E71000216182803345A90008C8F1BF797122D4F4
:10E7200026D24AD04ECE52CC56CA06D62A8A9399C1
:10E7300045000144938AC1A213090101C144B307F2
:10E740003401D69788438A85793533078A008A87CA
:10E750001443904391074107B18E2328D7FEE399D4
:10E7600027FF1104E31D94FCB25022549254025925
:10E77000F249624AD24A45618280397122DC13042F
:10E78000050106DE22878147C1460C433306F100AE
:10E7900011070CC24C4710083E960CC24C4F10108B
:10E7A0003E960CC29107E392D7FE85450A85A935AE
:10E7B0008945080891358D4508103D3D8147414701
:10E7C000B306F10094421104232ED4FE1408BE9621
:10E7D000944254C41410BE969442910754CCE391D1
:10E7E000E7FEF2506254216182800605937705109E
:10E7F00089C71375F50F1345B5018280411106C60F
:10E80000ED37B2404101D5B781471148C148338641
:10E81000F500B306F500014703AE06003303E6003A
:10E8200005072300C301C106E31807FF9107E39022
:10E8300017FF82809306050117360400130606DDD4
:10E8400013050505138706FF1C43110793F5F70011
:10E8500093F7070FB297AE9783C70700232EF7FEF3
:10E86000E394E6FEC106E31FD5FC82801C41411102
:10E87000FD563EC05C413EC21C453EC45C453EC6A2
:10E880008D47B385B7409307C5001397250010083F
:10E890003297032707FFFD1598C36393D5008D4575
:10E8A0001387C7FF6314F50041018280BA87F1BF67
:10E8B000397122DC1304050106DE22878147C14637
:10E8C0000C433306F10011070CC24C4710083E966A
:10E8D0000CC24C4F10103E960CC29107E392D7FE2B
:10E8E00085450A8561378945080849378D450810EF
:10E8F000B53F81474147B306F10094421104232EEE
:10E90000D4FE1408BE96944254C41410BE96944289
:10E91000910754CCE391E7FEF2506254216182806A
:10E920009306050117360400130646BE13050505B8
:10E93000138706FF1C43110793F5F70093F7070FA2
:10E94000B297AE9783C70700232EF7FEE394E6FE47
:10E95000C106E31FD5FC8280411122C406C626C22F
:10E9600085472E846301F50289476318F500224428
:10E97000B24092442E8541018DBD8D47631BF50049
:10E980002E85A535298C2285B2402244924441012E
:10E990008280A5476315F5002E858D35DDB7AD471F
:10E9A000631AF5002E85993D8935AA842285353D67
:10E9B000258DC9BFB5476316F5002E858135AA841C
:10E9C000FDB7B947E311F5FC2E850D3DAA84313D15
:10E9D000A98C2285193D3344950075B7597186D6A7
:10E9E000A2D4A6D2CAD0CECED2CCD6CADAC8DEC67F
:10E9F000E2C4E6C2930605040A87AA879043C107CA
:10EA000041072328C7FE03A647FF232AC7FE03A604
:10EA100087FF232CC7FE03A6C7FF232EC7FEE39F55
:10EA2000D7FC17390400130969D2130A05019309A9
:10EA30000505832C0900032C4900832B8900032B37
:10EA4000C900930A0AFF8A848C406685910A293797
:10EA50008C482A84628509378C50298C5E85ED3D6F
:10EA60008C58298C5A85CD3D218D23AEAAFE910468
:10EA7000E31C5AFD410A4109E39D49FBB650265467
:10EA800096540659F649664AD64A464BB64B264C2A
:10EA9000964C656182806382051493F7F500639E4E
:10EAA00007121571D6C3AA8A3285A2CDA6CB86CF0E
:10EAB000CAC9CEC7D2C5DAC15EDF62DD66DB6AD9FC
:10EAC0006ED73284AE84EFF04345C147631EF50034
:10EAD0002285A93E0149130A0106973B0400938B46
:10EAE000EBC6294C63419902FE406E44DE444E4918
:10EAF000BE492E4A9E4A0E4BFA5B6A5CDA5C4A5D5E
:10EB0000BA5D2D618280338B2A010C105A85793CC5
:10EB10008145081021318549081019350810B1398F
:10EB20001C10D2863E8710434107C10623A8C6FEAB
:10EB3000032647FF23AAC6FE032687FF23ACC6FE93
:10EB40000326C7FF23AEC6FEE31FEAFC1737040007
:10EB50001307C7BB03280700832D4700032D870039
:10EB6000832CC7005284138607010C4042853ECE99
:10EB70003ACC32CA42C8CD330C482AC66E85E93B2E
:10EB8000B2460C501104A98E6A8536C6F133B246DE
:10EB90004C54A98E668536C6C133B246F2475246FA
:10EBA000358D88C3910742486247E310F6FC410760
:10EBB000B287E391EBFACE85081085098536E39D8F
:10EBC00089F50810B13B08104D3EA9450810B9362B
:10EBD000DA8508101539410931B78280638D051037
:10EBE00093F7F500639907105171CECFAA8932854A
:10EBF000A2D5A6D386D7CAD1D2CDD6CBDAC9DEC7A5
:10EC00003284AE84EFF06331C1476319F500228589
:10EC1000313C0149138BC1A2634D9900BE502E5463
:10EC20009E540E59FE496E4ADE4A4E4BBE4B6D61F4
:10EC30008280338A29018C0052858D3AA94588004B
:10EC4000F13C1384C1ABC14A930B00048800DD364C
:10EC50008800B9398800593308408A85AD3A484060
:10EC60000C08953A08440C10BD3248440C18A532E3
:10EC700018018147B306F100944241072328D7FECB
:10EC80001408BE969442232AD7FE1410BE969442CE
:10EC9000232CD7FE1418BE9694429107232ED7FE3C
:10ECA000E39A57FD08011D3B01479C003385E700AF
:10ECB0001C01B305F70081473306F5003388F500E2
:10ECC0001442032808009107B3C6060114C2E39555
:10ECD00057FF4107E31B77FD4114E31964F78800F0
:10ECE000913E8800F136814588000D3CD285880030
:10ECF000213E410915B782809307F00F6385F60A1C
:10ED00002D71232A911023282111B2842326311139
:10ED1000130600102E89AA89930530020A85232E36
:10ED20001110232C81103684EFF0EFEBA28526859D
:10ED3000EFC0107513178500935785003365F700F2
:10ED40002310A100A6852286130531009304340008
:10ED50002301810093F4F40FEFE0833A93F6F4007B
:10ED600089C64D04158C9374F40F1C02A697A685D2
:10ED70000A8517360400130626A3238007F0213BDB
:10ED800026868A854E85EFE0A337230099008320ED
:10ED9000C111032481118324411103290111832905
:10EDA000C110156182808280797122D432844AD068
:10EDB0004ECE2A89AE892285B68517360400130601
:10EDC000A69E26D252CC06D636C6093DB246130AB6
:10EDD00034005285A29623800600834404008347B2
:10EDE000140083452400A204DD8CEFC07069639A8F
:10EDF000A40203462400D2854A852380C900EFF08F
:10EE0000A31525459735040093854598EFC0106BF1
:10EE10000545B250225492540259F249624A456162
:10EE200082802380090025452300090097350400CE
:10EE300093858596EFC090680145E1BF411106C6F4
:10EE4000EF80307CB240AA86173704001307879CF6
:10EE50001756FF1F130686C2973504009385459DFC
:10EE6000114541016FC0507A130101DB2322912427
:10EE7000232021252326112423248124232E3123FA
:10EE8000232C4123232A51232328612303470500F0
:10EE9000930710042A89AE84631FF7700347150097
:10EEA000930740056319F770034725009307E005B2
:10EEB0006313F7702E86AA852545EFC0906A130666
:10EEC000D003A6854A85EFD060012A84635A0500E5
:10EED0003546A6854A85EFD060002A84634405083C
:10EEE0009309D4FF9307100363CE37074E8693052B
:10EEF00039002808EFF043061C1CBE99173A04009D
:10EF0000130A4AC2238409DED28A8149594B8325D8
:10EF10004A002808EFC050760DC18E09D69983D7D4
:10EF200009005547636FF700173704001307078977
:10EF30008A07BA979C43BA9782878509210AE39882
:10EF400069FD97350400938525BDCDA89385F4FF11
:10EF5000818D13051400C20581460146C1814A9581
:10EF6000EF30F0758320C1240324812483244124BD
:10EF7000032901248329C123032A8123832A4123CE
:10EF8000032B01231301012582801386F4FF018ED8
:10EF90009305140042064182CA95E800EFD0401C58
:10EFA0001305D104EFE0737793150501C1811305B3
:10EFB000D104EFD04029973504009385A588130527
:10EFC000D104EFC0706B19CD973504009385058887
:10EFD0000545EFC0B04E1755FF1F0345B556EF600E
:10EFE000B04C49B797350400938585871305D10444
:10EFF000EFC0906819CD973504009385E5860545E7
:10F00000EFC0D04B1755FF1F0345D553EF60904C11
:10F0100091BF97350400938525861305D104EFC071
:10F02000B0650DC1371700408327C70AA166973521
:10F0300004009385E584D58F2326F70A2545EFC084
:10F04000F0470DB797350400938545841305D10427
:10F05000EFC0906211CD371700408327870AA16661
:10F060009735040093850583D58F2324F70AF9B7D4
:10F0700097350400938585821305D104EFC0D05FD6
:10F0800011CD371700408327C70A916697350400D2
:10F0900093858581D58F2326F70A4DB797350400D0
:10F0A000938585811305D104EFC0105D11CD37170D
:10F0B00000408327870A91669735040093858580F1
:10F0C000D58F2324F70A9DBF97350400938585804B
:10F0D0001305D104EFC0505A97350400938545803D
:10F0E00031FD97350400938565801305D104EFC089
:10F0F000B058973504009385258029F19735040091
:10F10000938545801305D104EFC0105711C597575B
:10F11000FF1F23A70744B9B5972504009385457FB2
:10F120001305D104EFC0505501C5EF70E0561DBD69
:10F13000972504009385857E1305D104EFC0D05335
:10F1400001C5EF70805C39BD972504009385C57DAE
:10F150001305D104EFC0505201C5EF70001A19B564
:10F16000972504009385057D1305D104EFC0D05089
:10F1700001C5EFA0C01BFDB3972504009385057C56
:10F180001305D104EFC0504F01C5EFA0A01AD9BBA1
:10F19000972504009385057B1305D104EFC0D04D5E
:10F1A00001C5EFA080197DBB975504009385455399
:10F1B0001305D104EFC0504C01C5EFC0A02D5DB3C5
:10F1C000972504009385C5781305D104EFC0D04A74
:10F1D00001C5EF00E12D79B3972504009385C5772C
:10F1E0001305D104EFC0504901CD9757FF1F83D7B6
:10F1F000A7340567D98F1757FF1F231FF7329DB319
:10F2000097250400938585751305D104EFC0D0467A
:10F2100009C9FD771757FF1F03570732FD17F98FED
:10F22000D9BF0346D104A547130606FD1376F60F92
:10F23000E3EAC7D29757FF1FA38EC7309725040074
:10F24000938505720145EFC0303C29BB1386F4FF5E
:10F25000018E130514004206418297350400938500
:10F26000257E4A95EFC0F0541754FF1F1304C42C99
:10F2700031C5972504009385E56FE800EFE0D3489A
:10F28000E800EFE09349131605014182EC00138575
:10F29000C162EF90A06197250400938565701145C8
:10F2A000EFC0D02183570400414593E7170017575B
:10F2B000FF1F2313F728EFD0805E6DB19725040060
:10F2C0009385C56E1145EFC0701F7D55EFD0C062AC
:10F2D00083570400F99B05B7953669B11386F4FF8F
:10F2E000018E130514004206418297350400938570
:10F2F00025754A95EFC0F04B1754FF1F1304C42324
:10F3000029C183570400972504009385E56AE80026
:10F3100093E717001757FF1F2310F722EFE0D33EA4
:10F32000E800EFE0933F13160501EC0041821385DE
:10F33000C162EF90A057972504009385A5691145F8
:10F34000FDB9972504009385A569E800EFE0D33B5C
:10F35000E800EFE0933C13160501EC0041821385B1
:10F36000C162EF90A0548357040097250400938551
:10F37000E568F99B1757FF1F2310F71CC9B7EF80EB
:10F38000F0259757FF1F9387271BC85FEFD0732B7C
:10F39000AE862A8697250400938505671145EFC040
:10F3A000B026C9B6EF60902875BE17360400130664
:10F3B000A669972504009385E565114569B5EF8039
:10F3C000D027972504009385A56535F99725040076
:10F3D00093850566ADB73545EF90906AAA84EFD066
:10F3E00053262A86AE862545972504009385856594
:10F3F000EFC0902197270400938787448843A68510
:10F400001744FF1F1304847EEFC0D37A2328A4225D
:10F41000EF80102D03250423EFD0B322AE862A8679
:10F42000972504009385C56295BF81450D45EF7012
:10F430006013EF80501C2A8697250400938505648D
:10F44000ADBF81453145EF70E01181453D45EF701D
:10F45000601181453545EF70E010EF80301A2AC603
:10F46000EF80901AB2462A871746FF1F13060661DF
:10F4700097250400938585611145EFC0F018DDB430
:10F480001757FF1F035727999756FF1F938616801C
:10F490001746FF1F1306865E972504009385456176
:10F4A000E1BF85471757FF1F2302F798EF805023CE
:10F4B000972504009385056159B51757FF1F03472A
:10F4C000E79685479725040093854560E319F7E69D
:10F4D000C5B785471757FF1FA305F79AEF80502040
:10F4E000972504009385455F99BD9757FF1F83C7F4
:10F4F0005799972504009385A55EE38207E4CDB76D
:10F500009757FF1F93874703885FEFD09313AE860B
:10F510002A86972504009385655D49B53D2E05042F
:10F520004A94314681451755FF1F1305958C971056
:10F53000FF1FE780004F8144930AA400695AB30972
:10F5400094400946CE85E8009710FF1FE780E04908
:10F5500033899A000946CA854E859710FF1FE780B8
:10F56000C0480946EC004A85F9149710FF1FE78050
:10F57000C047E39644FD1946A2851755FF1F1305A2
:10F580005587EFC0F03081451755FF1F130575866D
:10F59000C922228697250400938585561145EFC020
:10F5A000B0060146970500009385652B1305600999
:10F5B000EF60E04B45BA0146A6854A85EF60505D95
:10F5C00055B27971B1472300F1009307170022D497
:10F5D000A300F10006D62301C1002A848D4715C778
:10F5E00081471386370008101376F60F2A96338565
:10F5F000F6000345050085072300A6FE13F6F70F66
:10F60000E311E6FE0D079377F70F81460147850664
:10F6100013F6F60F6368F6041410BE962380E6FE18
:10F620001387170014101377F70F3697B54623008A
:10F63000D7FE9386270093F6F60F0A862285EFF011
:10F64000D072DD47631CF50025459735040093858E
:10F65000A5B7EFC0A0662285EFF0306FB2502254FC
:10F66000456182803306D100034606003297137746
:10F67000F70F71BF85472A86AE8663E3A70293071B
:10F6800080023307F5029387C1AD2545BA979847A5
:10F690004D8F98C7973504009385C5B36FC0C0766A
:10F6A0008280411122C406C683C731AE2A8481C735
:10F6B000AA850145C13783C7B1B099C7A285224445
:10F6C000B240054541017DB7B240224441018280EC
:10F6D00085472A86AE8663E5A70293078002330733
:10F6E000F5029387C1AD93C5F5FF2545BA979847B5
:10F6F0006D8F98C7972504009385855D6FC0C07096
:10F700008280411122C426C206C683C731AE2A8434
:10F710009384C1AD91CB98449347F5FFAA85F98FA7
:10F72000014523A2F1AE6D3783C7B1B091CF9C588C
:10F730001347F4FFA2852244B2409244F98F23A6D6
:10F74000F1B00545410169B7B240224492444101FC
:10F75000828001114EC606CE22CC26CA4AC883C971
:10F7600031AE6388090683C7B1B07D54B9EB8549D2
:10F77000054493078002B307F4021384C1AD2E89B8
:10F78000AA841306800281453E9422859710FF1FAC
:10F79000E78020298547A303F40022851946A68522
:10F7A0009710FF1FE7806024CA8523032401268564
:10F7B000EFF03063B74507002A849385F5804E85C6
:10F7C000553D2285F2406244D2444249B249056126
:10F7D0008280014479BF011119468145280006CE77
:10F7E0009710FF1FE780E02313060005814513856E
:10F7F000C1AD9710FF1FE780C02219469745FF1F34
:10F800009385355F28009710FF1FE7800027854705
:10F810006308F50081451745FF1F1305955D153FEA
:10F8200019469745FF1F9385355D28009710FF1FE8
:10F83000E780A02485476308F50081451745FF1F31
:10F840001305955B39379747FF1F83C7875A99C3BD
:10F85000EFD0C07AF24005618280411106C6EFF018
:10F860009061B2401306000581451385C1AD410189
:10F870001713FF1F6700E31A854763E2A702930788
:10F880008002B307F5021387C1AD0145B306F70047
:10F8900083C6760091C6B1073305F7008280014523
:10F8A0008280397106DE22DC26DA4AD84ED652D45E
:10F8B00056D283C711876147636BF7088507A38812
:10F8C000F1869747FF1F83C77752ADCB1384C1AD35
:10F8D0001389C1B285449759FF1F9389E9C5130A5B
:10F8E000C003972A0400938A6A3D83477400B9C70E
:10F8F00083470402638497045C4C03A7C9021D8FED
:10F900009747FF1F83C7974EB38747036364F70288
:10F910001305002023009402EFD0C02119466C008B
:10F920002285EFC060727000D6852545230C01004A
:10F93000EFC0804D13048402E31924FBF25062549B
:10F94000D2544259B259225A925A216182800D45AD
:10F95000A3880186B933B5B75D71CAC01389018721
:10F960008347090052DC56DA858B416A856A4EDE90
:10F970005AD85ED686C6A2C4A6C22388F186054B95
:10F980009389C1AD930B80027D1A938A0A8003C5C7
:10F990000187636AAB0C330575034E95044599CC1A
:10F9A0008347750081CFEF00E16A2A8411ED972526
:10F9B0000400938565642545EFC040308347090006
:10F9C00085072388F186E1B783470500918BFDD732
:10F9D00083568500E38446FF03C60187972504000C
:10F9E0009385C5622545EFC020429397C40063DF2D
:10F9F0000708930671001306610093079100380011
:10FA0000930551001305A100EF9020618357A100D9
:10FA1000130740069725040093858561B3F7E70235
:10FA200025452306F10083475100A306F1008347D3
:10FA300061002307F10083477100A307F1008347AA
:10FA400081002308F10083479100A308F100EFC073
:10FA5000E026194774001306800A8355E400035515
:10FA60008400EFF01FB683C7018709476385E7006D
:10FA700085072388F186B640264496440649F25904
:10FA8000625AD25A425BB25B6161828093F7140082
:10FA900081CF972504009385E55A2545EFC00022C4
:10FAA00001477400254655BF93F7240081CF972561
:10FAB00004009385E55A2545EFC0402001477400B6
:10FAC000194661BF93F7041085CB972504009385F1
:10FAD000A55A2545EFC0801E03C501879307800204
:10FAE0003305F50250006C004E95EF00306A034775
:10FAF00041007400094695B793F7042085CB9725FC
:10FB000004009385A5582545EFC0401B03C5018718
:10FB1000930780023305F50250006C004E95EF000C
:10FB2000F0660347410074000D4605BF93F704409B
:10FB300081CF972504009385E5562545EFC0001831
:10FB400001477400054611BFB3F7540185C79725D7
:10FB50000400938565562545EFC040169747FF1F63
:10FB60009387C70883C72720054774002306F10041
:10FB70001146E5B59397340163D907029725040030
:10FB8000938545552545EFC060139747FF1F938721
:10FB9000E70583D7E72274001D4613978700A183EA
:10FBA000D98F2316F10009474DBD9397240163D5E2
:10FBB0000702972504009385A5532545EFC0001043
:10FBC0009747FF1F9387870283C717200547740055
:10FBD0002306F100354651B59397140163DD070004
:10FBE00097250400938505532545EFC0200D054753
:10FBF000740039469DB593F7440081CF97250400E2
:10FC0000938585522545EFC0600B0147740015466A
:10FC1000A9B593F7840081CF9725040093854552B9
:10FC20002545EFC0A0090147740021463DB59397D3
:10FC3000040163DD070097250400938525522545BF
:10FC4000EFC0C00705477400414601BD9397F4001B
:10FC500063DD0702972504009385C5512545EFC054
:10FC6000E0059747FF1F938767F803C737207400A5
:10FC70004D462306E10003C7472083C75720A3064C
:10FC8000E1002307F1000D47C9BB9397E40063DD52
:10FC90000700972504009385A54F2545EFC0000276
:10FCA00001477400514655BB9397D400E3D807D061
:10FCB000972504009385854F2545EFC02000014717
:10FCC0007400554659BB954763F2C74E5971A6D289
:10FCD000CECED2CC86D6A2D4CAD0D6CADAC8DEC698
:10FCE000E2C4E6C2EAC06EDE328AAE89EF00C13DF0
:10FCF000AA846306051219469385C1AD9710FF1FAC
:10FD0000E780A0D70544630B85121946938541B05F
:10FD100026859710FF1FE78040D663128510930A4F
:10FD20008002B3075403938AC1AD856B814D175D83
:10FD3000FF1F130D6D80172B0400130B2BFB938BF0
:10FD40000B80BE9A5689B384B90103C70400B1473A
:10FD50006312F70C13874D006353470D83CC1400D7
:10FD6000138C3D00B3079C0163D6470BCE9783C627
:10FD70000700B5476390F60A814781463386F40051
:10FD800003461600850793F7F70FB29693F6F60F22
:10FD9000E3F6FCFEB387940183C72700639CD70674
:10FDA0008327CD0283460902232EF90085476397F6
:10FDB000F602130500403AC6EFC0D05719466C084A
:10FDC0005685EFC06028700897250400938585F25A
:10FDD000254523040102EFC0200332472300090216
:10FDE00083C73400A5466382D72863E5F60A114726
:10FDF0006381E71E6366F70405476389E712638939
:10FE0000071089466381D7148D466381D718669C95
:10FE1000937DFC0F850D93FDFD0FE3E64DF3B6508A
:10FE2000265496540659F649664AD64A464BB64B6E
:10FE3000264C964C064DF25D656182800144C5B545
:10FE40001947638CE71C63EFE7181D476386E720BB
:10FE50002147E39EE7FA83C7440003C55400A20785
:10FE60005D8DEFC0834703260B0083264B00EFA078
:10FE7000537FEFD0C307232CA900EFC0937C2A86C1
:10FE8000AE86254597250400938505FDEFB0D07714
:10FE9000A14575A0BD466388D72663E6F6022D47C7
:10FEA000638BE72063E2E72035476385E724394722
:10FEB000E39FE7F497250400938505052545EFB0FA
:10FEC000F05F9165ADA8D146638BD72663E1F6025A
:10FED0004147638DE7244D47E39BE7F297250400F4
:10FEE000938505092545EFB0705DC16589A8D546A4
:10FEF000638CD7281307800AE39BE7F0972504005B
:10FF00009385C50D2545EFB0705BB705080005A8C2
:10FF100083C7440003C6540097250400938585DEFB
:10FF2000A2075D8E2545EFB0306ED5B5972504004C
:10FF3000938505DF2545EFB0705893050040228575
:10FF4000EFF00FF9E9B583C744006395E702972501
:10FF50000400938525DE2545EFB050560965EFC0B6
:10FF6000703D17250400130565DEEF10305D930525
:10FF70000010F1B7254597250400938525DEEFB0E5
:10FF8000F053172504001305A5DEC5B783C7440049
:10FF90006395E70297250400938585DE2545EFB03C
:10FFA000F0515E85EFC01039172504001305C5DE3A
:10FFB000EF10D0589305002059B725459725040028
:10FFC0009385C5DEEFB0904F17250400130545DF7C
:10FFD000C5B7972504009385A5DF2545EFB0104EE2
:10FFE000DE85B1BF03C54400EFC0232F03260B00FD
:10FFF00083264B00EFA0F366EFC0736F232AA9009E
:020000021000EC
:10000000EFC033642A86AE86254597250400938584
:1000100065DEEFB0705F91451DB783C7440003C52F
:100020005400A2075D8DEFC0432B03260B008326EF
:100030004B00EFA01363EFC0936B2328A900EFC020
:1000400053602A86AE86254597250400938505DDF5
:10005000EFB0905B8945E5B5972504009385C5DD34
:100060002545EFB0B0458565D9BD83C7440003C5BC
:100070005400A2075D8DEFC0432603260B008326A4
:100080004B00EFA0135EEFC093662326A900EFC0DC
:10009000535B2A86AE86254597250400938545DE69
:1000A000EFB09056854561BD03C644009725040016
:1000B0009385C5DE85BD85471747FF1F230BF7D204
:1000C000EF701062EFC0907397250400938585DE72
:1000D0002545EFB0B03E97250400938565DF2545A3
:1000E000EFB0D03D1165EFC0F02491652285EFF0AF
:1000F0006FD831BB972504009385C5DE2545EFB049
:10010000F03B89652DBD972504009385A5E1254524
:10011000EFB0D03A97250400938585E22545EFB0EE
:10012000F0392165EFC01021A165C9B797250400FA
:10013000938505E22545EFB07038A16509B5938434
:100140005D00990DB387E900CE94CE9D03C60700EC
:1001500003C70D0083C6040097250400938585E33B
:1001600025453EC6EFB0504AB247B705020083C7E7
:100170000700A300F90283C704002301F90283C723
:100180000D00A301F90265BBB384E90003C60400B6
:10019000972504009385C5E22545EFB0F04683C757
:1001A0000400B70504002302F90251BB828041110B
:1001B00022C421649305048099460146254506C65C
:1001C0009700FF1FE780C04B930504802244B24094
:1001D000994613864187294541011703FF1F670090
:1001E000234A99E10145828075DD011152C403DA89
:1001F000818726CA93548A008504A204C204C18060
:1002000056C2B38A4441C20A22CC4AC82E862E84E2
:100210002A89972504009385A50B254593DA0A01C1
:100220004EC606CE93894187EFB0103E63ED8A0833
:1002300083D5818793F7F50FB1CF8D6783D58187FC
:1002400093870780A2864A86BE9529459700FF1F9F
:10025000E78000431375F50F29ED83D74900156634
:10026000A297239CF18603D7818783D7618763098F
:10027000F70063F3E700B297998F13960701418265
:1002800025459725040093852506EFB0F0371375B3
:10029000F40F0DA08D679387078093060010014629
:1002A000BE9525459700FF1FE780803D1375F50F2C
:1002B00049D50145F2406244D2444249B249224AFA
:1002C000924A05618280B3079440D297C207C183E6
:1002D000A18303C74900850793F7F70F939687001B
:1002E00011EB9386170093740AF0A206C204C206AB
:1002F000C180C18283D7618763F6F400338796009B
:10030000E3C9E7FA0D6A130A0A800146B38544017E
:1003100025459700FF1FE780A0361375F50F51F9AB
:1003200083D58187A2864A86D29505B7411122C41A
:100330001384418722858145194606C69700FF1F11
:10034000E780206E9307B0FA2300F4008D35224435
:10035000B24097250400938525F0254541016FB0F3
:10036000F015A16541119946138641879385058053
:100370002D4506C69700FF1FE780803003C74187E1
:100380009307B00A6303F7005537B24083D68187DD
:1003900003D66187972504009385C5EC2545410167
:1003A0006FB0902683D7C1B20145638C071003D587
:1003B000E1B26366F50023A601B201458280338570
:1003C000A740D1473355F5021375F50F01E5239684
:1003D00001B28280130101BD2324814223261142F0
:1003E0002322914223202143232E3141232C4141BA
:1003F000232A514195471374F50F63F3A700154461
:100400002286972504009385E5EF2545EFB0D01FA0
:1004100001498144938901B3514AA14A9377F90F65
:1004200003D5E1B21747FF1F0347D79263E987045B
:10043000D1473304F4022A94239781B2A147631C65
:10044000F706A6850808EF40903603D7E1B283D7B8
:10045000C1B205456364F70023A601B28320C142FF
:100460000324814283244142032901428329C1415B
:10047000032A8141832A4141130101438280B3074A
:1004800049031408AA97CE9733859600631E570137
:10049000BE85EF4050512317A1008357E1000509A5
:1004A000BE94C204C1809DBFAA851306E1003E85AB
:1004B000EF90902ADDB726860C080145EF70207B6F
:1004C00069B78280011106CE22CC26CA4AC84EC620
:1004D00091E901442285F2406244D2444249B24942
:1004E00005618280AA8975D583D7818703D6618704
:1004F0002E849564638AC7006374F60015673A9684
:100500001D8E93140601C1802686972504009385CD
:10051000A5D12545EFB0500F938714F06356F40032
:100520009307F00F63EA970097250400938545D160
:100530002545EFB0700D71BF83D481873387840068
:10054000956763C9E700A2854E85EFF09FC9EFF07C
:100550001FC649B715693309994042091359090162
:10056000CA854E85EFF0FFC72DD5ED75A695A295EE
:10057000C205239C0186C18133852901F9B783D641
:10058000C1B281EA97250400938505D225456FB055
:10059000E07203D6E1B24111918E97250400938554
:1005A000A5D1254506C6EFB030061387C1B28355E5
:1005B000070083D7E1B2138501B39D8DC2053E9537
:1005C000C1810937B24023A601B2410182804111A5
:1005D00083D7C1B222C426C206C6AE971307401FF6
:1005E000AA842E84635AF700593F97250400938507
:1005F00065C92545EFB0806C83D7C1B2138501B3BF
:100600002286A6853E95EFC0B32F03D6C1B22296AF
:1006100042062244B240924441822396C1B29725B9
:1006200004009385A5C7254541016FB0E07D011108
:1006300026CA06CE22CC4AC84EC652C456C28144EF
:1006400059C1D1C183D7618703D48187638D870660
:1006500063F587081D8C42044180AE892A89228671
:10066000972504009385C5B80145EFB0E079A284D1
:1006700063F38900CE84C2040D6A83D7618703D7F0
:100680008187C180938A4187130A0A8063FAE7044D
:10069000A6864A86B38547012D459700FF1FE78050
:1006A00020FE83D72A00A697239BF186EFF03FB068
:1006B00083D6818703D6618797250400938585B407
:1006C0002545EFB06074F240624426854249D24429
:1006D000B249224A924A0561828015673A949DBFC9
:1006E00015671D8FB385470163D5E400A6864A864A
:1006F00065B79569B389F9406D743E94C20993D981
:1007000009012694CE864A8642042D459700FF1F94
:10071000E78000F74180A28633063901D2852D4556
:10072000239B01869700FF1FE78080F583D72A006F
:100730003E94239B81869DBF397106DE22DC26DA3A
:100740004AD84ED652D456D25AD05ECE62CCE9C9DF
:10075000328455CA368CE9C6BA8B79C32A89AE8AE7
:100760002300AC0085448149114B33063441635367
:10077000CB001146137AF60F5286B3853A01480032
:1007800002C2EFC0F31703475100834761000346DD
:100790007100834641004A97CA974A960507890720
:1007A0000D06CA962307E100A306F100A307D100B6
:1007B0002306C1007800814703460700B306F9000D
:1007C0008507B18E2300D70093F7F70F0507E39550
:1007D00067FF8357C1000357E100D29933059C009E
:1007E000B98F2316F100B24711462C00910493F9FA
:1007F000F90F3EC493F4F40FEFC09310E3E789F6CA
:1008000023809B0005442285F2506254D254425901
:10081000B259225A925A025BF24B624C2161828099
:100820000144D5B71D7186CEA2CCA6CACAC8CEC611
:10083000D2C4D6C2DAC05EDE62DC66DA6AD86ED6B0
:100840007DC52E84E9C532897DC2368CEDC2834DCB
:100850000500AA84814C054D9149138A3D00938A75
:100860001D00138B2D00930B00103306A44163D39E
:10087000C90011469377F60F3E86B385A401480858
:100880003EC602CAEFC0D307834661010347410158
:100890000346710183475101358F230AE100B18F6F
:1008A00033C7ED00B346DB00A30AF1003346CA00AC
:1008B000B3C7FA00A30FE100A30ED100230EC100BD
:1008C000230FF1007408014783C706003386ED004B
:1008D000050793870710918FB3E777038506A38FEA
:1008E000F6FEE31337FFF2473305990111462C0852
:1008F0003ECCEFC0F300B247910C93FCFC0F3E9D41
:10090000137DFD0FE3638DF623009C0105442285D2
:10091000F6406644D6444649B649264A964A064BAE
:10092000F25B625CD25C425DB25D25618280014413
:10093000F9BF39719307400622DC33F4F50226DA59
:1009400013077100B684740806DEB377F602330429
:10095000F402B387C5003E9493978500A181DD8D95
:100960009317860021825D8E2314B1002315C100E8
:100970002C001146D13389C48345710068088294E4
:100980002285F2506254D25421618280317122DD7D
:1009900026DB4AD99307110118082A842E89B284CC
:1009A0009306F1001306E1009305D1001305210120
:1009B00006DFEF808066814719473306F40003465F
:1009C0000600B400BE962380C6008507E397E7FEC5
:1009D0008357210113074006B3F7E7022307F10409
:1009E0008347D100A307F1048347E1002308F10402
:1009F0008347F100A308F104834701012309F104AF
:100A00009307A0FAA309F104EFD003377800F41894
:100A1000AC0031461375F50F05334C082285194695
:100A2000EFB080625008972504009385E58E254538
:100A300023000102EFB0403D0346C1004C08E81816
:100A4000EFB080608346C1001819500893971600D4
:100A5000BA97972504009385E58C2545238207F6F0
:100A6000EFB0803A034801018347F1000347E100FA
:100A70008346D100035621019548972504009385AC
:100A8000A58B2545EFB040380344C100EC184A85DA
:100A90002286EFC0E366FA50238084006A54DA5459
:100AA0004A5929618280184193878116104598C35D
:100AB00003574500544590C72392E7005855104905
:100AC000D4C7544998CF972504009385E5900547EE
:100AD000254590CBD4CB238EE7006FB0201E397113
:100AE00026DA4AD84ED652D456D25AD006DE22DC66
:100AF00062CE66CC2A89EFD043429374F50F8149C8
:100B0000254BE54A172A0400130ACA8691ECF250D5
:100B100062544E85D2544259B259225A925A025BBB
:100B2000724CE24C2161828003470900930707FD64
:100B300093F7F70F637CFB009307F7F993F7F70F31
:100B400063E2FA06930797FA93F7F70F1394870176
:100B50006184FD14230089002685EFB003782A867E
:100B6000AE8603250A0083254A0093F4F40F050995
:100B7000EF00C1382AC422852EC6EFB00376224684
:100B8000B246EFA033262A8C4E85AE8CEFB0037CA4
:100B90002A86AE866285E685EF90B339EFB0236E84
:100BA000AA89ADB79306F7FB93F6F60F8147E3EFFB
:100BB000DAF8930797FC49BF411122C406C68307A0
:100BC00095022A8499C713059502EFC0A35023818B
:100BD000A1128307D41291CB1305D412EFC0234F77
:100BE000EFC0E3309387010FC8D3B24022444101E4
:100BF0008280011126CA9304150022CC9725040097
:100C0000938585812A84268506CE4AC84EC6EFB0D4
:100C1000A02E631E05109725040093852580268548
:100C2000EFB0802D6302050E85448307D4036386ED
:100C3000070C13059402EFC0E34985491379F50FBA
:100C40001305D4036387340F8947638CF418EFC00E
:100C50006348A382A112631A39017946814513853D
:100C60007114238D0186EFD00FF88307D40885C354
:100C70001305D408EFC0034603C7A18793071700E5
:100C8000238DF1869387010FBA97A38BA70483075F
:100C9000D40D85C31305D40DEFC0C34303C7A1878B
:100CA00093071700238DF1869387010FBA97A38BC3
:100CB000A7048307D41285C31305D412EFC0834160
:100CC00003C7A18793071700238DF1869387010F30
:100CD000BA97A38BA7048307D41785C31305D4172A
:100CE000EFC0433F03C7A18793071700238DF18609
:100CF0009387010FBA97A38BA704F2406244D244B2
:100D00004249B24905618280971504009385457177
:100D10002685EFB0601EE31905F0268597150400BF
:100D200093854570EFB0401D8944E31005F0814480
:100D3000EDBDEFC0233A2383A112631A99007946CF
:100D4000814513859112238D0186EFD0CFE983076A
:100D5000D40885C31305D408EFC0C33703C7A187E0
:100D600093071700238DF1869387010FBA97A38C01
:100D7000A7028307D40D85C31305D40DEFC08335B7
:100D800003C7A18793071700238DF1869387010F6F
:100D9000BA97A38CA7028307D41285C31305D41274
:100DA000EFC0433303C7A18793071700238DF18654
:100DB0009387010FBA97A38CA7028307D417E38EFA
:100DC00007F21305D417EFC0E33003C7A1879307D9
:100DD0001700238DF1869387010FBA97A38CA70282
:100DE00029BFEFC0232FA383A11201BF411122C449
:100DF00006C6830795072A8499C713059507EFC090
:100E0000632DA381A1128307D40899C71305D408C1
:100E1000EFC0432C2382A1128307540B91CB1305FF
:100E2000540BEFC0C32AEFC0830C9387010F88D700
:100E3000B240224441018280411122C426C206C62A
:100E4000830715058144014499C7034445051304EC
:100E500004FD1374F40F8307550699C7130555064F
:100E6000EFC043279374F50F2286A68697150400DA
:100E70009385455C2545EFA030791374B40F8D47F9
:100E8000631FF4009D4763FC97009737FF1F83C7DC
:100E9000C76A93E717001737FF1F2300F76AB240AE
:100EA0002244924441018280011126CA8146B284C3
:100EB000014652C456C206CE22CC4AC84EC62A8A21
:100EC000AE8AEFA0435541CD9307E0046386F4005A
:100ED000930730056395F4089719040093898951A5
:100EE00003A6090083A649005285D685EFA0836F2B
:100EF00037949800EFB0A338130404682A89337537
:100F00008502EFB0A34403A6090083A64900EF9031
:100F10005375971704009387674E9043D443EF901F
:100F200053742A8A33558902AE8AEFB023422A8647
:100F3000AE865285D685EF90C37F13073005AE8706
:100F40006395E400B7070080AD8FF2406244D2445D
:100F50004249B249224A924ABE85056182800145D2
:100F60008147E5B7011126CA8146B284014652C4C1
:100F700056C206CE22CC4AC84EC62A8AAE8AEFA0F6
:100F8000834941CD930750046386F40093077005AD
:100F90006395F408971904009389C94503A60900CD
:100FA00083A649005285D685EFA0C3633794980085
:100FB000EFB0E32C130404682A8933758502EFB07F
:100FC000E33803A6090083A64900EF9093699717B9
:100FD00004009387A7429043D443EF9093682A8AF2
:100FE00033558902AE8AEFB063362A86AE865285C3
:100FF000D685EF90037413077005AE876395E40000
:10100000B7070080AD8FF2406244D2444249B249F2
:10101000224A924ABE850561828001458147E5B733
:10102000135785009357050113D885009376F50F64
:1010300001111377F70F93F7F70F618593F5F50F0C
:101040001378F80F99C211C3B9E3230CD100A30C94
:10105000E100230DF100A30DA10003459101834799
:1010600081010347A1012205A30E01014207C98F97
:10107000230EB1000345B101D98F0347D101834548
:10108000C101620522075D8DD98D0561828032958F
:101090001375F50F13138501135383415D46635791
:1010A000660861463363C30285071376D70F11457F
:1010B00093F7F70F6305A6002545631AA600794646
:1010C000637FF60205071377F70F85470DA80946DA
:1010D0006312C7041386067D93084006B36816039F
:1010E0006385080013F5360011C513050019336632
:1010F000A60219EE75466374F60085470D47230C6A
:10110000D100A30CE100230DF100A30D6100B1B7E4
:101110007146D5B77D46E374F6FEB147E314F7FA9E
:10112000850693F6F60F85470547D1BFE35903FCC3
:101130006105FD171313850193F7F70F13538341CF
:10114000DDFF7D171377F70F1146F947E309C7FA5B
:101150001946E306C7FA2546E303C7FA2D46E3001E
:10116000C7FA89476316F7021386067D9307400680
:10117000B367F60291C793F83600F547E38108F8A4
:1011800093070019B367F60293B71700F10785BFFD
:10119000FD4735F7FD1693F6F60F31478DB78347B8
:1011A0001500034705000111A2075D8F8347250045
:1011B0008346350006CEC207D98F034755008345C5
:1011C00045001736FF1F130666A203065621E206E6
:1011D000220733E5F600D98DA13513588500135643
:1011E000050193D7850013F7F50F93F7F70F935683
:1011F00085011376F60F9375F80F1375F50FEF70E1
:10120000F0679737FF1F83C7779E05476385E70021
:1012100011476396E700F24005616F70B075F240C8
:10122000056182804971232481161384010F83078D
:10123000340083C8510F03C8410F03C7210F83C671
:10124000110F03C6010F971504009385A5214810BF
:10125000232611162322911623202117232E311520
:10126000EFC033444810EFC0534B18485C480306A6
:1012700004033AC03EC2030814035C4418445410EB
:1012800097150400938505203695EFC093414810CB
:10129000EFC0B3485C103E95830764001716040046
:1012A0001306C61B89C7171604001306A61A97252E
:1012B0000400938525EAEFC0D33E4810EFC0F34504
:1012C000544C104C5C10971504009385A51C3E955A
:1012D000EFC0333D4810EFC05344030634035C10A5
:1012E0003E95971504009385A51BEFC0933B4810CE
:1012F000EFC0B34203072403AA8448503ACE1384B4
:10130000010FEFB0133472475C10AE862A86971532
:1013100004009385E51933859700EFC09338481092
:10132000EFC0B33F5C1003C64112971504009385CC
:10133000A5193E95EFC0F3364810EFC0133E5C1080
:1013400097150400938545193E95EFC0F33B13892B
:10135000E110A28497290400938949DF03C674052C
:1013600019CA481032CEEFC0533B72465C10CE858E
:101370003E95EFC013338504E39224FF4810EFC07D
:10138000D3395C1097150400938585153E95EFC001
:10139000B33797240400938464DB0346940319CA8B
:1013A000481032CEEFC0733772465C10A6853E956A
:1013B000EFC0332F0504E31224FF4C102545EFA0A6
:1013C000F00F8320C11603248116832441160329BC
:1013D00001168329C11575618280411122C406C698
:1013E00026C2830755012A84B9C7A946938707FDFA
:1013F000B387D70203476501130707FDBA97A3898F
:10140000F10E0307750183478501130707FD3307B5
:10141000D702938707FD3E97238AE10E8307950144
:101420000347A501938707FDB387D702130707FD7D
:10143000BA97A38AF10E8307940281CB1307100495
:101440006391E7148547238BF10E8307D4039384BC
:10145000010F99C71305D403EFB0734788C4CCC4F8
:101460000306140509CA8844CC442380C112EFF056
:10147000BFA388C4CCC48307540699C71305540678
:10148000EFB0F34488C8CCC80306940709CA88485B
:10149000CC48A380C112EFF0FFAC88C8CCC883074A
:1014A000D40899CF1305D408EFB0734297170400FE
:1014B0009387C7F79043D443EFA0C31288CCCCCC1A
:1014C0008307140A99C71305140AEFB0B340239891
:1014D000A1108307540BB9C7A946938707FDB387AB
:1014E000D7020347640B130707FDBA972389F10E50
:1014F0000307740B8347840B130707FD3307D702D9
:10150000938707FD3E97A388E10E8307940B03475B
:10151000A40B938707FDB387D702130707FDBA977C
:101520002388F10E83853400856703C6410F9387B6
:1015300007E11307C0033307E60283C6510FB387E1
:10154000F502BA97B69723AEF1101737FF1F1307AE
:10155000A7FE835707003A8413F5870039E1038516
:1015600064000547631FE50203C7210F11EF88449C
:10157000CC4401468146EF90136A05E9238B010EA6
:10158000B9A0238B010ED1B5FDD175D2EDD293E771
:1015900087001385010F1737FF1F231FF7F8EFF0A0
:1015A0001FC083876400E1F7D1BF8848CC4801465B
:1015B0008146EF90536679D183C7210FE1D313069B
:1015C00080079385010F13858107EFB0733303C53F
:1015D00081D29D4705053365F50213068007938583
:1015E000010F2384A1D2930780073305F502938767
:1015F00001D33E95EFB0D330EFF0DFC25C5422440C
:10160000B24092441737FF1F2322F7F613068007D4
:1016100081451385010F41016FC0FFDC0171232C4F
:10162000811E232A911E1306101E2A84AE84680090
:101630008145232E111E2328211FEFC0DFDA8145AB
:101640008147014701465148CD485D4363419608B3
:1016500099C12306F1001306A002A6852285EFA0FA
:10166000F0078347C10051473386A440B387E702A0
:101670009305150078007D16A29585073305F700C0
:10168000EFB013281306A002A68522850349140093
:10169000EFA0D004894763C4A7080345C100D14720
:1016A0003305F5027C0005053E95EFF04FC3631D41
:1016B000A9041946971504009385C5D41305D100D4
:1016C000EFA0300F2DC56800EFF03FD135A8B3066D
:1016D000C40003C50600930665FD93F6D60F91EA94
:1016E000850793F7F70F6361F30285450147050608
:1016F000B1BFB3860703130E011FF296BA96A38EED
:10170000A6E00507E3D5E8FE8320C11F0324811F5F
:101710008324411F0329011F130101208280330705
:10172000F4000347070085073349E900ADB71946C0
:1017300097150400938545CD1305D100EFA07007E0
:1017400039E9194697150400938545CC1305D10056
:10175000EFA030060DED194697150400938545CB93
:101760001305D100EFA0F00419ED194697150400F8
:10177000938545CA1305D100EFA0B00351D5680089
:10178000EFF08FEB51B76800EFF0AFC6B5BF680060
:10179000EFF0CFE595BF6800EFF00FC2B5B77571F8
:1017A00022C526C34AC1CEDED2DCD6DADAD806C7D5
:1017B000AA892E89814401448147130A4002854A3F
:1017C000354B139704014183636C2701BA402A44C7
:1017D0009A440A49F659665AD65A465B496182804C
:1017E000338799000347070063014703639D57014F
:1017F000631E67019C18A297A2856800238E07F8D4
:10180000EFF0DFE1814785046DBF01449C18A2978A
:1018100005041374F40F238EE7F893373406E5B705
:10182000411106C6138581D283470500130780073F
:101830008145B387E70213068007A1073E95EFC0F5
:101840009FBAB2408145114541016FA0D07E1385FA
:1018500081D28347050013078007B387E702A107FA
:101860003E9582801385810782809737FF1F83C74B
:1018700037CD81CF9727FF1F83D7A758FD17C20702
:10188000C1831307A0036375F70023AE018682802E
:1018900031714ED79389C18783A7090056D3938AA4
:1018A00081D2850722DD26DB52D55AD15ECF62CDAB
:1018B00066CB6AC906DF4AD96EC723AEF18683C4F8
:1018C00081D2014A130C80075684971C0400938C24
:1018D000ECAA054D9D4B154B33898403569983071C
:1018E000E900E1CF03A60C0083A64C000325090202
:1018F00083254902EF90B3436341050C83470904F4
:10190000638DA70B93171A001808BA97035789021B
:101910002390E7003C00D29723809700050A9904A2
:10192000B3E47403E31A6AFB03578101835701018F
:10193000998F13D7F741B98F998F939407011307A4
:10194000400BC1806358F70093078016B38497401B
:10195000C204C180268697150400938525A56808D2
:10196000EFC023546C082545EFA04035938714FF42
:10197000C207C1837947636EF70803499100130AD0
:1019800080078545014533094903210922994A8683
:10199000EF80F03B8344B10085450145B3844403A7
:1019A000A104A2942686EF80903ACA850D45EF30B7
:1019B000D001A6850D45EF30500183A709001727F8
:1019C000FF1F0357074463E7E70203C581D293046F
:1019D000800733059502B30DA4008387ED0099CBF2
:1019E00083C74118138981166397070E2105229535
:1019F000EFF06F8BFA506A54DA544A59BA592A5A9E
:101A00009A5A0A5BFA4B6A4CDA4C4A4DBA4D296134
:101A100082809307D002E3F297FA834B8100930A06
:101A200080078545B38B5B030145138C8B00229C9B
:101A30006286EF80D031034B910085450145330B21
:101A40005B03A29B210B229B5A86EF805030034AF6
:101A5000A10085450145330A5A03210A229A52867C
:101A6000EF80F02E0349B100854501453309590344
:101A7000210922994A86EF80902D8344C100854533
:101A80000145B3845403A104A2942686EF80302C30
:101A9000E2850D45EF306073DA850D45EF30E07279
:101AA000D2850D45EF306072CA850D45EF30E0718B
:101AB000A6850D45EF30607183C781D2B38A570385
:101AC00003A74B03A29A83A74A03E318F7EE8547BF
:101AD0002380FA04DDB5171D0400130DAD8A03261B
