:04C000006F2000337A
:10C004000000000000000000900000202205002035
:10C01400A9BDF9F594000020000000000000000014
:10C02400960000209800002000000000000000009E
:10C034009A000020000000009C0000200000000086
:10C044009E0000201603002044030020A4000020CA
:10C05400A6000020A8000020AA000020AC000020B8
:10C06400AE000020B0000020C60000205A010020CD
:10C074009E050020B8000020BA000020BC0000206B
:10C08400BE000020EE01002082020020C400002037
:10C0940001A001A001A001A001A001A001A001A094
:10C0A40001A001A001A001A001A001A001A001A084
:10C0B40001A001A001A001A001A001A001A001A074
:10C0C40001A001A001A037370040834747009946EB
:10C0D4004111BD8B638CD70231476384E706114756
:10C0E400639EE702A303010017460000034686008F
:10C0F40037370040834771006315F6022C0013851F
:10C10400415F978001E0E78000AE09A883475700AC
:10C1140093F7F70F2304F100834781004101730073
:10C12400203083477100834687000C08AE97238C28
:10C13400D7FE83477100850793F7F70FA303F10038
:10C1440055BF280097E001E0E78020CD1375F50F77
:10C15400A303A1000346710055B737370040834756
:10C16400474099464111BD8B638CD70231476384A4
:10C17400E7061147639EE702A30301001746000088
:10C18400034666F737370040834771006315F602AC
:10C194002C0013858160978001E0E780C0A409A882
:10C1A4008347574093F7F70F2304F1008347810037
:10C1B40041017300203083477100834687400C0897
:10C1C400AE97238CD7FE83477100850793F7F70F4B
:10C1D400A303F10055BF280097E001E0E780A0D554
:10C1E4001375F50FA303A1000346710055B7374734
:10C1F40000408347478099464111BD8B638CD70229
:10C2040031476384E7061147639EE702A3030100F5
:10C2140017460000034616EE374700408347710077
:10C224006315F6022C001385C161978001E0E78055
:10C23400809B09A88347578093F7F70F2304F100E5
:10C244008347810041017300203083477100834696
:10C2540087800C08AE97238CD7FE8347710085072F
:10C2640093F7F70FA303F10055BF280097E001E00F
:10C27400E78020DE1375F50FA303A10003467100C8
:10C2840055B737470040834747C099464111BD8B96
:10C29400638CD70231476384E7061147639EE70244
:10C2A400A3030100174600000346A61537470040C4
:10C2B400834771006315F6022C0013850163978090
:10C2C40001E0E780409209A8834757C093F7F70F2E
:10C2D4002304F10083478100410173002030834728
:10C2E4007100834687C00C08AE97238CD7FE834722
:10C2F4007100850793F7F70FA303F10055BF2800DA
:10C3040097E001E0E780A0E61375F50FA303A10011
:10C314000346710055B7411122C6371400408357B4
:10C32400C40913973701635B0700BD45014597C0F6
:10C3340001E0E78060FB8567231EF4083244410175
:10C3440073002030411122C6371400408357E4099A
:10C354008357E409139717016359070097C001E055
:10C36400E780A0F09167231FF40832444101730071
:10C374002030B7170040930670052380D7041307B5
:10C3840080FA2380E7040100010003C6B704137692
:10C39400F60DA385C70423800704137605024DC256
:10C3A40003C6A700118A1DE22380D7042380E70473
:10C3B4000100010003C7A700136747002385E700B6
:10C3C4009307004B01000100FD17EDFFB717004074
:10C3D400930670052380D704130780FA2380E704AB
:10C3E400010001007D892394A700010001000100E0
:10C3F4000100238007042380D7042380E70401007D
:10C404000100010001003727004093061005A30333
:10C41400D78023800704B7170040130770052380D3
:10C42400E704130780FA2380E7040100010003C72F
:10C43400B70413670708A385E704238007048280F1
:10C444001376050441C603C6A700418A1DE2238072
:10C45400D7042380E7040100010003C7A700136782
:10C4640007012385E7009307007D01000100FD1704
:10C47400EDFFB7170040930670052380D704130718
:10C4840080FA2380E704010001001376F5011366A6
:10C4940006042394C7000100010001000100238069
:10C4A40007042380D704130660042380E704631879
:10C4B400C5000100010037270040894689BF0100FB
:10C4C4000100372700409306200591B72380D70445
:10C4D4002380E7040100010003D787001367070CDA
:10C4E4002394E7000DBF4111814601468145114562
:10C4F40006C66922B7170040130770052380E704B6
:10C50400130780FA2380E7040100010003C76704CE
:10C51400136717002383E70423800704B240410113
:10C5240082808146014681451145892AB71700401A
:10C53400930670052380D704130780FA2380E70449
:10C54400010001007D562396C7022380D70423806F
:10C55400E7040100010003C767041367170023837E
:10C56400E7042380070401A0BD473305F502010059
:10C574007D1575FD8280411122C426C206C6AA8497
:10C58400014463179400B2402244924441018280E2
:10C5940005041305803E4204C13F4180DDB7B7174F
:10C5A4000040130700032388E7028547174700006C
:10C5B4002326F7FA73002030411106C6852DFDBFEE
:10C5C4002303048015472303E48001002302A4808D
:10C5D400828083076480E3CE07FE23030480828085
:10C5E40083076480E3CE07FE03454480828083078B
:10C5F4006480E3CE07FE2302A4808280411126C416
:10C604004AC24EC006C61377F50BAD47AA892E89D8
:10C6140095446306F70019456537653F8D444E859B
:10C624004537FD59FD1463983401B240A2441249C0
:10C63400824941018280135509011375F50F453F65
:10C644002209CDB7011126CC06CEB7040800513714
:10C654001545BD37713769372AC6A53F32459377EB
:10C66400150089EB136515001375F50FF240E244CC
:10C6740005618280FD14E9FC0145CDBF397126DCDA
:10C684004ADA4ED852D656D45AD25ED006DE62CE9C
:10C6940066CCB7E700E07D5783AA070022C603AA49
:10C6A400470023A0E71823A2E718B7170040130791
:10C6B40070052380E704130780FA2380E70483C707
:10C6C4004704930B75FFB684E20793FBFB0F854683
:10C6D400AA892E8B328937240040E187015763FAF7
:10C6E40076016308D5008946130700026313D50059
:10C6F4000157D98F93F7F70FB71C00402382FC042E
:10C7040011472303E4801305F00F5D3D094CD13537
:10C71400636D7C11B7050700DA95378707007955F3
:10C7240063F2E504B3879500636EF702370B0800E4
:10C73400A94733EB65016399F90689E48144513DC6
:10C7440026850DA0DA850945553D05090345F9FF00
:10C75400FD14050B693D81C49377FB0FFDF7DD35AF
:10C7640069FD7D55B7170040130770052380E70462
:10C77400130780FA2380E70403C74704418B23820D
:10C78400E704F250B7E700E023A0571123A24711B2
:10C79400E25432445259C259325AA25A125B825B51
:10C7A400724CE24C21618280A5476395F906856944
:10C7B4001309F00FB3069900B3742B01B69413490F
:10C7C400F9FFB3749900856B33796901416B9387E1
:10C7D400F9FFB3F7270199E363FC340193D94900C6
:10C7E400C147E3E637FF99BF0569C1697D19D9B728
:10C7F4001305800D638869011305000263847901C0
:10C8040013051008CA85DD3B353D21DD4E99B384FF
:10C814003441D9B7DA852D45D533CA94E30099F26A
:10C8240005097D3BA30FA9FED5BF9387F9FF93F7B5
:10C83400F70F6361FC0C83C71C0413073008631FE4
:10C84400F70437070800636BEB04B3079B00B706D4
:10C85400100063F5D704334BEB0089476393F90663
:10C864008980D549E38C04ECDA850945413B1109FB
:10C874000327C9FF91472320E48003076480E34E24
:10C8840007FE23033481FD17EDFBFD14110B81C456
:10C894009377FB0FE9FF7D3371F5E1B5B7170040DE
:10C8A40003C75704B70708001377070219E3B787CC
:10C8B40007007955E378FBEA33079B00E3FFE7F8C9
:10C8C40055B58547E382F9F2DA852D45053B938911
:10C8D400F4FFE38504E6293393F7390091EB8326CB
:10C8E40004800327090093074900E39AE6E43E899C
:10C8F400CE84F1BFB5476396F9001305900BC93197
:10C9040035BDB1471305B00AE38BF9FE994763912E
:10C91400F904B7050800B365BB002D45C531814452
:10C924008D4BA149753963967401832704802320B4
:10C93400F9008504E39834FF8327048013172B013F
:10C94400635507002312F900D5BB2322F900FDB378
:10C954009D476399F90281451305B0044531BD44EF
:10C964002320090023220900FD599D3993F77400FF
:10C97400CA9703C70700FD14398D2380A700E396E7
:10C9840034FF6DBBA1476392F9046D398144630D93
:10C994000B008D479304C0036308FB009304000558
:10C9A40063048B01930440041375C507E30895D809
:10C9B4001945393139390545213126850D3909455E
:10C9C4003D314931E31C05D669BB91476399F900B0
:10C9D40013056006F536F53E130590090DB7E38F90
:10C9E40009D4F154A9BB19CD91CD09CE8147338720
:10C9F400F500834607003307F50085072300D700B9
:10CA0400E317F6FE828019C991C909CA910583A763
:10CA1400C5FF11057D16232EF5FEC5BF828001C911
:10CA240019C62A960505A30FB5FEE31DA6FE82804E
:10CA340081473307F5000307070019E33E85828029
:10CA44008507C5BF01112E8626CAAA8413150601BF
:10CA54009305F004418122CC06CE32C6EF108063E8
:10CA64002A8401C53246A685BD3F2285F240624430
:10CA7400D24405618280854715C18DC105C28147B5
:10CA8400B306F5003387F50083C6060003470700A5
:10CA94006398E6008507E315F6FE85473E858280A8
:10CAA4008147EDBF9307F6FFBE952A966313C50031
:10CAB4008280FD1583C715000505A30FF5FEFDB79C
:10CAC400AA87014581CF09CE3E96850703C7F7FFA4
:10CAD4006317B700E39BC7FE05458280828001454A
:10CAE40082807971975700009387077022D480431E
:10CAF40006D626D24AD04ECE52CC56CA5AC85EC6A4
:10CB040062C45DCC37C9C901814B175A0000130AAE
:10CB14002A72975400009384646D1309F937975A65
:10CB24000000938A2A67B709C0A8370B4057835778
:10CB3400240095E35C44639D0B00175700002325F4
:10CB4400F76A032CC4002285EF10E061628499A87F
:10CB540023A6FB00FDB783270A008297838664011E
:10CB64001C4463DB06063307F5406367E9089757FF
:10CB7400000023A90762835524000345040097306D
:10CB840002E0E78060875C405844A9CF1444B6971C
:10CB94008386640163C5060063E33701DA971CC426
:10CBA400A28B3A8449F4975700009387A75E9C4B65
:10CBB40009476378F706F917175700002324F75E2F
:10CBC400B250225492540259F249624AD24A424B18
:10CBD400B24B224C45618280E377F5F83387F94004
:10CBE4002A9761B763970B009757000023AEE75E5F
:10CBF40089BF23A6EB00B1B7D85009CF63DF060085
:10CC04003385A74083A70A016376F5009757000090
:10CC140023AAA758A28B404471B7E3F3A7FECE978B
:10CC2400C5B79757000023AF075659BF411122C417
:10CC340017540000130404591C4006C626C24AC0F7
:10CC440091C782979757000023AE07565C4091C363
:10CC540082971C406391071C9757000083C7177580
:10CC6400858B9DC797570000A38207741757000050
:10CC74000347F773954763FDE700EF00504197576B
:10CC8400000083C7D772F5178A07A2979C4382973F
:10CC940017590000130949758347C900918B99C33B
:10CCA400EF10A0321C4491C38297975400009384E0
:10CCB40064539840175600000346D64D975700001A
:10CCC40083C7474D93961700BA9683D60600D5CAF4
:10CCD4009757000083C7074C63EFC70A97570000B4
:10CCE400238A074A1C40639807129757000083C79A
:10CCF400376C91CF9757000083C7776B89EB9757B1
:10CD04000000A387076A97C003E0E780E0579757BE
:10CD140000009387E7519C43638F070EB707C0A8B1
:10CD2400175700002320F7486D3B9757000093875F
:10CD3400E74BDC53EDC3175700001307A745184B07
:10CD44009757000083C7D74B6367F70C175700004A
:10CD54000347F765954763E0E70C8347C900918B68
:10CD6400DDEB90409756000083C6D64263CBD70ACA
:10CD74002244B240924402494101172302E0670071
:10CD8400C344850793F7F70F975600002384F640B2
:10CD9400E3E6C7F235BF86073E97835507002310A5
:10CDA400070097570000239D074297570000938779
:10CDB40027419C43175500000345C53D1317250023
:10CDC400BA979C4382979757000083D767411757B8
:10CDD40000000347273C93C7F7FF7D8D9317170087
:10CDE40098403E97835707005D8D2310A7009757FF
:10CDF400000083C7273A91C7850717570000230B04
:10CE0400F738175700000347E7389757000083C7E0
:10CE14007738E375F7ECB240224492440249410169
:10CE24008280139717003297035707006DF7850721
:10CE340035BFAD6737C70040BD072326F7200F1065
:10CE44000000975700009387E734C84F832787264D
:10CE5400BD66BD0693C7F7FF99836A052326D720CD
:10CE64005D8D82804111B7170040985F3AC6945F88
:10CE74003247E39CE6FE32454101828082800327EB
:10CE8400851163000712411122C406C68347C500F9
:10CE94008345C5042A8493F7C70F2306F500834608
:10CEA40097000356C70013958601618563F1C50891
:10CEB400635A05060345870093F6F607A304D700D3
:10CEC400054693E627006314C50093E6170023067E
:10CED400D4005C4389075CC3A30AB400032504118E
:10CEE4002E864C43090501368327841103465401D9
:10CEF400D44303D7C700B296118FD4C32396E70057
:10CF04008947A30DF400034744039757000083C7E0
:10CF1400072F6378F7048347C40093E707012306C8
:10CF2400F40081A093E717002306F40075B7937605
:10CF3400F60F635D050203458700854513E6270068
:10CF44006314B50013E617002306C400A30AD40033
:10CF5400A30407008547A30DF400832784119C4391
:10CF6400DDF3B240224401454101828093E717007A
:10CF74002306F400A30AD400A30407000325041124
:10CF84004C4309058D348327841103465401D4434B
:10CF940003D7C700B296118FD4C32396E7008D47F9
:10CFA4005DBF05458280975700009387673E9C4389
:10CFB400411122C406C6858B2A84C5EF4165130539
:10CFC40025F5973003E0E780205345C58347A50046
:10CFD4002315F50083270412BDE72320A41223227E
:10CFE400A41285472310F404232005008347640119
:10CFF40054412316F5000347D4002304E5000547F4
:10D00400A304E500175700001307073A184F1385C8
:10D01400170215811C437D151375F50F9CC25C43E3
:10D02400DCC21C479CC65C47DCC61C4B9CCA5C4BE0
:10D03400DCCA1C4F9CCE5C4FDCCE19CD9386060215
:10D0440013070702C1BF8327441288C3835704040C
:10D054002322A412850779B79757000083D7074284
:10D06400850717570000231BF740B24022444101B3
:10D0740082808347C40023090400054593C7470001
:10D084002306F400DDB78347850193F7E70FD5EF57
:10D0940083479501DDEB034625018346C50009CA94
:10D0A40083454503175700000347771563E7E500F9
:10D0B40013F7060141CF014709C6C18A0357651C0E
:10D0C40081C68356A51C369751C31307C71217553B
:10D0D40000000355A50EB335A70237460F004111D2
:10D0E40013060624814622C426C206C67D5433058F
:10D0F400A702978004E0E78000729757000083C777
:10D104007710B384A700975700009387A73603A727
:10D1140007098327070963F387003E84184375FBD7
:10D12400975700009387C7109C4382978147636495
:10D13400A400B307A440B2402244B3B7970093C7F6
:10D14400170092443E854101828081473E8582805A
:10D15400797126D206D622D44AD04ECE52CC56CAA3
:10D164005AC85EC68347350303447513AA843E94A4
:10D174001374F40F9307400263F687001304B4FD9D
:10D184001374F40F03AA841383AAC413A38B841205
:10D1940022865285D685978004E0E780406205891F
:10D1A40015E503CBD41201498149337B6403930B06
:10D1B40050024A865285D685978004E0E780206035
:10D1C400058915C5639169031374F90F238B8412C0
:10D1D400B250225492540259F249624AD24A424B02
:10D1E400B24B456182808509E20993D989410509D9
:10D1F400E31179FDE1BF832785090356E5037971BE
:10D2040093D60701BD8EC206C182358E1357764070
:10D2140093575640898B058B5D8F93573640918B7E
:10D224005D8F93571640A18B5D8F93171600C18BAA
:10D234005D8F9317360093F707025D8F931756009F
:10D244009355860093F707041E065D8F1376F60F39
:10D25400518F93D7554013D63540118A898BD18F7E
:10D2640013D67540D18F13D61540218AD18F1396CA
:10D274001500418AD18F1396350013760602D18F9B
:10D2840013965500137606049E05D18F93F5F50F7A
:10D29400CD8FA20745465D8F3307C70222D42A8467
:10D2A40026D252CC56CA032A8413832AC4135AC8DA
:10D2B40006D6369742074183935777401355574014
:10D2C4000989858BC98F135537401189C98F135527
:10D2D40017402189C98F131517004189C98F131568
:10D2E400370013750502C98F13155700935587002E
:10D2F400137505041E07C98F1377F70FD98F13D53C
:10D30400354013D755401189098B498F13D5754082
:10D31400498F13D515402189498F139515004189EB
:10D32400498F1395350013750502498F13955500E0
:10D33400137505049E05498F93F5F50F4D8F22074C
:10D34400D98FB387C7024AD04ECE5EC662C4B697A1
:10D35400C207C18313D7774013D557400989058B7A
:10D36400498F13D537401189498F13D51740218927
:10D37400498F139517004189498F13953700137509
:10D384000502498F1395570093D58700137505043B
:10D394009E07498F93F7F70FD98F13D5354013D7CD
:10D3A40055401189098B498F13D57540498F13D581
:10D3B40015402189498F139515004189498F13958B
:10D3C400350013750502498F13955500137505042F
:10D3D4009E05498F93F5F50F4D8F2207D98FB3879B
:10D3E400C702130650025285D685B697BD8E939414
:10D3F4000601C18033F6C402137BF60F978004E064
:10D40400E780E03B05890DED8347D412014981494A
:10D41400B3849702130C5002C1804A865285D68584
:10D42400978004E0E780A0390589937BF90F11C543
:10D4340063863403850993F9F90F0509E31F89FD10
:10D44400230B6413B250225492540259F249624A93
:10D45400D24A424BB24B224C456182805E8BCDB79F
:10D46400011122CC604126CA4AC84EC652C406CE17
:10D47400AA841D4A130965058549BC446364F40004
:10D48400054581A803C7D40083474400631B4705AF
:10D4940003C784026304F7000040C5B70347540080
:10D4A40083C75405E31AF7FE1946CA8513056400B9
:10D4B400EFF06FDCE31235FF0347C40083C7940227
:10D4C400E31CF7FC0357E40083D7A402E316F7FC3C
:10D4D4000145F2406244D2444249B249224A0561BC
:10D4E4008280E31BF7FA0347540083C75405E3150E
:10D4F400F7FA1946CA8513056400EFF0CFD7E31D88
:10D5040035F9F9B70111975700009387A7F622CC94
:10D5140003A4470B26CA06CE2AC42EC6854419E4A2
:10D524000145F2406244D244056182808347910000
:10D5340003471400858B6304F7000044CDB71946F4
:10D544009305A10013052400EFF0EFD2E31795FE35
:10D554000545C1BF011122CC17540000130484E611
:10D5640018402AC62EC432C206CE3C4B93F7F7F7B6
:10D574003CCB97C003E0E780E0CD1840975600000D
:10D58400938686E13C4B93E707083CCB9C423245AB
:10D59400A24523A0070003471500034825002207DE
:10D5A4004208429703480500429703483500620841
:10D5B400429798D70347550003486500220742085D
:10D5C4004297034845004297034875006208429712
:10D5D400D8D7034795000348A5002207420842977D
:10D5E4000348850042970348B5006208429798DBD8
:10D5F4000347D5000348E500220742084297034841
:10D60400C5000345F500429762052A97D8DB03C796
:10D61400150003C52500220742052A9703C5050006
:10D624002A9703C5350062052A9798CF03C755008A
:10D6340003C56500220742052A9703C545002A97BA
:10D6440003C5750062052A97D8CF03C7950003C5A3
:10D65400A500220742052A9703C585002A9703C51A
:10D66400B50062052A9798D303C7D50003C5E50022
:10D67400220742052A9703C5C50083C5F5002A97EA
:10D68400E2052E97D8D3D843759BD8C3D8431367E4
:10D694001700D8C398431367170098C312469842DB
:10D6A4005C43858BD1E71C4F01452300F6009C4267
:10D6B4009C4FA183A300F6009C429C4FC18323018D
:10D6C400F6009C429C4FE183A301F6009C42D84F94
:10D6D4002302E600D84F2183A302E600D84F4183FA
:10D6E4002303E600D84F6183A303E6009853230481
:10D6F400E60098532183A304E6009853418323054D
:10D70400E60098536183A305E600D8532306E60098
:10D71400D8532183A306E600D85341832307E600A8
:10D72400DC53E183A307F600F24062440561828082
:10D734000100B5B717570000130747C6144341113A
:10D7440022C49C5E4AC006C6998326C2858B3A844D
:10D7540017590000130949C4D1CB9C5E97540000AB
:10D76400938484C493F7F7F99CDE175700000347AA
:10D7740007C493070008631BF700832709009C4331
:10D7840093F70704175700002303F7C283C7040065
:10D7940093F707049DC397570000938767A99C4399
:10D7A40082979757000023A9A7C083C7040093F763
:10D7B400F70B175700002309F7BE83C7440093F7FC
:10D7C40007048DE7854717570000A301F7BE975755
:10D7D4000000938727BF9C43096798C7130700FC81
:10D7E400975600002384E6BCD844F8D31C40985FC5
:10D7F4001183058B09CB985F3D9B98DF05479756AE
:10D8040000002385E6BA985F1D83058B11CB985FD2
:10D814001377F7F798DF8547175700002308F7B801
:10D8240083270900D8430583058B19C7D843759B03
:10D83400D8C3D843799BD8C3B24022449244024906
:10D8440041018280397106DE16DC1ADA1ED82AD626
:10D854002ED432D236D03ACE3ECC42CA46C872C654
:10D8640076C47AC27EC0F935F250E2525253C253A2
:10D874003255A255125682567247E2475248C24860
:10D88400324EA24E124F824F2161730020309757BF
:10D894000000938727B39443975700009387C7B03A
:10D8A40003C70700058B11CB97570000238007B0EF
:10D8B40097570000A38C07AE828003C71700058B1F
:10D8C40065F7F85271FF83C75700DDB7175800009A
:10D8D4001308C8AC032708001C5F9583858BD1E728
:10D8E40009C61C5BBD832300F60085CA8327080094
:10D8F400985B4607935767016356070093E707C091
:10D90400C207C18303970600C207C18709C7BA9734
:10D914000947B3C7E7022390F60085CD8347150076
:10D924008DCB9756000083C686A893F6060413870A
:10D93400970089478DCA3A9503470500854699475C
:10D944001376F7066311D60262076187B947634C01
:10D954000700832708009C5FED838D8B1757000019
:10D96400A309F7A481473E8582808547EDBF411115
:10D9740022C406C6175400001304C4A4184049E97D
:10D98400AE877453FDFE3E85B28597570000238E03
:10D9940007A097B003E0E780E06197570000938702
:10D9A400E79F9C43B70680009843558F98C3D85788
:10D9B400719BD8D797570000A38A079E97570000FA
:10D9C400A384079E1C40094798C3B7F700E003A748
:10D9D40007D16D9B23A8E7D003A707D15D9B23A89C
:10D9E400E7D0730050101440175700001307C79B6B
:10D9F40083472700858B89EB83473700858BD9C7FD
:10DA0400975700002384079AB24022444101828040
:10DA14008D476310F50297570000938727989C431E
:10DA2400B70680009843558F98C3D857719BD8D7B1
:10DA34005DBF8547E319F5FAB567BD075CC70F10ED
:10DA440000001C400967094698C7130700F8975659
:10DA54000000238DE69417570000130727941443FE
:10DA6400984231830D8B6319C7001307E043F8D341
:10DA74003D673D07D8C785BF984231830D8B01E7C9
:10DA840013076019EDB71307E01BD5B7FC52ADF3CC
:10DA9400A5BF5D7152DC175A0000130A2A900327B0
:10DAA4000A0086C6A2C4A6C2CAC04EDE1C43975949
:10DAB40000009389E995175900001309A99093F779
:10DAC400F7E793E707081CC383A609003707CEFFCF
:10DAD4007D179C46130680022A84F98F9CC68327EF
:10DAE4000900130700082800B8CBAE84930510087A
:10DAF400EFE0FFF297B003E0E780C07597C003E062
:10DB0400E780C08283270A009376F41F370FFCFF57
:10DB140023A40700984B4E88CA881367F70398CB51
:10DB2400F84F130510F8D285137707E0558FF8CF17
:10DB34009843F576FD16758F98C39843B70633005E
:10DB4400B70204001377F7E798C398439303401F81
:10DB54007D1F1377F7E71367071098C303A709001E
:10DB6400930F800285491C47D58F1CC78327090062
:10DB74001307900D3400B8CB1149014713533700F4
:10DB840026938347030013767700B3D7C740858B6A
:10DB9400DDCF9C41832E0800239C070423900706B5
:10DBA40003AECE02137EDEFF23A6CE0383AE0700B0
:10DBB400137EF70793FE0EF833EECE0123A0C701C0
:10DBC40003AE4702336E5E0023A2C70383AE080090
:10DBD400014E23A27E0603DA070663074E0303AE53
:10DBE4000703038A0600135EFE00620E135E8E4175
:10DBF4006358CA0103AE0703135EFE002380C60107
:10DC040003DE0706137EFE0F03AA4E0663060A0010
:10DC140003DA8705E37F49FB03AE4702337EEE0157
:10DC240023A2C70383870600635CF400034E03004A
:10DC34003396C9001346F6FF3376C6012300C300AA
:10DC44003E8663D3A7002A861315860161850507DE
:10DC54001377F70F8506E313F7F3B640264496448B
:10DC64000649F259625A61618280974600009386A0
:10DC740066759C42D84713161701635506029847E8
:10DC840013161701635006027D57B8D717470000D3
:10DC940013074750584F050717460000232AE6503C
:10DCA400116798C798470D83058B1DC3174700005C
:10DCB4000347A76F13671700174600002307E66E94
:10DCC400130700F8174600002302E66E214798C7A1
:10DCD4009847058B09CF174700000347F76C136774
:10DCE400170017460000A301E66C054798C798473C
:10DCF4000983058B09E798470583058B31CF98473E
:10DD0400174600001306466A174500001305056907
:10DD14000983058B630307101841184331830D8B66
:10DD240075EBAC4B184E93F5050203471700CDCDA8
:10DD340079EF13077006D8CF03470600136717005F
:10DD4400174600002302E666114798C718415C573E
:10DD5400F19B93E717005CD79C42984793163701D1
:10DD640063D606029746000083C60678C18A174721
:10DD7400000013072770C5CE034747071367070240
:10DD8400974600002382E676056798C7984793165E
:10DD9400270163D106021747000003472761620782
:10DDA4006187635707000547974600002380E660B4
:10DDB400096798C798479316070163D606029746E2
:10DDC400000083C67672858A174700001307876AA6
:10DDD400ADCE034757071367270097460000A38576
:10DDE400E670216798C7828029D785456315B700F7
:10DDF4001307B00689B789456315B7001307F00602
:10DE04001DBF8D456315B700130730072DB71307E2
:10DE1400500715B71307600739BF03473600136768
:10DE2400170017460000A302E658094739BF834686
:10DE340047070946BD8A6388C600034747078D46DE
:10DE44003D8BE313D7F4114725BF83465707918AC7
:10DE5400C9DA034757071367870041B7397106DEEC
:10DE640016DC1ADA1ED82AD62ED432D236D03ACEBE
:10DE74003ECC42CA46C872C676C47AC27EC0F53366
:10DE8400F250E2525253C2533255A25512568256A0
:10DE94007247E2475248C248324EA24E124F824F56
:10DEA400216173002030174700001307E7518346B0
:10DEB400B7019747000083C7F7534C4BB697FD8BC8
:10DEC40033D7F50097460000A380F650974600002C
:10DED400A382F652058B15EF174700000347D7516D
:10DEE400B3F7E702814601471305000233D6E50084
:10DEF400058A1378F70F19CA6397D700974700006C
:10DF0400A384074D8280850693F6F60F0507E31F69
:10DF1400A7FC828097470000938787319C430111B7
:10DF240022CC4EC606CE26CA4AC852C456C28297CE
:10DF3400974700009387474B804781496305A406B0
:10DF4400BE84974700009387672A038767013E8949
:10DF540063550706018D135455009747000083C786
:10DF640047489379F501636DF402370AC0A8B70AEC
:10DF74004057153F9C449746000083C68646139736
:10DF840056003E9783076901158C63C507006363D8
:10DF9400470156979747000023ACE744E37BD4FC42
:10DFA4001604B3693401F24062444E85D2444249B6
:10DFB400B249224A924A05618280E37D85F8B70717
:10DFC400C0A833848740229579B797470000938788
:10DFD40027269C43411122C406C626C2829797472E
:10DFE40000009387674080476309A406BE8497476F
:10DFF40000009387A71F8387670163D80704018DF7
:10E00400135455009747000083C7A73D6367F40482
:10E01400593D98449747000083C7A73C93965700FF
:10E0240036971D8C9746000023A4E63CE372F4FE69
:10E034002244B2409244174500000345F538814517
:10E04400410117B303E067008375E37A85FAB707E4
:10E05400C0A833848740229565B7B24022449244D5
:10E0640041018280974700009387873A9843B757C6
:10E0740002009387079F8326070913965600635867
:10E084000600832607091396660063440600FD17FD
:10E09400FDF3828071C5AA870145E9C58D07C207D2
:10E0A400C183F19BC207C18313074003636FF70267
:10E0B400174700001307C73B08431747000013071F
:10E0C400A73A14436398A6021747000013070712E0
:10E0D400185B014541CB4111C20706C60545DD8DDC
:10E0E4000297B2400145410182801747000013079F
:10E0F400E737D9B70357650035E303574500636F26
:10E10400F704B306F7402146637CD60203280500D2
:10E11400938687001D8FAA96611717460000035641
:10E12400C6072392E60023A006012393060014C128
:10E134002312F500130786FF97460000239FE60489
:10E144002313B5009745000083D52505B387F54013
:10E15400174700002313F7042105828008419DB767
:10E164000145828082800DC1974700009387473024
:10E1740003A30700974700009387072F83A807008E
:10E1840081469A8763E31701828003A80700636DC1
:10E19400F50A636BA80A13878700E367E5FE03D6D5
:10E1A4006700216705076317E60003C7C19A0507DF
:10E1B4002386E19A974500009385C5FD03D6470061
:10E1C40003D765002393070032974207418317451D
:10E1D40000002314E5FC638A670217450000130559
:10E1E400E52808416303F50203D5660019ED83D7DA
:10E1F400460023A0060121073E9621062392C6006D
:10E2040097470000239BE7F8B6879843E30E17F778
:10E2140097460000938686259442E307D7F68356F3
:10E224006700BDF283D64700035647001843A10692
:10E23400B2962392D70098C383D76500A1071747E6
:10E244000000231CF7F48280BE86C28725BF01111B
:10E25400974700009387072222CC03A4C70B26CA42
:10E264004AC84EC606CEAA8413092500854915C09E
:10E2740083C7140003473400858B6304F700405CB4
:10E28400FDB71946930544004A85EFE0CFFEE31835
:10E2940035FF2285F2406244D2444249B2490561C5
:10E2A40082804111974700009387C71C22C403A4AE
:10E2B400C70B26C24AC006C693042500054901E8D7
:10E2C4002285B24022449244024941018280A685BB
:10E2D4001305A402977004E0E780A003E30225FF7E
:10E2E400405CF1BF4111974700009387A71822C4EF
:10E2F40003A4C70B26C24AC006C6930425000549D9
:10E3040001E82285B24022449244024941018280BC
:10E31400A6851305A401977004E0E78080FFE3025B
:08E3240025FF405CF1BF000081
:10E330009751FF1F938101B717A1FF1F130181CCD4
:10E3400017E5FFFF130545CC9725FF1F938585CB68
:10E350001746FF1F130686FD63FAC50083220500DA
:10E3600023A0550011059105E3EAC5FE17850400B9
:10E37000130545AC9745FF1F938545FB1386018721
:10E3800063FAC5008322050023A0550011059105FD
:10E39000E3EAC5FE138501879785FF1F9385851FD7
:10E3A0006377B500232005001105E36DB5FEFD423E
:10E3B000739002BC8D4273904280B722000093821A
:10E3C000828873A002309722FF1F9382A2C393E238
:10E3D000320073905230971201009382E21C7390C6
:10E3E0001234730020303D432A876373C30293774E
:10E3F000F700BDEFADE5937606FF3D8ABA960CC3F4
:10E400004CC30CC74CC74107E36BD7FE11E28280B7
:10E41000B306C3408A069702000096966780A6005E
:10E420002307B700A306B7002306B700A305B7006C
:10E430002305B700A304B7002304B700A303B70064
:10E440002303B700A302B7002302B700A301B7005C
:10E450002301B700A300B7002300B700828093F523
:10E46000F50F93968500D58D93960501D58D61B7EF
:10E47000939627009702000096968682E78086FA98
:10E480009680C1171D8F3E96E374C3F8A5B7336716
:10E49000B500FD530D8B79E7B7877F7F9387F7F73B
:10E4A00010419441B372F6003363F600BE92B3E2BA
:10E4B00062006397720C6318D6065041D441B37260
:10E4C000F6003363F600BE92B3E262006398720A0C
:10E4D000631BD60410459445B372F6003363F6000F
:10E4E000BE92B3E262006391720A631ED602504587
:10E4F000D445B372F6003363F600BE92B3E2620015
:10E50000639A72086311D60210499449B372F600F7
:10E510003363F600BE92B3E2620063937208510562
:10E52000D105E30FD6F61317060193970601631C76
:10E53000F7001357060193D706013305F74093758B
:10E54000F50F91E982804183C1833305F7409375CC
:10E55000F50F91E182801377F70F93F7F70F3305EB
:10E56000F74082800346050083C605000505850542
:10E570006313D60065FA3305D640828011059105F4
:10E58000E312D6FE014582802105A105E31CD6FCDD
:10E59000014582803105B105E316D6FC0145828034
:10E5A0004105C105E310D6FC0145828001471146B3
:10E5B0004148B386E5008147B308F50083C80800E9
:10E5C0008507C10623A816FFE398C7FE11071105AA
:10E5D000E31107FF8280935785019CC19357054142
:10E5E00093F7F70FDCC19357854093F7F70F137537
:10E5F000F50F9CC5C8C582801C4141111307050158
:10E600003EC05C413EC21C453EC45C453EC693973D
:10E6100025001408B69783A707FF85051105232E4B
:10E62000F5FE8D89E315E5FE41018280397122DC1A
:10E630004166138481A206DE26DA4AD84ED652D429
:10E6400056D25AD05ECE93050501A2863708FF0048
:10E650007D1683070500034735001105E207D98FB2
:10E660000307D5FF9106420733770701D98F0307C8
:10E67000E5FF2207718FD98F23AEF6FEE39BA5FC41
:10E6800081499144930A0101172B0400130B0BF1EC
:10E69000972B0400938B0BEE130AC00293F7340000
:10E6A000032904004844BDE78A85353785450A8536
:10E6B000A1370A871C43110793F6F70093F7070F5A
:10E6C000DA97B69783C70700232EF7FEE394EAFE96
:10E6D000024592476205C2075D8DB2475D8DA24734
:10E6E000A2075D8D93972900DE979C4385093D8D98
:10E6F0003345250108C885041104E39144FBF25019
:10E700006254D2544259B259225A925A025BF24B85
:10E71000216182803345A90008C8F1BF797122D4F4
:10E7200026D24AD04ECE52CC56CA06D62A8A9399C1
:10E7300045000144938A81A213090101C144B30732
:10E740003401D69788438A85793533078A008A87CA
:10E750001443904391074107B18E2328D7FEE399D4
:10E7600027FF1104E31D94FCB25022549254025925
:10E77000F249624AD24A45618280397122DC13042F
:10E78000050106DE22878147C1460C433306F100AE
:10E7900011070CC24C4710083E960CC24C4F10108B
:10E7A0003E960CC29107E392D7FE85450A85A935AE
:10E7B0008945080891358D4508103D3D8147414701
:10E7C000B306F10094421104232ED4FE1408BE9621
:10E7D000944254C41410BE969442910754CCE391D1
:10E7E000E7FEF2506254216182800605937705109E
:10E7F00089C71375F50F1345B5018280411106C60F
:10E80000ED37B2404101D5B781471148C148338641
:10E81000F500B306F500014703AE06003303E6003A
:10E8200005072300C301C106E31807FF9107E39022
:10E8300017FF82809306050117260400130606E6DB
:10E8400013050505138706FF1C43110793F5F70011
:10E8500093F7070FB297AE9783C70700232EF7FEF3
:10E86000E394E6FEC106E31FD5FC82801C41411102
:10E87000FD563EC05C413EC21C453EC45C453EC6A2
:10E880008D47B385B7409307C5001397250010083F
:10E890003297032707FFFD1598C36393D5008D4575
:10E8A0001387C7FF6314F50041018280BA87F1BF67
:10E8B000397122DC1304050106DE22878147C14637
:10E8C0000C433306F10011070CC24C4710083E966A
:10E8D0000CC24C4F10103E960CC29107E392D7FE2B
:10E8E00085450A8561378945080849378D450810EF
:10E8F000B53F81474147B306F10094421104232EEE
:10E90000D4FE1408BE96944254C41410BE96944289
:10E91000910754CCE391E7FEF2506254216182806A
:10E920009306050117260400130646C713050505BF
:10E93000138706FF1C43110793F5F70093F7070FA2
:10E94000B297AE9783C70700232EF7FEE394E6FE47
:10E95000C106E31FD5FC8280411122C406C626C22F
:10E9600085472E846301F50289476318F500224428
:10E97000B24092442E8541018DBD8D47631BF50049
:10E980002E85A535298C2285B2402244924441012E
:10E990008280A5476315F5002E858D35DDB7AD471F
:10E9A000631AF5002E85993D8935AA842285353D67
:10E9B000258DC9BFB5476316F5002E858135AA841C
:10E9C000FDB7B947E311F5FC2E850D3DAA84313D15
:10E9D000A98C2285193D3344950075B7597186D6A7
:10E9E000A2D4A6D2CAD0CECED2CCD6CADAC8DEC67F
:10E9F000E2C4E6C2930605040A87AA879043C107CA
:10EA000041072328C7FE03A647FF232AC7FE03A604
:10EA100087FF232CC7FE03A6C7FF232EC7FEE39F55
:10EA2000D7FC17290400130969DB130A05019309B0
:10EA30000505832C0900032C4900832B8900032B37
:10EA4000C900930A0AFF8A848C406685910A293797
:10EA50008C482A84628509378C50298C5E85ED3D6F
:10EA60008C58298C5A85CD3D218D23AEAAFE910468
:10EA7000E31C5AFD410A4109E39D49FBB650265467
:10EA800096540659F649664AD64A464BB64B264C2A
:10EA9000964C656182806382051493F7F500639E4E
:10EAA00007121571D6C3AA8A3285A2CDA6CB86CF0E
:10EAB000CAC9CEC7D2C5DAC15EDF62DD66DB6AD9FC
:10EAC0006ED73284AE84EFE0434EC147631EF5003B
:10EAD0002285A93E0149130A0106972B0400938B56
:10EAE000EBCF294C63419902FE406E44DE444E490F
:10EAF000BE492E4A9E4A0E4BFA5B6A5CDA5C4A5D5E
:10EB0000BA5D2D618280338B2A010C105A85793CC5
:10EB10008145081021318549081019350810B1398F
:10EB20001C10D2863E8710434107C10623A8C6FEAB
:10EB3000032647FF23AAC6FE032687FF23ACC6FE93
:10EB40000326C7FF23AEC6FEE31FEAFC1727040017
:10EB50001307C7C403280700832D4700032D870030
:10EB6000832CC7005284138607010C4042853ECE99
:10EB70003ACC32CA42C8CD330C482AC66E85E93B2E
:10EB8000B2460C501104A98E6A8536C6F133B246DE
:10EB90004C54A98E668536C6C133B246F2475246FA
:10EBA000358D88C3910742486247E310F6FC410760
:10EBB000B287E391EBFACE85081085098536E39D8F
:10EBC00089F50810B13B08104D3EA9450810B9362B
:10EBD000DA8508101539410931B78280638D051037
:10EBE00093F7F500639907105171CECFAA8932854A
:10EBF000A2D5A6D386D7CAD1D2CDD6CBDAC9DEC7A5
:10EC00003284AE84EFE0633AC1476319F500228590
:10EC1000313C0149138B81A2634D9900BE502E54A3
:10EC20009E540E59FE496E4ADE4A4E4BBE4B6D61F4
:10EC30008280338A29018C0052858D3AA94588004B
:10EC4000F13C138481ABC14A930B00048800DD368C
:10EC50008800B9398800593308408A85AD3A484060
:10EC60000C08953A08440C10BD3248440C18A532E3
:10EC700018018147B306F100944241072328D7FECB
:10EC80001408BE969442232AD7FE1410BE969442CE
:10EC9000232CD7FE1418BE9694429107232ED7FE3C
:10ECA000E39A57FD08011D3B01479C003385E700AF
:10ECB0001C01B305F70081473306F5003388F500E2
:10ECC0001442032808009107B3C6060114C2E39555
:10ECD00057FF4107E31B77FD4114E31964F78800F0
:10ECE000913E8800F136814588000D3CD285880030
:10ECF000213E410915B782809307F00F6385F60A1C
:10ED00002D71232A911023282111B2842326311139
:10ED1000130600102E89AA89930530020A85232E36
:10ED20001110232C81103684EFF0EFEBA28526859D
:10ED3000EFC0C03C13178500935785003365F7007B
:10ED40002310A100A6852286130531009304340008
:10ED50002301810093F4F40FEFD0834393F6F40082
:10ED600089C64D04158C9374F40F1C02A697A685D2
:10ED70000A8517260400130626AC238007F0213BE2
:10ED800026868A854E85EFD0A340230099008320F4
:10ED9000C111032481118324411103290111832905
:10EDA000C110156182808280797122D432844AD068
:10EDB0004ECE2A89AE892285B68517260400130611
:10EDC000A6A726D252CC06D636C6093DB246130AAD
:10EDD00034005285A29623800600834404008347B2
:10EDE000140083452400A204DD8CEFC02031639A17
:10EDF000A40203462400D2854A852380C900EFE09F
:10EE0000A31E254597250400938545A1EFC0C03278
:10EE10000545B250225492540259F249624A456162
:10EE200082802380090025452300090097250400DE
:10EE30009385859FEFC040300145E1BF411106C673
:10EE4000EF801009B240AA8617270400130787A590
:10EE50001756FF1F130606C2972504009385C5A504
:10EE6000114541016FC00042130101DB23229124AF
:10EE7000232021252326112423248124232E3123FA
:10EE8000232C4123232A51232328612303470500F0
:10EE9000930710042A89AE84631FF7700347150097
:10EEA000930740056319F770034725009307E005B2
:10EEB0006313F7702E86AA852545EFC040321306EE
:10EEC000D003A6854A85EFC020492A84635A0500ED
:10EED0003546A6854A85EFC020482A846344050844
:10EEE0009309D4FF9307100363CE37074E8693052B
:10EEF00039002808EFE0430F1C1CBE99172A0400B4
:10EF0000130ACACA238409DED28A8149594B832550
:10EF10004A002808EFC0003E0DC18E09D69983D75C
:10EF200009005547636FF70017270400130707927E
:10EF30008A07BA979C43BA9782878509210AE39882
:10EF400069FD972504009385A5C5CDA89385F4FF99
:10EF5000818D13051400C20581460146C1814A9581
:10EF6000EF30B0638320C12403248124832441240F
:10EF7000032901248329C123032A8123832A4123CE
:10EF8000032B01231301012582801386F4FF018ED8
:10EF90009305140042064182CA95E800EFC0006460
:10EFA0001305D104EFE0630093150501C18113053A
:10EFB000D104EFC0007197250400938525911305B6
:10EFC000D104EFC0203319CD972504009385859097
:10EFD0000545EFC060161755FF1F03452554EF6028
:10EFE000700E49B797250400938505901305D10449
:10EFF000EFC0403019CD972504009385658F0545F6
:10F00000EFC080131755FF1F03454551EF60500EA9
:10F0100091BF972504009385A58E1305D104EFC0F9
:10F02000602D0DC1371700408327C70AA1669725B9
:10F0300004009385658DD58F2326F70A2545EFC0FB
:10F04000A00F0DB7972504009385C58C1305D10437
:10F05000EFC0402A11CD371700408327870AA166E9
:10F06000972504009385858BD58F2324F70AF9B75C
:10F07000972504009385058B1305D104EFC08027E5
:10F0800011CD371700408327C70A916697250400E2
:10F090009385058AD58F2326F70A4DB79725040057
:10F0A0009385058A1305D104EFC0C02411CD37170D
:10F0B00000408327870A9166972504009385058978
:10F0C000D58F2324F70A9DBF9725040093850589D2
:10F0D0001305D104EFC00022972504009385C5884D
:10F0E00031FD972504009385E5881305D104EFC011
:10F0F0006020972504009385A58829F197250400B1
:10F100009385C5881305D104EFC0C01E11C597575C
:10F11000FF1F23A30742B9B5972504009385C58730
:10F120001305D104EFC0001D01C5EF6030691DBD9E
:10F1300097250400938505871305D104EFC0801B34
:10F1400001C5EF60D06E39BD9725040093854586D3
:10F150001305D104EFC0001A01C5EF60D02B19B51B
:10F1600097250400938585851305D104EFC0801889
:10F1700001C5EF908079FDB39725040093858584C0
:10F180001305D104EFC0001701C5EF906078D9BB1B
:10F1900097250400938585831305D104EFC080155E
:10F1A00001C5EF9040777DBB974504009385853777
:10F1B0001305D104EFC0001401C5EFB0A0755DB315
:10F1C00097250400938545811305D104EFC0801273
:10F1D00001C5EFF0E07F79B3972504009385458062
:10F1E0001305D104EFC0001101CD9757FF1F83D73E
:10F1F00027320567D98F1757FF1F231BF7309DB3A1
:10F20000971504009385057E1305D104EFC0800E89
:10F2100009C9FD771757FF1F0357872FFD17F98F70
:10F22000D9BF0346D104A547130606FD1376F60F92
:10F23000E3EAC7D29757FF1F238AC72E971504000A
:10F240009385857A0145EFC0E00329BB1386F4FF5F
:10F25000018E130514004206418297350400938500
:10F26000E5814A95EFC0A01C1754FF1F1304442AE0
:10F2700031C59715040093856578E800EFD0D35128
:10F28000E800EFD09352131605014182EC0013857C
:10F290000163EF80D067971504009385E5781145E9
:10F2A000EFB0906983570400414593E71700175763
:10F2B000FF1F231FF724EFC010246DB19715040022
:10F2C000938545771145EFB030677D55EFC05028E5
:10F2D00083570400F99B05B7953669B11386F4FF8F
:10F2E000018E130514004206418297250400938580
:10F2F000E5784A95EFC0A0131754FF1F130444216B
:10F3000029C1835704009715040093856573E800AD
:10F3100093E717001757FF1F231CF71EEFD0D347A3
:10F32000E800EFD0934813160501EC0041821385E5
:10F330000163EF80D05D9715040093852572114518
:10F34000FDB99715040093852572E800EFD0D344EA
:10F35000E800EFD0934513160501EC0041821385B8
:10F360000163EF80D05A83570400971504009385FA
:10F370006571F99B1757FF1F231CF718C9B7EF805A
:10F38000C0329757FF1F9387A718C85FEFC0733429
:10F39000AE862A86971504009385856F1145EFB0D8
:10F3A000706EC9B6EF60C07175BE172604001306F3
:10F3B000666D971504009385656E114569B5EF80FC
:10F3C000A034971504009385256E35F99715040030
:10F3D0009385856EADB73545EF904048AA84EFC060
:10F3E000532F2A86AE862545971504009385056E12
:10F3F000EFB05069971704009387074D8843A6859F
:10F400001744FF1F1304847DEFC043422328A42226
:10F41000EF80E03903250423EFC0B32BAE862A86A4
:10F42000971504009385456B95BF81450D45EF60A9
:10F43000B025EF8020292A86971504009385856CD6
:10F44000ADBF81453145EF60302481453945EF60DE
:10F45000B02381453545EF603023EF8000272AC671
:10F46000EF806027B2462A871746FF1F1306866083
:10F47000971504009385056A1145EFB0B060DDB4BF
:10F480001757FF1F035727989746FF1F9386167F2E
:10F490001746FF1F1306065E971504009385C5697E
:10F4A000E1BF85471757FF1F230AF796EF802030EB
:10F4B000971504009385856959B51757FF1F0347B2
:10F4C000E7958547971504009385C568E319F7E626
:10F4D000C5B785471757FF1FA30DF798EF80202D5D
:10F4E000971504009385C56799BD9757FF1F83C77C
:10F4F00057989715040093852567E38207E4CDB7F5
:10F500009757FF1F9387C700885FEFC0931CAE8695
:10F510002A86971504009385E56549B53D2E0504B7
:10F520004A94314681451755FF1F1305958B971057
:10F53000FF1FE780004F8144930AA400695AB30972
:10F5400094400946CE85E8009710FF1FE780E04908
:10F5500033899A000946CA854E859710FF1FE780B8
:10F56000C0480946EC004A85F9149710FF1FE78050
:10F57000C047E39644FD1946A2851755FF1F1305A2
:10F580005586EFB0B07881451755FF1F1305758577
:10F59000C9222286971504009385055F1145EFB0B7
:10F5A000704E0146970500009385652B1305600991
:10F5B000EF60A00D45BA0146A6854A85EF60006F51
:10F5C00055B27971B1472300F1009307170022D497
:10F5D000A300F10006D62301C1002A848D4715C778
:10F5E00081471386370008101376F60F2A96338565
:10F5F000F6000345050085072300A6FE13F6F70F66
:10F60000E311E6FE0D079377F70F81460147850664
:10F6100013F6F60F6368F6041410BE962380E6FE18
:10F620001387170014101377F70F3697B54623008A
:10F63000D7FE9386270093F6F60F0A862285EFF011
:10F64000C044DD47631CF5002545972504009385DC
:10F6500025C0EFB0702E2285EFF02041B250225429
:10F66000456182803306D100034606003297137746
:10F67000F70F71BF85472A86AE8663E3A70293071B
:10F6800080023307F502938781AD2545BA979847E5
:10F690004D8F98C797250400938545BC6FB0903E69
:10F6A0008280411122C406C683C7F1AD2A8481C776
:10F6B000AA850145C13783C771B099C7A285224485
:10F6C000B240054541017DB7B240224441018280EC
:10F6D00085472A86AE8663E5A70293078002330733
:10F6E000F502938781AD93C5F5FF2545BA979847F5
:10F6F0006D8F98C797150400938505666FB0903895
:10F700008280411122C426C206C683C7F1AD2A8475
:10F71000938481AD91CB98449347F5FFAA85F98FE7
:10F72000014523A0F1AE6D3783C771B091CF9C58CE
:10F730001347F4FFA2852244B2409244F98F23A4D8
:10F74000F1B00545410169B7B240224492444101FC
:10F75000828001114EC606CE22CC26CA4AC883C971
:10F76000F1AD6388090683C771B07D54B9EB854953
:10F77000054493078002B307F402138481AD2E89F8
:10F78000AA841306800281453E9422859710FF1FAC
:10F79000E78020298547A303F40022851946A68522
:10F7A0009710FF1FE7806024CA8523032401268564
:10F7B000EFF02035B74507002A849385F5804E8504
:10F7C000553D2285F2406244D2444249B249056126
:10F7D0008280014479BF011119468145280006CE77
:10F7E0009710FF1FE780E02313060005814513856E
:10F7F00081AD9710FF1FE780C02219469745FF1F74
:10F800009385355E28009710FF1FE7800027854706
:10F810006308F50081451745FF1F1305955C153FEB
:10F8200019469745FF1F9385355C28009710FF1FE9
:10F83000E780A02485476308F50081451745FF1F31
:10F840001305955A39379747FF1F83C7875999C3BF
:10F85000EFC0B035F24005618280411106C6EFF07D
:10F860008033B240130600058145138581AD410107
:10F870001713FF1F6700E31A854763E2A702930788
:10F880008002B307F502138781AD0145B306F70087
:10F8900083C6760091C6B1073305F7008280014523
:10F8A0008280397106DE22DC26DA4AD84ED652D45E
:10F8B00056D283C711876147636BF7088507A38812
:10F8C000F1869747FF1F83C77751ADCB138481AD76
:10F8D000138981B285449759FF1F938969C3130A1D
:10F8E000C003971A0400938AEA4583477400B9C796
:10F8F00083470402638497045C4C03A7C9021D8FED
:10F900009747FF1F83C7974DB38747036364F70289
:10F910001305002023009402EFC0A05C19466C0080
:10F920002285EFB0303A7000D6852545230C0100C2
:10F93000EFB0501513048402E31924FBF250625413
:10F94000D2544259B259225A925A216182800D45AD
:10F95000A3880186B933B5B75D71CAC01389018721
:10F960008347090052DC56DA858B416A856A4EDE90
:10F970005AD85ED686C6A2C4A6C22388F186054B95
:10F98000938981AD930B80027D1A938A0A8003C507
:10F990000187636AAB0C330575034E95044599CC1A
:10F9A0008347750081CFEFF030342A8411ED97152D
:10F9B00004009385E56C2545EFB000788347090086
:10F9C00085072388F186E1B783470500918BFDD732
:10F9D00083568500E38446FF03C60187971504001C
:10F9E0009385456B2545EFB0F0099397C40063DF1D
:10F9F0000708930671001306610093079100380011
:10FA0000930551001305A100EF80B03D8357A1007D
:10FA100013074006971504009385056AB3F7E702BC
:10FA200025452306F10083475100A306F1008347D3
:10FA300061002307F10083477100A307F1008347AA
:10FA400081002308F10083479100A308F100EFB083
:10FA5000A06E194774001306800A8355E40003550D
:10FA60008400EFF01FB683C7018709476385E7006D
:10FA700085072388F186B640264496440649F25904
:10FA8000625AD25A425BB25B6161828093F7140082
:10FA900081CF97150400938565632545EFB0C06954
:10FAA00001477400254655BF93F7240081CF971571
:10FAB0000400938565632545EFB000680147740035
:10FAC000194661BF93F7041085CB97150400938501
:10FAD00025632545EFB0406603C501879307800283
:10FAE0003305F50250006C004E95EF001069034796
:10FAF00041007400094695B793F7042085CB97150C
:10FB00000400938525612545EFB0006303C5018797
:10FB1000930780023305F50250006C004E95EF000C
:10FB2000D0650347410074000D4605BF93F70440BC
:10FB300081CF971504009385655F2545EFB0C05FC1
:10FB400001477400054611BFB3F7540185C79715E7
:10FB500004009385E55E2545EFB0005E9747FF1FE3
:10FB60009387C70783C72720054774002306F10042
:10FB70001146E5B59397340163D907029715040040
:10FB80009385C55D2545EFB0205B9747FF1F9387A1
:10FB9000E70483D7E72274001D4613978700A183EB
:10FBA000D98F2316F10009474DBD9397240163D5E2
:10FBB0000702971504009385255C2545EFB0C057D3
:10FBC0009747FF1F9387870183C717200547740056
:10FBD0002306F100354651B59397140163DD070004
:10FBE000971504009385855B2545EFB0E0540547E4
:10FBF000740039469DB593F7440081CF97150400F2
:10FC00009385055B2545EFB02053014774001546E9
:10FC1000A9B593F7840081CF971504009385C55A41
:10FC20002545EFB060510147740021463DB59397DB
:10FC3000040163DD0700971504009385A55A254547
:10FC4000EFB0804F05477400414601BD9397F40023
:10FC500063DD0702971504009385455A2545EFB0EB
:10FC6000A04D9747FF1F938767F703C7372074009E
:10FC70004D462306E10003C7472083C75720A3064C
:10FC8000E1002307F1000D47C9BB9397E40063DD52
:10FC9000070097150400938525582545EFB0C04906
:10FCA00001477400514655BB9397D400E3D807D061
:10FCB00097150400938505582545EFB0E0470147A7
:10FCC0007400554659BB954763F9C74C5971A6D284
:10FCD000CECED2CC86D6A2D4CAD0D6CADAC8DEC698
:10FCE000E2C4E6C2EAC06EDE328AAE89EFF01007E7
:10FCF000AA84630605121946938581AD9710FF1FEC
:10FD0000E780A0D70544630B85121946938501B09F
:10FD100026859710FF1FE78040D663128510930A4F
:10FD20008002B3075403938A81AD856B814D174DD3
:10FD3000FF1F130DED7D171B0400130BAB03938BFB
:10FD40000B80BE9A5689B384B90103C70400B1473A
:10FD50006312F70C13874D006353470D83CC1400D7
:10FD6000138C3D00B3079C0163D6470BCE9783C627
:10FD70000700B5476390F60A814781463386F40051
:10FD800003461600850793F7F70FB29693F6F60F22
:10FD9000E3F6FCFEB387940183C72700639CD70674
:10FDA0008327CD0283460902232EF90085476397F6
:10FDB000F602130500403AC6EFC0A01219466C08BF
:10FDC0005685EFB02070700897150400938505FBE9
:10FDD000254523040102EFB0E04A3247230009021F
:10FDE00083C73400A5466382D72863E5F60A114726
:10FDF0006381E71E6366F70405476389E712638939
:10FE0000071089466381D7148D466381D718669C95
:10FE1000937DFC0F850D93FDFD0FE3E64DF3B6508A
:10FE2000265496540659F649664AD64A464BB64B6E
:10FE3000264C964C064DF25D656182800144C5B545
:10FE40001947638CE71C63EFE7181D476386E720BB
:10FE50002147E39EE7FA83C7440003C55400A20785
:10FE60005D8DEFB0130F03260B0083264B00EFA030
:10FE7000C346EFC0C310232CA900EFC083052A8618
:10FE8000AE8625459715040093858505EFB0803F24
:10FE9000A14575A0BD46638FD72463E6F6022D47C2
:10FEA000638BE72063E2E7203547638CE72239471D
:10FEB000E39FE7F4971504009385850D2545EFB082
:10FEC000A0279165ADA8D1466382D72663E1F602EB
:10FED00041476384E7244D47E39BE7F2971504000D
:10FEE000938585112545EFB02025C16589A8D546A4
:10FEF0006383D7281307800AE39BE7F09715040074
:10FF0000938545162545EFB02023B705080005A8C1
:10FF100083C7440003C6540097150400938505E782
:10FF2000A2075D8E2545EFB0E035D5B597150400E5
:10FF3000938585E72545EFB0202093050040228575
:10FF4000EFF00FF9E9B583C744006395E702971511
:10FF500004009385A5E62545EFB0001E0965EFB0C6
:10FF60005078171504001305E5E6EF1010559305BA
:10FF70000010F1B72545971504009385A5E6EFB06D
:10FF8000A01B17150400130525E7C5B783C7440058
:10FF90006395E70297150400938505E72545EFB0C3
:10FFA000A0195E85EFB0F07317150400130545E73F
:10FFB000EF10B0509305002059B725459715040060
:10FFC000938545E7EFB04017171504001305C5E703
:10FFD000C5B797150400938525E82545EFB0C015F2
:10FFE000DE85B1BF03C54400EFB0A37603260B0046
:10FFF00083264B00EFA0632EEFB07378232AA9006D
:020000021000EC
:10000000EFB0336D2A86AE8625459715040093859B
:10001000E5E6EFB0202791451DB783C7440003C52F
:100020005400A2075D8DEFB0C37203260B00832638
:100030004B00EFA0832AEFB093742328A900EFB000
:1000400053692A86AE86254597150400938585E574
:10005000EFB040238945E5B597150400938545E643
:100060002545EFB0600D8565D9BD83C7440003C544
:100070005400A2075D8DEFB0C36D03260B008326ED
:100080004B00EFA08325EFB0936F2326A900EFB0BC
:1000900053642A86AE862545971504009385C5E6E8
:1000A000EFB0401E854561BD03C6440097150400AE
:1000B000938545E785BD97150400938525E825457B
:1000C000EFB0800797150400938505E92545EFB04B
:1000D000A0061165EFB0F06091652285EFF08FD931
:1000E0003DB397150400938565E82545EFB0C0043E
:1000F0008965B1B597150400938545EB2545EFB0AB
:10010000A00397150400938525EC2545EFB0C002A8
:100110002165EFB0105DA165C9B7971504009385FF
:10012000A5EB2545EFB04001A16511BD93845D00AD
:10013000990DB387E900CE94CE9D03C6070003C78F
:100140000D0083C6040097150400938525ED254511
:100150003EC6EFB02013B247B705020083C70700C1
:10016000A300F90283C704002301F90283C70D002D
:10017000A301F902E9B3B384E90003C604009715AB
:100180000400938565EC2545EFB0C00F83C70400DC
:10019000B70504002302F9025DB38280411122C435
:1001A00021649305048099460146254506C69700BB
:1001B000FF1FE780E04C930504802244B24099463B
:1001C00013864187294541011703FF1F6700434BF1
:1001D00099E10145828075DD011152C403DA8187FE
:1001E00026CA93548A008504A204C204C18056C260
:1001F000B38A4441C20A22CC4AC82E862E842A8958
:100200009715040093854515254593DA0A014EC6D6
:1002100006CE93894187EFB0E00663ED8A0883D567
:10022000818793F7F50FB1CF8D6783D5818793874A
:100230000780A2864A86BE9529459700FF1FE78062
:1002400020441375F50F29ED83D749001566A29751
:10025000239CF18603D7818783D761876309F700E1
:1002600063F3E700B297998F139607014182254502
:10027000971504009385C50FEFB0C0001375F40FF8
:100280000DA08D6793870780930600100146BE95E9
:1002900025459700FF1FE780A03E1375F50F49D550
:1002A0000145F2406244D2444249B249224A924A4C
:1002B00005618280B3079440D297C207C183A183AE
:1002C00003C74900850793F7F70F9396870011EB53
:1002D0009386170093740AF0A206C204C206C18076
:1002E000C18283D7618763F6F40033879600E3C940
:1002F000E7FA0D6A130A0A800146B38544012545D1
:100300009700FF1FE780C0371375F50F51F983D5AC
:100310008187A2864A86D29505B7411122C41384EB
:10032000418722858145194606C69700FF1FE78051
:10033000406F9307B0FA2300F4008D352244B24099
:10034000971504009385C5F9254541016FA0D05E3E
:10035000A1654111994613864187938505802D45F6
:1003600006C69700FF1FE780A03103C741879307A8
:10037000B00A6303F7005537B24083D6818703D6AE
:10038000618797150400938565F6254541016FA0A7
:10039000706F83D781B20145638C071003D5A1B27A
:1003A0006366F50023A401B2014582803385A7402E
:1003B000D1473355F5021375F50F01E5239401B2CA
:1003C0008280130101BD232481422326114223226E
:1003D000914223202143232E3141232C4141232AC2
:1003E000514195471374F50F63F3A7001544228616
:1003F00097150400938585F92545EFA0B06801495C
:1004000081449389C1B2514AA14A9377F90F03D528
:10041000A1B21747FF1F0347F79263E98704D1474B
:100420003304F4022A94239581B2A147631CF70692
:10043000A6850808EF40407E03D7A1B283D781B2DA
:1004400005456364F70023A401B28320C14203245D
:10045000814283244142032901428329C141032A65
:100460008141832A4141130101438280B30749033B
:100470001408AA97CE9733859600631E5701BE8550
:10048000EF4010192317A1008357E1000509BE941E
:10049000C204C1809DBFAA851306E1003E85EF809E
:1004A000F07FDDB726860C080145EF70200A69B79A
:1004B0008280011106CE22CC26CA4AC84EC691E9D6
:1004C00001442285F2406244D2444249B249056166
:1004D0008280AA8975D583D7818703D661872E84C8
:1004E0009564638AC7006374F60015673A961D8E9B
:1004F00093140601C180268697150400938545DB79
:100500002545EFA03058938714F06356F400930705
:10051000F00F63EA9700971504009385E5DA254507
:10052000EFA0505671BF83D48187338784009567CD
:1005300063C9E700A2854E85EFF09FC9EFF01FC6A3
:1005400049B7156933099940420913590901CA8508
:100550004E85EFF0FFC72DD5ED75A695A295C20586
:10056000239C0186C18133852901F9B783D681B2E5
:1005700081EA971504009385A5DB25456FA0D03B44
:1005800003D6A1B24111918E97150400938545DBE6
:10059000254506C6EFA0104F138781B2835507008B
:1005A00083D7A1B21385C1B29D8DC2053E95C1818D
:1005B0000937B24023A401B241018280411183D79F
:1005C00081B222C426C206C6AE971307401FAA8472
:1005D0002E84635AF700593F97150400938505D37D
:1005E0002545EFA0703583D781B21385C1B222862D
:1005F000A6853E95EFB0D33903D681B22296420646
:100600002244B240924441822394C1B2971504001F
:10061000938545D1254541016FA0D046011126CAD9
:1006200006CE22CC4AC84EC652C456C2814459C1D5
:10063000D1C183D7618703D48187638D870663F532
:1006400087081D8C42044180AE892A89228697152D
:100650000400938565C20145EFA0D042A28463F3F4
:100660008900CE84C2040D6A83D7618703D781874E
:10067000C180938A4187130A0A8063FAE704A68639
:100680004A86B38547012D459700FF1FE78040FF4D
:1006900083D72A00A697239BF186EFF03FB083D63D
:1006A000818703D6618797150400938525BE25456C
:1006B000EFA0503DF240624426854249D244B249FF
:1006C000224A924A0561828015673A949DBF156758
:1006D0001D8FB385470163D5E400A6864A8665B7BA
:1006E0009569B389F9406D743E94C20993D90901A3
:1006F0002694CE864A8642042D459700FF1FE78048
:1007000020F84180A28633063901D2852D45239BEE
:1007100001869700FF1FE780A0F683D72A003E944A
:10072000239B81869DBF397106DE22DC26DA4AD8FA
:100730004ED652D456D25AD05ECE62CCE9C932845B
:1007400055CA368CE9C6BA8B79C32A89AE8A23008A
:10075000AC0085448149114B330634416353CB00CF
:100760001146137AF60F5286B3853A01480002C249
:10077000EFB0132203475100834761000346710025
:10078000834641004A97CA974A96050789070D068E
:10079000CA962307E100A306F100A307D1002306B0
:1007A000C1007800814703460700B306F9008507BA
:1007B000B18E2300D70093F7F70F0507E39567FF86
:1007C0008357C1000357E100D29933059C00B98FCC
:1007D0002316F100B24711462C00910493F9F90F4A
:1007E0003EC493F4F40FEFB0B31AE3E789F6238025
:1007F0009B0005442285F2506254D2544259B259AA
:10080000225A925A025BF24B624C2161828001446F
:10081000D5B71D7186CEA2CCA6CACAC8CEC6D2C4D0
:10082000D6C2DAC05EDE62DC66DA6AD86ED67DC514
:100830002E84E9C532897DC2368CEDC2834D050018
:10084000AA84814C054D9149138A3D00938A1D006D
:10085000138B2D00930B00103306A44163D3C90002
:1008600011469377F60F3E86B385A40148083EC62D
:1008700002CAEFB0F3118346610103474101034609
:10088000710183475101358F230AE100B18F33C7CE
:10089000ED00B346DB00A30AF1003346CA00B3C73C
:1008A000FA00A30FE100A30ED100230EC100230F15
:1008B000F1007408014783C706003386ED00050781
:1008C00093870710918FB3E777038506A38FF6FE12
:1008D000E31337FFF2473305990111462C083ECC4C
:1008E000EFB0130BB247910C93FCFC0F3E9D137DB0
:1008F000FD0FE3638DF623009C0105442285F6403D
:100900006644D6444649B649264A964A064BF25BA7
:10091000625CD25C425DB25D256182800144F9BFB8
:1009200039719307400622DC33F4F50226DA130707
:100930007100B684740806DEB377F6023304F4025D
:10094000B387C5003E9493978500A181DD8D9317F1
:10095000860021825D8E2314B1002315C1002C0076
:100960001146D13389C48345710068088294228579
:10097000F2506254D25421618280317122DD26DB33
:100980004AD99307110118082A842E89B284930644
:10099000F1001306E1009305D1001305210106DFE4
:1009A000EF703044814719473306F40003460600D0
:1009B000B400BE962380C6008507E397E7FE835701
:1009C000210113074006B3F7E7022307F104834729
:1009D000D100A307F1048347E1002308F104834712
:1009E000F100A308F104834701012309F1049307EF
:1009F000A0FAA309F104EFC023417800F418AC0079
:100A000031461375F50F05334C0822851946EFA0C2
:100A1000702B500897150400938585982545230071
:100A20000102EFA030060346C1004C08E818EFA011
:100A300070298346C1001819500893971600BA9779
:100A400097150400938585962545238207F6EFA028
:100A50007003034801018347F1000347E100834627
:100A6000D1000356210195489715040093854595BB
:100A70002545EFA030010344C100EC184A852286C9
:100A8000EFB00371FA50238084006A54DA544A5953
:100A900029618280184193870116104598C3035736
:100AA0004500544590C72392E70058551049D4C7D4
:100AB000544998CF971504009385859A0547254595
:100AC00090CBD4CB238EE7006FA00067397126DA74
:100AD0004AD84ED652D456D25AD006DE22DC62CE46
:100AE00066CC2A89EFC0634C9374F50F8149254B7E
:100AF000E54A171A0400130A6A9091ECF250625406
:100B00004E85D2544259B259225A925A025B724CC3
:100B1000E24C2161828003470900930707FD93F7A8
:100B2000F70F637CFB009307F7F993F7F70F63E286
:100B3000FA06930797FA93F7F70F139487016184E6
:100B4000FD14230089002685EFA0B3402A86AE86D7
:100B500003250A0083254A0093F4F40F0509EFF0FA
:100B600070012AC422852EC6EFA0B33E2246B246AB
:100B7000EF90D36E2A8C4E85AE8CEFA0B3442A86BC
:100B8000AE866285E685EF904302EFA0D336AA8950
:100B9000ADB79306F7FB93F6F60F8147E3EFDAF86C
:100BA000930797FC49BF411122C406C683079502EB
:100BB0002A8499C713059502EFB0C35A238DA1105B
:100BC0008307D41291CB1305D412EFB04359EFB081
:100BD000033B9387810EC8D3B240224441018280F7
:100BE000011126CA9304150022CC971504009385A1
:100BF000E58A2A84268506CE4AC84EC6EFA08077AD
:100C0000631E051097150400938585892685EFA03E
:100C100060766302050E85448307D4036386070C60
:100C200013059402EFB0035485491379F50F1305AA
:100C3000D4036387340F8947638CF418EFB0835271
:100C4000A38EA110631A3901794681451385F113EA
:100C5000238D0186EFD02FF98307D40885C31305B0
:100C6000D408EFB0235003C7A18793071700238D43
:100C7000F1869387810EBA97A38BA7048307D40DBF
:100C800085C31305D40DEFB0E34D03C7A1879307C8
:100C90001700238DF1869387810EBA97A38BA70443
:100CA0008307D41285C31305D412EFB0A34B03C737
:100CB000A18793071700238DF1869387810EBA973A
:100CC000A38BA7048307D41785C31305D417EFB0EC
:100CD000634903C7A18793071700238DF186938784
:100CE000810EBA97A38BA704F2406244D2444249D2
:100CF000B24905618280970504009385A57A26850F
:100D0000EFA04067E31905F0268597050400938559
:100D1000A579EFA020668944E31005F08144EDBD7C
:100D2000EFB04344238FA110631A9900794681459F
:100D300013851112238D0186EFD0EFEA8307D408C3
:100D400085C31305D408EFB0E34103C7A187930718
:100D50001700238DF1869387810EBA97A38CA70283
:100D60008307D40D85C31305D40DEFB0A33F03C78C
:100D7000A18793071700238DF1869387810EBA9779
:100D8000A38CA7028307D41285C31305D412EFB036
:100D9000633D03C7A18793071700238DF1869387CF
:100DA000810EBA97A38CA7028307D417E38E07F2AC
:100DB0001305D417EFB0033B03C7A18793071700B0
:100DC000238DF1869387810EBA97A38CA70229BF42
:100DD000EFB04339A38FA11001BF411122C406C651
:100DE000830795072A8499C713059507EFB08337C2
:100DF000A38DA1108307D40899C71305D408EFB0B9
:100E00006336238EA1108307540B91CB1305540B2B
:100E1000EFB0E334EFB0A3169387810E88D7B240CA
:100E2000224441018280011126CA8146B2840146D2
:100E300052C456C206CE22CC4AC84EC62A8AAE8AB0
:100E4000EF90F32441CD9307E0046386F400930709
:100E500030056395F408970904009389296203A675
:100E6000090083A649005285D685EF90333F379419
:100E70009800EFA05308130404682A89337585028B
:100E8000EFA0531403A6090083A64900EF90E344A2
:100E9000970704009387075F9043D443EF90E343A1
:100EA0002A8A33558902AE8AEFA0D3112A86AE86EC
:100EB0005285D685EF80734F13073005AE87639553
:100EC000E400B7070080AD8FF2406244D24442494B
:100ED000B249224A924ABE85056182800145814716
:100EE000E5B7011126CA8146B284014652C456C2F2
:100EF00006CE22CC4AC84EC62A8AAE8AEF90331953
:100F000041CD930750046386F40093077005639501
:100F1000F408970904009389695603A6090083A67B
:100F200049005285D685EF90733337949800EFA02F
:100F3000837C130404682A8933758502EFA0930823
:100F400003A6090083A64900EF9023399707040000
:100F5000938747539043D443EF9023382A8A3355DD
:100F60008902AE8AEFA013062A86AE865285D68500
:100F7000EF80B34313077005AE876395E400B707AE
:100F80000080AD8FF2406244D2444249B249224AC5
:100F9000924ABE850561828001458147E5B71357B6
:100FA00085009357050113D885009376F50F01113D
:100FB0001377F70F93F7F70F618593F5F50F137814
:100FC000F80F99C211C3B9E3230CD100A30CE100BF
:100FD000230DF100A30DA100034591018347810179
:100FE0000347A1012205A30E01014207C98F230E69
:100FF000B1000345B101D98F0347D1018345C10138
:10100000620522075D8DD98D056182803295137549
:10101000F50F13138501135383415D46635766082B
:1010200061463363C30285071376D70F114593F7E3
:10103000F70F6305A6002545631AA6007946637F6E
:10104000F60205071377F70F85470DA809466312C7
:10105000C7041386067D93084006B36816036385AC
:10106000080013F5360011C5130500193366A602F2
:1010700019EE75466374F60085470D47230CD100C1
:10108000A30CE100230DF100A30D6100B1B771467F
:10109000D5B77D46E374F6FEB147E314F7FA85064B
:1010A00093F6F60F85470547D1BFE35903FC610569
:1010B000FD171313850193F7F70F13538341DDFFDA
:1010C0007D171377F70F1146F947E309C7FA194659
:1010D000E306C7FA2546E303C7FA2D46E300C7FA3D
:1010E00089476316F7021386067D93074006B367A8
:1010F000F60291C793F83600F547E38108F89307A5
:101100000019B367F60293B71700F10785BFFD47D3
:1011100035F7FD1693F6F60F31478DB78347150067
:10112000034705000111A2075D8F83472500834611
:10113000350006CEC207D98F0347550083454500C9
:101140001736FF1F130686A903065621E20622075B
:1011500033E5F600D98DA1351358850013560501E6
:1011600093D7850013F7F50F93F7F70F9356850183
:101170001376F60F9375F80F1375F50FEF70A04DFA
:101180009737FF1F83C797A505476385E70011477A
:101190006396E700F24005616F70805BF240056185
:1011A00082804971232481161384810E83073400C1
:1011B00083C8D10E03C8C10E03C7A10E83C6910E0A
:1011C00003C6810E970504009385C52F481023267A
:1011D00011162322911623202117232E3115EFB04B
:1011E00053554810EFB0735C18485C48030604037D
:1011F0003AC03EC2030814035C44184454109705D7
:1012000004009385252E3695EFB0B3524810EFB009
:10121000D3595C103E95830764001706040013063B
:10122000E62989C7170604001306C6289715040087
:10123000938585F3EFB0F34F4810EFB01357544C3C
:10124000104C5C10970504009385C52A3E95EFB0BD
:10125000534E4810EFB07355030634035C103E95AF
:10126000970504009385C529EFB0B34C4810EFB043
:10127000D35303072403AA8448503ACE1384810E23
:10128000EFA0334572475C10AE862A8697050400AE
:101290009385052833859700EFB0B3494810EFB028
:1012A000D3505C1003C6C111970504009385C52770
:1012B0003E95EFB013484810EFB0334F5C109705E0
:1012C0000400938565273E95EFB0134D1389611097
:1012D000A284971904009389A9E803C6740519CA62
:1012E000481032CEEFB0734C72465C10CE853E95FE
:1012F000EFB033448504E39224FF4810EFB0F34A83
:101300005C10970504009385A5233E95EFB0D34864
:10131000971404009384C4E40346940319CA481044
:1013200032CEEFB0934872465C10A6853E95EFB082
:1013300053400504E31224FF4C102545EF90D05F85
:101340008320C11603248116832441160329011624
:101350008329C11575618280411122C406C626C247
:10136000830755012A84B9C7A946938707FDB38728
:10137000D70203476501130707FDBA97A385F10E4E
:101380000307750183478501130707FD3307D7025C
:10139000938707FD3E972386E10E83079501034758
:1013A000A501938707FDB387D702130707FDBA97F7
:1013B000A386F10E8307940281CB13071004639177
:1013C000E71485472387F10E8307D4039384810EA6
:1013D00099C71305D403EFA0935888C4CCC403065F
:1013E000140509CA8844CC44238CC110EFF0BFA374
:1013F00088C4CCC48307540699C713055406EFA0CC
:10140000135688C8CCC80306940709CA8848CC4834
:10141000A38CC110EFF0FFAC88C8CCC88307D408F8
:1014200099CF1305D408EFA093539707040093872F
:10143000E7079043D443EF90636288CCCCCC83071A
:10144000140A99C71305140AEFA0D3512394A110CD
:101450008307540BB9C7A946938707FDB387D70203
:101460000347640B130707FDBA972385F10E0307A3
:10147000740B8347840B130707FD3307D702938749
:1014800007FD3E97A384E10E8307940B0347A40B4B
:10149000938707FDB387D702130707FDBA97238405
:1014A000F10E83853400856703C6C10E938707E17B
:1014B0001307C0033307E60283C6D10EB387F502D4
:1014C000BA97B69723AAF1101737FF1F13074704DF
:1014D000835707003A8413F5870039E103856400D8
:1014E0000547631FE50203C7A10E11EF8844CC44F2
:1014F00001468146EF90A33905E92387010EB9A083
:101500002387010ED1B5FDD175D2EDD293E78700C7
:101510001385810E1737FF1F231CF7FEEFF01FC046
:1015200083876400E1F7D1BF8848CC4801468146F3
:10153000EF90E33579D183C7A10EE1D3130680077D
:101540009385810E13850107EFA0934403C501D253
:101550009D4705053365F502130680079385810EC7
:101560002380A1D2930780073305F502938781D2A8
:101570003E95EFA0F341EFF0DFC25C542244B2404D
:1015800092441737FF1F232FF7FA13068007814570
:101590001385810E41016FC01FE50171232C811E4F
:1015A000232A911E1306101E2A84AE8468008145EA
:1015B000232E111E2328211FEFC0FFE28145814702
:1015C000014701465148CD485D436341960899C1A2
:1015D0002306F1001306A002A6852285EF90D057BE
:1015E0008347C10051473386A440B387E702930580
:1015F000150078007D16A29585073305F700EFA04A
:1016000033391306A002A685228503491400EF9002
:10161000B054894763C4A7080345C100D1473305C7
:10162000F5027C0005053E95EFF04FCA631DA90445
:10163000194697050400938565E51305D100EF90E1
:10164000105F2DC56800EFF03FD135A8B306C40088
:1016500003C50600930665FD93F6D60F91EA85074C
:1016600093F7F70F6361F302854501470506B1BFA4
:10167000B3860703130E011FF296BA96A38EA6E057
:101680000507E3D5E8FE8320C11F0324811F8324BF
:10169000411F0329011F1301012082803307F40039
:1016A0000347070085073349E900ADB71946970599
:1016B00004009385E5DD1305D100EF9050570DED43
:1016C0001946970504009385E5DC1305D100EF90DA
:1016D000105619ED1946970504009385E5DB1305AF
:1016E000D100EF90D05445D16800EFF06FCF61BFCB
:1016F0006800EFF08FEE41BF6800EFF0CFCA61B72E
:10170000757122C526C34AC1CEDED2DCD6DADAD85C
:1017100006C7AA892E89814401448147130A4002E1
:10172000854A354B139704014183636C2701BA4006
:101730002A449A440A49F659665AD65A465B496180
:101740008280338799000347070063014703639D45
:101750005701631E67019C18A297A2856800238E1B
:1017600007F8EFF09FE3814785046DBF01449C18A3
:10177000A29705041374F40F238EE7F89337340609
:10178000E5B7411106C6138501D28347050013074B
:1017900080078145B387E70213068007A1073E95BE
:1017A000EFC07FC4B2408145114541016FA0204E7A
:1017B000138501D28347050013078007B387E7022B
:1017C000A1073E9582801385010782809737FF1F0E
:1017D00083C787D481CF9727FF1F83D78761FD17E2
:1017E000C207C1831307A0036375F70023AE018608
:1017F000828031714ED79389C18783A7090056D360
:10180000938A01D2850722DD26DB52D55AD15ECFDD
:1018100062CD66CB6AC906DF4AD96EC723AEF186B0
:1018200083C401D2014A130C80075684970C04002C
:10183000938C4CBD054D9D4B154B338984035699B4
:101840008307E900E1CF03A60C0083A64C00032523
:10185000090283254902EF9003156341050C834774
:101860000904638DA70B93171A001808BA9703573A
:1018700089022390E7003C00D29723809700050A55
:101880009904B3E47403E31A6AFB03578101835795
:101890000101998F13D7F741B98F998F939407015D
:1018A0001307400BC1806358F70093078016B38479
:1018B0009740C204C180268697050400938585B7AA
:1018C0006808EFB003676C082545EF90F006938732
:1018D00014FFC207C1837947636EF708034991007B
:1018E000130A8007854501453309490321092299D7
:1018F0004A86EF8080098344B10085450145B38461
:101900004403A104A2942686EF802008CA850D45D1
:10191000EF304052A6850D45EF30C05183A7090036
:101920001727FF1F0357E74C63E7E70203C501D200
:101930009304800733059502B30DA4008387ED005F
:1019400099CB83C7C117138901166397070E210529
:101950002295EFF02F94FA506A54DA544A59BA5942
:101960002A5A9A5A0A5BFA4B6A4CDA4C4A4DBA4DDB
:10197000296182809307D002E3F297FA834B8100BA
:10198000930A80078545B38B5B030145138C8B005D
:10199000229C6286EF70707F034B91008545014564
:1019A000330B5B03A29B210B229B5A86EF70F07DC9
:1019B000034AA10085450145330A5A03210A229AA8
:1019C0005286EF70907C0349B1008545014533098B
:1019D0005903210922994A86EF70307B8344C10064
:1019E00085450145B3845403A104A2942686EF7073
:1019F000D079E2850D45EF30E043DA850D45EF30D3
:101A00006043D2850D45EF30E042CA850D45EF3089
:101A10006042A6850D45EF30E04183C701D2B38A0D
:101A2000570303A74B03A29A83A74A03E318F7EED1
:101A300085472380FA04DDB5170D0400130D0D9DB5
:101A400003260D0083264D0003A58D0183A5CD013E
:101A5000970904009389099CEF90430003A60900AD
:101A600083A64900EF8073072A8BAE8B03260D00F7
:101A700083264D000325090183254901EF80137E4C
:101A800003A6090083A64900EF8033052A8AAE8A9F
:101A90002A86AE865A85DE85EF90C34797070400F5
:101AA0009387C7979043D443EF80537BEFE06077F1
:101AB0002A8CAE8C5A85DE85EFE0806D2A8BAE8B4A
:101AC0005285D685EFE0C06C032689008326C900C5
:101AD0002A8AAE8A03A50D0183A54D01EF908343A9
