:04C000006F20005C51
:10C0040000000000000000009000002056080020FE
:10C01400A9BDF9F594000020000000000000000014
:10C02400960000209800002000000000000000009E
:10C034009A000020000000009C0000200000000086
:10C044009E0000201603002044030020A4000020CA
:10C05400A6000020A8000020AA000020AC000020B8
:10C06400AE000020B0000020C60000205A010020CD
:10C07400D2080020B8000020BA000020BC00002034
:10C08400BE000020EE01002082020020C400002037
:10C0940001A001A001A001A001A001A001A001A094
:10C0A40001A001A001A001A001A001A001A001A084
:10C0B40001A001A001A001A001A001A001A001A074
:10C0C40001A001A001A037370040834747009946EB
:10C0D4004111BD8B638CD70231476384E706114756
:10C0E400639EE702A3030100174600000346863D52
:10C0F40037370040834771006315F6022C0013851F
:10C104008166977001E0E78000B809A8834757006B
:10C1140093F7F70F2304F100834781004101730073
:10C12400203083477100834687000C08AE97238C28
:10C13400D7FE83477100850793F7F70FA303F10038
:10C1440055BF280097D001E0E78080E21375F50F12
:10C15400A303A1000346710055B737370040834756
:10C16400474099464111BD8B638CD70231476384A4
:10C17400E7061147639EE702A30301001746000088
:10C184000346663437370040834771006315F6026F
:10C194002C001385C167977001E0E780C0AE09A841
:10C1A4008347574093F7F70F2304F1008347810037
:10C1B40041017300203083477100834687400C0897
:10C1C400AE97238CD7FE83477100850793F7F70F4B
:10C1D400A303F10055BF280097D001E0E78000EBEE
:10C1E4001375F50FA303A1000346710055B7374734
:10C1F40000408347478099464111BD8B638CD70229
:10C2040031476384E7061147639EE702A3030100F5
:10C21400174600000346162B37470040834771003A
:10C224006315F6022C0013850169977001E0E7801D
:10C2340080A509A88347578093F7F70F2304F100DB
:10C244008347810041017300203083477100834696
:10C2540087800C08AE97238CD7FE8347710085072F
:10C2640093F7F70FA303F10055BF280097D001E01F
:10C27400E78080F31375F50FA303A1000346710053
:10C2840055B737470040834747C099464111BD8B96
:10C29400638CD70231476384E7061147639EE70244
:10C2A400A3030100174600000346A6523747004087
:10C2B400834771006315F6022C001385416A977059
:10C2C40001E0E780409C09A8834757C093F7F70F24
:10C2D4002304F10083478100410173002030834728
:10C2E4007100834687C00C08AE97238CD7FE834722
:10C2F4007100850793F7F70FA303F10055BF2800DA
:10C3040097D001E0E78000FC1375F50FA303A100AB
:10C314000346710055B7411122C6371400408357B4
:10C32400C40913973701635B0700BD45014597B006
:10C3340001E0E780800A8567231EF4083244410146
:10C3440073002030411122C6371400408357E4099A
:10C354008357E409139717016359070097B001E065
:10C36400E780C0FF9167231FF40832444101730042
:10C3740020304111814601468145114506C60D2DE7
:10C38400B727004011472383E780B7F700E003A7EE
:10C3940007D16D9B23A8E7D003A707D15D9B23A8F2
:10C3A400E7D07300501001000100B24041018280C7
:10C3B4004111814681450146114506C6D52BB72753
:10C3C400004011472383E780B717004003C7E70203
:10C3D40083C5E70483D7870391661377F70F93E543
:10C3E400350063E5D700719B13671700B71700404A
:10C3F400130670052380C704930680FA2380D704AC
:10C4040001000100238207022380C7042380D7048C
:10C41400010001002387E7022387B7042380C704B0
:10C424002380D7040100010003C7B7041367070280
:10C43400A385E7042380070437F700E0832507D1A9
:10C4440093E545002328B7D0832507D1DD99232818
:10C45400B7D073005010010001002380C70423806B
:10C46400D7040100010003C7B7041377F70DA385B0
:10C47400E70423800704B240410182800111B7F52B
:10C48400070022CC8146E1052A840A86194506CE96
:10C4940026CA02C023120100212BB717004003C78C
:10C4A400E70283C5E70483D7870391661377F70F01
:10C4B40093E5350063E5D700719B13671700B71741
:10C4C4000040130670052380C704930680FA238076
:10C4D400D70401000100238207022380C7042380BC
:10C4E400D704010001002387E7022387B7042380D0
:10C4F4000704B7F500E003A705D11367470023A895
:10C50400E5D003D507026577110713750560418DE2
:10C51400598D4205418101002380C7042380D7043B
:10C524000100010003C7F70037F40700B7F400E087
:10C5340013670704A387E70003C7B70461041367FD
:10C544000702A385E7042390A70283A704D1DD9BF8
:10C5540023A8F4D0730050100100010013056004F7
:10C56400352E81463000A285194502C423160100E8
:10C57400812122478247E31AF7FCB71700401307CB
:10C5840070052380E704130780FA2380E704010081
:10C59400010003C7B7041377F70DA385E7042380CD
:10C5A4000704F2406244D2440561828001114EC600
:10C5B40081460146AA898145114506CE22CC26CA68
:10C5C4004AC8FD26B716004083C7E60203C7E6043F
:10C5D40083D68603116693F7F70F1367370063E575
:10C5E400C600F19B93E71700371400401309700548
:10C5F40023002405930480FA23009404010001001D
:10C6040023020402230024052300940401000100F2
:10C614002307F4022307E40423000404130550024F
:10C624005920B7F700E003A707D11367470023A8F1
:10C63400E7D02300240523009404010001000347EC
:10C64400F40013670704A307E40023002405230070
:10C654009404010001002567B3E9E90023103403C1
:10C6640003A707D15D9B23A8E7D0730050100100F6
:10C67400010081460146814511451D2E23002405F4
:10C6840023009404010001008347640493E7170026
:10C694002303F40423000404F2406244D2444249D4
:10C6A400B24905618280B717004093067005238064
:10C6B400D704130780FA2380E7040100010003C6AE
:10C6C400B7041376F60DA385C704238007041376F5
:10C6D40005024DC203C6A700118A1DE22380D704B8
:10C6E4002380E7040100010003C7A7001367470084
:10C6F4002385E7009307004B01000100FD17EDFFC0
:10C70400B7170040930670052380D704130780FAF7
:10C714002380E704010001007D892394A700010020
:10C72400010001000100238007042380D704238033
:10C73400E7040100010001000100372700409306CF
:10C744001005A303D78023800704B71700401307FD
:10C7540070052380E704130780FA2380E7040100AF
:10C76400010003C7B70413670708A385E704238000
:10C77400070482801376050441C603C6A700418AD4
:10C784001DE22380D7042380E7040100010003C7CE
:10C79400A700136707012385E7009307007D0100C5
:10C7A4000100FD17EDFFB7170040930670052380C5
:10C7B400D704130780FA2380E704010001001376ED
:10C7C400F501136606042394C7000100010001006B
:10C7D4000100238007042380D70413066004238008
:10C7E400E7046318C50001000100372700408946AB
:10C7F40089BF01000100372700409306200591B747
:10C804002380D7042380E7040100010003D78700B5
:10C814001367070C2394E7000DBF411181460146BD
:10C824008145114506C66922B717004013077005F4
:10C834002380E704130780FA2380E7040100010042
:10C8440003C76704136717002383E70423800704DF
:10C85400B240410182808146014681451145892AC1
:10C86400B7170040930670052380D704130780FA96
:10C874002380E704010001007D562396C70223802C
:10C88400D7042380E7040100010003C7670413678A
:10C8940017002383E7042380070401A0BD47330561
:10C8A400F50201007D1575FD8280411122C426C266
:10C8B40006C6AA84014463179400B24022449244F9
:10C8C4004101828005041305803E4204C13F41803A
:10C8D400DDB7B7170040130700032388E702854735
:10C8E400174700002324F70473002030411106C6C3
:10C8F400852DFDBF2303048015472303E480010035
:10C904002302A480828083076480E3CE07FE23038E
:10C914000480828083076480E3CE07FE034544805D
:10C92400828083076480E3CE07FE2302A480828092
:10C93400411126C44AC24EC006C61377F50BAD4753
:10C94400AA892E8995446306F70019456537653F22
:10C954008D444E854537FD59FD1463983401B2402A
:10C96400A244124982494101828013550901137579
:10C97400F50F453F2209CDB7011126CC06CEB704E9
:10C98400080051371545BD37713769372AC6A53FA9
:10C9940032459377150089EB136515001375F50F70
:10C9A400F240E24405618280FD14E9FC0145CDBFFB
:10C9B400397126DC4ADA4ED852D656D45AD25ED0D1
:10C9C40006DE62CE66CCB7E700E07D5783AA070097
:10C9D40022C603AA470023A0E71823A2E718B71723
:10C9E4000040130770052380E704130780FA2380AF
:10C9F400E70483C74704930B75FFB684E20793FBF0
:10CA0400FB0F8546AA892E8B328937240040E187A3
:10CA1400015763FA76016308D500894613070002BB
:10CA24006313D5000157D98F93F7F70FB71C004054
:10CA34002382FC0411472303E4801305F00F5D3DBA
:10CA4400094CD135636D7C11B7050700DA9537873A
:10CA54000700795563F2E504B3879500636EF70226
:10CA6400370B0800A94733EB65016399F90689E49C
:10CA74008144513D26850DA0DA850945553D0509BA
:10CA84000345F9FFFD14050B693D81C49377FB0F42
:10CA9400FDF7DD3569FD7D55B717004013077005B7
:10CAA4002380E704130780FA2380E70403C74704BD
:10CAB400418B2382E704F250B7E700E023A057112B
:10CAC40023A24711E25432445259C259325AA25A4B
:10CAD400125B825B724CE24C21618280A5476395B4
:10CAE400F90685691309F00FB3069900B3742B0195
:10CAF400B6941349F9FFB3749900856B33796901CE
:10CB0400416B9387F9FFB3F7270199E363FC340181
:10CB140093D94900C147E3E637FF99BF0569C16965
:10CB24007D19D9B71305800D6388690113050002C7
:10CB34006384790113051008CA85DD3B353D21DD89
:10CB44004E99B3843441D9B7DA852D45D533CA9487
:10CB5400E30099F205097D3BA30FA9FED5BF938796
:10CB6400F9FF93F7F70F6361FC0C83C71C041307E9
:10CB74003008631FF70437070800636BEB04B3073F
:10CB84009B00B706100063F5D704334BEB008947CD
:10CB94006393F9068980D549E38C04ECDA85094569
:10CBA400413B11090327C9FF91472320E480030770
:10CBB4006480E34E07FE23033481FD17EDFBFD146F
:10CBC400110B81C49377FB0FE9FF7D3371F5E1B558
:10CBD400B717004003C75704B707080013770702C5
:10CBE40019E3B78707007955E378FBEA33079B001D
:10CBF400E3FFE7F855B58547E382F9F2DA852D4579
:10CC0400053B9389F4FFE38504E6293393F7390060
:10CC140091EB832604800327090093074900E39AD4
:10CC2400E6E43E89CE84F1BFB5476396F900130567
:10CC3400900BC93135BDB1471305B00AE38BF9FE3A
:10CC440099476391F904B7050800B365BB002D4506
:10CC5400C53181448D4BA14975396396740183278D
:10CC640004802320F9008504E39834FF832704809B
:10CC740013172B01635507002312F900D5BB232298
:10CC8400F900FDB39D476399F90281451305B0048A
:10CC94004531BD442320090023220900FD599D3953
:10CCA40093F77400CA9703C70700FD14398D2380D6
:10CCB400A700E39634FF6DBBA1476392F9046D3975
:10CCC4008144630D0B008D479304C0036308FB008C
:10CCD4009304000563048B01930440041375C50792
:10CCE400E30895D819453931393905452131268567
:10CCF4000D3909453D314931E31C05D669BB9147DE
:10CD04006399F90013056006F536F53E130590099D
:10CD14000DB7E38F09D4F154A9BB19CD91CD09CE38
:10CD240081473387F500834607003307F5008507FD
:10CD34002300D700E317F6FE828019C991C909CAF6
:10CD4400910583A7C5FF11057D16232EF5FEC5BFEA
:10CD5400828001C919C62A960505A30FB5FEE31DF5
:10CD6400A6FE828081473307F5000307070019E315
:10CD74003E8582808507C5BF01112E8626CAAA84F6
:10CD8400131506019305F004418122CC06CE32C668
:10CD9400EF1040592A8401C53246A685BD3F22853D
:10CDA400F2406244D24405618280854715C18DC139
:10CDB40005C28147B306F5003387F50083C6060034
:10CDC400034707006398E6008507E315F6FE8547E9
:10CDD4003E8582808147EDBF9307F6FFBE952A9674
:10CDE4006313C5008280FD1583C715000505A30FD5
:10CDF400F5FEFDB7AA87014581CF09CE3E9685078A
:10CE040003C7F7FF6317B700E39BC7FE054582809E
:10CE14008280014582807971975700009387C739D2
:10CE240022D4804306D626D24AD04ECE52CC56CAFD
:10CE34005AC85EC662C45DCC37C9C901814B175A52
:10CE44000000130AEA3B9754000093842437130923
:10CE5400F937975A0000938AEA30B709C0A8370B0C
:10CE640040578357240095E35C44639D0B00175798
:10CE740000002323F734032CC4002285EF10A057AD
:10CE8400628499A823A6FB00FDB783270A00829732
:10CE9400838664011C4463DB06063307F54063673D
:10CEA400E9089757000023A7072C8355240003455E
:10CEB4000400970002E0E780A0695C405844A9CFD1
:10CEC4001444B6978386640163C5060063E337019F
:10CED400DA971CC4A28B3A8449F4975700009387CD
:10CEE40067289C4B09476378F706F9171757000022
:10CEF4002322F728B250225492540259F249624A2A
:10CF0400D24A424BB24B224C45618280E377F5F81A
:10CF14003387F9402A9761B763970B00975700004E
:10CF240023ACE72889BF23A6EB00B1B7D85009CFBB
:10CF340063DF06003385A74083A70A016376F50003
:10CF44009757000023A8A722A28B404471B7E3F3AC
:10CF5400A7FECE97C5B79757000023AD072059BF4A
:10CF6400411122C4175400001304C4221C4006C6F5
:10CF740026C24AC091C782979757000023AC072066
:10CF84005C4091C382971C406391071C9757000033
:10CF940083C7D73E858B9DC797570000A380073E64
:10CFA400175700000347B73D954763FDE700EF00BF
:10CFB40010379757000083C7973CF5178A07A29745
:10CFC4009C438297175900001309093F8347C900FE
:10CFD400918B99C3EF1060281C4491C38297975496
:10CFE40000009384241D98401756000003469617AA
:10CFF4009757000083C7071793961700BA9683D6EE
:10D004000600D5CA9757000083C7C71563EFC70A40
:10D0140097570000238807141C40639807129757FA
:10D02400000083C7F73591CF9757000083C7373582
:10D0340089EB97570000A3850734976003E0E780E6
:10D0440040FE975700009387A71B9C43638F070EEE
:10D05400B707C0A817570000232EF7106D3B97574A
:10D0640000009387A715DC53EDC31757000013077F
:10D07400670F184B9757000083C797156367F70C22
:10D08400175700000347B72F954763E0E70C834722
:10D09400C900918BDDEB90409756000083C6960C37
:10D0A40063CBD70A2244B240924402494101170398
:10D0B40002E067000327850793F7F70F97560000F0
:10D0C4002382F60AE3E6C7F235BF86073E97835507
:10D0D40007002310070097570000239B070C97575E
:10D0E40000009387E70A9C43175500000345850712
:10D0F40013172500BA979C4382979757000083D74C
:10D10400270B175700000347E70593C7F7FF7D8DEB
:10D114009317170098403E97835707005D8D23109F
:10D12400A7009757000083C7E70391C785071757E0
:10D1340000002309F702175700000347A702975777
:10D14400000083C73702E375F7ECB24022449244EF
:10D154000249410182801397170032970357070051
:10D164006DF7850735BFAD6737C70040BD07232678
:10D17400F7200F100000975700009387A7FEC84FB1
:10D1840083278726BD66BD0693C7F7FF99836A0583
:10D194002326D7205D8D82804111B7170040985F08
:10D1A4003AC6945F3247E39CE6FE324541018280F1
:10D1B40082800327851163000712411122C406C629
:10D1C4008347C5008345C5042A8493F7C70F230604
:10D1D400F500834697000356C700139586016185C1
:10D1E40063F1C508635A05060345870093F6F607FD
:10D1F400A304D700054693E627006314C50093E60D
:10D2040017002306D4005C4389075CC3A30AB40057
:10D21400032504112E864C43090501368327841106
:10D2240003465401D44303D7C700B296118FD4C325
:10D234002396E7008947A30DF40003474403975757
:10D24400000083C7C7F86378F7048347C40093E7F3
:10D2540007012306F40081A093E717002306F400D6
:10D2640075B79376F60F635D050203458700854520
:10D2740013E627006314B50013E617002306C40061
:10D28400A30AD400A30407008547A30DF400832751
:10D2940084119C43DDF3B240224401454101828064
:10D2A40093E717002306F400A30AD400A30407009D
:10D2B400032504114C4309058D3483278411034647
:10D2C4005401D44303D7C700B296118FD4C3239615
:10D2D400E7008D475DBF054582809757000093871F
:10D2E40027089C43411122C406C6858B2A84C5EFB6
:10D2F4004165130525F5970003E0E780E0E545C5A2
:10D304008347A5002315F50083270412BDE72320D6
:10D31400A4122322A41285472310F4042320050019
:10D324008347640154412316F5000347D4002304C2
:10D33400E5000547A304E500175700001307C703DA
:10D34400184F1385170215811C437D151375F50FAE
:10D354009CC25C43DCC21C479CC65C47DCC61C4BBD
:10D364009CCA5C4BDCCA1C4F9CCE5C4FDCCE19CDF6
:10D374009386060213070702C1BF8327441288C39A
:10D38400835704042322A412850779B79757000012
:10D3940083D7C70B8507175700002319F70AB24034
:10D3A4002244410182808347C400230904000545C7
:10D3B40093C747002306F400DDB78347850193F73D
:10D3C400E70FD5EF83479501DDEB0346250183463F
:10D3D400C50009CA8345450317570000034737DFD3
:10D3E40063E7E50013F7060141CF014709C6C18A87
:10D3F4000357651C81C68356A51C369751C3130772
:10D40400C71217550000035565D8B335A702374630
:10D414000F00411113060624814622C426C206C603
:10D424007D543305A702970004E0E780E001975795
:10D43400000083C737DAB384A700975700009387A7
:10D44400670003A707098327070963F387003E845E
:10D45400184375FB97570000938787DA9C4382979C
:10D4640081476364A400B307A440B2402244B3B725
:10D47400970093C7170092443E85410182808147FB
:10D484003E858280797126D206D622D44AD04ECEE9
:10D4940052CC56CA5AC85EC6834735030344751333
:10D4A400AA843E941374F40F9307400263F6870032
:10D4B4001304B4FD1374F40F03AA841383AAC413CE
:10D4C400A38B841222865285D685970004E0E780D8
:10D4D40020F2058915E503CBD41201498149337B38
:10D4E4006403930B50024A865285D685970004E064
:10D4F400E78000F0058915C5639169031374F90F7A
:10D50400238B8412B250225492540259F249624A33
:10D51400D24A424BB24B456182808509E20993D9D4
:10D5240089410509E31179FDE1BF83278509035684
:10D53400E503797193D60701BD8EC206C182358E8B
:10D544001357764093575640898B058B5D8F9357BD
:10D554003640918B5D8F93571640A18B5D8F931747
:10D564001600C18B5D8F9317360093F707025D8F0A
:10D57400931756009355860093F707041E065D8F94
:10D584001376F60F518F93D7554013D63540118A31
:10D59400898BD18F13D67540D18F13D61540218A2C
:10D5A400D18F13961500418AD18F139635001376C7
:10D5B4000602D18F13965500137606049E05D18F6B
:10D5C40093F5F50FCD8FA20745465D8F3307C7024C
:10D5D40022D42A8426D252CC56CA032A8413832AFC
:10D5E400C4135AC806D636974207418393577740E7
:10D5F400135557400989858BC98F135537401189B5
:10D60400C98F135517402189C98F131517004189F4
:10D61400C98F1315370013750502C98F13155700E9
:10D6240093558700137505041E07C98F1377F70FE9
:10D63400D98F13D5354013D755401189098B498F9C
:10D6440013D57540498F13D515402189498F1395FA
:10D6540015004189498F1395350013750502498FCB
:10D6640013955500137505049E05498F93F5F50F21
:10D674004D8F2207D98FB387C7024AD04ECE5EC6DC
:10D6840062C4B697C207C18313D7774013D55740F6
:10D694000989058B498F13D537401189498F13D5D3
:10D6A40017402189498F139517004189498F139594
:10D6B400370013750502498F1395570093D58700DA
:10D6C400137505049E07498F93F7F70FD98F13D568
:10D6D400354013D755401189098B498F13D57540AF
:10D6E400498F13D515402189498F13951500418918
:10D6F400498F1395350013750502498F139555000D
:10D70400137505049E05498F93F5F50F4D8F220778
:10D71400D98FB387C702130650025285D685B697B0
:10D72400BD8E93940601C18033F6C402137BF60FB9
:10D73400970004E0E780C0CB05890DED8347D41240
:10D7440001498149B3849702130C5002C1804A866F
:10D754005285D685970004E0E78080C90589937BCC
:10D76400F90F11C563863403850993F9F90F050987
:10D77400E31F89FD230B6413B250225492540259BF
:10D78400F249624AD24A424BB24B224C45618280F2
:10D794005E8BCDB70111975700009387A7CA22CC9F
:10D7A40003A4470B26CA06CE2AC42EC6854419E410
:10D7B4000145F2406244D24405618280834791006E
:10D7C40003471400858B6304F7000044CDB7194662
:10D7D4009305A10013052400EFF02FDDE31795FE58
:10D7E4000545C1BF011122CC17540000130484BAAB
:10D7F40018402AC62EC432C206CE3C4B93F7F7F724
:10D804003CCB975003E0E780807E18409756000099
:10D81400938686B53C4B93E707083CCB9C42324544
:10D82400A24523A00700034715000348250022074B
:10D8340042084297034805004297034835006208AE
:10D84400429798D7034755000348650022074208CA
:10D85400429703484500429703487500620842977F
:10D86400D8D7034795000348A500220742084297EA
:10D874000348850042970348B5006208429798DB45
:10D884000347D5000348E5002207420842970348AE
:10D89400C5000345F500429762052A97D8DB03C704
:10D8A400150003C52500220742052A9703C5050074
:10D8B4002A9703C5350062052A9798CF03C75500F8
:10D8C40003C56500220742052A9703C545002A9728
:10D8D40003C5750062052A97D8CF03C7950003C511
:10D8E400A500220742052A9703C585002A9703C588
:10D8F400B50062052A9798D303C7D50003C5E50090
:10D90400220742052A9703C5C50083C5F5002A9757
:10D91400E2052E97D8D3D843759BD8C3D843136751
:10D924001700D8C398431367170098C31246984248
:10D934005C43858BD1E71C4F01452300F6009C42D4
:10D944009C4FA183A300F6009C429C4FC1832301FA
:10D95400F6009C429C4FE183A301F6009C42D84F01
:10D964002302E600D84F2183A302E600D84F418367
:10D974002303E600D84F6183A303E60098532304EE
:10D98400E60098532183A304E600985341832305BA
:10D99400E60098536183A305E600D8532306E60006
:10D9A400D8532183A306E600D85341832307E60016
:10D9B400DC53E183A307F600F240624405618280F0
:10D9C4000100B5B7175700001307479A14434111D4
:10D9D40022C49C5E4AC006C6998326C2858B3A84BB
:10D9E4001759000013094998D1CB9C5E9754000045
:10D9F4009384849893F7F7F99CDE17570000034744
:10DA0400079893070008631BF700832709009C43CA
:10DA140093F70704175700002303F79683C70400FE
:10DA240093F707049DC3974700009387677D9C4342
:10DA340082979757000023A9A79483C7040093F7FC
:10DA4400F70B175700002309F79283C7440093F795
:10DA540007048DE7854717570000A301F7929757EE
:10DA64000000938727939C43096798C7130700FC1A
:10DA7400975600002384E690D844F8D31C40985F5E
:10DA84001183058B09CB985F3D9B98DF054797561B
:10DA940000002385E68E985F1D83058B11CB985F6C
:10DAA4001377F7F798DF8547175700002308F78C9B
:10DAB40083270900D8430583058B19C7D843759B71
:10DAC400D8C3D843799BD8C3B24022449244024974
:10DAD40041018280397106DE16DC1ADA1ED82AD694
:10DAE4002ED432D236D03ACE3ECC42CA46C872C6C2
:10DAF40076C47AC27EC0F935F250E2525253C25310
:10DB04003255A255125682567247E2475248C248CD
:10DB1400324EA24E124F824F21617300203097572C
:10DB24000000938727879443975700009387C784FF
:10DB340003C70700058B11CB975700002380078488
:10DB440097570000A38C0782828003C71700058BB8
:10DB540065F7F85271FF83C75700DDB71758000007
:10DB64001308C880032708001C5F9583858BD1E7C1
:10DB740009C61C5BBD832300F60085CA8327080001
:10DB8400985B4607935767016356070093E707C0FE
:10DB9400C207C18303970600C207C18709C7BA97A2
:10DBA4000947B3C7E7022390F60085CD83471500E4
:10DBB4008DCB9746000083C6867C93F606041387B4
:10DBC400970089478DCA3A950347050085469947CA
:10DBD4001376F7066311D60262076187B947634C6F
:10DBE4000700832708009C5FED838D8B1747000097
:10DBF400A309F77881473E8582808547EDBF4111AF
:10DC040022C406C6174400001304C478184049E926
:10DC1400AE877453FDFE3E85B28597470000238E80
:10DC24000774975003E0E7808012974700009387BA
:10DC3400E7739C43B70680009843558F98C3D85721
:10DC4400719BD8D797470000A38A077297470000B3
:10DC5400A38407721C40094798C3B7F700E003A7E1
:10DC640007D16D9B23A8E7D003A707D15D9B23A809
:10DC7400E7D0730050101440174700001307C76F14
:10DC840083472700858B89EB83473700858BD9C76A
:10DC9400974700002384076EB240224441018280EA
:10DCA4008D476310F502974700009387276C9C43C8
:10DCB400B70680009843558F98C3D857719BD8D71F
:10DCC4005DBF8547E319F5FAB567BD075CC70F105B
:10DCD40000001C400967094698C7130700F89746D7
:10DCE4000000238DE66817470000130727681443D4
:10DCF400984231830D8B6319C7001307E043F8D3AF
:10DD04003D673D07D8C785BF984231830D8B01E736
:10DD140013076019EDB71307E01BD5B7FC52ADF339
:10DD2400A5BF5D7152DC174A0000130A2A64032759
:10DD34000A0086C6A2C4A6C2CAC04EDE1C439749C6
:10DD440000009389E969174900001309A96493F74E
:10DD5400F7E793E707081CC383A609003707CEFF3C
:10DD64007D179C46130680022A84F98F9CC683275C
:10DD74000900130700082800B8CBAE8493051008E7
:10DD8400EFE03FFD975003E0E7806026975003E003
:10DD9400E780603383270A009376F41F370FFCFF74
:10DDA40023A40700984B4E88CA881367F70398CBBF
:10DDB400F84F130510F8D285137707E0558FF8CF85
:10DDC4009843F576FD16758F98C39843B7063300CC
:10DDD400B70204001377F7E798C398439303401FEF
:10DDE4007D1F1377F7E71367071098C303A709008C
:10DDF400930F800285491C47D58F1CC783270900D0
:10DE04001307900D3400B8CB114901471353370061
:10DE140026938347030013767700B3D7C740858BD7
:10DE2400DDCF9C41832E0800239C07042390070622
:10DE340003AECE02137EDEFF23A6CE0383AE07001D
:10DE4400137EF70793FE0EF833EECE0123A0C7012D
:10DE540003AE4702336E5E0023A2C70383AE0800FD
:10DE6400014E23A27E0603DA070663074E0303AEC0
:10DE74000703038A0600135EFE00620E135E8E41E2
:10DE84006358CA0103AE0703135EFE002380C60174
:10DE940003DE0706137EFE0F03AA4E0663060A007E
:10DEA40003DA8705E37F49FB03AE4702337EEE01C5
:10DEB40023A2C70383870600635CF400034E0300B8
:10DEC4003396C9001346F6FF3376C6012300C30018
:10DED4003E8663D3A7002A8613158601618505074C
:10DEE4001377F70F8506E313F7F3B64026449644F9
:10DEF4000649F259625A616182809746000093860E
:10DF040066499C42D8471316170163550602984781
:10DF140013161701635006027D57B8D71747000040
:10DF240013074724584F050717460000232AE62401
:10DF3400116798C798470D83058B1DC317470000C9
:10DF44000347A74313671700174600002307E64259
:10DF5400130700F8174600002302E642214798C73A
:10DF64009847058B09CF174700000347F74013670D
:10DF7400170017460000A301E640054798C79847D5
:10DF84000983058B09E798470583058B31CF9847AB
:10DF9400174600001306463E174500001305053DCD
:10DFA4000983058B630307101841184331830D8BD4
:10DFB40075EBAC4B184E93F5050203471700CDCD16
:10DFC40079EF13077006D8CF0347060013671700CD
:10DFD400174600002302E63A114798C718415C57D8
:10DFE400F19B93E717005CD79C429847931637013F
:10DFF40063D606029746000083C6064CC18A1747BB
:10E00400000013072744C5CE0347470713670702D9
:10E01400974600002382E64A056798C798479316F7
:10E02400270163D10602174700000347273562071B
:10E034006187635707000547974600002380E6344D
:10E04400096798C798479316070163D6060297464F
:10E05400000083C67646858A174700001307873E6B
:10E06400ADCE034757071367270097460000A385E3
:10E07400E644216798C7828029D785456315B70090
:10E084001307B00689B789456315B7001307F0066F
:10E094001DBF8D456315B700130730072DB7130750
:10E0A400500715B71307600739BF034736001367D6
:10E0B400170017460000A302E62C094739BF834620
:10E0C40047070946BD8A6388C600034747078D464C
:10E0D4003D8BE313D7F4114725BF83465707918A35
:10E0E400C9DA034757071367870041B7397106DE5A
:10E0F40016DC1ADA1ED82AD62ED432D236D03ACE2C
:10E104003ECC42CA46C872C676C47AC27EC0F533D3
:10E11400F250E2525253C2533255A255125682560D
:10E124007247E2475248C248324EA24E124F824FC3
:10E13400216173002030174700001307E725834649
:10E14400B7019747000083C7F7274C4BB697FD8B61
:10E1540033D7F50097460000A380F62497460000C5
:10E16400A382F626058B15EF174700000347D72532
:10E17400B3F7E702814601471305000233D6E500F1
:10E18400058A1378F70F19CA6397D70097470000D9
:10E19400A38407218280850693F6F60F0507E31F03
:10E1A400A7FC828097470000938787059C43011151
:10E1B40022CC4EC606CE26CA4AC852C456C282973C
:10E1C400974700009387471F804781496305A4064A
:10E1D400BE8497470000938767FE038767013E89E3
:10E1E40063550706018D135455009747000083C7F4
:10E1F400471C9379F501636DF402370AC0A8B70A86
:10E204004057153F9C449746000083C6861A1397CF
:10E2140056003E9783076901158C63C50700636345
:10E22400470156979747000023ACE718E37BD4FCDB
:10E234001604B3693401F24062444E85D244424923
:10E24400B249224A924A05618280E37D85F8B70784
:10E25400C0A833848740229579B7974700009387F5
:10E2640027FA9C43411122C406C626C282979747C7
:10E2740000009387671480476309A406BE84974708
:10E2840000009387A7F38387670163D80704018D90
:10E29400135455009747000083C7A7116367F4041C
:10E2A400593D98449747000083C7A7109396570099
:10E2B40036971D8C9746000023A4E610E372F4FE03
:10E2C4002244B2409244174500000345F50C8145B1
:10E2D4004101175303E067002326E37A85FAB70761
:10E2E400C0A833848740229565B7B2402244924443
:10E2F40041018280974700009387870E9843B75760
:10E3040002009387079F83260709139656006358D4
:10E314000600832607091396660063440600FD176A
:10E32400FDF3828071C5AA870145E9C58D07C2073F
:10E33400C183F19BC207C18313074003636FF702D4
:10E34400174700001307C70F0843174700001307B8
:10E35400A70E14436398A60217470000130707E6A5
:10E36400185B014541CB4111C20706C60545DD8D49
:10E374000297B2400145410182801747000013070C
:10E38400E70BD9B70357650035E303574500636FBF
:10E39400F704B306F7402146637CD6020328050040
:10E3A400938687001D8FAA966117174600000356AF
:10E3B400C6DB2392E60023A006012393060014C1C2
:10E3C4002312F500130786FF97460000239FE6D823
:10E3D4002313B5009745000083D525D9B387F540AD
:10E3E400174700002313F7D82105828008419DB701
:10E3F4000145828082800DC19747000093874704BE
:10E4040003A30700974700009387070383A8070027
:10E4140081469A8763E31701828003A80700636D2E
:10E42400F50A636BA80A13878700E367E5FE03D642
:10E434006700216705076317E60003C7019805070E
:10E444002380E198974500009385C5D103D6470002
:10E4540003D765002393070032974207418317458A
:10E4640000002314E5D0638A6702174500001305F2
:10E47400E5FC08416303F50203D5660019ED83D773
:10E48400460023A0060121073E9621062392C600DA
:10E4940097470000239BE7CCB6879843E30E17F712
:10E4A40097460000938686F99442E307D7F683568D
:10E4B4006700BDF283D64700035647001843A10600
:10E4C400B2962392D70098C383D76500A107174754
:10E4D4000000231CF7C88280BE86C28725BF0111B5
:10E4E40097470000938707F622CC03A4C70B26CADC
:10E4F4004AC84EC606CEAA8413092500854915C00C
:10E5040083C7140003473400858B6304F700405C21
:10E51400FDB71946930544004A85EFE01F89E318C7
:10E5240035FF2285F2406244D2444249B249056132
:10E5340082804111974700009387C7F022C403A447
:10E54400C70B26C24AC006C693042500054901E844
:10E554002285B24022449244024941018280A68528
:10E564001305A40297F003E0E780C09DE30225FFB2
:10E57400405CF1BF4111974700009387A7EC22C488
:10E5840003A4C70B26C24AC006C693042500054946
:10E5940001E82285B240224492440249410182802A
:10E5A400A6851305A40197F003E0E780A099E30290
:08E5B40025FF405CF1BF0000EF
:10E5C0009751FF1F938101B717A1FF1F130181A36B
:10E5D00017E5FFFF130545A39725FF1F938585A228
:10E5E0001746FF1F130686FD63FAC5008322050048
:10E5F00023A0550011059105E3EAC5FE17F50300B8
:10E60000130585B19745FF1F938545FB138601864A
:10E6100063FAC5008322050023A05500110591056A
:10E62000E3EAC5FE138501869785FF1F938585F371
:10E630006377B500232005001105E36DB5FEFD42AB
:10E64000739002BC8D4273904280B7220000938287
:10E65000828873A002309722FF1F9382A29A93E2CE
:10E6600032007390523097F200009382A2097390A7
:10E670001234730020303D432A876373C3029377BB
:10E68000F700BDEFADE5937606FF3D8ABA960CC361
:10E690004CC30CC74CC74107E36BD7FE11E2828025
:10E6A000B306C3408A069702000096966780A600CC
:10E6B0002307B700A306B7002306B700A305B700DA
:10E6C0002305B700A304B7002304B700A303B700D2
:10E6D0002303B700A302B7002302B700A301B700CA
:10E6E0002301B700A300B7002300B700828093F591
:10E6F000F50F93968500D58D93960501D58D61B75D
:10E70000939627009702000096968682E78086FA05
:10E710009680C1171D8F3E96E374C3F8A5B7336783
:10E72000B500FD530D8B79E7B7877F7F9387F7F7A8
:10E7300010419441B372F6003363F600BE92B3E227
:10E7400062006397720C6318D6065041D441B372CD
:10E75000F6003363F600BE92B3E262006398720A79
:10E76000631BD60410459445B372F6003363F6007C
:10E77000BE92B3E262006391720A631ED6025045F4
:10E78000D445B372F6003363F600BE92B3E2620082
:10E79000639A72086311D60210499449B372F60065
:10E7A0003363F600BE92B3E26200639372085105D0
:10E7B000D105E30FD6F61317060193970601631CE4
:10E7C000F7001357060193D706013305F7409375F9
:10E7D000F50F91E982804183C1833305F74093753A
:10E7E000F50F91E182801377F70F93F7F70F330559
:10E7F000F74082800346050083C6050005058505B0
:10E800006313D60065FA3305D64082801105910561
:10E81000E312D6FE014582802105A105E31CD6FC4A
:10E82000014582803105B105E316D6FC01458280A1
:10E830004105C105E310D6FC014582800147114620
:10E840004148B386E5008147B308F50083C8080056
:10E850008507C10623A816FFE398C7FE1107110517
:10E86000E31107FF8280935785019CC193570541AF
:10E8700093F7F70FDCC19357854093F7F70F1375A4
:10E88000F50F9CC5C8C582801C41411113070501C5
:10E890003EC05C413EC21C453EC45C453EC69397AB
:10E8A00025001408B69783A707FF85051105232EB9
:10E8B000F5FE8D89E315E5FE41018280397122DC88
:10E8C00041661384419F06DE26DA4AD84ED652D4DA
:10E8D00056D25AD05ECE93050501A2863708FF00B6
:10E8E0007D1683070500034735001105E207D98F20
:10E8F0000307D5FF9106420733770701D98F030736
:10E90000E5FF2207718FD98F23AEF6FEE39BA5FCAE
:10E9100081499144930A010117AB0300130B0BBF0C
:10E9200097AB0300938B0BBC130AC00293F7340020
:10E93000032904004844BDE78A85353785450A85A3
:10E94000A1370A871C43110793F6F70093F7070FC7
:10E95000DA97B69783C70700232EF7FEE394EAFE03
:10E96000024592476205C2075D8DB2475D8DA247A1
:10E97000A2075D8D93972900DE979C4385093D8D05
:10E980003345250108C885041104E39144FBF25086
:10E990006254D2544259B259225A925A025BF24BF3
:10E9A000216182803345A90008C8F1BF797122D462
:10E9B00026D24AD04ECE52CC56CA06D62A8A93992F
:10E9C00045000144938A419F13090101C144B307E3
:10E9D0003401D69788438A85793533078A008A8738
:10E9E0001443904391074107B18E2328D7FEE39942
:10E9F00027FF1104E31D94FCB25022549254025993
:10EA0000F249624AD24A45618280397122DC13049C
:10EA1000050106DE22878147C1460C433306F1001B
:10EA200011070CC24C4710083E960CC24C4F1010F8
:10EA30003E960CC29107E392D7FE85450A85A9351B
:10EA40008945080891358D4508103D3D814741476E
:10EA5000B306F10094421104232ED4FE1408BE968E
:10EA6000944254C41410BE969442910754CCE3913E
:10EA7000E7FEF2506254216182800605937705100B
:10EA800089C71375F50F1345B5018280411106C67C
:10EA9000ED37B2404101D5B781471148C1483386AF
:10EAA000F500B306F500014703AE06003303E600A8
:10EAB00005072300C301C106E31807FF9107E39090
:10EAC00017FF82809306050117A60300130606B4FC
:10EAD00013050505138706FF1C43110793F5F7007F
:10EAE00093F7070FB297AE9783C70700232EF7FE61
:10EAF000E394E6FEC106E31FD5FC82801C41411170
:10EB0000FD563EC05C413EC21C453EC45C453EC60F
:10EB10008D47B385B7409307C500139725001008AC
:10EB20003297032707FFFD1598C36393D5008D45E2
:10EB30001387C7FF6314F50041018280BA87F1BFD4
:10EB4000397122DC1304050106DE22878147C146A4
:10EB50000C433306F10011070CC24C4710083E96D7
:10EB60000CC24C4F10103E960CC29107E392D7FE98
:10EB700085450A8561378945080849378D4508105C
:10EB8000B53F81474147B306F10094421104232E5B
:10EB9000D4FE1408BE96944254C41410BE969442F7
:10EBA000910754CCE391E7FEF250625421618280D8
:10EBB0009306050117A603001306469513050505E0
:10EBC000138706FF1C43110793F5F70093F7070F10
:10EBD000B297AE9783C70700232EF7FEE394E6FEB5
:10EBE000C106E31FD5FC8280411122C406C626C29D
:10EBF00085472E846301F50289476318F500224496
:10EC0000B24092442E8541018DBD8D47631BF500B6
:10EC10002E85A535298C2285B2402244924441019B
:10EC20008280A5476315F5002E858D35DDB7AD478C
:10EC3000631AF5002E85993D8935AA842285353DD4
:10EC4000258DC9BFB5476316F5002E858135AA8489
:10EC5000FDB7B947E311F5FC2E850D3DAA84313D82
:10EC6000A98C2285193D3344950075B7597186D614
:10EC7000A2D4A6D2CAD0CECED2CCD6CADAC8DEC6EC
:10EC8000E2C4E6C2930605040A87AA879043C10737
:10EC900041072328C7FE03A647FF232AC7FE03A672
:10ECA00087FF232CC7FE03A6C7FF232EC7FEE39FC3
:10ECB000D7FC17A90300130969A9130A05019309D1
:10ECC0000505832C0900032C4900832B8900032BA5
:10ECD000C900930A0AFF8A848C406685910A293705
:10ECE0008C482A84628509378C50298C5E85ED3DDD
:10ECF0008C58298C5A85CD3D218D23AEAAFE9104D6
:10ED0000E31C5AFD410A4109E39D49FBB6502654D4
:10ED100096540659F649664AD64A464BB64B264C97
:10ED2000964C656182806382051493F7F500639EBB
:10ED300007121571D6C3AA8A3285A2CDA6CB86CF7B
:10ED4000CAC9CEC7D2C5DAC15EDF62DD66DB6AD969
:10ED50006ED73284AE84EF60631CC147631EF5003A
:10ED60002285A93E0149130A010697AB0300938B44
:10ED7000EB9D294C63419902FE406E44DE444E49AE
:10ED8000BE492E4A9E4A0E4BFA5B6A5CDA5C4A5DCB
:10ED9000BA5D2D618280338B2A010C105A85793C33
:10EDA0008145081021318549081019350810B139FD
:10EDB0001C10D2863E8710434107C10623A8C6FE19
:10EDC000032647FF23AAC6FE032687FF23ACC6FE01
:10EDD0000326C7FF23AEC6FEE31FEAFC17A7030006
:10EDE0001307C79203280700832D4700032D8700D0
:10EDF000832CC7005284138607010C4042853ECE07
:10EE00003ACC32CA42C8CD330C482AC66E85E93B9B
:10EE1000B2460C501104A98E6A8536C6F133B2464B
:10EE20004C54A98E668536C6C133B246F247524667
:10EE3000358D88C3910742486247E310F6FC4107CD
:10EE4000B287E391EBFACE85081085098536E39DFC
:10EE500089F50810B13B08104D3EA9450810B93698
:10EE6000DA8508101539410931B78280638D0510A4
:10EE700093F7F500639907105171CECFAA893285B7
:10EE8000A2D5A6D386D7CAD1D2CDD6CBDAC9DEC712
:10EE90003284AE84EF608308C1476319F500228590
:10EEA000313C0149138B419F634D9900BE502E5454
:10EEB0009E540E59FE496E4ADE4A4E4BBE4B6D6162
:10EEC0008280338A29018C0052858D3AA9458800B9
:10EED000F13C138441A8C14A930B00048800DD363D
:10EEE0008800B9398800593308408A85AD3A4840CE
:10EEF0000C08953A08440C10BD3248440C18A53251
:10EF000018018147B306F100944241072328D7FE38
:10EF10001408BE969442232AD7FE1410BE9694423B
:10EF2000232CD7FE1418BE9694429107232ED7FEA9
:10EF3000E39A57FD08011D3B01479C003385E7001C
:10EF40001C01B305F70081473306F5003388F5004F
:10EF50001442032808009107B3C6060114C2E395C2
:10EF600057FF4107E31B77FD4114E31964F788005D
:10EF7000913E8800F136814588000D3CD28588009D
:10EF8000213E410915B782809307F00F6385F60A89
:10EF90002D71232A911023282111B28423263111A7
:10EFA000130600102E89AA89930530020A85232EA4
:10EFB0001110232C81103684EFF0EFEBA28526850B
:10EFC000EFB0802513178500935785003365F70050
:10EFD0002310A100A6852286130531009304340076
:10EFE0002301810093F4F40FEF50231C93F6F400F7
:10EFF00089C64D04158C9374F40F1C02A697A68540
:10F000000A85179603001306267A238007F0213B12
:10F0100026868A854E85EF50431923009900832068
:10F02000C111032481118324411103290111832972
:10F03000C110156182808280797122D432844AD0D5
:10F040004ECE2A89AE892285B6851796030013060F
:10F05000A67526D252CC06D636C6093DB246130A4C
:10F0600034005285A296238006008344040083471F
:10F07000140083452400A204DD8CEFB0E019639AEC
:10F08000A40203462400D2854A852380C900EF509C
:10F09000D36C2545979503009385456FEFB0801B92
:10F0A0000545B250225492540259F249624A4561D0
:10F0B00082802380090025452300090097950300DD
:10F0C0009385856DEFB000190145E1BF130101DDA6
:10F0D0002E86AA85681823261122EFB02062130518
:10F0E000D103EF50B36393150501C1811305D1031B
:10F0F000EFB0206F97A50300938545981305D103C2
:10F10000EFB040311DC1054597A503009385859754
:10F11000EFB040141755FF1F0345457DEF50207198
:10F120008320C12213010123828097A503009385C8
:10F13000A5961305D103EFB0E02D19CD97A50300D7
:10F14000938505960545EFB0E0101755FF1F034561
:10F15000E579EF508070E9B797A503009385459551
:10F160001305D103EFB0002B0DC1371700408327E3
:10F17000C70AA16697A5030093850594D58F23261A
:10F18000F70A2545EFB0000D61BF97A503009385F1
:10F1900065931305D103EFB0E02711CD3717004079
:10F1A0008327870AA16697A5030093852592D58FAB
:10F1B0002324F70AF9B797A503009385A5911305B2
:10F1C000D103EFB0202511CD371700408327C70AA0
:10F1D000916697A503009385A590D58F2326F70AFE
:10F1E0004DB797A503009385A5901305D103EFB004
:10F1F000602211CD371700408327870A916697A5B3
:10F2000003009385A58FD58F2324F70A9DBF97A56B
:10F2100003009385A58F1305D103EFB0A01F97A519
:10F2200003009385658F31FD97A503009385858F36
:10F230001305D103EFB0001E97A503009385458FFA
:10F2400029F197A503009385658F1305D103EFB0CE
:10F25000601C11C59757FF1F23A8076AD1B597A552
:10F2600003009385658E1305D103EFB0A01A01C585
:10F27000EF50704B75B597A503009385A58D1305C9
:10F28000D103EFB0201901C5EF50105151BD97A522
:10F2900003009385E58C1305D103EFB0A01701C5DA
:10F2A000EF50100EB5BD97A503009385258C13056F
:10F2B000D103EFB0201601C5EF80E06E95B597A59C
:10F2C00003009385258B1305D103EFB0A01401C56E
:10F2D000EF80C06DB1B597A503009385258A13050E
:10F2E000D103EFB0201301C5EF80A06C15BD97C509
:10F2F00003009385E5AE1305D103EFB0A01101C55E
:10F30000EFA0807231BD97A503009385E5871305B3
:10F31000D103EFB0201029C1130600038145130566
:10F32000A100EFF04FB5F5779387A7EB13076020A7
:10F330002314F1002316E10091471307206039469A
:10F340002C001385416AA305F1002319E100230A6B
:10F35000F100EF70D065E9B30346D103A54713066A
:10F3600006FD1376F60FE3EDC7DA97A50300938544
:10F3700025829757FF1F2383C758EFB060024DB314
:10F38000411106C6EF70003EB240AA8617970300EF
:10F39000130707481756FF1F1306469A9795030051
:10F3A00093858548114541016FA0907F317122DD21
:10F3B0004AD906DF26DB4ED752D556D35AD103475A
:10F3C0000500930710042A892E84631BF73C03472A
:10F3D0001500930740056315F73C03472500930785
:10F3E000E005631FF73A2E86AA852545EFA0F07049
:10F3F0001306D003A2854A85EFB00008AA84635A99
:10F4000005003546A2854A85EFB00007AA8463450A
:10F4100005089389D4FF9307100363CF37074E86FF
:10F42000930539006808EF5053331C11BE99179AA1
:10F430000300130A2A5A238E09F6D28A8149554BB2
:10F4400083254A006808EFA0F07C0DC18E09D6998B
:10F4500083D709005147636FF7001797030013071D
:10F46000E7358A07BA979C43BA9782878509210AAC
:10F47000E39869FD979503009385055525453DAAB9
:10F480009305F4FF858D13851400C205814601465E
:10F49000C1814A95EF20905AFA506A54DA544A5979
:10F4A000BA592A5A9A5A0A5B296182809305F4FF55
:10F4B000858D13851400C205C1814A950139E9BFC4
:10F4C0001306F4FF058E138514004206418297A5AA
:10F4D0000300938525F74A95EFB060071754FF1F87
:10F4E0001304044031C5979503009385253588089A
:10F4F000EF50B3218808EF507322131605014182A3
:10F500008C081385416AEF70904A979503009385A4
:10F51000A5351145EFA0105483570400414593E7EA
:10F5200017001757FF1F231DF73AEFB01009ADB7AB
:10F5300097950300938505341145EFA0B0517D5593
:10F54000EFB0100D83570400F99B1757FF1F2319C5
:10F55000F73899B7353589B71306F4FF058E13854B
:10F5600014004206418297A503009385A5ED4A95B4
:10F57000EFA0F07D1754FF1F1304843639C1835761
:10F580000400979503009385A52F880893E717003B
:10F590001757FF1F2316F734EF5033178808EF5023
:10F5A000F317131605018C0841821385416AEF7029
:10F5B0001040979503009385652E1145EFA0904963
:10F5C000E1BD979503009385252E8808EF50F3132E
:10F5D0008808EF50B314131605018C084182138577
:10F5E000416AEF70D03C83570400979503009385E0
:10F5F000652DF99B1757FF1F2314F72E7DBFEF7062
:10F6000000149757FF1F9387A72DC85FEF40130E75
:10F61000AE862A86979503009385852B1145EFA02A
:10F6200030589DBDEF50604085BD17A603001306FE
:10F63000E6E1979503009385652A1145EFA05056A2
:10F64000A1BDEF70A015979503009385E52935F5C9
:10F65000979503009385452A8DB73545EF80002A9D
:10F66000AA84EF40B3082A86AE8625459795030005
:10F670009385C529EFA0D052979703009387C71BA6
:10F680008843A6851754FF1F1304C481EF30335DF0
:10F690002328A422EF70E01A03250423EF4013056A
:10F6A000AE862A86979503009385052785BF8145F9
:10F6B0000D45EF500074EF70200A2A8697950300DD
:10F6C000938545289DBF81453145EF508072814526
:10F6D0003945EF50007281453545EF508071EF702C
:10F6E00000082AC6EF706008B2462A871746FF1F37
:10F6F0001306C664979503009385C5251145EFA0B1
:10F70000304A59BB1757FF1F0357679C9756FF1F77
:10F71000938656831746FF1F13064662979503008C
:10F7200093858525E1BF85471757FF1F230CF79A5F
:10F73000EF7020119795030093854525BDBD1757A0
:10F74000FF1F0347279A85479795030093858524D4
:10F75000E315F7E6C5B785471757FF1FA30FF79CBB
:10F76000EF70200E9795030093858523B9B59757C1
:10F77000FF1F83C7979C979503009385E522E38E2F
:10F7800007E2CDB79757FF1F93878715885FEF4034
:10F79000E375AE862A86979503009385A521BDBDA6
:10F7A0000146A2854A85EF500047FDB1411122C4B0
:10F7B00021649305048099460146254506C69710A5
:10F7C000FF1FE780201F930504802244B240994622
:10F7D00013860186294541011713FF1F6700831D0A
:10F7E00099E10145828075DD011152C403DA418639
:10F7F00026CA93548A008504A204C204C18056C25A
:10F80000B38A4441C20A22CC4AC82E862E842A8951
:10F810009795030093850555254593DA0A014EC651
:10F8200006CE93890186EFA0B03763ED8A0883D5B1
:10F83000418693F7F50FB1CF8D6783D541869387C6
:10F840000780A2864A86BE9529459710FF1FE7804C
:10F8500060161375F50F29ED83D749001566A29739
:10F860002392F18603D7418683D721866309F70067
:10F8700063F3E700B297998F1396070141822545FC
:10F88000979503009385854FEFA090311375F40F82
:10F890000DA08D6793870780930600100146BE95E3
:10F8A00025459710FF1FE780E0101375F50F49D528
:10F8B0000145F2406244D2444249B249224A924A46
:10F8C00005618280B3079440D297C207C183A183A8
:10F8D00003C74900850793F7F70F9396870011EB4D
:10F8E0009386170093740AF0A206C204C206C18070
:10F8F000C18283D7218663F6F40033879600E3C97B
:10F90000E7FA0D6A130A0A800146B38544012545CA
:10F910009710FF1FE780000A1375F50F51F983D583
:10F920004186A2864A86D29505B7411122C4138426
:10F93000018622858145194606C69710FF1FE7807C
:10F9400080419307B0FA2300F4008D352244B24081
:10F950009795030093858539254541016FA0900F48
:10F96000A1654111994613860186938505802D4531
:10F9700006C69710FF1FE780E00303C701869307C1
:10F98000B00A6303F7005537B24083D6418603D6E9
:10F9900021869795030093852536254541016FA063
:10F9A000302083D741AA0145638C071003D561AA93
:10F9B0006366F50023A201AA014582803385A74032
:10F9C000D1473355F5021375F50F01E5239201AACE
:10F9D0008280130101BD2324814223261142232268
:10F9E000914223202143232E3141232C4141232ABC
:10F9F000514195471374F50F63F3A7001544228610
:10FA000097950300938545392545EFA07019014965
:10FA10008144938981AA514AA14A9377F90F03D56A
:10FA200061AA1747FF1F0347775E63E98704D14741
:10FA30003304F4022A94239381AAA147631CF70696
:10FA4000A6850808EF40000F03D761AA83D741AA13
:10FA500005456364F70023A201AA8320C142032461
:10FA6000814283244142032901428329C141032A5F
:10FA70008141832A4141130101438280B307490335
:10FA80001408AA97CE9733859600631E5701BE854A
:10FA9000EF40C0292317A1008357E1000509BE9458
:10FAA000C204C1809DBFAA851306E1003E85EF8098
:10FAB0007032DDB726860C080145EF60703269B7F9
:10FAC0008280011106CE22CC26CA4AC84EC691E9D0
:10FAD00001442285F2406244D2444249B249056160
:10FAE0008280AA8975D583D7418603D621862E8444
:10FAF0009564638AC7006374F60015673A961D8E95
:10FB000093140601C1802686979503009385051BF3
:10FB10002545EFA0F008938714F06356F40093078F
:10FB2000F00F63EA9700979503009385A51A254582
:10FB3000EFA0100771BF83D4418633878400956797
:10FB400063C7E700A2854E8561398D3159B71569C4
:10FB500033099940420913590901CA854E85493133
:10FB600025D9ED75A695A295C20523920186C1817E
:10FB700033852901D1BF83D641AA81EA9795030035
:10FB80009385C51B25456FA0E06C03D661AA411182
:10FB9000918E979503009385651B254506C6EFA0BA
:10FBA0003000138741AA8355070083D761AA1385C4
:10FBB00081AA9D8DC2053E95C1812137B24023A205
:10FBC00001AA41018280411183D741AA22C426C2E1
:10FBD00006C6AE971307401FAA842E84635AF70007
:10FBE000593F97950300938525132545EFA080661F
:10FBF00083D741AA138581AA2286A6853E95EF4028
:10FC0000C35A03D641AA229642062244B2409244E5
:10FC100041822392C1AA97950300938565112545DA
:10FC200041016FA0E077011126CA06CE22CC4AC856
:10FC30004EC652C456C2814459C1D1C183D7218610
:10FC400003D44186638D870663F587081D8C4204C3
:10FC50004180AE892A892286979503009385850283
:10FC60000145EFA0E073A28463F38900CE84C2044F
:10FC70000D6A83D7218603D74186C180938A018686
:10FC8000130A0A8063FAE704A6864A86B385470109
:10FC90002D459710FF1FE780E0D183D72A00A69754
:10FCA0002391F186EFF09FB083D6418603D621865B
:10FCB00097950300938545FE2545EFA0606EF240C1
:10FCC000624426854249D244B249224A924A056199
:10FCD000828015673A949DBF15671D8FB3854701D4
:10FCE00063D5E400A6864A8665B79569B389F9406D
:10FCF0006D743E94C20993D909012694CE864A8632
:10FD000042042D459710FF1FE780C0CA4180A2869C
:10FD100033063901D2852D45239101869710FF1FA7
:10FD2000E78040C983D72A003E94239181869DBFF6
:10FD3000397106DE22DC26DA4AD84ED652D456D2A3
:10FD40005AD05ECE62CCE9C9328455CA368CE9C637
:10FD5000BA8B79C32A89AE8A2300AC0085448149D5
:10FD6000114B330634416353CB001146137AF60F1F
:10FD70005286B3853A01480002C2EF40034303476D
:10FD800051008347610003467100834641004A9752
:10FD9000CA974A96050789070D06CA962307E10008
:10FDA000A306F100A307D1002306C1007800814714
:10FDB00003460700B306F9008507B18E2300D7007C
:10FDC00093F7F70F0507E39567FF8357C1000357C4
:10FDD000E100D29933059C00B98F2316F100B24798
:10FDE00011462C00910493F9F90F3EC493F4F40FDB
:10FDF000EF40A33BE3E789F623809B00054422857F
:10FE0000F2506254D2544259B259225A925A025B69
:10FE1000F24B624C216182800144D5B71D7186CEC0
:10FE2000A2CCA6CACAC8CEC6D2C4D6C2DAC05EDECA
:10FE300062DC66DA6AD86ED67DC52E84E9C5328961
:10FE40007DC2368CEDC2834D0500AA84814C054DE0
:10FE50009149138A3D00938A1D00138B2D00930B4B
:10FE600000103306A44163D3C90011469377F60FFF
:10FE70003E86B385A40148083EC602CAEF40E3327D
:10FE800083466101034741010346710183475101E4
:10FE9000358F230AE100B18F33C7ED00B346DB0095
:10FEA000A30AF1003346CA00B3C7FA00A30FE1006A
:10FEB000A30ED100230EC100230FF10074080147E7
:10FEC00083C706003386ED00050793870710918FDF
:10FED000B3E777038506A38FF6FEE31337FFF247F8
:10FEE0003305990111462C083ECCEF40032CB24754
:10FEF000910C93FCFC0F3E9D137DFD0FE3638DF68B
:10FF000023009C0105442285F6406644D6444649B8
:10FF1000B649264A964A064BF25B625CD25C425D69
:10FF2000B25D256182800144F9BF397193074006B3
:10FF300022DC33F4F50226DA13077100B684740864
:10FF400006DEB377F6023304F402B387C5003E94AD
:10FF500093978500A181DD8D9317860021825D8EA8
:10FF60002314B1002315C1002C001146D13389C4DC
:10FF700083457100680882942285F2506254D254FD
:10FF80002161828018419387010E104598C3035761
:10FF90004500544590C72392E70058551049D4C7EF
:10FFA000544998CF97950300938585E605472545E5
:10FFB00090CBD4CB238EE7006FA0C029397126DA0D
:10FFC0004AD84ED652D456D25AD006DE22DC62CE61
:10FFD00066CC2A89EF4093749374F50F8149254BC1
:10FFE000E54A179A0300130A6ADC91ECF250625456
:10FFF0004E85D2544259B259225A925A025B724CDF
:020000021000EC
:10000000E24C2161828003470900930707FD93F7C3
:10001000F70F637CFB009307F7F993F7F70F63E2A1
:10002000FA06930797FA93F7F70F13948701618401
:10003000FD14230089002685EF30C3342A86AE865E
:1000400003250A0083254A0093F4F40F0509EFE025
:10005000E0472AC422852EC6EF30C3322246B2467C
:10006000EF20E3622A8C4E85AE8CEF30C3382A86AF
:10007000AE866285E685EF106376EF30E32AAA89C3
:10008000ADB79306F7FB93F6F60F8147E3EFDAF887
:10009000930797FC49BF411122C406C68307950206
:1000A0002A8499C713059502EF40630D238DA1089B
:1000B0008307D41291CB1305D412EF40E30BEF303A
:1000C000B36D93878106C8D3B24022444101828038
:1000D000011126CA9304150022CC9795030093853D
:1000E000E5D62A84268506CE4AC84EC6EFA0803AB9
:1000F000631E051097950300938585D52685EFA08F
:1001000060396302050E85448307D4036386070CB8
:1001100013059402EF40A30685491379F50F1305E3
:10012000D4036387340F8947638CF418EF402305A9
:10013000A38EA108631A3901794681451385F10B15
:1001400023830186EFE02FD38307D40885C31305EB
:10015000D408EF40C30203C76186930717002383C7
:10016000F18693878106BA97A38BA7048307D40DE2
:1001700085C31305D40DEF40830003C76186930741
:1001800017002383F18693878106BA97A38BA70470
:100190008307D41285C31305D412EF30537E03C7EF
:1001A0006186930717002383F18693878106BA97A8
:1001B000A38BA7048307D41785C31305D417EF3087
:1001C000137C03C76186930717002383F186938707
:1001D0008106BA97A38BA704F2406244D2444249F5
:1001E000B24905618280979503009385A5C626854F
:1001F000EFA0402AE31905F0268597950300938523
:10020000A5C5EFA020298944E31005F08144EDBD88
:10021000EF30F376238FA108631A99007946814560
:100220001385110A23830186EFE0EFC48307D40806
:1002300085C31305D408EF30937403C76186930711
:1002400017002383F18693878106BA97A38CA702B0
:100250008307D40D85C31305D40DEF30537203C744
:100260006186930717002383F18693878106BA97E7
:10027000A38CA7028307D41285C31305D412EF30D1
:10028000137003C76186930717002383F186938752
:100290008106BA97A38CA7028307D417E38E07F2CF
:1002A0001305D417EF30B36D03C7618693071700AA
:1002B0002383F18693878106BA97A38CA70229BF6F
:1002C000EF30F36BA38FA10801BF411122C406C612
:1002D000830795072A8499C713059507EF30336A7A
:1002E000A38DA1088307D40899C71305D408EF305C
:1002F0001369238EA1088307540B91CB1305540B6C
:10030000EF309367EF3053499387810688D7B24027
:10031000224441018280011126CA8146B2840146ED
:1003200052C456C206CE22CC4AC84EC62A8AAE8ACB
:10033000EF20031941CD9307E0046386F40093078F
:1003400030056395F40897990300938929AE03A6B5
:10035000090083A649005285D685EF2043333794A0
:100360009800EF20737C130404682A893375850292
:10037000EF30630803A6090083A64900EF10133984
:1003800097970300938707AB9043D443EF1013383C
:100390002A8A33558902AE8AEF30E3052A86AE8673
:1003A0005285D685EF10834313073005AE876395DA
:1003B000E400B7070080AD8FF2406244D244424966
:1003C000B249224A924ABE85056182800145814731
:1003D000E5B7011126CA8146B284014652C456C20D
:1003E00006CE22CC4AC84EC62A8AAE8AEF20430DDA
:1003F00041CD930750046386F4009307700563951D
:10040000F40897990300938969A203A6090083A6BB
:1004100049005285D685EF20832737949800EF2036
:10042000B370130404682A8933758502EF20B37C06
:1004300003A6090083A64900EF10532D97970300E8
:100440009387479F9043D443EF10532C2A8A335508
:100450008902AE8AEF20337A2A86AE865285D68507
:10046000EF10C33713077005AE876395E400B70735
:100470000080AD8FF2406244D2444249B249224AE0
:10048000924ABE850561828001458147E5B71357D1
:1004900085009357050113D885009376F50F011158
:1004A0001377F70F93F7F70F618593F5F50F13782F
:1004B000F80F99C211C3B9E3230CD100A30CE100DA
:1004C000230DF100A30DA100034591018347810194
:1004D0000347A1012205A30E01014207C98F230E84
:1004E000B1000345B101D98F0347D1018345C10153
:1004F000620522075D8DD98D056182803295137565
:10050000F50F13138501135383415D466357660846
:1005100061463363C30285071376D70F114593F7FE
:10052000F70F6305A6002545631AA6007946637F89
:10053000F60205071377F70F85470DA809466312E2
:10054000C7041386067D93084006B36816036385C7
:10055000080013F5360011C5130500193366A6020D
:1005600019EE75466374F60085470D47230CD100DC
:10057000A30CE100230DF100A30D6100B1B771469A
:10058000D5B77D46E374F6FEB147E314F7FA850666
:1005900093F6F60F85470547D1BFE35903FC610584
:1005A000FD171313850193F7F70F13538341DDFFF5
:1005B0007D171377F70F1146F947E309C7FA194674
:1005C000E306C7FA2546E303C7FA2D46E300C7FA58
:1005D00089476316F7021386067D93074006B367C3
:1005E000F60291C793F83600F547E38108F89307C0
:1005F0000019B367F60293B71700F10785BFFD47EF
:1006000035F7FD1693F6F60F31478DB78347150082
:10061000034705000111A2075D8F8347250083462C
:10062000350006CEC207D98F0347550083454500E4
:100630001746FF1F1306068703065621E206220708
:1006400033E5F600D98DA135135885001356050101
:1006500093D7850013F7F50F93F7F70F935685019E
:100660001376F60F9375F80F1375F50FEF70A0085A
:100670009747FF1F83C7178305476385E700114727
:100680006396E700F24005616F708016F2400561E5
:1006900082804971232481161384810683073400E4
:1006A00083C8D10603C8C10603C7A10683C6910645
:1006B00003C68106978503009385C57B48102326D2
:1006C00011162322911623202117232E3115EF40D6
:1006D000637F4810EF40930418485C480306040306
:1006E0003AC03EC2030814035C4418445410978572
:1006F00003009385257A3695EF40C37C4810EF4080
:10070000F3015C103E95830764001786030013060F
:10071000E67589C7178603001306C674979503000C
:1007200093850540EF40037A4810EF40237F544CF7
:10073000104C5C10978503009385C5763E95EF407D
:1007400063784810EF40837D030634035C103E95C8
:10075000978503009385C575EF40C3764810EF4039
:10076000E37B03072403AA8448503ACE138481060E
:10077000EF30C37772475C10AE862A8697850300F8
:100780009385057433859700EF40C3734810EF409D
:10079000E3785C1003C6C109978503009385C57390
:1007A0003E95EF4023724810EF4043775C109785E9
:1007B0000300938565733E95EF40237513896108A7
:1007C000A284979903009389293503C6740519CA31
:1007D000481032CEEF40837472465C10CE853E9551
:1007E000EF40436E8504E39224FF4810EF4003730B
:1007F0005C10978503009385A56F3E95EF40E370ED
:1008000097940300938444310346940319CA481013
:1008100032CEEF40A37072465C10A6853E95EF4045
:10082000636A0504E31224FF4C102545EF909022E3
:100830008320C1160324811683244116032901163F
:100840008329C11575618280411122C406C626C262
:10085000830755012A84B9C7A946938707FDB38743
:10086000D70203476501130707FDBA97A385F10671
:100870000307750183478501130707FD3307D70277
:10088000938707FD3E972386E1068307950103477B
:10089000A501938707FDB387D702130707FDBA9712
:1008A000A386F1068307940281CB1307100463919A
:1008B000E71485472387F1068307D40393848106D1
:1008C00099C71305D403EF30330B88C4CCC4030697
:1008D000140509CA8844CC44238CC108EFF0BFA397
:1008E00088C4CCC48307540699C713055406EF3057
:1008F000B30888C8CCC80306940709CA8848CC48FE
:10090000A38CC108EFF0FFAC88C8CCC88307D4081B
:1009100099CF1305D408EF303306978703009387E8
:10092000E7539043D443EF10935688CCCCCC830745
:10093000140A99C71305140AEF3073042394A1080D
:100940008307540BB9C7A946938707FDB387D7021E
:100950000347640B130707FDBA972385F1060307C6
:10096000740B8347840B130707FD3307D702938764
:1009700007FD3E97A384E1068307940B0347A40B6E
:10098000938707FDB387D702130707FDBA97238420
:10099000F10683853400856703C6C106938707E1A6
:1009A0001307C0033307E60283C6D106B387F502F7
:1009B000BA97B69723AAF1081747FF1F130747F204
:1009C000835707003A8413F5870039E103856400F3
:1009D0000547631FE50203C7A10611EF8844CC4415
:1009E00001468146EF10D32D05E923870106B9A002
:1009F00023870106D1B5FDD175D2EDD293E78700EB
:100A0000138581061747FF1F231CF7ECEFF01FC06B
:100A100083876400E1F7D1BF8848CC48014681460E
:100A2000EF10132A79D183C7A106E1D313068007FB
:100A300093858106138501FFEF30237703C501CA33
:100A40009D4705053365F5021306800793858106EA
:100A50002380A1CA930780073305F502938781CAD3
:100A60003E95EF308374EFF0DFC25C542244B24015
:100A700092441747FF1F232FF7E81306800781458D
:100A80001385810641016FD01FBF0171232C811E88
:100A9000232A911E1306101E2A84AE846800814505
:100AA000232E111E2328211FEFD0FFBC8145814733
:100AB000014701465148CD485D436341960899C1BD
:100AC0002306F1001306A002A6852285EF90D01A16
:100AD0008347C10051473386A440B387E70293059B
:100AE000150078007D16A29585073305F700EF30D5
:100AF000C36B1306A002A685228503491400EF905C
:100B0000B017894763C4A7080345C100D14733051F
:100B1000F5027C0005053E95EFF04FCA631DA90460
:100B2000194697850300938565311305D100EF9031
:100B300010222DC56800EFF03FD135A8B306C400E0
:100B400003C50600930665FD93F6D60F91EA850767
:100B500093F7F70F6361F302854501470506B1BFBF
:100B6000B3860703130E011FF296BA96A38EA6E072
:100B70000507E3D5E8FE8320C11F0324811F8324DA
:100B8000411F0329011F1301012082803307F40054
:100B90000347070085073349E900ADB71946978534
:100BA00003009385E5291305D100EF90501A0DED50
:100BB0001946978503009385E5281305D100EF902A
:100BC000101919ED1946978503009385E52713053C
:100BD000D100EF90D01745D16800EFF06FCF61BF23
:100BE0006800EFF08FEE41BF6800EFF0CFCA61B749
:100BF000757122C526C34AC1CEDED2DCD6DADAD878
:100C000006C7AA892E89814401448147130A4002FC
:100C1000854A354B139704014183636C2701BA4021
:100C20002A449A440A49F659665AD65A465B49619B
:100C30008280338799000347070063004703639C62
:100C40005701631D67019C18A297A2856800238E37
:100C500007F8253D8147850475BF01449C18A2977C
:100C600005041374F40F238EE7F893373406E5B7C1
:100C7000411106C6138501CA834705001307800783
:100C80008145B387E70213068007A1073E95EFD0A1
:100C90009F9EB2408145114541016FA0800B138595
:100CA00001CA8347050013078007B387E702A1073E
:100CB0003E958280138501FF82809747FF1F83C77F
:100CC000A7C281CF9737FF1F83D7273FFD17C207E2
:100CD000C1831307A0036375F70023A401868280F4
:100CE00031714ED79389818683A7090056D3938AA1
:100CF00001CA850722DD26DB52D55AD15ECF62CDEF
:100D000066CB6AC906DF4AD96EC723A4F18683C4BD
:100D100001CA014A130C80075684978C0300938CF8
:100D20006C09054D9D4B154B3389840356998307F8
:100D3000E900E1CF03A60C0083A64C0003250902BD
:100D400083254902EF1053096341050C83470904C9
:100D5000638DA70B93171A001808BA9703578902D7
:100D60002390E7003C00D29723809700050A99045E
:100D7000B3E47403E31A6AFB03578101835701014B
:100D8000998F13D7F741B98F998F93940701130760
:100D9000400BC1806358F70093078016B3849740D7
:100DA000C204C1802686978503009385A503680841
:100DB000EF4043116C082545EF90C049938714FF1D
:100DC000C207C1837947636EF70803499100130A8C
:100DD00080078545014533094903210922994A863F
:100DE000EF70304E8344B10085450145B384440320
:100DF000A104A2942686EF70D04CCA850D45EF2041
:100E00003075A6850D45EF20B07483A7090017370C
:100E1000FF1F0357872A63E7E70203C501CA93044C
:100E2000800733059502B30DA4008387ED0099CBAD
:100E300083C7C10F1389010E6397070E2105229501
:100E4000EFF04F94FA506A54DA544A59BA592A5A70
:100E50009A5A0A5BFA4B6A4CDA4C4A4DBA4D2961F0
:100E600082809307D002E3F297FA834B8100930AC2
:100E700080078545B38B5B030145138C8B00229C57
:100E80006286EF701044034B910085450145330B9A
:100E90005B03A29B210B229B5A86EF709042034A70
:100EA000A10085450145330A5A03210A229A528638
:100EB000EF7030410349B1008545014533095903BD
:100EC000210922994A86EF70D03F8344C1008545AD
:100ED0000145B3845403A104A2942686EF70703EAA
:100EE000E2850D45EF20D066DA850D45EF2050668E
:100EF000D2850D45EF20D065CA850D45EF205065A0
:100F0000A6850D45EF20D06483C701CAB38A570375
:100F100003A74B03A29A83A74A03E318F7EE85477A
:100F20002380FA04DDB5178D0300130D2DE9032688
:100F30000D0083264D0003A58D0183A5CD01978962
:100F40000300938929E8EF10837403A6090083A6A0
:100F50004900EF00B37B2A8BAE8B03260D0083265E
:100F60004D000325090183254901EF10437203A6B3
:100F7000090083A64900EF0073792A8AAE8A2A867F
:100F8000AE865A85DE85EF10133C97870300938762
:100F9000E7E39043D443EF10836FEFD0003E2A8CF9
:100FA000AE8C5A85DE85EFD020342A8BAE8B5285ED
:100FB000D685EFD06033032689008326C9002A8AAC
:100FC000AE8A03A50D0183A54D01EF10D33703268B
:100FD0000D0083264D00EF10836B03A6090083A646
:100FE0004900EF00B37297870300938727DE904391
:100FF000D443EF10C369EFD040382A89AE895286B6
:10100000D6865A85DE85EF1083684A86CE86EF1035
:1010100003684A86CE86EF1083672A89AE89628686
:10102000E6866285E685EF1083662A86AE864A8567
:10103000CE85EF00A37AEFD0C07BEFD0403D2A866B
:10104000AE86EF00A379978703009387A7D89043D4
:10105000D443EF10C36397870300938727D8904347
:10106000D443EF10C3622A86AE862A89AE89680807
:1010700097850300938505D8EF30D3646C08254528
:10108000EF90401D1735FF1F0345C5EBEF20832F61
:101090002A86AE864A85CE85EF102349E354A0DA2E
:1010A00003C601CA330696028545014521062296EC
:1010B000EF70302183C501CAB38595020D45A105A6
:1010C000A295EF20F04803C501CA3305950221051A
:1010D0002295EFE03FEB23A40186ADB3914763EE89
:1010E000C70817870300130767E10A063A961C42F0
:1010F000411122C406C6BA972A84828797950300B5
:10110000938585091145EF90E014A2851145EF9074
:1011100060142244B240979503009385A5091145B8
:1011200041016F902013B1C69042EF50E058224425
:10113000B2400146975500009385855D3D454101CC
:101140006F30404B9DC62244C8C2B24003C5A600C2
:101150002394B6003686954541016F70901622445F
:10116000B24041016FC0F01C2244B24041016F30D7
:101170000009B2402244410182808280411106C6AA
:10118000EF802030B24041016F70307C55715810B3
:1011900093063102130621029305110293075102AF
:1011A0001305610286C7EF60C04D9737FF1F938715
:1011B000277383D70700BD9B1737FF1F2312F772D2
:1011C000EFF0FFAD030305039305E00483566102CE
:1011D0000347110283472102034831028348410239
:1011E000034E510217B60300130606C86316B30078
:1011F0001776030013060667830E150313035004C6
:10120000032F8500832FC50097750300938585659F
:1012100063866E0097B50300938505C5032305011A
:10122000832345017AC41ACC1ECE7EC672C02EC856
:1012300032C2978503009385E56B1736FF1F1306AF
:10124000E6AF2810EF301348EF70B0212810EF30D0
:10125000F34C9387C1869043931505019386011043
:101260002810C181A53DBE4069618280411106C63A
:1012700023A6B18601C61C4223A0F1109737FF1F99
:1012800083C7B7C28DEB0545EFA0E010978503003B
:101290009385C5D42545EF80F07B9737FF1F83D713
:1012A0002764B24093E707011737FF1F231AF7623D
:1012B00041016F70501A05470545639CE700EFA098
:1012C000800D0545EF90702F97850300938545D2DB
:1012D000D1B7EFA0400C0545EFA0E00D0545EF901C
:1012E000D02D97850300938525D26DB7411122C477
:1012F0002A848307D40306C626C22E8589C713070E
:10130000F0036398E7021737FF1F130777C097367C
:10131000FF1F9386D6BC1736FF1F130636B9978575
:1013200003009385A5D92244B240924441016F3015
:1013300073399737FF1FA38B07B69737FF1FA3801B
:1013400007BA9737FF1FA38507BC034704008547EB
:10135000AE8463FAE7009305D4031735FF1F130526
:10136000F5B4EF30933A8307940791CF0347040015
:10137000894763FAE700930594071735FF1F1305A4
:1013800015B6EF3093388307540B91CF0347040011
:101390008D4763FAE7009305540B1735FF1F1305BC
:1013A00035B7EF309336014697450000938505BF6A
:1013B0001305C012EF300024EF50A0481737FF1F6D
:1013C000130717B59736FF1F938676B11736FF1FA1
:1013D0001306D6AD97850300938585D02685A1B7E2
:1013E000411126C206C622C4034705008947AE84C0
:1013F00063F5E7029305D5032A841735FF1F13050C
:10140000E5A3EF30933013059407EF205357973738
:10141000FF1F2397A7A8EF50403DEF50004117361C
:10142000FF1F1306A6A19736FF1F83D666A79785D1
:101430000300938525432685EF30D32885479735CC
:10144000FF1F9385A58F1735FF1F1305E59D1737E0
:10145000FF1FA30FF792EF30532B9735FF1F938594
:10146000F5A41735FF1F1305C592EF30132A9735E2
:10147000FF1F9385D5A61735FF1F1305A594EF30E1
:10148000D3289735FF1F9385B5A81735FF1F130580
:101490008596EF3093279775030093856537173549
:1014A000FF1F1305C59CEF305326EF500034224434
:1014B000B24092440146976500009385C5DC130550
:1014C000800241016F300013411122C426C24AC07C
:1014D00006C68307D503AE8417890300130909F8EC
:1014E0001734FF1F1304C43F89C71307F003639128
:1014F000E7041735FF1F0345D5A4EF10B368032693
:10150000090083264900EF007320EF20F32828C04C
:10151000EF20D31DAE862A8697850300938585F438
:101520002244B24002492685924441016F3093190A
:101530001305D503EF20B3449737FF1FA383A7A05C
:101540001375F50FEF101364032609008326490075
:10155000EF00D31BEF20532428C0EF50802E2840EB
:10156000EF20D318AE862A8697850300938585F1F0
:1015700045BFAA870387D7032E8509C79306F003C3
:101580006315D7029737FF1F83C71792178603008B
:10159000130606EA89E7178603001306E6E997852E
:1015A00003009385E5EA6F30F31141111385D703EA
:1015B00006C622C42E84EF20933C9737FF1FA385D5
:1015C000A78EEF5000289737FF1F83C7F78D9785A9
:1015D00003009385E5E689E7978503009385C5E6D3
:1015E00022852244B24041016F303312411126C29C
:1015F00006C6AA8422C48387D4032E8589C713070D
:10160000F0036396E7049737FF1F83C7178A0547E0
:101610006385E70289CB09476386E702B24022442B
:10162000924441018280978503009385E5E9224435
:10163000B240924441016F30530D9785030093856A
:1016400025EBF5B797850300938545EDCDB79384DA
:10165000D4032E84268597850300938525EFEF30EC
:1016600013121DC189471737FF1FA300F784978501
:1016700003009385E5F12285EF3033092244B2401F
:10168000924441016F50E01B2685EF20532F1375C4
:10169000F50F9737FF1FA38AA7808547978503001B
:1016A000938505EDE309F5FC97850300938585EAAD
:1016B00079D18947E30DF5FA1727FF1FA307F77EB6
:1016C00097850300938505EF7DB741112E8597859A
:1016D0000300938525F606C6EF303303B24001467A
:1016E00097650000938525BA1305200341016F20FB
:1016F0007070411122C426C206C68307D503AE848A
:101700001724FF1F1304047A89C71307F003639B90
:10171000E70283065421178603001306A61863D632
:101720000600177603001306E61326859785030047
:1017300093858517EF3003792244B24092444101EA
:101740006F90E00C1305D503EF2073239737FF1F2D
:10175000A384A796EF90A00B03065421978503005E
:10176000938545162545EF80B04383475421614753
:10177000B10793F7F70F6377F700A1471737FF1FFC
:10178000A30CF792EF50E00B830654211786030059
:101790001306461163D60600177603001306860C5F
:1017A0002244B24026859244978503009385051212
:1017B00041016F302371397122DC9307D1022E84ED
:1017C00078109306B1021306A10293059102130546
:1017D000E10206DE26DA4AD8EF50B06A8348D10229
:1017E0000348C1028347B1020347A1028346910225
:1017F0000356E10297850300938505AF2285EF30FC
:10180000636C2285EF3083719734FF1F9384440DFE
:10181000CC5403A844030566130606E133F3C5025E
:101820009306C0032295B378C802B377D80233F782
:10183000D5023EC09C54B3D8D8023358C802B35620
:10184000D30233D6C50297850300938525ACEF30CC
:1018500063672285EF30836C3309A400EF808059E1
:1018600017860300130646A609C51786030013064C
:1018700066A597850300938565AD4A85EF3083643F
:101880002285EF30A3691736FF1F0346A609978507
:1018900003009385A5AC2295EF30C3622285EF301B
:1018A000E36783D704002A9417860300130606A271
:1018B0001397170163460700178603001306C6A196
:1018C00032CEEFC0D0217246AA8697850300938559
:1018D00025AA2285EF30035FF2506254D254425958
:1018E00021618280AA870387D7032E8509C79306C3
:1018F000F0036311D7029727FF1F83C7275B9775F4
:1019000003009385257289E7977503009385857495
:101910006F30A35F41111385D70322C406C62E84FE
:10192000EF20F3051375F50F9727FF1F2380A758A6
:101930001727FF1F0347175789476316F7000DE95D
:101940001145EF9080479727FF1F83C7275697754C
:1019500003009385A57189E7977503009385457406
:101960002285EF30835A2244B24041016F40706DAE
:101970001145EF90E049C1BFAA870387D7032E85A1
:1019800009C79306F003631ED7029727FF1F83C77B
:10199000C7510547638DE70089C70947638EE70094
:1019A000828097750300938565766F30035697752F
:1019B00003009385E579D5BF977503009385057F6F
:1019C000EDB741111385D70322C406C62E84EF203C
:1019D000037B1375F50F9727FF1F2388A74C8547B7
:1019E000977503009385C5766306F5029775030026
:1019F0009385C57105C18947977503009385057B5C
:101A0000630AF5001727FF1F2301F74A97750300A4
:101A10009385857F2285EF30434F2244B2404101B8
:101A20006F403062AA870387D7032E8509C79306C4
:101A3000F003631CD7001726FF1F0346A6509785A7
:101A40000300938565996F30E34741111385D703F0
:101A500006C622C42E84EF2003739727FF1F23831B
:101A6000A74EEF40105E22852244B2401726FF1F8A
:101A70000346464D97850300938545984101E1B79C
:101A8000411122C439452E84814506C6EF306036A7
:101A9000EF40B04D2A8622852244B240978503004C
:101AA0009385459841016F30E341411122C41305EC
:101AB000D5032E84978503009385058D06C6EF8098
:101AC000701D11CD0145EF4050629785030093854D
:101AD000658C22852244B24041016F3003430545A5
