:040000006F2000333A
:1000040000000000000000009000002022050020F5
:10001400A9BDF9F5940000200000000000000000D4
:10002400960000209800002000000000000000005E
:100034009A000020000000009C0000200000000046
:100044009E0000201603002044030020A40000208A
:10005400A6000020A8000020AA000020AC00002078
:10006400AE000020B0000020C60000205A0100208D
:100074009E050020B8000020BA000020BC0000202B
:10008400BE000020EE01002082020020C4000020F7
:1000940001A001A001A001A001A001A001A001A054
:1000A40001A001A001A001A001A001A001A001A044
:1000B40001A001A001A001A001A001A001A001A034
:1000C40001A001A001A037370040834747009946AB
:1000D4004111BD8B638CD70231476384E706114716
:1000E400639EE702A303010017460000034646018E
:1000F40037370040834771006315F6022C001385DF
:10010400815E97C000E0E78080D209A8834757004A
:1001140093F7F70F2304F100834781004101730033
:10012400203083477100834687000C08AE97238CE8
:10013400D7FE83477100850793F7F70FA303F100F8
:1001440055BF2800972001E0E780C0FE1375F50F26
:10015400A303A1000346710055B737370040834716
:10016400474099464111BD8B638CD7023147638464
:10017400E7061147639EE702A30301001746000048
:10018400034626F837370040834771006315F602AB
:100194002C001385C15F97C000E0E78040C909A81F
:1001A4008347574093F7F70F2304F10083478100F7
:1001B40041017300203083477100834687400C0857
:1001C400AE97238CD7FE83477100850793F7F70F0B
:1001D400A303F10055BF2800972001E0E780400702
:1001E4001375F50FA303A1000346710055B73747F4
:1001F40000408347478099464111BD8B638CD702E9
:1002040031476384E7061147639EE702A3030100B5
:10021400174600000346D6EE374700408347710077
:100224006315F6022C001385016197C000E0E78096
:1002340000C009A88347578093F7F70F2304F10000
:100244008347810041017300203083477100834656
:1002540087800C08AE97238CD7FE834771008507EF
:1002640093F7F70FA303F10055BF2800972001E08F
:10027400E780C00F1375F50FA303A10003467100B7
:1002840055B737470040834747C099464111BD8B56
:10029400638CD70231476384E7061147639EE70204
:1002A400A3030100174600000346661637470040C3
:1002B400834771006315F6022C001385416297C0D1
:1002C40000E0E780C0B609A8834757C093F7F70F4B
:1002D4002304F100834781004101730020308347E8
:1002E4007100834687C00C08AE97238CD7FE8347E2
:1002F4007100850793F7F70FA303F10055BF28009A
:10030400972001E0E78040181375F50FA303A100BF
:100314000346710055B7411122C637140040835774
:10032400C40913973701635B0700BD450145970076
:1003340001E0E780E01F8567231EF4083244410191
:1003440073002030411122C6371400408357E4095A
:100354008357E4091397170163590700970001E0D5
:10036400E78020159167231FF4083244410173008C
:100374002030B7170040930670052380D704130775
:1003840080FA2380E7040100010003C6B704137652
:10039400F60DA385C70423800704137605024DC216
:1003A40003C6A700118A1DE22380D7042380E70433
:1003B4000100010003C7A700136747002385E70076
:1003C4009307004B01000100FD17EDFFB717004034
:1003D400930670052380D704130780FA2380E7046B
:1003E400010001007D892394A700010001000100A0
:1003F4000100238007042380D7042380E70401003D
:100404000100010001003727004093061005A303F3
:10041400D78023800704B717004013077005238093
:10042400E704130780FA2380E7040100010003C7EF
:10043400B70413670708A385E704238007048280B1
:100444001376050441C603C6A700418A1DE2238032
:10045400D7042380E7040100010003C7A700136742
:1004640007012385E7009307007D01000100FD17C4
:10047400EDFFB7170040930670052380D7041307D8
:1004840080FA2380E704010001001376F501136666
:1004940006042394C7000100010001000100238029
:1004A40007042380D704130660042380E704631839
:1004B400C5000100010037270040894689BF0100BB
:1004C4000100372700409306200591B72380D70405
:1004D4002380E7040100010003D787001367070C9A
:1004E4002394E7000DBF4111814601468145114522
:1004F40006C66922B7170040130770052380E70476
:10050400130780FA2380E7040100010003C767048E
:10051400136717002383E70423800704B2404101D3
:1005240082808146014681451145892AB7170040DA
:10053400930670052380D704130780FA2380E70409
:10054400010001007D562396C7022380D70423802F
:10055400E7040100010003C767041367170023833E
:10056400E7042380070401A0BD473305F502010019
:100574007D1575FD8280411122C426C206C6AA8457
:10058400014463179400B2402244924441018280A2
:1005940005041305803E4204C13F4180DDB7B7170F
:1005A4000040130700032388E7028547174700002C
:1005B400232CF7FA73002030411106C6852DFDBFA8
:1005C4002303048015472303E48001002302A4804D
:1005D400828083076480E3CE07FE23030480828045
:1005E40083076480E3CE07FE03454480828083074B
:1005F4006480E3CE07FE2302A4808280411126C4D6
:100604004AC24EC006C61377F50BAD47AA892E8998
:1006140095446306F70019456537653F8D444E855B
:100624004537FD59FD1463983401B240A244124980
:10063400824941018280135509011375F50F453F25
:100644002209CDB7011126CC06CEB70408005137D4
:100654001545BD37713769372AC6A53F32459377AB
:10066400150089EB136515001375F50FF240E2448C
:1006740005618280FD14E9FC0145CDBF397126DC9A
:100684004ADA4ED852D656D45AD25ED006DE62CE5C
:1006940066CCB7E700E07D5783AA070022C603AA09
:1006A400470023A0E71823A2E718B7170040130751
:1006B40070052380E704130780FA2380E70483C7C7
:1006C4004704930B75FFB684E20793FBFB0F854643
:1006D400AA892E8B328937240040E187015763FAB7
:1006E40076016308D5008946130700026313D50019
:1006F4000157D98F93F7F70FB71C00402382FC04EE
:1007040011472303E4801305F00F5D3D094CD135F7
:10071400636D7C11B7050700DA95378707007955B3
:1007240063F2E504B3879500636EF702370B0800A4
:10073400A94733EB65016399F90689E48144513D86
:1007440026850DA0DA850945553D05090345F9FFC0
:10075400FD14050B693D81C49377FB0FFDF7DD356F
:1007640069FD7D55B7170040130770052380E70422
:10077400130780FA2380E70403C74704418B2382CD
:10078400E704F250B7E700E023A0571123A2471172
:10079400E25432445259C259325AA25A125B825B11
:1007A400724CE24C21618280A5476395F906856904
:1007B4001309F00FB3069900B3742B01B6941349CF
:1007C400F9FFB3749900856B33796901416B9387A1
:1007D400F9FFB3F7270199E363FC340193D9490086
:1007E400C147E3E637FF99BF0569C1697D19D9B7E8
:1007F4001305800D63886901130500026384790180
:1008040013051008CA85DD3B353D21DD4E99B384BF
:100814003441D9B7DA852D45D533CA94E30099F22A
:1008240005097D3BA30FA9FED5BF9387F9FF93F775
:10083400F70F6361FC0C83C71C0413073008631FA4
:10084400F70437070800636BEB04B3079B00B70694
:10085400100063F5D704334BEB0089476393F90623
:100864008980D549E38C04ECDA850945413B1109BB
:100874000327C9FF91472320E48003076480E34EE4
:1008840007FE23033481FD17EDFBFD14110B81C416
:100894009377FB0FE9FF7D3371F5E1B5B71700409E
:1008A40003C75704B70708001377070219E3B7878C
:1008B40007007955E378FBEA33079B00E3FFE7F889
:1008C40055B58547E382F9F2DA852D45053B9389D1
:1008D400F4FFE38504E6293393F7390091EB83268B
:1008E40004800327090093074900E39AE6E43E895C
:1008F400CE84F1BFB5476396F9001305900BC93157
:1009040035BDB1471305B00AE38BF9FE99476391EE
:10091400F904B7050800B365BB002D45C531814412
:100924008D4BA14975396396740183270480232074
:10093400F9008504E39834FF8327048013172B01FF
:10094400635507002312F900D5BB2322F900FDB338
:100954009D476399F90281451305B0044531BD44AF
:100964002320090023220900FD599D3993F77400BF
:10097400CA9703C70700FD14398D2380A700E396A7
:1009840034FF6DBBA1476392F9046D398144630D53
:100994000B008D479304C0036308FB009304000518
:1009A40063048B01930440041375C507E30895D8C9
:1009B4001945393139390545213126850D3909451E
:1009C4003D314931E31C05D669BB91476399F90070
:1009D40013056006F536F53E130590090DB7E38F50
:1009E40009D4F154A9BB19CD91CD09CE81473387E0
:1009F400F500834607003307F50085072300D70079
:100A0400E317F6FE828019C991C909CA910583A723
:100A1400C5FF11057D16232EF5FEC5BF828001C9D1
:100A240019C62A960505A30FB5FEE31DA6FE82800E
:100A340081473307F5000307070019E33E858280E9
:100A44008507C5BF01112E8626CAAA84131506017F
:100A54009305F004418122CC06CE32C6EF108063A8
:100A64002A8401C53246A685BD3F2285F2406244F0
:100A7400D24405618280854715C18DC105C2814775
:100A8400B306F5003387F50083C606000347070065
:100A94006398E6008507E315F6FE85473E85828068
:100AA4008147EDBF9307F6FFBE952A966313C500F1
:100AB4008280FD1583C715000505A30FF5FEFDB75C
:100AC400AA87014581CF09CE3E96850703C7F7FF64
:100AD4006317B700E39BC7FE05458280828001450A
:100AE40082807971975700009387C77022D480431E
:100AF40006D626D24AD04ECE52CC56CA5AC85EC664
:100B040062C45DCC37C9C901814B175A0000130A6E
:100B1400EA72975400009384246E1309F937975AA4
:100B24000000938AEA67B709C0A8370B4057835778
:100B3400240095E35C44639D0B0017570000232BAE
:100B4400F76A032CC4002285EF10E061628499A83F
:100B540023A6FB00FDB783270A00829783866401DE
:100B64001C4463DB06063307F5406367E9089757BF
:100B7400000023AF076283552400034504009770E7
:100B840001E0E78000B95C405844A9CF1444B6970B
:100B94008386640163C5060063E33701DA971CC4E6
:100BA400A28B3A8449F4975700009387675F9C4B64
:100BB40009476378F706F91717570000232AF75EE9
:100BC400B250225492540259F249624AD24A424BD8
:100BD400B24B224C45618280E377F5F83387F940C4
:100BE4002A9761B763970B009757000023A4E76027
:100BF40089BF23A6EB00B1B7D85009CF63DF060045
:100C04003385A74083A70A016376F5009757000050
:100C140023A0A75AA28B404471B7E3F3A7FECE9753
:100C2400C5B79757000023A5075859BF411122C4DF
:100C3400175400001304C4591C4006C626C24AC0F7
:100C440091C782979757000023A407585C4091C32B
:100C540082971C406391071C9757000083C7D77580
:100C6400858B9DC797570000A3880774175700000A
:100C74000347B774954763FDE700EF00504197576A
:100C8400000083C79773F5178A07A2979C4382973E
:100C940017590000130909768347C900918B99C33A
:100CA400EF10A0321C4491C38297975400009384A0
:100CB40024549840175600000346964E9757000058
:100CC40083C7074E93961700BA9683D60600D5CAF3
:100CD4009757000083C7C74C63EFC70A97570000B4
:100CE4002380074C1C40639807129757000083C762
:100CF400F76C91CF9757000083C7376C89EB9757F0
:100D04000000A38D076A971003E0E7808089975756
:100D140000009387A7529C43638F070EB707C0A8B0
:100D2400175700002326F7486D3B97570000938719
:100D3400A74CDC53EDC31757000013076746184B45
:100D44009757000083C7974C6367F70C1757000049
:100D54000347B766954763E0E70C8347C900918B67
:100D6400DDEB90409756000083C6964363CBD70AC9
:100D74002244B240924402494101176301E06700F2
:100D84006376850793F7F70F97560000238AF6409A
:100D9400E3E6C7F235BF86073E9783550700231065
:100DA4000700975700002393074497570000938741
:100DB400E7419C43175500000345853E1317250062
:100DC400BA979C4382979757000083D727421757B7
:100DD40000000347E73C93C7F7FF7D8D9317170087
:100DE40098403E97835707005D8D2310A7009757BF
:100DF400000083C7E73A91C785071757000023010E
:100E0400F73A175700000347A7399757000083C7DD
:100E14003739E375F7ECB240224492440249410168
:100E24008280139717003297035707006DF78507E1
:100E340035BFAD6737C70040BD072326F7200F1025
:100E44000000975700009387A735C84F832787264C
:100E5400BD66BD0693C7F7FF99836A052326D7208D
:100E64005D8D82804111B7170040985F3AC6945F48
:100E74003247E39CE6FE32454101828082800327AB
:100E8400851163000712411122C406C68347C500B9
:100E94008345C5042A8493F7C70F2306F5008346C8
:100EA40097000356C70013958601618563F1C50851
:100EB400635A05060345870093F6F607A304D70093
:100EC400054693E627006314C50093E6170023063E
:100ED400D4005C4389075CC3A30AB400032504114E
:100EE4002E864C4309050136832784110346540199
:100EF400D44303D7C700B296118FD4C32396E70017
:100F04008947A30DF400034744039757000083C7A0
:100F1400C72F6378F7048347C40093E707012306C8
:100F2400F40081A093E717002306F40075B79376C5
:100F3400F60F635D050203458700854513E6270028
:100F44006314B50013E617002306C400A30AD400F3
:100F5400A30407008547A30DF400832784119C4351
:100F6400DDF3B240224401454101828093E717003A
:100F74002306F400A30AD400A304070003250411E4
:100F84004C4309058D348327841103465401D4430B
:100F940003D7C700B296118FD4C32396E7008D47B9
:100FA4005DBF05458280975700009387273F9C4388
:100FB400411122C406C6858B2A84C5EF41651305F9
:100FC40025F5978002E0E780C08445C58347A500E6
:100FD4002315F50083270412BDE72320A41223223E
:100FE400A41285472310F4042320050083476401D9
:100FF40054412316F5000347D4002304E5000547B4
:10100400A304E500175700001307C73A184F1385C8
:10101400170215811C437D151375F50F9CC25C43A3
:10102400DCC21C479CC65C47DCC61C4B9CCA5C4BA0
:10103400DCCA1C4F9CCE5C4FDCCE19CD93860602D5
:1010440013070702C1BF8327441288C383570404CC
:101054002322A412850779B79757000083D7074343
:101064008507175700002313F742B2402244410179
:1010740082808347C40023090400054593C74700C1
:101084002306F400DDB78347850193F7E70FD5EF17
:1010940083479501DDEB034625018346C50009CA54
:1010A40083454503175700000347371663E7E500F8
:1010B40013F7060141CF014709C6C18A0357651CCE
:1010C40081C68356A51C369751C31307C7121755FB
:1010D40000000355650FB335A70237460F004111D1
:1010E40013060624814622C426C206C67D5433054F
:1010F400A70297D003E0E780A0A39757000083C717
:101104003711B384A700975700009387A73703A725
:1011140007098327070963F387003E84184375FB97
:1011240097570000938787119C4382978147636494
:10113400A400B307A440B2402244B3B7970093C7B6
:10114400170092443E854101828081473E8582801A
:10115400797126D206D622D44AD04ECE52CC56CA63
:101164005AC85EC68347350303447513AA843E9464
:101174001374F40F9307400263F687001304B4FD5D
:101184001374F40F03AA841383AAC413A38B8412C5
:1011940022865285D68597D003E0E780E0930589BF
:1011A40015E503CBD41201498149337B6403930BC6
:1011B40050024A865285D68597D003E0E780C091D5
:1011C400058915C5639169031374F90F238B841280
:1011D400B250225492540259F249624AD24A424BC2
:1011E400B24B456182808509E20993D98941050999
:1011F400E31179FDE1BF832785090356E50379717E
:1012040093D60701BD8EC206C182358E1357764030
:1012140093575640898B058B5D8F93573640918B3E
:101224005D8F93571640A18B5D8F93171600C18B6A
:101234005D8F9317360093F707025D8F931756005F
:101244009355860093F707041E065D8F1376F60FF9
:10125400518F93D7554013D63540118A898BD18F3E
:1012640013D67540D18F13D61540218AD18F13968A
:101274001500418AD18F1396350013760602D18F5B
:1012840013965500137606049E05D18F93F5F50F3A
:10129400CD8FA20745465D8F3307C70222D42A8427
:1012A40026D252CC56CA032A8413832AC4135AC89A
:1012B40006D63697420741839357774013555740D4
:1012C4000989858BC98F135537401189C98F1355E7
:1012D40017402189C98F131517004189C98F131528
:1012E400370013750502C98F1315570093558700EE
:1012F400137505041E07C98F1377F70FD98F13D5FC
:10130400354013D755401189098B498F13D5754042
:10131400498F13D515402189498F139515004189AB
:10132400498F1395350013750502498F13955500A0
:10133400137505049E05498F93F5F50F4D8F22070C
:10134400D98FB387C7024AD04ECE5EC662C4B69761
:10135400C207C18313D7774013D557400989058B3A
:10136400498F13D537401189498F13D517402189E7
:10137400498F139517004189498F139537001375C9
:101384000502498F1395570093D5870013750504FB
:101394009E07498F93F7F70FD98F13D5354013D78D
:1013A40055401189098B498F13D57540498F13D541
:1013B40015402189498F139515004189498F13954B
:1013C400350013750502498F1395550013750504EF
:1013D4009E05498F93F5F50F4D8F2207D98FB3875B
:1013E400C702130650025285D685B697BD8E9394D4
:1013F4000601C18033F6C402137BF60F97C003E0E5
:10140400E780806D05890DED8347D4120149814938
:10141400B3849702130C5002C1804A865285D68544
:1014240097C003E0E780406B0589937BF90F11C5F2
:1014340063863403850993F9F90F0509E31F89FDD0
:10144400230B6413B250225492540259F249624A53
:10145400D24A424BB24B224C456182805E8BCDB75F
:10146400011122CC604126CA4AC84EC652C406CED7
:10147400AA841D4A130965058549BC446364F400C4
:10148400054581A803C7D40083474400631B47056F
:1014940003C784026304F7000040C5B70347540040
:1014A40083C75405E31AF7FE1946CA851305640079
:1014B400EFF06FDCE31235FF0347C40083C79402E7
:1014C400E31CF7FC0357E40083D7A402E316F7FCFC
:1014D4000145F2406244D2444249B249224A05617C
:1014E4008280E31BF7FA0347540083C75405E315CE
:1014F400F7FA1946CA8513056400EFF0CFD7E31D48
:1015040035F9F9B70111975700009387A7F722CC53
:1015140003A4470B26CA06CE2AC42EC6854419E462
:101524000145F2406244D2440561828083479100C0
:1015340003471400858B6304F7000044CDB71946B4
:101544009305A10013052400EFF0EFD2E31795FEF5
:101554000545C1BF011122CC17540000130444E710
:1015640018402AC62EC432C206CE3C4B93F7F7F776
:101574003CCB970003E0E78080FF184097560000BB
:10158400938646E23C4B93E707083CCB9C423245AA
:10159400A24523A00700034715000348250022079E
:1015A4004208429703480500429703483500620801
:1015B400429798D70347550003486500220742081D
:1015C40042970348450042970348750062084297D2
:1015D400D8D7034795000348A5002207420842973D
:1015E4000348850042970348B5006208429798DB98
:1015F4000347D5000348E500220742084297034801
:10160400C5000345F500429762052A97D8DB03C756
:10161400150003C52500220742052A9703C50500C6
:101624002A9703C5350062052A9798CF03C755004A
:1016340003C56500220742052A9703C545002A977A
:1016440003C5750062052A97D8CF03C7950003C563
:10165400A500220742052A9703C585002A9703C5DA
:10166400B50062052A9798D303C7D50003C5E500E2
:10167400220742052A9703C5C50083C5F5002A97AA
:10168400E2052E97D8D3D843759BD8C3D8431367A4
:101694001700D8C398431367170098C3124698429B
:1016A4005C43858BD1E71C4F01452300F6009C4227
:1016B4009C4FA183A300F6009C429C4FC18323014D
:1016C400F6009C429C4FE183A301F6009C42D84F54
:1016D4002302E600D84F2183A302E600D84F4183BA
:1016E4002303E600D84F6183A303E6009853230441
:1016F400E60098532183A304E6009853418323050D
:10170400E60098536183A305E600D8532306E60058
:10171400D8532183A306E600D85341832307E60068
:10172400DC53E183A307F600F24062440561828042
:101734000100B5B717570000130707C71443411139
:1017440022C49C5E4AC006C6998326C2858B3A840D
:1017540017590000130909C5D1CB9C5E97540000AA
:10176400938444C593F7F7F99CDE175700000347A9
:10177400C7C493070008631BF700832709009C4331
:1017840093F70704175700002309F7C283C704001F
:1017940093F707049DC397570000938727AA9C4398
:1017A40082979757000023AFA7C083C7040093F71D
:1017B400F70B17570000230FF7BE83C7440093F7B6
:1017C40007048DE7854717570000A307F7BE97570F
:1017D40000009387E7BF9C43096798C7130700FC81
:1017E40097560000238AE6BCD844F8D31C40985F7F
:1017F4001183058B09CB985F3D9B98DF054797566E
:101804000000238BE6BA985F1D83058B11CB985F8C
:101814001377F7F798DF854717570000230EF7B8BB
:1018240083270900D8430583058B19C7D843759BC3
:10183400D8C3D843799BD8C3B240224492440249C6
:1018440041018280397106DE16DC1ADA1ED82AD6E6
:101854002ED432D236D03ACE3ECC42CA46C872C614
:1018640076C47AC27EC0F935F250E2525253C25362
:101874003255A255125682567247E2475248C24820
:10188400324EA24E124F824F21617300203097577F
:1018940000009387E7B3944397570000938787B179
:1018A40003C70700058B11CB97570000238607B0A9
:1018B40097570000A38207B0828003C71700058BE7
:1018C40065F7F85271FF83C75700DDB7175800005A
:1018D400130888AD032708001C5F9583858BD1E727
:1018E40009C61C5BBD832300F60085CA8327080054
:1018F400985B4607935767016356070093E707C051
:10190400C207C18303970600C207C18709C7BA97F4
:101914000947B3C7E7022390F60085CD8347150036
:101924008DCB9756000083C646A993F60604138709
:10193400970089478DCA3A9503470500854699471C
:101944001376F7066311D60262076187B947634CC1
:101954000700832708009C5FED838D8B17570000D9
:10196400A30FF7A481473E8582808547EDBF4111CF
:1019740022C406C617540000130484A5184049E97C
:10198400AE877453FDFE3E85B285975700002384CD
:1019940007A2970003E0E78080939757000093879E
:1019A400A7A09C43B70680009843558F98C3D85787
:1019B400719BD8D797570000A38007A097570000C2
:1019C400A38A079E1C40094798C3B7F700E003A702
:1019D40007D16D9B23A8E7D003A707D15D9B23A85C
:1019E400E7D0730050101440175700001307879C6A
:1019F40083472700858B89EB83473700858BD9C7BD
:101A040097570000238A079AB240224441018280FA
:101A14008D476310F502975700009387E7989C431E
:101A2400B70680009843558F98C3D857719BD8D771
:101A34005DBF8547E319F5FAB567BD075CC70F10AD
:101A440000001C400967094698C7130700F8975619
:101A540000002383E696175700001307E794144306
:101A6400984231830D8B6319C7001307E043F8D301
:101A74003D673D07D8C785BF984231830D8B01E789
:101A840013076019EDB71307E01BD5B7FC52ADF38C
:101A9400A5BF5D7152DC175A0000130AEA900327B0
:101AA4000A0086C6A2C4A6C2CAC04EDE1C43975909
:101AB40000009389A996175900001309699193F7B7
:101AC400F7E793E707081CC383A609003707CEFF8F
:101AD4007D179C46130680022A84F98F9CC68327AF
:101AE4000900130700082800B8CBAE84930510083A
:101AF400EFE0FFF2970003E0E78060A7970003E0C0
:101B0400E78060B483270A009376F41F370FFCFF45
:101B140023A40700984B4E88CA881367F70398CB11
:101B2400F84F130510F8D285137707E0558FF8CFD7
:101B34009843F576FD16758F98C39843B70633001E
:101B4400B70204001377F7E798C398439303401F41
:101B54007D1F1377F7E71367071098C303A70900DE
:101B6400930F800285491C47D58F1CC78327090022
:101B74001307900D3400B8CB1149014713533700B4
:101B840026938347030013767700B3D7C740858B2A
:101B9400DDCF9C41832E0800239C07042390070675
:101BA40003AECE02137EDEFF23A6CE0383AE070070
:101BB400137EF70793FE0EF833EECE0123A0C70180
:101BC40003AE4702336E5E0023A2C70383AE080050
:101BD400014E23A27E0603DA070663074E0303AE13
:101BE4000703038A0600135EFE00620E135E8E4135
:101BF4006358CA0103AE0703135EFE002380C601C7
:101C040003DE0706137EFE0F03AA4E0663060A00D0
:101C140003DA8705E37F49FB03AE4702337EEE0117
:101C240023A2C70383870600635CF400034E03000A
:101C34003396C9001346F6FF3376C6012300C3006A
:101C44003E8663D3A7002A8613158601618505079E
:101C54001377F70F8506E313F7F3B640264496444B
:101C64000649F259625A6161828097460000938660
:101C740026769C42D84713161701635506029847E7
:101C840013161701635006027D57B8D71747000093
:101C940013070751584F0507174600002320E65243
:101CA400116798C798470D83058B1DC3174700001C
:101CB400034767701367170017460000230DE66E8D
:101CC400130700F8174600002308E66E214798C75B
:101CD4009847058B09CF174700000347B76D136773
:101CE400170017460000A307E66C054798C79847F6
:101CF4000983058B09E798470583058B31CF9847FE
:101D0400174600001306066B174500001305C56946
:101D14000983058B630307101841184331830D8B26
:101D240075EBAC4B184E93F5050203471700CDCD68
:101D340079EF13077006D8CF03470600136717001F
:101D4400174600002308E666114798C718415C57F8
:101D5400F19B93E717005CD79C4298479316370191
:101D640063D606029746000083C60679C18A1747E0
:101D7400000013072771C5CE0347470713670702FF
:101D840097460000238AE676056798C79847931616
:101D9400270163D10602174700000347E761620782
:101DA4006187635707000547974600002386E6606E
:101DB400096798C798479316070163D606029746A2
:101DC400000083C67673858A174700001307876B64
:101DD400ADCE034757071367270097460000A38D2E
:101DE400E670216798C7828029D785456315B700B7
:101DF4001307B00689B789456315B7001307F006C2
:101E04001DBF8D456315B700130730072DB71307A2
:101E1400500715B71307600739BF03473600136728
:101E2400170017460000A308E658094739BF834640
:101E340047070946BD8A6388C600034747078D469E
:101E44003D8BE313D7F4114725BF83465707918A87
:101E5400C9DA034757071367870041B7397106DEAC
:101E640016DC1ADA1ED82AD62ED432D236D03ACE7E
:101E74003ECC42CA46C872C676C47AC27EC0F53326
:101E8400F250E2525253C2533255A2551256825660
:101E94007247E2475248C248324EA24E124F824F16
:101EA400216173002030174700001307A7528346AF
:101EB400B7019747000083C7B7544C4BB697FD8BC7
:101EC40033D7F50097460000A386F65097460000E6
:101ED400A388F652058B15EF174700000347975266
:101EE400B3F7E702814601471305000233D6E50044
:101EF400058A1378F70F19CA6397D700974700002C
:101F0400A38A074D8280850693F6F60F0507E31F23
:101F1400A7FC828097470000938747329C430111B6
:101F240022CC4EC606CE26CA4AC852C456C282978E
:101F3400974700009387074C804781496305A406AF
:101F4400BE84974700009387272B038767013E8948
:101F540063550706018D135455009747000083C746
:101F640007499379F501636DF402370AC0A8B70AEB
:101F74004057153F9C449746000083C64647139735
:101F840056003E9783076901158C63C50700636398
:101F9400470156979747000023A2E746E37BD4FC0A
:101FA4001604B3693401F24062444E85D244424976
:101FB400B249224A924A05618280E37D85F8B707D7
:101FC400C0A833848740229579B797470000938748
:101FD400E7269C43411122C406C626C2829797472E
:101FE40000009387274180476309A406BE8497476E
:101FF4000000938767208387670163D80704018DF6
:10200400135455009747000083C7673E6367F40481
:10201400593D98449747000083C7673D93965700FE
:1020240036971D8C9746000023AAE63CE372F4FE23
:102034002244B2409244174500000345B539814516
:102044004101170303E0670023A7E37A85FAB70782
:10205400C0A833848740229565B7B2402244924495
:1020640041018280974700009387473B9843B757C5
:1020740002009387079F8326070913965600635827
:102084000600832607091396660063440600FD17BD
:10209400FDF3828071C5AA870145E9C58D07C20792
:1020A400C183F19BC207C18313074003636FF70227
:1020B400174700001307873C08431747000013071E
:1020C400673B14436398A602174700001307C7121F
:1020D400185B014541CB4111C20706C60545DD8D9C
:1020E4000297B2400145410182801747000013075F
:1020F400A738D9B70357650035E303574500636F25
:10210400F704B306F7402146637CD6020328050092
:10211400938687001D8FAA96611717460000035601
:1021240086082392E60023A006012393060014C127
:102134002312F500130786FF974600002395E60651
:102144002313B5009745000083D5E505B387F54013
:10215400174700002319F7042105828008419DB721
:102164000145828082800DC1974700009387073123
:1021740003A30700974700009387C72F83A807008E
:1021840081469A8763E31701828003A80700636D81
:10219400F50A636BA80A13878700E367E5FE03D695
:1021A4006700216705076317E60003C7C19A05079F
:1021B4002386E19A97450000938585FE03D6470060
:1021C40003D76500239307003297420741831745DD
:1021D4000000231AE5FC638A670217450000130513
:1021E400A52908416303F50203D5660019ED83D7D9
:1021F400460023A0060121073E9621062392C6002D
:10220400974700002391E7FAB6879843E30E17F740
:1022140097460000938646269442E307D7F68356F2
:102224006700BDF283D64700035647001843A10652
:10223400B2962392D70098C383D76500A1071747A6
:1022440000002312F7F68280BE86C28725BF0111E3
:10225400974700009387072322CC03A4C70B26CA01
:102264004AC84EC606CEAA8413092500854915C05E
:1022740083C7140003473400858B6304F700405C74
:10228400FDB71946930544004A85EFE0CFFEE318F5
:1022940035FF2285F2406244D2444249B249056185
:1022A40082804111974700009387C71D22C403A46D
:1022B400C70B26C24AC006C693042500054901E897
:1022C4002285B24022449244024941018280A6857B
:1022D4001305A40297B003E0E7804035E30225FF2D
:1022E400405CF1BF4111974700009387A71922C4AE
:1022F40003A4C70B26C24AC006C693042500054999
:1023040001E82285B240224492440249410182807C
:10231400A6851305A40197B003E0E7802031E3020A
:0823240025FF405CF1BF000041
:1023300097110020938101B717610020130181CC10
:102340001305400097E5FF1F9385C5CB17060020B6
:102350001306C6FD63FAC5008322050023A05500BD
:1023600011059105E3EAC5FE17850400130585EF05
:1023700097050020938585FB1386018763FAC500C6
:102380008322050023A0550011059105E3EAC5FE4F
:1023900013850187974500209385C5206377B50095
:1023A000232005001105E36DB5FEFD42739002BCCC
:1023B0008D4273904280B72200009382828873A07E
:1023C000023097E2FF1F9382E2C393E232007390E0
:1023D0005230971201009382C24E739012347300F0
:1023E00020303D432A876373C3029377F700BDEF24
:1023F000ADE5937606FF3D8ABA960CC34CC30CC775
:102400004CC74107E36BD7FE11E28280B306C3409D
:102410008A069702000096966780A6002307B700F9
:10242000A306B7002306B700A305B7002305B7002E
:10243000A304B7002304B700A303B7002303B70026
:10244000A302B7002302B700A301B7002301B7001E
:10245000A300B7002300B700828093F5F50F939691
:102460008500D58D93960501D58D61B7939627008C
:102470009702000096968682E78086FA9680C117BA
:102480001D8F3E96E374C3F8A5B73367B500FD53BF
:102490000D8B79E7B7877F7F9387F7F710419441DA
:1024A000B372F6003363F600BE92B3E26200639744
:1024B000720C6318D6065041D441B372F6003363F0
:1024C000F600BE92B3E262006398720A631BD60400
:1024D00010459445B372F6003363F600BE92B3E242
:1024E00062006391720A631ED6025045D445B372EE
:1024F000F6003363F600BE92B3E26200639A72089C
:102500006311D60210499449B372F6003363F600A2
:10251000BE92B3E26200639372085105D105E30FE6
:10252000D6F61317060193970601631CF70013579D
:10253000060193D706013305F7409375F50F91E92E
:1025400082804183C1833305F7409375F50F91E194
:1025500082801377F70F93F7F70F3305F7408280E8
:102560000346050083C60500050585056313D600EF
:1025700065FA3305D640828011059105E312D6FE37
:10258000014582802105A105E31CD6FC014582801E
:102590003105B105E316D6FC014582804105C10530
:1025A000E310D6FC01458280014711464148B386BD
:1025B000E5008147B308F50083C808008507C10618
:1025C00023A816FFE398C7FE11071105E31107FFC3
:1025D0008280935785019CC19357054193F7F70F6C
:1025E000DCC19357854093F7F70F1375F50F9CC522
:1025F000C8C582801C414111130705013EC05C41E2
:102600003EC21C453EC45C453EC693972500140857
:10261000B69783A707FF85051105232EF5FE8D8943
:10262000E315E5FE41018280397122DC41661384A5
:1026300081A206DE26DA4AD84ED652D456D25AD0D5
:102640005ECE93050501A2863708FF007D1683073D
:102650000500034735001105E207D98F0307D5FFB1
:102660009106420733770701D98F0307E5FF220759
:10267000718FD98F23AEF6FEE39BA5FC814991446F
:10268000930A0101172B0400130BCB22972B040094
:10269000938BCB1F130AC00293F734000329040065
:1026A0004844BDE78A85353785450A85A1370A87BD
:1026B0001C43110793F6F70093F7070FDA97B697C5
:1026C00083C70700232EF7FEE394EAFE02459247F4
:1026D0006205C2075D8DB2475D8DA247A2075D8D81
:1026E00093972900DE979C4385093D8D334525014D
:1026F00008C885041104E39144FBF2506254D2549B
:102700004259B259225A925A025BF24B216182809D
:102710003345A90008C8F1BF797122D426D24AD026
:102720004ECE52CC56CA06D62A8A93994500014409
:10273000938A81A213090101C144B3073401D697DA
:1027400088438A85793533078A008A871443904302
:1027500091074107B18E2328D7FEE39927FF110483
:10276000E31D94FCB250225492540259F249624A39
:10277000D24A45618280397122DC1304050106DEEC
:1027800022878147C1460C433306F10011070CC272
:102790004C4710083E960CC24C4F10103E960CC28F
:1027A0009107E392D7FE85450A85A9358945080832
:1027B00091358D4508103D3D81474147B306F100F5
:1027C00094421104232ED4FE1408BE96944254C49D
:1027D0001410BE969442910754CCE391E7FEF25058
:1027E00062542161828006059377051089C71375AD
:1027F000F50F1345B5018280411106C6ED37B24091
:102800004101D5B781471148C1483386F500B30669
:10281000F500014703AE06003303E6000507230079
:10282000C301C106E31807FF9107E39017FF8280F9
:1028300093060501172604001306C61713050505A0
:10284000138706FF1C43110793F5F70093F7070F53
:10285000B297AE9783C70700232EF7FEE394E6FEF8
:10286000C106E31FD5FC82801C414111FD563EC0CC
:102870005C413EC21C453EC45C453EC68D47B385A7
:10288000B7409307C5001397250010083297032718
:1028900007FFFD1598C36393D5008D451387C7FFC8
:1028A0006314F50041018280BA87F1BF397122DCDF
:1028B0001304050106DE22878147C1460C43330617
:1028C000F10011070CC24C4710083E960CC24C4F49
:1028D00010103E960CC29107E392D7FE85450A85FB
:1028E00061378945080849378D450810B53F81474C
:1028F0004147B306F10094421104232ED4FE14087C
:10290000BE96944254C41410BE969442910754CC7F
:10291000E391E7FEF2506254216182809306050143
:1029200017260400130606F913050505138706FF8D
:102930001C43110793F5F70093F7070FB297AE9773
:1029400083C70700232EF7FEE394E6FEC106E31FCC
:10295000D5FC8280411122C406C626C285472E843A
:102960006301F50289476318F5002244B24092449E
:102970002E8541018DBD8D47631BF5002E85A53544
:10298000298C2285B2402244924441018280A5478D
:102990006315F5002E858D35DDB7AD47631AF5005B
:1029A0002E85993D8935AA842285353D258DC9BF5F
:1029B000B5476316F5002E858135AA84FDB7B94762
:1029C000E311F5FC2E850D3DAA84313DA98C2285AD
:1029D000193D3344950075B7597186D6A2D4A6D255
:1029E000CAD0CECED2CCD6CADAC8DEC6E2C4E6C2DF
:1029F000930605040A87AA879043C1074107232845
:102A0000C7FE03A647FF232AC7FE03A687FF232C82
:102A1000C7FE03A6C7FF232EC7FEE39FD7FC1729D7
:102A200004001309290D130A050193090505832CD8
:102A30000900032C4900832B8900032BC900930A4A
:102A40000AFF8A848C406685910A29378C482A843B
:102A5000628509378C50298C5E85ED3D8C58298C18
:102A60005A85CD3D218D23AEAAFE9104E31C5AFD6B
:102A7000410A4109E39D49FBB65026549654065934
:102A8000F649664AD64A464BB64B264C964C65618B
:102A900082806382051493F7F500639E0712157117
:102AA000D6C3AA8A3285A2CDA6CB86CFCAC9CEC745
:102AB000D2C5DAC15EDF62DD66DB6AD96ED73284E9
:102AC000AE84EFE03300C147631EF5002285A93EC6
:102AD0000149130A0106972B0400938BAB01294C83
:102AE00063419902FE406E44DE444E49BE492E4A7F
:102AF0009E4A0E4BFA5B6A5CDA5C4A5DBA5D2D61F8
:102B00008280338B2A010C105A85793C814508104C
:102B100021318549081019350810B1391C10D286A9
:102B20003E8710434107C10623A8C6FE032647FF80
:102B300023AAC6FE032687FF23ACC6FE0326C7FFD3
:102B400023AEC6FEE31FEAFC17270400130787F62F
:102B500003280700832D4700032D8700832CC7001F
:102B60005284138607010C4042853ECE3ACC32CACD
:102B700042C8CD330C482AC66E85E93BB2460C509C
:102B80001104A98E6A8536C6F133B2464C54A98E1B
:102B9000668536C6C133B246F2475246358D88C384
:102BA000910742486247E310F6FC4107B287E39180
:102BB000EBFACE85081085098536E39D89F5081066
:102BC000B13B08104D3EA9450810B936DA8508100A
:102BD0001539410931B78280638D051093F7F500EF
:102BE000639907105171CECFAA893285A2D5A6D399
:102BF00086D7CAD1D2CDD6CBDAC9DEC73284AE846D
:102C0000EFE0436CC1476319F5002285313C01496F
:102C1000138B81A2634D9900BE502E549E540E59C1
:102C2000FE496E4ADE4A4E4BBE4B6D618280338A4E
:102C300029018C0052858D3AA9458800F13C138406
:102C400081ABC14A930B00048800DD368800B93996
:102C50008800593308408A85AD3A48400C08953AB7
:102C600008440C10BD3248440C18A53218018147A5
:102C7000B306F100944241072328D7FE1408BE96FC
:102C80009442232AD7FE1410BE969442232CD7FEDA
:102C90001418BE9694429107232ED7FEE39A57FD4F
:102CA00008011D3B01479C003385E7001C01B3056B
:102CB000F70081473306F5003388F50014420328F6
:102CC00008009107B3C6060114C2E39557FF4107F8
:102CD000E31B77FD4114E31964F78800913E8800F7
:102CE000F136814588000D3CD2858800213E41099E
:102CF00015B782809307F00F6385F60A2D71232A9A
:102D0000911023282111B2842326311113060010BB
:102D10002E89AA89930530020A85232E1110232CAF
:102D200081103684EFF0EFEBA2852685EFC080613D
:102D300013178500935785003365F7002310A10012
:102D4000A6852286130531009304340023018100F7
:102D500093F4F40FEFD0637593F6F40089C64D0435
:102D6000158C9374F40F1C02A697A6850A85172666
:102D700004001306E6DD238007F0213B26868A85C2
:102D80004E85EFD08372230099008320C111032464
:102D9000811183244111032901118329C110156177
:102DA00082808280797122D432844AD04ECE2A89A0
:102DB000AE892285B68517260400130666D926D269
:102DC00052CC06D636C6093DB246130A34005285A7
:102DD000A2962380060083440400834714008345A1
:102DE0002400A204DD8CEFC0E055639AA4020346E0
:102DF0002400D2854A852380C900EFE08350254511
:102E000097250400938505D3EFC080570545B25040
:102E1000225492540259F249624A456182802380C9
:102E2000090025452300090097250400938545D115
:102E3000EFC000550145E1BF411106C6EF80702C7F
:102E4000B240AA8617270400130747D71716002099
:102E5000130646C2972504009385C5D71145410145
:102E60006FC0C066130101DB23229124232021259A
:102E70002326112423248124232E3123232C412390
:102E8000232A5123232861230347050093071004B5
:102E90002A89AE84631FF770034715009307400526
:102EA0006319F770034725009307E0056313F77074
:102EB0002E86AA852545EFC000571306D003A685A8
:102EC0004A85EFC0E06D2A84635A05003546A68521
:102ED0004A85EFC0E06C2A84634405089309D4FF57
:102EE0009307100363CE37074E86930539002808F1
:102EF000EFE023411C1CBE99172A0400130ACAFCE8
:102F0000238409DED28A8149594B83254A00280847
:102F1000EFC0C0620DC18E09D69983D7090055470D
:102F2000636FF700172704001307C7C38A07BA9710
:102F30009C43BA9782878509210AE39869FD972502
:102F400004009385A5F7CDA89385F4FF818D130523
:102F50001400C20581460146C1814A95EF30506593
:102F60008320C124032481248324412403290124B0
:102F70008329C123032A8123832A4123032B01238D
:102F80001301012582801386F4FF018E930514003E
:102F900042064182CA95E800EFC0D0081305D1046B
:102FA000EFE0433293150501C1811305D104EFC051
:102FB000D01597250400938525C31305D104EFC0D0
:102FC000E05719CD97250400938585C20545EFC0CC
:102FD000203B1715002003452555EF60D01C49B74D
:102FE00097250400938505C21305D104EFC0005551
:102FF00019CD97250400938565C10545EFC040387C
:103000001715002003454552EF60B01C91BF97256E
:1030100004009385A5C01305D104EFC020520DC153
:10302000371700408327C70AA166972504009385B8
:1030300065BFD58F2326F70A2545EFC060340DB74D
:10304000972504009385C5BE1305D104EFC0004F3A
:1030500011CD371700408327870AA1669725040002
:10306000938585BDD58F2324F70AF9B797250400EA
:10307000938505BD1305D104EFC0404C11CD371722
:1030800000408327C70A916697250400938505BCF5
:10309000D58F2326F70A4DB797250400938505BCE5
:1030A0001305D104EFC0804911CD371700408327A5
:1030B000870A916697250400938505BBD58F232445
:1030C000F70A9DBF97250400938505BB1305D1041E
:1030D000EFC0C046972504009385C5BA31FD9725FA
:1030E00004009385E5BA1305D104EFC02045972568
:1030F00004009385A5BA29F1972504009385C5BAE4
:103100001305D104EFC0804311C59717002023ABEE
:103110000742B9B5972504009385C5B91305D104B5
:10312000EFC0C04101C5EF6090771DBD9725040039
:10313000938505B91305D104EFC0404001C5EF6088
:10314000307D39BD97250400938545B81305D1041A
:10315000EFC0C03E01C5EF60303A19B597250400B5
:10316000938585B71305D104EFC0403D01C5EF90AD
:10317000501EFDB397250400938585B61305D10431
:10318000EFC0C03B01C5EF90301DD9BB97250400AF
:10319000938585B51305D104EFC0403A01C5EF9082
:1031A000101C7DBB97450400938505771305D1045A
:1031B000EFC0C03801C5EFB0701A5DB397250400A9
:1031C000938545B31305D104EFC0403701C5EFF037
:1031D000D03179B397250400938545B21305D10406
:1031E000EFC0C03501CD9717002083D7273305677F
:1031F000D98F171700202313F7329DB397250400AA
:10320000938505B01305D104EFC0403309C9FD779C
:103210001717002003578730FD17F98FD9BF0346D2
:10322000D104A547130606FD1376F60FE3EAC7D2CD
:10323000971700202382C73097250400938585AC1B
:103240000145EFC0A02829BB1386F4FF018E1305AA
:10325000140042064182973504009385A5B44A952F
:10326000EFC06041171400201304442B31C597258B
:103270000400938565AAE800EFE0A303E800EFE00F
:103280006304131605014182EC0013854162EF903F
:10329000800C972504009385E5AA1145EFC0400EE8
:1032A00083570400414593E71700171700202317A1
:1032B000F726EFC0D0486DB197250400938545A946
:1032C0001145EFC0E00B7D55EFC0104D8357040052
:1032D000F99B05B7953669B11386F4FF018E130586
:1032E000140042064182973504009385A5AB4A95A8
:1032F000EFC06038171400201304442229C18357FB
:10330000040097250400938565A5E80093E717005E
:10331000171700202314F720EFD0B379E800EFD07F
:10332000737A13160501EC00418213854162EF9018
:10333000800297250400938525A41145FDB99725A2
:103340000400938525A4E800EFD0B376E800EFD021
:10335000737713160501EC00418213854162EF80FB
:10336000907F8357040097250400938565A3F99BFC
:10337000171700202314F71AC9B7EF8020569717A4
:1033800000209387A719C85FEFC05366AE862A86D0
:1033900097250400938585A11145EFC02013C9B678
:1033A000EF60300075BE17360400130626A097257F
:1033B0000400938565A0114569B5EF8000589725F5
:1033C0000400938525A035F997250400938585A0F1
:1033D000ADB73545EF90006DAA84EFC033612A8602
:1033E000AE86254597250400938505A0EFC0000E05
:1033F000971704009387077F8843A685170400204A
:103400001304C47DEFC023742328A422EF80405D01
:1034100003250423EFC0935DAE862A86972504001A
:103420009385459D95BF81450D45EF601034EF8034
:10343000804C2A86972504009385859EADBF8145E3
:103440003145EF60903281453945EF60103281455A
:103450003545EF609031EF80604A2AC6EF80C04A60
:10346000B2462A87170600201306C6609725040077
:103470009385059C1145EFC06005DDB4171700204A
:1034800003576798970600209386567F17060020FB
:103490001306465E972504009385C59BE1BF8547CB
:1034A00017170020230CF796EF8080539725040010
:1034B0009385859B59B517170020034727968547A5
:1034C000972504009385C59AE319F7E6C5B78547A4
:1034D00017170020A30FF798EF808050972504005E
:1034E0009385C59999BD9717002083C7979897250D
:1034F000040093852599E38207E4CDB79717002050
:103500009387C701885FEFC0734EAE862A869725E2
:1035100004009385E59749B53D2E05044A9431464C
:103520008145171500201305D58B97D0FF1FE78025
:10353000404F8144930AA400695AB3099440094654
:10354000CE85E80097D0FF1FE780204A33899A0094
:103550000946CA854E8597D0FF1FE7800049094676
:10356000EC004A85F91497D0FF1FE7800048E396E6
:1035700044FD1946A2851715002013059586EFC056
:10358000601D8145171500201305B585C9222286C7
:1035900097250400938505911145EFB030730146DE
:1035A000970500009385652B13056009EF60001CEB
:1035B00045BA0146A6854A85EF60607D55B27971AE
:1035C000B1472300F1009307170022D4A300F100B4
:1035D00006D62301C1002A848D4715C7814713866B
:1035E000370008101376F60F2A963385F600034548
:1035F000050085072300A6FE13F6F70FE311E6FE8C
:103600000D079377F70F81460147850613F6F60FEE
:103610006368F6041410BE962380E6FE1387170035
:1036200014101377F70F3697B5462300D7FE93860D
:10363000270093F6F60F0A862285EFF0A076DD4785
:10364000631CF500254597250400938565F2EFB0CE
:1036500030532285EFF00073B250225445618280CE
:103660003306D1000346060032971377F70F71BF78
:1036700085472A86AE8663E3A70293078002330755
:10368000F502938781AD2545BA9798474D8F98C726
:1036900097250400938585EE6FB0506382804111B9
:1036A00022C406C683C7F1AD2A8481C7AA85014515
:1036B000C13783C771B099C7A2852244B24005457E
:1036C00041017DB7B24022444101828085472A866C
:1036D000AE8663E5A702930780023307F50293875E
:1036E00081AD93C5F5FF2545BA9798476D8F98C76B
:1036F00097250400938505986FB0505D8280411135
:1037000022C426C206C683C7F1AD2A84938481AD44
:1037100091CB98449347F5FFAA85F98F014523A0E3
:10372000F1AE6D3783C771B091CF9C581347F4FF4A
:10373000A2852244B2409244F98F23A4F1B00545FA
:10374000410169B7B2402244924441018280011193
:103750004EC606CE22CC26CA4AC883C9F1AD6388BC
:10376000090683C771B07D54B9EB854905449307B9
:103770008002B307F402138481AD2E89AA84130654
:10378000800281453E94228597D0FF1FE780602903
:103790008547A303F40022851946A68597D0FF1F0D
:1037A000E780A024CA85230324012685EFF0006763
:1037B000B74507002A849385F5804E85553D2285BF
:1037C000F2406244D2444249B249056182800144D8
:1037D00079BF011119468145280006CE97D0FF1FF9
:1037E000E7802024130600058145138581AD97D01D
:1037F000FF1FE78000231946970500209385755E1B
:10380000280097D0FF1FE780402785476308F50011
:103810008145170500201305D55C153F194697050E
:1038200000209385755C280097D0FF1FE780E02477
:1038300085476308F5008145170500201305D55A13
:1038400039379707002083C7C75999C3EFC0705A0B
:10385000F24005618280411106C6EFF06065B2401A
:10386000130600058145138581AD410117D3FF1F64
:103870006700231B854763E2A70293078002B30713
:10388000F502138781AD0145B306F70083C67600C4
:1038900091C6B1073305F7008280014582803971F6
:1038A00006DE22DC26DA4AD84ED652D456D283C758
:1038B00011876147636BF7088507A388F18697072F
:1038C000002083C7B751ADCB138481AD138981B27A
:1038D000854497190020938969C4130AC003971A75
:1038E0000400938AEA7783477400B9C783470402C8
:1038F000638497045C4C03A7C9021D8F97070020BF
:1039000083C7D74DB38747036364F70213050020CD
:1039100023009402EFC0700119466C002285EFB0BD
:10392000F05E7000D6852545230C0100EFB0103AFB
:1039300013048402E31924FBF2506254D254425916
:10394000B259225A925A216182800D45A38801867C
:10395000B933B5B75D71CAC01389018783470900C0
:1039600052DC56DA858B416A856A4EDE5AD85ED6BD
:1039700086C6A2C4A6C22388F186054B938981AD71
:10398000930B80027D1A938A0A8003C50187636ABC
:10399000AB0C330575034E95044599CC83477500F0
:1039A00081CFEFF010662A8411ED972504009385EE
:1039B000259F2545EFB0D01C834709008507238844
:1039C000F186E1B783470500918BFDD783568500CB
:1039D000E38446FF03C60187972504009385859DF0
:1039E0002545EFB0B02E9397C40063DF0708930618
:1039F0007100130661009307910038009305510090
:103A00001305A100EF8070628357A10013074006E1
:103A1000972504009385459CB3F7E70225452306C7
:103A2000F10083475100A306F1008347610023079B
:103A3000F10083477100A307F10083478100230849
:103A4000F10083479100A308F100EFB0701319470C
:103A500074001306800A8355E40003558400EFF0D8
:103A60001FB683C7018709476385E7008507238859
:103A7000F186B640264496440649F259625AD25A13
:103A8000425BB25B6161828093F7140081CF97251E
:103A900004009385A5952545EFB0900E014774006D
:103AA000254655BF93F7240081CF972504009385C1
:103AB000A5952545EFB0D00C01477400194661BFAC
:103AC00093F7041085CB97250400938565952545CC
:103AD000EFB0100B03C50187930780023305F50291
:103AE00050006C004E95EF00306A034741007400AF
:103AF000094695B793F7042085CB97250400938555
:103B000065932545EFB0D00703C501879307800271
:103B10003305F50250006C004E95EF00F066034748
:103B2000410074000D4605BF93F7044081CF9725EF
:103B300004009385A5912545EFB0900401477400DA
:103B4000054611BFB3F7540185C797250400938537
:103B500025912545EFB0D0029707002093870708ED
:103B600083C72720054774002306F1001146E5B5F9
:103B70009397340163D90702972504009385059034
:103B80002545EFB0E07F970700209387270583D76F
:103B9000E72274001D4613978700A183D98F23164F
:103BA000F10009474DBD9397240163D5070297257E
:103BB00004009385658E2545EFB0807C9707002033
:103BC0009387C70183C71720054774002306F100B8
:103BD000354651B59397140163DD0700972504001E
:103BE0009385C58D2545EFB0A0790547740039460A
:103BF0009DB593F7440081CF972504009385458DAB
:103C00002545EFB0E077014774001546A9B593F755
:103C1000840081CF972504009385058D2545EFB05D
:103C200020760147740021463DB59397040163DD7A
:103C30000700972504009385E58C2545EFB0407477
:103C400005477400414601BD9397F40063DD070208
:103C5000972504009385858C2545EFB06072970702
:103C600000209387A7F703C7372074004D4623062B
:103C7000E10003C7472083C75720A306E1002307BD
:103C8000F1000D47C9BB9397E40063DD070097255A
:103C900004009385658A2545EFB0806E0147740066
:103CA000514655BB9397D400E3D807D0972504001D
:103CB0009385458A2545EFB0A06C014774005546B1
:103CC00059BB954763F2C74E5971A6D2CECED2CC1E
:103CD00086D6A2D4CAD0D6CADAC8DEC6E2C4E6C244
:103CE000EAC06EDE328AAE89EFF0F038AA8463064D
:103CF00005121946938581AD97D0FF1FE780E0D765
:103D00000544630B85121946938501B0268597D02B
:103D1000FF1FE78080D663128510930A8002B307E5
:103D20005403938A81AD856B814D170D0020130DCF
:103D3000ED7E171B0400130BEB35938B0B80BE9AA3
:103D40005689B384B90103C70400B1476312F70C65
:103D500013874D006353470D83CC1400138C3D0033
:103D6000B3079C0163D6470BCE9783C60700B547C0
:103D70006390F60A814781463386F40003461600B5
:103D8000850793F7F70FB29693F6F60FE3F6FCFE6E
:103D9000B387940183C72700639CD7068327CD028E
:103DA00083460902232EF90085476397F60213051F
:103DB00000403AC6EFC0603719466C085685EFB030
:103DC000F0147008971504009385452D25452304AC
:103DD0000102EFB0A06F32472300090283C734000D
:103DE000A5466382D72863E5F60A11476381E71E7B
:103DF0006366F70405476389E712638907108946FC
:103E00006381D7148D466381D718669C937DFC0F20
:103E1000850D93FDFD0FE3E64DF3B6502654965401
:103E20000659F649664AD64A464BB64B264C964C3E
:103E3000064DF25D656182800144C5B51947638C0A
:103E4000E71C63EFE7181D476386E7202147E39EE1
:103E5000E7FA83C7440003C55400A2075D8DEFB0A5
:103E6000F34003260B0083264B00EFA0A378EFC09E
:103E7000A342232CA900EFC063372A86AE862545CE
:103E8000971504009385C537EFB04064A14575A030
:103E9000BD466388D72663E6F6022D47638BE7208D
:103EA00063E2E72035476385E7243947E39FE7F47A
:103EB000971504009385C53F2545EFB0604C91658B
:103EC000ADA8D146638BD72663E1F6024147638DE7
:103ED000E7244D47E39BE7F2971504009385C5431C
:103EE0002545EFB0E049C16589A8D546638CD72840
:103EF0001307800AE39BE7F0971504009385854834
:103F00002545EFB0E047B705080005A883C7440082
:103F100003C654009715040093854519A2075D8ECA
:103F20002545EFB0A05AD5B5971504009385C5195E
:103F30002545EFB0E044930500402285EFF00FF9EE
:103F4000E9B583C744006395E7029715040093859C
:103F5000E5182545EFB0C0420965EFC0001D1715F3
:103F6000040013052519EF10305693050010F1B722
:103F70002545971504009385E518EFB060401715A7
:103F8000040013056519C5B783C744006395E702AC
:103F900097150400938545192545EFB0603E5E8571
:103FA000EFC0A0181715040013058519EF10D051A4
:103FB0009305002059B72545971504009385851969
:103FC000EFB0003C171504001305051AC5B7971587
:103FD00004009385651A2545EFB0803ADE85B1BFB0
:103FE00003C54400EFB0932803260B0083264B0043
:103FF000EFA04360EFC0432A232AA900EFC0031FAC
:104000002A86AE8625459715040093852519EFB0BD
:10401000E04B91451DB783C7440003C55400A20778
:104020005D8DEFB0B32403260B0083264B00EFA079
:10403000635CEFC063262328A900EFC0231B2A86F8
:10404000AE862545971504009385C517EFB0004847
:104050008945E5B597150400938585182545EFB08A
:1040600020328565D9BD83C7440003C55400A2072B
:104070005D8DEFB0B31F03260B0083264B00EFA02E
:104080006357EFC063212326A900EFC023162A86B9
:10409000AE8625459715040093850519EFB00043BA
:1040A000854561BD03C644009715040093858519B5
:1040B00085BD8547170700202305F7D2EF70501202
:1040C000EFC0205397150400938545192545EFB09F
:1040D000202B971504009385251A2545EFB0402A1B
:1040E0001165EFC0800491652285EFF06FD831BB78
:1040F00097150400938585192545EFB060288965DB
:104100002DBD971504009385651C2545EFB040270C
:10411000971504009385451D2545EFB06026216560
:10412000EFC0A000A165C9B7971504009385C51C11
:104130002545EFB0E024A16509B593845D00990D94
:10414000B387E900CE94CE9D03C6070003C70D00D8
:1041500083C60400971504009385451E25453EC679
:10416000EFB0C036B247B705020083C70700A3000F
:10417000F90283C704002301F90283C70D00A301DC
:10418000F90265BBB384E90003C604009715040077
:104190009385851D2545EFB0603383C70400B705BF
:1041A00004002302F90251BB8280411122C4216420
:1041B0009305048099460146254506C697C0FF1F12
:1041C000E780004C930504802244B2409946138650
:1041D00041872945410117C3FF1F6700634A99E1E1
:1041E0000145828075DD011152C403DA818726CA38
:1041F00093548A008504A204C204C18056C2B38AC3
:104200004441C20A22CC4AC82E862E842A89971598
:10421000040093856546254593DA0A014EC606CE0D
:1042200093894187EFB0802A63ED8A0883D581871F
:1042300093F7F50FB1CF8D6783D58187938707807B
:10424000A2864A86BE95294597C0FF1FE780404356
:104250001375F50F29ED83D749001566A297239CA6
:10426000F18603D7818783D761876309F70063F3FA
:10427000E700B297998F139607014182254597155C
:1042800004009385E540EFB060241375F40F0DA092
:104290008D6793870780930600100146BE952545DC
:1042A00097C0FF1FE780C03D1375F50F49D5014545
:1042B000F2406244D2444249B249224A924A0561DC
:1042C0008280B3079440D297C207C183A18303C7FA
:1042D0004900850793F7F70F9396870011EB9386B4
:1042E000170093740AF0A206C204C206C180C182FC
:1042F00083D7618763F6F40033879600E3C9E7FA52
:104300000D6A130A0A800146B3854401254597C00A
:10431000FF1FE780E0361375F50F51F983D58187CC
:10432000A2864A86D29505B7411122C413844187DB
:1043300022858145194606C697C0FF1FE780606E3B
:104340009307B0FA2300F4008D352244B24097154C
:1043500004009385E52A254541016FB06002A165FF
:104360004111994613864187938505802D4506C6E0
:1043700097C0FF1FE780C03003C741879307B00A8B
:104380006303F7005537B24083D6818703D6618730
:104390009715040093858527254541016FB00013CB
:1043A00083D781B20145638C071003D5A1B2636640
:1043B000F50023A401B2014582803385A740D1478F
:1043C0003355F5021375F50F01E5239401B2828090
:1043D000130101BD2324814223261142232291424D
:1043E00023202143232E3141232C4141232A5141B3
:1043F00095471374F50F63F3A700154422869715AC
:1044000004009385A52A2545EFB0400C014981445D
:104410009389C1B2514AA14A9377F90F03D5A1B24A
:10442000170700200347179263E98704D147330435
:10443000F4022A94239581B2A147631CF706A6854E
:104440000808EF40900B03D7A1B283D781B205458E
:104450006364F70023A401B28320C1420324814294
:1044600083244142032901428329C141032A814116
:10447000832A4141130101438280B3074903140891
:10448000AA97CE9733859600631E5701BE85EF40ED
:1044900050262317A1008357E1000509BE94C204EA
:1044A000C1809DBFAA851306E1003E85EF90802361
:1044B000DDB726860C080145EF70602B69B7828056
:1044C000011106CE22CC26CA4AC84EC691E9014443
:1044D0002285F2406244D2444249B2490561828059
:1044E000AA8975D583D7818703D661872E84956481
:1044F000638AC7006374F60015673A961D8E93149D
:104500000601C1802686971504009385650C254514
:10451000EFA0D07B938714F06356F4009307F00F5D
:1045200063EA9700971504009385050C2545EFA0D5
:10453000F07971BF83D4818733878400956763C91D
:10454000E700A2854E85EFF09FC9EFF01FC649B77F
:10455000156933099940420913590901CA854E85E5
:10456000EFF0FFC72DD5ED75A695A295C205239C4A
:104570000186C18133852901F9B783D681B281EAE9
:10458000971504009385C50C25456FA0705F03D671
:10459000A1B24111918E971504009385650C2545B4
:1045A00006C6EFA0B072138781B28355070083D788
:1045B000A1B21385C1B29D8DC2053E95C181093757
:1045C000B24023A401B241018280411183D781B25C
:1045D00022C426C206C6AE971307401FAA842E84A3
:1045E000635AF700593F9715040093852504254524
:1045F000EFA0105983D781B21385C1B22286A68558
:104600003E95EFB0936A03D681B2229642062244C9
:10461000B240924441822394C1B29715040093851D
:104620006502254541016FA0706A011126CA06CEB8
:1046300022CC4AC84EC652C456C2814459C1D1C1C7
:1046400083D7618703D48187638D870663F58708E5
:104650001D8C42044180AE892A8922869715040068
:10466000938585F30145EFA07066A28463F389000A
:10467000CE84C2040D6A83D7618703D78187C18046
:10468000938A4187130A0A8063FAE704A6864A865A
:10469000B38547012D4597C0FF1FE78060FE83D794
:1046A0002A00A697239BF186EFF03FB083D681873F
:1046B00003D6618797150400938545EF2545EFA044
:1046C000F060F240624426854249D244B249224A0F
:1046D000924A0561828015673A949DBF15671D8FC8
:1046E000B385470163D5E400A6864A8665B7956918
:1046F000B389F9406D743E94C20993D90901269497
:10470000CE864A8642042D4597C0FF1FE78040F7BA
:104710004180A28633063901D2852D45239B01862F
:1047200097C0FF1FE780C0F583D72A003E94239BE4
:1047300081869DBF397106DE22DC26DA4AD84ED644
:1047400052D456D25AD05ECE62CCE9C9328455CA10
:10475000368CE9C6BA8B79C32A89AE8A2300AC00AD
:1047600085448149114B330634416353CB001146D4
:10477000137AF60F5286B3853A01480002C2EFB0B1
:10478000D3520347510083476100034671008346BB
:1047900041004A97CA974A96050789070D06CA96A7
:1047A0002307E100A306F100A307D1002306C100FF
:1047B0007800814703460700B306F9008507B18EEC
:1047C0002300D70093F7F70F0507E39567FF83579B
:1047D000C1000357E100D29933059C00B98F23161D
:1047E000F100B24711462C00910493F9F90F3EC431
:1047F00093F4F40FEFB0734BE3E789F623809B004B
:1048000005442285F2506254D2544259B259225A78
:10481000925A025BF24B624C216182800144D5B70F
:104820001D7186CEA2CCA6CACAC8CEC6D2C4D6C274
:10483000DAC05EDE62DC66DA6AD86ED67DC52E84AA
:10484000E9C532897DC2368CEDC2834D0500AA844C
:10485000814C054D9149138A3D00938A1D00138BAD
:104860002D00930B00103306A44163D3C9001146F9
:104870009377F60F3E86B385A40148083EC602CA68
:10488000EFB0B34283466101034741010346710122
:1048900083475101358F230AE100B18F33C7ED0003
:1048A000B346DB00A30AF1003346CA00B3C7FA00DF
:1048B000A30FE100A30ED100230EC100230FF100CE
:1048C0007408014783C706003386ED000507938708
:1048D0000710918FB3E777038506A38FF6FEE313E6
:1048E00037FFF2473305990111462C083ECCEFB053
:1048F000D33BB247910C93FCFC0F3E9D137DFD0F03
:10490000E3638DF623009C0105442285F64066444E
:10491000D6444649B649264A964A064BF25B625C43
:10492000D25C425DB25D256182800144F9BF39717C
:104930009307400622DC33F4F50226DA13077100F0
:10494000B684740806DEB377F6023304F402B38744
:10495000C5003E9493978500A181DD8D9317860055
:1049600021825D8E2314B1002315C1002C00114655
:10497000D13389C483457100680882942285F2503E
:104980006254D25421618280317122DD26DB4AD902
:104990009307110118082A842E89B2849306F10026
:1049A0001306E1009305D1001305210106DFEF7026
:1049B000D067814719473306F40003460600B40068
:1049C000BE962380C6008507E397E7FE8357210143
:1049D00013074006B3F7E7022307F1048347D1002A
:1049E000A307F1048347E1002308F1048347F100A2
:1049F000A308F104834701012309F1049307A0FAF6
:104A0000A309F104EFC0E3717800F418AC0031465B
:104A10001375F50F05334C0822851946EFA0104F8A
:104A20005008971504009385A5C925452300010268
:104A3000EFA0D0290346C1004C08E818EFA0104DA4
:104A40008346C1001819500893971600BA97971516
:104A500004009385A5C72545238207F6EFA01027FC
:104A6000034801018347F1000347E1008346D10079
:104A700003562101954897150400938565C6254581
:104A8000EFA0D0240344C100EC184A852286EFB081
:104A9000D321FA50238084006A54DA544A59296198
:104AA0008280184193870116104598C3035745002B
:104AB000544590C72392E70058551049D4C754492C
:104AC00098CF971504009385A5CB0547254590CB36
:104AD000D4CB238EE7006FA0B00A397126DA4AD80A
:104AE0004ED652D456D25AD006DE22DC62CE66CCE6
:104AF0002A89EFC0237D9374F50F8149254BE54A40
:104B0000171A0400130A8AC191ECF25062544E85C0
:104B1000D2544259B259225A925A025B724CE24C18
:104B20002161828003470900930707FD93F7F70F80
:104B3000637CFB009307F7F993F7F70F63E2FA063C
:104B4000930797FA93F7F70F139487016184FD1485
:104B5000230089002685EFA073712A86AE8603257F
:104B60000A0083254A0093F4F40F0509EFF0303270
:104B70002AC422852EC6EFA0736F2246B246EFA04C
:104B8000831F2A8C4E85AE8CEFA073752A86AE8665
:104B90006285E685EF900333EFA09367AA89ADB7EE
:104BA0009306F7FB93F6F60F8147E3EFDAF89307E6
:104BB00097FC49BF411122C406C6830795022A8487
:104BC00099C713059502EFB0930B238DA1108307AE
:104BD000D41291CB1305D412EFB0130AEFB0C36B0C
:104BE0009387810EC8D3B2402244410182800111D3
:104BF00026CA9304150022CC97150400938505BCA2
:104C00002A84268506CE4AC84EC6EFA0301B631EF6
:104C10000510971504009385A5BA2685EFA0101AF4
:104C20006302050E85448307D4036386070C1305CE
:104C30009402EFB0D30485491379F50F1305D4031B
:104C40006387340F8947638CF418EFB05303A38E46
:104C5000A110631A3901794681451385F113238D1B
:104C60000186EFD00FF88307D40885C31305D40855
:104C7000EFB0F30003C7A18793071700238DF186D8
:104C80009387810EBA97A38BA7048307D40D85C39E
:104C90001305D40DEFB0A37E03C7A18793071700B8
:104CA000238DF1869387810EBA97A38BA704830780
:104CB000D41285C31305D412EFB0637C03C7A18758
:104CC00093071700238DF1869387810EBA97A38BE4
:104CD000A7048307D41785C31305D417EFB0237A2D
:104CE00003C7A18793071700238DF1869387810E51
:104CF000BA97A38BA704F2406244D2444249B24916
:104D000005618280971504009385C5AB2685EFA0C9
:104D1000F00AE31905F02685971504009385C5AAC6
:104D2000EFA0D0098944E31005F08144EDBDEFB058
:104D30000375238FA110631A990079468145138565
:104D40001112238D0186EFD0CFE98307D40885C3E4
:104D50001305D408EFB0A37203C7A1879307170008
:104D6000238DF1869387810EBA97A38CA7028307C0
:104D7000D40D85C31305D40DEFB0637003C7A187AD
:104D800093071700238DF1869387810EBA97A38C22
:104D9000A7028307D41285C31305D412EFB0236E84
:104DA00003C7A18793071700238DF1869387810E90
:104DB000BA97A38CA7028307D417E38E07F21305D3
:104DC000D417EFB0C36B03C7A18793071700238DD8
:104DD000F1869387810EBA97A38CA70229BFEFB003
:104DE000036AA38FA11001BF411122C406C6830725
:104DF00095072A8499C713059507EFB04368A38DDB
:104E0000A1108307D40899C71305D408EFB023670E
:104E1000238EA1108307540B91CB1305540BEFB0D5
:104E2000A365EFB063479387810E88D7B2402244D1
:104E300041018280011126CA8146B284014652C4D2
:104E400056C206CE22CC4AC84EC62A8AAE8AEF90F7
:104E5000B35541CD9307E0046386F4009307300512
:104E60006395F408971904009389499303A60900F0
:104E700083A649005285D685EF90F36F379498004A
:104E8000EFA01339130404682A8933758502EFA053
:104E9000134503A6090083A64900EF90A375971751
:104EA0000400938727909043D443EF90A3742A8AF9
:104EB00033558902AE8AEFA093422A86AE86528588
:104EC000D685EF90230013073005AE876395E40085
:104ED000B7070080AD8FF2406244D2444249B249E4
:104EE000224A924ABE850561828001458147E5B725
:104EF000011126CA8146B284014652C456C206CE6A
:104F000022CC4AC84EC62A8AAE8AEF90F34941CDD8
:104F1000930750046386F400930770056395F408C3
:104F2000971904009389898703A6090083A649007D
:104F30005285D685EF90336437949800EFA0532DB7
:104F4000130404682A8933758502EFA0533903A638
:104F5000090083A64900EF90E3699717040093873F
:104F600067849043D443EF90E3682A8A33558902DB
:104F7000AE8AEFA0D3362A86AE865285D685EF80DC
:104F8000737413077005AE876395E400B70700805C
:104F9000AD8FF2406244D2444249B249224A924A19
:104FA000BE850561828001458147E5B713578500BD
:104FB0009357050113D885009376F50F01111377E8
:104FC000F70F93F7F70F618593F5F50F1378F80F47
:104FD00099C211C3B9E3230CD100A30CE100230D46
:104FE000F100A30DA100034591018347810103470F
:104FF000A1012205A30E01014207C98F230EB100B2
:105000000345B101D98F0347D1018345C101620531
:1050100022075D8DD98D0561828032951375F50F5C
:1050200013138501135383415D4663576608614638
:105030003363C30285071376D70F114593F7F70F34
:105040006305A6002545631AA6007946637FF6022C
:1050500005071377F70F85470DA809466312C704A4
:105060001386067D93084006B3681603638508001F
:1050700013F5360011C5130500193366A60219EEA3
:1050800075466374F60085470D47230CD100A30CC9
:10509000E100230DF100A30D6100B1B77146D5B752
:1050A0007D46E374F6FEB147E314F7FA850693F6FE
:1050B000F60F85470547D1BFE35903FC6105FD178E
:1050C0001313850193F7F70F13538341DDFF7D170A
:1050D0001377F70F1146F947E309C7FA1946E306B4
:1050E000C7FA2546E303C7FA2D46E300C7FA894706
:1050F0006316F7021386067D93074006B367F60230
:1051000091C793F83600F547E38108F89307001933
:10511000B367F60293B71700F10785BFFD4735F770
:10512000FD1693F6F60F31478DB7834715000347F9
:1051300005000111A2075D8F8347250083463500D6
:1051400006CEC207D98F034755008345450017F6A1
:10515000FF1F1306A6A803065621E206220733E521
:10516000F600D98DA135135885001356050193D744
:10517000850013F7F50F93F7F70F93568501137614
:10518000F60F9375F80F1375F50FEF70407197F7E1
:10519000FF1F83C7B7A405476385E70011476396E0
:1051A000E700F24005616F70207FF2400561828068
:1051B0004971232481161384810E8307340083C828
:1051C000D10E03C8C10E03C7A10E83C6910E03C63C
:1051D000810E970504009385E5604810232611167B
:1051E0002322911623202117232E3115EFC0030609
:1051F0004810EFC0230D18485C48030604033AC06A
:105200003EC2030814035C4418445410970504007C
:105210009385455F3695EFC063034810EFC0830A5E
:105220005C103E9583076400170604001306065BB6
:1052300089C7170604001306E659971504009385DD
:105240002526EFC0A3004810EFC0C307544C104CF4
:105250005C10970504009385E55B3E95EFB0137FE6
:105260004810EFC02306030634035C103E959705F3
:1052700004009385E55AEFB0737D4810EFC08304B6
:1052800003072403AA8448503ACE1384810EEFA06A
:10529000F37572475C10AE862A86970504009385E5
:1052A000255933859700EFB0737A4810EFC083011A
:1052B0005C1003C6C111970504009385E5583E951F
:1052C000EFB0D3784810EFB0F37F5C10970504007F
:1052D000938585583E95EFB0D37D13896110A284E4
:1052E000971904009389491B03C6740519CA48100D
:1052F00032CEEFB0337D72465C10CE853E95EFB076
:10530000F3748504E39224FF4810EFB0B37B5C1084
:10531000970504009385C5543E95EFB09379971493
:105320000400938464170346940319CA481032CECC
:10533000EFB0537972465C10A6853E95EFB01371BD
:105340000504E31224FF4C102545EFA060038320E1
:10535000C1160324811683244116032901168329CB
:10536000C11575618280411122C406C626C2830719
:1053700055012A84B9C7A946938707FDB387D70289
:1053800003476501130707FDBA97A385F10E0307CD
:10539000750183478501130707FD3307D7029387FC
:1053A00007FD3E972386E10E830795010347A5017C
:1053B000938707FDB387D702130707FDBA97A38624
:1053C000F10E8307940281CB130710046391E71455
:1053D00085472387F10E8307D4039384810E99C7F1
:1053E0001305D403EFB0430988C4CCC403061405E5
:1053F00009CA8844CC44238CC110EFF0BFA388C4F1
:10540000CCC48307540699C713055406EFB0C306EE
:1054100088C8CCC80306940709CA8848CC48A38C1E
:10542000C110EFF0FFAC88C8CCC88307D40899CF6F
:105430001305D408EFB04304970704009387073996
:105440009043D443EF90331388CCCCCC8307140A19
:1054500099C71305140AEFB083022394A1108307A0
:10546000540BB9C7A946938707FDB387D7020347F3
:10547000640B130707FDBA972385F10E0307740B1E
:105480008347840B130707FD3307D702938707FD74
:105490003E97A384E10E8307940B0347A40B9387E5
:1054A00007FDB387D702130707FDBA972384F10ED0
:1054B00083853400856703C6C10E938707E1130710
:1054C000C0033307E60283C6D10EB387F502BA974D
:1054D000B69723AAF11017F7FF1F13072704835766
:1054E00007003A8413F5870039E103856400054716
:1054F000631FE50203C7A10E11EF8844CC440146A7
:105500008146EF90636A05E92387010EB9A02387DE
:10551000010ED1B5FDD175D2EDD293E78700138589
:10552000810E17F7FF1F231BF7FEEFF01FC08387C5
:105530006400E1F7D1BF8848CC4801468146EF902E
:10554000A36679D183C7A10EE1D3130680079385A3
:10555000810E13850107EFA0537503C501D29D4746
:1055600005053365F502130680079385810E2380B8
:10557000A1D2930780073305F502938781D23E9528
:10558000EFA0B372EFF0DFC25C542244B240924409
:1055900017F7FF1F232EF7FA13068007814513859F
:1055A000810E41016FC0FFE30171232C811E232A6C
:1055B000911E1306101E2A84AE8468008145232E96
:1055C000111E2328211FEFC0DFE1814581470147DC
:1055D00001465148CD485D436341960899C1230671
:1055E000F1001306A002A6852285EF90707B834709
:1055F000C10051473386A440B387E70293051500E5
:1056000078007D16A29585073305F700EFA0F369B2
:105610001306A002A685228503491400EF90507856
:10562000894763C4A7080345C100D1473305F50284
:105630007C0005053E95EFF04FCA631DA90419468D
:1056400097050400938585161305D100EFA0A002ED
:105650002DC56800EFF03FD135A8B306C40003C5DF
:105660000600930665FD93F6D60F91EA850793F73A
:10567000F70F6361F302854501470506B1BFB386A5
:105680000703130E011FF296BA96A38EA6E0050734
:10569000E3D5E8FE8320C11F0324811F8324411F1B
:1056A0000329011F1301012082803307F4000347FF
:1056B000070085073349E900ADB71946970504008F
:1056C0009385050F1305D100EF90F07A0DED194683
:1056D000970504009385050E1305D100EF90B0796E
:1056E00019ED1946970504009385050D1305D100A2
:1056F000EF90707845D16800EFF06FCF61BF680020
:10570000EFF08FEE41BF6800EFF0CFCA61B775715F
:1057100022C526C34AC1CEDED2DCD6DADAD806C725
:10572000AA892E89814401448147130A4002854A8F
:10573000354B139704014183636C2701BA402A4417
:105740009A440A49F659665AD65A465B496182809C
:10575000338799000347070063014703639D57019F
:10576000631E67019C18A297A2856800238E07F824
:10577000EFF09FE3814785046DBF01449C18A29719
:1057800005041374F40F238EE7F893373406E5B756
:10579000411106C6138501D2834705001307800710
:1057A0008145B387E70213068007A1073E95EFC046
:1057B0005FC3B2408145114541016FA0C07113859F
:1057C00001D28347050013078007B387E702A107CB
:1057D0003E95828013850107828097F7FF1F83C75C
:1057E00067D481CF97E7FF1F83D7A760FD17C20754
:1057F000C1831307A0036375F70023AE018682807F
:1058000031714ED79389C18783A7090056D3938AF4
:1058100001D2850722DD26DB52D55AD15ECF62CD7B
:1058200066CB6AC906DF4AD96EC723AEF18683C448
:1058300001D2014A130C80075684970C0400938C04
:105840006CEE054D9D4B154B3389840356998307A8
:10585000E900E1CF03A60C0083A64C000325090252
:1058600083254902EF90C3456341050C8347090432
:10587000638DA70B93171A001808BA97035789026C
:105880002390E7003C00D29723809700050A9904F3
:10589000B3E47403E31A6AFB0357810183570101E0
:1058A000998F13D7F741B98F998F939407011307F5
:1058B000400BC1806358F70093078016B38497406C
:1058C000C204C1802686970504009385A5E8680870
:1058D000EFB0D3176C082545EF90902A938714FFFB
:1058E000C207C1837947636EF70803499100130A21
:1058F00080078545014533094903210922994A86D4
:10590000EF80202D8344B10085450145B3844403D5
:10591000A104A2942686EF80C02BCA850D45EF30E6
:10592000805FA6850D45EF30005F83A7090017E76C
:10593000FF1F0357074C63E7E70203C501D2930437
:10594000800733059502B30DA4008387ED0099CB42
:1059500083C7C117138901166397070E2105229586
:10596000EFF02F94FA506A54DA544A59BA592A5A25
:105970009A5A0A5BFA4B6A4CDA4C4A4DBA4D296185
:1059800082809307D002E3F297FA834B8100930A57
:1059900080078545B38B5B030145138C8B00229CEC
:1059A0006286EF800023034B910085450145330B50
:1059B0005B03A29B210B229B5A86EF808021034A26
:1059C000A10085450145330A5A03210A229A5286CD
:1059D000EF8020200349B100854501453309590373
:1059E000210922994A86EF80C01E8344C100854563
:1059F0000145B3845403A104A2942686EF80601D60
:105A0000E2850D45EF302051DA850D45EF30A0508D
:105A1000D2850D45EF302050CA850D45EF30A04F9F
:105A2000A6850D45EF30204F83C701D2B38A5703B7
:105A300003A74B03A29A83A74A03E318F7EE85470F
:105A40002380FA04DDB5170D0400130D2DCE0326B7
:105A50000D0083264D0003A58D0183A5CD01970977
:105A60000400938929CDEF90033103A6090083A692
:105A70004900EF8033382A8BAE8B03260D00832636
:105A80004D000325090183254901EF90C32E03A68C
:105A9000090083A64900EF80F3352A8AAE8A2A8658
:105AA000AE865A85DE85EF9083789707040093874A
:105AB000E7C89043D443EF90032CEFE030282A8CC2
:105AC000AE8C5A85DE85EFE0501E2A8BAE8B528558
:105AD000D685EFE0901D032689008326C9002A8A17
