:04C000006F20005C51
:10C0040000000000000000009000002056080020FE
:10C01400A9BDF9F594000020000000000000000014
:10C02400960000209800002000000000000000009E
:10C034009A000020000000009C0000200000000086
:10C044009E0000201603002044030020A4000020CA
:10C05400A6000020A8000020AA000020AC000020B8
:10C06400AE000020B0000020C60000205A010020CD
:10C07400D2080020B8000020BA000020BC00002034
:10C08400BE000020EE01002082020020C400002037
:10C0940001A001A001A001A001A001A001A001A094
:10C0A40001A001A001A001A001A001A001A001A084
:10C0B40001A001A001A001A001A001A001A001A074
:10C0C40001A001A001A037370040834747009946EB
:10C0D4004111BD8B638CD70231476384E706114756
:10C0E400639EE702A3030100174600000346063DD2
:10C0F40037370040834771006315F6022C0013851F
:10C104008166977001E0E780409609A8834757004D
:10C1140093F7F70F2304F100834781004101730073
:10C12400203083477100834687000C08AE97238C28
:10C13400D7FE83477100850793F7F70FA303F10038
:10C1440055BF280097D001E0E78000AF1375F50FC5
:10C15400A303A1000346710055B737370040834756
:10C16400474099464111BD8B638CD70231476384A4
:10C17400E7061147639EE702A30301001746000088
:10C184000346E63337370040834771006315F602F0
:10C194002C001385C167977001E0E780008D09A822
:10C1A4008347574093F7F70F2304F1008347810037
:10C1B40041017300203083477100834687400C0897
:10C1C400AE97238CD7FE83477100850793F7F70F4B
:10C1D400A303F10055BF280097D001E0E78080B7A2
:10C1E4001375F50FA303A1000346710055B7374734
:10C1F40000408347478099464111BD8B638CD70229
:10C2040031476384E7061147639EE702A3030100F5
:10C21400174600000346962A3747004083477100BB
:10C224006315F6022C0013850169977001E0E7801D
:10C23400C08309A88347578093F7F70F2304F100BD
:10C244008347810041017300203083477100834696
:10C2540087800C08AE97238CD7FE8347710085072F
:10C2640093F7F70FA303F10055BF280097D001E01F
:10C27400E78000C01375F50FA303A1000346710006
:10C2840055B737470040834747C099464111BD8B96
:10C29400638CD70231476384E7061147639EE70244
:10C2A400A303010017460000034626523747004007
:10C2B400834771006315F6022C001385416A976069
:10C2C40001E0E780807A09A8834757C093F7F70F06
:10C2D4002304F10083478100410173002030834728
:10C2E4007100834687C00C08AE97238CD7FE834722
:10C2F4007100850793F7F70FA303F10055BF2800DA
:10C3040097D001E0E78080C81375F50FA303A1005F
:10C314000346710055B7411122C6371400408357B4
:10C32400C40913973701635B0700BD45014597B006
:10C3340001E0E780A0DB8567231EF4083244410155
:10C3440073002030411122C6371400408357E4099A
:10C354008357E409139717016359070097B001E065
:10C36400E780E0D09167231FF40832444101730051
:10C3740020304111814601468145114506C60D2DE7
:10C38400B727004011472383E780B7F700E003A7EE
:10C3940007D16D9B23A8E7D003A707D15D9B23A8F2
:10C3A400E7D07300501001000100B24041018280C7
:10C3B4004111814681450146114506C6D52BB72753
:10C3C400004011472383E780B717004003C7E70203
:10C3D40083C5E70483D7870391661377F70F93E543
:10C3E400350063E5D700719B13671700B71700404A
:10C3F400130670052380C704930680FA2380D704AC
:10C4040001000100238207022380C7042380D7048C
:10C41400010001002387E7022387B7042380C704B0
:10C424002380D7040100010003C7B7041367070280
:10C43400A385E7042380070437F700E0832507D1A9
:10C4440093E545002328B7D0832507D1DD99232818
:10C45400B7D073005010010001002380C70423806B
:10C46400D7040100010003C7B7041377F70DA385B0
:10C47400E70423800704B240410182800111B7F52B
:10C48400070022CC8146E1052A840A86194506CE96
:10C4940026CA02C023120100212BB717004003C78C
:10C4A400E70283C5E70483D7870391661377F70F01
:10C4B40093E5350063E5D700719B13671700B71741
:10C4C4000040130670052380C704930680FA238076
:10C4D400D70401000100238207022380C7042380BC
:10C4E400D704010001002387E7022387B7042380D0
:10C4F4000704B7F500E003A705D11367470023A895
:10C50400E5D003D507026577110713750560418DE2
:10C51400598D4205418101002380C7042380D7043B
:10C524000100010003C7F70037F40700B7F400E087
:10C5340013670704A387E70003C7B70461041367FD
:10C544000702A385E7042390A70283A704D1DD9BF8
:10C5540023A8F4D0730050100100010013056004F7
:10C56400352E81463000A285194502C423160100E8
:10C57400812122478247E31AF7FCB71700401307CB
:10C5840070052380E704130780FA2380E704010081
:10C59400010003C7B7041377F70DA385E7042380CD
:10C5A4000704F2406244D2440561828001114EC600
:10C5B40081460146AA898145114506CE22CC26CA68
:10C5C4004AC8FD26B716004083C7E60203C7E6043F
:10C5D40083D68603116693F7F70F1367370063E575
:10C5E400C600F19B93E71700371400401309700548
:10C5F40023002405930480FA23009404010001001D
:10C6040023020402230024052300940401000100F2
:10C614002307F4022307E40423000404130550024F
:10C624005920B7F700E003A707D11367470023A8F1
:10C63400E7D02300240523009404010001000347EC
:10C64400F40013670704A307E40023002405230070
:10C654009404010001002567B3E9E90023103403C1
:10C6640003A707D15D9B23A8E7D0730050100100F6
:10C67400010081460146814511451D2E23002405F4
:10C6840023009404010001008347640493E7170026
:10C694002303F40423000404F2406244D2444249D4
:10C6A400B24905618280B717004093067005238064
:10C6B400D704130780FA2380E7040100010003C6AE
:10C6C400B7041376F60DA385C704238007041376F5
:10C6D40005024DC203C6A700118A1DE22380D704B8
:10C6E4002380E7040100010003C7A7001367470084
:10C6F4002385E7009307004B01000100FD17EDFFC0
:10C70400B7170040930670052380D704130780FAF7
:10C714002380E704010001007D892394A700010020
:10C72400010001000100238007042380D704238033
:10C73400E7040100010001000100372700409306CF
:10C744001005A303D78023800704B71700401307FD
:10C7540070052380E704130780FA2380E7040100AF
:10C76400010003C7B70413670708A385E704238000
:10C77400070482801376050441C603C6A700418AD4
:10C784001DE22380D7042380E7040100010003C7CE
:10C79400A700136707012385E7009307007D0100C5
:10C7A4000100FD17EDFFB7170040930670052380C5
:10C7B400D704130780FA2380E704010001001376ED
:10C7C400F501136606042394C7000100010001006B
:10C7D4000100238007042380D70413066004238008
:10C7E400E7046318C50001000100372700408946AB
:10C7F40089BF01000100372700409306200591B747
:10C804002380D7042380E7040100010003D78700B5
:10C814001367070C2394E7000DBF411181460146BD
:10C824008145114506C66922B717004013077005F4
:10C834002380E704130780FA2380E7040100010042
:10C8440003C76704136717002383E70423800704DF
:10C85400B240410182808146014681451145892AC1
:10C86400B7170040930670052380D704130780FA96
:10C874002380E704010001007D562396C70223802C
:10C88400D7042380E7040100010003C7670413678A
:10C8940017002383E7042380070401A0BD47330561
:10C8A400F50201007D1575FD8280411122C426C266
:10C8B40006C6AA84014463179400B24022449244F9
:10C8C4004101828005041305803E4204C13F41803A
:10C8D400DDB7B7170040130700032388E702854735
:10C8E400174700002320F70473002030411106C6C7
:10C8F400852DFDBF2303048015472303E480010035
:10C904002302A480828083076480E3CE07FE23038E
:10C914000480828083076480E3CE07FE034544805D
:10C92400828083076480E3CE07FE2302A480828092
:10C93400411126C44AC24EC006C61377F50BAD4753
:10C94400AA892E8995446306F70019456537653F22
:10C954008D444E854537FD59FD1463983401B2402A
:10C96400A244124982494101828013550901137579
:10C97400F50F453F2209CDB7011126CC06CEB704E9
:10C98400080051371545BD37713769372AC6A53FA9
:10C9940032459377150089EB136515001375F50F70
:10C9A400F240E24405618280FD14E9FC0145CDBFFB
:10C9B400397126DC4ADA4ED852D656D45AD25ED0D1
:10C9C40006DE62CE66CCB7E700E07D5783AA070097
:10C9D40022C603AA470023A0E71823A2E718B71723
:10C9E4000040130770052380E704130780FA2380AF
:10C9F400E70483C74704930B75FFB684E20793FBF0
:10CA0400FB0F8546AA892E8B328937240040E187A3
:10CA1400015763FA76016308D500894613070002BB
:10CA24006313D5000157D98F93F7F70FB71C004054
:10CA34002382FC0411472303E4801305F00F5D3DBA
:10CA4400094CD135636D7C11B7050700DA9537873A
:10CA54000700795563F2E504B3879500636EF70226
:10CA6400370B0800A94733EB65016399F90689E49C
:10CA74008144513D26850DA0DA850945553D0509BA
:10CA84000345F9FFFD14050B693D81C49377FB0F42
:10CA9400FDF7DD3569FD7D55B717004013077005B7
:10CAA4002380E704130780FA2380E70403C74704BD
:10CAB400418B2382E704F250B7E700E023A057112B
:10CAC40023A24711E25432445259C259325AA25A4B
:10CAD400125B825B724CE24C21618280A5476395B4
:10CAE400F90685691309F00FB3069900B3742B0195
:10CAF400B6941349F9FFB3749900856B33796901CE
:10CB0400416B9387F9FFB3F7270199E363FC340181
:10CB140093D94900C147E3E637FF99BF0569C16965
:10CB24007D19D9B71305800D6388690113050002C7
:10CB34006384790113051008CA85DD3B353D21DD89
:10CB44004E99B3843441D9B7DA852D45D533CA9487
:10CB5400E30099F205097D3BA30FA9FED5BF938796
:10CB6400F9FF93F7F70F6361FC0C83C71C041307E9
:10CB74003008631FF70437070800636BEB04B3073F
:10CB84009B00B706100063F5D704334BEB008947CD
:10CB94006393F9068980D549E38C04ECDA85094569
:10CBA400413B11090327C9FF91472320E480030770
:10CBB4006480E34E07FE23033481FD17EDFBFD146F
:10CBC400110B81C49377FB0FE9FF7D3371F5E1B558
:10CBD400B717004003C75704B707080013770702C5
:10CBE40019E3B78707007955E378FBEA33079B001D
:10CBF400E3FFE7F855B58547E382F9F2DA852D4579
:10CC0400053B9389F4FFE38504E6293393F7390060
:10CC140091EB832604800327090093074900E39AD4
:10CC2400E6E43E89CE84F1BFB5476396F900130567
:10CC3400900BC93135BDB1471305B00AE38BF9FE3A
:10CC440099476391F904B7050800B365BB002D4506
:10CC5400C53181448D4BA14975396396740183278D
:10CC640004802320F9008504E39834FF832704809B
:10CC740013172B01635507002312F900D5BB232298
:10CC8400F900FDB39D476399F90281451305B0048A
:10CC94004531BD442320090023220900FD599D3953
:10CCA40093F77400CA9703C70700FD14398D2380D6
:10CCB400A700E39634FF6DBBA1476392F9046D3975
:10CCC4008144630D0B008D479304C0036308FB008C
:10CCD4009304000563048B01930440041375C50792
:10CCE400E30895D819453931393905452131268567
:10CCF4000D3909453D314931E31C05D669BB9147DE
:10CD04006399F90013056006F536F53E130590099D
:10CD14000DB7E38F09D4F154A9BB19CD91CD09CE38
:10CD240081473387F500834607003307F5008507FD
:10CD34002300D700E317F6FE828019C991C909CAF6
:10CD4400910583A7C5FF11057D16232EF5FEC5BFEA
:10CD5400828001C919C62A960505A30FB5FEE31DF5
:10CD6400A6FE828081473307F5000307070019E315
:10CD74003E8582808507C5BF01112E8626CAAA84F6
:10CD8400131506019305F004418122CC06CE32C668
:10CD9400EF1040592A8401C53246A685BD3F22853D
:10CDA400F2406244D24405618280854715C18DC139
:10CDB40005C28147B306F5003387F50083C6060034
:10CDC400034707006398E6008507E315F6FE8547E9
:10CDD4003E8582808147EDBF9307F6FFBE952A9674
:10CDE4006313C5008280FD1583C715000505A30FD5
:10CDF400F5FEFDB7AA87014581CF09CE3E9685078A
:10CE040003C7F7FF6317B700E39BC7FE054582809E
:10CE14008280014582807971975700009387473952
:10CE240022D4804306D626D24AD04ECE52CC56CAFD
:10CE34005AC85EC662C45DCC37C9C901814B175A52
:10CE44000000130A6A3B975400009384A436130924
:10CE5400F937975A0000938A6A30B709C0A8370B8C
:10CE640040578357240095E35C44639D0B00175798
:10CE74000000232FF732032CC4002285EF10A057A3
:10CE8400628499A823A6FB00FDB783270A00829732
:10CE9400838664011C4463DB06063307F54063673D
:10CEA400E9089757000023A3072C83552400034562
:10CEB4000400970002E0E78020365C405844A9CF84
:10CEC4001444B6978386640163C5060063E337019F
:10CED400DA971CC4A28B3A8449F4975700009387CD
:10CEE400E7279C4B09476378F706F91717570000A3
:10CEF400232EF726B250225492540259F249624A20
:10CF0400D24A424BB24B224C45618280E377F5F81A
:10CF14003387F9402A9761B763970B00975700004E
:10CF240023A8E72889BF23A6EB00B1B7D85009CFBF
:10CF340063DF06003385A74083A70A016376F50003
:10CF44009757000023A4A722A28B404471B7E3F3B0
:10CF5400A7FECE97C5B79757000023A9072059BF4E
:10CF6400411122C417540000130444221C4006C675
:10CF740026C24AC091C782979757000023A807206A
:10CF84005C4091C382971C406391071C9757000033
:10CF940083C7573E858B9DC797570000A38C073CDA
:10CFA400175700000347373D954763FDE700EF003F
:10CFB40010379757000083C7173CF5178A07A297C5
:10CFC4009C438297175900001309893E8347C9007F
:10CFD400918B99C3EF1060281C4491C38297975496
:10CFE40000009384A41C98401756000003461617AB
:10CFF4009757000083C7871693961700BA9683D66F
:10D004000600D5CA9757000083C7471563EFC70AC0
:10D0140097570000238407141C40639807129757FE
:10D02400000083C7773591CF9757000083C7B73483
:10D0340089EB97570000A3810734976003E0E780EA
:10D04400C0CA975700009387271B9C43638F070E22
:10D05400B707C0A817570000232AF7106D3B97574E
:10D06400000093872715DC53EDC3175700001307FF
:10D07400E70E184B9757000083C717156367F70C23
:10D08400175700000347372F954763E0E70C8347A2
:10D09400C900918BDDEB90409756000083C6160CB7
:10D0A40063CBD70A2244B240924402494101170398
:10D0B40002E0670083F3850793F7F70F97560000A4
:10D0C400238EF608E3E6C7F235BF86073E978355FD
:10D0D400070023100700975700002397070C975762
:10D0E40000009387670A9C43175500000345050712
:10D0F40013172500BA979C4382979757000083D74C
:10D10400A70A175700000347670593C7F7FF7D8DEC
:10D114009317170098403E97835707005D8D23109F
:10D12400A7009757000083C7670391C78507175760
:10D1340000002305F70217570000034727029757FB
:10D14400000083C7B701E375F7ECB2402244924470
:10D154000249410182801397170032970357070051
:10D164006DF7850735BFAD6737C70040BD07232678
:10D17400F7200F10000097570000938727FEC84F31
:10D1840083278726BD66BD0693C7F7FF99836A0583
:10D194002326D7205D8D82804111B7170040985F08
:10D1A4003AC6945F3247E39CE6FE324541018280F1
:10D1B40082800327851163000712411122C406C629
:10D1C4008347C5008345C5042A8493F7C70F230604
:10D1D400F500834697000356C700139586016185C1
:10D1E40063F1C508635A05060345870093F6F607FD
:10D1F400A304D700054693E627006314C50093E60D
:10D2040017002306D4005C4389075CC3A30AB40057
:10D21400032504112E864C43090501368327841106
:10D2240003465401D44303D7C700B296118FD4C325
:10D234002396E7008947A30DF40003474403975757
:10D24400000083C747F86378F7048347C40093E773
:10D2540007012306F40081A093E717002306F400D6
:10D2640075B79376F60F635D050203458700854520
:10D2740013E627006314B50013E617002306C40061
:10D28400A30AD400A30407008547A30DF400832751
:10D2940084119C43DDF3B240224401454101828064
:10D2A40093E717002306F400A30AD400A30407009D
:10D2B400032504114C4309058D3483278411034647
:10D2C4005401D44303D7C700B296118FD4C3239615
:10D2D400E7008D475DBF054582809757000093871F
:10D2E400A7079C43411122C406C6858B2A84C5EF37
:10D2F4004165130525F5970003E0E78060B245C555
:10D304008347A5002315F50083270412BDE72320D6
:10D31400A4122322A41285472310F4042320050019
:10D324008347640154412316F5000347D4002304C2
:10D33400E5000547A304E50017570000130747035A
:10D34400184F1385170215811C437D151375F50FAE
:10D354009CC25C43DCC21C479CC65C47DCC61C4BBD
:10D364009CCA5C4BDCCA1C4F9CCE5C4FDCCE19CDF6
:10D374009386060213070702C1BF8327441288C39A
:10D38400835704042322A412850779B79757000012
:10D3940083D7470B8507175700002315F70AB240B8
:10D3A4002244410182808347C400230904000545C7
:10D3B40093C747002306F400DDB78347850193F73D
:10D3C400E70FD5EF83479501DDEB0346250183463F
:10D3D400C50009CA83454503175700000347B7DE54
:10D3E40063E7E50013F7060141CF014709C6C18A87
:10D3F4000357651C81C68356A51C369751C3130772
:10D40400C712175500000355E5D7B335A7023746B1
:10D414000F00411113060624814622C426C206C603
:10D424007D543305A702970004E0E78060CE975748
:10D43400000083C7B7D9B384A70097570000938728
:10D44400E7FF03A707098327070963F387003E84DF
:10D45400184375FB97570000938707DA9C4382971C
:10D4640081476364A400B307A440B2402244B3B725
:10D47400970093C7170092443E85410182808147FB
:10D484003E858280797126D206D622D44AD04ECEE9
:10D4940052CC56CA5AC85EC6834735030344751333
:10D4A400AA843E941374F40F9307400263F6870032
:10D4B4001304B4FD1374F40F03AA841383AAC413CE
:10D4C400A38B841222865285D685970004E0E780D8
:10D4D400A0BE058915E503CBD41201498149337BEC
:10D4E4006403930B50024A865285D685970004E064
:10D4F400E78080BC058915C5639169031374F90F2E
:10D50400238B8412B250225492540259F249624A33
:10D51400D24A424BB24B456182808509E20993D9D4
:10D5240089410509E31179FDE1BF83278509035684
:10D53400E503797193D60701BD8EC206C182358E8B
:10D544001357764093575640898B058B5D8F9357BD
:10D554003640918B5D8F93571640A18B5D8F931747
:10D564001600C18B5D8F9317360093F707025D8F0A
:10D57400931756009355860093F707041E065D8F94
:10D584001376F60F518F93D7554013D63540118A31
:10D59400898BD18F13D67540D18F13D61540218A2C
:10D5A400D18F13961500418AD18F139635001376C7
:10D5B4000602D18F13965500137606049E05D18F6B
:10D5C40093F5F50FCD8FA20745465D8F3307C7024C
:10D5D40022D42A8426D252CC56CA032A8413832AFC
:10D5E400C4135AC806D636974207418393577740E7
:10D5F400135557400989858BC98F135537401189B5
:10D60400C98F135517402189C98F131517004189F4
:10D61400C98F1315370013750502C98F13155700E9
:10D6240093558700137505041E07C98F1377F70FE9
:10D63400D98F13D5354013D755401189098B498F9C
:10D6440013D57540498F13D515402189498F1395FA
:10D6540015004189498F1395350013750502498FCB
:10D6640013955500137505049E05498F93F5F50F21
:10D674004D8F2207D98FB387C7024AD04ECE5EC6DC
:10D6840062C4B697C207C18313D7774013D55740F6
:10D694000989058B498F13D537401189498F13D5D3
:10D6A40017402189498F139517004189498F139594
:10D6B400370013750502498F1395570093D58700DA
:10D6C400137505049E07498F93F7F70FD98F13D568
:10D6D400354013D755401189098B498F13D57540AF
:10D6E400498F13D515402189498F13951500418918
:10D6F400498F1395350013750502498F139555000D
:10D70400137505049E05498F93F5F50F4D8F220778
:10D71400D98FB387C702130650025285D685B697B0
:10D72400BD8E93940601C18033F6C402137BF60FB9
:10D73400970004E0E780409805890DED8347D412F3
:10D7440001498149B3849702130C5002C1804A866F
:10D754005285D685970004E0E78000960589937B7F
:10D76400F90F11C563863403850993F9F90F050987
:10D77400E31F89FD230B6413B250225492540259BF
:10D78400F249624AD24A424BB24B224C45618280F2
:10D794005E8BCDB7011197570000938727CA22CC1F
:10D7A40003A4470B26CA06CE2AC42EC6854419E410
:10D7B4000145F2406244D24405618280834791006E
:10D7C40003471400858B6304F7000044CDB7194662
:10D7D4009305A10013052400EFF02FDDE31795FE58
:10D7E4000545C1BF011122CC17540000130404BA2B
:10D7F40018402AC62EC432C206CE3C4B93F7F7F724
:10D804003CCB975003E0E780004B1840975600004C
:10D81400938606B53C4B93E707083CCB9C423245C4
:10D82400A24523A00700034715000348250022074B
:10D8340042084297034805004297034835006208AE
:10D84400429798D7034755000348650022074208CA
:10D85400429703484500429703487500620842977F
:10D86400D8D7034795000348A500220742084297EA
:10D874000348850042970348B5006208429798DB45
:10D884000347D5000348E5002207420842970348AE
:10D89400C5000345F500429762052A97D8DB03C704
:10D8A400150003C52500220742052A9703C5050074
:10D8B4002A9703C5350062052A9798CF03C75500F8
:10D8C40003C56500220742052A9703C545002A9728
:10D8D40003C5750062052A97D8CF03C7950003C511
:10D8E400A500220742052A9703C585002A9703C588
:10D8F400B50062052A9798D303C7D50003C5E50090
:10D90400220742052A9703C5C50083C5F5002A9757
:10D91400E2052E97D8D3D843759BD8C3D843136751
:10D924001700D8C398431367170098C31246984248
:10D934005C43858BD1E71C4F01452300F6009C42D4
:10D944009C4FA183A300F6009C429C4FC1832301FA
:10D95400F6009C429C4FE183A301F6009C42D84F01
:10D964002302E600D84F2183A302E600D84F418367
:10D974002303E600D84F6183A303E60098532304EE
:10D98400E60098532183A304E600985341832305BA
:10D99400E60098536183A305E600D8532306E60006
:10D9A400D8532183A306E600D85341832307E60016
:10D9B400DC53E183A307F600F240624405618280F0
:10D9C4000100B5B7175700001307C7991443411155
:10D9D40022C49C5E4AC006C6998326C2858B3A84BB
:10D9E400175900001309C997D1CB9C5E97540000C6
:10D9F4009384049893F7F7F99CDE175700000347C4
:10DA0400879793070008631BF700832709009C434B
:10DA140093F7070417570000230FF79483C70400F4
:10DA240093F707049DC3974700009387E77C9C43C3
:10DA340082979757000023A5A79483C7040093F700
:10DA4400F70B175700002305F79283C7440093F799
:10DA540007048DE7854717570000A30DF7909757E4
:10DA640000009387A7929C43096798C7130700FC9B
:10DA7400975600002380E690D844F8D31C40985F62
:10DA84001183058B09CB985F3D9B98DF054797561B
:10DA940000002381E68E985F1D83058B11CB985F70
:10DAA4001377F7F798DF8547175700002304F78C9F
:10DAB40083270900D8430583058B19C7D843759B71
:10DAC400D8C3D843799BD8C3B24022449244024974
:10DAD40041018280397106DE16DC1ADA1ED82AD694
:10DAE4002ED432D236D03ACE3ECC42CA46C872C6C2
:10DAF40076C47AC27EC0F935F250E2525253C25310
:10DB04003255A255125682567247E2475248C248CD
:10DB1400324EA24E124F824F21617300203097572C
:10DB240000009387A7869443975700009387478400
:10DB340003C70700058B11CB97570000238C07827E
:10DB440097570000A3880782828003C71700058BBC
:10DB540065F7F85271FF83C75700DDB71758000007
:10DB640013084880032708001C5F9583858BD1E741
:10DB740009C61C5BBD832300F60085CA8327080001
:10DB8400985B4607935767016356070093E707C0FE
:10DB9400C207C18303970600C207C18709C7BA97A2
:10DBA4000947B3C7E7022390F60085CD83471500E4
:10DBB4008DCB9746000083C6067C93F60604138734
:10DBC400970089478DCA3A950347050085469947CA
:10DBD4001376F7066311D60262076187B947634C6F
:10DBE4000700832708009C5FED838D8B1747000097
:10DBF400A305F77881473E8582808547EDBF4111B3
:10DC040022C406C61744000013044478184049E9A6
:10DC1400AE877453FDFE3E85B28597470000238A84
:10DC24000774975003E0E78000DF9747000093876D
:10DC340067739C43B70680009843558F98C3D857A1
:10DC4400719BD8D797470000A386077297470000B7
:10DC5400A38007721C40094798C3B7F700E003A7E5
:10DC640007D16D9B23A8E7D003A707D15D9B23A809
:10DC7400E7D0730050101440174700001307476F94
:10DC840083472700858B89EB83473700858BD9C76A
:10DC9400974700002380076EB240224441018280EE
:10DCA4008D476310F502974700009387A76B9C4349
:10DCB400B70680009843558F98C3D857719BD8D71F
:10DCC4005DBF8547E319F5FAB567BD075CC70F105B
:10DCD40000001C400967094698C7130700F89746D7
:10DCE40000002389E668174700001307A767144359
:10DCF400984231830D8B6319C7001307E043F8D3AF
:10DD04003D673D07D8C785BF984231830D8B01E736
:10DD140013076019EDB71307E01BD5B7FC52ADF339
:10DD2400A5BF5D7152DC174A0000130AAA630327DA
:10DD34000A0086C6A2C4A6C2CAC04EDE1C439749C6
:10DD4400000093896969174900001309296493F74E
:10DD5400F7E793E707081CC383A609003707CEFF3C
:10DD64007D179C46130680022A84F98F9CC683275C
:10DD74000900130700082800B8CBAE8493051008E7
:10DD8400EFE03FFD975003E0E780E0F2975003E0B7
:10DD9400E780E0FF83270A009376F41F370FFCFF28
:10DDA40023A40700984B4E88CA881367F70398CBBF
:10DDB400F84F130510F8D285137707E0558FF8CF85
:10DDC4009843F576FD16758F98C39843B7063300CC
:10DDD400B70204001377F7E798C398439303401FEF
:10DDE4007D1F1377F7E71367071098C303A709008C
:10DDF400930F800285491C47D58F1CC783270900D0
:10DE04001307900D3400B8CB114901471353370061
:10DE140026938347030013767700B3D7C740858BD7
:10DE2400DDCF9C41832E0800239C07042390070622
:10DE340003AECE02137EDEFF23A6CE0383AE07001D
:10DE4400137EF70793FE0EF833EECE0123A0C7012D
:10DE540003AE4702336E5E0023A2C70383AE0800FD
:10DE6400014E23A27E0603DA070663074E0303AEC0
:10DE74000703038A0600135EFE00620E135E8E41E2
:10DE84006358CA0103AE0703135EFE002380C60174
:10DE940003DE0706137EFE0F03AA4E0663060A007E
:10DEA40003DA8705E37F49FB03AE4702337EEE01C5
:10DEB40023A2C70383870600635CF400034E0300B8
:10DEC4003396C9001346F6FF3376C6012300C30018
:10DED4003E8663D3A7002A8613158601618505074C
:10DEE4001377F70F8506E313F7F3B64026449644F9
:10DEF4000649F259625A616182809746000093860E
:10DF0400E6489C42D8471316170163550602984702
:10DF140013161701635006027D57B8D71747000040
:10DF24001307C723584F0507174600002326E62486
:10DF3400116798C798470D83058B1DC317470000C9
:10DF44000347274313671700174600002303E642DD
:10DF5400130700F817460000230EE640214798C730
:10DF64009847058B09CF174700000347774013678D
:10DF7400170017460000A30DE63E054798C79847CB
:10DF84000983058B09E798470583058B31CF9847AB
:10DF9400174600001306C63D174500001305853CCF
:10DFA4000983058B630307101841184331830D8BD4
:10DFB40075EBAC4B184E93F5050203471700CDCD16
:10DFC40079EF13077006D8CF0347060013671700CD
:10DFD40017460000230EE638114798C718415C57CE
:10DFE400F19B93E717005CD79C429847931637013F
:10DFF40063D606029746000083C6864BC18A17473C
:10E0040000001307A743C5CE03474707136707025A
:10E0140097460000238EE648056798C798479316ED
:10E02400270163D10602174700000347A73462079C
:10E03400618763570700054797460000238CE63243
:10E04400096798C798479316070163D6060297464F
:10E05400000083C6F645858A174700001307073E6C
:10E06400ADCE034757071367270097460000A381E7
:10E07400E644216798C7828029D785456315B70090
:10E084001307B00689B789456315B7001307F0066F
:10E094001DBF8D456315B700130730072DB7130750
:10E0A400500715B71307600739BF034736001367D6
:10E0B400170017460000A30EE62A094739BF834616
:10E0C40047070946BD8A6388C600034747078D464C
:10E0D4003D8BE313D7F4114725BF83465707918A35
:10E0E400C9DA034757071367870041B7397106DE5A
:10E0F40016DC1ADA1ED82AD62ED432D236D03ACE2C
:10E104003ECC42CA46C872C676C47AC27EC0F533D3
:10E11400F250E2525253C2533255A255125682560D
:10E124007247E2475248C248324EA24E124F824FC3
:10E1340021617300203017470000130767258346C9
:10E14400B7019747000083C777274C4BB697FD8BE1
:10E1540033D7F50097460000A38CF62297460000BB
:10E16400A38EF624058B15EF1747000003475725A8
:10E17400B3F7E702814601471305000233D6E500F1
:10E18400058A1378F70F19CA6397D70097470000D9
:10E19400A38007218280850693F6F60F0507E31F07
:10E1A400A7FC828097470000938707059C430111D1
:10E1B40022CC4EC606CE26CA4AC852C456C282973C
:10E1C400974700009387C71E804781496305A406CB
:10E1D400BE84974700009387E7FD038767013E8964
:10E1E40063550706018D135455009747000083C7F4
:10E1F400C71B9379F501636DF402370AC0A8B70A07
:10E204004057153F9C449746000083C6061A13974F
:10E2140056003E9783076901158C63C50700636345
:10E22400470156979747000023A8E718E37BD4FCDF
:10E234001604B3693401F24062444E85D244424923
:10E24400B249224A924A05618280E37D85F8B70784
:10E25400C0A833848740229579B7974700009387F5
:10E26400A7F99C43411122C406C626C28297974748
:10E2740000009387E71380476309A406BE84974789
:10E284000000938727F38387670163D80704018D10
:10E29400135455009747000083C727116367F4049C
:10E2A400593D98449747000083C727109396570019
:10E2B40036971D8C9746000023A0E610E372F4FE07
:10E2C4002244B2409244174500000345750C814531
:10E2D4004101175303E06700A3F2E37A85FAB70715
:10E2E400C0A833848740229565B7B2402244924443
:10E2F40041018280974700009387070E9843B757E0
:10E3040002009387079F83260709139656006358D4
:10E314000600832607091396660063440600FD176A
:10E32400FDF3828071C5AA870145E9C58D07C2073F
:10E33400C183F19BC207C18313074003636FF702D4
:10E34400174700001307470F084317470000130738
:10E35400270E14436398A60217470000130787E5A6
:10E36400185B014541CB4111C20706C60545DD8D49
:10E374000297B2400145410182801747000013070C
:10E38400670BD9B70357650035E303574500636F3F
:10E39400F704B306F7402146637CD6020328050040
:10E3A400938687001D8FAA966117174600000356AF
:10E3B40046DB2392E60023A006012393060014C142
:10E3C4002312F500130786FF97460000239BE6D827
:10E3D4002313B5009745000083D5A5D8B387F5402E
:10E3E40017470000231FF7D62105828008419DB7F7
:10E3F4000145828082800DC1974700009387C7033F
:10E4040003A30700974700009387870283A80700A8
:10E4140081469A8763E31701828003A80700636D2E
:10E42400F50A636BA80A13878700E367E5FE03D642
:10E434006700216705076317E60003C7019805070E
:10E444002380E19897450000938545D103D6470082
:10E4540003D765002393070032974207418317458A
:10E4640000002310E5D0638A6702174500001305F6
:10E4740065FC08416303F50203D5660019ED83D7F3
:10E48400460023A0060121073E9621062392C600DA
:10E49400974700002397E7CCB6879843E30E17F716
:10E4A40097460000938606F99442E307D7F683560D
:10E4B4006700BDF283D64700035647001843A10600
:10E4C400B2962392D70098C383D76500A107174754
:10E4D40000002318F7C88280BE86C28725BF0111B9
:10E4E40097470000938787F522CC03A4C70B26CA5D
:10E4F4004AC84EC606CEAA8413092500854915C00C
:10E5040083C7140003473400858B6304F700405C21
:10E51400FDB71946930544004A85EFE01F89E318C7
:10E5240035FF2285F2406244D2444249B249056132
:10E534008280411197470000938747F022C403A4C7
:10E54400C70B26C24AC006C693042500054901E844
:10E554002285B24022449244024941018280A68528
:10E564001305A40297E003E0E780406AE30225FF75
:10E57400405CF1BF411197470000938727EC22C408
:10E5840003A4C70B26C24AC006C693042500054946
:10E5940001E82285B240224492440249410182802A
:10E5A400A6851305A40197E003E0E7802066E30253
:08E5B40025FF405CF1BF0000EF
:10E5C0009751FF1F938101B717A1FF1F130181A36B
:10E5D00017E5FFFF130545A39725FF1F938585A228
:10E5E0001746FF1F130686FD63FAC5008322050048
:10E5F00023A0550011059105E3EAC5FE17E50300C8
:10E600001305852E9745FF1F938545FB13860186CD
:10E6100063FAC5008322050023A05500110591056A
:10E62000E3EAC5FE138501869785FF1F938505F3F1
:10E630006377B500232005001105E36DB5FEFD42AB
:10E64000739002BC8D4273904280B7220000938287
:10E65000828873A002309722FF1F9382A29A93E2CE
:10E6600032007390523097F20000938222D673905A
:10E670001234730020303D432A876373C3029377BB
:10E68000F700BDEFADE5937606FF3D8ABA960CC361
:10E690004CC30CC74CC74107E36BD7FE11E2828025
:10E6A000B306C3408A069702000096966780A600CC
:10E6B0002307B700A306B7002306B700A305B700DA
:10E6C0002305B700A304B7002304B700A303B700D2
:10E6D0002303B700A302B7002302B700A301B700CA
:10E6E0002301B700A300B7002300B700828093F591
:10E6F000F50F93968500D58D93960501D58D61B75D
:10E70000939627009702000096968682E78086FA05
:10E710009680C1171D8F3E96E374C3F8A5B7336783
:10E72000B500FD530D8B79E7B7877F7F9387F7F7A8
:10E7300010419441B372F6003363F600BE92B3E227
:10E7400062006397720C6318D6065041D441B372CD
:10E75000F6003363F600BE92B3E262006398720A79
:10E76000631BD60410459445B372F6003363F6007C
:10E77000BE92B3E262006391720A631ED6025045F4
:10E78000D445B372F6003363F600BE92B3E2620082
:10E79000639A72086311D60210499449B372F60065
:10E7A0003363F600BE92B3E26200639372085105D0
:10E7B000D105E30FD6F61317060193970601631CE4
:10E7C000F7001357060193D706013305F7409375F9
:10E7D000F50F91E982804183C1833305F74093753A
:10E7E000F50F91E182801377F70F93F7F70F330559
:10E7F000F74082800346050083C6050005058505B0
:10E800006313D60065FA3305D64082801105910561
:10E81000E312D6FE014582802105A105E31CD6FC4A
:10E82000014582803105B105E316D6FC01458280A1
:10E830004105C105E310D6FC014582800147114620
:10E840004148B386E5008147B308F50083C8080056
:10E850008507C10623A816FFE398C7FE1107110517
:10E86000E31107FF8280935785019CC193570541AF
:10E8700093F7F70FDCC19357854093F7F70F1375A4
:10E88000F50F9CC5C8C582801C41411113070501C5
:10E890003EC05C413EC21C453EC45C453EC69397AB
:10E8A00025001408B69783A707FF85051105232EB9
:10E8B000F5FE8D89E315E5FE41018280397122DC88
:10E8C00041661384419F06DE26DA4AD84ED652D4DA
:10E8D00056D25AD05ECE93050501A2863708FF00B6
:10E8E0007D1683070500034735001105E207D98F20
:10E8F0000307D5FF9106420733770701D98F030736
:10E90000E5FF2207718FD98F23AEF6FEE39BA5FCAE
:10E9100081499144930A0101179B0300130B0B4D8E
:10E92000979B0300938B0B4A130AC00293F73400A2
:10E93000032904004844BDE78A85353785450A85A3
:10E94000A1370A871C43110793F6F70093F7070FC7
:10E95000DA97B69783C70700232EF7FEE394EAFE03
:10E96000024592476205C2075D8DB2475D8DA247A1
:10E97000A2075D8D93972900DE979C4385093D8D05
:10E980003345250108C885041104E39144FBF25086
:10E990006254D2544259B259225A925A025BF24BF3
:10E9A000216182803345A90008C8F1BF797122D462
:10E9B00026D24AD04ECE52CC56CA06D62A8A93992F
:10E9C00045000144938A419F13090101C144B307E3
:10E9D0003401D69788438A85793533078A008A8738
:10E9E0001443904391074107B18E2328D7FEE39942
:10E9F00027FF1104E31D94FCB25022549254025993
:10EA0000F249624AD24A45618280397122DC13049C
:10EA1000050106DE22878147C1460C433306F1001B
:10EA200011070CC24C4710083E960CC24C4F1010F8
:10EA30003E960CC29107E392D7FE85450A85A9351B
:10EA40008945080891358D4508103D3D814741476E
:10EA5000B306F10094421104232ED4FE1408BE968E
:10EA6000944254C41410BE969442910754CCE3913E
:10EA7000E7FEF2506254216182800605937705100B
:10EA800089C71375F50F1345B5018280411106C67C
:10EA9000ED37B2404101D5B781471148C1483386AF
:10EAA000F500B306F500014703AE06003303E600A8
:10EAB00005072300C301C106E31807FF9107E39090
:10EAC00017FF82809306050117960300130606427E
:10EAD00013050505138706FF1C43110793F5F7007F
:10EAE00093F7070FB297AE9783C70700232EF7FE61
:10EAF000E394E6FEC106E31FD5FC82801C41411170
:10EB0000FD563EC05C413EC21C453EC45C453EC60F
:10EB10008D47B385B7409307C500139725001008AC
:10EB20003297032707FFFD1598C36393D5008D45E2
:10EB30001387C7FF6314F50041018280BA87F1BFD4
:10EB4000397122DC1304050106DE22878147C146A4
:10EB50000C433306F10011070CC24C4710083E96D7
:10EB60000CC24C4F10103E960CC29107E392D7FE98
:10EB700085450A8561378945080849378D4508105C
:10EB8000B53F81474147B306F10094421104232E5B
:10EB9000D4FE1408BE96944254C41410BE969442F7
:10EBA000910754CCE391E7FEF250625421618280D8
:10EBB0009306050117960300130646231305050562
:10EBC000138706FF1C43110793F5F70093F7070F10
:10EBD000B297AE9783C70700232EF7FEE394E6FEB5
:10EBE000C106E31FD5FC8280411122C406C626C29D
:10EBF00085472E846301F50289476318F500224496
:10EC0000B24092442E8541018DBD8D47631BF500B6
:10EC10002E85A535298C2285B2402244924441019B
:10EC20008280A5476315F5002E858D35DDB7AD478C
:10EC3000631AF5002E85993D8935AA842285353DD4
:10EC4000258DC9BFB5476316F5002E858135AA8489
:10EC5000FDB7B947E311F5FC2E850D3DAA84313D82
:10EC6000A98C2285193D3344950075B7597186D614
:10EC7000A2D4A6D2CAD0CECED2CCD6CADAC8DEC6EC
:10EC8000E2C4E6C2930605040A87AA879043C10737
:10EC900041072328C7FE03A647FF232AC7FE03A672
:10ECA00087FF232CC7FE03A6C7FF232EC7FEE39FC3
:10ECB000D7FC1799030013096937130A0501930953
:10ECC0000505832C0900032C4900832B8900032BA5
:10ECD000C900930A0AFF8A848C406685910A293705
:10ECE0008C482A84628509378C50298C5E85ED3DDD
:10ECF0008C58298C5A85CD3D218D23AEAAFE9104D6
:10ED0000E31C5AFD410A4109E39D49FBB6502654D4
:10ED100096540659F649664AD64A464BB64B264C97
:10ED2000964C656182806382051493F7F500639EBB
:10ED300007121571D6C3AA8A3285A2CDA6CB86CF7B
:10ED4000CAC9CEC7D2C5DAC15EDF62DD66DB6AD969
:10ED50006ED73284AE84EF50732AC147631EF5002C
:10ED60002285A93E0149130A0106979B0300938B54
:10ED7000EB2B294C63419902FE406E44DE444E4920
:10ED8000BE492E4A9E4A0E4BFA5B6A5CDA5C4A5DCB
:10ED9000BA5D2D618280338B2A010C105A85793C33
:10EDA0008145081021318549081019350810B139FD
:10EDB0001C10D2863E8710434107C10623A8C6FE19
:10EDC000032647FF23AAC6FE032687FF23ACC6FE01
:10EDD0000326C7FF23AEC6FEE31FEAFC1797030016
:10EDE0001307C72003280700832D4700032D870042
:10EDF000832CC7005284138607010C4042853ECE07
:10EE00003ACC32CA42C8CD330C482AC66E85E93B9B
:10EE1000B2460C501104A98E6A8536C6F133B2464B
:10EE20004C54A98E668536C6C133B246F247524667
:10EE3000358D88C3910742486247E310F6FC4107CD
:10EE4000B287E391EBFACE85081085098536E39DFC
:10EE500089F50810B13B08104D3EA9450810B93698
:10EE6000DA8508101539410931B78280638D0510A4
:10EE700093F7F500639907105171CECFAA893285B7
:10EE8000A2D5A6D386D7CAD1D2CDD6CBDAC9DEC712
:10EE90003284AE84EF509316C1476319F500228582
:10EEA000313C0149138B419F634D9900BE502E5454
:10EEB0009E540E59FE496E4ADE4A4E4BBE4B6D6162
:10EEC0008280338A29018C0052858D3AA9458800B9
:10EED000F13C138441A8C14A930B00048800DD363D
:10EEE0008800B9398800593308408A85AD3A4840CE
:10EEF0000C08953A08440C10BD3248440C18A53251
:10EF000018018147B306F100944241072328D7FE38
:10EF10001408BE969442232AD7FE1410BE9694423B
:10EF2000232CD7FE1418BE9694429107232ED7FEA9
:10EF3000E39A57FD08011D3B01479C003385E7001C
:10EF40001C01B305F70081473306F5003388F5004F
:10EF50001442032808009107B3C6060114C2E395C2
:10EF600057FF4107E31B77FD4114E31964F788005D
:10EF7000913E8800F136814588000D3CD28588009D
:10EF8000213E410915B782809307F00F6385F60A89
:10EF90002D71232A911023282111B28423263111A7
:10EFA000130600102E89AA89930530020A85232EA4
:10EFB0001110232C81103684EFF0EFEBA28526850B
:10EFC000EFA0D07913178500935785003365F700BC
:10EFD0002310A100A6852286130531009304340076
:10EFE0002301810093F4F40FEF40332A93F6F400E9
:10EFF00089C64D04158C9374F40F1C02A697A68540
:10F000000A851796030013062608238007F0213B84
:10F0100026868A854E85EF4053272300990083205A
:10F02000C111032481118324411103290111832972
:10F03000C110156182808280797122D432844AD0D5
:10F040004ECE2A89AE892285B6851796030013060F
:10F05000A60326D252CC06D636C6093DB246130ABE
:10F0600034005285A296238006008344040083471F
:10F07000140083452400A204DD8CEFA0306E639A57
:10F08000A40203462400D2854A852380C900EF509C
:10F09000C37A254597950300938545FDEFA0D06F72
:10F0A0000545B250225492540259F249624A4561D0
:10F0B00082802380090025452300090097950300DD
:10F0C000938585FBEFA0506D0145E1BF130101DD84
:10F0D0002E86AA85681823261122EFB06036130504
:10F0E000D103EF50A37193150501C1811305D1031D
:10F0F000EFB0604397950300938545261305D10330
:10F10000EFB080051DC105459795030093858525C2
:10F11000EFA090681755FF1F0345C57CEF50C062F4
:10F120008320C122130101238280979503009385D8
:10F13000A5241305D103EFB0200219CD9795030044
:10F14000938505240545EFA030651755FF1F03453E
:10F150006579EF502062E9B79795030093854523C1
:10F160001305D103EFA0507F0DC13717004083274F
:10F17000C70AA1669795030093850522D58F23269C
:10F18000F70A2545EFA0506161BF9795030093856D
:10F1900065211305D103EFA0307C11CD3717004056
:10F1A0008327870AA1669795030093852520D58F2D
:10F1B0002324F70AF9B7979503009385A51F130534
:10F1C000D103EFA0707911CD371700408327C70A0C
:10F1D0009166979503009385A51ED58F2326F70A80
:10F1E0004DB7979503009385A51E1305D103EFA096
:10F1F000B07611CD371700408327870A916697951F
:10F2000003009385A51DD58F2324F70A9DBF9795ED
:10F2100003009385A51D1305D103EFA0F073979507
:10F2200003009385651D31FD979503009385851D2A
:10F230001305D103EFA05072979503009385451DE8
:10F2400029F1979503009385651D1305D103EFA060
:10F25000B07011C59757FF1F23A4076AD1B59795C2
:10F2600003009385651C1305D103EFA0F06E01C563
:10F27000EF50103D75B5979503009385A51B1305B9
:10F28000D103EFA0706D01C5EF50B04251BD97950D
:10F2900003009385E51A1305D103EFA0F06B01C5B8
:10F2A000EF50A07FB5BD979503009385251A1305F0
:10F2B000D103EFA0706A01C5EF80604D95B59795B9
:10F2C0000300938525191305D103EFA0F06801C54C
:10F2D000EF80404CB1B59795030093852518130531
:10F2E000D103EFA0706701C5EF80204B15BD97B526
:10F2F0000300938525311305D103EFA0F06501C507
:10F30000EFA0404731BD979503009385E5151305A0
:10F31000D103EFA0706429C11306000381451305D2
:10F32000A100EFF04FB5F5779387A7EB13076020A7
:10F330002314F1002316E10091471307206039469A
:10F340002C001385416AA305F1002319E100230A6B
:10F35000F100EF701044E9B30346D103A54713064B
:10F3600006FD1376F60FE3EDC7DA97950300938554
:10F3700025109757FF1F238FC756EFA0B0564DB3E8
:10F38000411106C6EF70001DB240AA861797030010
:10F39000130707D61756FF1F1306469A97950300C3
:10F3A000938585D6114541016FA0D053317122DD7F
:10F3B0004AD906DF26DB4ED752D556D35AD103475A
:10F3C0000500930710042A892E84631BF73C03472A
:10F3D0001500930740056315F73C03472500930785
:10F3E000E005631FF73A2E86AA852545EFA0304534
:10F3F0001306D003A2854A85EFA0505CAA84635A05
:10F4000005003546A2854A85EFA0505BAA84634576
:10F4100005089389D4FF9307100363CF37074E86FF
:10F42000930539006808EF5043411C11BE99179AA3
:10F430000300130A2AE8238E09F6D28A8149554B24
:10F4400083254A006808EFA030510DC18E09D69976
:10F4500083D709005147636FF7001797030013071D
:10F46000E7C38A07BA979C43BA9782878509210A1E
:10F47000E39869FD97950300938505E325453DAA2B
:10F480009305F4FF858D13851400C205814601465E
:10F49000C1814A95EF20505CFA506A54DA544A59B7
:10F4A000BA592A5A9A5A0A5B296182809305F4FF55
:10F4B000858D13851400C205C1814A950139E9BFC4
:10F4C0001306F4FF058E138514004206418297A5AA
:10F4D00003009385A5834A95EFA0B05B1754FF1FE7
:10F4E0001304843F31C597950300938525C388088D
:10F4F000EF50A32F8808EF506330131605014182A7
:10F500008C081385416AEF70D02897950300938586
:10F51000A5C31145EFA0502883570400414593E748
:10F5200017001757FF1F2319F73AEFB0405DADB72B
:10F5300097950300938505C21145EFA0F0257D55F1
:10F54000EFB0406183570400F99B1757FF1F231545
:10F55000F73899B7353589B71306F4FF058E13854B
:10F56000140042064182979503009385257A4A95B7
:10F57000EFA030521754FF1F1304043639C18357CC
:10F580000400979503009385A5BD880893E71700AD
:10F590001757FF1F2312F734EF5023258808EF5029
:10F5A000E325131605018C0841821385416AEF702B
:10F5B000501E97950300938565BC1145EFA0D01DA3
:10F5C000E1BD97950300938525BC8808EF50E321A2
:10F5D0008808EF50A322131605018C084182138579
:10F5E000416AEF70101B83570400979503009385C1
:10F5F00065BBF99B1757FF1F2310F72E7DBFEF60E8
:10F6000010739757FF1F9387272DC85FEF40031C88
:10F61000AE862A8697950300938585B91145EFA09C
:10F62000702C9DBDEF50003285BD17960300130668
:10F63000666E97950300938565B81145EFA0902AF3
:10F64000A1BDEF60B074979503009385E5B735F5DC
:10F6500097950300938545B88DB73545EF804008F1
:10F66000AA84EF40A3162A86AE8625459795030007
:10F670009385C5B7EFA01027979703009387C7A975
:10F680008843A6851754FF1F1304C481EF30B329A4
:10F690002328A422EF60F07903250423EF4003130D
:10F6A000AE862A8697950300938505B585BF81456B
:10F6B0000D45EF50A065EF6030692A8697950300ED
:10F6C000938545B69DBF81453145EF502064814506
:10F6D0003945EF50A06381453545EF502063EF6019
:10F6E00010672AC6EF607067B2462A871746FF1F69
:10F6F0001306C664979503009385C5B31145EFA023
:10F70000701E59BB1757FF1F0357679C9756FF1F63
:10F71000938656831746FF1F13064662979503008C
:10F72000938585B3E1BF85471757FF1F230CF79AD1
:10F73000EF60307097950300938545B3BDBD1757B3
:10F74000FF1F0347279A854797950300938585B246
:10F75000E315F7E6C5B785471757FF1FA30FF79CBB
:10F76000EF60306D97950300938585B1B9B59757D4
:10F77000FF1F83C7979C979503009385E5B0E38EA1
:10F7800007E2CDB79757FF1F93870715885FEF40B4
:10F79000E303AE862A86979503009385A5AFBDBD8A
:10F7A0000146A2854A85EF50A038FDB1411122C41F
:10F7B00021649305048099460146254506C69710A5
:10F7C000FF1FE780201F930504802244B240994622
:10F7D00013860186294541011713FF1F6700831D0A
:10F7E00099E10145828075DD011152C403DA418639
:10F7F00026CA93548A008504A204C204C18056C25A
:10F80000B38A4441C20A22CC4AC82E862E842A8951
:10F8100097950300938505E3254593DA0A014EC6C3
:10F8200006CE93890186EFA0F00B63ED8A0883D59D
:10F83000418693F7F50FB1CF8D6783D541869387C6
:10F840000780A2864A86BE9529459710FF1FE7804C
:10F8500060161375F50F29ED83D749001566A29739
:10F860002392F18603D7418683D721866309F70067
:10F8700063F3E700B297998F1396070141822545FC
:10F8800097950300938585DDEFA0D0051375F40FE0
:10F890000DA08D6793870780930600100146BE95E3
:10F8A00025459710FF1FE780E0101375F50F49D528
:10F8B0000145F2406244D2444249B249224A924A46
:10F8C00005618280B3079440D297C207C183A183A8
:10F8D00003C74900850793F7F70F9396870011EB4D
:10F8E0009386170093740AF0A206C204C206C18070
:10F8F000C18283D7218663F6F40033879600E3C97B
:10F90000E7FA0D6A130A0A800146B38544012545CA
:10F910009710FF1FE780000A1375F50F51F983D583
:10F920004186A2864A86D29505B7411122C4138426
:10F93000018622858145194606C69710FF1FE7807C
:10F9400080419307B0FA2300F4008D352244B24081
:10F9500097950300938585C7254541016FA0C06336
:10F96000A1654111994613860186938505802D4531
:10F9700006C69710FF1FE780E00303C701869307C1
:10F98000B00A6303F7005537B24083D6418603D6E9
:10F99000218697950300938525C4254541016FA0D5
:10F9A000607483D741AA0145638C071003D561AA0F
:10F9B0006366F50023A201AA014582803385A74032
:10F9C000D1473355F5021375F50F01E5239201AACE
:10F9D0008280130101BD2324814223261142232268
:10F9E000914223202143232E3141232C4141232ABC
:10F9F000514195471374F50F63F3A7001544228610
:10FA000097950300938545C72545EFA0A06D014953
:10FA10008144938981AA514AA14A9377F90F03D56A
:10FA200061AA1747FF1F0347775E63E98704D14741
:10FA30003304F4022A94239381AAA147631CF70696
:10FA4000A6850808EF40800503D761AA83D741AA9D
:10FA500005456364F70023A201AA8320C142032461
:10FA6000814283244142032901428329C141032A5F
:10FA70008141832A4141130101438280B307490335
:10FA80001408AA97CE9733859600631E5701BE854A
:10FA9000EF4040202317A1008357E1000509BE94E1
:10FAA000C204C1809DBFAA851306E1003E85EF8098
:10FAB0003007DDB726860C080145EF60701169B785
:10FAC0008280011106CE22CC26CA4AC84EC691E9D0
:10FAD00001442285F2406244D2444249B249056160
:10FAE0008280AA8975D583D7418603D621862E8444
:10FAF0009564638AC7006374F60015673A961D8E95
:10FB000093140601C180268697950300938505A965
:10FB10002545EFA0205D938714F06356F40093070A
:10FB2000F00F63EA9700979503009385A5A82545F4
:10FB3000EFA0405B71BF83D4418633878400956713
:10FB400063C7E700A2854E8561398D3159B71569C4
:10FB500033099940420913590901CA854E85493133
:10FB600025D9ED75A695A295C20523920186C1817E
:10FB700033852901D1BF83D641AA81EA9795030035
:10FB80009385C5A925456FA0204103D661AA4111DF
:10FB9000918E97950300938565A9254506C6EFA02C
:10FBA0006054138741AA8355070083D761AA138540
:10FBB00081AA9D8DC2053E95C1812137B24023A205
:10FBC00001AA41018280411183D741AA22C426C2E1
:10FBD00006C6AE971307401FAA842E84635AF70007
:10FBE000593F97950300938525A12545EFA0C03A7D
:10FBF00083D741AA138581AA2286A6853E95EF3038
:10FC0000D36803D641AA229642062244B2409244C7
:10FC100041822392C1AA979503009385659F25454C
:10FC200041016FA0204C011126CA06CE22CC4AC841
:10FC30004EC652C456C2814459C1D1C183D7218610
:10FC400003D44186638D870663F587081D8C4204C3
:10FC50004180AE892A8922869795030093858590F5
:10FC60000145EFA02048A28463F38900CE84C2043A
:10FC70000D6A83D7218603D74186C180938A018686
:10FC8000130A0A8063FAE704A6864A86B385470109
:10FC90002D459710FF1FE780E0D183D72A00A69754
:10FCA0002391F186EFF09FB083D6418603D621865B
:10FCB000979503009385458C2545EFA0A042F2401F
:10FCC000624426854249D244B249224A924A056199
:10FCD000828015673A949DBF15671D8FB3854701D4
:10FCE00063D5E400A6864A8665B79569B389F9406D
:10FCF0006D743E94C20993D909012694CE864A8632
:10FD000042042D459710FF1FE780C0CA4180A2869C
:10FD100033063901D2852D45239101869710FF1FA7
:10FD2000E78040C983D72A003E94239181869DBFF6
:10FD3000397106DE22DC26DA4AD84ED652D456D2A3
:10FD40005AD05ECE62CCE9C9328455CA368CE9C637
:10FD5000BA8B79C32A89AE8A2300AC0085448149D5
:10FD6000114B330634416353CB001146137AF60F1F
:10FD70005286B3853A01480002C2EF30135103475F
:10FD800051008347610003467100834641004A9752
:10FD9000CA974A96050789070D06CA962307E10008
:10FDA000A306F100A307D1002306C1007800814714
:10FDB00003460700B306F9008507B18E2300D7007C
:10FDC00093F7F70F0507E39567FF8357C1000357C4
:10FDD000E100D29933059C00B98F2316F100B24798
:10FDE00011462C00910493F9F90F3EC493F4F40FDB
:10FDF000EF30B349E3E789F623809B000544228571
:10FE0000F2506254D2544259B259225A925A025B69
:10FE1000F24B624C216182800144D5B71D7186CEC0
:10FE2000A2CCA6CACAC8CEC6D2C4D6C2DAC05EDECA
:10FE300062DC66DA6AD86ED67DC52E84E9C5328961
:10FE40007DC2368CEDC2834D0500AA84814C054DE0
:10FE50009149138A3D00938A1D00138B2D00930B4B
:10FE600000103306A44163D3C90011469377F60FFF
:10FE70003E86B385A40148083EC602CAEF30F3406F
:10FE800083466101034741010346710183475101E4
:10FE9000358F230AE100B18F33C7ED00B346DB0095
:10FEA000A30AF1003346CA00B3C7FA00A30FE1006A
:10FEB000A30ED100230EC100230FF10074080147E7
:10FEC00083C706003386ED00050793870710918FDF
:10FED000B3E777038506A38FF6FEE31337FFF247F8
:10FEE0003305990111462C083ECCEF30133AB24746
:10FEF000910C93FCFC0F3E9D137DFD0FE3638DF68B
:10FF000023009C0105442285F6406644D6444649B8
:10FF1000B649264A964A064BF25B625CD25C425D69
:10FF2000B25D256182800144F9BF397193074006B3
:10FF300022DC33F4F50226DA13077100B684740864
:10FF400006DEB377F6023304F402B387C5003E94AD
:10FF500093978500A181DD8D9317860021825D8EA8
:10FF60002314B1002315C1002C001146D13389C4DC
:10FF700083457100680882942285F2506254D254FD
:10FF80002161828018419387010E104598C3035761
:10FF90004500544590C72392E70058551049D4C7EF
:10FFA000544998CF97850300938585740547254567
:10FFB00090CBD4CB238EE7006F90107E397126DA78
:10FFC0004AD84ED652D456D25AD006DE22DC62CE61
:10FFD00066CC2A89EF4093029374F50F8149254B33
:10FFE000E54A178A0300130A6A6A91ECF2506254D8
:10FFF0004E85D2544259B259225A925A025B724CDF
:020000021000EC
:10000000E24C2161828003470900930707FD93F7C3
:10001000F70F637CFB009307F7F993F7F70F63E2A1
:10002000FA06930797FA93F7F70F13948701618401
:10003000FD14230089002685EF3043012A86AE8611
:1000400003250A0083254A0093F4F40F0509EFE025
:1000500060142AC422852EC6EF20537F2246B24662
:10006000EF20632F2A8C4E85AE8CEF3043052A8615
:10007000AE866285E685EF10E342EF207377AA89AA
:10008000ADB79306F7FB93F6F60F8147E3EFDAF887
:10009000930797FC49BF411122C406C68307950206
:1000A0002A8499C713059502EF30731B238DA1088D
:1000B0008307D41291CB1305D412EF30F319EF302C
:1000C000A37B93878106C8D3B2402244410182803A
:1000D000011126CA9304150022CC9785030093854D
:1000E000E5642A84268506CE4AC84EC6EFA0C00E17
:1000F000631E051097850300938585632685EFA011
:10010000A00D6302050E85448307D4036386070CA4
:1001100013059402EF30B31485491379F50F1305D5
:10012000D4036387340F8947638CF418EF3033139B
:10013000A38EA108631A3901794681451385F10B15
:1001400023830186EFE02FD38307D40885C31305EB
:10015000D408EF30D31003C76186930717002383B9
:10016000F18693878106BA97A38BA7048307D40DE2
:1001700085C31305D40DEF30930E03C76186930733
:1001800017002383F18693878106BA97A38BA70470
:100190008307D41285C31305D412EF30530C03C761
:1001A0006186930717002383F18693878106BA97A8
:1001B000A38BA7048307D41785C31305D417EF3087
:1001C000130A03C76186930717002383F186938779
:1001D0008106BA97A38BA704F2406244D2444249F5
:1001E000B24905618280978503009385A5542685D1
:1001F000EF90907EE31905F026859785030093859F
:10020000A553EF90707D8944E31005F08144EDBD66
:10021000EF30F304238FA108631A990079468145D2
:100220001385110A23830186EFE0EFC48307D40806
:1002300085C31305D408EF30930203C76186930783
:1002400017002383F18693878106BA97A38CA702B0
:100250008307D40D85C31305D40DEF30530003C7B6
:100260006186930717002383F18693878106BA97E7
:10027000A38CA7028307D41285C31305D412EF30D1
:10028000037E03C76186930717002383F186938754
:100290008106BA97A38CA7028307D417E38E07F2CF
:1002A0001305D417EF30A37B03C7618693071700AC
:1002B0002383F18693878106BA97A38CA70229BF6F
:1002C000EF30E379A38FA10801BF411122C406C614
:1002D000830795072A8499C713059507EF3023787C
:1002E000A38DA1088307D40899C71305D408EF305C
:1002F0000377238EA1088307540B91CB1305540B6E
:10030000EF308375EF3043579387810688D7B2402B
:10031000224441018280011126CA8146B2840146ED
:1003200052C456C206CE22CC4AC84EC62A8AAE8ACB
:10033000EF10936541CD9307E0046386F4009307C3
:1003400030056395F408978903009389293C03A637
:10035000090083A649005285D685EF10D37F3794D4
:100360009800EF20F348130404682A893375850246
:10037000EF20F35403A6090083A64900EF1093056C
:1003800097870300938707399043D443EF10930472
:100390002A8A33558902AE8AEF2073522A86AE86A6
:1003A0005285D685EF10031013073005AE8763958D
:1003B000E400B7070080AD8FF2406244D244424966
:1003C000B249224A924ABE85056182800145814731
:1003D000E5B7011126CA8146B284014652C456C20D
:1003E00006CE22CC4AC84EC62A8AAE8AEF10D3590E
:1003F00041CD930750046386F4009307700563951D
:10040000F408978903009389693003A6090083A63D
:1004100049005285D685EF10137437949800EF2069
:10042000333D130404682A8933758502EF2033496C
:1004300003A6090083A64900EF10C379978703003C
:100440009387472D9043D443EF10C3782A8A3355BE
:100450008902AE8AEF20B3462A86AE865285D685BB
:10046000EF10430413077005AE876395E400B707E8
:100470000080AD8FF2406244D2444249B249224AE0
:10048000924ABE850561828001458147E5B71357D1
:1004900085009357050113D885009376F50F011158
:1004A0001377F70F93F7F70F618593F5F50F13782F
:1004B000F80F99C211C3B9E3230CD100A30CE100DA
:1004C000230DF100A30DA100034591018347810194
:1004D0000347A1012205A30E01014207C98F230E84
:1004E000B1000345B101D98F0347D1018345C10153
:1004F000620522075D8DD98D056182803295137565
:10050000F50F13138501135383415D466357660846
:1005100061463363C30285071376D70F114593F7FE
:10052000F70F6305A6002545631AA6007946637F89
:10053000F60205071377F70F85470DA809466312E2
:10054000C7041386067D93084006B36816036385C7
:10055000080013F5360011C5130500193366A6020D
:1005600019EE75466374F60085470D47230CD100DC
:10057000A30CE100230DF100A30D6100B1B771469A
:10058000D5B77D46E374F6FEB147E314F7FA850666
:1005900093F6F60F85470547D1BFE35903FC610584
:1005A000FD171313850193F7F70F13538341DDFFF5
:1005B0007D171377F70F1146F947E309C7FA194674
:1005C000E306C7FA2546E303C7FA2D46E300C7FA58
:1005D00089476316F7021386067D93074006B367C3
:1005E000F60291C793F83600F547E38108F89307C0
:1005F0000019B367F60293B71700F10785BFFD47EF
:1006000035F7FD1693F6F60F31478DB78347150082
:10061000034705000111A2075D8F8347250083462C
:10062000350006CEC207D98F0347550083454500E4
:100630001746FF1F1306068703065621E206220708
:1006400033E5F600D98DA135135885001356050101
:1006500093D7850013F7F50F93F7F70F935685019E
:100660001376F60F9375F80F1375F50FEF60F066BC
:100670009747FF1F83C7178305476385E700114727
:100680006396E700F24005616F60D074F240056147
:1006900082804971232481161384810683073400E4
:1006A00083C8D10603C8C10603C7A10683C6910645
:1006B00003C68106978503009385C5094810232644
:1006C00011162322911623202117232E3115EF40D6
:1006D000630D4810EF40831218485C48030604037A
:1006E0003AC03EC2030814035C4418445410978572
:1006F0000300938525083695EF40C30A4810EF4064
:10070000E30F5C103E958307640017860300130611
:10071000E60389C7178603001306C60297950300F0
:10072000938505CCEF4003084810EF40230D544C4F
:10073000104C5C10978503009385C5043E95EF40EF
:1007400063064810EF40830B030634035C103E95AC
:10075000978503009385C503EF40C3044810EF401D
:10076000E30903072403AA8448503ACE1384810680
:10077000EF30C30572475C10AE862A86978503006A
:100780009385050233859700EF40C3014810EF4081
:10079000E3065C1003C6C109978503009385C50174
:1007A0003E95EF4023004810EF4043055C109785CD
:1007B0000300938565013E95EF402303138961088B
:1007C000A28497990300938929C103C6740519CAA5
:1007D000481032CEEF40830272465C10CE853E95C3
:1007E000EF30537C8504E39224FF4810EF4003016F
:1007F0005C10978503009385A5FD3E95EF30F37E51
:1008000097940300938444BD0346940319CA481087
:1008100032CEEF30B37E72465C10A6853E95EF3047
:1008200073780504E31224FF4C102545EF90C07641
:100830008320C1160324811683244116032901163F
:100840008329C11575618280411122C406C626C262
:10085000830755012A84B9C7A946938707FDB38743
:10086000D70203476501130707FDBA97A385F10671
:100870000307750183478501130707FD3307D70277
:10088000938707FD3E972386E1068307950103477B
:10089000A501938707FDB387D702130707FDBA9712
:1008A000A386F1068307940281CB1307100463919A
:1008B000E71485472387F1068307D40393848106D1
:1008C00099C71305D403EF30231988C4CCC4030699
:1008D000140509CA8844CC44238CC108EFF0BFA397
:1008E00088C4CCC48307540699C713055406EF3057
:1008F000A31688C8CCC80306940709CA8848CC4800
:10090000A38CC108EFF0FFAC88C8CCC88307D4081B
:1009100099CF1305D408EF302314978703009387EA
:10092000E7E19043D443EF10132388CCCCCC83076A
:10093000140A99C71305140AEF3063122394A1080F
:100940008307540BB9C7A946938707FDB387D7021E
:100950000347640B130707FDBA972385F1060307C6
:10096000740B8347840B130707FD3307D702938764
:1009700007FD3E97A384E1068307940B0347A40B6E
:10098000938707FDB387D702130707FDBA97238420
:10099000F10683853400856703C6C106938707E1A6
:1009A0001307C0033307E60283C6D106B387F502F7
:1009B000BA97B69723AAF1081747FF1F1307C7F185
:1009C000835707003A8413F5870039E103856400F3
:1009D0000547631FE50203C7A10611EF8844CC4415
:1009E00001468146EF10437A05E923870106B9A045
:1009F00023870106D1B5FDD175D2EDD293E78700EB
:100A0000138581061747FF1F2318F7ECEFF01FC06F
:100A100083876400E1F7D1BF8848CC48014681460E
:100A2000EF10837679D183C7A106E1D3130680073F
:100A300093858106138501FFEF30230503C501CAA5
:100A40009D4705053365F5021306800793858106EA
:100A50002380A1CA930780073305F502938781CAD3
:100A60003E95EF308302EFF0DFC25C542244B24087
:100A700092441747FF1F232BF7E813068007814591
:100A80001385810641016FD01FBF0171232C811E88
:100A9000232A911E1306101E2A84AE846800814505
:100AA000232E111E2328211FEFD0FFBC8145814733
:100AB000014701465148CD485D436341960899C1BD
:100AC0002306F1001306A002A6852285EF90006F91
:100AD0008347C10051473386A440B387E70293059B
:100AE000150078007D16A29585073305F700EF20E5
:100AF000D3791306A002A685228503491400EF903E
:100B0000E06B894763C4A7080345C100D14733059B
:100B1000F5027C0005053E95EFF04FCA631DA90460
:100B2000194697850300938565BF1305D100EF90A3
:100B300040762DC56800EFF03FD135A8B306C4005C
:100B400003C50600930665FD93F6D60F91EA850767
:100B500093F7F70F6361F302854501470506B1BFBF
:100B6000B3860703130E011FF296BA96A38EA6E072
:100B70000507E3D5E8FE8320C11F0324811F8324DA
:100B8000411F0329011F1301012082803307F40054
:100B90000347070085073349E900ADB71946978534
:100BA00003009385E5B71305D100EF90806E0DED3E
:100BB0001946978503009385E5B61305D100EF909C
:100BC000406D19ED1946978503009385E5B513052A
:100BD000D100EF90006C45D16800EFF06FCF61BF9E
:100BE0006800EFF08FEE41BF6800EFF0CFCA61B749
:100BF000757122C526C34AC1CEDED2DCD6DADAD878
:100C000006C7AA892E89814401448147130A4002FC
:100C1000854A354B139704014183636C2701BA4021
:100C20002A449A440A49F659665AD65A465B49619B
:100C30008280338799000347070063004703639C62
:100C40005701631D67019C18A297A2856800238E37
:100C500007F8253D8147850475BF01449C18A2977C
:100C600005041374F40F238EE7F893373406E5B7C1
:100C7000411106C6138501CA834705001307800783
:100C80008145B387E70213068007A1073E95EFD0A1
:100C90009F9EB2408145114541016F90D05F138501
:100CA00001CA8347050013078007B387E702A1073E
:100CB0003E958280138501FF82809747FF1F83C77F
:100CC00027C281CF9737FF1F83D7273FFD17C20762
:100CD000C1831307A0036375F70023A401868280F4
:100CE00031714ED79389818683A7090056D3938AA1
:100CF00001CA850722DD26DB52D55AD15ECF62CDEF
:100D000066CB6AC906DF4AD96EC723A4F18683C4BD
:100D100001CA014A130C80075684978C0300938CF8
:100D20006C97054D9D4B154B33898403569983076A
:100D3000E900E1CF03A60C0083A64C0003250902BD
:100D400083254902EF10C3556341050C834709040D
:100D5000638DA70B93171A001808BA9703578902D7
:100D60002390E7003C00D29723809700050A99045E
:100D7000B3E47403E31A6AFB03578101835701014B
:100D8000998F13D7F741B98F998F93940701130760
:100D9000400BC1806358F70093078016B3849740D7
:100DA000C204C1802686978503009385A5916808B3
:100DB000EF30531F6C082545EF90001E938714FFFA
:100DC000C207C1837947636EF70803499100130A8C
:100DD00080078545014533094903210922994A863F
:100DE000EF70F0228344B10085450145B38444038C
:100DF000A104A2942686EF709021CA850D45EF20AC
:100E0000B06BA6850D45EF20306B83A7090017371F
:100E1000FF1F0357872A63E7E70203C501CA93044C
:100E2000800733059502B30DA4008387ED0099CBAD
:100E300083C7C10F1389010E6397070E2105229501
:100E4000EFF04F94FA506A54DA544A59BA592A5A70
:100E50009A5A0A5BFA4B6A4CDA4C4A4DBA4D2961F0
:100E600082809307D002E3F297FA834B8100930AC2
:100E700080078545B38B5B030145138C8B00229C57
:100E80006286EF70D018034B910085450145330B06
:100E90005B03A29B210B229B5A86EF705017034ADB
:100EA000A10085450145330A5A03210A229A528638
:100EB000EF70F0150349B100854501453309590329
:100EC000210922994A86EF7090148344C100854518
:100ED0000145B3845403A104A2942686EF70301315
:100EE000E2850D45EF20505DDA850D45EF20D05CA1
:100EF000D2850D45EF20505CCA850D45EF20D05BB3
:100F0000A6850D45EF20505B83C701CAB38A5703FE
:100F100003A74B03A29A83A74A03E318F7EE85477A
:100F20002380FA04DDB5177D0300130D2D7703260A
:100F30000D0083264D0003A58D0183A5CD01977972
:100F4000030093892976EF10034103A6090083A6C5
:100F50004900EF0033482A8BAE8B03260D00832611
:100F60004D000325090183254901EF10C33E03A667
:100F7000090083A64900EF00F3452A8AAE8A2A8633
:100F8000AE865A85DE85EF10930897770300938726
:100F9000E7719043D443EF10033CEFD0800A2A8CD2
:100FA000AE8C5A85DE85EFD0A0002A8BAE8B5285A1
:100FB000D685EFC0F07F032689008326C9002A8AE0
:100FC000AE8A03A50D0183A54D01EF10530403263E
:100FD0000D0083264D00EF10033803A6090083A6F9
:100FE0004900EF00333F977703009387276C9043C6
:100FF000D443EF104336EFD0C0042A89AE8952861D
:10100000D6865A85DE85EF1003354A86CE86EF10E8
:1010100083344A86CE86EF1003342A89AE896286ED
:10102000E6866285E685EF1003332A86AE864A851A
:10103000CE85EF002347EFD04048EFD0C0092A8685
:10104000AE86EF002346977703009387A766904309
:10105000D443EF104330977703009387276690437C
:10106000D443EF10432F2A86AE862A89AE896808BA
:101070009775030093850566EF30C3726C082545AC
:10108000EF8090711735FF1F0345C5EBEF10137C00
:101090002A86AE864A85CE85EF10A315E354A0DAE2
:1010A00003C601CA330696028545014521062296EC
:1010B000EF70E07583C501CAB38595020D45A105A2
:1010C000A295EF20703F03C501CA330595022105A3
:1010D0002295EFE03FEB23A40186ADB3411106C694
:1010E000EF80E00EEF70305B83C70187214763908C
:1010F000E7021737FF1FA30BF7F09737FF1F23896E
:1011000007C4EF500053B24041016F5080579737EA
:10111000FF1FA38D07EEF5B7411106C622C4054790
:101120006303E6042A8419CA0947630DE6048D4760
:101130006307F606B240224441018280979503007E
:101140009385058C1145EF803065A2851145EF80B0
:10115000B0642244B240979503009385258C1145D5
:1011600041016F807063F9D69042EF50E033224422
:10117000B240014697550000938585383D454101B1
:101180006F30E038C5DA2244C8C2B24003C5A600B9
:101190002394B6003686954541016F70406722441E
:1011A000B24041016FC0606555715810930631021D
:1011B00013062102930511029307510213056102E0
:1011C00086C7EF60402A9737FF1F9387E77083D762
:1011D0000700BD9B1737FF1F2310F770EFF03FACE0
:1011E000030305039305E0048356610203471102DC
:1011F000834721020348310283484102034E5102D2
:1012000017A60300130646436316B30017760300C0
:10121000130646F3830E150313035004032F8500B2
:10122000832FC500977503009385C5F163866E0013
:1012300097A50300938545400323050183234501BA
:101240007AC41ACC1ECE7EC672C02EC832C2978512
:1012500003009385A5F61736FF1F130626AE281048
:10126000EF304354EF70A0742810EF302359938768
:10127000C186904393150501938601102810C18102
:10128000613DBE4069618280411106C623A6B186D8
:1012900001C61C4223A0F1109737FF1F83C7F7C078
:1012A0008DEB0545EF905060977503009385855F42
:1012B0002545EF80704E9737FF1F83D7E761B24017
:1012C00093E707011737FF1F2318F76041016F707D
:1012D000406D05470545639CE700EF90F05C0545D0
:1012E000EF90F001977503009385055DD1B7EF90FE
:1012F000B05B0545EF90505D0545EF905000977548
:1013000003009385E55C6DB7411122C42A848307ED
:10131000D40306C626C22E8589C71307F003639837
:10132000E7021737FF1F1307B7BE9736FF1F9386D5
:1013300016BB1736FF1F130676B797750300938504
:1013400065642244B240924441016F30A34597370F
:10135000FF1FA38D07B49737FF1FA38207B89737E6
:10136000FF1FA38707BA034704008547AE8463FACB
:10137000E7009305D4031735FF1F130535B3EF308E
:10138000C3468307940791CF03470400894763FA54
:10139000E700930594071735FF1F130555B4EF3089
:1013A000C3448307540B91CF034704008D4763FA6E
:1013B000E7009305540B1735FF1F130575B5EF3084
:1013C000C3420146974500009385E5AE1305C01260
:1013D000EF30E013EF50E0251737FF1F130757B327
:1013E0009736FF1F9386B6AF1736FF1F130616AC4E
:1013F000977503009385455B2685A1B7411126C2E9
:1014000006C622C4034705008947AE8463F5E70298
:101410009305D5032A841735FF1F130525A2EF3046
:10142000C33C13059407EF2083639737FF1F23996D
:10143000A7A6EF50801AEF50401E1736FF1F130665
:10144000E69F9736FF1F83D6A6A597850300938551
:10145000E5CD2685EF30033585479735FF1F93850A
:10146000E58D1735FF1F1305259C1737FF1FA301B7
:10147000F792EF3083379735FF1F938535A31735E4
:10148000FF1F13050591EF3043369735FF1F9385F6
:1014900015A51735FF1F1305E592EF300335973576
:1014A000FF1F9385F5A61735FF1F1305C594EF3071
:1014B000C333977503009385A5C31735FF1F130525
:1014C000059BEF308332EF5040112244B2409244EA
:1014D000014697650000938545B9130580024101D7
:1014E0006F30E002411122C426C24AC006C68307FB
:1014F000D503AE84178903001309C9821734FF1F6F
:101500001304843D89C71307F0036391E70417357B
:10151000FF1F034515A3EF1073330326090083262D
:101520004900EF00236BEF20233528C0EF20032A6A
:10153000AE862A86977503009385457F2244B24084
:1015400002492685924441016F30C3251305D50316
:10155000EF20E3509737FF1FA385A79E1375F50F64
:10156000EF10D32E0326090083264900EF0083667F
:10157000EF20833028C0EF50C00B2840EF20032518
:10158000AE862A86977503009385457C45BFAA875A
:101590000387D7032E8509C79306F0036315D70287
:1015A0009737FF1F83C75790177603001306C6743B
:1015B00089E7177603001306A674977503009385D1
:1015C000A5756F30231E41111385D70306C622C4AB
:1015D0002E84EF20C3489737FF1FA387A78CEF50B7
:1015E00040059737FF1F83C7378C97750300938596
:1015F000A57189E79775030093858571228522443B
:10160000B24041016F30631E411126C206C6AA8452
:1016100022C48387D4032E8589C71307F0036396FA
:10162000E7049737FF1F83C7578805476385E7029D
:1016300089CB09476386E702B240224492444101C4
:101640008280977503009385A5742244B24092442A
:1016500041016F308319977503009385E575F5B7E0
:101660009775030093850578CDB79384D4032E84B2
:101670002685977503009385E579EF30431E1DC1DC
:1016800089471737FF1FA302F782977503009385D9
:10169000A57C2285EF3063152244B240924441017B
:1016A0006F4030792685EF20833B1375F50F972720
:1016B000FF1FA38CA77E8547977503009385C57789
:1016C000E309F5FC977503009385457579D1894742
:1016D000E30DF5FA1727FF1FA309F77C97750300A1
:1016E0009385C5797DB741112E8597850300938534
:1016F000E58006C6EF30630FB240014697650000F3
:101700009385A5961305200341016F205060411178
:1017100022C426C206C68307D503AE841724FF1F42
:101720001304447889C71307F003639BE702830619
:10173000542117860300130666A363D606001776A6
:101740000300130626A0268597850300938545A2EE
:10175000EF3043052244B240924441016F80705FF4
:101760001305D503EF20A32F9737FF1FA386A79458
:10177000EF80305E0306542197850300938505A111
:101780002545EF803016834754216147B10793F711
:10179000F70F6377F700A1471737FF1FA30EF790E6
:1017A000EF40306983065421178603001306069C18
:1017B00063D60600177603001306C6982244B2408B
:1017C00026859244978503009385C59C41016F202F
:1017D000737D397122DC9307D1022E847810930631
:1017E000B1021306A102930591021305E10206DE80
:1017F00026DA4AD8EF5030478348D1020348C10265
:101800008347B1020347A102834691020356E102D6
:10181000977503009385C5392285EF20B37822851B
:10182000EF20D37D9734FF1F9384040BCC5403A87F
:1018300044030566130606E133F3C5029306C003AD
:101840002295B378C802B377D80233F7D5023EC0E9
:101850009C54B3D8D8023358C802B356D30233D6F7
:10186000C502977503009385E536EF20B373228593
:10187000EF20D3783309A400EF80002C1776030003
:101880001306063109C5177603001306263097752F
:101890000300938525384A85EF20D3702285EF20F9
:1018A000F3751736FF1F0346660797750300938588
:1018B00065372295EF20136F2285EF20337483D78D
:1018C00004002A94177603001306C62C13971701F9
:1018D00063460700177603001306862C32CEEFC04E
:1018E000806C7246AA86977503009385E53422853D
:1018F000EF20536BF2506254D254425921618280DE
:10190000AA870387D7032E8509C79306F0036311BF
:10191000D7029727FF1F83C76759977503009385E1
:10192000E5FC89E797750300938545FF6F20F36B0E
:1019300041111385D70322C406C62E84EF2023123B
:101940001375F50F9727FF1F2382A7561727FF1F31
:101950000347575589476316F7000DE91145EF9086
:10196000001A9727FF1F83C7675497750300938555
:1019700065FC89E797750300938505FF2285EF20B5
:10198000D3662244B24041016F40B04A1145EF9006
:10199000601CC1BFAA870387D7032E8509C793069A
:1019A000F003631ED7029727FF1F83C70750054721
:1019B000638DE70089C70947638EE70082809775CA
:1019C0000300938525016F2053629775030093856B
:1019D000A504D5BF977503009385C509EDB74111DF
:1019E0001385D70322C406C62E84EF204307137540
:1019F000F50F9727FF1F238AA74A8547977503008E
:101A0000938585016306F50297750300938585FC30
:101A100005C18947977503009385C505630AF500DD
:101A20001727FF1F2303F748977503009385450A7F
:101A30002285EF20935B2244B24041016F40703F0A
:101A4000AA870387D7032E8509C79306F003631C73
:101A5000D7001726FF1F0346E64E977503009385B0
:101A600025246F20335441111385D70306C622C4A1
:101A70002E84EF10537F9727FF1F2385A74CEF403D
:101A8000503B22852244B2401726FF1F0346864B57
:101A900097750300938505234101E1B7411122C4E5
:101AA00039452E84814506C6EF304026EF40F02AA6
:101AB0002A8622852244B240977503009385052328
:101AC00041016F20334E411122C41305D5032E84EA
:101AD000977503009385C51706C6EF80E06F11CD9B
